{
  "_format": "hh-sol-artifact-1",
  "contractName": "Metadata2",
  "sourceName": "contracts/Metadata2.sol",
  "abi": [
    {
      "inputs": [
        {
          "internalType": "address",
          "name": "admin",
          "type": "address"
        }
      ],
      "stateMutability": "nonpayable",
      "type": "constructor"
    },
    {
      "anonymous": false,
      "inputs": [
        {
          "indexed": true,
          "internalType": "address",
          "name": "owner",
          "type": "address"
        },
        {
          "indexed": true,
          "internalType": "address",
          "name": "approved",
          "type": "address"
        },
        {
          "indexed": true,
          "internalType": "uint256",
          "name": "tokenId",
          "type": "uint256"
        }
      ],
      "name": "Approval",
      "type": "event"
    },
    {
      "anonymous": false,
      "inputs": [
        {
          "indexed": true,
          "internalType": "address",
          "name": "owner",
          "type": "address"
        },
        {
          "indexed": true,
          "internalType": "address",
          "name": "operator",
          "type": "address"
        },
        {
          "indexed": false,
          "internalType": "bool",
          "name": "approved",
          "type": "bool"
        }
      ],
      "name": "ApprovalForAll",
      "type": "event"
    },
    {
      "anonymous": false,
      "inputs": [
        {
          "indexed": true,
          "internalType": "bytes32",
          "name": "role",
          "type": "bytes32"
        },
        {
          "indexed": true,
          "internalType": "bytes32",
          "name": "previousAdminRole",
          "type": "bytes32"
        },
        {
          "indexed": true,
          "internalType": "bytes32",
          "name": "newAdminRole",
          "type": "bytes32"
        }
      ],
      "name": "RoleAdminChanged",
      "type": "event"
    },
    {
      "anonymous": false,
      "inputs": [
        {
          "indexed": true,
          "internalType": "bytes32",
          "name": "role",
          "type": "bytes32"
        },
        {
          "indexed": true,
          "internalType": "address",
          "name": "account",
          "type": "address"
        },
        {
          "indexed": true,
          "internalType": "address",
          "name": "sender",
          "type": "address"
        }
      ],
      "name": "RoleGranted",
      "type": "event"
    },
    {
      "anonymous": false,
      "inputs": [
        {
          "indexed": true,
          "internalType": "bytes32",
          "name": "role",
          "type": "bytes32"
        },
        {
          "indexed": true,
          "internalType": "address",
          "name": "account",
          "type": "address"
        },
        {
          "indexed": true,
          "internalType": "address",
          "name": "sender",
          "type": "address"
        }
      ],
      "name": "RoleRevoked",
      "type": "event"
    },
    {
      "anonymous": false,
      "inputs": [
        {
          "indexed": true,
          "internalType": "address",
          "name": "from",
          "type": "address"
        },
        {
          "indexed": true,
          "internalType": "address",
          "name": "to",
          "type": "address"
        },
        {
          "indexed": true,
          "internalType": "uint256",
          "name": "tokenId",
          "type": "uint256"
        }
      ],
      "name": "Transfer",
      "type": "event"
    },
    {
      "inputs": [],
      "name": "CONTRACT_ROLE",
      "outputs": [
        {
          "internalType": "bytes32",
          "name": "",
          "type": "bytes32"
        }
      ],
      "stateMutability": "view",
      "type": "function"
    },
    {
      "inputs": [],
      "name": "DEFAULT_ADMIN_ROLE",
      "outputs": [
        {
          "internalType": "bytes32",
          "name": "",
          "type": "bytes32"
        }
      ],
      "stateMutability": "view",
      "type": "function"
    },
    {
      "inputs": [],
      "name": "UPDATER_ROLE",
      "outputs": [
        {
          "internalType": "bytes32",
          "name": "",
          "type": "bytes32"
        }
      ],
      "stateMutability": "view",
      "type": "function"
    },
    {
      "inputs": [
        {
          "internalType": "address",
          "name": "to",
          "type": "address"
        },
        {
          "internalType": "uint256",
          "name": "tokenId",
          "type": "uint256"
        }
      ],
      "name": "approve",
      "outputs": [],
      "stateMutability": "nonpayable",
      "type": "function"
    },
    {
      "inputs": [
        {
          "internalType": "address",
          "name": "owner",
          "type": "address"
        }
      ],
      "name": "balanceOf",
      "outputs": [
        {
          "internalType": "uint256",
          "name": "",
          "type": "uint256"
        }
      ],
      "stateMutability": "view",
      "type": "function"
    },
    {
      "inputs": [
        {
          "internalType": "uint256",
          "name": "tokenId",
          "type": "uint256"
        }
      ],
      "name": "getApproved",
      "outputs": [
        {
          "internalType": "address",
          "name": "",
          "type": "address"
        }
      ],
      "stateMutability": "view",
      "type": "function"
    },
    {
      "inputs": [
        {
          "internalType": "bytes32",
          "name": "role",
          "type": "bytes32"
        }
      ],
      "name": "getRoleAdmin",
      "outputs": [
        {
          "internalType": "bytes32",
          "name": "",
          "type": "bytes32"
        }
      ],
      "stateMutability": "view",
      "type": "function"
    },
    {
      "inputs": [
        {
          "internalType": "bytes32",
          "name": "role",
          "type": "bytes32"
        },
        {
          "internalType": "address",
          "name": "account",
          "type": "address"
        }
      ],
      "name": "grantRole",
      "outputs": [],
      "stateMutability": "nonpayable",
      "type": "function"
    },
    {
      "inputs": [
        {
          "internalType": "bytes32",
          "name": "role",
          "type": "bytes32"
        },
        {
          "internalType": "address",
          "name": "account",
          "type": "address"
        }
      ],
      "name": "hasRole",
      "outputs": [
        {
          "internalType": "bool",
          "name": "",
          "type": "bool"
        }
      ],
      "stateMutability": "view",
      "type": "function"
    },
    {
      "inputs": [
        {
          "internalType": "address",
          "name": "owner",
          "type": "address"
        },
        {
          "internalType": "address",
          "name": "operator",
          "type": "address"
        }
      ],
      "name": "isApprovedForAll",
      "outputs": [
        {
          "internalType": "bool",
          "name": "",
          "type": "bool"
        }
      ],
      "stateMutability": "view",
      "type": "function"
    },
    {
      "inputs": [],
      "name": "name",
      "outputs": [
        {
          "internalType": "string",
          "name": "",
          "type": "string"
        }
      ],
      "stateMutability": "view",
      "type": "function"
    },
    {
      "inputs": [
        {
          "internalType": "uint256",
          "name": "tokenId",
          "type": "uint256"
        }
      ],
      "name": "ownerOf",
      "outputs": [
        {
          "internalType": "address",
          "name": "",
          "type": "address"
        }
      ],
      "stateMutability": "view",
      "type": "function"
    },
    {
      "inputs": [
        {
          "internalType": "bytes32",
          "name": "role",
          "type": "bytes32"
        },
        {
          "internalType": "address",
          "name": "account",
          "type": "address"
        }
      ],
      "name": "renounceRole",
      "outputs": [],
      "stateMutability": "nonpayable",
      "type": "function"
    },
    {
      "inputs": [
        {
          "internalType": "bytes32",
          "name": "role",
          "type": "bytes32"
        },
        {
          "internalType": "address",
          "name": "account",
          "type": "address"
        }
      ],
      "name": "revokeRole",
      "outputs": [],
      "stateMutability": "nonpayable",
      "type": "function"
    },
    {
      "inputs": [
        {
          "internalType": "address",
          "name": "from",
          "type": "address"
        },
        {
          "internalType": "address",
          "name": "to",
          "type": "address"
        },
        {
          "internalType": "uint256",
          "name": "tokenId",
          "type": "uint256"
        }
      ],
      "name": "safeTransferFrom",
      "outputs": [],
      "stateMutability": "nonpayable",
      "type": "function"
    },
    {
      "inputs": [
        {
          "internalType": "address",
          "name": "from",
          "type": "address"
        },
        {
          "internalType": "address",
          "name": "to",
          "type": "address"
        },
        {
          "internalType": "uint256",
          "name": "tokenId",
          "type": "uint256"
        },
        {
          "internalType": "bytes",
          "name": "data",
          "type": "bytes"
        }
      ],
      "name": "safeTransferFrom",
      "outputs": [],
      "stateMutability": "nonpayable",
      "type": "function"
    },
    {
      "inputs": [
        {
          "internalType": "address",
          "name": "operator",
          "type": "address"
        },
        {
          "internalType": "bool",
          "name": "approved",
          "type": "bool"
        }
      ],
      "name": "setApprovalForAll",
      "outputs": [],
      "stateMutability": "nonpayable",
      "type": "function"
    },
    {
      "inputs": [
        {
          "internalType": "uint256",
          "name": "_tokenId",
          "type": "uint256"
        }
      ],
      "name": "setData2",
      "outputs": [
        {
          "components": [
            {
              "internalType": "string",
              "name": "element",
              "type": "string"
            },
            {
              "internalType": "string",
              "name": "weapon",
              "type": "string"
            },
            {
              "internalType": "string",
              "name": "armor",
              "type": "string"
            },
            {
              "internalType": "string",
              "name": "accessory",
              "type": "string"
            }
          ],
          "internalType": "struct Metadata2.MushroomData2",
          "name": "",
          "type": "tuple"
        }
      ],
      "stateMutability": "view",
      "type": "function"
    },
    {
      "inputs": [
        {
          "internalType": "bytes4",
          "name": "interfaceId",
          "type": "bytes4"
        }
      ],
      "name": "supportsInterface",
      "outputs": [
        {
          "internalType": "bool",
          "name": "",
          "type": "bool"
        }
      ],
      "stateMutability": "view",
      "type": "function"
    },
    {
      "inputs": [],
      "name": "symbol",
      "outputs": [
        {
          "internalType": "string",
          "name": "",
          "type": "string"
        }
      ],
      "stateMutability": "view",
      "type": "function"
    },
    {
      "inputs": [
        {
          "internalType": "uint256",
          "name": "index",
          "type": "uint256"
        }
      ],
      "name": "tokenByIndex",
      "outputs": [
        {
          "internalType": "uint256",
          "name": "",
          "type": "uint256"
        }
      ],
      "stateMutability": "view",
      "type": "function"
    },
    {
      "inputs": [
        {
          "internalType": "address",
          "name": "owner",
          "type": "address"
        },
        {
          "internalType": "uint256",
          "name": "index",
          "type": "uint256"
        }
      ],
      "name": "tokenOfOwnerByIndex",
      "outputs": [
        {
          "internalType": "uint256",
          "name": "",
          "type": "uint256"
        }
      ],
      "stateMutability": "view",
      "type": "function"
    },
    {
      "inputs": [
        {
          "internalType": "uint256",
          "name": "tokenId",
          "type": "uint256"
        }
      ],
      "name": "tokenURI",
      "outputs": [
        {
          "internalType": "string",
          "name": "",
          "type": "string"
        }
      ],
      "stateMutability": "view",
      "type": "function"
    },
    {
      "inputs": [],
      "name": "totalSupply",
      "outputs": [
        {
          "internalType": "uint256",
          "name": "",
          "type": "uint256"
        }
      ],
      "stateMutability": "view",
      "type": "function"
    },
    {
      "inputs": [
        {
          "internalType": "address",
          "name": "from",
          "type": "address"
        },
        {
          "internalType": "address",
          "name": "to",
          "type": "address"
        },
        {
          "internalType": "uint256",
          "name": "tokenId",
          "type": "uint256"
        }
      ],
      "name": "transferFrom",
      "outputs": [],
      "stateMutability": "nonpayable",
      "type": "function"
    }
  ],
  "bytecode": "0x60806040526040518060e001604052806040518060400160405280600381526020017f417865000000000000000000000000000000000000000000000000000000000081525081526020016040518060400160405280600681526020017f536379746865000000000000000000000000000000000000000000000000000081525081526020016040518060400160405280600581526020017f53776f726400000000000000000000000000000000000000000000000000000081525081526020016040518060400160405280600581526020017f537065617200000000000000000000000000000000000000000000000000000081525081526020016040518060400160405280600681526020017f48616d6d6572000000000000000000000000000000000000000000000000000081525081526020016040518060400160405280600581526020017f537469636b00000000000000000000000000000000000000000000000000000081525081526020016040518060400160405280600681526020017f4461676765720000000000000000000000000000000000000000000000000000815250815250600b906007620001bc929190620007f5565b5060405180608001604052806040518060400160405280600681526020017f48656c6d6574000000000000000000000000000000000000000000000000000081525081526020016040518060400160405280600a81526020017f4368657374706c6174650000000000000000000000000000000000000000000081525081526020016040518060400160405280600881526020017f4c656767696e677300000000000000000000000000000000000000000000000081525081526020016040518060400160405280600581526020017f426f6f7473000000000000000000000000000000000000000000000000000000815250815250600c906004620002c492919062000855565b5060405180608001604052806040518060400160405280600481526020017f52696e670000000000000000000000000000000000000000000000000000000081525081526020016040518060400160405280600881526020017f4e65636b6c61636500000000000000000000000000000000000000000000000081525081526020016040518060400160405280600881526020017f42726163656c657400000000000000000000000000000000000000000000000081525081526020016040518060400160405280600881526020017f45617272696e6773000000000000000000000000000000000000000000000000815250815250600d906004620003cc92919062000855565b506040518060c001604052806040518060400160405280600481526020017f466972650000000000000000000000000000000000000000000000000000000081525081526020016040518060400160405280600681526020017f506f69736f6e000000000000000000000000000000000000000000000000000081525081526020016040518060400160405280600681526020017f53756c667572000000000000000000000000000000000000000000000000000081525081526020016040518060400160405280600381526020017f496365000000000000000000000000000000000000000000000000000000000081525081526020016040518060400160405280600481526020017f576f6f640000000000000000000000000000000000000000000000000000000081525081526020016040518060400160405280600581526020017f4561727468000000000000000000000000000000000000000000000000000000815250815250600e9060066200054a929190620008b5565b503480156200055857600080fd5b50604051620049523803806200495283398181016040528101906200057e919062000a0c565b6040518060400160405280600f81526020017f4d696e74696e674d757368726f6f6d00000000000000000000000000000000008152506040518060400160405280600281526020017f4d4d0000000000000000000000000000000000000000000000000000000000008152508160009081620005fb919062000cb8565b5080600190816200060d919062000cb8565b505050620006256000801b826200069060201b60201c565b620006577f73e573f9566d61418a34d5de3ff49360f9c51fec37f7486551670290f6285dab336200069060201b60201c565b620006897f364d3d7565c7a8300c96fd53e065d19b65848d7b23b3191adcd55621c744223c336200069060201b60201c565b5062000d9f565b620006a282826200078260201b60201c565b6200077e576001600a600084815260200190815260200160002060000160008373ffffffffffffffffffffffffffffffffffffffff1673ffffffffffffffffffffffffffffffffffffffff16815260200190815260200160002060006101000a81548160ff02191690831515021790555062000723620007ed60201b60201c565b73ffffffffffffffffffffffffffffffffffffffff168173ffffffffffffffffffffffffffffffffffffffff16837f2f8788117e7eff1d82e926ec794901d17c78024a50270940304540a733656f0d60405160405180910390a45b5050565b6000600a600084815260200190815260200160002060000160008373ffffffffffffffffffffffffffffffffffffffff1673ffffffffffffffffffffffffffffffffffffffff16815260200190815260200160002060009054906101000a900460ff16905092915050565b600033905090565b82805482825590600052602060002090810192821562000842579160200282015b828111156200084157825182908162000830919062000cb8565b509160200191906001019062000816565b5b50905062000851919062000915565b5090565b828054828255906000526020600020908101928215620008a2579160200282015b82811115620008a157825182908162000890919062000cb8565b509160200191906001019062000876565b5b509050620008b1919062000915565b5090565b82805482825590600052602060002090810192821562000902579160200282015b8281111562000901578251829081620008f0919062000cb8565b5091602001919060010190620008d6565b5b50905062000911919062000915565b5090565b5b808211156200093957600081816200092f91906200093d565b5060010162000916565b5090565b5080546200094b9062000aa7565b6000825580601f106200095f575062000980565b601f0160209004906000526020600020908101906200097f919062000983565b5b50565b5b808211156200099e57600081600090555060010162000984565b5090565b600080fd5b600073ffffffffffffffffffffffffffffffffffffffff82169050919050565b6000620009d482620009a7565b9050919050565b620009e681620009c7565b8114620009f257600080fd5b50565b60008151905062000a0681620009db565b92915050565b60006020828403121562000a255762000a24620009a2565b5b600062000a3584828501620009f5565b91505092915050565b600081519050919050565b7f4e487b7100000000000000000000000000000000000000000000000000000000600052604160045260246000fd5b7f4e487b7100000000000000000000000000000000000000000000000000000000600052602260045260246000fd5b6000600282049050600182168062000ac057607f821691505b60208210810362000ad65762000ad562000a78565b5b50919050565b60008190508160005260206000209050919050565b60006020601f8301049050919050565b600082821b905092915050565b60006008830262000b407fffffffffffffffffffffffffffffffffffffffffffffffffffffffffffffffff8262000b01565b62000b4c868362000b01565b95508019841693508086168417925050509392505050565b6000819050919050565b6000819050919050565b600062000b9962000b9362000b8d8462000b64565b62000b6e565b62000b64565b9050919050565b6000819050919050565b62000bb58362000b78565b62000bcd62000bc48262000ba0565b84845462000b0e565b825550505050565b600090565b62000be462000bd5565b62000bf181848462000baa565b505050565b5b8181101562000c195762000c0d60008262000bda565b60018101905062000bf7565b5050565b601f82111562000c685762000c328162000adc565b62000c3d8462000af1565b8101602085101562000c4d578190505b62000c6562000c5c8562000af1565b83018262000bf6565b50505b505050565b600082821c905092915050565b600062000c8d6000198460080262000c6d565b1980831691505092915050565b600062000ca8838362000c7a565b9150826002028217905092915050565b62000cc38262000a3e565b67ffffffffffffffff81111562000cdf5762000cde62000a49565b5b62000ceb825462000aa7565b62000cf882828562000c1d565b600060209050601f83116001811462000d30576000841562000d1b578287015190505b62000d27858262000c9a565b86555062000d97565b601f19841662000d408662000adc565b60005b8281101562000d6a5784890151825560018201915060208501945060208101905062000d43565b8683101562000d8a578489015162000d86601f89168262000c7a565b8355505b6001600288020188555050505b505050505050565b613ba38062000daf6000396000f3fe608060405234801561001057600080fd5b50600436106101735760003560e01c806342842e0e116100de57806395d89b4111610097578063b88d4fde11610071578063b88d4fde14610484578063c87b56dd146104a0578063d547741f146104d0578063e985e9c5146104ec57610173565b806395d89b411461042c578063a217fddf1461044a578063a22cb4651461046857610173565b806342842e0e1461033257806347e633801461034e5780634f6ccce71461036c5780636352211e1461039c57806370a08231146103cc57806391d14854146103fc57610173565b806318160ddd1161013057806318160ddd1461026057806323b872dd1461027e578063248a9ca31461029a5780632f2ff15d146102ca5780632f745c59146102e657806336568abe1461031657610173565b806301d61e5d1461017857806301ffc9a7146101a857806303fe46ab146101d857806306fdde03146101f6578063081812fc14610214578063095ea7b314610244575b600080fd5b610192600480360381019061018d919061288d565b61051c565b60405161019f91906129c2565b60405180910390f35b6101c260048036038101906101bd9190612a3c565b61083e565b6040516101cf9190612a84565b60405180910390f35b6101e0610850565b6040516101ed9190612ab8565b60405180910390f35b6101fe610874565b60405161020b9190612b1d565b60405180910390f35b61022e6004803603810190610229919061288d565b610906565b60405161023b9190612b80565b60405180910390f35b61025e60048036038101906102599190612bc7565b61094c565b005b610268610a63565b6040516102759190612c16565b60405180910390f35b61029860048036038101906102939190612c31565b610a70565b005b6102b460048036038101906102af9190612cb0565b610ad0565b6040516102c19190612ab8565b60405180910390f35b6102e460048036038101906102df9190612cdd565b610af0565b005b61030060048036038101906102fb9190612bc7565b610b11565b60405161030d9190612c16565b60405180910390f35b610330600480360381019061032b9190612cdd565b610bb6565b005b61034c60048036038101906103479190612c31565b610c39565b005b610356610c59565b6040516103639190612ab8565b60405180910390f35b6103866004803603810190610381919061288d565b610c7d565b6040516103939190612c16565b60405180910390f35b6103b660048036038101906103b1919061288d565b610cee565b6040516103c39190612b80565b60405180910390f35b6103e660048036038101906103e19190612d1d565b610d74565b6040516103f39190612c16565b60405180910390f35b61041660048036038101906104119190612cdd565b610e2b565b6040516104239190612a84565b60405180910390f35b610434610e96565b6040516104419190612b1d565b60405180910390f35b610452610f28565b60405161045f9190612ab8565b60405180910390f35b610482600480360381019061047d9190612d76565b610f2f565b005b61049e60048036038101906104999190612eeb565b610f45565b005b6104ba60048036038101906104b5919061288d565b610fa7565b6040516104c79190612b1d565b60405180910390f35b6104ea60048036038101906104e59190612cdd565b61100f565b005b61050660048036038101906105019190612f6e565b611030565b6040516105139190612a84565b60405180910390f35b61052461281b565b6000600b8080549050846105389190612fdd565b815481106105495761054861300e565b5b90600052602060002001805461055e9061306c565b80601f016020809104026020016040519081016040528092919081815260200182805461058a9061306c565b80156105d75780601f106105ac576101008083540402835291602001916105d7565b820191906000526020600020905b8154815290600101906020018083116105ba57829003601f168201915b505050505090506000600c8080549050856105f29190612fdd565b815481106106035761060261300e565b5b9060005260206000200180546106189061306c565b80601f01602080910402602001604051908101604052809291908181526020018280546106449061306c565b80156106915780601f1061066657610100808354040283529160200191610691565b820191906000526020600020905b81548152906001019060200180831161067457829003601f168201915b505050505090506000600d8080549050866106ac9190612fdd565b815481106106bd576106bc61300e565b5b9060005260206000200180546106d29061306c565b80601f01602080910402602001604051908101604052809291908181526020018280546106fe9061306c565b801561074b5780601f106107205761010080835404028352916020019161074b565b820191906000526020600020905b81548152906001019060200180831161072e57829003601f168201915b505050505090506000600e8080549050876107669190612fdd565b815481106107775761077661300e565b5b90600052602060002001805461078c9061306c565b80601f01602080910402602001604051908101604052809291908181526020018280546107b89061306c565b80156108055780601f106107da57610100808354040283529160200191610805565b820191906000526020600020905b8154815290600101906020018083116107e857829003601f168201915b50505050509050600060405180608001604052808381526020018681526020018581526020018481525090508095505050505050919050565b6000610849826110c4565b9050919050565b7f364d3d7565c7a8300c96fd53e065d19b65848d7b23b3191adcd55621c744223c81565b6060600080546108839061306c565b80601f01602080910402602001604051908101604052809291908181526020018280546108af9061306c565b80156108fc5780601f106108d1576101008083540402835291602001916108fc565b820191906000526020600020905b8154815290600101906020018083116108df57829003601f168201915b5050505050905090565b60006109118261113e565b6004600083815260200190815260200160002060009054906101000a900473ffffffffffffffffffffffffffffffffffffffff169050919050565b600061095782610cee565b90508073ffffffffffffffffffffffffffffffffffffffff168373ffffffffffffffffffffffffffffffffffffffff16036109c7576040517f08c379a00000000000000000000000000000000000000000000000000000000081526004016109be9061310f565b60405180910390fd5b8073ffffffffffffffffffffffffffffffffffffffff166109e6611189565b73ffffffffffffffffffffffffffffffffffffffff161480610a155750610a1481610a0f611189565b611030565b5b610a54576040517f08c379a0000000000000000000000000000000000000000000000000000000008152600401610a4b906131a1565b60405180910390fd5b610a5e8383611191565b505050565b6000600880549050905090565b610a81610a7b611189565b8261124a565b610ac0576040517f08c379a0000000000000000000000000000000000000000000000000000000008152600401610ab790613233565b60405180910390fd5b610acb8383836112df565b505050565b6000600a6000838152602001908152602001600020600101549050919050565b610af982610ad0565b610b02816115d8565b610b0c83836115ec565b505050565b6000610b1c83610d74565b8210610b5d576040517f08c379a0000000000000000000000000000000000000000000000000000000008152600401610b54906132c5565b60405180910390fd5b600660008473ffffffffffffffffffffffffffffffffffffffff1673ffffffffffffffffffffffffffffffffffffffff168152602001908152602001600020600083815260200190815260200160002054905092915050565b610bbe611189565b73ffffffffffffffffffffffffffffffffffffffff168173ffffffffffffffffffffffffffffffffffffffff1614610c2b576040517f08c379a0000000000000000000000000000000000000000000000000000000008152600401610c2290613357565b60405180910390fd5b610c3582826116cd565b5050565b610c5483838360405180602001604052806000815250610f45565b505050565b7f73e573f9566d61418a34d5de3ff49360f9c51fec37f7486551670290f6285dab81565b6000610c87610a63565b8210610cc8576040517f08c379a0000000000000000000000000000000000000000000000000000000008152600401610cbf906133e9565b60405180910390fd5b60088281548110610cdc57610cdb61300e565b5b90600052602060002001549050919050565b600080610cfa836117af565b9050600073ffffffffffffffffffffffffffffffffffffffff168173ffffffffffffffffffffffffffffffffffffffff1603610d6b576040517f08c379a0000000000000000000000000000000000000000000000000000000008152600401610d6290613455565b60405180910390fd5b80915050919050565b60008073ffffffffffffffffffffffffffffffffffffffff168273ffffffffffffffffffffffffffffffffffffffff1603610de4576040517f08c379a0000000000000000000000000000000000000000000000000000000008152600401610ddb906134e7565b60405180910390fd5b600360008373ffffffffffffffffffffffffffffffffffffffff1673ffffffffffffffffffffffffffffffffffffffff168152602001908152602001600020549050919050565b6000600a600084815260200190815260200160002060000160008373ffffffffffffffffffffffffffffffffffffffff1673ffffffffffffffffffffffffffffffffffffffff16815260200190815260200160002060009054906101000a900460ff16905092915050565b606060018054610ea59061306c565b80601f0160208091040260200160405190810160405280929190818152602001828054610ed19061306c565b8015610f1e5780601f10610ef357610100808354040283529160200191610f1e565b820191906000526020600020905b815481529060010190602001808311610f0157829003601f168201915b5050505050905090565b6000801b81565b610f41610f3a611189565b83836117ec565b5050565b610f56610f50611189565b8361124a565b610f95576040517f08c379a0000000000000000000000000000000000000000000000000000000008152600401610f8c90613233565b60405180910390fd5b610fa184848484611958565b50505050565b6060610fb28261113e565b6000610fbc6119b4565b90506000815111610fdc5760405180602001604052806000815250611007565b80610fe6846119cb565b604051602001610ff7929190613543565b6040516020818303038152906040525b915050919050565b61101882610ad0565b611021816115d8565b61102b83836116cd565b505050565b6000600560008473ffffffffffffffffffffffffffffffffffffffff1673ffffffffffffffffffffffffffffffffffffffff16815260200190815260200160002060008373ffffffffffffffffffffffffffffffffffffffff1673ffffffffffffffffffffffffffffffffffffffff16815260200190815260200160002060009054906101000a900460ff16905092915050565b60007f7965db0b000000000000000000000000000000000000000000000000000000007bffffffffffffffffffffffffffffffffffffffffffffffffffffffff1916827bffffffffffffffffffffffffffffffffffffffffffffffffffffffff19161480611137575061113682611a99565b5b9050919050565b61114781611b13565b611186576040517f08c379a000000000000000000000000000000000000000000000000000000000815260040161117d90613455565b60405180910390fd5b50565b600033905090565b816004600083815260200190815260200160002060006101000a81548173ffffffffffffffffffffffffffffffffffffffff021916908373ffffffffffffffffffffffffffffffffffffffff160217905550808273ffffffffffffffffffffffffffffffffffffffff1661120483610cee565b73ffffffffffffffffffffffffffffffffffffffff167f8c5be1e5ebec7d5bd14f71427d1e84f3dd0314c0f7b2291e5b200ac8c7c3b92560405160405180910390a45050565b60008061125683610cee565b90508073ffffffffffffffffffffffffffffffffffffffff168473ffffffffffffffffffffffffffffffffffffffff16148061129857506112978185611030565b5b806112d657508373ffffffffffffffffffffffffffffffffffffffff166112be84610906565b73ffffffffffffffffffffffffffffffffffffffff16145b91505092915050565b8273ffffffffffffffffffffffffffffffffffffffff166112ff82610cee565b73ffffffffffffffffffffffffffffffffffffffff1614611355576040517f08c379a000000000000000000000000000000000000000000000000000000000815260040161134c906135d9565b60405180910390fd5b600073ffffffffffffffffffffffffffffffffffffffff168273ffffffffffffffffffffffffffffffffffffffff16036113c4576040517f08c379a00000000000000000000000000000000000000000000000000000000081526004016113bb9061366b565b60405180910390fd5b6113d18383836001611b54565b8273ffffffffffffffffffffffffffffffffffffffff166113f182610cee565b73ffffffffffffffffffffffffffffffffffffffff1614611447576040517f08c379a000000000000000000000000000000000000000000000000000000000815260040161143e906135d9565b60405180910390fd5b6004600082815260200190815260200160002060006101000a81549073ffffffffffffffffffffffffffffffffffffffff02191690556001600360008573ffffffffffffffffffffffffffffffffffffffff1673ffffffffffffffffffffffffffffffffffffffff168152602001908152602001600020600082825403925050819055506001600360008473ffffffffffffffffffffffffffffffffffffffff1673ffffffffffffffffffffffffffffffffffffffff16815260200190815260200160002060008282540192505081905550816002600083815260200190815260200160002060006101000a81548173ffffffffffffffffffffffffffffffffffffffff021916908373ffffffffffffffffffffffffffffffffffffffff160217905550808273ffffffffffffffffffffffffffffffffffffffff168473ffffffffffffffffffffffffffffffffffffffff167fddf252ad1be2c89b69c2b068fc378daa952ba7f163c4a11628f55a4df523b3ef60405160405180910390a46115d38383836001611cb2565b505050565b6115e9816115e4611189565b611cb8565b50565b6115f68282610e2b565b6116c9576001600a600084815260200190815260200160002060000160008373ffffffffffffffffffffffffffffffffffffffff1673ffffffffffffffffffffffffffffffffffffffff16815260200190815260200160002060006101000a81548160ff02191690831515021790555061166e611189565b73ffffffffffffffffffffffffffffffffffffffff168173ffffffffffffffffffffffffffffffffffffffff16837f2f8788117e7eff1d82e926ec794901d17c78024a50270940304540a733656f0d60405160405180910390a45b5050565b6116d78282610e2b565b156117ab576000600a600084815260200190815260200160002060000160008373ffffffffffffffffffffffffffffffffffffffff1673ffffffffffffffffffffffffffffffffffffffff16815260200190815260200160002060006101000a81548160ff021916908315150217905550611750611189565b73ffffffffffffffffffffffffffffffffffffffff168173ffffffffffffffffffffffffffffffffffffffff16837ff6391f5c32d9c69d2a47ea670b442974b53935d1edc7fd64eb21e047a839171b60405160405180910390a45b5050565b60006002600083815260200190815260200160002060009054906101000a900473ffffffffffffffffffffffffffffffffffffffff169050919050565b8173ffffffffffffffffffffffffffffffffffffffff168373ffffffffffffffffffffffffffffffffffffffff160361185a576040517f08c379a0000000000000000000000000000000000000000000000000000000008152600401611851906136d7565b60405180910390fd5b80600560008573ffffffffffffffffffffffffffffffffffffffff1673ffffffffffffffffffffffffffffffffffffffff16815260200190815260200160002060008473ffffffffffffffffffffffffffffffffffffffff1673ffffffffffffffffffffffffffffffffffffffff16815260200190815260200160002060006101000a81548160ff0219169083151502179055508173ffffffffffffffffffffffffffffffffffffffff168373ffffffffffffffffffffffffffffffffffffffff167f17307eab39ab6107e8899845ad3d59bd9653f200f220920489ca2b5937696c318360405161194b9190612a84565b60405180910390a3505050565b6119638484846112df565b61196f84848484611d3d565b6119ae576040517f08c379a00000000000000000000000000000000000000000000000000000000081526004016119a590613769565b60405180910390fd5b50505050565b606060405180602001604052806000815250905090565b6060600060016119da84611ec4565b01905060008167ffffffffffffffff8111156119f9576119f8612dc0565b5b6040519080825280601f01601f191660200182016040528015611a2b5781602001600182028036833780820191505090505b509050600082602001820190505b600115611a8e578080600190039150507f3031323334353637383961626364656600000000000000000000000000000000600a86061a8153600a8581611a8257611a81612fae565b5b04945060008503611a39575b819350505050919050565b60007f780e9d63000000000000000000000000000000000000000000000000000000007bffffffffffffffffffffffffffffffffffffffffffffffffffffffff1916827bffffffffffffffffffffffffffffffffffffffffffffffffffffffff19161480611b0c5750611b0b82612017565b5b9050919050565b60008073ffffffffffffffffffffffffffffffffffffffff16611b35836117af565b73ffffffffffffffffffffffffffffffffffffffff1614159050919050565b611b60848484846120f9565b6001811115611ba4576040517f08c379a0000000000000000000000000000000000000000000000000000000008152600401611b9b906137fb565b60405180910390fd5b6000829050600073ffffffffffffffffffffffffffffffffffffffff168573ffffffffffffffffffffffffffffffffffffffff1603611beb57611be68161221f565b611c2a565b8373ffffffffffffffffffffffffffffffffffffffff168573ffffffffffffffffffffffffffffffffffffffff1614611c2957611c288582612268565b5b5b600073ffffffffffffffffffffffffffffffffffffffff168473ffffffffffffffffffffffffffffffffffffffff1603611c6c57611c67816123d5565b611cab565b8473ffffffffffffffffffffffffffffffffffffffff168473ffffffffffffffffffffffffffffffffffffffff1614611caa57611ca984826124a6565b5b5b5050505050565b50505050565b611cc28282610e2b565b611d3957611ccf81612525565b611cdd8360001c6020612552565b604051602001611cee9291906138b3565b6040516020818303038152906040526040517f08c379a0000000000000000000000000000000000000000000000000000000008152600401611d309190612b1d565b60405180910390fd5b5050565b6000611d5e8473ffffffffffffffffffffffffffffffffffffffff1661278e565b15611eb7578373ffffffffffffffffffffffffffffffffffffffff1663150b7a02611d87611189565b8786866040518563ffffffff1660e01b8152600401611da99493929190613942565b6020604051808303816000875af1925050508015611de557506040513d601f19601f82011682018060405250810190611de291906139a3565b60015b611e67573d8060008114611e15576040519150601f19603f3d011682016040523d82523d6000602084013e611e1a565b606091505b506000815103611e5f576040517f08c379a0000000000000000000000000000000000000000000000000000000008152600401611e5690613769565b60405180910390fd5b805181602001fd5b63150b7a0260e01b7bffffffffffffffffffffffffffffffffffffffffffffffffffffffff1916817bffffffffffffffffffffffffffffffffffffffffffffffffffffffff191614915050611ebc565b600190505b949350505050565b600080600090507a184f03e93ff9f4daa797ed6e38ed64bf6a1f0100000000000000008310611f22577a184f03e93ff9f4daa797ed6e38ed64bf6a1f0100000000000000008381611f1857611f17612fae565b5b0492506040810190505b6d04ee2d6d415b85acef81000000008310611f5f576d04ee2d6d415b85acef81000000008381611f5557611f54612fae565b5b0492506020810190505b662386f26fc100008310611f8e57662386f26fc100008381611f8457611f83612fae565b5b0492506010810190505b6305f5e1008310611fb7576305f5e1008381611fad57611fac612fae565b5b0492506008810190505b6127108310611fdc576127108381611fd257611fd1612fae565b5b0492506004810190505b60648310611fff5760648381611ff557611ff4612fae565b5b0492506002810190505b600a831061200e576001810190505b80915050919050565b60007f80ac58cd000000000000000000000000000000000000000000000000000000007bffffffffffffffffffffffffffffffffffffffffffffffffffffffff1916827bffffffffffffffffffffffffffffffffffffffffffffffffffffffff191614806120e257507f5b5e139f000000000000000000000000000000000000000000000000000000007bffffffffffffffffffffffffffffffffffffffffffffffffffffffff1916827bffffffffffffffffffffffffffffffffffffffffffffffffffffffff1916145b806120f257506120f1826127b1565b5b9050919050565b600181111561221957600073ffffffffffffffffffffffffffffffffffffffff168473ffffffffffffffffffffffffffffffffffffffff161461218d5780600360008673ffffffffffffffffffffffffffffffffffffffff1673ffffffffffffffffffffffffffffffffffffffff168152602001908152602001600020600082825461218591906139ff565b925050819055505b600073ffffffffffffffffffffffffffffffffffffffff168373ffffffffffffffffffffffffffffffffffffffff16146122185780600360008573ffffffffffffffffffffffffffffffffffffffff1673ffffffffffffffffffffffffffffffffffffffff16815260200190815260200160002060008282546122109190613a33565b925050819055505b5b50505050565b6008805490506009600083815260200190815260200160002081905550600881908060018154018082558091505060019003906000526020600020016000909190919091505550565b6000600161227584610d74565b61227f91906139ff565b9050600060076000848152602001908152602001600020549050818114612364576000600660008673ffffffffffffffffffffffffffffffffffffffff1673ffffffffffffffffffffffffffffffffffffffff168152602001908152602001600020600084815260200190815260200160002054905080600660008773ffffffffffffffffffffffffffffffffffffffff1673ffffffffffffffffffffffffffffffffffffffff168152602001908152602001600020600084815260200190815260200160002081905550816007600083815260200190815260200160002081905550505b6007600084815260200190815260200160002060009055600660008573ffffffffffffffffffffffffffffffffffffffff1673ffffffffffffffffffffffffffffffffffffffff16815260200190815260200160002060008381526020019081526020016000206000905550505050565b600060016008805490506123e991906139ff565b90506000600960008481526020019081526020016000205490506000600883815481106124195761241861300e565b5b90600052602060002001549050806008838154811061243b5761243a61300e565b5b90600052602060002001819055508160096000838152602001908152602001600020819055506009600085815260200190815260200160002060009055600880548061248a57612489613a67565b5b6001900381819060005260206000200160009055905550505050565b60006124b183610d74565b905081600660008573ffffffffffffffffffffffffffffffffffffffff1673ffffffffffffffffffffffffffffffffffffffff168152602001908152602001600020600083815260200190815260200160002081905550806007600084815260200190815260200160002081905550505050565b606061254b8273ffffffffffffffffffffffffffffffffffffffff16601460ff16612552565b9050919050565b6060600060028360026125659190613a96565b61256f9190613a33565b67ffffffffffffffff81111561258857612587612dc0565b5b6040519080825280601f01601f1916602001820160405280156125ba5781602001600182028036833780820191505090505b5090507f3000000000000000000000000000000000000000000000000000000000000000816000815181106125f2576125f161300e565b5b60200101907effffffffffffffffffffffffffffffffffffffffffffffffffffffffffffff1916908160001a9053507f7800000000000000000000000000000000000000000000000000000000000000816001815181106126565761265561300e565b5b60200101907effffffffffffffffffffffffffffffffffffffffffffffffffffffffffffff1916908160001a905350600060018460026126969190613a96565b6126a09190613a33565b90505b6001811115612740577f3031323334353637383961626364656600000000000000000000000000000000600f8616601081106126e2576126e161300e565b5b1a60f81b8282815181106126f9576126f861300e565b5b60200101907effffffffffffffffffffffffffffffffffffffffffffffffffffffffffffff1916908160001a905350600485901c94508061273990613ad8565b90506126a3565b5060008414612784576040517f08c379a000000000000000000000000000000000000000000000000000000000815260040161277b90613b4d565b60405180910390fd5b8091505092915050565b6000808273ffffffffffffffffffffffffffffffffffffffff163b119050919050565b60007f01ffc9a7000000000000000000000000000000000000000000000000000000007bffffffffffffffffffffffffffffffffffffffffffffffffffffffff1916827bffffffffffffffffffffffffffffffffffffffffffffffffffffffff1916149050919050565b6040518060800160405280606081526020016060815260200160608152602001606081525090565b6000604051905090565b600080fd5b600080fd5b6000819050919050565b61286a81612857565b811461287557600080fd5b50565b60008135905061288781612861565b92915050565b6000602082840312156128a3576128a261284d565b5b60006128b184828501612878565b91505092915050565b600081519050919050565b600082825260208201905092915050565b60005b838110156128f45780820151818401526020810190506128d9565b60008484015250505050565b6000601f19601f8301169050919050565b600061291c826128ba565b61292681856128c5565b93506129368185602086016128d6565b61293f81612900565b840191505092915050565b600060808301600083015184820360008601526129678282612911565b915050602083015184820360208601526129818282612911565b9150506040830151848203604086015261299b8282612911565b915050606083015184820360608601526129b58282612911565b9150508091505092915050565b600060208201905081810360008301526129dc818461294a565b905092915050565b60007fffffffff0000000000000000000000000000000000000000000000000000000082169050919050565b612a19816129e4565b8114612a2457600080fd5b50565b600081359050612a3681612a10565b92915050565b600060208284031215612a5257612a5161284d565b5b6000612a6084828501612a27565b91505092915050565b60008115159050919050565b612a7e81612a69565b82525050565b6000602082019050612a996000830184612a75565b92915050565b6000819050919050565b612ab281612a9f565b82525050565b6000602082019050612acd6000830184612aa9565b92915050565b600082825260208201905092915050565b6000612aef826128ba565b612af98185612ad3565b9350612b098185602086016128d6565b612b1281612900565b840191505092915050565b60006020820190508181036000830152612b378184612ae4565b905092915050565b600073ffffffffffffffffffffffffffffffffffffffff82169050919050565b6000612b6a82612b3f565b9050919050565b612b7a81612b5f565b82525050565b6000602082019050612b956000830184612b71565b92915050565b612ba481612b5f565b8114612baf57600080fd5b50565b600081359050612bc181612b9b565b92915050565b60008060408385031215612bde57612bdd61284d565b5b6000612bec85828601612bb2565b9250506020612bfd85828601612878565b9150509250929050565b612c1081612857565b82525050565b6000602082019050612c2b6000830184612c07565b92915050565b600080600060608486031215612c4a57612c4961284d565b5b6000612c5886828701612bb2565b9350506020612c6986828701612bb2565b9250506040612c7a86828701612878565b9150509250925092565b612c8d81612a9f565b8114612c9857600080fd5b50565b600081359050612caa81612c84565b92915050565b600060208284031215612cc657612cc561284d565b5b6000612cd484828501612c9b565b91505092915050565b60008060408385031215612cf457612cf361284d565b5b6000612d0285828601612c9b565b9250506020612d1385828601612bb2565b9150509250929050565b600060208284031215612d3357612d3261284d565b5b6000612d4184828501612bb2565b91505092915050565b612d5381612a69565b8114612d5e57600080fd5b50565b600081359050612d7081612d4a565b92915050565b60008060408385031215612d8d57612d8c61284d565b5b6000612d9b85828601612bb2565b9250506020612dac85828601612d61565b9150509250929050565b600080fd5b600080fd5b7f4e487b7100000000000000000000000000000000000000000000000000000000600052604160045260246000fd5b612df882612900565b810181811067ffffffffffffffff82111715612e1757612e16612dc0565b5b80604052505050565b6000612e2a612843565b9050612e368282612def565b919050565b600067ffffffffffffffff821115612e5657612e55612dc0565b5b612e5f82612900565b9050602081019050919050565b82818337600083830152505050565b6000612e8e612e8984612e3b565b612e20565b905082815260208101848484011115612eaa57612ea9612dbb565b5b612eb5848285612e6c565b509392505050565b600082601f830112612ed257612ed1612db6565b5b8135612ee2848260208601612e7b565b91505092915050565b60008060008060808587031215612f0557612f0461284d565b5b6000612f1387828801612bb2565b9450506020612f2487828801612bb2565b9350506040612f3587828801612878565b925050606085013567ffffffffffffffff811115612f5657612f55612852565b5b612f6287828801612ebd565b91505092959194509250565b60008060408385031215612f8557612f8461284d565b5b6000612f9385828601612bb2565b9250506020612fa485828601612bb2565b9150509250929050565b7f4e487b7100000000000000000000000000000000000000000000000000000000600052601260045260246000fd5b6000612fe882612857565b9150612ff383612857565b92508261300357613002612fae565b5b828206905092915050565b7f4e487b7100000000000000000000000000000000000000000000000000000000600052603260045260246000fd5b7f4e487b7100000000000000000000000000000000000000000000000000000000600052602260045260246000fd5b6000600282049050600182168061308457607f821691505b6020821081036130975761309661303d565b5b50919050565b7f4552433732313a20617070726f76616c20746f2063757272656e74206f776e6560008201527f7200000000000000000000000000000000000000000000000000000000000000602082015250565b60006130f9602183612ad3565b91506131048261309d565b604082019050919050565b60006020820190508181036000830152613128816130ec565b9050919050565b7f4552433732313a20617070726f76652063616c6c6572206973206e6f7420746f60008201527f6b656e206f776e6572206f7220617070726f76656420666f7220616c6c000000602082015250565b600061318b603d83612ad3565b91506131968261312f565b604082019050919050565b600060208201905081810360008301526131ba8161317e565b9050919050565b7f4552433732313a2063616c6c6572206973206e6f7420746f6b656e206f776e6560008201527f72206f7220617070726f76656400000000000000000000000000000000000000602082015250565b600061321d602d83612ad3565b9150613228826131c1565b604082019050919050565b6000602082019050818103600083015261324c81613210565b9050919050565b7f455243373231456e756d657261626c653a206f776e657220696e646578206f7560008201527f74206f6620626f756e6473000000000000000000000000000000000000000000602082015250565b60006132af602b83612ad3565b91506132ba82613253565b604082019050919050565b600060208201905081810360008301526132de816132a2565b9050919050565b7f416363657373436f6e74726f6c3a2063616e206f6e6c792072656e6f756e636560008201527f20726f6c657320666f722073656c660000000000000000000000000000000000602082015250565b6000613341602f83612ad3565b915061334c826132e5565b604082019050919050565b6000602082019050818103600083015261337081613334565b9050919050565b7f455243373231456e756d657261626c653a20676c6f62616c20696e646578206f60008201527f7574206f6620626f756e64730000000000000000000000000000000000000000602082015250565b60006133d3602c83612ad3565b91506133de82613377565b604082019050919050565b60006020820190508181036000830152613402816133c6565b9050919050565b7f4552433732313a20696e76616c696420746f6b656e2049440000000000000000600082015250565b600061343f601883612ad3565b915061344a82613409565b602082019050919050565b6000602082019050818103600083015261346e81613432565b9050919050565b7f4552433732313a2061646472657373207a65726f206973206e6f74206120766160008201527f6c6964206f776e65720000000000000000000000000000000000000000000000602082015250565b60006134d1602983612ad3565b91506134dc82613475565b604082019050919050565b60006020820190508181036000830152613500816134c4565b9050919050565b600081905092915050565b600061351d826128ba565b6135278185613507565b93506135378185602086016128d6565b80840191505092915050565b600061354f8285613512565b915061355b8284613512565b91508190509392505050565b7f4552433732313a207472616e736665722066726f6d20696e636f72726563742060008201527f6f776e6572000000000000000000000000000000000000000000000000000000602082015250565b60006135c3602583612ad3565b91506135ce82613567565b604082019050919050565b600060208201905081810360008301526135f2816135b6565b9050919050565b7f4552433732313a207472616e7366657220746f20746865207a65726f2061646460008201527f7265737300000000000000000000000000000000000000000000000000000000602082015250565b6000613655602483612ad3565b9150613660826135f9565b604082019050919050565b6000602082019050818103600083015261368481613648565b9050919050565b7f4552433732313a20617070726f766520746f2063616c6c657200000000000000600082015250565b60006136c1601983612ad3565b91506136cc8261368b565b602082019050919050565b600060208201905081810360008301526136f0816136b4565b9050919050565b7f4552433732313a207472616e7366657220746f206e6f6e20455243373231526560008201527f63656976657220696d706c656d656e7465720000000000000000000000000000602082015250565b6000613753603283612ad3565b915061375e826136f7565b604082019050919050565b6000602082019050818103600083015261378281613746565b9050919050565b7f455243373231456e756d657261626c653a20636f6e736563757469766520747260008201527f616e7366657273206e6f7420737570706f727465640000000000000000000000602082015250565b60006137e5603583612ad3565b91506137f082613789565b604082019050919050565b60006020820190508181036000830152613814816137d8565b9050919050565b7f416363657373436f6e74726f6c3a206163636f756e7420000000000000000000600082015250565b6000613851601783613507565b915061385c8261381b565b601782019050919050565b7f206973206d697373696e6720726f6c6520000000000000000000000000000000600082015250565b600061389d601183613507565b91506138a882613867565b601182019050919050565b60006138be82613844565b91506138ca8285613512565b91506138d582613890565b91506138e18284613512565b91508190509392505050565b600081519050919050565b600082825260208201905092915050565b6000613914826138ed565b61391e81856138f8565b935061392e8185602086016128d6565b61393781612900565b840191505092915050565b60006080820190506139576000830187612b71565b6139646020830186612b71565b6139716040830185612c07565b81810360608301526139838184613909565b905095945050505050565b60008151905061399d81612a10565b92915050565b6000602082840312156139b9576139b861284d565b5b60006139c78482850161398e565b91505092915050565b7f4e487b7100000000000000000000000000000000000000000000000000000000600052601160045260246000fd5b6000613a0a82612857565b9150613a1583612857565b9250828203905081811115613a2d57613a2c6139d0565b5b92915050565b6000613a3e82612857565b9150613a4983612857565b9250828201905080821115613a6157613a606139d0565b5b92915050565b7f4e487b7100000000000000000000000000000000000000000000000000000000600052603160045260246000fd5b6000613aa182612857565b9150613aac83612857565b9250828202613aba81612857565b91508282048414831517613ad157613ad06139d0565b5b5092915050565b6000613ae382612857565b915060008203613af657613af56139d0565b5b600182039050919050565b7f537472696e67733a20686578206c656e67746820696e73756666696369656e74600082015250565b6000613b37602083612ad3565b9150613b4282613b01565b602082019050919050565b60006020820190508181036000830152613b6681613b2a565b905091905056fea2646970667358221220e091a6b322a0afce04b53e72b18b4d4dba2b404b4efa443a0d975345d9b46a8164736f6c63430008110033",
  "linkReferences": {},
  "deployedLinkReferences": {}
}