{
  "_format": "hh-sol-artifact-1",
  "contractName": "MintingMushroom",
  "sourceName": "contracts/MintingMushroom.sol",
  "abi": [
    {
      "inputs": [
        {
          "internalType": "address",
          "name": "admin",
          "type": "address"
        }
      ],
      "stateMutability": "nonpayable",
      "type": "constructor"
    },
    {
      "anonymous": false,
      "inputs": [
        {
          "indexed": true,
          "internalType": "address",
          "name": "owner",
          "type": "address"
        },
        {
          "indexed": true,
          "internalType": "address",
          "name": "approved",
          "type": "address"
        },
        {
          "indexed": true,
          "internalType": "uint256",
          "name": "tokenId",
          "type": "uint256"
        }
      ],
      "name": "Approval",
      "type": "event"
    },
    {
      "anonymous": false,
      "inputs": [
        {
          "indexed": true,
          "internalType": "address",
          "name": "owner",
          "type": "address"
        },
        {
          "indexed": true,
          "internalType": "address",
          "name": "operator",
          "type": "address"
        },
        {
          "indexed": false,
          "internalType": "bool",
          "name": "approved",
          "type": "bool"
        }
      ],
      "name": "ApprovalForAll",
      "type": "event"
    },
    {
      "anonymous": false,
      "inputs": [
        {
          "indexed": true,
          "internalType": "address",
          "name": "previousOwner",
          "type": "address"
        },
        {
          "indexed": true,
          "internalType": "address",
          "name": "newOwner",
          "type": "address"
        }
      ],
      "name": "OwnershipTransferred",
      "type": "event"
    },
    {
      "anonymous": false,
      "inputs": [
        {
          "indexed": true,
          "internalType": "bytes32",
          "name": "role",
          "type": "bytes32"
        },
        {
          "indexed": true,
          "internalType": "bytes32",
          "name": "previousAdminRole",
          "type": "bytes32"
        },
        {
          "indexed": true,
          "internalType": "bytes32",
          "name": "newAdminRole",
          "type": "bytes32"
        }
      ],
      "name": "RoleAdminChanged",
      "type": "event"
    },
    {
      "anonymous": false,
      "inputs": [
        {
          "indexed": true,
          "internalType": "bytes32",
          "name": "role",
          "type": "bytes32"
        },
        {
          "indexed": true,
          "internalType": "address",
          "name": "account",
          "type": "address"
        },
        {
          "indexed": true,
          "internalType": "address",
          "name": "sender",
          "type": "address"
        }
      ],
      "name": "RoleGranted",
      "type": "event"
    },
    {
      "anonymous": false,
      "inputs": [
        {
          "indexed": true,
          "internalType": "bytes32",
          "name": "role",
          "type": "bytes32"
        },
        {
          "indexed": true,
          "internalType": "address",
          "name": "account",
          "type": "address"
        },
        {
          "indexed": true,
          "internalType": "address",
          "name": "sender",
          "type": "address"
        }
      ],
      "name": "RoleRevoked",
      "type": "event"
    },
    {
      "anonymous": false,
      "inputs": [
        {
          "indexed": true,
          "internalType": "address",
          "name": "from",
          "type": "address"
        },
        {
          "indexed": true,
          "internalType": "address",
          "name": "to",
          "type": "address"
        },
        {
          "indexed": true,
          "internalType": "uint256",
          "name": "tokenId",
          "type": "uint256"
        }
      ],
      "name": "Transfer",
      "type": "event"
    },
    {
      "inputs": [],
      "name": "CONTRACT_ROLE",
      "outputs": [
        {
          "internalType": "bytes32",
          "name": "",
          "type": "bytes32"
        }
      ],
      "stateMutability": "view",
      "type": "function"
    },
    {
      "inputs": [],
      "name": "DEFAULT_ADMIN_ROLE",
      "outputs": [
        {
          "internalType": "bytes32",
          "name": "",
          "type": "bytes32"
        }
      ],
      "stateMutability": "view",
      "type": "function"
    },
    {
      "inputs": [],
      "name": "UPDATER_ROLE",
      "outputs": [
        {
          "internalType": "bytes32",
          "name": "",
          "type": "bytes32"
        }
      ],
      "stateMutability": "view",
      "type": "function"
    },
    {
      "inputs": [],
      "name": "_maxPerWallet",
      "outputs": [
        {
          "internalType": "uint16",
          "name": "",
          "type": "uint16"
        }
      ],
      "stateMutability": "view",
      "type": "function"
    },
    {
      "inputs": [],
      "name": "_mintLimit",
      "outputs": [
        {
          "internalType": "uint32",
          "name": "",
          "type": "uint32"
        }
      ],
      "stateMutability": "view",
      "type": "function"
    },
    {
      "inputs": [],
      "name": "_mintPrice",
      "outputs": [
        {
          "internalType": "uint256",
          "name": "",
          "type": "uint256"
        }
      ],
      "stateMutability": "view",
      "type": "function"
    },
    {
      "inputs": [
        {
          "internalType": "address",
          "name": "to",
          "type": "address"
        },
        {
          "internalType": "uint256",
          "name": "tokenId",
          "type": "uint256"
        }
      ],
      "name": "approve",
      "outputs": [],
      "stateMutability": "nonpayable",
      "type": "function"
    },
    {
      "inputs": [
        {
          "internalType": "address",
          "name": "owner",
          "type": "address"
        }
      ],
      "name": "balanceOf",
      "outputs": [
        {
          "internalType": "uint256",
          "name": "",
          "type": "uint256"
        }
      ],
      "stateMutability": "view",
      "type": "function"
    },
    {
      "inputs": [
        {
          "internalType": "uint256",
          "name": "tokenId",
          "type": "uint256"
        },
        {
          "internalType": "uint32",
          "name": "amount",
          "type": "uint32"
        }
      ],
      "name": "decreaseSpores",
      "outputs": [],
      "stateMutability": "nonpayable",
      "type": "function"
    },
    {
      "inputs": [
        {
          "internalType": "address",
          "name": "toWallet",
          "type": "address"
        }
      ],
      "name": "freeMint",
      "outputs": [],
      "stateMutability": "nonpayable",
      "type": "function"
    },
    {
      "inputs": [
        {
          "internalType": "uint256",
          "name": "tokenId",
          "type": "uint256"
        }
      ],
      "name": "getApproved",
      "outputs": [
        {
          "internalType": "address",
          "name": "",
          "type": "address"
        }
      ],
      "stateMutability": "view",
      "type": "function"
    },
    {
      "inputs": [],
      "name": "getBalance",
      "outputs": [
        {
          "internalType": "uint256",
          "name": "",
          "type": "uint256"
        }
      ],
      "stateMutability": "view",
      "type": "function"
    },
    {
      "inputs": [
        {
          "internalType": "bytes32",
          "name": "role",
          "type": "bytes32"
        }
      ],
      "name": "getRoleAdmin",
      "outputs": [
        {
          "internalType": "bytes32",
          "name": "",
          "type": "bytes32"
        }
      ],
      "stateMutability": "view",
      "type": "function"
    },
    {
      "inputs": [],
      "name": "getTokenIds",
      "outputs": [
        {
          "internalType": "uint256",
          "name": "",
          "type": "uint256"
        }
      ],
      "stateMutability": "view",
      "type": "function"
    },
    {
      "inputs": [
        {
          "internalType": "bytes32",
          "name": "role",
          "type": "bytes32"
        },
        {
          "internalType": "address",
          "name": "account",
          "type": "address"
        }
      ],
      "name": "grantRole",
      "outputs": [],
      "stateMutability": "nonpayable",
      "type": "function"
    },
    {
      "inputs": [
        {
          "internalType": "bytes32",
          "name": "role",
          "type": "bytes32"
        },
        {
          "internalType": "address",
          "name": "account",
          "type": "address"
        }
      ],
      "name": "hasRole",
      "outputs": [
        {
          "internalType": "bool",
          "name": "",
          "type": "bool"
        }
      ],
      "stateMutability": "view",
      "type": "function"
    },
    {
      "inputs": [
        {
          "internalType": "uint256",
          "name": "tokenId",
          "type": "uint256"
        },
        {
          "internalType": "uint256",
          "name": "amount",
          "type": "uint256"
        }
      ],
      "name": "increaseLevel",
      "outputs": [],
      "stateMutability": "nonpayable",
      "type": "function"
    },
    {
      "inputs": [
        {
          "internalType": "uint256",
          "name": "tokenId",
          "type": "uint256"
        },
        {
          "internalType": "uint32",
          "name": "amount",
          "type": "uint32"
        }
      ],
      "name": "increaseSpores",
      "outputs": [],
      "stateMutability": "nonpayable",
      "type": "function"
    },
    {
      "inputs": [
        {
          "internalType": "address",
          "name": "owner",
          "type": "address"
        },
        {
          "internalType": "address",
          "name": "operator",
          "type": "address"
        }
      ],
      "name": "isApprovedForAll",
      "outputs": [
        {
          "internalType": "bool",
          "name": "",
          "type": "bool"
        }
      ],
      "stateMutability": "view",
      "type": "function"
    },
    {
      "inputs": [
        {
          "internalType": "address",
          "name": "recipient",
          "type": "address"
        }
      ],
      "name": "mintNFT",
      "outputs": [
        {
          "internalType": "uint256",
          "name": "",
          "type": "uint256"
        }
      ],
      "stateMutability": "payable",
      "type": "function"
    },
    {
      "inputs": [
        {
          "internalType": "uint256",
          "name": "",
          "type": "uint256"
        }
      ],
      "name": "mushroomTokenAttributes",
      "outputs": [
        {
          "internalType": "uint256",
          "name": "id",
          "type": "uint256"
        },
        {
          "internalType": "uint32",
          "name": "spores",
          "type": "uint32"
        },
        {
          "internalType": "string",
          "name": "backgroundColor",
          "type": "string"
        },
        {
          "internalType": "string",
          "name": "head",
          "type": "string"
        },
        {
          "internalType": "string",
          "name": "eyes",
          "type": "string"
        },
        {
          "internalType": "string",
          "name": "mouth",
          "type": "string"
        },
        {
          "internalType": "string",
          "name": "element",
          "type": "string"
        },
        {
          "internalType": "string",
          "name": "weapon",
          "type": "string"
        },
        {
          "internalType": "string",
          "name": "armor",
          "type": "string"
        },
        {
          "internalType": "string",
          "name": "accessory",
          "type": "string"
        },
        {
          "internalType": "uint256",
          "name": "level",
          "type": "uint256"
        }
      ],
      "stateMutability": "view",
      "type": "function"
    },
    {
      "inputs": [],
      "name": "name",
      "outputs": [
        {
          "internalType": "string",
          "name": "",
          "type": "string"
        }
      ],
      "stateMutability": "view",
      "type": "function"
    },
    {
      "inputs": [],
      "name": "owner",
      "outputs": [
        {
          "internalType": "address",
          "name": "",
          "type": "address"
        }
      ],
      "stateMutability": "view",
      "type": "function"
    },
    {
      "inputs": [
        {
          "internalType": "uint256",
          "name": "tokenId",
          "type": "uint256"
        }
      ],
      "name": "ownerOf",
      "outputs": [
        {
          "internalType": "address",
          "name": "",
          "type": "address"
        }
      ],
      "stateMutability": "view",
      "type": "function"
    },
    {
      "inputs": [],
      "name": "renounceOwnership",
      "outputs": [],
      "stateMutability": "nonpayable",
      "type": "function"
    },
    {
      "inputs": [
        {
          "internalType": "bytes32",
          "name": "role",
          "type": "bytes32"
        },
        {
          "internalType": "address",
          "name": "account",
          "type": "address"
        }
      ],
      "name": "renounceRole",
      "outputs": [],
      "stateMutability": "nonpayable",
      "type": "function"
    },
    {
      "inputs": [
        {
          "internalType": "bytes32",
          "name": "role",
          "type": "bytes32"
        },
        {
          "internalType": "address",
          "name": "account",
          "type": "address"
        }
      ],
      "name": "revokeRole",
      "outputs": [],
      "stateMutability": "nonpayable",
      "type": "function"
    },
    {
      "inputs": [
        {
          "internalType": "address",
          "name": "from",
          "type": "address"
        },
        {
          "internalType": "address",
          "name": "to",
          "type": "address"
        },
        {
          "internalType": "uint256",
          "name": "tokenId",
          "type": "uint256"
        }
      ],
      "name": "safeTransferFrom",
      "outputs": [],
      "stateMutability": "nonpayable",
      "type": "function"
    },
    {
      "inputs": [
        {
          "internalType": "address",
          "name": "from",
          "type": "address"
        },
        {
          "internalType": "address",
          "name": "to",
          "type": "address"
        },
        {
          "internalType": "uint256",
          "name": "tokenId",
          "type": "uint256"
        },
        {
          "internalType": "bytes",
          "name": "data",
          "type": "bytes"
        }
      ],
      "name": "safeTransferFrom",
      "outputs": [],
      "stateMutability": "nonpayable",
      "type": "function"
    },
    {
      "inputs": [
        {
          "internalType": "address",
          "name": "operator",
          "type": "address"
        },
        {
          "internalType": "bool",
          "name": "approved",
          "type": "bool"
        }
      ],
      "name": "setApprovalForAll",
      "outputs": [],
      "stateMutability": "nonpayable",
      "type": "function"
    },
    {
      "inputs": [
        {
          "internalType": "bytes4",
          "name": "interfaceId",
          "type": "bytes4"
        }
      ],
      "name": "supportsInterface",
      "outputs": [
        {
          "internalType": "bool",
          "name": "",
          "type": "bool"
        }
      ],
      "stateMutability": "view",
      "type": "function"
    },
    {
      "inputs": [],
      "name": "symbol",
      "outputs": [
        {
          "internalType": "string",
          "name": "",
          "type": "string"
        }
      ],
      "stateMutability": "view",
      "type": "function"
    },
    {
      "inputs": [
        {
          "internalType": "uint256",
          "name": "index",
          "type": "uint256"
        }
      ],
      "name": "tokenByIndex",
      "outputs": [
        {
          "internalType": "uint256",
          "name": "",
          "type": "uint256"
        }
      ],
      "stateMutability": "view",
      "type": "function"
    },
    {
      "inputs": [
        {
          "internalType": "address",
          "name": "owner",
          "type": "address"
        },
        {
          "internalType": "uint256",
          "name": "index",
          "type": "uint256"
        }
      ],
      "name": "tokenOfOwnerByIndex",
      "outputs": [
        {
          "internalType": "uint256",
          "name": "",
          "type": "uint256"
        }
      ],
      "stateMutability": "view",
      "type": "function"
    },
    {
      "inputs": [
        {
          "internalType": "uint256",
          "name": "tokenId",
          "type": "uint256"
        }
      ],
      "name": "tokenURI",
      "outputs": [
        {
          "internalType": "string",
          "name": "",
          "type": "string"
        }
      ],
      "stateMutability": "view",
      "type": "function"
    },
    {
      "inputs": [],
      "name": "totalSupply",
      "outputs": [
        {
          "internalType": "uint256",
          "name": "",
          "type": "uint256"
        }
      ],
      "stateMutability": "view",
      "type": "function"
    },
    {
      "inputs": [
        {
          "internalType": "address",
          "name": "from",
          "type": "address"
        },
        {
          "internalType": "address",
          "name": "to",
          "type": "address"
        },
        {
          "internalType": "uint256",
          "name": "tokenId",
          "type": "uint256"
        }
      ],
      "name": "transferFrom",
      "outputs": [],
      "stateMutability": "nonpayable",
      "type": "function"
    },
    {
      "inputs": [
        {
          "internalType": "address",
          "name": "newOwner",
          "type": "address"
        }
      ],
      "name": "transferOwnership",
      "outputs": [],
      "stateMutability": "nonpayable",
      "type": "function"
    },
    {
      "inputs": [
        {
          "internalType": "address",
          "name": "_to",
          "type": "address"
        },
        {
          "internalType": "uint256",
          "name": "_value",
          "type": "uint256"
        }
      ],
      "name": "withdrawBalance",
      "outputs": [],
      "stateMutability": "nonpayable",
      "type": "function"
    },
    {
      "stateMutability": "payable",
      "type": "receive"
    }
  ],
  "bytecode": "0x60806040526103e8600e60006101000a81548163ffffffff021916908363ffffffff1602179055506064600e60046101000a81548161ffff021916908361ffff160217905550662386f26fc10000600f553480156200005d57600080fd5b5060405162005c5738038062005c57833981810160405281019062000083919062000477565b6040518060400160405280601281526020017f4d616c6963696f7573204d757368726f6f6d00000000000000000000000000008152506040518060400160405280600481526020017f4d55534800000000000000000000000000000000000000000000000000000000815250816000908162000100919062000723565b50806001908162000112919062000723565b5050506200013562000129620001cc60201b60201c565b620001d460201b60201c565b6200014c600c6200029a60201b62001b2f1760201c565b620001616000801b82620002b060201b60201c565b620001937f73e573f9566d61418a34d5de3ff49360f9c51fec37f7486551670290f6285dab33620002b060201b60201c565b620001c57f364d3d7565c7a8300c96fd53e065d19b65848d7b23b3191adcd55621c744223c33620002b060201b60201c565b506200080a565b600033905090565b6000600b60009054906101000a900473ffffffffffffffffffffffffffffffffffffffff16905081600b60006101000a81548173ffffffffffffffffffffffffffffffffffffffff021916908373ffffffffffffffffffffffffffffffffffffffff1602179055508173ffffffffffffffffffffffffffffffffffffffff168173ffffffffffffffffffffffffffffffffffffffff167f8be0079c531659141344cd1fd0a4f28419497f9722a3daafe3b4186f6b6457e060405160405180910390a35050565b6001816000016000828254019250508190555050565b620002c28282620003a260201b60201c565b6200039e576001600a600084815260200190815260200160002060000160008373ffffffffffffffffffffffffffffffffffffffff1673ffffffffffffffffffffffffffffffffffffffff16815260200190815260200160002060006101000a81548160ff02191690831515021790555062000343620001cc60201b60201c565b73ffffffffffffffffffffffffffffffffffffffff168173ffffffffffffffffffffffffffffffffffffffff16837f2f8788117e7eff1d82e926ec794901d17c78024a50270940304540a733656f0d60405160405180910390a45b5050565b6000600a600084815260200190815260200160002060000160008373ffffffffffffffffffffffffffffffffffffffff1673ffffffffffffffffffffffffffffffffffffffff16815260200190815260200160002060009054906101000a900460ff16905092915050565b600080fd5b600073ffffffffffffffffffffffffffffffffffffffff82169050919050565b60006200043f8262000412565b9050919050565b620004518162000432565b81146200045d57600080fd5b50565b600081519050620004718162000446565b92915050565b60006020828403121562000490576200048f6200040d565b5b6000620004a08482850162000460565b91505092915050565b600081519050919050565b7f4e487b7100000000000000000000000000000000000000000000000000000000600052604160045260246000fd5b7f4e487b7100000000000000000000000000000000000000000000000000000000600052602260045260246000fd5b600060028204905060018216806200052b57607f821691505b602082108103620005415762000540620004e3565b5b50919050565b60008190508160005260206000209050919050565b60006020601f8301049050919050565b600082821b905092915050565b600060088302620005ab7fffffffffffffffffffffffffffffffffffffffffffffffffffffffffffffffff826200056c565b620005b786836200056c565b95508019841693508086168417925050509392505050565b6000819050919050565b6000819050919050565b600062000604620005fe620005f884620005cf565b620005d9565b620005cf565b9050919050565b6000819050919050565b6200062083620005e3565b620006386200062f826200060b565b84845462000579565b825550505050565b600090565b6200064f62000640565b6200065c81848462000615565b505050565b5b8181101562000684576200067860008262000645565b60018101905062000662565b5050565b601f821115620006d3576200069d8162000547565b620006a8846200055c565b81016020851015620006b8578190505b620006d0620006c7856200055c565b83018262000661565b50505b505050565b600082821c905092915050565b6000620006f860001984600802620006d8565b1980831691505092915050565b6000620007138383620006e5565b9150826002028217905092915050565b6200072e82620004a9565b67ffffffffffffffff8111156200074a5762000749620004b4565b5b62000756825462000512565b6200076382828562000688565b600060209050601f8311600181146200079b576000841562000786578287015190505b62000792858262000705565b86555062000802565b601f198416620007ab8662000547565b60005b82811015620007d557848901518255600182019150602085019450602081019050620007ae565b86831015620007f55784890151620007f1601f891682620006e5565b8355505b6001600288020188555050505b505050505050565b61543d806200081a6000396000f3fe6080604052600436106102345760003560e01c806354ba0f271161012e5780639b62a61b116100ab578063d547741f1161006f578063d547741f1461088f578063e985e9c5146108b8578063f1cf6409146108f5578063f2fde38b14610920578063fa07ce1d146109495761023b565b80639b62a61b146107ac578063a217fddf146107d5578063a22cb46514610800578063b88d4fde14610829578063c87b56dd146108525761023b565b80637f456ef1116100f25780637f456ef1146106c55780637fa8e5e4146106ee5780638da5cb5b1461071957806391d148541461074457806395d89b41146107815761023b565b806354ba0f27146105d95780636352211e1461060957806367f718a91461064657806370a0823114610671578063715018a6146106ae5761023b565b806312065fe0116101bc5780632f745c59116101805780632f745c59146104e257806336568abe1461051f57806342842e0e1461054857806347e63380146105715780634f6ccce71461059c5761023b565b806312065fe0146103fd57806318160ddd1461042857806323b872dd14610453578063248a9ca31461047c5780632f2ff15d146104b95761023b565b806306fdde031161020357806306fdde03146102fc578063081812fc14610327578063095ea7b3146103645780630cf20cc91461038d5780631082fa9f146103b65761023b565b806301ffc9a7146102405780630387da421461027d57806303fe46ab146102a857806304492859146102d35761023b565b3661023b57005b600080fd5b34801561024c57600080fd5b5061026760048036038101906102629190613a55565b610972565b6040516102749190613a9d565b60405180910390f35b34801561028957600080fd5b50610292610984565b60405161029f9190613ad1565b60405180910390f35b3480156102b457600080fd5b506102bd61098a565b6040516102ca9190613b05565b60405180910390f35b3480156102df57600080fd5b506102fa60048036038101906102f59190613b88565b6109ae565b005b34801561030857600080fd5b50610311610a30565b60405161031e9190613c58565b60405180910390f35b34801561033357600080fd5b5061034e60048036038101906103499190613c7a565b610ac2565b60405161035b9190613ce8565b60405180910390f35b34801561037057600080fd5b5061038b60048036038101906103869190613d2f565b610b08565b005b34801561039957600080fd5b506103b460048036038101906103af9190613d2f565b610c1f565b005b3480156103c257600080fd5b506103dd60048036038101906103d89190613c7a565b610cd8565b6040516103f49b9a99989796959493929190613d7e565b60405180910390f35b34801561040957600080fd5b50610412611182565b60405161041f9190613ad1565b60405180910390f35b34801561043457600080fd5b5061043d61118a565b60405161044a9190613ad1565b60405180910390f35b34801561045f57600080fd5b5061047a60048036038101906104759190613e61565b611197565b005b34801561048857600080fd5b506104a3600480360381019061049e9190613ee0565b6111f7565b6040516104b09190613b05565b60405180910390f35b3480156104c557600080fd5b506104e060048036038101906104db9190613f0d565b611217565b005b3480156104ee57600080fd5b5061050960048036038101906105049190613d2f565b611238565b6040516105169190613ad1565b60405180910390f35b34801561052b57600080fd5b5061054660048036038101906105419190613f0d565b6112dd565b005b34801561055457600080fd5b5061056f600480360381019061056a9190613e61565b611360565b005b34801561057d57600080fd5b50610586611380565b6040516105939190613b05565b60405180910390f35b3480156105a857600080fd5b506105c360048036038101906105be9190613c7a565b6113a4565b6040516105d09190613ad1565b60405180910390f35b6105f360048036038101906105ee9190613f4d565b611415565b6040516106009190613ad1565b60405180910390f35b34801561061557600080fd5b50610630600480360381019061062b9190613c7a565b611548565b60405161063d9190613ce8565b60405180910390f35b34801561065257600080fd5b5061065b6115ce565b6040516106689190613ad1565b60405180910390f35b34801561067d57600080fd5b5061069860048036038101906106939190613f4d565b6115df565b6040516106a59190613ad1565b60405180910390f35b3480156106ba57600080fd5b506106c3611696565b005b3480156106d157600080fd5b506106ec60048036038101906106e79190613b88565b6116aa565b005b3480156106fa57600080fd5b5061070361172c565b6040516107109190613f97565b60405180910390f35b34801561072557600080fd5b5061072e611740565b60405161073b9190613ce8565b60405180910390f35b34801561075057600080fd5b5061076b60048036038101906107669190613f0d565b61176a565b6040516107789190613a9d565b60405180910390f35b34801561078d57600080fd5b506107966117d5565b6040516107a39190613c58565b60405180910390f35b3480156107b857600080fd5b506107d360048036038101906107ce9190613fb2565b611867565b005b3480156107e157600080fd5b506107ea6118c3565b6040516107f79190613b05565b60405180910390f35b34801561080c57600080fd5b506108276004803603810190610822919061401e565b6118ca565b005b34801561083557600080fd5b50610850600480360381019061084b9190614193565b6118e0565b005b34801561085e57600080fd5b5061087960048036038101906108749190613c7a565b611942565b6040516108869190613c58565b60405180910390f35b34801561089b57600080fd5b506108b660048036038101906108b19190613f0d565b6119aa565b005b3480156108c457600080fd5b506108df60048036038101906108da9190614216565b6119cb565b6040516108ec9190613a9d565b60405180910390f35b34801561090157600080fd5b5061090a611a5f565b6040516109179190614256565b60405180910390f35b34801561092c57600080fd5b5061094760048036038101906109429190613f4d565b611a75565b005b34801561095557600080fd5b50610970600480360381019061096b9190613f4d565b611af8565b005b600061097d82611b45565b9050919050565b600f5481565b7f364d3d7565c7a8300c96fd53e065d19b65848d7b23b3191adcd55621c744223c81565b7f73e573f9566d61418a34d5de3ff49360f9c51fec37f7486551670290f6285dab6109d881611bbf565b816010600085815260200190815260200160002060010160008282829054906101000a900463ffffffff16610a0d91906142a0565b92506101000a81548163ffffffff021916908363ffffffff160217905550505050565b606060008054610a3f90614307565b80601f0160208091040260200160405190810160405280929190818152602001828054610a6b90614307565b8015610ab85780601f10610a8d57610100808354040283529160200191610ab8565b820191906000526020600020905b815481529060010190602001808311610a9b57829003601f168201915b5050505050905090565b6000610acd82611bd3565b6004600083815260200190815260200160002060009054906101000a900473ffffffffffffffffffffffffffffffffffffffff169050919050565b6000610b1382611548565b90508073ffffffffffffffffffffffffffffffffffffffff168373ffffffffffffffffffffffffffffffffffffffff1603610b83576040517f08c379a0000000000000000000000000000000000000000000000000000000008152600401610b7a906143aa565b60405180910390fd5b8073ffffffffffffffffffffffffffffffffffffffff16610ba2611c1e565b73ffffffffffffffffffffffffffffffffffffffff161480610bd15750610bd081610bcb611c1e565b6119cb565b5b610c10576040517f08c379a0000000000000000000000000000000000000000000000000000000008152600401610c079061443c565b60405180910390fd5b610c1a8383611c26565b505050565b7f73e573f9566d61418a34d5de3ff49360f9c51fec37f7486551670290f6285dab610c4981611bbf565b47821115610c8c576040517f08c379a0000000000000000000000000000000000000000000000000000000008152600401610c83906144a8565b60405180910390fd5b8273ffffffffffffffffffffffffffffffffffffffff166108fc839081150290604051600060405180830381858888f19350505050158015610cd2573d6000803e3d6000fd5b50505050565b60106020528060005260406000206000915090508060000154908060010160009054906101000a900463ffffffff1690806002018054610d1790614307565b80601f0160208091040260200160405190810160405280929190818152602001828054610d4390614307565b8015610d905780601f10610d6557610100808354040283529160200191610d90565b820191906000526020600020905b815481529060010190602001808311610d7357829003601f168201915b505050505090806003018054610da590614307565b80601f0160208091040260200160405190810160405280929190818152602001828054610dd190614307565b8015610e1e5780601f10610df357610100808354040283529160200191610e1e565b820191906000526020600020905b815481529060010190602001808311610e0157829003601f168201915b505050505090806004018054610e3390614307565b80601f0160208091040260200160405190810160405280929190818152602001828054610e5f90614307565b8015610eac5780601f10610e8157610100808354040283529160200191610eac565b820191906000526020600020905b815481529060010190602001808311610e8f57829003601f168201915b505050505090806005018054610ec190614307565b80601f0160208091040260200160405190810160405280929190818152602001828054610eed90614307565b8015610f3a5780601f10610f0f57610100808354040283529160200191610f3a565b820191906000526020600020905b815481529060010190602001808311610f1d57829003601f168201915b505050505090806006018054610f4f90614307565b80601f0160208091040260200160405190810160405280929190818152602001828054610f7b90614307565b8015610fc85780601f10610f9d57610100808354040283529160200191610fc8565b820191906000526020600020905b815481529060010190602001808311610fab57829003601f168201915b505050505090806007018054610fdd90614307565b80601f016020809104026020016040519081016040528092919081815260200182805461100990614307565b80156110565780601f1061102b57610100808354040283529160200191611056565b820191906000526020600020905b81548152906001019060200180831161103957829003601f168201915b50505050509080600801805461106b90614307565b80601f016020809104026020016040519081016040528092919081815260200182805461109790614307565b80156110e45780601f106110b9576101008083540402835291602001916110e4565b820191906000526020600020905b8154815290600101906020018083116110c757829003601f168201915b5050505050908060090180546110f990614307565b80601f016020809104026020016040519081016040528092919081815260200182805461112590614307565b80156111725780601f1061114757610100808354040283529160200191611172565b820191906000526020600020905b81548152906001019060200180831161115557829003601f168201915b50505050509080600a015490508b565b600047905090565b6000600880549050905090565b6111a86111a2611c1e565b82611cdf565b6111e7576040517f08c379a00000000000000000000000000000000000000000000000000000000081526004016111de9061453a565b60405180910390fd5b6111f2838383611d74565b505050565b6000600a6000838152602001908152602001600020600101549050919050565b611220826111f7565b61122981611bbf565b611233838361206d565b505050565b6000611243836115df565b8210611284576040517f08c379a000000000000000000000000000000000000000000000000000000000815260040161127b906145cc565b60405180910390fd5b600660008473ffffffffffffffffffffffffffffffffffffffff1673ffffffffffffffffffffffffffffffffffffffff168152602001908152602001600020600083815260200190815260200160002054905092915050565b6112e5611c1e565b73ffffffffffffffffffffffffffffffffffffffff168173ffffffffffffffffffffffffffffffffffffffff1614611352576040517f08c379a00000000000000000000000000000000000000000000000000000000081526004016113499061465e565b60405180910390fd5b61135c828261214e565b5050565b61137b838383604051806020016040528060008152506118e0565b505050565b7f73e573f9566d61418a34d5de3ff49360f9c51fec37f7486551670290f6285dab81565b60006113ae61118a565b82106113ef576040517f08c379a00000000000000000000000000000000000000000000000000000000081526004016113e6906146f0565b60405180910390fd5b6008828154811061140357611402614710565b5b90600052602060002001549050919050565b6000600e60009054906101000a900463ffffffff1663ffffffff1661143a600c612230565b1061147a576040517f08c379a00000000000000000000000000000000000000000000000000000000081526004016114719061478b565b60405180910390fd5b600f543410156114bf576040517f08c379a00000000000000000000000000000000000000000000000000000000081526004016114b6906144a8565b60405180910390fd5b600e60049054906101000a900461ffff1661ffff166114dd336115df565b1061151d576040517f08c379a0000000000000000000000000000000000000000000000000000000008152600401611514906147f7565b60405180910390fd5b611527600c611b2f565b6000611533600c612230565b905061153f838261223e565b80915050919050565b6000806115548361245b565b9050600073ffffffffffffffffffffffffffffffffffffffff168173ffffffffffffffffffffffffffffffffffffffff16036115c5576040517f08c379a00000000000000000000000000000000000000000000000000000000081526004016115bc90614863565b60405180910390fd5b80915050919050565b60006115da600c612230565b905090565b60008073ffffffffffffffffffffffffffffffffffffffff168273ffffffffffffffffffffffffffffffffffffffff160361164f576040517f08c379a0000000000000000000000000000000000000000000000000000000008152600401611646906148f5565b60405180910390fd5b600360008373ffffffffffffffffffffffffffffffffffffffff1673ffffffffffffffffffffffffffffffffffffffff168152602001908152602001600020549050919050565b61169e612498565b6116a86000612516565b565b7f73e573f9566d61418a34d5de3ff49360f9c51fec37f7486551670290f6285dab6116d481611bbf565b816010600085815260200190815260200160002060010160008282829054906101000a900463ffffffff166117099190614915565b92506101000a81548163ffffffff021916908363ffffffff160217905550505050565b600e60049054906101000a900461ffff1681565b6000600b60009054906101000a900473ffffffffffffffffffffffffffffffffffffffff16905090565b6000600a600084815260200190815260200160002060000160008373ffffffffffffffffffffffffffffffffffffffff1673ffffffffffffffffffffffffffffffffffffffff16815260200190815260200160002060009054906101000a900460ff16905092915050565b6060600180546117e490614307565b80601f016020809104026020016040519081016040528092919081815260200182805461181090614307565b801561185d5780601f106118325761010080835404028352916020019161185d565b820191906000526020600020905b81548152906001019060200180831161184057829003601f168201915b5050505050905090565b7f73e573f9566d61418a34d5de3ff49360f9c51fec37f7486551670290f6285dab61189181611bbf565b8160106000858152602001908152602001600020600a0160008282546118b7919061494d565b92505081905550505050565b6000801b81565b6118dc6118d5611c1e565b83836125dc565b5050565b6118f16118eb611c1e565b83611cdf565b611930576040517f08c379a00000000000000000000000000000000000000000000000000000000081526004016119279061453a565b60405180910390fd5b61193c84848484612748565b50505050565b606061194d82611bd3565b60006119576127a4565b9050600081511161197757604051806020016040528060008152506119a2565b80611981846127bb565b6040516020016119929291906149bd565b6040516020818303038152906040525b915050919050565b6119b3826111f7565b6119bc81611bbf565b6119c6838361214e565b505050565b6000600560008473ffffffffffffffffffffffffffffffffffffffff1673ffffffffffffffffffffffffffffffffffffffff16815260200190815260200160002060008373ffffffffffffffffffffffffffffffffffffffff1673ffffffffffffffffffffffffffffffffffffffff16815260200190815260200160002060009054906101000a900460ff16905092915050565b600e60009054906101000a900463ffffffff1681565b611a7d612498565b600073ffffffffffffffffffffffffffffffffffffffff168173ffffffffffffffffffffffffffffffffffffffff1603611aec576040517f08c379a0000000000000000000000000000000000000000000000000000000008152600401611ae390614a53565b60405180910390fd5b611af581612516565b50565b7f73e573f9566d61418a34d5de3ff49360f9c51fec37f7486551670290f6285dab611b2281611bbf565b611b2b82612889565b5050565b6001816000016000828254019250508190555050565b60007f7965db0b000000000000000000000000000000000000000000000000000000007bffffffffffffffffffffffffffffffffffffffffffffffffffffffff1916827bffffffffffffffffffffffffffffffffffffffffffffffffffffffff19161480611bb85750611bb782612c67565b5b9050919050565b611bd081611bcb611c1e565b612ce1565b50565b611bdc81612d66565b611c1b576040517f08c379a0000000000000000000000000000000000000000000000000000000008152600401611c1290614863565b60405180910390fd5b50565b600033905090565b816004600083815260200190815260200160002060006101000a81548173ffffffffffffffffffffffffffffffffffffffff021916908373ffffffffffffffffffffffffffffffffffffffff160217905550808273ffffffffffffffffffffffffffffffffffffffff16611c9983611548565b73ffffffffffffffffffffffffffffffffffffffff167f8c5be1e5ebec7d5bd14f71427d1e84f3dd0314c0f7b2291e5b200ac8c7c3b92560405160405180910390a45050565b600080611ceb83611548565b90508073ffffffffffffffffffffffffffffffffffffffff168473ffffffffffffffffffffffffffffffffffffffff161480611d2d5750611d2c81856119cb565b5b80611d6b57508373ffffffffffffffffffffffffffffffffffffffff16611d5384610ac2565b73ffffffffffffffffffffffffffffffffffffffff16145b91505092915050565b8273ffffffffffffffffffffffffffffffffffffffff16611d9482611548565b73ffffffffffffffffffffffffffffffffffffffff1614611dea576040517f08c379a0000000000000000000000000000000000000000000000000000000008152600401611de190614ae5565b60405180910390fd5b600073ffffffffffffffffffffffffffffffffffffffff168273ffffffffffffffffffffffffffffffffffffffff1603611e59576040517f08c379a0000000000000000000000000000000000000000000000000000000008152600401611e5090614b77565b60405180910390fd5b611e668383836001612da7565b8273ffffffffffffffffffffffffffffffffffffffff16611e8682611548565b73ffffffffffffffffffffffffffffffffffffffff1614611edc576040517f08c379a0000000000000000000000000000000000000000000000000000000008152600401611ed390614ae5565b60405180910390fd5b6004600082815260200190815260200160002060006101000a81549073ffffffffffffffffffffffffffffffffffffffff02191690556001600360008573ffffffffffffffffffffffffffffffffffffffff1673ffffffffffffffffffffffffffffffffffffffff168152602001908152602001600020600082825403925050819055506001600360008473ffffffffffffffffffffffffffffffffffffffff1673ffffffffffffffffffffffffffffffffffffffff16815260200190815260200160002060008282540192505081905550816002600083815260200190815260200160002060006101000a81548173ffffffffffffffffffffffffffffffffffffffff021916908373ffffffffffffffffffffffffffffffffffffffff160217905550808273ffffffffffffffffffffffffffffffffffffffff168473ffffffffffffffffffffffffffffffffffffffff167fddf252ad1be2c89b69c2b068fc378daa952ba7f163c4a11628f55a4df523b3ef60405160405180910390a46120688383836001612f05565b505050565b612077828261176a565b61214a576001600a600084815260200190815260200160002060000160008373ffffffffffffffffffffffffffffffffffffffff1673ffffffffffffffffffffffffffffffffffffffff16815260200190815260200160002060006101000a81548160ff0219169083151502179055506120ef611c1e565b73ffffffffffffffffffffffffffffffffffffffff168173ffffffffffffffffffffffffffffffffffffffff16837f2f8788117e7eff1d82e926ec794901d17c78024a50270940304540a733656f0d60405160405180910390a45b5050565b612158828261176a565b1561222c576000600a600084815260200190815260200160002060000160008373ffffffffffffffffffffffffffffffffffffffff1673ffffffffffffffffffffffffffffffffffffffff16815260200190815260200160002060006101000a81548160ff0219169083151502179055506121d1611c1e565b73ffffffffffffffffffffffffffffffffffffffff168173ffffffffffffffffffffffffffffffffffffffff16837ff6391f5c32d9c69d2a47ea670b442974b53935d1edc7fd64eb21e047a839171b60405160405180910390a45b5050565b600081600001549050919050565b600073ffffffffffffffffffffffffffffffffffffffff168273ffffffffffffffffffffffffffffffffffffffff16036122ad576040517f08c379a00000000000000000000000000000000000000000000000000000000081526004016122a490614be3565b60405180910390fd5b6122b681612d66565b156122f6576040517f08c379a00000000000000000000000000000000000000000000000000000000081526004016122ed90614c4f565b60405180910390fd5b612304600083836001612da7565b61230d81612d66565b1561234d576040517f08c379a000000000000000000000000000000000000000000000000000000000815260040161234490614c4f565b60405180910390fd5b6001600360008473ffffffffffffffffffffffffffffffffffffffff1673ffffffffffffffffffffffffffffffffffffffff16815260200190815260200160002060008282540192505081905550816002600083815260200190815260200160002060006101000a81548173ffffffffffffffffffffffffffffffffffffffff021916908373ffffffffffffffffffffffffffffffffffffffff160217905550808273ffffffffffffffffffffffffffffffffffffffff16600073ffffffffffffffffffffffffffffffffffffffff167fddf252ad1be2c89b69c2b068fc378daa952ba7f163c4a11628f55a4df523b3ef60405160405180910390a4612457600083836001612f05565b5050565b60006002600083815260200190815260200160002060009054906101000a900473ffffffffffffffffffffffffffffffffffffffff169050919050565b6124a0611c1e565b73ffffffffffffffffffffffffffffffffffffffff166124be611740565b73ffffffffffffffffffffffffffffffffffffffff1614612514576040517f08c379a000000000000000000000000000000000000000000000000000000000815260040161250b90614cbb565b60405180910390fd5b565b6000600b60009054906101000a900473ffffffffffffffffffffffffffffffffffffffff16905081600b60006101000a81548173ffffffffffffffffffffffffffffffffffffffff021916908373ffffffffffffffffffffffffffffffffffffffff1602179055508173ffffffffffffffffffffffffffffffffffffffff168173ffffffffffffffffffffffffffffffffffffffff167f8be0079c531659141344cd1fd0a4f28419497f9722a3daafe3b4186f6b6457e060405160405180910390a35050565b8173ffffffffffffffffffffffffffffffffffffffff168373ffffffffffffffffffffffffffffffffffffffff160361264a576040517f08c379a000000000000000000000000000000000000000000000000000000000815260040161264190614d27565b60405180910390fd5b80600560008573ffffffffffffffffffffffffffffffffffffffff1673ffffffffffffffffffffffffffffffffffffffff16815260200190815260200160002060008473ffffffffffffffffffffffffffffffffffffffff1673ffffffffffffffffffffffffffffffffffffffff16815260200190815260200160002060006101000a81548160ff0219169083151502179055508173ffffffffffffffffffffffffffffffffffffffff168373ffffffffffffffffffffffffffffffffffffffff167f17307eab39ab6107e8899845ad3d59bd9653f200f220920489ca2b5937696c318360405161273b9190613a9d565b60405180910390a3505050565b612753848484611d74565b61275f84848484612f0b565b61279e576040517f08c379a000000000000000000000000000000000000000000000000000000000815260040161279590614db9565b60405180910390fd5b50505050565b606060405180602001604052806000815250905090565b6060600060016127ca84613092565b01905060008167ffffffffffffffff8111156127e9576127e8614068565b5b6040519080825280601f01601f19166020018201604052801561281b5781602001600182028036833780820191505090505b509050600082602001820190505b60011561287e578080600190039150507f3031323334353637383961626364656600000000000000000000000000000000600a86061a8153600a858161287257612871614dd9565b5b04945060008503612829575b819350505050919050565b6000612895600c612230565b9050600e60009054906101000a900463ffffffff1663ffffffff1681106128f1576040517f08c379a00000000000000000000000000000000000000000000000000000000081526004016128e89061478b565b60405180910390fd5b600e60049054906101000a900461ffff1661ffff1661290f336115df565b1061294f576040517f08c379a0000000000000000000000000000000000000000000000000000000008152600401612946906147f7565b60405180910390fd5b612959828261223e565b604051806101600160405280828152602001600063ffffffff1681526020016040518060400160405280600381526020017f526564000000000000000000000000000000000000000000000000000000000081525081526020016040518060400160405280600481526020017f686561640000000000000000000000000000000000000000000000000000000081525081526020016040518060400160405280600381526020017f526564000000000000000000000000000000000000000000000000000000000081525081526020016040518060400160405280600381526020017f526564000000000000000000000000000000000000000000000000000000000081525081526020016040518060400160405280600781526020017f656c656d656e740000000000000000000000000000000000000000000000000081525081526020016040518060400160405280600681526020017f776561706f6e000000000000000000000000000000000000000000000000000081525081526020016040518060400160405280600481526020017f4e6f6e650000000000000000000000000000000000000000000000000000000081525081526020016040518060400160405280600881526020017f4e65636b6c61636500000000000000000000000000000000000000000000000081525081526020016000815250601060008381526020019081526020016000206000820151816000015560208201518160010160006101000a81548163ffffffff021916908363ffffffff1602179055506040820151816002019081612bae9190614fb4565b506060820151816003019081612bc49190614fb4565b506080820151816004019081612bda9190614fb4565b5060a0820151816005019081612bf09190614fb4565b5060c0820151816006019081612c069190614fb4565b5060e0820151816007019081612c1c9190614fb4565b50610100820151816008019081612c339190614fb4565b50610120820151816009019081612c4a9190614fb4565b5061014082015181600a0155905050612c63600c611b2f565b5050565b60007f780e9d63000000000000000000000000000000000000000000000000000000007bffffffffffffffffffffffffffffffffffffffffffffffffffffffff1916827bffffffffffffffffffffffffffffffffffffffffffffffffffffffff19161480612cda5750612cd9826131e5565b5b9050919050565b612ceb828261176a565b612d6257612cf8816132c7565b612d068360001c60206132f4565b604051602001612d1792919061511e565b6040516020818303038152906040526040517f08c379a0000000000000000000000000000000000000000000000000000000008152600401612d599190613c58565b60405180910390fd5b5050565b60008073ffffffffffffffffffffffffffffffffffffffff16612d888361245b565b73ffffffffffffffffffffffffffffffffffffffff1614159050919050565b612db384848484613530565b6001811115612df7576040517f08c379a0000000000000000000000000000000000000000000000000000000008152600401612dee906151ca565b60405180910390fd5b6000829050600073ffffffffffffffffffffffffffffffffffffffff168573ffffffffffffffffffffffffffffffffffffffff1603612e3e57612e3981613656565b612e7d565b8373ffffffffffffffffffffffffffffffffffffffff168573ffffffffffffffffffffffffffffffffffffffff1614612e7c57612e7b858261369f565b5b5b600073ffffffffffffffffffffffffffffffffffffffff168473ffffffffffffffffffffffffffffffffffffffff1603612ebf57612eba8161380c565b612efe565b8473ffffffffffffffffffffffffffffffffffffffff168473ffffffffffffffffffffffffffffffffffffffff1614612efd57612efc84826138dd565b5b5b5050505050565b50505050565b6000612f2c8473ffffffffffffffffffffffffffffffffffffffff1661395c565b15613085578373ffffffffffffffffffffffffffffffffffffffff1663150b7a02612f55611c1e565b8786866040518563ffffffff1660e01b8152600401612f77949392919061523f565b6020604051808303816000875af1925050508015612fb357506040513d601f19601f82011682018060405250810190612fb091906152a0565b60015b613035573d8060008114612fe3576040519150601f19603f3d011682016040523d82523d6000602084013e612fe8565b606091505b50600081510361302d576040517f08c379a000000000000000000000000000000000000000000000000000000000815260040161302490614db9565b60405180910390fd5b805181602001fd5b63150b7a0260e01b7bffffffffffffffffffffffffffffffffffffffffffffffffffffffff1916817bffffffffffffffffffffffffffffffffffffffffffffffffffffffff19161491505061308a565b600190505b949350505050565b600080600090507a184f03e93ff9f4daa797ed6e38ed64bf6a1f01000000000000000083106130f0577a184f03e93ff9f4daa797ed6e38ed64bf6a1f01000000000000000083816130e6576130e5614dd9565b5b0492506040810190505b6d04ee2d6d415b85acef8100000000831061312d576d04ee2d6d415b85acef8100000000838161312357613122614dd9565b5b0492506020810190505b662386f26fc10000831061315c57662386f26fc10000838161315257613151614dd9565b5b0492506010810190505b6305f5e1008310613185576305f5e100838161317b5761317a614dd9565b5b0492506008810190505b61271083106131aa5761271083816131a05761319f614dd9565b5b0492506004810190505b606483106131cd57606483816131c3576131c2614dd9565b5b0492506002810190505b600a83106131dc576001810190505b80915050919050565b60007f80ac58cd000000000000000000000000000000000000000000000000000000007bffffffffffffffffffffffffffffffffffffffffffffffffffffffff1916827bffffffffffffffffffffffffffffffffffffffffffffffffffffffff191614806132b057507f5b5e139f000000000000000000000000000000000000000000000000000000007bffffffffffffffffffffffffffffffffffffffffffffffffffffffff1916827bffffffffffffffffffffffffffffffffffffffffffffffffffffffff1916145b806132c057506132bf8261397f565b5b9050919050565b60606132ed8273ffffffffffffffffffffffffffffffffffffffff16601460ff166132f4565b9050919050565b60606000600283600261330791906152cd565b613311919061494d565b67ffffffffffffffff81111561332a57613329614068565b5b6040519080825280601f01601f19166020018201604052801561335c5781602001600182028036833780820191505090505b5090507f30000000000000000000000000000000000000000000000000000000000000008160008151811061339457613393614710565b5b60200101907effffffffffffffffffffffffffffffffffffffffffffffffffffffffffffff1916908160001a9053507f7800000000000000000000000000000000000000000000000000000000000000816001815181106133f8576133f7614710565b5b60200101907effffffffffffffffffffffffffffffffffffffffffffffffffffffffffffff1916908160001a9053506000600184600261343891906152cd565b613442919061494d565b90505b60018111156134e2577f3031323334353637383961626364656600000000000000000000000000000000600f86166010811061348457613483614710565b5b1a60f81b82828151811061349b5761349a614710565b5b60200101907effffffffffffffffffffffffffffffffffffffffffffffffffffffffffffff1916908160001a905350600485901c9450806134db9061530f565b9050613445565b5060008414613526576040517f08c379a000000000000000000000000000000000000000000000000000000000815260040161351d90615384565b60405180910390fd5b8091505092915050565b600181111561365057600073ffffffffffffffffffffffffffffffffffffffff168473ffffffffffffffffffffffffffffffffffffffff16146135c45780600360008673ffffffffffffffffffffffffffffffffffffffff1673ffffffffffffffffffffffffffffffffffffffff16815260200190815260200160002060008282546135bc91906153a4565b925050819055505b600073ffffffffffffffffffffffffffffffffffffffff168373ffffffffffffffffffffffffffffffffffffffff161461364f5780600360008573ffffffffffffffffffffffffffffffffffffffff1673ffffffffffffffffffffffffffffffffffffffff1681526020019081526020016000206000828254613647919061494d565b925050819055505b5b50505050565b6008805490506009600083815260200190815260200160002081905550600881908060018154018082558091505060019003906000526020600020016000909190919091505550565b600060016136ac846115df565b6136b691906153a4565b905060006007600084815260200190815260200160002054905081811461379b576000600660008673ffffffffffffffffffffffffffffffffffffffff1673ffffffffffffffffffffffffffffffffffffffff168152602001908152602001600020600084815260200190815260200160002054905080600660008773ffffffffffffffffffffffffffffffffffffffff1673ffffffffffffffffffffffffffffffffffffffff168152602001908152602001600020600084815260200190815260200160002081905550816007600083815260200190815260200160002081905550505b6007600084815260200190815260200160002060009055600660008573ffffffffffffffffffffffffffffffffffffffff1673ffffffffffffffffffffffffffffffffffffffff16815260200190815260200160002060008381526020019081526020016000206000905550505050565b6000600160088054905061382091906153a4565b90506000600960008481526020019081526020016000205490506000600883815481106138505761384f614710565b5b90600052602060002001549050806008838154811061387257613871614710565b5b9060005260206000200181905550816009600083815260200190815260200160002081905550600960008581526020019081526020016000206000905560088054806138c1576138c06153d8565b5b6001900381819060005260206000200160009055905550505050565b60006138e8836115df565b905081600660008573ffffffffffffffffffffffffffffffffffffffff1673ffffffffffffffffffffffffffffffffffffffff168152602001908152602001600020600083815260200190815260200160002081905550806007600084815260200190815260200160002081905550505050565b6000808273ffffffffffffffffffffffffffffffffffffffff163b119050919050565b60007f01ffc9a7000000000000000000000000000000000000000000000000000000007bffffffffffffffffffffffffffffffffffffffffffffffffffffffff1916827bffffffffffffffffffffffffffffffffffffffffffffffffffffffff1916149050919050565b6000604051905090565b600080fd5b600080fd5b60007fffffffff0000000000000000000000000000000000000000000000000000000082169050919050565b613a32816139fd565b8114613a3d57600080fd5b50565b600081359050613a4f81613a29565b92915050565b600060208284031215613a6b57613a6a6139f3565b5b6000613a7984828501613a40565b91505092915050565b60008115159050919050565b613a9781613a82565b82525050565b6000602082019050613ab26000830184613a8e565b92915050565b6000819050919050565b613acb81613ab8565b82525050565b6000602082019050613ae66000830184613ac2565b92915050565b6000819050919050565b613aff81613aec565b82525050565b6000602082019050613b1a6000830184613af6565b92915050565b613b2981613ab8565b8114613b3457600080fd5b50565b600081359050613b4681613b20565b92915050565b600063ffffffff82169050919050565b613b6581613b4c565b8114613b7057600080fd5b50565b600081359050613b8281613b5c565b92915050565b60008060408385031215613b9f57613b9e6139f3565b5b6000613bad85828601613b37565b9250506020613bbe85828601613b73565b9150509250929050565b600081519050919050565b600082825260208201905092915050565b60005b83811015613c02578082015181840152602081019050613be7565b60008484015250505050565b6000601f19601f8301169050919050565b6000613c2a82613bc8565b613c348185613bd3565b9350613c44818560208601613be4565b613c4d81613c0e565b840191505092915050565b60006020820190508181036000830152613c728184613c1f565b905092915050565b600060208284031215613c9057613c8f6139f3565b5b6000613c9e84828501613b37565b91505092915050565b600073ffffffffffffffffffffffffffffffffffffffff82169050919050565b6000613cd282613ca7565b9050919050565b613ce281613cc7565b82525050565b6000602082019050613cfd6000830184613cd9565b92915050565b613d0c81613cc7565b8114613d1757600080fd5b50565b600081359050613d2981613d03565b92915050565b60008060408385031215613d4657613d456139f3565b5b6000613d5485828601613d1a565b9250506020613d6585828601613b37565b9150509250929050565b613d7881613b4c565b82525050565b600061016082019050613d94600083018e613ac2565b613da1602083018d613d6f565b8181036040830152613db3818c613c1f565b90508181036060830152613dc7818b613c1f565b90508181036080830152613ddb818a613c1f565b905081810360a0830152613def8189613c1f565b905081810360c0830152613e038188613c1f565b905081810360e0830152613e178187613c1f565b9050818103610100830152613e2c8186613c1f565b9050818103610120830152613e418185613c1f565b9050613e51610140830184613ac2565b9c9b505050505050505050505050565b600080600060608486031215613e7a57613e796139f3565b5b6000613e8886828701613d1a565b9350506020613e9986828701613d1a565b9250506040613eaa86828701613b37565b9150509250925092565b613ebd81613aec565b8114613ec857600080fd5b50565b600081359050613eda81613eb4565b92915050565b600060208284031215613ef657613ef56139f3565b5b6000613f0484828501613ecb565b91505092915050565b60008060408385031215613f2457613f236139f3565b5b6000613f3285828601613ecb565b9250506020613f4385828601613d1a565b9150509250929050565b600060208284031215613f6357613f626139f3565b5b6000613f7184828501613d1a565b91505092915050565b600061ffff82169050919050565b613f9181613f7a565b82525050565b6000602082019050613fac6000830184613f88565b92915050565b60008060408385031215613fc957613fc86139f3565b5b6000613fd785828601613b37565b9250506020613fe885828601613b37565b9150509250929050565b613ffb81613a82565b811461400657600080fd5b50565b60008135905061401881613ff2565b92915050565b60008060408385031215614035576140346139f3565b5b600061404385828601613d1a565b925050602061405485828601614009565b9150509250929050565b600080fd5b600080fd5b7f4e487b7100000000000000000000000000000000000000000000000000000000600052604160045260246000fd5b6140a082613c0e565b810181811067ffffffffffffffff821117156140bf576140be614068565b5b80604052505050565b60006140d26139e9565b90506140de8282614097565b919050565b600067ffffffffffffffff8211156140fe576140fd614068565b5b61410782613c0e565b9050602081019050919050565b82818337600083830152505050565b6000614136614131846140e3565b6140c8565b90508281526020810184848401111561415257614151614063565b5b61415d848285614114565b509392505050565b600082601f83011261417a5761417961405e565b5b813561418a848260208601614123565b91505092915050565b600080600080608085870312156141ad576141ac6139f3565b5b60006141bb87828801613d1a565b94505060206141cc87828801613d1a565b93505060406141dd87828801613b37565b925050606085013567ffffffffffffffff8111156141fe576141fd6139f8565b5b61420a87828801614165565b91505092959194509250565b6000806040838503121561422d5761422c6139f3565b5b600061423b85828601613d1a565b925050602061424c85828601613d1a565b9150509250929050565b600060208201905061426b6000830184613d6f565b92915050565b7f4e487b7100000000000000000000000000000000000000000000000000000000600052601160045260246000fd5b60006142ab82613b4c565b91506142b683613b4c565b9250828201905063ffffffff8111156142d2576142d1614271565b5b92915050565b7f4e487b7100000000000000000000000000000000000000000000000000000000600052602260045260246000fd5b6000600282049050600182168061431f57607f821691505b602082108103614332576143316142d8565b5b50919050565b7f4552433732313a20617070726f76616c20746f2063757272656e74206f776e6560008201527f7200000000000000000000000000000000000000000000000000000000000000602082015250565b6000614394602183613bd3565b915061439f82614338565b604082019050919050565b600060208201905081810360008301526143c381614387565b9050919050565b7f4552433732313a20617070726f76652063616c6c6572206973206e6f7420746f60008201527f6b656e206f776e6572206f7220617070726f76656420666f7220616c6c000000602082015250565b6000614426603d83613bd3565b9150614431826143ca565b604082019050919050565b6000602082019050818103600083015261445581614419565b9050919050565b7f496e73756666696369656e742066756e64730000000000000000000000000000600082015250565b6000614492601283613bd3565b915061449d8261445c565b602082019050919050565b600060208201905081810360008301526144c181614485565b9050919050565b7f4552433732313a2063616c6c6572206973206e6f7420746f6b656e206f776e6560008201527f72206f7220617070726f76656400000000000000000000000000000000000000602082015250565b6000614524602d83613bd3565b915061452f826144c8565b604082019050919050565b6000602082019050818103600083015261455381614517565b9050919050565b7f455243373231456e756d657261626c653a206f776e657220696e646578206f7560008201527f74206f6620626f756e6473000000000000000000000000000000000000000000602082015250565b60006145b6602b83613bd3565b91506145c18261455a565b604082019050919050565b600060208201905081810360008301526145e5816145a9565b9050919050565b7f416363657373436f6e74726f6c3a2063616e206f6e6c792072656e6f756e636560008201527f20726f6c657320666f722073656c660000000000000000000000000000000000602082015250565b6000614648602f83613bd3565b9150614653826145ec565b604082019050919050565b600060208201905081810360008301526146778161463b565b9050919050565b7f455243373231456e756d657261626c653a20676c6f62616c20696e646578206f60008201527f7574206f6620626f756e64730000000000000000000000000000000000000000602082015250565b60006146da602c83613bd3565b91506146e58261467e565b604082019050919050565b60006020820190508181036000830152614709816146cd565b9050919050565b7f4e487b7100000000000000000000000000000000000000000000000000000000600052603260045260246000fd5b7f4d696e74206c696d697420726561636865640000000000000000000000000000600082015250565b6000614775601283613bd3565b91506147808261473f565b602082019050919050565b600060208201905081810360008301526147a481614768565b9050919050565b7f4d6178207065722077616c6c6574207265616368656400000000000000000000600082015250565b60006147e1601683613bd3565b91506147ec826147ab565b602082019050919050565b60006020820190508181036000830152614810816147d4565b9050919050565b7f4552433732313a20696e76616c696420746f6b656e2049440000000000000000600082015250565b600061484d601883613bd3565b915061485882614817565b602082019050919050565b6000602082019050818103600083015261487c81614840565b9050919050565b7f4552433732313a2061646472657373207a65726f206973206e6f74206120766160008201527f6c6964206f776e65720000000000000000000000000000000000000000000000602082015250565b60006148df602983613bd3565b91506148ea82614883565b604082019050919050565b6000602082019050818103600083015261490e816148d2565b9050919050565b600061492082613b4c565b915061492b83613b4c565b9250828203905063ffffffff81111561494757614946614271565b5b92915050565b600061495882613ab8565b915061496383613ab8565b925082820190508082111561497b5761497a614271565b5b92915050565b600081905092915050565b600061499782613bc8565b6149a18185614981565b93506149b1818560208601613be4565b80840191505092915050565b60006149c9828561498c565b91506149d5828461498c565b91508190509392505050565b7f4f776e61626c653a206e6577206f776e657220697320746865207a65726f206160008201527f6464726573730000000000000000000000000000000000000000000000000000602082015250565b6000614a3d602683613bd3565b9150614a48826149e1565b604082019050919050565b60006020820190508181036000830152614a6c81614a30565b9050919050565b7f4552433732313a207472616e736665722066726f6d20696e636f72726563742060008201527f6f776e6572000000000000000000000000000000000000000000000000000000602082015250565b6000614acf602583613bd3565b9150614ada82614a73565b604082019050919050565b60006020820190508181036000830152614afe81614ac2565b9050919050565b7f4552433732313a207472616e7366657220746f20746865207a65726f2061646460008201527f7265737300000000000000000000000000000000000000000000000000000000602082015250565b6000614b61602483613bd3565b9150614b6c82614b05565b604082019050919050565b60006020820190508181036000830152614b9081614b54565b9050919050565b7f4552433732313a206d696e7420746f20746865207a65726f2061646472657373600082015250565b6000614bcd602083613bd3565b9150614bd882614b97565b602082019050919050565b60006020820190508181036000830152614bfc81614bc0565b9050919050565b7f4552433732313a20746f6b656e20616c7265616479206d696e74656400000000600082015250565b6000614c39601c83613bd3565b9150614c4482614c03565b602082019050919050565b60006020820190508181036000830152614c6881614c2c565b9050919050565b7f4f776e61626c653a2063616c6c6572206973206e6f7420746865206f776e6572600082015250565b6000614ca5602083613bd3565b9150614cb082614c6f565b602082019050919050565b60006020820190508181036000830152614cd481614c98565b9050919050565b7f4552433732313a20617070726f766520746f2063616c6c657200000000000000600082015250565b6000614d11601983613bd3565b9150614d1c82614cdb565b602082019050919050565b60006020820190508181036000830152614d4081614d04565b9050919050565b7f4552433732313a207472616e7366657220746f206e6f6e20455243373231526560008201527f63656976657220696d706c656d656e7465720000000000000000000000000000602082015250565b6000614da3603283613bd3565b9150614dae82614d47565b604082019050919050565b60006020820190508181036000830152614dd281614d96565b9050919050565b7f4e487b7100000000000000000000000000000000000000000000000000000000600052601260045260246000fd5b60008190508160005260206000209050919050565b60006020601f8301049050919050565b600082821b905092915050565b600060088302614e6a7fffffffffffffffffffffffffffffffffffffffffffffffffffffffffffffffff82614e2d565b614e748683614e2d565b95508019841693508086168417925050509392505050565b6000819050919050565b6000614eb1614eac614ea784613ab8565b614e8c565b613ab8565b9050919050565b6000819050919050565b614ecb83614e96565b614edf614ed782614eb8565b848454614e3a565b825550505050565b600090565b614ef4614ee7565b614eff818484614ec2565b505050565b5b81811015614f2357614f18600082614eec565b600181019050614f05565b5050565b601f821115614f6857614f3981614e08565b614f4284614e1d565b81016020851015614f51578190505b614f65614f5d85614e1d565b830182614f04565b50505b505050565b600082821c905092915050565b6000614f8b60001984600802614f6d565b1980831691505092915050565b6000614fa48383614f7a565b9150826002028217905092915050565b614fbd82613bc8565b67ffffffffffffffff811115614fd657614fd5614068565b5b614fe08254614307565b614feb828285614f27565b600060209050601f83116001811461501e576000841561500c578287015190505b6150168582614f98565b86555061507e565b601f19841661502c86614e08565b60005b828110156150545784890151825560018201915060208501945060208101905061502f565b86831015615071578489015161506d601f891682614f7a565b8355505b6001600288020188555050505b505050505050565b7f416363657373436f6e74726f6c3a206163636f756e7420000000000000000000600082015250565b60006150bc601783614981565b91506150c782615086565b601782019050919050565b7f206973206d697373696e6720726f6c6520000000000000000000000000000000600082015250565b6000615108601183614981565b9150615113826150d2565b601182019050919050565b6000615129826150af565b9150615135828561498c565b9150615140826150fb565b915061514c828461498c565b91508190509392505050565b7f455243373231456e756d657261626c653a20636f6e736563757469766520747260008201527f616e7366657273206e6f7420737570706f727465640000000000000000000000602082015250565b60006151b4603583613bd3565b91506151bf82615158565b604082019050919050565b600060208201905081810360008301526151e3816151a7565b9050919050565b600081519050919050565b600082825260208201905092915050565b6000615211826151ea565b61521b81856151f5565b935061522b818560208601613be4565b61523481613c0e565b840191505092915050565b60006080820190506152546000830187613cd9565b6152616020830186613cd9565b61526e6040830185613ac2565b81810360608301526152808184615206565b905095945050505050565b60008151905061529a81613a29565b92915050565b6000602082840312156152b6576152b56139f3565b5b60006152c48482850161528b565b91505092915050565b60006152d882613ab8565b91506152e383613ab8565b92508282026152f181613ab8565b9150828204841483151761530857615307614271565b5b5092915050565b600061531a82613ab8565b91506000820361532d5761532c614271565b5b600182039050919050565b7f537472696e67733a20686578206c656e67746820696e73756666696369656e74600082015250565b600061536e602083613bd3565b915061537982615338565b602082019050919050565b6000602082019050818103600083015261539d81615361565b9050919050565b60006153af82613ab8565b91506153ba83613ab8565b92508282039050818111156153d2576153d1614271565b5b92915050565b7f4e487b7100000000000000000000000000000000000000000000000000000000600052603160045260246000fdfea26469706673582212206861449e53e0308068a0bb26cbb7cb4359ccd53149764b22e6eab424fc50cb2364736f6c63430008110033",
  "linkReferences": {},
  "deployedLinkReferences": {}
}