{
  "_format": "hh-sol-artifact-1",
  "contractName": "MintingMushroom",
  "sourceName": "contracts/MintingMushroom.sol",
  "abi": [
    {
      "inputs": [
        {
          "internalType": "address",
          "name": "admin",
          "type": "address"
        },
        {
          "internalType": "address",
          "name": "m1Contract",
          "type": "address"
        },
        {
          "internalType": "address",
          "name": "tokenURIContract",
          "type": "address"
        }
      ],
      "stateMutability": "nonpayable",
      "type": "constructor"
    },
    {
      "anonymous": false,
      "inputs": [
        {
          "indexed": true,
          "internalType": "address",
          "name": "owner",
          "type": "address"
        },
        {
          "indexed": true,
          "internalType": "address",
          "name": "approved",
          "type": "address"
        },
        {
          "indexed": true,
          "internalType": "uint256",
          "name": "tokenId",
          "type": "uint256"
        }
      ],
      "name": "Approval",
      "type": "event"
    },
    {
      "anonymous": false,
      "inputs": [
        {
          "indexed": true,
          "internalType": "address",
          "name": "owner",
          "type": "address"
        },
        {
          "indexed": true,
          "internalType": "address",
          "name": "operator",
          "type": "address"
        },
        {
          "indexed": false,
          "internalType": "bool",
          "name": "approved",
          "type": "bool"
        }
      ],
      "name": "ApprovalForAll",
      "type": "event"
    },
    {
      "anonymous": false,
      "inputs": [
        {
          "indexed": true,
          "internalType": "address",
          "name": "previousOwner",
          "type": "address"
        },
        {
          "indexed": true,
          "internalType": "address",
          "name": "newOwner",
          "type": "address"
        }
      ],
      "name": "OwnershipTransferred",
      "type": "event"
    },
    {
      "anonymous": false,
      "inputs": [
        {
          "indexed": true,
          "internalType": "bytes32",
          "name": "role",
          "type": "bytes32"
        },
        {
          "indexed": true,
          "internalType": "bytes32",
          "name": "previousAdminRole",
          "type": "bytes32"
        },
        {
          "indexed": true,
          "internalType": "bytes32",
          "name": "newAdminRole",
          "type": "bytes32"
        }
      ],
      "name": "RoleAdminChanged",
      "type": "event"
    },
    {
      "anonymous": false,
      "inputs": [
        {
          "indexed": true,
          "internalType": "bytes32",
          "name": "role",
          "type": "bytes32"
        },
        {
          "indexed": true,
          "internalType": "address",
          "name": "account",
          "type": "address"
        },
        {
          "indexed": true,
          "internalType": "address",
          "name": "sender",
          "type": "address"
        }
      ],
      "name": "RoleGranted",
      "type": "event"
    },
    {
      "anonymous": false,
      "inputs": [
        {
          "indexed": true,
          "internalType": "bytes32",
          "name": "role",
          "type": "bytes32"
        },
        {
          "indexed": true,
          "internalType": "address",
          "name": "account",
          "type": "address"
        },
        {
          "indexed": true,
          "internalType": "address",
          "name": "sender",
          "type": "address"
        }
      ],
      "name": "RoleRevoked",
      "type": "event"
    },
    {
      "anonymous": false,
      "inputs": [
        {
          "indexed": true,
          "internalType": "address",
          "name": "from",
          "type": "address"
        },
        {
          "indexed": true,
          "internalType": "address",
          "name": "to",
          "type": "address"
        },
        {
          "indexed": true,
          "internalType": "uint256",
          "name": "tokenId",
          "type": "uint256"
        }
      ],
      "name": "Transfer",
      "type": "event"
    },
    {
      "anonymous": false,
      "inputs": [
        {
          "indexed": false,
          "internalType": "uint256",
          "name": "tokenId",
          "type": "uint256"
        },
        {
          "components": [
            {
              "internalType": "uint256",
              "name": "id",
              "type": "uint256"
            },
            {
              "internalType": "uint32",
              "name": "spores",
              "type": "uint32"
            },
            {
              "internalType": "string",
              "name": "backgroundColor",
              "type": "string"
            },
            {
              "internalType": "string",
              "name": "head",
              "type": "string"
            },
            {
              "internalType": "string",
              "name": "eyes",
              "type": "string"
            },
            {
              "internalType": "string",
              "name": "mouth",
              "type": "string"
            },
            {
              "internalType": "string",
              "name": "element",
              "type": "string"
            },
            {
              "internalType": "string",
              "name": "weapon",
              "type": "string"
            },
            {
              "internalType": "string",
              "name": "armor",
              "type": "string"
            },
            {
              "internalType": "string",
              "name": "accessory",
              "type": "string"
            },
            {
              "internalType": "uint256",
              "name": "level",
              "type": "uint256"
            }
          ],
          "indexed": false,
          "internalType": "struct MushroomTest",
          "name": "mushroom",
          "type": "tuple"
        }
      ],
      "name": "changeMade",
      "type": "event"
    },
    {
      "anonymous": false,
      "inputs": [
        {
          "indexed": false,
          "internalType": "uint256",
          "name": "",
          "type": "uint256"
        },
        {
          "components": [
            {
              "internalType": "uint256",
              "name": "id",
              "type": "uint256"
            },
            {
              "internalType": "uint32",
              "name": "spores",
              "type": "uint32"
            },
            {
              "internalType": "string",
              "name": "backgroundColor",
              "type": "string"
            },
            {
              "internalType": "string",
              "name": "head",
              "type": "string"
            },
            {
              "internalType": "string",
              "name": "eyes",
              "type": "string"
            },
            {
              "internalType": "string",
              "name": "mouth",
              "type": "string"
            },
            {
              "internalType": "string",
              "name": "element",
              "type": "string"
            },
            {
              "internalType": "string",
              "name": "weapon",
              "type": "string"
            },
            {
              "internalType": "string",
              "name": "armor",
              "type": "string"
            },
            {
              "internalType": "string",
              "name": "accessory",
              "type": "string"
            },
            {
              "internalType": "uint256",
              "name": "level",
              "type": "uint256"
            }
          ],
          "indexed": false,
          "internalType": "struct MushroomTest",
          "name": "mushroom",
          "type": "tuple"
        }
      ],
      "name": "part1Got",
      "type": "event"
    },
    {
      "anonymous": false,
      "inputs": [
        {
          "indexed": false,
          "internalType": "uint256",
          "name": "tokenId",
          "type": "uint256"
        },
        {
          "indexed": false,
          "internalType": "string",
          "name": "part1",
          "type": "string"
        }
      ],
      "name": "part1Made",
      "type": "event"
    },
    {
      "anonymous": false,
      "inputs": [
        {
          "indexed": false,
          "internalType": "uint256",
          "name": "tokenId",
          "type": "uint256"
        },
        {
          "indexed": false,
          "internalType": "string",
          "name": "tokenURI",
          "type": "string"
        }
      ],
      "name": "tokenURIFound",
      "type": "event"
    },
    {
      "anonymous": false,
      "inputs": [
        {
          "indexed": false,
          "internalType": "string",
          "name": "tokenURI",
          "type": "string"
        }
      ],
      "name": "tokenURIMade",
      "type": "event"
    },
    {
      "inputs": [],
      "name": "CONTRACT_ROLE",
      "outputs": [
        {
          "internalType": "bytes32",
          "name": "",
          "type": "bytes32"
        }
      ],
      "stateMutability": "view",
      "type": "function"
    },
    {
      "inputs": [],
      "name": "DEFAULT_ADMIN_ROLE",
      "outputs": [
        {
          "internalType": "bytes32",
          "name": "",
          "type": "bytes32"
        }
      ],
      "stateMutability": "view",
      "type": "function"
    },
    {
      "inputs": [],
      "name": "UPDATER_ROLE",
      "outputs": [
        {
          "internalType": "bytes32",
          "name": "",
          "type": "bytes32"
        }
      ],
      "stateMutability": "view",
      "type": "function"
    },
    {
      "inputs": [],
      "name": "_maxPerWallet",
      "outputs": [
        {
          "internalType": "uint16",
          "name": "",
          "type": "uint16"
        }
      ],
      "stateMutability": "view",
      "type": "function"
    },
    {
      "inputs": [],
      "name": "_mintLimit",
      "outputs": [
        {
          "internalType": "uint32",
          "name": "",
          "type": "uint32"
        }
      ],
      "stateMutability": "view",
      "type": "function"
    },
    {
      "inputs": [],
      "name": "_mintPrice",
      "outputs": [
        {
          "internalType": "uint256",
          "name": "",
          "type": "uint256"
        }
      ],
      "stateMutability": "view",
      "type": "function"
    },
    {
      "inputs": [
        {
          "internalType": "address",
          "name": "to",
          "type": "address"
        },
        {
          "internalType": "uint256",
          "name": "tokenId",
          "type": "uint256"
        }
      ],
      "name": "approve",
      "outputs": [],
      "stateMutability": "nonpayable",
      "type": "function"
    },
    {
      "inputs": [
        {
          "internalType": "address",
          "name": "owner",
          "type": "address"
        }
      ],
      "name": "balanceOf",
      "outputs": [
        {
          "internalType": "uint256",
          "name": "",
          "type": "uint256"
        }
      ],
      "stateMutability": "view",
      "type": "function"
    },
    {
      "inputs": [
        {
          "internalType": "uint256",
          "name": "tokenId",
          "type": "uint256"
        },
        {
          "internalType": "uint32",
          "name": "amount",
          "type": "uint32"
        }
      ],
      "name": "decreaseSpores",
      "outputs": [],
      "stateMutability": "nonpayable",
      "type": "function"
    },
    {
      "inputs": [
        {
          "internalType": "address",
          "name": "toWallet",
          "type": "address"
        }
      ],
      "name": "freeMint",
      "outputs": [],
      "stateMutability": "nonpayable",
      "type": "function"
    },
    {
      "inputs": [
        {
          "internalType": "uint256",
          "name": "tokenId",
          "type": "uint256"
        }
      ],
      "name": "getApproved",
      "outputs": [
        {
          "internalType": "address",
          "name": "",
          "type": "address"
        }
      ],
      "stateMutability": "view",
      "type": "function"
    },
    {
      "inputs": [],
      "name": "getBalance",
      "outputs": [
        {
          "internalType": "uint256",
          "name": "",
          "type": "uint256"
        }
      ],
      "stateMutability": "view",
      "type": "function"
    },
    {
      "inputs": [
        {
          "internalType": "bytes32",
          "name": "role",
          "type": "bytes32"
        }
      ],
      "name": "getRoleAdmin",
      "outputs": [
        {
          "internalType": "bytes32",
          "name": "",
          "type": "bytes32"
        }
      ],
      "stateMutability": "view",
      "type": "function"
    },
    {
      "inputs": [],
      "name": "getTokenIds",
      "outputs": [
        {
          "internalType": "uint256",
          "name": "",
          "type": "uint256"
        }
      ],
      "stateMutability": "view",
      "type": "function"
    },
    {
      "inputs": [
        {
          "internalType": "bytes32",
          "name": "role",
          "type": "bytes32"
        },
        {
          "internalType": "address",
          "name": "account",
          "type": "address"
        }
      ],
      "name": "grantRole",
      "outputs": [],
      "stateMutability": "nonpayable",
      "type": "function"
    },
    {
      "inputs": [
        {
          "internalType": "bytes32",
          "name": "role",
          "type": "bytes32"
        },
        {
          "internalType": "address",
          "name": "account",
          "type": "address"
        }
      ],
      "name": "hasRole",
      "outputs": [
        {
          "internalType": "bool",
          "name": "",
          "type": "bool"
        }
      ],
      "stateMutability": "view",
      "type": "function"
    },
    {
      "inputs": [
        {
          "internalType": "uint256",
          "name": "tokenId",
          "type": "uint256"
        },
        {
          "internalType": "uint256",
          "name": "amount",
          "type": "uint256"
        }
      ],
      "name": "increaseLevel",
      "outputs": [],
      "stateMutability": "nonpayable",
      "type": "function"
    },
    {
      "inputs": [
        {
          "internalType": "uint256",
          "name": "tokenId",
          "type": "uint256"
        },
        {
          "internalType": "uint32",
          "name": "amount",
          "type": "uint32"
        }
      ],
      "name": "increaseSpores",
      "outputs": [],
      "stateMutability": "nonpayable",
      "type": "function"
    },
    {
      "inputs": [
        {
          "internalType": "address",
          "name": "owner",
          "type": "address"
        },
        {
          "internalType": "address",
          "name": "operator",
          "type": "address"
        }
      ],
      "name": "isApprovedForAll",
      "outputs": [
        {
          "internalType": "bool",
          "name": "",
          "type": "bool"
        }
      ],
      "stateMutability": "view",
      "type": "function"
    },
    {
      "inputs": [
        {
          "internalType": "address",
          "name": "recipient",
          "type": "address"
        }
      ],
      "name": "mintNFT",
      "outputs": [
        {
          "internalType": "uint256",
          "name": "",
          "type": "uint256"
        }
      ],
      "stateMutability": "payable",
      "type": "function"
    },
    {
      "inputs": [
        {
          "internalType": "uint256",
          "name": "",
          "type": "uint256"
        }
      ],
      "name": "mushroomTokenAttributes",
      "outputs": [
        {
          "internalType": "uint256",
          "name": "id",
          "type": "uint256"
        },
        {
          "internalType": "uint32",
          "name": "spores",
          "type": "uint32"
        },
        {
          "internalType": "string",
          "name": "backgroundColor",
          "type": "string"
        },
        {
          "internalType": "string",
          "name": "head",
          "type": "string"
        },
        {
          "internalType": "string",
          "name": "eyes",
          "type": "string"
        },
        {
          "internalType": "string",
          "name": "mouth",
          "type": "string"
        },
        {
          "internalType": "string",
          "name": "element",
          "type": "string"
        },
        {
          "internalType": "string",
          "name": "weapon",
          "type": "string"
        },
        {
          "internalType": "string",
          "name": "armor",
          "type": "string"
        },
        {
          "internalType": "string",
          "name": "accessory",
          "type": "string"
        },
        {
          "internalType": "uint256",
          "name": "level",
          "type": "uint256"
        }
      ],
      "stateMutability": "view",
      "type": "function"
    },
    {
      "inputs": [],
      "name": "name",
      "outputs": [
        {
          "internalType": "string",
          "name": "",
          "type": "string"
        }
      ],
      "stateMutability": "view",
      "type": "function"
    },
    {
      "inputs": [],
      "name": "owner",
      "outputs": [
        {
          "internalType": "address",
          "name": "",
          "type": "address"
        }
      ],
      "stateMutability": "view",
      "type": "function"
    },
    {
      "inputs": [
        {
          "internalType": "uint256",
          "name": "tokenId",
          "type": "uint256"
        }
      ],
      "name": "ownerOf",
      "outputs": [
        {
          "internalType": "address",
          "name": "",
          "type": "address"
        }
      ],
      "stateMutability": "view",
      "type": "function"
    },
    {
      "inputs": [],
      "name": "renounceOwnership",
      "outputs": [],
      "stateMutability": "nonpayable",
      "type": "function"
    },
    {
      "inputs": [
        {
          "internalType": "bytes32",
          "name": "role",
          "type": "bytes32"
        },
        {
          "internalType": "address",
          "name": "account",
          "type": "address"
        }
      ],
      "name": "renounceRole",
      "outputs": [],
      "stateMutability": "nonpayable",
      "type": "function"
    },
    {
      "inputs": [
        {
          "internalType": "bytes32",
          "name": "role",
          "type": "bytes32"
        },
        {
          "internalType": "address",
          "name": "account",
          "type": "address"
        }
      ],
      "name": "revokeRole",
      "outputs": [],
      "stateMutability": "nonpayable",
      "type": "function"
    },
    {
      "inputs": [
        {
          "internalType": "address",
          "name": "from",
          "type": "address"
        },
        {
          "internalType": "address",
          "name": "to",
          "type": "address"
        },
        {
          "internalType": "uint256",
          "name": "tokenId",
          "type": "uint256"
        }
      ],
      "name": "safeTransferFrom",
      "outputs": [],
      "stateMutability": "nonpayable",
      "type": "function"
    },
    {
      "inputs": [
        {
          "internalType": "address",
          "name": "from",
          "type": "address"
        },
        {
          "internalType": "address",
          "name": "to",
          "type": "address"
        },
        {
          "internalType": "uint256",
          "name": "tokenId",
          "type": "uint256"
        },
        {
          "internalType": "bytes",
          "name": "data",
          "type": "bytes"
        }
      ],
      "name": "safeTransferFrom",
      "outputs": [],
      "stateMutability": "nonpayable",
      "type": "function"
    },
    {
      "inputs": [
        {
          "internalType": "address",
          "name": "operator",
          "type": "address"
        },
        {
          "internalType": "bool",
          "name": "approved",
          "type": "bool"
        }
      ],
      "name": "setApprovalForAll",
      "outputs": [],
      "stateMutability": "nonpayable",
      "type": "function"
    },
    {
      "inputs": [
        {
          "internalType": "bytes4",
          "name": "interfaceId",
          "type": "bytes4"
        }
      ],
      "name": "supportsInterface",
      "outputs": [
        {
          "internalType": "bool",
          "name": "",
          "type": "bool"
        }
      ],
      "stateMutability": "view",
      "type": "function"
    },
    {
      "inputs": [],
      "name": "symbol",
      "outputs": [
        {
          "internalType": "string",
          "name": "",
          "type": "string"
        }
      ],
      "stateMutability": "view",
      "type": "function"
    },
    {
      "inputs": [
        {
          "internalType": "uint256",
          "name": "index",
          "type": "uint256"
        }
      ],
      "name": "tokenByIndex",
      "outputs": [
        {
          "internalType": "uint256",
          "name": "",
          "type": "uint256"
        }
      ],
      "stateMutability": "view",
      "type": "function"
    },
    {
      "inputs": [
        {
          "internalType": "address",
          "name": "owner",
          "type": "address"
        },
        {
          "internalType": "uint256",
          "name": "index",
          "type": "uint256"
        }
      ],
      "name": "tokenOfOwnerByIndex",
      "outputs": [
        {
          "internalType": "uint256",
          "name": "",
          "type": "uint256"
        }
      ],
      "stateMutability": "view",
      "type": "function"
    },
    {
      "inputs": [
        {
          "internalType": "uint256",
          "name": "_tokenId",
          "type": "uint256"
        }
      ],
      "name": "tokenURI",
      "outputs": [
        {
          "internalType": "string",
          "name": "",
          "type": "string"
        }
      ],
      "stateMutability": "view",
      "type": "function"
    },
    {
      "inputs": [],
      "name": "totalSupply",
      "outputs": [
        {
          "internalType": "uint256",
          "name": "",
          "type": "uint256"
        }
      ],
      "stateMutability": "view",
      "type": "function"
    },
    {
      "inputs": [
        {
          "internalType": "address",
          "name": "from",
          "type": "address"
        },
        {
          "internalType": "address",
          "name": "to",
          "type": "address"
        },
        {
          "internalType": "uint256",
          "name": "tokenId",
          "type": "uint256"
        }
      ],
      "name": "transferFrom",
      "outputs": [],
      "stateMutability": "nonpayable",
      "type": "function"
    },
    {
      "inputs": [
        {
          "internalType": "address",
          "name": "newOwner",
          "type": "address"
        }
      ],
      "name": "transferOwnership",
      "outputs": [],
      "stateMutability": "nonpayable",
      "type": "function"
    },
    {
      "inputs": [
        {
          "internalType": "address",
          "name": "_to",
          "type": "address"
        },
        {
          "internalType": "uint256",
          "name": "_value",
          "type": "uint256"
        }
      ],
      "name": "withdrawBalance",
      "outputs": [],
      "stateMutability": "nonpayable",
      "type": "function"
    },
    {
      "stateMutability": "payable",
      "type": "receive"
    }
  ],
  "bytecode": "0x60806040526103e8600e60006101000a81548163ffffffff021916908363ffffffff1602179055506064600e60046101000a81548161ffff021916908361ffff160217905550662386f26fc10000600f553480156200005d57600080fd5b506040516200610c3803806200610c8339818101604052810190620000839190620004fb565b6040518060400160405280601281526020017f4d616c6963696f7573204d757368726f6f6d00000000000000000000000000008152506040518060400160405280600481526020017f4d555348000000000000000000000000000000000000000000000000000000008152508160009081620001009190620007d1565b508060019081620001129190620007d1565b50505062000135620001296200025060201b60201c565b6200025860201b60201c565b6200014c600c6200031e60201b62001c231760201c565b620001616000801b846200033460201b60201c565b620001937f73e573f9566d61418a34d5de3ff49360f9c51fec37f7486551670290f6285dab336200033460201b60201c565b620001c57f364d3d7565c7a8300c96fd53e065d19b65848d7b23b3191adcd55621c744223c336200033460201b60201c565b81601060006101000a81548173ffffffffffffffffffffffffffffffffffffffff021916908373ffffffffffffffffffffffffffffffffffffffff16021790555080601160006101000a81548173ffffffffffffffffffffffffffffffffffffffff021916908373ffffffffffffffffffffffffffffffffffffffff160217905550505050620008b8565b600033905090565b6000600b60009054906101000a900473ffffffffffffffffffffffffffffffffffffffff16905081600b60006101000a81548173ffffffffffffffffffffffffffffffffffffffff021916908373ffffffffffffffffffffffffffffffffffffffff1602179055508173ffffffffffffffffffffffffffffffffffffffff168173ffffffffffffffffffffffffffffffffffffffff167f8be0079c531659141344cd1fd0a4f28419497f9722a3daafe3b4186f6b6457e060405160405180910390a35050565b6001816000016000828254019250508190555050565b6200034682826200042660201b60201c565b62000422576001600a600084815260200190815260200160002060000160008373ffffffffffffffffffffffffffffffffffffffff1673ffffffffffffffffffffffffffffffffffffffff16815260200190815260200160002060006101000a81548160ff021916908315150217905550620003c76200025060201b60201c565b73ffffffffffffffffffffffffffffffffffffffff168173ffffffffffffffffffffffffffffffffffffffff16837f2f8788117e7eff1d82e926ec794901d17c78024a50270940304540a733656f0d60405160405180910390a45b5050565b6000600a600084815260200190815260200160002060000160008373ffffffffffffffffffffffffffffffffffffffff1673ffffffffffffffffffffffffffffffffffffffff16815260200190815260200160002060009054906101000a900460ff16905092915050565b600080fd5b600073ffffffffffffffffffffffffffffffffffffffff82169050919050565b6000620004c38262000496565b9050919050565b620004d581620004b6565b8114620004e157600080fd5b50565b600081519050620004f581620004ca565b92915050565b60008060006060848603121562000517576200051662000491565b5b60006200052786828701620004e4565b93505060206200053a86828701620004e4565b92505060406200054d86828701620004e4565b9150509250925092565b600081519050919050565b7f4e487b7100000000000000000000000000000000000000000000000000000000600052604160045260246000fd5b7f4e487b7100000000000000000000000000000000000000000000000000000000600052602260045260246000fd5b60006002820490506001821680620005d957607f821691505b602082108103620005ef57620005ee62000591565b5b50919050565b60008190508160005260206000209050919050565b60006020601f8301049050919050565b600082821b905092915050565b600060088302620006597fffffffffffffffffffffffffffffffffffffffffffffffffffffffffffffffff826200061a565b6200066586836200061a565b95508019841693508086168417925050509392505050565b6000819050919050565b6000819050919050565b6000620006b2620006ac620006a6846200067d565b62000687565b6200067d565b9050919050565b6000819050919050565b620006ce8362000691565b620006e6620006dd82620006b9565b84845462000627565b825550505050565b600090565b620006fd620006ee565b6200070a818484620006c3565b505050565b5b81811015620007325762000726600082620006f3565b60018101905062000710565b5050565b601f82111562000781576200074b81620005f5565b62000756846200060a565b8101602085101562000766578190505b6200077e62000775856200060a565b8301826200070f565b50505b505050565b600082821c905092915050565b6000620007a66000198460080262000786565b1980831691505092915050565b6000620007c1838362000793565b9150826002028217905092915050565b620007dc8262000557565b67ffffffffffffffff811115620007f857620007f762000562565b5b620008048254620005c0565b6200081182828562000736565b600060209050601f83116001811462000849576000841562000834578287015190505b620008408582620007b3565b865550620008b0565b601f1984166200085986620005f5565b60005b8281101562000883578489015182556001820191506020850194506020810190506200085c565b86831015620008a357848901516200089f601f89168262000793565b8355505b6001600288020188555050505b505050505050565b61584480620008c86000396000f3fe6080604052600436106102345760003560e01c806354ba0f271161012e5780639b62a61b116100ab578063d547741f1161006f578063d547741f1461088f578063e985e9c5146108b8578063f1cf6409146108f5578063f2fde38b14610920578063fa07ce1d146109495761023b565b80639b62a61b146107ac578063a217fddf146107d5578063a22cb46514610800578063b88d4fde14610829578063c87b56dd146108525761023b565b80637f456ef1116100f25780637f456ef1146106c55780637fa8e5e4146106ee5780638da5cb5b1461071957806391d148541461074457806395d89b41146107815761023b565b806354ba0f27146105d95780636352211e1461060957806367f718a91461064657806370a0823114610671578063715018a6146106ae5761023b565b806312065fe0116101bc5780632f745c59116101805780632f745c59146104e257806336568abe1461051f57806342842e0e1461054857806347e63380146105715780634f6ccce71461059c5761023b565b806312065fe0146103fd57806318160ddd1461042857806323b872dd14610453578063248a9ca31461047c5780632f2ff15d146104b95761023b565b806306fdde031161020357806306fdde03146102fc578063081812fc14610327578063095ea7b3146103645780630cf20cc91461038d5780631082fa9f146103b65761023b565b806301ffc9a7146102405780630387da421461027d57806303fe46ab146102a857806304492859146102d35761023b565b3661023b57005b600080fd5b34801561024c57600080fd5b5061026760048036038101906102629190613974565b610972565b60405161027491906139bc565b60405180910390f35b34801561028957600080fd5b50610292610984565b60405161029f91906139f0565b60405180910390f35b3480156102b457600080fd5b506102bd61098a565b6040516102ca9190613a24565b60405180910390f35b3480156102df57600080fd5b506102fa60048036038101906102f59190613aa7565b6109ae565b005b34801561030857600080fd5b50610311610ae3565b60405161031e9190613b77565b60405180910390f35b34801561033357600080fd5b5061034e60048036038101906103499190613b99565b610b75565b60405161035b9190613c07565b60405180910390f35b34801561037057600080fd5b5061038b60048036038101906103869190613c4e565b610bbb565b005b34801561039957600080fd5b506103b460048036038101906103af9190613c4e565b610cd2565b005b3480156103c257600080fd5b506103dd60048036038101906103d89190613b99565b610d8b565b6040516103f49b9a99989796959493929190613c9d565b60405180910390f35b34801561040957600080fd5b50610412611235565b60405161041f91906139f0565b60405180910390f35b34801561043457600080fd5b5061043d61123d565b60405161044a91906139f0565b60405180910390f35b34801561045f57600080fd5b5061047a60048036038101906104759190613d80565b61124a565b005b34801561048857600080fd5b506104a3600480360381019061049e9190613dff565b6112aa565b6040516104b09190613a24565b60405180910390f35b3480156104c557600080fd5b506104e060048036038101906104db9190613e2c565b6112ca565b005b3480156104ee57600080fd5b5061050960048036038101906105049190613c4e565b6112eb565b60405161051691906139f0565b60405180910390f35b34801561052b57600080fd5b5061054660048036038101906105419190613e2c565b611390565b005b34801561055457600080fd5b5061056f600480360381019061056a9190613d80565b611413565b005b34801561057d57600080fd5b50610586611433565b6040516105939190613a24565b60405180910390f35b3480156105a857600080fd5b506105c360048036038101906105be9190613b99565b611457565b6040516105d091906139f0565b60405180910390f35b6105f360048036038101906105ee9190613e6c565b6114c8565b60405161060091906139f0565b60405180910390f35b34801561061557600080fd5b50610630600480360381019061062b9190613b99565b6115fa565b60405161063d9190613c07565b60405180910390f35b34801561065257600080fd5b5061065b611680565b60405161066891906139f0565b60405180910390f35b34801561067d57600080fd5b5061069860048036038101906106939190613e6c565b611691565b6040516106a591906139f0565b60405180910390f35b3480156106ba57600080fd5b506106c3611748565b005b3480156106d157600080fd5b506106ec60048036038101906106e79190613aa7565b61175c565b005b3480156106fa57600080fd5b506107036117de565b6040516107109190613eb6565b60405180910390f35b34801561072557600080fd5b5061072e6117f2565b60405161073b9190613c07565b60405180910390f35b34801561075057600080fd5b5061076b60048036038101906107669190613e2c565b61181c565b60405161077891906139bc565b60405180910390f35b34801561078d57600080fd5b50610796611887565b6040516107a39190613b77565b60405180910390f35b3480156107b857600080fd5b506107d360048036038101906107ce9190613ed1565b611919565b005b3480156107e157600080fd5b506107ea611975565b6040516107f79190613a24565b60405180910390f35b34801561080c57600080fd5b5061082760048036038101906108229190613f3d565b61197c565b005b34801561083557600080fd5b50610850600480360381019061084b91906140b2565b611992565b005b34801561085e57600080fd5b5061087960048036038101906108749190613b99565b6119f4565b6040516108869190613b77565b60405180910390f35b34801561089b57600080fd5b506108b660048036038101906108b19190613e2c565b611a9e565b005b3480156108c457600080fd5b506108df60048036038101906108da9190614135565b611abf565b6040516108ec91906139bc565b60405180910390f35b34801561090157600080fd5b5061090a611b53565b6040516109179190614175565b60405180910390f35b34801561092c57600080fd5b5061094760048036038101906109429190613e6c565b611b69565b005b34801561095557600080fd5b50610970600480360381019061096b9190613e6c565b611bec565b005b600061097d82611c39565b9050919050565b600f5481565b7f364d3d7565c7a8300c96fd53e065d19b65848d7b23b3191adcd55621c744223c81565b7f73e573f9566d61418a34d5de3ff49360f9c51fec37f7486551670290f6285dab6109d881611cb3565b6000601060009054906101000a900473ffffffffffffffffffffffffffffffffffffffff1673ffffffffffffffffffffffffffffffffffffffff1663f25c8077856040518263ffffffff1660e01b8152600401610a3591906139f0565b600060405180830381865afa158015610a52573d6000803e3d6000fd5b505050506040513d6000823e3d601f19601f82011682018060405250810190610a7b9190614451565b90508281602001818151610a8f91906144c9565b91509063ffffffff16908163ffffffff16815250507fb0c7f027d805916b84998b5cb7c663f58e6f2081351be565fe915afc41d6a9608482604051610ad5929190614689565b60405180910390a150505050565b606060008054610af2906146e8565b80601f0160208091040260200160405190810160405280929190818152602001828054610b1e906146e8565b8015610b6b5780601f10610b4057610100808354040283529160200191610b6b565b820191906000526020600020905b815481529060010190602001808311610b4e57829003601f168201915b5050505050905090565b6000610b8082611cc7565b6004600083815260200190815260200160002060009054906101000a900473ffffffffffffffffffffffffffffffffffffffff169050919050565b6000610bc6826115fa565b90508073ffffffffffffffffffffffffffffffffffffffff168373ffffffffffffffffffffffffffffffffffffffff1603610c36576040517f08c379a0000000000000000000000000000000000000000000000000000000008152600401610c2d9061478b565b60405180910390fd5b8073ffffffffffffffffffffffffffffffffffffffff16610c55611d12565b73ffffffffffffffffffffffffffffffffffffffff161480610c845750610c8381610c7e611d12565b611abf565b5b610cc3576040517f08c379a0000000000000000000000000000000000000000000000000000000008152600401610cba9061481d565b60405180910390fd5b610ccd8383611d1a565b505050565b7f73e573f9566d61418a34d5de3ff49360f9c51fec37f7486551670290f6285dab610cfc81611cb3565b47821115610d3f576040517f08c379a0000000000000000000000000000000000000000000000000000000008152600401610d3690614889565b60405180910390fd5b8273ffffffffffffffffffffffffffffffffffffffff166108fc839081150290604051600060405180830381858888f19350505050158015610d85573d6000803e3d6000fd5b50505050565b60126020528060005260406000206000915090508060000154908060010160009054906101000a900463ffffffff1690806002018054610dca906146e8565b80601f0160208091040260200160405190810160405280929190818152602001828054610df6906146e8565b8015610e435780601f10610e1857610100808354040283529160200191610e43565b820191906000526020600020905b815481529060010190602001808311610e2657829003601f168201915b505050505090806003018054610e58906146e8565b80601f0160208091040260200160405190810160405280929190818152602001828054610e84906146e8565b8015610ed15780601f10610ea657610100808354040283529160200191610ed1565b820191906000526020600020905b815481529060010190602001808311610eb457829003601f168201915b505050505090806004018054610ee6906146e8565b80601f0160208091040260200160405190810160405280929190818152602001828054610f12906146e8565b8015610f5f5780601f10610f3457610100808354040283529160200191610f5f565b820191906000526020600020905b815481529060010190602001808311610f4257829003601f168201915b505050505090806005018054610f74906146e8565b80601f0160208091040260200160405190810160405280929190818152602001828054610fa0906146e8565b8015610fed5780601f10610fc257610100808354040283529160200191610fed565b820191906000526020600020905b815481529060010190602001808311610fd057829003601f168201915b505050505090806006018054611002906146e8565b80601f016020809104026020016040519081016040528092919081815260200182805461102e906146e8565b801561107b5780601f106110505761010080835404028352916020019161107b565b820191906000526020600020905b81548152906001019060200180831161105e57829003601f168201915b505050505090806007018054611090906146e8565b80601f01602080910402602001604051908101604052809291908181526020018280546110bc906146e8565b80156111095780601f106110de57610100808354040283529160200191611109565b820191906000526020600020905b8154815290600101906020018083116110ec57829003601f168201915b50505050509080600801805461111e906146e8565b80601f016020809104026020016040519081016040528092919081815260200182805461114a906146e8565b80156111975780601f1061116c57610100808354040283529160200191611197565b820191906000526020600020905b81548152906001019060200180831161117a57829003601f168201915b5050505050908060090180546111ac906146e8565b80601f01602080910402602001604051908101604052809291908181526020018280546111d8906146e8565b80156112255780601f106111fa57610100808354040283529160200191611225565b820191906000526020600020905b81548152906001019060200180831161120857829003601f168201915b50505050509080600a015490508b565b600047905090565b6000600880549050905090565b61125b611255611d12565b82611dd3565b61129a576040517f08c379a00000000000000000000000000000000000000000000000000000000081526004016112919061491b565b60405180910390fd5b6112a5838383611e68565b505050565b6000600a6000838152602001908152602001600020600101549050919050565b6112d3826112aa565b6112dc81611cb3565b6112e68383612161565b505050565b60006112f683611691565b8210611337576040517f08c379a000000000000000000000000000000000000000000000000000000000815260040161132e906149ad565b60405180910390fd5b600660008473ffffffffffffffffffffffffffffffffffffffff1673ffffffffffffffffffffffffffffffffffffffff168152602001908152602001600020600083815260200190815260200160002054905092915050565b611398611d12565b73ffffffffffffffffffffffffffffffffffffffff168173ffffffffffffffffffffffffffffffffffffffff1614611405576040517f08c379a00000000000000000000000000000000000000000000000000000000081526004016113fc90614a3f565b60405180910390fd5b61140f8282612242565b5050565b61142e83838360405180602001604052806000815250611992565b505050565b7f73e573f9566d61418a34d5de3ff49360f9c51fec37f7486551670290f6285dab81565b600061146161123d565b82106114a2576040517f08c379a000000000000000000000000000000000000000000000000000000000815260040161149990614ad1565b60405180910390fd5b600882815481106114b6576114b5614af1565b5b90600052602060002001549050919050565b6000600e60009054906101000a900463ffffffff1663ffffffff166114ed600c612324565b1061152d576040517f08c379a000000000000000000000000000000000000000000000000000000000815260040161152490614b6c565b60405180910390fd5b600f54341015611572576040517f08c379a000000000000000000000000000000000000000000000000000000000815260040161156990614889565b60405180910390fd5b600e60049054906101000a900461ffff1661ffff1661159033611691565b106115d0576040517f08c379a00000000000000000000000000000000000000000000000000000000081526004016115c790614bd8565b60405180910390fd5b6115da600c611c23565b60006115e6600c612324565b90506115f183612332565b80915050919050565b60008061160683612773565b9050600073ffffffffffffffffffffffffffffffffffffffff168173ffffffffffffffffffffffffffffffffffffffff1603611677576040517f08c379a000000000000000000000000000000000000000000000000000000000815260040161166e90614c44565b60405180910390fd5b80915050919050565b600061168c600c612324565b905090565b60008073ffffffffffffffffffffffffffffffffffffffff168273ffffffffffffffffffffffffffffffffffffffff1603611701576040517f08c379a00000000000000000000000000000000000000000000000000000000081526004016116f890614cd6565b60405180910390fd5b600360008373ffffffffffffffffffffffffffffffffffffffff1673ffffffffffffffffffffffffffffffffffffffff168152602001908152602001600020549050919050565b6117506127b0565b61175a600061282e565b565b7f73e573f9566d61418a34d5de3ff49360f9c51fec37f7486551670290f6285dab61178681611cb3565b816012600085815260200190815260200160002060010160008282829054906101000a900463ffffffff166117bb9190614cf6565b92506101000a81548163ffffffff021916908363ffffffff160217905550505050565b600e60049054906101000a900461ffff1681565b6000600b60009054906101000a900473ffffffffffffffffffffffffffffffffffffffff16905090565b6000600a600084815260200190815260200160002060000160008373ffffffffffffffffffffffffffffffffffffffff1673ffffffffffffffffffffffffffffffffffffffff16815260200190815260200160002060009054906101000a900460ff16905092915050565b606060018054611896906146e8565b80601f01602080910402602001604051908101604052809291908181526020018280546118c2906146e8565b801561190f5780601f106118e45761010080835404028352916020019161190f565b820191906000526020600020905b8154815290600101906020018083116118f257829003601f168201915b5050505050905090565b7f73e573f9566d61418a34d5de3ff49360f9c51fec37f7486551670290f6285dab61194381611cb3565b8160126000858152602001908152602001600020600a0160008282546119699190614d2e565b92505081905550505050565b6000801b81565b61198e611987611d12565b83836128f4565b5050565b6119a361199d611d12565b83611dd3565b6119e2576040517f08c379a00000000000000000000000000000000000000000000000000000000081526004016119d99061491b565b60405180910390fd5b6119ee84848484612a60565b50505050565b6060601160009054906101000a900473ffffffffffffffffffffffffffffffffffffffff1673ffffffffffffffffffffffffffffffffffffffff1663ac9eab56836040518263ffffffff1660e01b8152600401611a5191906139f0565b600060405180830381865afa158015611a6e573d6000803e3d6000fd5b505050506040513d6000823e3d601f19601f82011682018060405250810190611a979190614d62565b9050919050565b611aa7826112aa565b611ab081611cb3565b611aba8383612242565b505050565b6000600560008473ffffffffffffffffffffffffffffffffffffffff1673ffffffffffffffffffffffffffffffffffffffff16815260200190815260200160002060008373ffffffffffffffffffffffffffffffffffffffff1673ffffffffffffffffffffffffffffffffffffffff16815260200190815260200160002060009054906101000a900460ff16905092915050565b600e60009054906101000a900463ffffffff1681565b611b716127b0565b600073ffffffffffffffffffffffffffffffffffffffff168173ffffffffffffffffffffffffffffffffffffffff1603611be0576040517f08c379a0000000000000000000000000000000000000000000000000000000008152600401611bd790614e1d565b60405180910390fd5b611be98161282e565b50565b7f73e573f9566d61418a34d5de3ff49360f9c51fec37f7486551670290f6285dab611c1681611cb3565b611c1f82612332565b5050565b6001816000016000828254019250508190555050565b60007f7965db0b000000000000000000000000000000000000000000000000000000007bffffffffffffffffffffffffffffffffffffffffffffffffffffffff1916827bffffffffffffffffffffffffffffffffffffffffffffffffffffffff19161480611cac5750611cab82612abc565b5b9050919050565b611cc481611cbf611d12565b612b36565b50565b611cd081612bbb565b611d0f576040517f08c379a0000000000000000000000000000000000000000000000000000000008152600401611d0690614c44565b60405180910390fd5b50565b600033905090565b816004600083815260200190815260200160002060006101000a81548173ffffffffffffffffffffffffffffffffffffffff021916908373ffffffffffffffffffffffffffffffffffffffff160217905550808273ffffffffffffffffffffffffffffffffffffffff16611d8d836115fa565b73ffffffffffffffffffffffffffffffffffffffff167f8c5be1e5ebec7d5bd14f71427d1e84f3dd0314c0f7b2291e5b200ac8c7c3b92560405160405180910390a45050565b600080611ddf836115fa565b90508073ffffffffffffffffffffffffffffffffffffffff168473ffffffffffffffffffffffffffffffffffffffff161480611e215750611e208185611abf565b5b80611e5f57508373ffffffffffffffffffffffffffffffffffffffff16611e4784610b75565b73ffffffffffffffffffffffffffffffffffffffff16145b91505092915050565b8273ffffffffffffffffffffffffffffffffffffffff16611e88826115fa565b73ffffffffffffffffffffffffffffffffffffffff1614611ede576040517f08c379a0000000000000000000000000000000000000000000000000000000008152600401611ed590614eaf565b60405180910390fd5b600073ffffffffffffffffffffffffffffffffffffffff168273ffffffffffffffffffffffffffffffffffffffff1603611f4d576040517f08c379a0000000000000000000000000000000000000000000000000000000008152600401611f4490614f41565b60405180910390fd5b611f5a8383836001612bfc565b8273ffffffffffffffffffffffffffffffffffffffff16611f7a826115fa565b73ffffffffffffffffffffffffffffffffffffffff1614611fd0576040517f08c379a0000000000000000000000000000000000000000000000000000000008152600401611fc790614eaf565b60405180910390fd5b6004600082815260200190815260200160002060006101000a81549073ffffffffffffffffffffffffffffffffffffffff02191690556001600360008573ffffffffffffffffffffffffffffffffffffffff1673ffffffffffffffffffffffffffffffffffffffff168152602001908152602001600020600082825403925050819055506001600360008473ffffffffffffffffffffffffffffffffffffffff1673ffffffffffffffffffffffffffffffffffffffff16815260200190815260200160002060008282540192505081905550816002600083815260200190815260200160002060006101000a81548173ffffffffffffffffffffffffffffffffffffffff021916908373ffffffffffffffffffffffffffffffffffffffff160217905550808273ffffffffffffffffffffffffffffffffffffffff168473ffffffffffffffffffffffffffffffffffffffff167fddf252ad1be2c89b69c2b068fc378daa952ba7f163c4a11628f55a4df523b3ef60405160405180910390a461215c8383836001612d5a565b505050565b61216b828261181c565b61223e576001600a600084815260200190815260200160002060000160008373ffffffffffffffffffffffffffffffffffffffff1673ffffffffffffffffffffffffffffffffffffffff16815260200190815260200160002060006101000a81548160ff0219169083151502179055506121e3611d12565b73ffffffffffffffffffffffffffffffffffffffff168173ffffffffffffffffffffffffffffffffffffffff16837f2f8788117e7eff1d82e926ec794901d17c78024a50270940304540a733656f0d60405160405180910390a45b5050565b61224c828261181c565b15612320576000600a600084815260200190815260200160002060000160008373ffffffffffffffffffffffffffffffffffffffff1673ffffffffffffffffffffffffffffffffffffffff16815260200190815260200160002060006101000a81548160ff0219169083151502179055506122c5611d12565b73ffffffffffffffffffffffffffffffffffffffff168173ffffffffffffffffffffffffffffffffffffffff16837ff6391f5c32d9c69d2a47ea670b442974b53935d1edc7fd64eb21e047a839171b60405160405180910390a45b5050565b600081600001549050919050565b600061233e600c612324565b9050600e60009054906101000a900463ffffffff1663ffffffff16811061239a576040517f08c379a000000000000000000000000000000000000000000000000000000000815260040161239190614b6c565b60405180910390fd5b600e60049054906101000a900461ffff1661ffff166123b833611691565b106123f8576040517f08c379a00000000000000000000000000000000000000000000000000000000081526004016123ef90614bd8565b60405180910390fd5b6124028282612d60565b601060009054906101000a900473ffffffffffffffffffffffffffffffffffffffff1673ffffffffffffffffffffffffffffffffffffffff16630bada385826040518263ffffffff1660e01b815260040161245d91906139f0565b6000604051808303816000875af115801561247c573d6000803e3d6000fd5b505050506040513d6000823e3d601f19601f820116820180604052508101906124a59190614451565b601260008381526020019081526020016000206000820151816000015560208201518160010160006101000a81548163ffffffff021916908363ffffffff16021790555060408201518160020190816124fe919061510d565b506060820151816003019081612514919061510d565b50608082015181600401908161252a919061510d565b5060a0820151816005019081612540919061510d565b5060c0820151816006019081612556919061510d565b5060e082015181600701908161256c919061510d565b50610100820151816008019081612583919061510d565b5061012082015181600901908161259a919061510d565b5061014082015181600a01559050506000601160009054906101000a900473ffffffffffffffffffffffffffffffffffffffff1673ffffffffffffffffffffffffffffffffffffffff1663ac9eab56836040518263ffffffff1660e01b815260040161260691906139f0565b600060405180830381865afa158015612623573d6000803e3d6000fd5b505050506040513d6000823e3d601f19601f8201168201806040525081019061264c9190614d62565b90507f96799f6ca91f13e038cf09701eeefba346ac65335f64c4d9d8120873e7bed4c08160405161267d9190613b77565b60405180910390a16000601160009054906101000a900473ffffffffffffffffffffffffffffffffffffffff1673ffffffffffffffffffffffffffffffffffffffff16633bb3a24d846040518263ffffffff1660e01b81526004016126e291906139f0565b600060405180830381865afa1580156126ff573d6000803e3d6000fd5b505050506040513d6000823e3d601f19601f820116820180604052508101906127289190614d62565b90507f8f1b26ce53fc574b2bcb59f4332a40792995d0f0c3c55c0a198b7f54c0a72260838260405161275b9291906151df565b60405180910390a161276d600c611c23565b50505050565b60006002600083815260200190815260200160002060009054906101000a900473ffffffffffffffffffffffffffffffffffffffff169050919050565b6127b8611d12565b73ffffffffffffffffffffffffffffffffffffffff166127d66117f2565b73ffffffffffffffffffffffffffffffffffffffff161461282c576040517f08c379a00000000000000000000000000000000000000000000000000000000081526004016128239061525b565b60405180910390fd5b565b6000600b60009054906101000a900473ffffffffffffffffffffffffffffffffffffffff16905081600b60006101000a81548173ffffffffffffffffffffffffffffffffffffffff021916908373ffffffffffffffffffffffffffffffffffffffff1602179055508173ffffffffffffffffffffffffffffffffffffffff168173ffffffffffffffffffffffffffffffffffffffff167f8be0079c531659141344cd1fd0a4f28419497f9722a3daafe3b4186f6b6457e060405160405180910390a35050565b8173ffffffffffffffffffffffffffffffffffffffff168373ffffffffffffffffffffffffffffffffffffffff1603612962576040517f08c379a0000000000000000000000000000000000000000000000000000000008152600401612959906152c7565b60405180910390fd5b80600560008573ffffffffffffffffffffffffffffffffffffffff1673ffffffffffffffffffffffffffffffffffffffff16815260200190815260200160002060008473ffffffffffffffffffffffffffffffffffffffff1673ffffffffffffffffffffffffffffffffffffffff16815260200190815260200160002060006101000a81548160ff0219169083151502179055508173ffffffffffffffffffffffffffffffffffffffff168373ffffffffffffffffffffffffffffffffffffffff167f17307eab39ab6107e8899845ad3d59bd9653f200f220920489ca2b5937696c3183604051612a5391906139bc565b60405180910390a3505050565b612a6b848484611e68565b612a7784848484612f7d565b612ab6576040517f08c379a0000000000000000000000000000000000000000000000000000000008152600401612aad90615359565b60405180910390fd5b50505050565b60007f780e9d63000000000000000000000000000000000000000000000000000000007bffffffffffffffffffffffffffffffffffffffffffffffffffffffff1916827bffffffffffffffffffffffffffffffffffffffffffffffffffffffff19161480612b2f5750612b2e82613104565b5b9050919050565b612b40828261181c565b612bb757612b4d816131e6565b612b5b8360001c6020613213565b604051602001612b6c92919061544d565b6040516020818303038152906040526040517f08c379a0000000000000000000000000000000000000000000000000000000008152600401612bae9190613b77565b60405180910390fd5b5050565b60008073ffffffffffffffffffffffffffffffffffffffff16612bdd83612773565b73ffffffffffffffffffffffffffffffffffffffff1614159050919050565b612c088484848461344f565b6001811115612c4c576040517f08c379a0000000000000000000000000000000000000000000000000000000008152600401612c43906154f9565b60405180910390fd5b6000829050600073ffffffffffffffffffffffffffffffffffffffff168573ffffffffffffffffffffffffffffffffffffffff1603612c9357612c8e81613575565b612cd2565b8373ffffffffffffffffffffffffffffffffffffffff168573ffffffffffffffffffffffffffffffffffffffff1614612cd157612cd085826135be565b5b5b600073ffffffffffffffffffffffffffffffffffffffff168473ffffffffffffffffffffffffffffffffffffffff1603612d1457612d0f8161372b565b612d53565b8473ffffffffffffffffffffffffffffffffffffffff168473ffffffffffffffffffffffffffffffffffffffff1614612d5257612d5184826137fc565b5b5b5050505050565b50505050565b600073ffffffffffffffffffffffffffffffffffffffff168273ffffffffffffffffffffffffffffffffffffffff1603612dcf576040517f08c379a0000000000000000000000000000000000000000000000000000000008152600401612dc690615565565b60405180910390fd5b612dd881612bbb565b15612e18576040517f08c379a0000000000000000000000000000000000000000000000000000000008152600401612e0f906155d1565b60405180910390fd5b612e26600083836001612bfc565b612e2f81612bbb565b15612e6f576040517f08c379a0000000000000000000000000000000000000000000000000000000008152600401612e66906155d1565b60405180910390fd5b6001600360008473ffffffffffffffffffffffffffffffffffffffff1673ffffffffffffffffffffffffffffffffffffffff16815260200190815260200160002060008282540192505081905550816002600083815260200190815260200160002060006101000a81548173ffffffffffffffffffffffffffffffffffffffff021916908373ffffffffffffffffffffffffffffffffffffffff160217905550808273ffffffffffffffffffffffffffffffffffffffff16600073ffffffffffffffffffffffffffffffffffffffff167fddf252ad1be2c89b69c2b068fc378daa952ba7f163c4a11628f55a4df523b3ef60405160405180910390a4612f79600083836001612d5a565b5050565b6000612f9e8473ffffffffffffffffffffffffffffffffffffffff1661387b565b156130f7578373ffffffffffffffffffffffffffffffffffffffff1663150b7a02612fc7611d12565b8786866040518563ffffffff1660e01b8152600401612fe99493929190615646565b6020604051808303816000875af192505050801561302557506040513d601f19601f8201168201806040525081019061302291906156a7565b60015b6130a7573d8060008114613055576040519150601f19603f3d011682016040523d82523d6000602084013e61305a565b606091505b50600081510361309f576040517f08c379a000000000000000000000000000000000000000000000000000000000815260040161309690615359565b60405180910390fd5b805181602001fd5b63150b7a0260e01b7bffffffffffffffffffffffffffffffffffffffffffffffffffffffff1916817bffffffffffffffffffffffffffffffffffffffffffffffffffffffff1916149150506130fc565b600190505b949350505050565b60007f80ac58cd000000000000000000000000000000000000000000000000000000007bffffffffffffffffffffffffffffffffffffffffffffffffffffffff1916827bffffffffffffffffffffffffffffffffffffffffffffffffffffffff191614806131cf57507f5b5e139f000000000000000000000000000000000000000000000000000000007bffffffffffffffffffffffffffffffffffffffffffffffffffffffff1916827bffffffffffffffffffffffffffffffffffffffffffffffffffffffff1916145b806131df57506131de8261389e565b5b9050919050565b606061320c8273ffffffffffffffffffffffffffffffffffffffff16601460ff16613213565b9050919050565b60606000600283600261322691906156d4565b6132309190614d2e565b67ffffffffffffffff81111561324957613248613f87565b5b6040519080825280601f01601f19166020018201604052801561327b5781602001600182028036833780820191505090505b5090507f3000000000000000000000000000000000000000000000000000000000000000816000815181106132b3576132b2614af1565b5b60200101907effffffffffffffffffffffffffffffffffffffffffffffffffffffffffffff1916908160001a9053507f78000000000000000000000000000000000000000000000000000000000000008160018151811061331757613316614af1565b5b60200101907effffffffffffffffffffffffffffffffffffffffffffffffffffffffffffff1916908160001a9053506000600184600261335791906156d4565b6133619190614d2e565b90505b6001811115613401577f3031323334353637383961626364656600000000000000000000000000000000600f8616601081106133a3576133a2614af1565b5b1a60f81b8282815181106133ba576133b9614af1565b5b60200101907effffffffffffffffffffffffffffffffffffffffffffffffffffffffffffff1916908160001a905350600485901c9450806133fa90615716565b9050613364565b5060008414613445576040517f08c379a000000000000000000000000000000000000000000000000000000000815260040161343c9061578b565b60405180910390fd5b8091505092915050565b600181111561356f57600073ffffffffffffffffffffffffffffffffffffffff168473ffffffffffffffffffffffffffffffffffffffff16146134e35780600360008673ffffffffffffffffffffffffffffffffffffffff1673ffffffffffffffffffffffffffffffffffffffff16815260200190815260200160002060008282546134db91906157ab565b925050819055505b600073ffffffffffffffffffffffffffffffffffffffff168373ffffffffffffffffffffffffffffffffffffffff161461356e5780600360008573ffffffffffffffffffffffffffffffffffffffff1673ffffffffffffffffffffffffffffffffffffffff16815260200190815260200160002060008282546135669190614d2e565b925050819055505b5b50505050565b6008805490506009600083815260200190815260200160002081905550600881908060018154018082558091505060019003906000526020600020016000909190919091505550565b600060016135cb84611691565b6135d591906157ab565b90506000600760008481526020019081526020016000205490508181146136ba576000600660008673ffffffffffffffffffffffffffffffffffffffff1673ffffffffffffffffffffffffffffffffffffffff168152602001908152602001600020600084815260200190815260200160002054905080600660008773ffffffffffffffffffffffffffffffffffffffff1673ffffffffffffffffffffffffffffffffffffffff168152602001908152602001600020600084815260200190815260200160002081905550816007600083815260200190815260200160002081905550505b6007600084815260200190815260200160002060009055600660008573ffffffffffffffffffffffffffffffffffffffff1673ffffffffffffffffffffffffffffffffffffffff16815260200190815260200160002060008381526020019081526020016000206000905550505050565b6000600160088054905061373f91906157ab565b905060006009600084815260200190815260200160002054905060006008838154811061376f5761376e614af1565b5b90600052602060002001549050806008838154811061379157613790614af1565b5b9060005260206000200181905550816009600083815260200190815260200160002081905550600960008581526020019081526020016000206000905560088054806137e0576137df6157df565b5b6001900381819060005260206000200160009055905550505050565b600061380783611691565b905081600660008573ffffffffffffffffffffffffffffffffffffffff1673ffffffffffffffffffffffffffffffffffffffff168152602001908152602001600020600083815260200190815260200160002081905550806007600084815260200190815260200160002081905550505050565b6000808273ffffffffffffffffffffffffffffffffffffffff163b119050919050565b60007f01ffc9a7000000000000000000000000000000000000000000000000000000007bffffffffffffffffffffffffffffffffffffffffffffffffffffffff1916827bffffffffffffffffffffffffffffffffffffffffffffffffffffffff1916149050919050565b6000604051905090565b600080fd5b600080fd5b60007fffffffff0000000000000000000000000000000000000000000000000000000082169050919050565b6139518161391c565b811461395c57600080fd5b50565b60008135905061396e81613948565b92915050565b60006020828403121561398a57613989613912565b5b60006139988482850161395f565b91505092915050565b60008115159050919050565b6139b6816139a1565b82525050565b60006020820190506139d160008301846139ad565b92915050565b6000819050919050565b6139ea816139d7565b82525050565b6000602082019050613a0560008301846139e1565b92915050565b6000819050919050565b613a1e81613a0b565b82525050565b6000602082019050613a396000830184613a15565b92915050565b613a48816139d7565b8114613a5357600080fd5b50565b600081359050613a6581613a3f565b92915050565b600063ffffffff82169050919050565b613a8481613a6b565b8114613a8f57600080fd5b50565b600081359050613aa181613a7b565b92915050565b60008060408385031215613abe57613abd613912565b5b6000613acc85828601613a56565b9250506020613add85828601613a92565b9150509250929050565b600081519050919050565b600082825260208201905092915050565b60005b83811015613b21578082015181840152602081019050613b06565b60008484015250505050565b6000601f19601f8301169050919050565b6000613b4982613ae7565b613b538185613af2565b9350613b63818560208601613b03565b613b6c81613b2d565b840191505092915050565b60006020820190508181036000830152613b918184613b3e565b905092915050565b600060208284031215613baf57613bae613912565b5b6000613bbd84828501613a56565b91505092915050565b600073ffffffffffffffffffffffffffffffffffffffff82169050919050565b6000613bf182613bc6565b9050919050565b613c0181613be6565b82525050565b6000602082019050613c1c6000830184613bf8565b92915050565b613c2b81613be6565b8114613c3657600080fd5b50565b600081359050613c4881613c22565b92915050565b60008060408385031215613c6557613c64613912565b5b6000613c7385828601613c39565b9250506020613c8485828601613a56565b9150509250929050565b613c9781613a6b565b82525050565b600061016082019050613cb3600083018e6139e1565b613cc0602083018d613c8e565b8181036040830152613cd2818c613b3e565b90508181036060830152613ce6818b613b3e565b90508181036080830152613cfa818a613b3e565b905081810360a0830152613d0e8189613b3e565b905081810360c0830152613d228188613b3e565b905081810360e0830152613d368187613b3e565b9050818103610100830152613d4b8186613b3e565b9050818103610120830152613d608185613b3e565b9050613d706101408301846139e1565b9c9b505050505050505050505050565b600080600060608486031215613d9957613d98613912565b5b6000613da786828701613c39565b9350506020613db886828701613c39565b9250506040613dc986828701613a56565b9150509250925092565b613ddc81613a0b565b8114613de757600080fd5b50565b600081359050613df981613dd3565b92915050565b600060208284031215613e1557613e14613912565b5b6000613e2384828501613dea565b91505092915050565b60008060408385031215613e4357613e42613912565b5b6000613e5185828601613dea565b9250506020613e6285828601613c39565b9150509250929050565b600060208284031215613e8257613e81613912565b5b6000613e9084828501613c39565b91505092915050565b600061ffff82169050919050565b613eb081613e99565b82525050565b6000602082019050613ecb6000830184613ea7565b92915050565b60008060408385031215613ee857613ee7613912565b5b6000613ef685828601613a56565b9250506020613f0785828601613a56565b9150509250929050565b613f1a816139a1565b8114613f2557600080fd5b50565b600081359050613f3781613f11565b92915050565b60008060408385031215613f5457613f53613912565b5b6000613f6285828601613c39565b9250506020613f7385828601613f28565b9150509250929050565b600080fd5b600080fd5b7f4e487b7100000000000000000000000000000000000000000000000000000000600052604160045260246000fd5b613fbf82613b2d565b810181811067ffffffffffffffff82111715613fde57613fdd613f87565b5b80604052505050565b6000613ff1613908565b9050613ffd8282613fb6565b919050565b600067ffffffffffffffff82111561401d5761401c613f87565b5b61402682613b2d565b9050602081019050919050565b82818337600083830152505050565b600061405561405084614002565b613fe7565b90508281526020810184848401111561407157614070613f82565b5b61407c848285614033565b509392505050565b600082601f83011261409957614098613f7d565b5b81356140a9848260208601614042565b91505092915050565b600080600080608085870312156140cc576140cb613912565b5b60006140da87828801613c39565b94505060206140eb87828801613c39565b93505060406140fc87828801613a56565b925050606085013567ffffffffffffffff81111561411d5761411c613917565b5b61412987828801614084565b91505092959194509250565b6000806040838503121561414c5761414b613912565b5b600061415a85828601613c39565b925050602061416b85828601613c39565b9150509250929050565b600060208201905061418a6000830184613c8e565b92915050565b600080fd5b600080fd5b6000815190506141a981613a3f565b92915050565b6000815190506141be81613a7b565b92915050565b600067ffffffffffffffff8211156141df576141de613f87565b5b6141e882613b2d565b9050602081019050919050565b6000614208614203846141c4565b613fe7565b90508281526020810184848401111561422457614223613f82565b5b61422f848285613b03565b509392505050565b600082601f83011261424c5761424b613f7d565b5b815161425c8482602086016141f5565b91505092915050565b6000610160828403121561427c5761427b614190565b5b614287610160613fe7565b905060006142978482850161419a565b60008301525060206142ab848285016141af565b602083015250604082015167ffffffffffffffff8111156142cf576142ce614195565b5b6142db84828501614237565b604083015250606082015167ffffffffffffffff8111156142ff576142fe614195565b5b61430b84828501614237565b606083015250608082015167ffffffffffffffff81111561432f5761432e614195565b5b61433b84828501614237565b60808301525060a082015167ffffffffffffffff81111561435f5761435e614195565b5b61436b84828501614237565b60a08301525060c082015167ffffffffffffffff81111561438f5761438e614195565b5b61439b84828501614237565b60c08301525060e082015167ffffffffffffffff8111156143bf576143be614195565b5b6143cb84828501614237565b60e08301525061010082015167ffffffffffffffff8111156143f0576143ef614195565b5b6143fc84828501614237565b6101008301525061012082015167ffffffffffffffff81111561442257614421614195565b5b61442e84828501614237565b610120830152506101406144448482850161419a565b6101408301525092915050565b60006020828403121561446757614466613912565b5b600082015167ffffffffffffffff81111561448557614484613917565b5b61449184828501614265565b91505092915050565b7f4e487b7100000000000000000000000000000000000000000000000000000000600052601160045260246000fd5b60006144d482613a6b565b91506144df83613a6b565b9250828201905063ffffffff8111156144fb576144fa61449a565b5b92915050565b61450a816139d7565b82525050565b61451981613a6b565b82525050565b600082825260208201905092915050565b600061453b82613ae7565b614545818561451f565b9350614555818560208601613b03565b61455e81613b2d565b840191505092915050565b6000610160830160008301516145826000860182614501565b5060208301516145956020860182614510565b50604083015184820360408601526145ad8282614530565b915050606083015184820360608601526145c78282614530565b915050608083015184820360808601526145e18282614530565b91505060a083015184820360a08601526145fb8282614530565b91505060c083015184820360c08601526146158282614530565b91505060e083015184820360e086015261462f8282614530565b91505061010083015184820361010086015261464b8282614530565b9150506101208301518482036101208601526146678282614530565b91505061014083015161467e610140860182614501565b508091505092915050565b600060408201905061469e60008301856139e1565b81810360208301526146b08184614569565b90509392505050565b7f4e487b7100000000000000000000000000000000000000000000000000000000600052602260045260246000fd5b6000600282049050600182168061470057607f821691505b602082108103614713576147126146b9565b5b50919050565b7f4552433732313a20617070726f76616c20746f2063757272656e74206f776e6560008201527f7200000000000000000000000000000000000000000000000000000000000000602082015250565b6000614775602183613af2565b915061478082614719565b604082019050919050565b600060208201905081810360008301526147a481614768565b9050919050565b7f4552433732313a20617070726f76652063616c6c6572206973206e6f7420746f60008201527f6b656e206f776e6572206f7220617070726f76656420666f7220616c6c000000602082015250565b6000614807603d83613af2565b9150614812826147ab565b604082019050919050565b60006020820190508181036000830152614836816147fa565b9050919050565b7f496e73756666696369656e742066756e64730000000000000000000000000000600082015250565b6000614873601283613af2565b915061487e8261483d565b602082019050919050565b600060208201905081810360008301526148a281614866565b9050919050565b7f4552433732313a2063616c6c6572206973206e6f7420746f6b656e206f776e6560008201527f72206f7220617070726f76656400000000000000000000000000000000000000602082015250565b6000614905602d83613af2565b9150614910826148a9565b604082019050919050565b60006020820190508181036000830152614934816148f8565b9050919050565b7f455243373231456e756d657261626c653a206f776e657220696e646578206f7560008201527f74206f6620626f756e6473000000000000000000000000000000000000000000602082015250565b6000614997602b83613af2565b91506149a28261493b565b604082019050919050565b600060208201905081810360008301526149c68161498a565b9050919050565b7f416363657373436f6e74726f6c3a2063616e206f6e6c792072656e6f756e636560008201527f20726f6c657320666f722073656c660000000000000000000000000000000000602082015250565b6000614a29602f83613af2565b9150614a34826149cd565b604082019050919050565b60006020820190508181036000830152614a5881614a1c565b9050919050565b7f455243373231456e756d657261626c653a20676c6f62616c20696e646578206f60008201527f7574206f6620626f756e64730000000000000000000000000000000000000000602082015250565b6000614abb602c83613af2565b9150614ac682614a5f565b604082019050919050565b60006020820190508181036000830152614aea81614aae565b9050919050565b7f4e487b7100000000000000000000000000000000000000000000000000000000600052603260045260246000fd5b7f4d696e74206c696d697420726561636865640000000000000000000000000000600082015250565b6000614b56601283613af2565b9150614b6182614b20565b602082019050919050565b60006020820190508181036000830152614b8581614b49565b9050919050565b7f4d6178207065722077616c6c6574207265616368656400000000000000000000600082015250565b6000614bc2601683613af2565b9150614bcd82614b8c565b602082019050919050565b60006020820190508181036000830152614bf181614bb5565b9050919050565b7f4552433732313a20696e76616c696420746f6b656e2049440000000000000000600082015250565b6000614c2e601883613af2565b9150614c3982614bf8565b602082019050919050565b60006020820190508181036000830152614c5d81614c21565b9050919050565b7f4552433732313a2061646472657373207a65726f206973206e6f74206120766160008201527f6c6964206f776e65720000000000000000000000000000000000000000000000602082015250565b6000614cc0602983613af2565b9150614ccb82614c64565b604082019050919050565b60006020820190508181036000830152614cef81614cb3565b9050919050565b6000614d0182613a6b565b9150614d0c83613a6b565b9250828203905063ffffffff811115614d2857614d2761449a565b5b92915050565b6000614d39826139d7565b9150614d44836139d7565b9250828201905080821115614d5c57614d5b61449a565b5b92915050565b600060208284031215614d7857614d77613912565b5b600082015167ffffffffffffffff811115614d9657614d95613917565b5b614da284828501614237565b91505092915050565b7f4f776e61626c653a206e6577206f776e657220697320746865207a65726f206160008201527f6464726573730000000000000000000000000000000000000000000000000000602082015250565b6000614e07602683613af2565b9150614e1282614dab565b604082019050919050565b60006020820190508181036000830152614e3681614dfa565b9050919050565b7f4552433732313a207472616e736665722066726f6d20696e636f72726563742060008201527f6f776e6572000000000000000000000000000000000000000000000000000000602082015250565b6000614e99602583613af2565b9150614ea482614e3d565b604082019050919050565b60006020820190508181036000830152614ec881614e8c565b9050919050565b7f4552433732313a207472616e7366657220746f20746865207a65726f2061646460008201527f7265737300000000000000000000000000000000000000000000000000000000602082015250565b6000614f2b602483613af2565b9150614f3682614ecf565b604082019050919050565b60006020820190508181036000830152614f5a81614f1e565b9050919050565b60008190508160005260206000209050919050565b60006020601f8301049050919050565b600082821b905092915050565b600060088302614fc37fffffffffffffffffffffffffffffffffffffffffffffffffffffffffffffffff82614f86565b614fcd8683614f86565b95508019841693508086168417925050509392505050565b6000819050919050565b600061500a615005615000846139d7565b614fe5565b6139d7565b9050919050565b6000819050919050565b61502483614fef565b61503861503082615011565b848454614f93565b825550505050565b600090565b61504d615040565b61505881848461501b565b505050565b5b8181101561507c57615071600082615045565b60018101905061505e565b5050565b601f8211156150c15761509281614f61565b61509b84614f76565b810160208510156150aa578190505b6150be6150b685614f76565b83018261505d565b50505b505050565b600082821c905092915050565b60006150e4600019846008026150c6565b1980831691505092915050565b60006150fd83836150d3565b9150826002028217905092915050565b61511682613ae7565b67ffffffffffffffff81111561512f5761512e613f87565b5b61513982546146e8565b615144828285615080565b600060209050601f8311600181146151775760008415615165578287015190505b61516f85826150f1565b8655506151d7565b601f19841661518586614f61565b60005b828110156151ad57848901518255600182019150602085019450602081019050615188565b868310156151ca57848901516151c6601f8916826150d3565b8355505b6001600288020188555050505b505050505050565b60006040820190506151f460008301856139e1565b81810360208301526152068184613b3e565b90509392505050565b7f4f776e61626c653a2063616c6c6572206973206e6f7420746865206f776e6572600082015250565b6000615245602083613af2565b91506152508261520f565b602082019050919050565b6000602082019050818103600083015261527481615238565b9050919050565b7f4552433732313a20617070726f766520746f2063616c6c657200000000000000600082015250565b60006152b1601983613af2565b91506152bc8261527b565b602082019050919050565b600060208201905081810360008301526152e0816152a4565b9050919050565b7f4552433732313a207472616e7366657220746f206e6f6e20455243373231526560008201527f63656976657220696d706c656d656e7465720000000000000000000000000000602082015250565b6000615343603283613af2565b915061534e826152e7565b604082019050919050565b6000602082019050818103600083015261537281615336565b9050919050565b600081905092915050565b7f416363657373436f6e74726f6c3a206163636f756e7420000000000000000000600082015250565b60006153ba601783615379565b91506153c582615384565b601782019050919050565b60006153db82613ae7565b6153e58185615379565b93506153f5818560208601613b03565b80840191505092915050565b7f206973206d697373696e6720726f6c6520000000000000000000000000000000600082015250565b6000615437601183615379565b915061544282615401565b601182019050919050565b6000615458826153ad565b915061546482856153d0565b915061546f8261542a565b915061547b82846153d0565b91508190509392505050565b7f455243373231456e756d657261626c653a20636f6e736563757469766520747260008201527f616e7366657273206e6f7420737570706f727465640000000000000000000000602082015250565b60006154e3603583613af2565b91506154ee82615487565b604082019050919050565b60006020820190508181036000830152615512816154d6565b9050919050565b7f4552433732313a206d696e7420746f20746865207a65726f2061646472657373600082015250565b600061554f602083613af2565b915061555a82615519565b602082019050919050565b6000602082019050818103600083015261557e81615542565b9050919050565b7f4552433732313a20746f6b656e20616c7265616479206d696e74656400000000600082015250565b60006155bb601c83613af2565b91506155c682615585565b602082019050919050565b600060208201905081810360008301526155ea816155ae565b9050919050565b600081519050919050565b600082825260208201905092915050565b6000615618826155f1565b61562281856155fc565b9350615632818560208601613b03565b61563b81613b2d565b840191505092915050565b600060808201905061565b6000830187613bf8565b6156686020830186613bf8565b61567560408301856139e1565b8181036060830152615687818461560d565b905095945050505050565b6000815190506156a181613948565b92915050565b6000602082840312156156bd576156bc613912565b5b60006156cb84828501615692565b91505092915050565b60006156df826139d7565b91506156ea836139d7565b92508282026156f8816139d7565b9150828204841483151761570f5761570e61449a565b5b5092915050565b6000615721826139d7565b9150600082036157345761573361449a565b5b600182039050919050565b7f537472696e67733a20686578206c656e67746820696e73756666696369656e74600082015250565b6000615775602083613af2565b91506157808261573f565b602082019050919050565b600060208201905081810360008301526157a481615768565b9050919050565b60006157b6826139d7565b91506157c1836139d7565b92508282039050818111156157d9576157d861449a565b5b92915050565b7f4e487b7100000000000000000000000000000000000000000000000000000000600052603160045260246000fdfea2646970667358221220339c04846b4f0ff36a23c4a98a2cafbce35ce539dde7661f5fb2d2aa13c46c4d64736f6c63430008110033",
  "linkReferences": {},
  "deployedLinkReferences": {}
}