{
  "_format": "hh-sol-artifact-1",
  "contractName": "MintingMushroom",
  "sourceName": "contracts/MintingMushroom.sol",
  "abi": [
    {
      "inputs": [
        {
          "internalType": "address",
          "name": "admin",
          "type": "address"
        },
        {
          "internalType": "address",
          "name": "metadataContract",
          "type": "address"
        },
        {
          "internalType": "address",
          "name": "m1Contract",
          "type": "address"
        },
        {
          "internalType": "address",
          "name": "tokenURIContract",
          "type": "address"
        }
      ],
      "stateMutability": "nonpayable",
      "type": "constructor"
    },
    {
      "anonymous": false,
      "inputs": [
        {
          "indexed": true,
          "internalType": "address",
          "name": "owner",
          "type": "address"
        },
        {
          "indexed": true,
          "internalType": "address",
          "name": "approved",
          "type": "address"
        },
        {
          "indexed": true,
          "internalType": "uint256",
          "name": "tokenId",
          "type": "uint256"
        }
      ],
      "name": "Approval",
      "type": "event"
    },
    {
      "anonymous": false,
      "inputs": [
        {
          "indexed": true,
          "internalType": "address",
          "name": "owner",
          "type": "address"
        },
        {
          "indexed": true,
          "internalType": "address",
          "name": "operator",
          "type": "address"
        },
        {
          "indexed": false,
          "internalType": "bool",
          "name": "approved",
          "type": "bool"
        }
      ],
      "name": "ApprovalForAll",
      "type": "event"
    },
    {
      "anonymous": false,
      "inputs": [
        {
          "indexed": true,
          "internalType": "address",
          "name": "previousOwner",
          "type": "address"
        },
        {
          "indexed": true,
          "internalType": "address",
          "name": "newOwner",
          "type": "address"
        }
      ],
      "name": "OwnershipTransferred",
      "type": "event"
    },
    {
      "anonymous": false,
      "inputs": [
        {
          "indexed": true,
          "internalType": "bytes32",
          "name": "role",
          "type": "bytes32"
        },
        {
          "indexed": true,
          "internalType": "bytes32",
          "name": "previousAdminRole",
          "type": "bytes32"
        },
        {
          "indexed": true,
          "internalType": "bytes32",
          "name": "newAdminRole",
          "type": "bytes32"
        }
      ],
      "name": "RoleAdminChanged",
      "type": "event"
    },
    {
      "anonymous": false,
      "inputs": [
        {
          "indexed": true,
          "internalType": "bytes32",
          "name": "role",
          "type": "bytes32"
        },
        {
          "indexed": true,
          "internalType": "address",
          "name": "account",
          "type": "address"
        },
        {
          "indexed": true,
          "internalType": "address",
          "name": "sender",
          "type": "address"
        }
      ],
      "name": "RoleGranted",
      "type": "event"
    },
    {
      "anonymous": false,
      "inputs": [
        {
          "indexed": true,
          "internalType": "bytes32",
          "name": "role",
          "type": "bytes32"
        },
        {
          "indexed": true,
          "internalType": "address",
          "name": "account",
          "type": "address"
        },
        {
          "indexed": true,
          "internalType": "address",
          "name": "sender",
          "type": "address"
        }
      ],
      "name": "RoleRevoked",
      "type": "event"
    },
    {
      "anonymous": false,
      "inputs": [
        {
          "indexed": true,
          "internalType": "address",
          "name": "from",
          "type": "address"
        },
        {
          "indexed": true,
          "internalType": "address",
          "name": "to",
          "type": "address"
        },
        {
          "indexed": true,
          "internalType": "uint256",
          "name": "tokenId",
          "type": "uint256"
        }
      ],
      "name": "Transfer",
      "type": "event"
    },
    {
      "anonymous": false,
      "inputs": [
        {
          "indexed": false,
          "internalType": "uint256",
          "name": "",
          "type": "uint256"
        },
        {
          "components": [
            {
              "internalType": "uint256",
              "name": "id",
              "type": "uint256"
            },
            {
              "internalType": "uint32",
              "name": "spores",
              "type": "uint32"
            },
            {
              "internalType": "string",
              "name": "backgroundColor",
              "type": "string"
            },
            {
              "internalType": "string",
              "name": "head",
              "type": "string"
            },
            {
              "internalType": "string",
              "name": "eyes",
              "type": "string"
            },
            {
              "internalType": "string",
              "name": "mouth",
              "type": "string"
            },
            {
              "internalType": "string",
              "name": "element",
              "type": "string"
            },
            {
              "internalType": "string",
              "name": "weapon",
              "type": "string"
            },
            {
              "internalType": "string",
              "name": "armor",
              "type": "string"
            },
            {
              "internalType": "string",
              "name": "accessory",
              "type": "string"
            },
            {
              "internalType": "uint256",
              "name": "level",
              "type": "uint256"
            }
          ],
          "indexed": false,
          "internalType": "struct MushroomTest",
          "name": "mushroom",
          "type": "tuple"
        }
      ],
      "name": "part1Got",
      "type": "event"
    },
    {
      "anonymous": false,
      "inputs": [
        {
          "indexed": false,
          "internalType": "uint256",
          "name": "tokenId",
          "type": "uint256"
        },
        {
          "indexed": false,
          "internalType": "string",
          "name": "part1",
          "type": "string"
        }
      ],
      "name": "part1Made",
      "type": "event"
    },
    {
      "anonymous": false,
      "inputs": [
        {
          "indexed": false,
          "internalType": "uint256",
          "name": "tokenId",
          "type": "uint256"
        },
        {
          "indexed": false,
          "internalType": "string",
          "name": "tokenURI",
          "type": "string"
        }
      ],
      "name": "tokenURIFound",
      "type": "event"
    },
    {
      "anonymous": false,
      "inputs": [
        {
          "indexed": false,
          "internalType": "string",
          "name": "tokenURI",
          "type": "string"
        }
      ],
      "name": "tokenURIMade",
      "type": "event"
    },
    {
      "inputs": [],
      "name": "CONTRACT_ROLE",
      "outputs": [
        {
          "internalType": "bytes32",
          "name": "",
          "type": "bytes32"
        }
      ],
      "stateMutability": "view",
      "type": "function"
    },
    {
      "inputs": [],
      "name": "DEFAULT_ADMIN_ROLE",
      "outputs": [
        {
          "internalType": "bytes32",
          "name": "",
          "type": "bytes32"
        }
      ],
      "stateMutability": "view",
      "type": "function"
    },
    {
      "inputs": [],
      "name": "UPDATER_ROLE",
      "outputs": [
        {
          "internalType": "bytes32",
          "name": "",
          "type": "bytes32"
        }
      ],
      "stateMutability": "view",
      "type": "function"
    },
    {
      "inputs": [],
      "name": "_maxPerWallet",
      "outputs": [
        {
          "internalType": "uint16",
          "name": "",
          "type": "uint16"
        }
      ],
      "stateMutability": "view",
      "type": "function"
    },
    {
      "inputs": [],
      "name": "_mintLimit",
      "outputs": [
        {
          "internalType": "uint32",
          "name": "",
          "type": "uint32"
        }
      ],
      "stateMutability": "view",
      "type": "function"
    },
    {
      "inputs": [],
      "name": "_mintPrice",
      "outputs": [
        {
          "internalType": "uint256",
          "name": "",
          "type": "uint256"
        }
      ],
      "stateMutability": "view",
      "type": "function"
    },
    {
      "inputs": [
        {
          "internalType": "address",
          "name": "to",
          "type": "address"
        },
        {
          "internalType": "uint256",
          "name": "tokenId",
          "type": "uint256"
        }
      ],
      "name": "approve",
      "outputs": [],
      "stateMutability": "nonpayable",
      "type": "function"
    },
    {
      "inputs": [
        {
          "internalType": "address",
          "name": "owner",
          "type": "address"
        }
      ],
      "name": "balanceOf",
      "outputs": [
        {
          "internalType": "uint256",
          "name": "",
          "type": "uint256"
        }
      ],
      "stateMutability": "view",
      "type": "function"
    },
    {
      "inputs": [
        {
          "internalType": "uint256",
          "name": "tokenId",
          "type": "uint256"
        },
        {
          "internalType": "uint32",
          "name": "amount",
          "type": "uint32"
        }
      ],
      "name": "decreaseSpores",
      "outputs": [],
      "stateMutability": "nonpayable",
      "type": "function"
    },
    {
      "inputs": [
        {
          "internalType": "address",
          "name": "toWallet",
          "type": "address"
        },
        {
          "components": [
            {
              "internalType": "uint256",
              "name": "id",
              "type": "uint256"
            },
            {
              "internalType": "uint32",
              "name": "spores",
              "type": "uint32"
            },
            {
              "internalType": "string",
              "name": "backgroundColor",
              "type": "string"
            },
            {
              "internalType": "string",
              "name": "head",
              "type": "string"
            },
            {
              "internalType": "string",
              "name": "eyes",
              "type": "string"
            },
            {
              "internalType": "string",
              "name": "mouth",
              "type": "string"
            },
            {
              "internalType": "string",
              "name": "element",
              "type": "string"
            },
            {
              "internalType": "string",
              "name": "weapon",
              "type": "string"
            },
            {
              "internalType": "string",
              "name": "armor",
              "type": "string"
            },
            {
              "internalType": "string",
              "name": "accessory",
              "type": "string"
            },
            {
              "internalType": "uint256",
              "name": "level",
              "type": "uint256"
            }
          ],
          "internalType": "struct MushroomTest",
          "name": "mushroom",
          "type": "tuple"
        }
      ],
      "name": "freeMint",
      "outputs": [],
      "stateMutability": "nonpayable",
      "type": "function"
    },
    {
      "inputs": [
        {
          "internalType": "uint256",
          "name": "tokenId",
          "type": "uint256"
        }
      ],
      "name": "getApproved",
      "outputs": [
        {
          "internalType": "address",
          "name": "",
          "type": "address"
        }
      ],
      "stateMutability": "view",
      "type": "function"
    },
    {
      "inputs": [],
      "name": "getBalance",
      "outputs": [
        {
          "internalType": "uint256",
          "name": "",
          "type": "uint256"
        }
      ],
      "stateMutability": "view",
      "type": "function"
    },
    {
      "inputs": [
        {
          "internalType": "bytes32",
          "name": "role",
          "type": "bytes32"
        }
      ],
      "name": "getRoleAdmin",
      "outputs": [
        {
          "internalType": "bytes32",
          "name": "",
          "type": "bytes32"
        }
      ],
      "stateMutability": "view",
      "type": "function"
    },
    {
      "inputs": [],
      "name": "getTokenIds",
      "outputs": [
        {
          "internalType": "uint256",
          "name": "",
          "type": "uint256"
        }
      ],
      "stateMutability": "view",
      "type": "function"
    },
    {
      "inputs": [
        {
          "internalType": "bytes32",
          "name": "role",
          "type": "bytes32"
        },
        {
          "internalType": "address",
          "name": "account",
          "type": "address"
        }
      ],
      "name": "grantRole",
      "outputs": [],
      "stateMutability": "nonpayable",
      "type": "function"
    },
    {
      "inputs": [
        {
          "internalType": "bytes32",
          "name": "role",
          "type": "bytes32"
        },
        {
          "internalType": "address",
          "name": "account",
          "type": "address"
        }
      ],
      "name": "hasRole",
      "outputs": [
        {
          "internalType": "bool",
          "name": "",
          "type": "bool"
        }
      ],
      "stateMutability": "view",
      "type": "function"
    },
    {
      "inputs": [
        {
          "internalType": "uint256",
          "name": "tokenId",
          "type": "uint256"
        },
        {
          "internalType": "uint256",
          "name": "amount",
          "type": "uint256"
        }
      ],
      "name": "increaseLevel",
      "outputs": [],
      "stateMutability": "nonpayable",
      "type": "function"
    },
    {
      "inputs": [
        {
          "internalType": "uint256",
          "name": "tokenId",
          "type": "uint256"
        },
        {
          "internalType": "uint32",
          "name": "amount",
          "type": "uint32"
        }
      ],
      "name": "increaseSpores",
      "outputs": [],
      "stateMutability": "nonpayable",
      "type": "function"
    },
    {
      "inputs": [
        {
          "internalType": "address",
          "name": "owner",
          "type": "address"
        },
        {
          "internalType": "address",
          "name": "operator",
          "type": "address"
        }
      ],
      "name": "isApprovedForAll",
      "outputs": [
        {
          "internalType": "bool",
          "name": "",
          "type": "bool"
        }
      ],
      "stateMutability": "view",
      "type": "function"
    },
    {
      "inputs": [
        {
          "internalType": "address",
          "name": "recipient",
          "type": "address"
        },
        {
          "components": [
            {
              "internalType": "uint256",
              "name": "id",
              "type": "uint256"
            },
            {
              "internalType": "uint32",
              "name": "spores",
              "type": "uint32"
            },
            {
              "internalType": "string",
              "name": "backgroundColor",
              "type": "string"
            },
            {
              "internalType": "string",
              "name": "head",
              "type": "string"
            },
            {
              "internalType": "string",
              "name": "eyes",
              "type": "string"
            },
            {
              "internalType": "string",
              "name": "mouth",
              "type": "string"
            },
            {
              "internalType": "string",
              "name": "element",
              "type": "string"
            },
            {
              "internalType": "string",
              "name": "weapon",
              "type": "string"
            },
            {
              "internalType": "string",
              "name": "armor",
              "type": "string"
            },
            {
              "internalType": "string",
              "name": "accessory",
              "type": "string"
            },
            {
              "internalType": "uint256",
              "name": "level",
              "type": "uint256"
            }
          ],
          "internalType": "struct MushroomTest",
          "name": "mushroom",
          "type": "tuple"
        }
      ],
      "name": "mintNFT",
      "outputs": [
        {
          "internalType": "uint256",
          "name": "",
          "type": "uint256"
        }
      ],
      "stateMutability": "payable",
      "type": "function"
    },
    {
      "inputs": [
        {
          "internalType": "uint256",
          "name": "",
          "type": "uint256"
        }
      ],
      "name": "mushroomTokenAttributes",
      "outputs": [
        {
          "internalType": "uint256",
          "name": "id",
          "type": "uint256"
        },
        {
          "internalType": "uint32",
          "name": "spores",
          "type": "uint32"
        },
        {
          "internalType": "string",
          "name": "backgroundColor",
          "type": "string"
        },
        {
          "internalType": "string",
          "name": "head",
          "type": "string"
        },
        {
          "internalType": "string",
          "name": "eyes",
          "type": "string"
        },
        {
          "internalType": "string",
          "name": "mouth",
          "type": "string"
        },
        {
          "internalType": "string",
          "name": "element",
          "type": "string"
        },
        {
          "internalType": "string",
          "name": "weapon",
          "type": "string"
        },
        {
          "internalType": "string",
          "name": "armor",
          "type": "string"
        },
        {
          "internalType": "string",
          "name": "accessory",
          "type": "string"
        },
        {
          "internalType": "uint256",
          "name": "level",
          "type": "uint256"
        }
      ],
      "stateMutability": "view",
      "type": "function"
    },
    {
      "inputs": [],
      "name": "name",
      "outputs": [
        {
          "internalType": "string",
          "name": "",
          "type": "string"
        }
      ],
      "stateMutability": "view",
      "type": "function"
    },
    {
      "inputs": [],
      "name": "owner",
      "outputs": [
        {
          "internalType": "address",
          "name": "",
          "type": "address"
        }
      ],
      "stateMutability": "view",
      "type": "function"
    },
    {
      "inputs": [
        {
          "internalType": "uint256",
          "name": "tokenId",
          "type": "uint256"
        }
      ],
      "name": "ownerOf",
      "outputs": [
        {
          "internalType": "address",
          "name": "",
          "type": "address"
        }
      ],
      "stateMutability": "view",
      "type": "function"
    },
    {
      "inputs": [],
      "name": "renounceOwnership",
      "outputs": [],
      "stateMutability": "nonpayable",
      "type": "function"
    },
    {
      "inputs": [
        {
          "internalType": "bytes32",
          "name": "role",
          "type": "bytes32"
        },
        {
          "internalType": "address",
          "name": "account",
          "type": "address"
        }
      ],
      "name": "renounceRole",
      "outputs": [],
      "stateMutability": "nonpayable",
      "type": "function"
    },
    {
      "inputs": [
        {
          "internalType": "bytes32",
          "name": "role",
          "type": "bytes32"
        },
        {
          "internalType": "address",
          "name": "account",
          "type": "address"
        }
      ],
      "name": "revokeRole",
      "outputs": [],
      "stateMutability": "nonpayable",
      "type": "function"
    },
    {
      "inputs": [
        {
          "internalType": "address",
          "name": "from",
          "type": "address"
        },
        {
          "internalType": "address",
          "name": "to",
          "type": "address"
        },
        {
          "internalType": "uint256",
          "name": "tokenId",
          "type": "uint256"
        }
      ],
      "name": "safeTransferFrom",
      "outputs": [],
      "stateMutability": "nonpayable",
      "type": "function"
    },
    {
      "inputs": [
        {
          "internalType": "address",
          "name": "from",
          "type": "address"
        },
        {
          "internalType": "address",
          "name": "to",
          "type": "address"
        },
        {
          "internalType": "uint256",
          "name": "tokenId",
          "type": "uint256"
        },
        {
          "internalType": "bytes",
          "name": "data",
          "type": "bytes"
        }
      ],
      "name": "safeTransferFrom",
      "outputs": [],
      "stateMutability": "nonpayable",
      "type": "function"
    },
    {
      "inputs": [
        {
          "internalType": "address",
          "name": "operator",
          "type": "address"
        },
        {
          "internalType": "bool",
          "name": "approved",
          "type": "bool"
        }
      ],
      "name": "setApprovalForAll",
      "outputs": [],
      "stateMutability": "nonpayable",
      "type": "function"
    },
    {
      "inputs": [
        {
          "internalType": "bytes4",
          "name": "interfaceId",
          "type": "bytes4"
        }
      ],
      "name": "supportsInterface",
      "outputs": [
        {
          "internalType": "bool",
          "name": "",
          "type": "bool"
        }
      ],
      "stateMutability": "view",
      "type": "function"
    },
    {
      "inputs": [],
      "name": "symbol",
      "outputs": [
        {
          "internalType": "string",
          "name": "",
          "type": "string"
        }
      ],
      "stateMutability": "view",
      "type": "function"
    },
    {
      "inputs": [
        {
          "internalType": "uint256",
          "name": "index",
          "type": "uint256"
        }
      ],
      "name": "tokenByIndex",
      "outputs": [
        {
          "internalType": "uint256",
          "name": "",
          "type": "uint256"
        }
      ],
      "stateMutability": "view",
      "type": "function"
    },
    {
      "inputs": [
        {
          "internalType": "address",
          "name": "owner",
          "type": "address"
        },
        {
          "internalType": "uint256",
          "name": "index",
          "type": "uint256"
        }
      ],
      "name": "tokenOfOwnerByIndex",
      "outputs": [
        {
          "internalType": "uint256",
          "name": "",
          "type": "uint256"
        }
      ],
      "stateMutability": "view",
      "type": "function"
    },
    {
      "inputs": [
        {
          "internalType": "uint256",
          "name": "_tokenId",
          "type": "uint256"
        }
      ],
      "name": "tokenURI",
      "outputs": [
        {
          "internalType": "string",
          "name": "",
          "type": "string"
        }
      ],
      "stateMutability": "view",
      "type": "function"
    },
    {
      "inputs": [],
      "name": "totalSupply",
      "outputs": [
        {
          "internalType": "uint256",
          "name": "",
          "type": "uint256"
        }
      ],
      "stateMutability": "view",
      "type": "function"
    },
    {
      "inputs": [
        {
          "internalType": "address",
          "name": "from",
          "type": "address"
        },
        {
          "internalType": "address",
          "name": "to",
          "type": "address"
        },
        {
          "internalType": "uint256",
          "name": "tokenId",
          "type": "uint256"
        }
      ],
      "name": "transferFrom",
      "outputs": [],
      "stateMutability": "nonpayable",
      "type": "function"
    },
    {
      "inputs": [
        {
          "internalType": "address",
          "name": "newOwner",
          "type": "address"
        }
      ],
      "name": "transferOwnership",
      "outputs": [],
      "stateMutability": "nonpayable",
      "type": "function"
    },
    {
      "inputs": [
        {
          "internalType": "address",
          "name": "_to",
          "type": "address"
        },
        {
          "internalType": "uint256",
          "name": "_value",
          "type": "uint256"
        }
      ],
      "name": "withdrawBalance",
      "outputs": [],
      "stateMutability": "nonpayable",
      "type": "function"
    },
    {
      "stateMutability": "payable",
      "type": "receive"
    }
  ],
  "bytecode": "0x60806040526103e8600e60006101000a81548163ffffffff021916908363ffffffff1602179055506064600e60046101000a81548161ffff021916908361ffff160217905550662386f26fc10000600f553480156200005d57600080fd5b50604051620058343803806200583483398181016040528101906200008391906200053d565b6040518060400160405280601281526020017f4d616c6963696f7573204d757368726f6f6d00000000000000000000000000008152506040518060400160405280600481526020017f4d55534800000000000000000000000000000000000000000000000000000000815250816000908162000100919062000829565b50806001908162000112919062000829565b50505062000135620001296200029260201b60201c565b6200029a60201b60201c565b6200014c600c6200036060201b62001b1f1760201c565b620001616000801b856200037660201b60201c565b620001937f73e573f9566d61418a34d5de3ff49360f9c51fec37f7486551670290f6285dab336200037660201b60201c565b620001c57f364d3d7565c7a8300c96fd53e065d19b65848d7b23b3191adcd55621c744223c336200037660201b60201c565b82601060006101000a81548173ffffffffffffffffffffffffffffffffffffffff021916908373ffffffffffffffffffffffffffffffffffffffff16021790555081601160006101000a81548173ffffffffffffffffffffffffffffffffffffffff021916908373ffffffffffffffffffffffffffffffffffffffff16021790555080601260006101000a81548173ffffffffffffffffffffffffffffffffffffffff021916908373ffffffffffffffffffffffffffffffffffffffff1602179055505050505062000910565b600033905090565b6000600b60009054906101000a900473ffffffffffffffffffffffffffffffffffffffff16905081600b60006101000a81548173ffffffffffffffffffffffffffffffffffffffff021916908373ffffffffffffffffffffffffffffffffffffffff1602179055508173ffffffffffffffffffffffffffffffffffffffff168173ffffffffffffffffffffffffffffffffffffffff167f8be0079c531659141344cd1fd0a4f28419497f9722a3daafe3b4186f6b6457e060405160405180910390a35050565b6001816000016000828254019250508190555050565b6200038882826200046860201b60201c565b62000464576001600a600084815260200190815260200160002060000160008373ffffffffffffffffffffffffffffffffffffffff1673ffffffffffffffffffffffffffffffffffffffff16815260200190815260200160002060006101000a81548160ff021916908315150217905550620004096200029260201b60201c565b73ffffffffffffffffffffffffffffffffffffffff168173ffffffffffffffffffffffffffffffffffffffff16837f2f8788117e7eff1d82e926ec794901d17c78024a50270940304540a733656f0d60405160405180910390a45b5050565b6000600a600084815260200190815260200160002060000160008373ffffffffffffffffffffffffffffffffffffffff1673ffffffffffffffffffffffffffffffffffffffff16815260200190815260200160002060009054906101000a900460ff16905092915050565b600080fd5b600073ffffffffffffffffffffffffffffffffffffffff82169050919050565b60006200050582620004d8565b9050919050565b6200051781620004f8565b81146200052357600080fd5b50565b60008151905062000537816200050c565b92915050565b600080600080608085870312156200055a5762000559620004d3565b5b60006200056a8782880162000526565b94505060206200057d8782880162000526565b9350506040620005908782880162000526565b9250506060620005a38782880162000526565b91505092959194509250565b600081519050919050565b7f4e487b7100000000000000000000000000000000000000000000000000000000600052604160045260246000fd5b7f4e487b7100000000000000000000000000000000000000000000000000000000600052602260045260246000fd5b600060028204905060018216806200063157607f821691505b602082108103620006475762000646620005e9565b5b50919050565b60008190508160005260206000209050919050565b60006020601f8301049050919050565b600082821b905092915050565b600060088302620006b17fffffffffffffffffffffffffffffffffffffffffffffffffffffffffffffffff8262000672565b620006bd868362000672565b95508019841693508086168417925050509392505050565b6000819050919050565b6000819050919050565b60006200070a62000704620006fe84620006d5565b620006df565b620006d5565b9050919050565b6000819050919050565b6200072683620006e9565b6200073e620007358262000711565b8484546200067f565b825550505050565b600090565b6200075562000746565b620007628184846200071b565b505050565b5b818110156200078a576200077e6000826200074b565b60018101905062000768565b5050565b601f821115620007d957620007a3816200064d565b620007ae8462000662565b81016020851015620007be578190505b620007d6620007cd8562000662565b83018262000767565b50505b505050565b600082821c905092915050565b6000620007fe60001984600802620007de565b1980831691505092915050565b6000620008198383620007eb565b9150826002028217905092915050565b6200083482620005af565b67ffffffffffffffff81111562000850576200084f620005ba565b5b6200085c825462000618565b620008698282856200078e565b600060209050601f831160018114620008a157600084156200088c578287015190505b6200089885826200080b565b86555062000908565b601f198416620008b1866200064d565b60005b82811015620008db57848901518255600182019150602085019450602081019050620008b4565b86831015620008fb5784890151620008f7601f891682620007eb565b8355505b6001600288020188555050505b505050505050565b614f1480620009206000396000f3fe6080604052600436106102345760003560e01c80636352211e1161012e5780639b62a61b116100ab578063c87b56dd1161006f578063c87b56dd1461087b578063d547741f146108b8578063e985e9c5146108e1578063f1cf64091461091e578063f2fde38b146109495761023b565b80639b62a61b146107a5578063a217fddf146107ce578063a22cb465146107f9578063b88d4fde14610822578063c2724af21461084b5761023b565b80637f456ef1116100f25780637f456ef1146106be5780637fa8e5e4146106e75780638da5cb5b1461071257806391d148541461073d57806395d89b411461077a5761023b565b80636352211e146105d957806367f718a91461061657806370a0823114610641578063715018a61461067e57806379b22e80146106955761023b565b806312065fe0116101bc5780632f745c59116101805780632f745c59146104e257806336568abe1461051f57806342842e0e1461054857806347e63380146105715780634f6ccce71461059c5761023b565b806312065fe0146103fd57806318160ddd1461042857806323b872dd14610453578063248a9ca31461047c5780632f2ff15d146104b95761023b565b806306fdde031161020357806306fdde03146102fc578063081812fc14610327578063095ea7b3146103645780630cf20cc91461038d5780631082fa9f146103b65761023b565b806301ffc9a7146102405780630387da421461027d57806303fe46ab146102a857806304492859146102d35761023b565b3661023b57005b600080fd5b34801561024c57600080fd5b5061026760048036038101906102629190613531565b610972565b6040516102749190613579565b60405180910390f35b34801561028957600080fd5b50610292610984565b60405161029f91906135ad565b60405180910390f35b3480156102b457600080fd5b506102bd61098a565b6040516102ca91906135e1565b60405180910390f35b3480156102df57600080fd5b506102fa60048036038101906102f59190613664565b6109ae565b005b34801561030857600080fd5b506103116109dd565b60405161031e9190613734565b60405180910390f35b34801561033357600080fd5b5061034e60048036038101906103499190613756565b610a6f565b60405161035b91906137c4565b60405180910390f35b34801561037057600080fd5b5061038b6004803603810190610386919061380b565b610ab5565b005b34801561039957600080fd5b506103b460048036038101906103af919061380b565b610bcc565b005b3480156103c257600080fd5b506103dd60048036038101906103d89190613756565b610c85565b6040516103f49b9a9998979695949392919061385a565b60405180910390f35b34801561040957600080fd5b5061041261112f565b60405161041f91906135ad565b60405180910390f35b34801561043457600080fd5b5061043d611137565b60405161044a91906135ad565b60405180910390f35b34801561045f57600080fd5b5061047a6004803603810190610475919061393d565b611144565b005b34801561048857600080fd5b506104a3600480360381019061049e91906139bc565b6111a4565b6040516104b091906135e1565b60405180910390f35b3480156104c557600080fd5b506104e060048036038101906104db91906139e9565b6111c4565b005b3480156104ee57600080fd5b506105096004803603810190610504919061380b565b6111e5565b60405161051691906135ad565b60405180910390f35b34801561052b57600080fd5b50610546600480360381019061054191906139e9565b61128a565b005b34801561055457600080fd5b5061056f600480360381019061056a919061393d565b61130d565b005b34801561057d57600080fd5b5061058661132d565b60405161059391906135e1565b60405180910390f35b3480156105a857600080fd5b506105c360048036038101906105be9190613756565b611351565b6040516105d091906135ad565b60405180910390f35b3480156105e557600080fd5b5061060060048036038101906105fb9190613756565b6113c2565b60405161060d91906137c4565b60405180910390f35b34801561062257600080fd5b5061062b611448565b60405161063891906135ad565b60405180910390f35b34801561064d57600080fd5b5061066860048036038101906106639190613a29565b611459565b60405161067591906135ad565b60405180910390f35b34801561068a57600080fd5b50610693611510565b005b3480156106a157600080fd5b506106bc60048036038101906106b79190613d81565b611524565b005b3480156106ca57600080fd5b506106e560048036038101906106e09190613664565b61155c565b005b3480156106f357600080fd5b506106fc6115de565b6040516107099190613dfa565b60405180910390f35b34801561071e57600080fd5b506107276115f2565b60405161073491906137c4565b60405180910390f35b34801561074957600080fd5b50610764600480360381019061075f91906139e9565b61161c565b6040516107719190613579565b60405180910390f35b34801561078657600080fd5b5061078f611687565b60405161079c9190613734565b60405180910390f35b3480156107b157600080fd5b506107cc60048036038101906107c79190613e15565b611719565b005b3480156107da57600080fd5b506107e3611775565b6040516107f091906135e1565b60405180910390f35b34801561080557600080fd5b50610820600480360381019061081b9190613e81565b61177c565b005b34801561082e57600080fd5b5061084960048036038101906108449190613f62565b611792565b005b61086560048036038101906108609190613d81565b6117f4565b60405161087291906135ad565b60405180910390f35b34801561088757600080fd5b506108a2600480360381019061089d9190613756565b611927565b6040516108af9190613734565b60405180910390f35b3480156108c457600080fd5b506108df60048036038101906108da91906139e9565b6119d1565b005b3480156108ed57600080fd5b5061090860048036038101906109039190613fe5565b6119f2565b6040516109159190613579565b60405180910390f35b34801561092a57600080fd5b50610933611a86565b6040516109409190614025565b60405180910390f35b34801561095557600080fd5b50610970600480360381019061096b9190613a29565b611a9c565b005b600061097d82611b35565b9050919050565b600f5481565b7f364d3d7565c7a8300c96fd53e065d19b65848d7b23b3191adcd55621c744223c81565b7f73e573f9566d61418a34d5de3ff49360f9c51fec37f7486551670290f6285dab6109d881611baf565b505050565b6060600080546109ec9061406f565b80601f0160208091040260200160405190810160405280929190818152602001828054610a189061406f565b8015610a655780601f10610a3a57610100808354040283529160200191610a65565b820191906000526020600020905b815481529060010190602001808311610a4857829003601f168201915b5050505050905090565b6000610a7a82611bc3565b6004600083815260200190815260200160002060009054906101000a900473ffffffffffffffffffffffffffffffffffffffff169050919050565b6000610ac0826113c2565b90508073ffffffffffffffffffffffffffffffffffffffff168373ffffffffffffffffffffffffffffffffffffffff1603610b30576040517f08c379a0000000000000000000000000000000000000000000000000000000008152600401610b2790614112565b60405180910390fd5b8073ffffffffffffffffffffffffffffffffffffffff16610b4f611c0e565b73ffffffffffffffffffffffffffffffffffffffff161480610b7e5750610b7d81610b78611c0e565b6119f2565b5b610bbd576040517f08c379a0000000000000000000000000000000000000000000000000000000008152600401610bb4906141a4565b60405180910390fd5b610bc78383611c16565b505050565b7f73e573f9566d61418a34d5de3ff49360f9c51fec37f7486551670290f6285dab610bf681611baf565b47821115610c39576040517f08c379a0000000000000000000000000000000000000000000000000000000008152600401610c3090614210565b60405180910390fd5b8273ffffffffffffffffffffffffffffffffffffffff166108fc839081150290604051600060405180830381858888f19350505050158015610c7f573d6000803e3d6000fd5b50505050565b60136020528060005260406000206000915090508060000154908060010160009054906101000a900463ffffffff1690806002018054610cc49061406f565b80601f0160208091040260200160405190810160405280929190818152602001828054610cf09061406f565b8015610d3d5780601f10610d1257610100808354040283529160200191610d3d565b820191906000526020600020905b815481529060010190602001808311610d2057829003601f168201915b505050505090806003018054610d529061406f565b80601f0160208091040260200160405190810160405280929190818152602001828054610d7e9061406f565b8015610dcb5780601f10610da057610100808354040283529160200191610dcb565b820191906000526020600020905b815481529060010190602001808311610dae57829003601f168201915b505050505090806004018054610de09061406f565b80601f0160208091040260200160405190810160405280929190818152602001828054610e0c9061406f565b8015610e595780601f10610e2e57610100808354040283529160200191610e59565b820191906000526020600020905b815481529060010190602001808311610e3c57829003601f168201915b505050505090806005018054610e6e9061406f565b80601f0160208091040260200160405190810160405280929190818152602001828054610e9a9061406f565b8015610ee75780601f10610ebc57610100808354040283529160200191610ee7565b820191906000526020600020905b815481529060010190602001808311610eca57829003601f168201915b505050505090806006018054610efc9061406f565b80601f0160208091040260200160405190810160405280929190818152602001828054610f289061406f565b8015610f755780601f10610f4a57610100808354040283529160200191610f75565b820191906000526020600020905b815481529060010190602001808311610f5857829003601f168201915b505050505090806007018054610f8a9061406f565b80601f0160208091040260200160405190810160405280929190818152602001828054610fb69061406f565b80156110035780601f10610fd857610100808354040283529160200191611003565b820191906000526020600020905b815481529060010190602001808311610fe657829003601f168201915b5050505050908060080180546110189061406f565b80601f01602080910402602001604051908101604052809291908181526020018280546110449061406f565b80156110915780601f1061106657610100808354040283529160200191611091565b820191906000526020600020905b81548152906001019060200180831161107457829003601f168201915b5050505050908060090180546110a69061406f565b80601f01602080910402602001604051908101604052809291908181526020018280546110d29061406f565b801561111f5780601f106110f45761010080835404028352916020019161111f565b820191906000526020600020905b81548152906001019060200180831161110257829003601f168201915b50505050509080600a015490508b565b600047905090565b6000600880549050905090565b61115561114f611c0e565b82611ccf565b611194576040517f08c379a000000000000000000000000000000000000000000000000000000000815260040161118b906142a2565b60405180910390fd5b61119f838383611d64565b505050565b6000600a6000838152602001908152602001600020600101549050919050565b6111cd826111a4565b6111d681611baf565b6111e0838361205d565b505050565b60006111f083611459565b8210611231576040517f08c379a000000000000000000000000000000000000000000000000000000000815260040161122890614334565b60405180910390fd5b600660008473ffffffffffffffffffffffffffffffffffffffff1673ffffffffffffffffffffffffffffffffffffffff168152602001908152602001600020600083815260200190815260200160002054905092915050565b611292611c0e565b73ffffffffffffffffffffffffffffffffffffffff168173ffffffffffffffffffffffffffffffffffffffff16146112ff576040517f08c379a00000000000000000000000000000000000000000000000000000000081526004016112f6906143c6565b60405180910390fd5b611309828261213e565b5050565b61132883838360405180602001604052806000815250611792565b505050565b7f73e573f9566d61418a34d5de3ff49360f9c51fec37f7486551670290f6285dab81565b600061135b611137565b821061139c576040517f08c379a000000000000000000000000000000000000000000000000000000000815260040161139390614458565b60405180910390fd5b600882815481106113b0576113af614478565b5b90600052602060002001549050919050565b6000806113ce83612220565b9050600073ffffffffffffffffffffffffffffffffffffffff168173ffffffffffffffffffffffffffffffffffffffff160361143f576040517f08c379a0000000000000000000000000000000000000000000000000000000008152600401611436906144f3565b60405180910390fd5b80915050919050565b6000611454600c61225d565b905090565b60008073ffffffffffffffffffffffffffffffffffffffff168273ffffffffffffffffffffffffffffffffffffffff16036114c9576040517f08c379a00000000000000000000000000000000000000000000000000000000081526004016114c090614585565b60405180910390fd5b600360008373ffffffffffffffffffffffffffffffffffffffff1673ffffffffffffffffffffffffffffffffffffffff168152602001908152602001600020549050919050565b61151861226b565b61152260006122e9565b565b7f73e573f9566d61418a34d5de3ff49360f9c51fec37f7486551670290f6285dab61154e81611baf565b611557836123af565b505050565b7f73e573f9566d61418a34d5de3ff49360f9c51fec37f7486551670290f6285dab61158681611baf565b816013600085815260200190815260200160002060010160008282829054906101000a900463ffffffff166115bb91906145d4565b92506101000a81548163ffffffff021916908363ffffffff160217905550505050565b600e60049054906101000a900461ffff1681565b6000600b60009054906101000a900473ffffffffffffffffffffffffffffffffffffffff16905090565b6000600a600084815260200190815260200160002060000160008373ffffffffffffffffffffffffffffffffffffffff1673ffffffffffffffffffffffffffffffffffffffff16815260200190815260200160002060009054906101000a900460ff16905092915050565b6060600180546116969061406f565b80601f01602080910402602001604051908101604052809291908181526020018280546116c29061406f565b801561170f5780601f106116e45761010080835404028352916020019161170f565b820191906000526020600020905b8154815290600101906020018083116116f257829003601f168201915b5050505050905090565b7f73e573f9566d61418a34d5de3ff49360f9c51fec37f7486551670290f6285dab61174381611baf565b8160136000858152602001908152602001600020600a016000828254611769919061460c565b92505081905550505050565b6000801b81565b61178e611787611c0e565b83836126ce565b5050565b6117a361179d611c0e565b83611ccf565b6117e2576040517f08c379a00000000000000000000000000000000000000000000000000000000081526004016117d9906142a2565b60405180910390fd5b6117ee8484848461283a565b50505050565b6000600e60009054906101000a900463ffffffff1663ffffffff16611819600c61225d565b10611859576040517f08c379a00000000000000000000000000000000000000000000000000000000081526004016118509061468c565b60405180910390fd5b600f5434101561189e576040517f08c379a000000000000000000000000000000000000000000000000000000000815260040161189590614210565b60405180910390fd5b600e60049054906101000a900461ffff1661ffff166118bc33611459565b106118fc576040517f08c379a00000000000000000000000000000000000000000000000000000000081526004016118f3906146f8565b60405180910390fd5b611906600c611b1f565b6000611912600c61225d565b905061191d846123af565b8091505092915050565b6060601160009054906101000a900473ffffffffffffffffffffffffffffffffffffffff1673ffffffffffffffffffffffffffffffffffffffff16633bb3a24d836040518263ffffffff1660e01b815260040161198491906135ad565b600060405180830381865afa1580156119a1573d6000803e3d6000fd5b505050506040513d6000823e3d601f19601f820116820180604052508101906119ca9190614788565b9050919050565b6119da826111a4565b6119e381611baf565b6119ed838361213e565b505050565b6000600560008473ffffffffffffffffffffffffffffffffffffffff1673ffffffffffffffffffffffffffffffffffffffff16815260200190815260200160002060008373ffffffffffffffffffffffffffffffffffffffff1673ffffffffffffffffffffffffffffffffffffffff16815260200190815260200160002060009054906101000a900460ff16905092915050565b600e60009054906101000a900463ffffffff1681565b611aa461226b565b600073ffffffffffffffffffffffffffffffffffffffff168173ffffffffffffffffffffffffffffffffffffffff1603611b13576040517f08c379a0000000000000000000000000000000000000000000000000000000008152600401611b0a90614843565b60405180910390fd5b611b1c816122e9565b50565b6001816000016000828254019250508190555050565b60007f7965db0b000000000000000000000000000000000000000000000000000000007bffffffffffffffffffffffffffffffffffffffffffffffffffffffff1916827bffffffffffffffffffffffffffffffffffffffffffffffffffffffff19161480611ba85750611ba782612896565b5b9050919050565b611bc081611bbb611c0e565b612910565b50565b611bcc81612995565b611c0b576040517f08c379a0000000000000000000000000000000000000000000000000000000008152600401611c02906144f3565b60405180910390fd5b50565b600033905090565b816004600083815260200190815260200160002060006101000a81548173ffffffffffffffffffffffffffffffffffffffff021916908373ffffffffffffffffffffffffffffffffffffffff160217905550808273ffffffffffffffffffffffffffffffffffffffff16611c89836113c2565b73ffffffffffffffffffffffffffffffffffffffff167f8c5be1e5ebec7d5bd14f71427d1e84f3dd0314c0f7b2291e5b200ac8c7c3b92560405160405180910390a45050565b600080611cdb836113c2565b90508073ffffffffffffffffffffffffffffffffffffffff168473ffffffffffffffffffffffffffffffffffffffff161480611d1d5750611d1c81856119f2565b5b80611d5b57508373ffffffffffffffffffffffffffffffffffffffff16611d4384610a6f565b73ffffffffffffffffffffffffffffffffffffffff16145b91505092915050565b8273ffffffffffffffffffffffffffffffffffffffff16611d84826113c2565b73ffffffffffffffffffffffffffffffffffffffff1614611dda576040517f08c379a0000000000000000000000000000000000000000000000000000000008152600401611dd1906148d5565b60405180910390fd5b600073ffffffffffffffffffffffffffffffffffffffff168273ffffffffffffffffffffffffffffffffffffffff1603611e49576040517f08c379a0000000000000000000000000000000000000000000000000000000008152600401611e4090614967565b60405180910390fd5b611e5683838360016129d6565b8273ffffffffffffffffffffffffffffffffffffffff16611e76826113c2565b73ffffffffffffffffffffffffffffffffffffffff1614611ecc576040517f08c379a0000000000000000000000000000000000000000000000000000000008152600401611ec3906148d5565b60405180910390fd5b6004600082815260200190815260200160002060006101000a81549073ffffffffffffffffffffffffffffffffffffffff02191690556001600360008573ffffffffffffffffffffffffffffffffffffffff1673ffffffffffffffffffffffffffffffffffffffff168152602001908152602001600020600082825403925050819055506001600360008473ffffffffffffffffffffffffffffffffffffffff1673ffffffffffffffffffffffffffffffffffffffff16815260200190815260200160002060008282540192505081905550816002600083815260200190815260200160002060006101000a81548173ffffffffffffffffffffffffffffffffffffffff021916908373ffffffffffffffffffffffffffffffffffffffff160217905550808273ffffffffffffffffffffffffffffffffffffffff168473ffffffffffffffffffffffffffffffffffffffff167fddf252ad1be2c89b69c2b068fc378daa952ba7f163c4a11628f55a4df523b3ef60405160405180910390a46120588383836001612b34565b505050565b612067828261161c565b61213a576001600a600084815260200190815260200160002060000160008373ffffffffffffffffffffffffffffffffffffffff1673ffffffffffffffffffffffffffffffffffffffff16815260200190815260200160002060006101000a81548160ff0219169083151502179055506120df611c0e565b73ffffffffffffffffffffffffffffffffffffffff168173ffffffffffffffffffffffffffffffffffffffff16837f2f8788117e7eff1d82e926ec794901d17c78024a50270940304540a733656f0d60405160405180910390a45b5050565b612148828261161c565b1561221c576000600a600084815260200190815260200160002060000160008373ffffffffffffffffffffffffffffffffffffffff1673ffffffffffffffffffffffffffffffffffffffff16815260200190815260200160002060006101000a81548160ff0219169083151502179055506121c1611c0e565b73ffffffffffffffffffffffffffffffffffffffff168173ffffffffffffffffffffffffffffffffffffffff16837ff6391f5c32d9c69d2a47ea670b442974b53935d1edc7fd64eb21e047a839171b60405160405180910390a45b5050565b60006002600083815260200190815260200160002060009054906101000a900473ffffffffffffffffffffffffffffffffffffffff169050919050565b600081600001549050919050565b612273611c0e565b73ffffffffffffffffffffffffffffffffffffffff166122916115f2565b73ffffffffffffffffffffffffffffffffffffffff16146122e7576040517f08c379a00000000000000000000000000000000000000000000000000000000081526004016122de906149d3565b60405180910390fd5b565b6000600b60009054906101000a900473ffffffffffffffffffffffffffffffffffffffff16905081600b60006101000a81548173ffffffffffffffffffffffffffffffffffffffff021916908373ffffffffffffffffffffffffffffffffffffffff1602179055508173ffffffffffffffffffffffffffffffffffffffff168173ffffffffffffffffffffffffffffffffffffffff167f8be0079c531659141344cd1fd0a4f28419497f9722a3daafe3b4186f6b6457e060405160405180910390a35050565b60006123bb600c61225d565b9050600e60009054906101000a900463ffffffff1663ffffffff168110612417576040517f08c379a000000000000000000000000000000000000000000000000000000000815260040161240e9061468c565b60405180910390fd5b600e60049054906101000a900461ffff1661ffff1661243533611459565b10612475576040517f08c379a000000000000000000000000000000000000000000000000000000000815260040161246c906146f8565b60405180910390fd5b601160009054906101000a900473ffffffffffffffffffffffffffffffffffffffff1673ffffffffffffffffffffffffffffffffffffffff16632b70c17d826040518263ffffffff1660e01b81526004016124d091906135ad565b600060405180830381600087803b1580156124ea57600080fd5b505af11580156124fe573d6000803e3d6000fd5b505050506000601260009054906101000a900473ffffffffffffffffffffffffffffffffffffffff1673ffffffffffffffffffffffffffffffffffffffff1663ac9eab56836040518263ffffffff1660e01b815260040161255f91906135ad565b6000604051808303816000875af115801561257e573d6000803e3d6000fd5b505050506040513d6000823e3d601f19601f820116820180604052508101906125a79190614788565b90507f96799f6ca91f13e038cf09701eeefba346ac65335f64c4d9d8120873e7bed4c0816040516125d89190613734565b60405180910390a16000601260009054906101000a900473ffffffffffffffffffffffffffffffffffffffff1673ffffffffffffffffffffffffffffffffffffffff16633bb3a24d846040518263ffffffff1660e01b815260040161263d91906135ad565b600060405180830381865afa15801561265a573d6000803e3d6000fd5b505050506040513d6000823e3d601f19601f820116820180604052508101906126839190614788565b90507f8f1b26ce53fc574b2bcb59f4332a40792995d0f0c3c55c0a198b7f54c0a7226083826040516126b69291906149f3565b60405180910390a16126c8600c611b1f565b50505050565b8173ffffffffffffffffffffffffffffffffffffffff168373ffffffffffffffffffffffffffffffffffffffff160361273c576040517f08c379a000000000000000000000000000000000000000000000000000000000815260040161273390614a6f565b60405180910390fd5b80600560008573ffffffffffffffffffffffffffffffffffffffff1673ffffffffffffffffffffffffffffffffffffffff16815260200190815260200160002060008473ffffffffffffffffffffffffffffffffffffffff1673ffffffffffffffffffffffffffffffffffffffff16815260200190815260200160002060006101000a81548160ff0219169083151502179055508173ffffffffffffffffffffffffffffffffffffffff168373ffffffffffffffffffffffffffffffffffffffff167f17307eab39ab6107e8899845ad3d59bd9653f200f220920489ca2b5937696c318360405161282d9190613579565b60405180910390a3505050565b612845848484611d64565b61285184848484612b3a565b612890576040517f08c379a000000000000000000000000000000000000000000000000000000000815260040161288790614b01565b60405180910390fd5b50505050565b60007f780e9d63000000000000000000000000000000000000000000000000000000007bffffffffffffffffffffffffffffffffffffffffffffffffffffffff1916827bffffffffffffffffffffffffffffffffffffffffffffffffffffffff19161480612909575061290882612cc1565b5b9050919050565b61291a828261161c565b6129915761292781612da3565b6129358360001c6020612dd0565b604051602001612946929190614bf5565b6040516020818303038152906040526040517f08c379a00000000000000000000000000000000000000000000000000000000081526004016129889190613734565b60405180910390fd5b5050565b60008073ffffffffffffffffffffffffffffffffffffffff166129b783612220565b73ffffffffffffffffffffffffffffffffffffffff1614159050919050565b6129e28484848461300c565b6001811115612a26576040517f08c379a0000000000000000000000000000000000000000000000000000000008152600401612a1d90614ca1565b60405180910390fd5b6000829050600073ffffffffffffffffffffffffffffffffffffffff168573ffffffffffffffffffffffffffffffffffffffff1603612a6d57612a6881613132565b612aac565b8373ffffffffffffffffffffffffffffffffffffffff168573ffffffffffffffffffffffffffffffffffffffff1614612aab57612aaa858261317b565b5b5b600073ffffffffffffffffffffffffffffffffffffffff168473ffffffffffffffffffffffffffffffffffffffff1603612aee57612ae9816132e8565b612b2d565b8473ffffffffffffffffffffffffffffffffffffffff168473ffffffffffffffffffffffffffffffffffffffff1614612b2c57612b2b84826133b9565b5b5b5050505050565b50505050565b6000612b5b8473ffffffffffffffffffffffffffffffffffffffff16613438565b15612cb4578373ffffffffffffffffffffffffffffffffffffffff1663150b7a02612b84611c0e565b8786866040518563ffffffff1660e01b8152600401612ba69493929190614d16565b6020604051808303816000875af1925050508015612be257506040513d601f19601f82011682018060405250810190612bdf9190614d77565b60015b612c64573d8060008114612c12576040519150601f19603f3d011682016040523d82523d6000602084013e612c17565b606091505b506000815103612c5c576040517f08c379a0000000000000000000000000000000000000000000000000000000008152600401612c5390614b01565b60405180910390fd5b805181602001fd5b63150b7a0260e01b7bffffffffffffffffffffffffffffffffffffffffffffffffffffffff1916817bffffffffffffffffffffffffffffffffffffffffffffffffffffffff191614915050612cb9565b600190505b949350505050565b60007f80ac58cd000000000000000000000000000000000000000000000000000000007bffffffffffffffffffffffffffffffffffffffffffffffffffffffff1916827bffffffffffffffffffffffffffffffffffffffffffffffffffffffff19161480612d8c57507f5b5e139f000000000000000000000000000000000000000000000000000000007bffffffffffffffffffffffffffffffffffffffffffffffffffffffff1916827bffffffffffffffffffffffffffffffffffffffffffffffffffffffff1916145b80612d9c5750612d9b8261345b565b5b9050919050565b6060612dc98273ffffffffffffffffffffffffffffffffffffffff16601460ff16612dd0565b9050919050565b606060006002836002612de39190614da4565b612ded919061460c565b67ffffffffffffffff811115612e0657612e05613a5b565b5b6040519080825280601f01601f191660200182016040528015612e385781602001600182028036833780820191505090505b5090507f300000000000000000000000000000000000000000000000000000000000000081600081518110612e7057612e6f614478565b5b60200101907effffffffffffffffffffffffffffffffffffffffffffffffffffffffffffff1916908160001a9053507f780000000000000000000000000000000000000000000000000000000000000081600181518110612ed457612ed3614478565b5b60200101907effffffffffffffffffffffffffffffffffffffffffffffffffffffffffffff1916908160001a90535060006001846002612f149190614da4565b612f1e919061460c565b90505b6001811115612fbe577f3031323334353637383961626364656600000000000000000000000000000000600f861660108110612f6057612f5f614478565b5b1a60f81b828281518110612f7757612f76614478565b5b60200101907effffffffffffffffffffffffffffffffffffffffffffffffffffffffffffff1916908160001a905350600485901c945080612fb790614de6565b9050612f21565b5060008414613002576040517f08c379a0000000000000000000000000000000000000000000000000000000008152600401612ff990614e5b565b60405180910390fd5b8091505092915050565b600181111561312c57600073ffffffffffffffffffffffffffffffffffffffff168473ffffffffffffffffffffffffffffffffffffffff16146130a05780600360008673ffffffffffffffffffffffffffffffffffffffff1673ffffffffffffffffffffffffffffffffffffffff16815260200190815260200160002060008282546130989190614e7b565b925050819055505b600073ffffffffffffffffffffffffffffffffffffffff168373ffffffffffffffffffffffffffffffffffffffff161461312b5780600360008573ffffffffffffffffffffffffffffffffffffffff1673ffffffffffffffffffffffffffffffffffffffff1681526020019081526020016000206000828254613123919061460c565b925050819055505b5b50505050565b6008805490506009600083815260200190815260200160002081905550600881908060018154018082558091505060019003906000526020600020016000909190919091505550565b6000600161318884611459565b6131929190614e7b565b9050600060076000848152602001908152602001600020549050818114613277576000600660008673ffffffffffffffffffffffffffffffffffffffff1673ffffffffffffffffffffffffffffffffffffffff168152602001908152602001600020600084815260200190815260200160002054905080600660008773ffffffffffffffffffffffffffffffffffffffff1673ffffffffffffffffffffffffffffffffffffffff168152602001908152602001600020600084815260200190815260200160002081905550816007600083815260200190815260200160002081905550505b6007600084815260200190815260200160002060009055600660008573ffffffffffffffffffffffffffffffffffffffff1673ffffffffffffffffffffffffffffffffffffffff16815260200190815260200160002060008381526020019081526020016000206000905550505050565b600060016008805490506132fc9190614e7b565b905060006009600084815260200190815260200160002054905060006008838154811061332c5761332b614478565b5b90600052602060002001549050806008838154811061334e5761334d614478565b5b90600052602060002001819055508160096000838152602001908152602001600020819055506009600085815260200190815260200160002060009055600880548061339d5761339c614eaf565b5b6001900381819060005260206000200160009055905550505050565b60006133c483611459565b905081600660008573ffffffffffffffffffffffffffffffffffffffff1673ffffffffffffffffffffffffffffffffffffffff168152602001908152602001600020600083815260200190815260200160002081905550806007600084815260200190815260200160002081905550505050565b6000808273ffffffffffffffffffffffffffffffffffffffff163b119050919050565b60007f01ffc9a7000000000000000000000000000000000000000000000000000000007bffffffffffffffffffffffffffffffffffffffffffffffffffffffff1916827bffffffffffffffffffffffffffffffffffffffffffffffffffffffff1916149050919050565b6000604051905090565b600080fd5b600080fd5b60007fffffffff0000000000000000000000000000000000000000000000000000000082169050919050565b61350e816134d9565b811461351957600080fd5b50565b60008135905061352b81613505565b92915050565b600060208284031215613547576135466134cf565b5b60006135558482850161351c565b91505092915050565b60008115159050919050565b6135738161355e565b82525050565b600060208201905061358e600083018461356a565b92915050565b6000819050919050565b6135a781613594565b82525050565b60006020820190506135c2600083018461359e565b92915050565b6000819050919050565b6135db816135c8565b82525050565b60006020820190506135f660008301846135d2565b92915050565b61360581613594565b811461361057600080fd5b50565b600081359050613622816135fc565b92915050565b600063ffffffff82169050919050565b61364181613628565b811461364c57600080fd5b50565b60008135905061365e81613638565b92915050565b6000806040838503121561367b5761367a6134cf565b5b600061368985828601613613565b925050602061369a8582860161364f565b9150509250929050565b600081519050919050565b600082825260208201905092915050565b60005b838110156136de5780820151818401526020810190506136c3565b60008484015250505050565b6000601f19601f8301169050919050565b6000613706826136a4565b61371081856136af565b93506137208185602086016136c0565b613729816136ea565b840191505092915050565b6000602082019050818103600083015261374e81846136fb565b905092915050565b60006020828403121561376c5761376b6134cf565b5b600061377a84828501613613565b91505092915050565b600073ffffffffffffffffffffffffffffffffffffffff82169050919050565b60006137ae82613783565b9050919050565b6137be816137a3565b82525050565b60006020820190506137d960008301846137b5565b92915050565b6137e8816137a3565b81146137f357600080fd5b50565b600081359050613805816137df565b92915050565b60008060408385031215613822576138216134cf565b5b6000613830858286016137f6565b925050602061384185828601613613565b9150509250929050565b61385481613628565b82525050565b600061016082019050613870600083018e61359e565b61387d602083018d61384b565b818103604083015261388f818c6136fb565b905081810360608301526138a3818b6136fb565b905081810360808301526138b7818a6136fb565b905081810360a08301526138cb81896136fb565b905081810360c08301526138df81886136fb565b905081810360e08301526138f381876136fb565b905081810361010083015261390881866136fb565b905081810361012083015261391d81856136fb565b905061392d61014083018461359e565b9c9b505050505050505050505050565b600080600060608486031215613956576139556134cf565b5b6000613964868287016137f6565b9350506020613975868287016137f6565b925050604061398686828701613613565b9150509250925092565b613999816135c8565b81146139a457600080fd5b50565b6000813590506139b681613990565b92915050565b6000602082840312156139d2576139d16134cf565b5b60006139e0848285016139a7565b91505092915050565b60008060408385031215613a00576139ff6134cf565b5b6000613a0e858286016139a7565b9250506020613a1f858286016137f6565b9150509250929050565b600060208284031215613a3f57613a3e6134cf565b5b6000613a4d848285016137f6565b91505092915050565b600080fd5b7f4e487b7100000000000000000000000000000000000000000000000000000000600052604160045260246000fd5b613a93826136ea565b810181811067ffffffffffffffff82111715613ab257613ab1613a5b565b5b80604052505050565b6000613ac56134c5565b9050613ad18282613a8a565b919050565b600080fd5b600080fd5b600080fd5b600067ffffffffffffffff821115613b0057613aff613a5b565b5b613b09826136ea565b9050602081019050919050565b82818337600083830152505050565b6000613b38613b3384613ae5565b613abb565b905082815260208101848484011115613b5457613b53613ae0565b5b613b5f848285613b16565b509392505050565b600082601f830112613b7c57613b7b613adb565b5b8135613b8c848260208601613b25565b91505092915050565b60006101608284031215613bac57613bab613a56565b5b613bb7610160613abb565b90506000613bc784828501613613565b6000830152506020613bdb8482850161364f565b602083015250604082013567ffffffffffffffff811115613bff57613bfe613ad6565b5b613c0b84828501613b67565b604083015250606082013567ffffffffffffffff811115613c2f57613c2e613ad6565b5b613c3b84828501613b67565b606083015250608082013567ffffffffffffffff811115613c5f57613c5e613ad6565b5b613c6b84828501613b67565b60808301525060a082013567ffffffffffffffff811115613c8f57613c8e613ad6565b5b613c9b84828501613b67565b60a08301525060c082013567ffffffffffffffff811115613cbf57613cbe613ad6565b5b613ccb84828501613b67565b60c08301525060e082013567ffffffffffffffff811115613cef57613cee613ad6565b5b613cfb84828501613b67565b60e08301525061010082013567ffffffffffffffff811115613d2057613d1f613ad6565b5b613d2c84828501613b67565b6101008301525061012082013567ffffffffffffffff811115613d5257613d51613ad6565b5b613d5e84828501613b67565b61012083015250610140613d7484828501613613565b6101408301525092915050565b60008060408385031215613d9857613d976134cf565b5b6000613da6858286016137f6565b925050602083013567ffffffffffffffff811115613dc757613dc66134d4565b5b613dd385828601613b95565b9150509250929050565b600061ffff82169050919050565b613df481613ddd565b82525050565b6000602082019050613e0f6000830184613deb565b92915050565b60008060408385031215613e2c57613e2b6134cf565b5b6000613e3a85828601613613565b9250506020613e4b85828601613613565b9150509250929050565b613e5e8161355e565b8114613e6957600080fd5b50565b600081359050613e7b81613e55565b92915050565b60008060408385031215613e9857613e976134cf565b5b6000613ea6858286016137f6565b9250506020613eb785828601613e6c565b9150509250929050565b600067ffffffffffffffff821115613edc57613edb613a5b565b5b613ee5826136ea565b9050602081019050919050565b6000613f05613f0084613ec1565b613abb565b905082815260208101848484011115613f2157613f20613ae0565b5b613f2c848285613b16565b509392505050565b600082601f830112613f4957613f48613adb565b5b8135613f59848260208601613ef2565b91505092915050565b60008060008060808587031215613f7c57613f7b6134cf565b5b6000613f8a878288016137f6565b9450506020613f9b878288016137f6565b9350506040613fac87828801613613565b925050606085013567ffffffffffffffff811115613fcd57613fcc6134d4565b5b613fd987828801613f34565b91505092959194509250565b60008060408385031215613ffc57613ffb6134cf565b5b600061400a858286016137f6565b925050602061401b858286016137f6565b9150509250929050565b600060208201905061403a600083018461384b565b92915050565b7f4e487b7100000000000000000000000000000000000000000000000000000000600052602260045260246000fd5b6000600282049050600182168061408757607f821691505b60208210810361409a57614099614040565b5b50919050565b7f4552433732313a20617070726f76616c20746f2063757272656e74206f776e6560008201527f7200000000000000000000000000000000000000000000000000000000000000602082015250565b60006140fc6021836136af565b9150614107826140a0565b604082019050919050565b6000602082019050818103600083015261412b816140ef565b9050919050565b7f4552433732313a20617070726f76652063616c6c6572206973206e6f7420746f60008201527f6b656e206f776e6572206f7220617070726f76656420666f7220616c6c000000602082015250565b600061418e603d836136af565b915061419982614132565b604082019050919050565b600060208201905081810360008301526141bd81614181565b9050919050565b7f496e73756666696369656e742066756e64730000000000000000000000000000600082015250565b60006141fa6012836136af565b9150614205826141c4565b602082019050919050565b60006020820190508181036000830152614229816141ed565b9050919050565b7f4552433732313a2063616c6c6572206973206e6f7420746f6b656e206f776e6560008201527f72206f7220617070726f76656400000000000000000000000000000000000000602082015250565b600061428c602d836136af565b915061429782614230565b604082019050919050565b600060208201905081810360008301526142bb8161427f565b9050919050565b7f455243373231456e756d657261626c653a206f776e657220696e646578206f7560008201527f74206f6620626f756e6473000000000000000000000000000000000000000000602082015250565b600061431e602b836136af565b9150614329826142c2565b604082019050919050565b6000602082019050818103600083015261434d81614311565b9050919050565b7f416363657373436f6e74726f6c3a2063616e206f6e6c792072656e6f756e636560008201527f20726f6c657320666f722073656c660000000000000000000000000000000000602082015250565b60006143b0602f836136af565b91506143bb82614354565b604082019050919050565b600060208201905081810360008301526143df816143a3565b9050919050565b7f455243373231456e756d657261626c653a20676c6f62616c20696e646578206f60008201527f7574206f6620626f756e64730000000000000000000000000000000000000000602082015250565b6000614442602c836136af565b915061444d826143e6565b604082019050919050565b6000602082019050818103600083015261447181614435565b9050919050565b7f4e487b7100000000000000000000000000000000000000000000000000000000600052603260045260246000fd5b7f4552433732313a20696e76616c696420746f6b656e2049440000000000000000600082015250565b60006144dd6018836136af565b91506144e8826144a7565b602082019050919050565b6000602082019050818103600083015261450c816144d0565b9050919050565b7f4552433732313a2061646472657373207a65726f206973206e6f74206120766160008201527f6c6964206f776e65720000000000000000000000000000000000000000000000602082015250565b600061456f6029836136af565b915061457a82614513565b604082019050919050565b6000602082019050818103600083015261459e81614562565b9050919050565b7f4e487b7100000000000000000000000000000000000000000000000000000000600052601160045260246000fd5b60006145df82613628565b91506145ea83613628565b9250828203905063ffffffff811115614606576146056145a5565b5b92915050565b600061461782613594565b915061462283613594565b925082820190508082111561463a576146396145a5565b5b92915050565b7f4d696e74206c696d697420726561636865640000000000000000000000000000600082015250565b60006146766012836136af565b915061468182614640565b602082019050919050565b600060208201905081810360008301526146a581614669565b9050919050565b7f4d6178207065722077616c6c6574207265616368656400000000000000000000600082015250565b60006146e26016836136af565b91506146ed826146ac565b602082019050919050565b60006020820190508181036000830152614711816146d5565b9050919050565b600061472b61472684613ae5565b613abb565b90508281526020810184848401111561474757614746613ae0565b5b6147528482856136c0565b509392505050565b600082601f83011261476f5761476e613adb565b5b815161477f848260208601614718565b91505092915050565b60006020828403121561479e5761479d6134cf565b5b600082015167ffffffffffffffff8111156147bc576147bb6134d4565b5b6147c88482850161475a565b91505092915050565b7f4f776e61626c653a206e6577206f776e657220697320746865207a65726f206160008201527f6464726573730000000000000000000000000000000000000000000000000000602082015250565b600061482d6026836136af565b9150614838826147d1565b604082019050919050565b6000602082019050818103600083015261485c81614820565b9050919050565b7f4552433732313a207472616e736665722066726f6d20696e636f72726563742060008201527f6f776e6572000000000000000000000000000000000000000000000000000000602082015250565b60006148bf6025836136af565b91506148ca82614863565b604082019050919050565b600060208201905081810360008301526148ee816148b2565b9050919050565b7f4552433732313a207472616e7366657220746f20746865207a65726f2061646460008201527f7265737300000000000000000000000000000000000000000000000000000000602082015250565b60006149516024836136af565b915061495c826148f5565b604082019050919050565b6000602082019050818103600083015261498081614944565b9050919050565b7f4f776e61626c653a2063616c6c6572206973206e6f7420746865206f776e6572600082015250565b60006149bd6020836136af565b91506149c882614987565b602082019050919050565b600060208201905081810360008301526149ec816149b0565b9050919050565b6000604082019050614a08600083018561359e565b8181036020830152614a1a81846136fb565b90509392505050565b7f4552433732313a20617070726f766520746f2063616c6c657200000000000000600082015250565b6000614a596019836136af565b9150614a6482614a23565b602082019050919050565b60006020820190508181036000830152614a8881614a4c565b9050919050565b7f4552433732313a207472616e7366657220746f206e6f6e20455243373231526560008201527f63656976657220696d706c656d656e7465720000000000000000000000000000602082015250565b6000614aeb6032836136af565b9150614af682614a8f565b604082019050919050565b60006020820190508181036000830152614b1a81614ade565b9050919050565b600081905092915050565b7f416363657373436f6e74726f6c3a206163636f756e7420000000000000000000600082015250565b6000614b62601783614b21565b9150614b6d82614b2c565b601782019050919050565b6000614b83826136a4565b614b8d8185614b21565b9350614b9d8185602086016136c0565b80840191505092915050565b7f206973206d697373696e6720726f6c6520000000000000000000000000000000600082015250565b6000614bdf601183614b21565b9150614bea82614ba9565b601182019050919050565b6000614c0082614b55565b9150614c0c8285614b78565b9150614c1782614bd2565b9150614c238284614b78565b91508190509392505050565b7f455243373231456e756d657261626c653a20636f6e736563757469766520747260008201527f616e7366657273206e6f7420737570706f727465640000000000000000000000602082015250565b6000614c8b6035836136af565b9150614c9682614c2f565b604082019050919050565b60006020820190508181036000830152614cba81614c7e565b9050919050565b600081519050919050565b600082825260208201905092915050565b6000614ce882614cc1565b614cf28185614ccc565b9350614d028185602086016136c0565b614d0b816136ea565b840191505092915050565b6000608082019050614d2b60008301876137b5565b614d3860208301866137b5565b614d45604083018561359e565b8181036060830152614d578184614cdd565b905095945050505050565b600081519050614d7181613505565b92915050565b600060208284031215614d8d57614d8c6134cf565b5b6000614d9b84828501614d62565b91505092915050565b6000614daf82613594565b9150614dba83613594565b9250828202614dc881613594565b91508282048414831517614ddf57614dde6145a5565b5b5092915050565b6000614df182613594565b915060008203614e0457614e036145a5565b5b600182039050919050565b7f537472696e67733a20686578206c656e67746820696e73756666696369656e74600082015250565b6000614e456020836136af565b9150614e5082614e0f565b602082019050919050565b60006020820190508181036000830152614e7481614e38565b9050919050565b6000614e8682613594565b9150614e9183613594565b9250828203905081811115614ea957614ea86145a5565b5b92915050565b7f4e487b7100000000000000000000000000000000000000000000000000000000600052603160045260246000fdfea2646970667358221220a59594a8dee2eca772e7f7029a5dc6bf9e30847b5c1e0a7f7c1207749935c0d964736f6c63430008110033",
  "linkReferences": {},
  "deployedLinkReferences": {}
}