{
  "_format": "hh-sol-artifact-1",
  "contractName": "Metadata1",
  "sourceName": "contracts/Metadata1.sol",
  "abi": [
    {
      "inputs": [
        {
          "internalType": "address",
          "name": "admin",
          "type": "address"
        },
        {
          "internalType": "address",
          "name": "metadata2",
          "type": "address"
        }
      ],
      "stateMutability": "nonpayable",
      "type": "constructor"
    },
    {
      "anonymous": false,
      "inputs": [
        {
          "indexed": true,
          "internalType": "address",
          "name": "owner",
          "type": "address"
        },
        {
          "indexed": true,
          "internalType": "address",
          "name": "approved",
          "type": "address"
        },
        {
          "indexed": true,
          "internalType": "uint256",
          "name": "tokenId",
          "type": "uint256"
        }
      ],
      "name": "Approval",
      "type": "event"
    },
    {
      "anonymous": false,
      "inputs": [
        {
          "indexed": true,
          "internalType": "address",
          "name": "owner",
          "type": "address"
        },
        {
          "indexed": true,
          "internalType": "address",
          "name": "operator",
          "type": "address"
        },
        {
          "indexed": false,
          "internalType": "bool",
          "name": "approved",
          "type": "bool"
        }
      ],
      "name": "ApprovalForAll",
      "type": "event"
    },
    {
      "anonymous": false,
      "inputs": [
        {
          "indexed": true,
          "internalType": "bytes32",
          "name": "role",
          "type": "bytes32"
        },
        {
          "indexed": true,
          "internalType": "bytes32",
          "name": "previousAdminRole",
          "type": "bytes32"
        },
        {
          "indexed": true,
          "internalType": "bytes32",
          "name": "newAdminRole",
          "type": "bytes32"
        }
      ],
      "name": "RoleAdminChanged",
      "type": "event"
    },
    {
      "anonymous": false,
      "inputs": [
        {
          "indexed": true,
          "internalType": "bytes32",
          "name": "role",
          "type": "bytes32"
        },
        {
          "indexed": true,
          "internalType": "address",
          "name": "account",
          "type": "address"
        },
        {
          "indexed": true,
          "internalType": "address",
          "name": "sender",
          "type": "address"
        }
      ],
      "name": "RoleGranted",
      "type": "event"
    },
    {
      "anonymous": false,
      "inputs": [
        {
          "indexed": true,
          "internalType": "bytes32",
          "name": "role",
          "type": "bytes32"
        },
        {
          "indexed": true,
          "internalType": "address",
          "name": "account",
          "type": "address"
        },
        {
          "indexed": true,
          "internalType": "address",
          "name": "sender",
          "type": "address"
        }
      ],
      "name": "RoleRevoked",
      "type": "event"
    },
    {
      "anonymous": false,
      "inputs": [
        {
          "indexed": true,
          "internalType": "address",
          "name": "from",
          "type": "address"
        },
        {
          "indexed": true,
          "internalType": "address",
          "name": "to",
          "type": "address"
        },
        {
          "indexed": true,
          "internalType": "uint256",
          "name": "tokenId",
          "type": "uint256"
        }
      ],
      "name": "Transfer",
      "type": "event"
    },
    {
      "anonymous": false,
      "inputs": [
        {
          "indexed": false,
          "internalType": "uint256",
          "name": "",
          "type": "uint256"
        },
        {
          "components": [
            {
              "internalType": "uint256",
              "name": "id",
              "type": "uint256"
            },
            {
              "internalType": "uint32",
              "name": "spores",
              "type": "uint32"
            },
            {
              "internalType": "string",
              "name": "backgroundColor",
              "type": "string"
            },
            {
              "internalType": "string",
              "name": "head",
              "type": "string"
            },
            {
              "internalType": "string",
              "name": "eyes",
              "type": "string"
            },
            {
              "internalType": "string",
              "name": "mouth",
              "type": "string"
            },
            {
              "internalType": "string",
              "name": "element",
              "type": "string"
            },
            {
              "internalType": "string",
              "name": "weapon",
              "type": "string"
            },
            {
              "internalType": "string",
              "name": "armor",
              "type": "string"
            },
            {
              "internalType": "string",
              "name": "accessory",
              "type": "string"
            },
            {
              "internalType": "uint256",
              "name": "level",
              "type": "uint256"
            }
          ],
          "indexed": false,
          "internalType": "struct Metadata1.Mushroom",
          "name": "mushroom",
          "type": "tuple"
        }
      ],
      "name": "part1Got",
      "type": "event"
    },
    {
      "anonymous": false,
      "inputs": [
        {
          "indexed": false,
          "internalType": "uint256",
          "name": "tokenId",
          "type": "uint256"
        },
        {
          "indexed": false,
          "internalType": "string",
          "name": "part1",
          "type": "string"
        }
      ],
      "name": "part1Triggered",
      "type": "event"
    },
    {
      "anonymous": false,
      "inputs": [
        {
          "indexed": false,
          "internalType": "uint256",
          "name": "tokenId",
          "type": "uint256"
        },
        {
          "indexed": false,
          "internalType": "string",
          "name": "tokenURI",
          "type": "string"
        }
      ],
      "name": "tokenURIFound",
      "type": "event"
    },
    {
      "inputs": [],
      "name": "CONTRACT_ROLE",
      "outputs": [
        {
          "internalType": "bytes32",
          "name": "",
          "type": "bytes32"
        }
      ],
      "stateMutability": "view",
      "type": "function"
    },
    {
      "inputs": [],
      "name": "DEFAULT_ADMIN_ROLE",
      "outputs": [
        {
          "internalType": "bytes32",
          "name": "",
          "type": "bytes32"
        }
      ],
      "stateMutability": "view",
      "type": "function"
    },
    {
      "inputs": [],
      "name": "UPDATER_ROLE",
      "outputs": [
        {
          "internalType": "bytes32",
          "name": "",
          "type": "bytes32"
        }
      ],
      "stateMutability": "view",
      "type": "function"
    },
    {
      "inputs": [
        {
          "internalType": "uint256",
          "name": "",
          "type": "uint256"
        }
      ],
      "name": "_tokenURIs",
      "outputs": [
        {
          "internalType": "string",
          "name": "",
          "type": "string"
        }
      ],
      "stateMutability": "view",
      "type": "function"
    },
    {
      "inputs": [
        {
          "internalType": "address",
          "name": "to",
          "type": "address"
        },
        {
          "internalType": "uint256",
          "name": "tokenId",
          "type": "uint256"
        }
      ],
      "name": "approve",
      "outputs": [],
      "stateMutability": "nonpayable",
      "type": "function"
    },
    {
      "inputs": [
        {
          "internalType": "address",
          "name": "owner",
          "type": "address"
        }
      ],
      "name": "balanceOf",
      "outputs": [
        {
          "internalType": "uint256",
          "name": "",
          "type": "uint256"
        }
      ],
      "stateMutability": "view",
      "type": "function"
    },
    {
      "inputs": [
        {
          "internalType": "uint256",
          "name": "tokenId",
          "type": "uint256"
        },
        {
          "internalType": "uint32",
          "name": "amount",
          "type": "uint32"
        }
      ],
      "name": "decreaseSpores",
      "outputs": [],
      "stateMutability": "nonpayable",
      "type": "function"
    },
    {
      "inputs": [
        {
          "internalType": "uint256",
          "name": "tokenId",
          "type": "uint256"
        }
      ],
      "name": "getApproved",
      "outputs": [
        {
          "internalType": "address",
          "name": "",
          "type": "address"
        }
      ],
      "stateMutability": "view",
      "type": "function"
    },
    {
      "inputs": [
        {
          "internalType": "uint256",
          "name": "_tokenId",
          "type": "uint256"
        }
      ],
      "name": "getData1",
      "outputs": [
        {
          "components": [
            {
              "internalType": "uint256",
              "name": "id",
              "type": "uint256"
            },
            {
              "internalType": "uint32",
              "name": "spores",
              "type": "uint32"
            },
            {
              "internalType": "string",
              "name": "backgroundColor",
              "type": "string"
            },
            {
              "internalType": "string",
              "name": "head",
              "type": "string"
            },
            {
              "internalType": "string",
              "name": "eyes",
              "type": "string"
            },
            {
              "internalType": "string",
              "name": "mouth",
              "type": "string"
            },
            {
              "internalType": "string",
              "name": "element",
              "type": "string"
            },
            {
              "internalType": "string",
              "name": "weapon",
              "type": "string"
            },
            {
              "internalType": "string",
              "name": "armor",
              "type": "string"
            },
            {
              "internalType": "string",
              "name": "accessory",
              "type": "string"
            },
            {
              "internalType": "uint256",
              "name": "level",
              "type": "uint256"
            }
          ],
          "internalType": "struct Metadata1.Mushroom",
          "name": "",
          "type": "tuple"
        }
      ],
      "stateMutability": "view",
      "type": "function"
    },
    {
      "inputs": [
        {
          "internalType": "bytes32",
          "name": "role",
          "type": "bytes32"
        }
      ],
      "name": "getRoleAdmin",
      "outputs": [
        {
          "internalType": "bytes32",
          "name": "",
          "type": "bytes32"
        }
      ],
      "stateMutability": "view",
      "type": "function"
    },
    {
      "inputs": [
        {
          "internalType": "bytes32",
          "name": "role",
          "type": "bytes32"
        },
        {
          "internalType": "address",
          "name": "account",
          "type": "address"
        }
      ],
      "name": "grantRole",
      "outputs": [],
      "stateMutability": "nonpayable",
      "type": "function"
    },
    {
      "inputs": [
        {
          "internalType": "uint256",
          "name": "_tokenId",
          "type": "uint256"
        }
      ],
      "name": "handleMint",
      "outputs": [],
      "stateMutability": "nonpayable",
      "type": "function"
    },
    {
      "inputs": [
        {
          "internalType": "bytes32",
          "name": "role",
          "type": "bytes32"
        },
        {
          "internalType": "address",
          "name": "account",
          "type": "address"
        }
      ],
      "name": "hasRole",
      "outputs": [
        {
          "internalType": "bool",
          "name": "",
          "type": "bool"
        }
      ],
      "stateMutability": "view",
      "type": "function"
    },
    {
      "inputs": [
        {
          "internalType": "uint256",
          "name": "tokenId",
          "type": "uint256"
        },
        {
          "internalType": "uint256",
          "name": "amount",
          "type": "uint256"
        }
      ],
      "name": "increaseLevel",
      "outputs": [],
      "stateMutability": "nonpayable",
      "type": "function"
    },
    {
      "inputs": [
        {
          "internalType": "uint256",
          "name": "_tokenId",
          "type": "uint256"
        },
        {
          "internalType": "uint32",
          "name": "_amount",
          "type": "uint32"
        }
      ],
      "name": "increaseSpores",
      "outputs": [],
      "stateMutability": "nonpayable",
      "type": "function"
    },
    {
      "inputs": [
        {
          "internalType": "address",
          "name": "owner",
          "type": "address"
        },
        {
          "internalType": "address",
          "name": "operator",
          "type": "address"
        }
      ],
      "name": "isApprovedForAll",
      "outputs": [
        {
          "internalType": "bool",
          "name": "",
          "type": "bool"
        }
      ],
      "stateMutability": "view",
      "type": "function"
    },
    {
      "inputs": [
        {
          "internalType": "uint256",
          "name": "",
          "type": "uint256"
        }
      ],
      "name": "mushroomAttributes",
      "outputs": [
        {
          "internalType": "uint256",
          "name": "id",
          "type": "uint256"
        },
        {
          "internalType": "uint32",
          "name": "spores",
          "type": "uint32"
        },
        {
          "internalType": "string",
          "name": "backgroundColor",
          "type": "string"
        },
        {
          "internalType": "string",
          "name": "head",
          "type": "string"
        },
        {
          "internalType": "string",
          "name": "eyes",
          "type": "string"
        },
        {
          "internalType": "string",
          "name": "mouth",
          "type": "string"
        },
        {
          "internalType": "string",
          "name": "element",
          "type": "string"
        },
        {
          "internalType": "string",
          "name": "weapon",
          "type": "string"
        },
        {
          "internalType": "string",
          "name": "armor",
          "type": "string"
        },
        {
          "internalType": "string",
          "name": "accessory",
          "type": "string"
        },
        {
          "internalType": "uint256",
          "name": "level",
          "type": "uint256"
        }
      ],
      "stateMutability": "view",
      "type": "function"
    },
    {
      "inputs": [],
      "name": "name",
      "outputs": [
        {
          "internalType": "string",
          "name": "",
          "type": "string"
        }
      ],
      "stateMutability": "view",
      "type": "function"
    },
    {
      "inputs": [
        {
          "internalType": "uint256",
          "name": "tokenId",
          "type": "uint256"
        }
      ],
      "name": "ownerOf",
      "outputs": [
        {
          "internalType": "address",
          "name": "",
          "type": "address"
        }
      ],
      "stateMutability": "view",
      "type": "function"
    },
    {
      "inputs": [
        {
          "internalType": "bytes32",
          "name": "role",
          "type": "bytes32"
        },
        {
          "internalType": "address",
          "name": "account",
          "type": "address"
        }
      ],
      "name": "renounceRole",
      "outputs": [],
      "stateMutability": "nonpayable",
      "type": "function"
    },
    {
      "inputs": [
        {
          "internalType": "bytes32",
          "name": "role",
          "type": "bytes32"
        },
        {
          "internalType": "address",
          "name": "account",
          "type": "address"
        }
      ],
      "name": "revokeRole",
      "outputs": [],
      "stateMutability": "nonpayable",
      "type": "function"
    },
    {
      "inputs": [
        {
          "internalType": "address",
          "name": "from",
          "type": "address"
        },
        {
          "internalType": "address",
          "name": "to",
          "type": "address"
        },
        {
          "internalType": "uint256",
          "name": "tokenId",
          "type": "uint256"
        }
      ],
      "name": "safeTransferFrom",
      "outputs": [],
      "stateMutability": "nonpayable",
      "type": "function"
    },
    {
      "inputs": [
        {
          "internalType": "address",
          "name": "from",
          "type": "address"
        },
        {
          "internalType": "address",
          "name": "to",
          "type": "address"
        },
        {
          "internalType": "uint256",
          "name": "tokenId",
          "type": "uint256"
        },
        {
          "internalType": "bytes",
          "name": "data",
          "type": "bytes"
        }
      ],
      "name": "safeTransferFrom",
      "outputs": [],
      "stateMutability": "nonpayable",
      "type": "function"
    },
    {
      "inputs": [
        {
          "internalType": "uint256",
          "name": "tokenId",
          "type": "uint256"
        },
        {
          "internalType": "string",
          "name": "accessory",
          "type": "string"
        }
      ],
      "name": "setAccessory",
      "outputs": [],
      "stateMutability": "nonpayable",
      "type": "function"
    },
    {
      "inputs": [
        {
          "internalType": "address",
          "name": "operator",
          "type": "address"
        },
        {
          "internalType": "bool",
          "name": "approved",
          "type": "bool"
        }
      ],
      "name": "setApprovalForAll",
      "outputs": [],
      "stateMutability": "nonpayable",
      "type": "function"
    },
    {
      "inputs": [
        {
          "internalType": "uint256",
          "name": "tokenId",
          "type": "uint256"
        },
        {
          "internalType": "string",
          "name": "armor",
          "type": "string"
        }
      ],
      "name": "setArmor",
      "outputs": [],
      "stateMutability": "nonpayable",
      "type": "function"
    },
    {
      "inputs": [
        {
          "internalType": "uint256",
          "name": "_tokenId",
          "type": "uint256"
        }
      ],
      "name": "setData1",
      "outputs": [
        {
          "components": [
            {
              "internalType": "uint256",
              "name": "id",
              "type": "uint256"
            },
            {
              "internalType": "uint32",
              "name": "spores",
              "type": "uint32"
            },
            {
              "internalType": "string",
              "name": "backgroundColor",
              "type": "string"
            },
            {
              "internalType": "string",
              "name": "head",
              "type": "string"
            },
            {
              "internalType": "string",
              "name": "eyes",
              "type": "string"
            },
            {
              "internalType": "string",
              "name": "mouth",
              "type": "string"
            },
            {
              "internalType": "string",
              "name": "element",
              "type": "string"
            },
            {
              "internalType": "string",
              "name": "weapon",
              "type": "string"
            },
            {
              "internalType": "string",
              "name": "armor",
              "type": "string"
            },
            {
              "internalType": "string",
              "name": "accessory",
              "type": "string"
            },
            {
              "internalType": "uint256",
              "name": "level",
              "type": "uint256"
            }
          ],
          "internalType": "struct Metadata1.Mushroom",
          "name": "",
          "type": "tuple"
        }
      ],
      "stateMutability": "nonpayable",
      "type": "function"
    },
    {
      "inputs": [
        {
          "internalType": "uint256",
          "name": "tokenId",
          "type": "uint256"
        },
        {
          "internalType": "string",
          "name": "element",
          "type": "string"
        }
      ],
      "name": "setElement",
      "outputs": [],
      "stateMutability": "nonpayable",
      "type": "function"
    },
    {
      "inputs": [
        {
          "internalType": "uint256",
          "name": "tokenId",
          "type": "uint256"
        },
        {
          "internalType": "string",
          "name": "weapon",
          "type": "string"
        }
      ],
      "name": "setWeapon",
      "outputs": [],
      "stateMutability": "nonpayable",
      "type": "function"
    },
    {
      "inputs": [
        {
          "internalType": "bytes4",
          "name": "interfaceId",
          "type": "bytes4"
        }
      ],
      "name": "supportsInterface",
      "outputs": [
        {
          "internalType": "bool",
          "name": "",
          "type": "bool"
        }
      ],
      "stateMutability": "view",
      "type": "function"
    },
    {
      "inputs": [],
      "name": "symbol",
      "outputs": [
        {
          "internalType": "string",
          "name": "",
          "type": "string"
        }
      ],
      "stateMutability": "view",
      "type": "function"
    },
    {
      "inputs": [
        {
          "internalType": "uint256",
          "name": "index",
          "type": "uint256"
        }
      ],
      "name": "tokenByIndex",
      "outputs": [
        {
          "internalType": "uint256",
          "name": "",
          "type": "uint256"
        }
      ],
      "stateMutability": "view",
      "type": "function"
    },
    {
      "inputs": [
        {
          "internalType": "address",
          "name": "owner",
          "type": "address"
        },
        {
          "internalType": "uint256",
          "name": "index",
          "type": "uint256"
        }
      ],
      "name": "tokenOfOwnerByIndex",
      "outputs": [
        {
          "internalType": "uint256",
          "name": "",
          "type": "uint256"
        }
      ],
      "stateMutability": "view",
      "type": "function"
    },
    {
      "inputs": [
        {
          "internalType": "uint256",
          "name": "tokenId",
          "type": "uint256"
        }
      ],
      "name": "tokenURI",
      "outputs": [
        {
          "internalType": "string",
          "name": "",
          "type": "string"
        }
      ],
      "stateMutability": "view",
      "type": "function"
    },
    {
      "inputs": [],
      "name": "totalSupply",
      "outputs": [
        {
          "internalType": "uint256",
          "name": "",
          "type": "uint256"
        }
      ],
      "stateMutability": "view",
      "type": "function"
    },
    {
      "inputs": [
        {
          "internalType": "address",
          "name": "from",
          "type": "address"
        },
        {
          "internalType": "address",
          "name": "to",
          "type": "address"
        },
        {
          "internalType": "uint256",
          "name": "tokenId",
          "type": "uint256"
        }
      ],
      "name": "transferFrom",
      "outputs": [],
      "stateMutability": "nonpayable",
      "type": "function"
    }
  ],
  "bytecode": "0x60806040526040518060c001604052806040518060400160405280600481526020017f426c75650000000000000000000000000000000000000000000000000000000081525081526020016040518060400160405280600581526020017f477265656e00000000000000000000000000000000000000000000000000000081525081526020016040518060400160405280600681526020017f4f72616e6765000000000000000000000000000000000000000000000000000081525081526020016040518060400160405280600681526020017f507572706c65000000000000000000000000000000000000000000000000000081525081526020016040518060400160405280600381526020017f526564000000000000000000000000000000000000000000000000000000000081525081526020016040518060400160405280600681526020017f59656c6c6f770000000000000000000000000000000000000000000000000000815250815250600e9060066200018192919062000ddd565b506040518060c001604052806040518060400160405280600481526020017f426c75650000000000000000000000000000000000000000000000000000000081525081526020016040518060400160405280600381526020017f526564000000000000000000000000000000000000000000000000000000000081525081526020016040518060400160405280600681526020017f507572706c65000000000000000000000000000000000000000000000000000081525081526020016040518060400160405280600581526020017f477265656e00000000000000000000000000000000000000000000000000000081525081526020016040518060400160405280600681526020017f59656c6c6f77000000000000000000000000000000000000000000000000000081525081526020016040518060400160405280600581526020017f42726f776e000000000000000000000000000000000000000000000000000000815250815250600f906006620002ff92919062000ddd565b5060405180608001604052806040518060400160405280600581526020017f526f756e6400000000000000000000000000000000000000000000000000000081525081526020016040518060400160405280600481526020017f4f76616c0000000000000000000000000000000000000000000000000000000081525081526020016040518060400160405280600881526020017f547269616e676c6500000000000000000000000000000000000000000000000081525081526020016040518060400160405280600481526020017f466c61740000000000000000000000000000000000000000000000000000000081525081525060109060046200040792919062000e3d565b50604051806101e001604052806040518060400160405280600681526020017f436972636c65000000000000000000000000000000000000000000000000000081525081526020016040518060400160405280600981526020017f436f6e6365726e6564000000000000000000000000000000000000000000000081525081526020016040518060400160405280600581526020017f43726f737300000000000000000000000000000000000000000000000000000081525081526020016040518060400160405280600581526020017f457965733100000000000000000000000000000000000000000000000000000081525081526020016040518060400160405280600581526020017f457965733200000000000000000000000000000000000000000000000000000081525081526020016040518060400160405280600581526020017f457965733300000000000000000000000000000000000000000000000000000081525081526020016040518060400160405280600581526020017f457965733500000000000000000000000000000000000000000000000000000081525081526020016040518060400160405280600581526020017f457965733600000000000000000000000000000000000000000000000000000081525081526020016040518060400160405280600581526020017f457965733900000000000000000000000000000000000000000000000000000081525081526020016040518060400160405280600681526020017f457965733131000000000000000000000000000000000000000000000000000081525081526020016040518060400160405280600681526020017f457965733132000000000000000000000000000000000000000000000000000081525081526020016040518060400160405280600681526020017f457965733133000000000000000000000000000000000000000000000000000081525081526020016040518060400160405280600681526020017f457965733134000000000000000000000000000000000000000000000000000081525081526020016040518060400160405280600681526020017f537175696e74000000000000000000000000000000000000000000000000000081525081526020016040518060400160405280600181526020017f5800000000000000000000000000000000000000000000000000000000000000815250815250601190600f6200079992919062000e9d565b50604051806101c001604052806040518060400160405280600981526020017f4275636b546f6f7468000000000000000000000000000000000000000000000081525081526020016040518060400160405280600781526020017f437265657065720000000000000000000000000000000000000000000000000081525081526020016040518060400160405280600581526020017f46726f776e00000000000000000000000000000000000000000000000000000081525081526020016040518060400160405280600581526020017f486170707900000000000000000000000000000000000000000000000000000081525081526020016040518060400160405280600481526020017f4b6973730000000000000000000000000000000000000000000000000000000081525081526020016040518060400160405280600681526020017f4d6f75746838000000000000000000000000000000000000000000000000000081525081526020016040518060400160405280600681526020017f4d6f75746839000000000000000000000000000000000000000000000000000081525081526020016040518060400160405280600681526020017f507572736564000000000000000000000000000000000000000000000000000081525081526020016040518060400160405280600581526020017f536d696c6500000000000000000000000000000000000000000000000000000081525081526020016040518060400160405280600581526020017f536d69726b00000000000000000000000000000000000000000000000000000081525081526020016040518060400160405280600581526020017f536e6f757400000000000000000000000000000000000000000000000000000081525081526020016040518060400160405280600881526020017f5371756967676c7900000000000000000000000000000000000000000000000081525081526020016040518060400160405280600881526020017f537472616967687400000000000000000000000000000000000000000000000081525081526020016040518060400160405280600681526020017f546f6e6775650000000000000000000000000000000000000000000000000000815250815250601290600e62000af092919062000efd565b5034801562000afe57600080fd5b506040516200702138038062007021833981810160405281019062000b24919062001054565b6040518060400160405280600f81526020017f4d696e74696e674d757368726f6f6d00000000000000000000000000000000008152506040518060400160405280600281526020017f4d4d000000000000000000000000000000000000000000000000000000000000815250816000908162000ba1919062001315565b50806001908162000bb3919062001315565b50505062000bcb6000801b8362000c7860201b60201c565b62000bfd7f73e573f9566d61418a34d5de3ff49360f9c51fec37f7486551670290f6285dab3362000c7860201b60201c565b62000c2f7f364d3d7565c7a8300c96fd53e065d19b65848d7b23b3191adcd55621c744223c3362000c7860201b60201c565b80600b60006101000a81548173ffffffffffffffffffffffffffffffffffffffff021916908373ffffffffffffffffffffffffffffffffffffffff1602179055505050620013fc565b62000c8a828262000d6a60201b60201c565b62000d66576001600a600084815260200190815260200160002060000160008373ffffffffffffffffffffffffffffffffffffffff1673ffffffffffffffffffffffffffffffffffffffff16815260200190815260200160002060006101000a81548160ff02191690831515021790555062000d0b62000dd560201b60201c565b73ffffffffffffffffffffffffffffffffffffffff168173ffffffffffffffffffffffffffffffffffffffff16837f2f8788117e7eff1d82e926ec794901d17c78024a50270940304540a733656f0d60405160405180910390a45b5050565b6000600a600084815260200190815260200160002060000160008373ffffffffffffffffffffffffffffffffffffffff1673ffffffffffffffffffffffffffffffffffffffff16815260200190815260200160002060009054906101000a900460ff16905092915050565b600033905090565b82805482825590600052602060002090810192821562000e2a579160200282015b8281111562000e2957825182908162000e18919062001315565b509160200191906001019062000dfe565b5b50905062000e39919062000f5d565b5090565b82805482825590600052602060002090810192821562000e8a579160200282015b8281111562000e8957825182908162000e78919062001315565b509160200191906001019062000e5e565b5b50905062000e99919062000f5d565b5090565b82805482825590600052602060002090810192821562000eea579160200282015b8281111562000ee957825182908162000ed8919062001315565b509160200191906001019062000ebe565b5b50905062000ef9919062000f5d565b5090565b82805482825590600052602060002090810192821562000f4a579160200282015b8281111562000f4957825182908162000f38919062001315565b509160200191906001019062000f1e565b5b50905062000f59919062000f5d565b5090565b5b8082111562000f81576000818162000f77919062000f85565b5060010162000f5e565b5090565b50805462000f939062001104565b6000825580601f1062000fa7575062000fc8565b601f01602090049060005260206000209081019062000fc7919062000fcb565b5b50565b5b8082111562000fe657600081600090555060010162000fcc565b5090565b600080fd5b600073ffffffffffffffffffffffffffffffffffffffff82169050919050565b60006200101c8262000fef565b9050919050565b6200102e816200100f565b81146200103a57600080fd5b50565b6000815190506200104e8162001023565b92915050565b600080604083850312156200106e576200106d62000fea565b5b60006200107e858286016200103d565b925050602062001091858286016200103d565b9150509250929050565b600081519050919050565b7f4e487b7100000000000000000000000000000000000000000000000000000000600052604160045260246000fd5b7f4e487b7100000000000000000000000000000000000000000000000000000000600052602260045260246000fd5b600060028204905060018216806200111d57607f821691505b602082108103620011335762001132620010d5565b5b50919050565b60008190508160005260206000209050919050565b60006020601f8301049050919050565b600082821b905092915050565b6000600883026200119d7fffffffffffffffffffffffffffffffffffffffffffffffffffffffffffffffff826200115e565b620011a986836200115e565b95508019841693508086168417925050509392505050565b6000819050919050565b6000819050919050565b6000620011f6620011f0620011ea84620011c1565b620011cb565b620011c1565b9050919050565b6000819050919050565b6200121283620011d5565b6200122a6200122182620011fd565b8484546200116b565b825550505050565b600090565b6200124162001232565b6200124e81848462001207565b505050565b5b8181101562001276576200126a60008262001237565b60018101905062001254565b5050565b601f821115620012c5576200128f8162001139565b6200129a846200114e565b81016020851015620012aa578190505b620012c2620012b9856200114e565b83018262001253565b50505b505050565b600082821c905092915050565b6000620012ea60001984600802620012ca565b1980831691505092915050565b6000620013058383620012d7565b9150826002028217905092915050565b62001320826200109b565b67ffffffffffffffff8111156200133c576200133b620010a6565b5b62001348825462001104565b620013558282856200127a565b600060209050601f8311600181146200138d576000841562001378578287015190505b620013848582620012f7565b865550620013f4565b601f1984166200139d8662001139565b60005b82811015620013c757848901518255600182019150602085019450602081019050620013a0565b86831015620013e75784890151620013e3601f891682620012d7565b8355505b6001600288020188555050505b505050505050565b615c15806200140c6000396000f3fe608060405234801561001057600080fd5b506004361061021c5760003560e01c80636352211e11610125578063a217fddf116100ad578063c87b56dd1161007c578063c87b56dd14610677578063d547741f146106a7578063dbdd75bb146106c3578063e985e9c5146106df578063f25c80771461070f5761021c565b8063a217fddf146105e7578063a22cb46514610605578063a332027714610621578063b88d4fde1461065b5761021c565b80637f456ef1116100f45780637f456ef11461054557806381b1b44f1461056157806391d148541461057d57806395d89b41146105ad5780639b62a61b146105cb5761021c565b80636352211e146104ad578063658e3b32146104dd57806370a08231146104f95780637bd55ee2146105295761021c565b806323b872dd116101a85780632f745c59116101775780632f745c59146103f757806336568abe1461042757806342842e0e1461044357806347e633801461045f5780634f6ccce71461047d5761021c565b806323b872dd14610373578063248a9ca31461038f5780632b70c17d146103bf5780632f2ff15d146103db5761021c565b8063081812fc116101ef578063081812fc146102a9578063095ea7b3146102d95780630bada385146102f55780630bb78ec11461032557806318160ddd146103555761021c565b806301ffc9a71461022157806303fe46ab14610251578063044928591461026f57806306fdde031461028b575b600080fd5b61023b60048036038101906102369190613cf1565b61073f565b6040516102489190613d39565b60405180910390f35b610259610751565b6040516102669190613d6d565b60405180910390f35b61028960048036038101906102849190613dfa565b610775565b005b6102936107cc565b6040516102a09190613eca565b60405180910390f35b6102c360048036038101906102be9190613eec565b61085e565b6040516102d09190613f5a565b60405180910390f35b6102f360048036038101906102ee9190613fa1565b6108a4565b005b61030f600480360381019061030a9190613eec565b6109bb565b60405161031c9190614169565b60405180910390f35b61033f600480360381019061033a9190613eec565b611019565b60405161034c9190613eca565b60405180910390f35b61035d6110b9565b60405161036a919061419a565b60405180910390f35b61038d600480360381019061038891906141b5565b6110c6565b005b6103a960048036038101906103a49190614234565b611126565b6040516103b69190613d6d565b60405180910390f35b6103d960048036038101906103d49190613eec565b611146565b005b6103f560048036038101906103f09190614261565b6111cb565b005b610411600480360381019061040c9190613fa1565b6111ec565b60405161041e919061419a565b60405180910390f35b610441600480360381019061043c9190614261565b611291565b005b61045d600480360381019061045891906141b5565b611314565b005b610467611334565b6040516104749190613d6d565b60405180910390f35b61049760048036038101906104929190613eec565b611358565b6040516104a4919061419a565b60405180910390f35b6104c760048036038101906104c29190613eec565b6113c9565b6040516104d49190613f5a565b60405180910390f35b6104f760048036038101906104f291906143d6565b61144f565b005b610513600480360381019061050e9190614432565b6114a2565b604051610520919061419a565b60405180910390f35b610543600480360381019061053e91906143d6565b611559565b005b61055f600480360381019061055a9190613dfa565b6115ac565b005b61057b600480360381019061057691906143d6565b61162e565b005b61059760048036038101906105929190614261565b611681565b6040516105a49190613d39565b60405180910390f35b6105b56116ec565b6040516105c29190613eca565b60405180910390f35b6105e560048036038101906105e0919061445f565b61177e565b005b6105ef6117da565b6040516105fc9190613d6d565b60405180910390f35b61061f600480360381019061061a91906144cb565b6117e1565b005b61063b60048036038101906106369190613eec565b6117f7565b6040516106529b9a9998979695949392919061451a565b60405180910390f35b6106756004803603810190610670919061469e565b611ca1565b005b610691600480360381019061068c9190613eec565b611d03565b60405161069e9190613eca565b60405180910390f35b6106c160048036038101906106bc9190614261565b611d6b565b005b6106dd60048036038101906106d891906143d6565b611d8c565b005b6106f960048036038101906106f49190614721565b611ddf565b6040516107069190613d39565b60405180910390f35b61072960048036038101906107249190613eec565b611e73565b6040516107369190614169565b60405180910390f35b600061074a8261236b565b9050919050565b7f364d3d7565c7a8300c96fd53e065d19b65848d7b23b3191adcd55621c744223c81565b80600c600084815260200190815260200160002060010160008282829054906101000a900463ffffffff166107aa9190614790565b92506101000a81548163ffffffff021916908363ffffffff1602179055505050565b6060600080546107db906147f7565b80601f0160208091040260200160405190810160405280929190818152602001828054610807906147f7565b80156108545780601f1061082957610100808354040283529160200191610854565b820191906000526020600020905b81548152906001019060200180831161083757829003601f168201915b5050505050905090565b6000610869826123e5565b6004600083815260200190815260200160002060009054906101000a900473ffffffffffffffffffffffffffffffffffffffff169050919050565b60006108af826113c9565b90508073ffffffffffffffffffffffffffffffffffffffff168373ffffffffffffffffffffffffffffffffffffffff160361091f576040517f08c379a00000000000000000000000000000000000000000000000000000000081526004016109169061489a565b60405180910390fd5b8073ffffffffffffffffffffffffffffffffffffffff1661093e612430565b73ffffffffffffffffffffffffffffffffffffffff16148061096d575061096c81610967612430565b611ddf565b5b6109ac576040517f08c379a00000000000000000000000000000000000000000000000000000000081526004016109a39061492c565b60405180910390fd5b6109b68383612438565b505050565b6109c3613c25565b6000600b60009054906101000a900473ffffffffffffffffffffffffffffffffffffffff1673ffffffffffffffffffffffffffffffffffffffff166301d61e5d846040518263ffffffff1660e01b8152600401610a20919061419a565b600060405180830381865afa158015610a3d573d6000803e3d6000fd5b505050506040513d6000823e3d601f19601f82011682018060405250810190610a669190614aae565b90506000600e808054905085610a7c9190614b26565b81548110610a8d57610a8c614b57565b5b906000526020600020018054610aa2906147f7565b80601f0160208091040260200160405190810160405280929190818152602001828054610ace906147f7565b8015610b1b5780601f10610af057610100808354040283529160200191610b1b565b820191906000526020600020905b815481529060010190602001808311610afe57829003601f168201915b505050505090506000600f808054905086610b369190614b26565b81548110610b4757610b46614b57565b5b906000526020600020018054610b5c906147f7565b80601f0160208091040260200160405190810160405280929190818152602001828054610b88906147f7565b8015610bd55780601f10610baa57610100808354040283529160200191610bd5565b820191906000526020600020905b815481529060010190602001808311610bb857829003601f168201915b5050505050905060006010808054905087610bf09190614b26565b81548110610c0157610c00614b57565b5b906000526020600020018054610c16906147f7565b80601f0160208091040260200160405190810160405280929190818152602001828054610c42906147f7565b8015610c8f5780601f10610c6457610100808354040283529160200191610c8f565b820191906000526020600020905b815481529060010190602001808311610c7257829003601f168201915b5050505050905060008183604051602001610cab929190614c0e565b604051602081830303815290604052905060006011808054905089610cd09190614b26565b81548110610ce157610ce0614b57565b5b906000526020600020018054610cf6906147f7565b80601f0160208091040260200160405190810160405280929190818152602001828054610d22906147f7565b8015610d6f5780601f10610d4457610100808354040283529160200191610d6f565b820191906000526020600020905b815481529060010190602001808311610d5257829003601f168201915b505050505090506000601280805490508a610d8a9190614b26565b81548110610d9b57610d9a614b57565b5b906000526020600020018054610db0906147f7565b80601f0160208091040260200160405190810160405280929190818152602001828054610ddc906147f7565b8015610e295780601f10610dfe57610100808354040283529160200191610e29565b820191906000526020600020905b815481529060010190602001808311610e0c57829003601f168201915b5050505050905060006040518061016001604052808b8152602001600063ffffffff16815260200188815260200185815260200184815260200183815260200189600001518152602001896020015181526020018960400151815260200189606001518152602001600081525090506000610ec888878686604051602001610eb49493929190614c89565b6040516020818303038152906040526124f1565b90507f03e60bc180a10271506812ce8c16f6b00421ee6e475fce015115c9878dc603748b82604051610efb929190614ce8565b60405180910390a181600c60008d81526020019081526020016000206000820151816000015560208201518160010160006101000a81548163ffffffff021916908363ffffffff1602179055506040820151816002019081610f5d9190614ec4565b506060820151816003019081610f739190614ec4565b506080820151816004019081610f899190614ec4565b5060a0820151816005019081610f9f9190614ec4565b5060c0820151816006019081610fb59190614ec4565b5060e0820151816007019081610fcb9190614ec4565b50610100820151816008019081610fe29190614ec4565b50610120820151816009019081610ff99190614ec4565b5061014082015181600a0155905050819950505050505050505050919050565b600d6020528060005260406000206000915090508054611038906147f7565b80601f0160208091040260200160405190810160405280929190818152602001828054611064906147f7565b80156110b15780601f10611086576101008083540402835291602001916110b1565b820191906000526020600020905b81548152906001019060200180831161109457829003601f168201915b505050505081565b6000600880549050905090565b6110d76110d1612430565b82612654565b611116576040517f08c379a000000000000000000000000000000000000000000000000000000000815260040161110d90615008565b60405180910390fd5b6111218383836126e9565b505050565b6000600a6000838152602001908152602001600020600101549050919050565b3073ffffffffffffffffffffffffffffffffffffffff16630bada385826040518263ffffffff1660e01b815260040161117f919061419a565b6000604051808303816000875af115801561119e573d6000803e3d6000fd5b505050506040513d6000823e3d601f19601f820116820180604052508101906111c7919061523e565b5050565b6111d482611126565b6111dd816129e2565b6111e783836129f6565b505050565b60006111f7836114a2565b8210611238576040517f08c379a000000000000000000000000000000000000000000000000000000000815260040161122f906152f9565b60405180910390fd5b600660008473ffffffffffffffffffffffffffffffffffffffff1673ffffffffffffffffffffffffffffffffffffffff168152602001908152602001600020600083815260200190815260200160002054905092915050565b611299612430565b73ffffffffffffffffffffffffffffffffffffffff168173ffffffffffffffffffffffffffffffffffffffff1614611306576040517f08c379a00000000000000000000000000000000000000000000000000000000081526004016112fd9061538b565b60405180910390fd5b6113108282612ad7565b5050565b61132f83838360405180602001604052806000815250611ca1565b505050565b7f73e573f9566d61418a34d5de3ff49360f9c51fec37f7486551670290f6285dab81565b60006113626110b9565b82106113a3576040517f08c379a000000000000000000000000000000000000000000000000000000000815260040161139a9061541d565b60405180910390fd5b600882815481106113b7576113b6614b57565b5b90600052602060002001549050919050565b6000806113d583612bb9565b9050600073ffffffffffffffffffffffffffffffffffffffff168173ffffffffffffffffffffffffffffffffffffffff1603611446576040517f08c379a000000000000000000000000000000000000000000000000000000000815260040161143d90615489565b60405180910390fd5b80915050919050565b7f73e573f9566d61418a34d5de3ff49360f9c51fec37f7486551670290f6285dab611479816129e2565b81600c6000858152602001908152602001600020600801908161149c9190614ec4565b50505050565b60008073ffffffffffffffffffffffffffffffffffffffff168273ffffffffffffffffffffffffffffffffffffffff1603611512576040517f08c379a00000000000000000000000000000000000000000000000000000000081526004016115099061551b565b60405180910390fd5b600360008373ffffffffffffffffffffffffffffffffffffffff1673ffffffffffffffffffffffffffffffffffffffff168152602001908152602001600020549050919050565b7f73e573f9566d61418a34d5de3ff49360f9c51fec37f7486551670290f6285dab611583816129e2565b81600c600085815260200190815260200160002060060190816115a69190614ec4565b50505050565b7f73e573f9566d61418a34d5de3ff49360f9c51fec37f7486551670290f6285dab6115d6816129e2565b81600c600085815260200190815260200160002060010160008282829054906101000a900463ffffffff1661160b919061553b565b92506101000a81548163ffffffff021916908363ffffffff160217905550505050565b7f73e573f9566d61418a34d5de3ff49360f9c51fec37f7486551670290f6285dab611658816129e2565b81600c6000858152602001908152602001600020600901908161167b9190614ec4565b50505050565b6000600a600084815260200190815260200160002060000160008373ffffffffffffffffffffffffffffffffffffffff1673ffffffffffffffffffffffffffffffffffffffff16815260200190815260200160002060009054906101000a900460ff16905092915050565b6060600180546116fb906147f7565b80601f0160208091040260200160405190810160405280929190818152602001828054611727906147f7565b80156117745780601f1061174957610100808354040283529160200191611774565b820191906000526020600020905b81548152906001019060200180831161175757829003601f168201915b5050505050905090565b7f73e573f9566d61418a34d5de3ff49360f9c51fec37f7486551670290f6285dab6117a8816129e2565b81600c6000858152602001908152602001600020600a0160008282546117ce9190615573565b92505081905550505050565b6000801b81565b6117f36117ec612430565b8383612bf6565b5050565b600c6020528060005260406000206000915090508060000154908060010160009054906101000a900463ffffffff1690806002018054611836906147f7565b80601f0160208091040260200160405190810160405280929190818152602001828054611862906147f7565b80156118af5780601f10611884576101008083540402835291602001916118af565b820191906000526020600020905b81548152906001019060200180831161189257829003601f168201915b5050505050908060030180546118c4906147f7565b80601f01602080910402602001604051908101604052809291908181526020018280546118f0906147f7565b801561193d5780601f106119125761010080835404028352916020019161193d565b820191906000526020600020905b81548152906001019060200180831161192057829003601f168201915b505050505090806004018054611952906147f7565b80601f016020809104026020016040519081016040528092919081815260200182805461197e906147f7565b80156119cb5780601f106119a0576101008083540402835291602001916119cb565b820191906000526020600020905b8154815290600101906020018083116119ae57829003601f168201915b5050505050908060050180546119e0906147f7565b80601f0160208091040260200160405190810160405280929190818152602001828054611a0c906147f7565b8015611a595780601f10611a2e57610100808354040283529160200191611a59565b820191906000526020600020905b815481529060010190602001808311611a3c57829003601f168201915b505050505090806006018054611a6e906147f7565b80601f0160208091040260200160405190810160405280929190818152602001828054611a9a906147f7565b8015611ae75780601f10611abc57610100808354040283529160200191611ae7565b820191906000526020600020905b815481529060010190602001808311611aca57829003601f168201915b505050505090806007018054611afc906147f7565b80601f0160208091040260200160405190810160405280929190818152602001828054611b28906147f7565b8015611b755780601f10611b4a57610100808354040283529160200191611b75565b820191906000526020600020905b815481529060010190602001808311611b5857829003601f168201915b505050505090806008018054611b8a906147f7565b80601f0160208091040260200160405190810160405280929190818152602001828054611bb6906147f7565b8015611c035780601f10611bd857610100808354040283529160200191611c03565b820191906000526020600020905b815481529060010190602001808311611be657829003601f168201915b505050505090806009018054611c18906147f7565b80601f0160208091040260200160405190810160405280929190818152602001828054611c44906147f7565b8015611c915780601f10611c6657610100808354040283529160200191611c91565b820191906000526020600020905b815481529060010190602001808311611c7457829003601f168201915b50505050509080600a015490508b565b611cb2611cac612430565b83612654565b611cf1576040517f08c379a0000000000000000000000000000000000000000000000000000000008152600401611ce890615008565b60405180910390fd5b611cfd84848484612d62565b50505050565b6060611d0e826123e5565b6000611d18612dbe565b90506000815111611d385760405180602001604052806000815250611d63565b80611d4284612dd5565b604051602001611d539291906155a7565b6040516020818303038152906040525b915050919050565b611d7482611126565b611d7d816129e2565b611d878383612ad7565b505050565b7f73e573f9566d61418a34d5de3ff49360f9c51fec37f7486551670290f6285dab611db6816129e2565b81600c60008581526020019081526020016000206007019081611dd99190614ec4565b50505050565b6000600560008473ffffffffffffffffffffffffffffffffffffffff1673ffffffffffffffffffffffffffffffffffffffff16815260200190815260200160002060008373ffffffffffffffffffffffffffffffffffffffff1673ffffffffffffffffffffffffffffffffffffffff16815260200190815260200160002060009054906101000a900460ff16905092915050565b611e7b613c25565b600c600083815260200190815260200160002060405180610160016040529081600082015481526020016001820160009054906101000a900463ffffffff1663ffffffff1663ffffffff168152602001600282018054611eda906147f7565b80601f0160208091040260200160405190810160405280929190818152602001828054611f06906147f7565b8015611f535780601f10611f2857610100808354040283529160200191611f53565b820191906000526020600020905b815481529060010190602001808311611f3657829003601f168201915b50505050508152602001600382018054611f6c906147f7565b80601f0160208091040260200160405190810160405280929190818152602001828054611f98906147f7565b8015611fe55780601f10611fba57610100808354040283529160200191611fe5565b820191906000526020600020905b815481529060010190602001808311611fc857829003601f168201915b50505050508152602001600482018054611ffe906147f7565b80601f016020809104026020016040519081016040528092919081815260200182805461202a906147f7565b80156120775780601f1061204c57610100808354040283529160200191612077565b820191906000526020600020905b81548152906001019060200180831161205a57829003601f168201915b50505050508152602001600582018054612090906147f7565b80601f01602080910402602001604051908101604052809291908181526020018280546120bc906147f7565b80156121095780601f106120de57610100808354040283529160200191612109565b820191906000526020600020905b8154815290600101906020018083116120ec57829003601f168201915b50505050508152602001600682018054612122906147f7565b80601f016020809104026020016040519081016040528092919081815260200182805461214e906147f7565b801561219b5780601f106121705761010080835404028352916020019161219b565b820191906000526020600020905b81548152906001019060200180831161217e57829003601f168201915b505050505081526020016007820180546121b4906147f7565b80601f01602080910402602001604051908101604052809291908181526020018280546121e0906147f7565b801561222d5780601f106122025761010080835404028352916020019161222d565b820191906000526020600020905b81548152906001019060200180831161221057829003601f168201915b50505050508152602001600882018054612246906147f7565b80601f0160208091040260200160405190810160405280929190818152602001828054612272906147f7565b80156122bf5780601f10612294576101008083540402835291602001916122bf565b820191906000526020600020905b8154815290600101906020018083116122a257829003601f168201915b505050505081526020016009820180546122d8906147f7565b80601f0160208091040260200160405190810160405280929190818152602001828054612304906147f7565b80156123515780601f1061232657610100808354040283529160200191612351565b820191906000526020600020905b81548152906001019060200180831161233457829003601f168201915b50505050508152602001600a820154815250509050919050565b60007f7965db0b000000000000000000000000000000000000000000000000000000007bffffffffffffffffffffffffffffffffffffffffffffffffffffffff1916827bffffffffffffffffffffffffffffffffffffffffffffffffffffffff191614806123de57506123dd82612ea3565b5b9050919050565b6123ee81612f1d565b61242d576040517f08c379a000000000000000000000000000000000000000000000000000000000815260040161242490615489565b60405180910390fd5b50565b600033905090565b816004600083815260200190815260200160002060006101000a81548173ffffffffffffffffffffffffffffffffffffffff021916908373ffffffffffffffffffffffffffffffffffffffff160217905550808273ffffffffffffffffffffffffffffffffffffffff166124ab836113c9565b73ffffffffffffffffffffffffffffffffffffffff167f8c5be1e5ebec7d5bd14f71427d1e84f3dd0314c0f7b2291e5b200ac8c7c3b92560405160405180910390a45050565b606060008251036125135760405180602001604052806000815250905061264f565b6000604051806060016040528060408152602001615ba060409139905060006003600285516125429190615573565b61254c91906155cb565b600461255891906155fc565b67ffffffffffffffff811115612571576125706142ab565b5b6040519080825280601f01601f1916602001820160405280156125a35781602001600182028036833780820191505090505b509050600182016020820185865187015b8082101561260f576003820191508151603f8160121c168501518453600184019350603f81600c1c168501518453600184019350603f8160061c168501518453600184019350603f81168501518453600184019350506125b4565b505060038651066001811461262b576002811461263e57612646565b603d6001830353603d6002830353612646565b603d60018303535b50505080925050505b919050565b600080612660836113c9565b90508073ffffffffffffffffffffffffffffffffffffffff168473ffffffffffffffffffffffffffffffffffffffff1614806126a257506126a18185611ddf565b5b806126e057508373ffffffffffffffffffffffffffffffffffffffff166126c88461085e565b73ffffffffffffffffffffffffffffffffffffffff16145b91505092915050565b8273ffffffffffffffffffffffffffffffffffffffff16612709826113c9565b73ffffffffffffffffffffffffffffffffffffffff161461275f576040517f08c379a0000000000000000000000000000000000000000000000000000000008152600401612756906156b0565b60405180910390fd5b600073ffffffffffffffffffffffffffffffffffffffff168273ffffffffffffffffffffffffffffffffffffffff16036127ce576040517f08c379a00000000000000000000000000000000000000000000000000000000081526004016127c590615742565b60405180910390fd5b6127db8383836001612f5e565b8273ffffffffffffffffffffffffffffffffffffffff166127fb826113c9565b73ffffffffffffffffffffffffffffffffffffffff1614612851576040517f08c379a0000000000000000000000000000000000000000000000000000000008152600401612848906156b0565b60405180910390fd5b6004600082815260200190815260200160002060006101000a81549073ffffffffffffffffffffffffffffffffffffffff02191690556001600360008573ffffffffffffffffffffffffffffffffffffffff1673ffffffffffffffffffffffffffffffffffffffff168152602001908152602001600020600082825403925050819055506001600360008473ffffffffffffffffffffffffffffffffffffffff1673ffffffffffffffffffffffffffffffffffffffff16815260200190815260200160002060008282540192505081905550816002600083815260200190815260200160002060006101000a81548173ffffffffffffffffffffffffffffffffffffffff021916908373ffffffffffffffffffffffffffffffffffffffff160217905550808273ffffffffffffffffffffffffffffffffffffffff168473ffffffffffffffffffffffffffffffffffffffff167fddf252ad1be2c89b69c2b068fc378daa952ba7f163c4a11628f55a4df523b3ef60405160405180910390a46129dd83838360016130bc565b505050565b6129f3816129ee612430565b6130c2565b50565b612a008282611681565b612ad3576001600a600084815260200190815260200160002060000160008373ffffffffffffffffffffffffffffffffffffffff1673ffffffffffffffffffffffffffffffffffffffff16815260200190815260200160002060006101000a81548160ff021916908315150217905550612a78612430565b73ffffffffffffffffffffffffffffffffffffffff168173ffffffffffffffffffffffffffffffffffffffff16837f2f8788117e7eff1d82e926ec794901d17c78024a50270940304540a733656f0d60405160405180910390a45b5050565b612ae18282611681565b15612bb5576000600a600084815260200190815260200160002060000160008373ffffffffffffffffffffffffffffffffffffffff1673ffffffffffffffffffffffffffffffffffffffff16815260200190815260200160002060006101000a81548160ff021916908315150217905550612b5a612430565b73ffffffffffffffffffffffffffffffffffffffff168173ffffffffffffffffffffffffffffffffffffffff16837ff6391f5c32d9c69d2a47ea670b442974b53935d1edc7fd64eb21e047a839171b60405160405180910390a45b5050565b60006002600083815260200190815260200160002060009054906101000a900473ffffffffffffffffffffffffffffffffffffffff169050919050565b8173ffffffffffffffffffffffffffffffffffffffff168373ffffffffffffffffffffffffffffffffffffffff1603612c64576040517f08c379a0000000000000000000000000000000000000000000000000000000008152600401612c5b906157ae565b60405180910390fd5b80600560008573ffffffffffffffffffffffffffffffffffffffff1673ffffffffffffffffffffffffffffffffffffffff16815260200190815260200160002060008473ffffffffffffffffffffffffffffffffffffffff1673ffffffffffffffffffffffffffffffffffffffff16815260200190815260200160002060006101000a81548160ff0219169083151502179055508173ffffffffffffffffffffffffffffffffffffffff168373ffffffffffffffffffffffffffffffffffffffff167f17307eab39ab6107e8899845ad3d59bd9653f200f220920489ca2b5937696c3183604051612d559190613d39565b60405180910390a3505050565b612d6d8484846126e9565b612d7984848484613147565b612db8576040517f08c379a0000000000000000000000000000000000000000000000000000000008152600401612daf90615840565b60405180910390fd5b50505050565b606060405180602001604052806000815250905090565b606060006001612de4846132ce565b01905060008167ffffffffffffffff811115612e0357612e026142ab565b5b6040519080825280601f01601f191660200182016040528015612e355781602001600182028036833780820191505090505b509050600082602001820190505b600115612e98578080600190039150507f3031323334353637383961626364656600000000000000000000000000000000600a86061a8153600a8581612e8c57612e8b614af7565b5b04945060008503612e43575b819350505050919050565b60007f780e9d63000000000000000000000000000000000000000000000000000000007bffffffffffffffffffffffffffffffffffffffffffffffffffffffff1916827bffffffffffffffffffffffffffffffffffffffffffffffffffffffff19161480612f165750612f1582613421565b5b9050919050565b60008073ffffffffffffffffffffffffffffffffffffffff16612f3f83612bb9565b73ffffffffffffffffffffffffffffffffffffffff1614159050919050565b612f6a84848484613503565b6001811115612fae576040517f08c379a0000000000000000000000000000000000000000000000000000000008152600401612fa5906158d2565b60405180910390fd5b6000829050600073ffffffffffffffffffffffffffffffffffffffff168573ffffffffffffffffffffffffffffffffffffffff1603612ff557612ff081613629565b613034565b8373ffffffffffffffffffffffffffffffffffffffff168573ffffffffffffffffffffffffffffffffffffffff1614613033576130328582613672565b5b5b600073ffffffffffffffffffffffffffffffffffffffff168473ffffffffffffffffffffffffffffffffffffffff160361307657613071816137df565b6130b5565b8473ffffffffffffffffffffffffffffffffffffffff168473ffffffffffffffffffffffffffffffffffffffff16146130b4576130b384826138b0565b5b5b5050505050565b50505050565b6130cc8282611681565b613143576130d98161392f565b6130e78360001c602061395c565b6040516020016130f892919061598a565b6040516020818303038152906040526040517f08c379a000000000000000000000000000000000000000000000000000000000815260040161313a9190613eca565b60405180910390fd5b5050565b60006131688473ffffffffffffffffffffffffffffffffffffffff16613b98565b156132c1578373ffffffffffffffffffffffffffffffffffffffff1663150b7a02613191612430565b8786866040518563ffffffff1660e01b81526004016131b39493929190615a19565b6020604051808303816000875af19250505080156131ef57506040513d601f19601f820116820180604052508101906131ec9190615a7a565b60015b613271573d806000811461321f576040519150601f19603f3d011682016040523d82523d6000602084013e613224565b606091505b506000815103613269576040517f08c379a000000000000000000000000000000000000000000000000000000000815260040161326090615840565b60405180910390fd5b805181602001fd5b63150b7a0260e01b7bffffffffffffffffffffffffffffffffffffffffffffffffffffffff1916817bffffffffffffffffffffffffffffffffffffffffffffffffffffffff1916149150506132c6565b600190505b949350505050565b600080600090507a184f03e93ff9f4daa797ed6e38ed64bf6a1f010000000000000000831061332c577a184f03e93ff9f4daa797ed6e38ed64bf6a1f010000000000000000838161332257613321614af7565b5b0492506040810190505b6d04ee2d6d415b85acef81000000008310613369576d04ee2d6d415b85acef8100000000838161335f5761335e614af7565b5b0492506020810190505b662386f26fc10000831061339857662386f26fc10000838161338e5761338d614af7565b5b0492506010810190505b6305f5e10083106133c1576305f5e10083816133b7576133b6614af7565b5b0492506008810190505b61271083106133e65761271083816133dc576133db614af7565b5b0492506004810190505b6064831061340957606483816133ff576133fe614af7565b5b0492506002810190505b600a8310613418576001810190505b80915050919050565b60007f80ac58cd000000000000000000000000000000000000000000000000000000007bffffffffffffffffffffffffffffffffffffffffffffffffffffffff1916827bffffffffffffffffffffffffffffffffffffffffffffffffffffffff191614806134ec57507f5b5e139f000000000000000000000000000000000000000000000000000000007bffffffffffffffffffffffffffffffffffffffffffffffffffffffff1916827bffffffffffffffffffffffffffffffffffffffffffffffffffffffff1916145b806134fc57506134fb82613bbb565b5b9050919050565b600181111561362357600073ffffffffffffffffffffffffffffffffffffffff168473ffffffffffffffffffffffffffffffffffffffff16146135975780600360008673ffffffffffffffffffffffffffffffffffffffff1673ffffffffffffffffffffffffffffffffffffffff168152602001908152602001600020600082825461358f9190615aa7565b925050819055505b600073ffffffffffffffffffffffffffffffffffffffff168373ffffffffffffffffffffffffffffffffffffffff16146136225780600360008573ffffffffffffffffffffffffffffffffffffffff1673ffffffffffffffffffffffffffffffffffffffff168152602001908152602001600020600082825461361a9190615573565b925050819055505b5b50505050565b6008805490506009600083815260200190815260200160002081905550600881908060018154018082558091505060019003906000526020600020016000909190919091505550565b6000600161367f846114a2565b6136899190615aa7565b905060006007600084815260200190815260200160002054905081811461376e576000600660008673ffffffffffffffffffffffffffffffffffffffff1673ffffffffffffffffffffffffffffffffffffffff168152602001908152602001600020600084815260200190815260200160002054905080600660008773ffffffffffffffffffffffffffffffffffffffff1673ffffffffffffffffffffffffffffffffffffffff168152602001908152602001600020600084815260200190815260200160002081905550816007600083815260200190815260200160002081905550505b6007600084815260200190815260200160002060009055600660008573ffffffffffffffffffffffffffffffffffffffff1673ffffffffffffffffffffffffffffffffffffffff16815260200190815260200160002060008381526020019081526020016000206000905550505050565b600060016008805490506137f39190615aa7565b905060006009600084815260200190815260200160002054905060006008838154811061382357613822614b57565b5b90600052602060002001549050806008838154811061384557613844614b57565b5b90600052602060002001819055508160096000838152602001908152602001600020819055506009600085815260200190815260200160002060009055600880548061389457613893615adb565b5b6001900381819060005260206000200160009055905550505050565b60006138bb836114a2565b905081600660008573ffffffffffffffffffffffffffffffffffffffff1673ffffffffffffffffffffffffffffffffffffffff168152602001908152602001600020600083815260200190815260200160002081905550806007600084815260200190815260200160002081905550505050565b60606139558273ffffffffffffffffffffffffffffffffffffffff16601460ff1661395c565b9050919050565b60606000600283600261396f91906155fc565b6139799190615573565b67ffffffffffffffff811115613992576139916142ab565b5b6040519080825280601f01601f1916602001820160405280156139c45781602001600182028036833780820191505090505b5090507f3000000000000000000000000000000000000000000000000000000000000000816000815181106139fc576139fb614b57565b5b60200101907effffffffffffffffffffffffffffffffffffffffffffffffffffffffffffff1916908160001a9053507f780000000000000000000000000000000000000000000000000000000000000081600181518110613a6057613a5f614b57565b5b60200101907effffffffffffffffffffffffffffffffffffffffffffffffffffffffffffff1916908160001a90535060006001846002613aa091906155fc565b613aaa9190615573565b90505b6001811115613b4a577f3031323334353637383961626364656600000000000000000000000000000000600f861660108110613aec57613aeb614b57565b5b1a60f81b828281518110613b0357613b02614b57565b5b60200101907effffffffffffffffffffffffffffffffffffffffffffffffffffffffffffff1916908160001a905350600485901c945080613b4390615b0a565b9050613aad565b5060008414613b8e576040517f08c379a0000000000000000000000000000000000000000000000000000000008152600401613b8590615b7f565b60405180910390fd5b8091505092915050565b6000808273ffffffffffffffffffffffffffffffffffffffff163b119050919050565b60007f01ffc9a7000000000000000000000000000000000000000000000000000000007bffffffffffffffffffffffffffffffffffffffffffffffffffffffff1916827bffffffffffffffffffffffffffffffffffffffffffffffffffffffff1916149050919050565b60405180610160016040528060008152602001600063ffffffff1681526020016060815260200160608152602001606081526020016060815260200160608152602001606081526020016060815260200160608152602001600081525090565b6000604051905090565b600080fd5b600080fd5b60007fffffffff0000000000000000000000000000000000000000000000000000000082169050919050565b613cce81613c99565b8114613cd957600080fd5b50565b600081359050613ceb81613cc5565b92915050565b600060208284031215613d0757613d06613c8f565b5b6000613d1584828501613cdc565b91505092915050565b60008115159050919050565b613d3381613d1e565b82525050565b6000602082019050613d4e6000830184613d2a565b92915050565b6000819050919050565b613d6781613d54565b82525050565b6000602082019050613d826000830184613d5e565b92915050565b6000819050919050565b613d9b81613d88565b8114613da657600080fd5b50565b600081359050613db881613d92565b92915050565b600063ffffffff82169050919050565b613dd781613dbe565b8114613de257600080fd5b50565b600081359050613df481613dce565b92915050565b60008060408385031215613e1157613e10613c8f565b5b6000613e1f85828601613da9565b9250506020613e3085828601613de5565b9150509250929050565b600081519050919050565b600082825260208201905092915050565b60005b83811015613e74578082015181840152602081019050613e59565b60008484015250505050565b6000601f19601f8301169050919050565b6000613e9c82613e3a565b613ea68185613e45565b9350613eb6818560208601613e56565b613ebf81613e80565b840191505092915050565b60006020820190508181036000830152613ee48184613e91565b905092915050565b600060208284031215613f0257613f01613c8f565b5b6000613f1084828501613da9565b91505092915050565b600073ffffffffffffffffffffffffffffffffffffffff82169050919050565b6000613f4482613f19565b9050919050565b613f5481613f39565b82525050565b6000602082019050613f6f6000830184613f4b565b92915050565b613f7e81613f39565b8114613f8957600080fd5b50565b600081359050613f9b81613f75565b92915050565b60008060408385031215613fb857613fb7613c8f565b5b6000613fc685828601613f8c565b9250506020613fd785828601613da9565b9150509250929050565b613fea81613d88565b82525050565b613ff981613dbe565b82525050565b600082825260208201905092915050565b600061401b82613e3a565b6140258185613fff565b9350614035818560208601613e56565b61403e81613e80565b840191505092915050565b6000610160830160008301516140626000860182613fe1565b5060208301516140756020860182613ff0565b506040830151848203604086015261408d8282614010565b915050606083015184820360608601526140a78282614010565b915050608083015184820360808601526140c18282614010565b91505060a083015184820360a08601526140db8282614010565b91505060c083015184820360c08601526140f58282614010565b91505060e083015184820360e086015261410f8282614010565b91505061010083015184820361010086015261412b8282614010565b9150506101208301518482036101208601526141478282614010565b91505061014083015161415e610140860182613fe1565b508091505092915050565b600060208201905081810360008301526141838184614049565b905092915050565b61419481613d88565b82525050565b60006020820190506141af600083018461418b565b92915050565b6000806000606084860312156141ce576141cd613c8f565b5b60006141dc86828701613f8c565b93505060206141ed86828701613f8c565b92505060406141fe86828701613da9565b9150509250925092565b61421181613d54565b811461421c57600080fd5b50565b60008135905061422e81614208565b92915050565b60006020828403121561424a57614249613c8f565b5b60006142588482850161421f565b91505092915050565b6000806040838503121561427857614277613c8f565b5b60006142868582860161421f565b925050602061429785828601613f8c565b9150509250929050565b600080fd5b600080fd5b7f4e487b7100000000000000000000000000000000000000000000000000000000600052604160045260246000fd5b6142e382613e80565b810181811067ffffffffffffffff82111715614302576143016142ab565b5b80604052505050565b6000614315613c85565b905061432182826142da565b919050565b600067ffffffffffffffff821115614341576143406142ab565b5b61434a82613e80565b9050602081019050919050565b82818337600083830152505050565b600061437961437484614326565b61430b565b905082815260208101848484011115614395576143946142a6565b5b6143a0848285614357565b509392505050565b600082601f8301126143bd576143bc6142a1565b5b81356143cd848260208601614366565b91505092915050565b600080604083850312156143ed576143ec613c8f565b5b60006143fb85828601613da9565b925050602083013567ffffffffffffffff81111561441c5761441b613c94565b5b614428858286016143a8565b9150509250929050565b60006020828403121561444857614447613c8f565b5b600061445684828501613f8c565b91505092915050565b6000806040838503121561447657614475613c8f565b5b600061448485828601613da9565b925050602061449585828601613da9565b9150509250929050565b6144a881613d1e565b81146144b357600080fd5b50565b6000813590506144c58161449f565b92915050565b600080604083850312156144e2576144e1613c8f565b5b60006144f085828601613f8c565b9250506020614501858286016144b6565b9150509250929050565b61451481613dbe565b82525050565b600061016082019050614530600083018e61418b565b61453d602083018d61450b565b818103604083015261454f818c613e91565b90508181036060830152614563818b613e91565b90508181036080830152614577818a613e91565b905081810360a083015261458b8189613e91565b905081810360c083015261459f8188613e91565b905081810360e08301526145b38187613e91565b90508181036101008301526145c88186613e91565b90508181036101208301526145dd8185613e91565b90506145ed61014083018461418b565b9c9b505050505050505050505050565b600067ffffffffffffffff821115614618576146176142ab565b5b61462182613e80565b9050602081019050919050565b600061464161463c846145fd565b61430b565b90508281526020810184848401111561465d5761465c6142a6565b5b614668848285614357565b509392505050565b600082601f830112614685576146846142a1565b5b813561469584826020860161462e565b91505092915050565b600080600080608085870312156146b8576146b7613c8f565b5b60006146c687828801613f8c565b94505060206146d787828801613f8c565b93505060406146e887828801613da9565b925050606085013567ffffffffffffffff81111561470957614708613c94565b5b61471587828801614670565b91505092959194509250565b6000806040838503121561473857614737613c8f565b5b600061474685828601613f8c565b925050602061475785828601613f8c565b9150509250929050565b7f4e487b7100000000000000000000000000000000000000000000000000000000600052601160045260246000fd5b600061479b82613dbe565b91506147a683613dbe565b9250828201905063ffffffff8111156147c2576147c1614761565b5b92915050565b7f4e487b7100000000000000000000000000000000000000000000000000000000600052602260045260246000fd5b6000600282049050600182168061480f57607f821691505b602082108103614822576148216147c8565b5b50919050565b7f4552433732313a20617070726f76616c20746f2063757272656e74206f776e6560008201527f7200000000000000000000000000000000000000000000000000000000000000602082015250565b6000614884602183613e45565b915061488f82614828565b604082019050919050565b600060208201905081810360008301526148b381614877565b9050919050565b7f4552433732313a20617070726f76652063616c6c6572206973206e6f7420746f60008201527f6b656e206f776e6572206f7220617070726f76656420666f7220616c6c000000602082015250565b6000614916603d83613e45565b9150614921826148ba565b604082019050919050565b6000602082019050818103600083015261494581614909565b9050919050565b600080fd5b600080fd5b600061496961496484614326565b61430b565b905082815260208101848484011115614985576149846142a6565b5b614990848285613e56565b509392505050565b600082601f8301126149ad576149ac6142a1565b5b81516149bd848260208601614956565b91505092915050565b6000608082840312156149dc576149db61494c565b5b6149e6608061430b565b9050600082015167ffffffffffffffff811115614a0657614a05614951565b5b614a1284828501614998565b600083015250602082015167ffffffffffffffff811115614a3657614a35614951565b5b614a4284828501614998565b602083015250604082015167ffffffffffffffff811115614a6657614a65614951565b5b614a7284828501614998565b604083015250606082015167ffffffffffffffff811115614a9657614a95614951565b5b614aa284828501614998565b60608301525092915050565b600060208284031215614ac457614ac3613c8f565b5b600082015167ffffffffffffffff811115614ae257614ae1613c94565b5b614aee848285016149c6565b91505092915050565b7f4e487b7100000000000000000000000000000000000000000000000000000000600052601260045260246000fd5b6000614b3182613d88565b9150614b3c83613d88565b925082614b4c57614b4b614af7565b5b828206905092915050565b7f4e487b7100000000000000000000000000000000000000000000000000000000600052603260045260246000fd5b600081905092915050565b6000614b9c82613e3a565b614ba68185614b86565b9350614bb6818560208601613e56565b80840191505092915050565b7f2d00000000000000000000000000000000000000000000000000000000000000600082015250565b6000614bf8600183614b86565b9150614c0382614bc2565b600182019050919050565b6000614c1a8285614b91565b9150614c2582614beb565b9150614c318284614b91565b91508190509392505050565b7f2f00000000000000000000000000000000000000000000000000000000000000600082015250565b6000614c73600183614b86565b9150614c7e82614c3d565b600182019050919050565b6000614c958287614b91565b9150614ca082614c66565b9150614cac8286614b91565b9150614cb782614c66565b9150614cc38285614b91565b9150614cce82614c66565b9150614cda8284614b91565b915081905095945050505050565b6000604082019050614cfd600083018561418b565b8181036020830152614d0f8184613e91565b90509392505050565b60008190508160005260206000209050919050565b60006020601f8301049050919050565b600082821b905092915050565b600060088302614d7a7fffffffffffffffffffffffffffffffffffffffffffffffffffffffffffffffff82614d3d565b614d848683614d3d565b95508019841693508086168417925050509392505050565b6000819050919050565b6000614dc1614dbc614db784613d88565b614d9c565b613d88565b9050919050565b6000819050919050565b614ddb83614da6565b614def614de782614dc8565b848454614d4a565b825550505050565b600090565b614e04614df7565b614e0f818484614dd2565b505050565b5b81811015614e3357614e28600082614dfc565b600181019050614e15565b5050565b601f821115614e7857614e4981614d18565b614e5284614d2d565b81016020851015614e61578190505b614e75614e6d85614d2d565b830182614e14565b50505b505050565b600082821c905092915050565b6000614e9b60001984600802614e7d565b1980831691505092915050565b6000614eb48383614e8a565b9150826002028217905092915050565b614ecd82613e3a565b67ffffffffffffffff811115614ee657614ee56142ab565b5b614ef082546147f7565b614efb828285614e37565b600060209050601f831160018114614f2e5760008415614f1c578287015190505b614f268582614ea8565b865550614f8e565b601f198416614f3c86614d18565b60005b82811015614f6457848901518255600182019150602085019450602081019050614f3f565b86831015614f815784890151614f7d601f891682614e8a565b8355505b6001600288020188555050505b505050505050565b7f4552433732313a2063616c6c6572206973206e6f7420746f6b656e206f776e6560008201527f72206f7220617070726f76656400000000000000000000000000000000000000602082015250565b6000614ff2602d83613e45565b9150614ffd82614f96565b604082019050919050565b6000602082019050818103600083015261502181614fe5565b9050919050565b60008151905061503781613d92565b92915050565b60008151905061504c81613dce565b92915050565b600061016082840312156150695761506861494c565b5b61507461016061430b565b9050600061508484828501615028565b60008301525060206150988482850161503d565b602083015250604082015167ffffffffffffffff8111156150bc576150bb614951565b5b6150c884828501614998565b604083015250606082015167ffffffffffffffff8111156150ec576150eb614951565b5b6150f884828501614998565b606083015250608082015167ffffffffffffffff81111561511c5761511b614951565b5b61512884828501614998565b60808301525060a082015167ffffffffffffffff81111561514c5761514b614951565b5b61515884828501614998565b60a08301525060c082015167ffffffffffffffff81111561517c5761517b614951565b5b61518884828501614998565b60c08301525060e082015167ffffffffffffffff8111156151ac576151ab614951565b5b6151b884828501614998565b60e08301525061010082015167ffffffffffffffff8111156151dd576151dc614951565b5b6151e984828501614998565b6101008301525061012082015167ffffffffffffffff81111561520f5761520e614951565b5b61521b84828501614998565b6101208301525061014061523184828501615028565b6101408301525092915050565b60006020828403121561525457615253613c8f565b5b600082015167ffffffffffffffff81111561527257615271613c94565b5b61527e84828501615052565b91505092915050565b7f455243373231456e756d657261626c653a206f776e657220696e646578206f7560008201527f74206f6620626f756e6473000000000000000000000000000000000000000000602082015250565b60006152e3602b83613e45565b91506152ee82615287565b604082019050919050565b60006020820190508181036000830152615312816152d6565b9050919050565b7f416363657373436f6e74726f6c3a2063616e206f6e6c792072656e6f756e636560008201527f20726f6c657320666f722073656c660000000000000000000000000000000000602082015250565b6000615375602f83613e45565b915061538082615319565b604082019050919050565b600060208201905081810360008301526153a481615368565b9050919050565b7f455243373231456e756d657261626c653a20676c6f62616c20696e646578206f60008201527f7574206f6620626f756e64730000000000000000000000000000000000000000602082015250565b6000615407602c83613e45565b9150615412826153ab565b604082019050919050565b60006020820190508181036000830152615436816153fa565b9050919050565b7f4552433732313a20696e76616c696420746f6b656e2049440000000000000000600082015250565b6000615473601883613e45565b915061547e8261543d565b602082019050919050565b600060208201905081810360008301526154a281615466565b9050919050565b7f4552433732313a2061646472657373207a65726f206973206e6f74206120766160008201527f6c6964206f776e65720000000000000000000000000000000000000000000000602082015250565b6000615505602983613e45565b9150615510826154a9565b604082019050919050565b60006020820190508181036000830152615534816154f8565b9050919050565b600061554682613dbe565b915061555183613dbe565b9250828203905063ffffffff81111561556d5761556c614761565b5b92915050565b600061557e82613d88565b915061558983613d88565b92508282019050808211156155a1576155a0614761565b5b92915050565b60006155b38285614b91565b91506155bf8284614b91565b91508190509392505050565b60006155d682613d88565b91506155e183613d88565b9250826155f1576155f0614af7565b5b828204905092915050565b600061560782613d88565b915061561283613d88565b925082820261562081613d88565b9150828204841483151761563757615636614761565b5b5092915050565b7f4552433732313a207472616e736665722066726f6d20696e636f72726563742060008201527f6f776e6572000000000000000000000000000000000000000000000000000000602082015250565b600061569a602583613e45565b91506156a58261563e565b604082019050919050565b600060208201905081810360008301526156c98161568d565b9050919050565b7f4552433732313a207472616e7366657220746f20746865207a65726f2061646460008201527f7265737300000000000000000000000000000000000000000000000000000000602082015250565b600061572c602483613e45565b9150615737826156d0565b604082019050919050565b6000602082019050818103600083015261575b8161571f565b9050919050565b7f4552433732313a20617070726f766520746f2063616c6c657200000000000000600082015250565b6000615798601983613e45565b91506157a382615762565b602082019050919050565b600060208201905081810360008301526157c78161578b565b9050919050565b7f4552433732313a207472616e7366657220746f206e6f6e20455243373231526560008201527f63656976657220696d706c656d656e7465720000000000000000000000000000602082015250565b600061582a603283613e45565b9150615835826157ce565b604082019050919050565b600060208201905081810360008301526158598161581d565b9050919050565b7f455243373231456e756d657261626c653a20636f6e736563757469766520747260008201527f616e7366657273206e6f7420737570706f727465640000000000000000000000602082015250565b60006158bc603583613e45565b91506158c782615860565b604082019050919050565b600060208201905081810360008301526158eb816158af565b9050919050565b7f416363657373436f6e74726f6c3a206163636f756e7420000000000000000000600082015250565b6000615928601783614b86565b9150615933826158f2565b601782019050919050565b7f206973206d697373696e6720726f6c6520000000000000000000000000000000600082015250565b6000615974601183614b86565b915061597f8261593e565b601182019050919050565b60006159958261591b565b91506159a18285614b91565b91506159ac82615967565b91506159b88284614b91565b91508190509392505050565b600081519050919050565b600082825260208201905092915050565b60006159eb826159c4565b6159f581856159cf565b9350615a05818560208601613e56565b615a0e81613e80565b840191505092915050565b6000608082019050615a2e6000830187613f4b565b615a3b6020830186613f4b565b615a48604083018561418b565b8181036060830152615a5a81846159e0565b905095945050505050565b600081519050615a7481613cc5565b92915050565b600060208284031215615a9057615a8f613c8f565b5b6000615a9e84828501615a65565b91505092915050565b6000615ab282613d88565b9150615abd83613d88565b9250828203905081811115615ad557615ad4614761565b5b92915050565b7f4e487b7100000000000000000000000000000000000000000000000000000000600052603160045260246000fd5b6000615b1582613d88565b915060008203615b2857615b27614761565b5b600182039050919050565b7f537472696e67733a20686578206c656e67746820696e73756666696369656e74600082015250565b6000615b69602083613e45565b9150615b7482615b33565b602082019050919050565b60006020820190508181036000830152615b9881615b5c565b905091905056fe4142434445464748494a4b4c4d4e4f505152535455565758595a6162636465666768696a6b6c6d6e6f707172737475767778797a303132333435363738392b2fa2646970667358221220cd7c4ddef42ebef53be9850cc2e21a4ff5f0fe5cf2603f8e0872ce6b084e49ac64736f6c63430008110033",
  "linkReferences": {},
  "deployedLinkReferences": {}
}