{
  "_format": "hh-sol-artifact-1",
  "contractName": "Metadata1",
  "sourceName": "contracts/Metadata1.sol",
  "abi": [
    {
      "inputs": [
        {
          "internalType": "address",
          "name": "admin",
          "type": "address"
        },
        {
          "internalType": "address",
          "name": "metadata2",
          "type": "address"
        }
      ],
      "stateMutability": "nonpayable",
      "type": "constructor"
    },
    {
      "anonymous": false,
      "inputs": [
        {
          "indexed": true,
          "internalType": "address",
          "name": "owner",
          "type": "address"
        },
        {
          "indexed": true,
          "internalType": "address",
          "name": "approved",
          "type": "address"
        },
        {
          "indexed": true,
          "internalType": "uint256",
          "name": "tokenId",
          "type": "uint256"
        }
      ],
      "name": "Approval",
      "type": "event"
    },
    {
      "anonymous": false,
      "inputs": [
        {
          "indexed": true,
          "internalType": "address",
          "name": "owner",
          "type": "address"
        },
        {
          "indexed": true,
          "internalType": "address",
          "name": "operator",
          "type": "address"
        },
        {
          "indexed": false,
          "internalType": "bool",
          "name": "approved",
          "type": "bool"
        }
      ],
      "name": "ApprovalForAll",
      "type": "event"
    },
    {
      "anonymous": false,
      "inputs": [
        {
          "indexed": true,
          "internalType": "bytes32",
          "name": "role",
          "type": "bytes32"
        },
        {
          "indexed": true,
          "internalType": "bytes32",
          "name": "previousAdminRole",
          "type": "bytes32"
        },
        {
          "indexed": true,
          "internalType": "bytes32",
          "name": "newAdminRole",
          "type": "bytes32"
        }
      ],
      "name": "RoleAdminChanged",
      "type": "event"
    },
    {
      "anonymous": false,
      "inputs": [
        {
          "indexed": true,
          "internalType": "bytes32",
          "name": "role",
          "type": "bytes32"
        },
        {
          "indexed": true,
          "internalType": "address",
          "name": "account",
          "type": "address"
        },
        {
          "indexed": true,
          "internalType": "address",
          "name": "sender",
          "type": "address"
        }
      ],
      "name": "RoleGranted",
      "type": "event"
    },
    {
      "anonymous": false,
      "inputs": [
        {
          "indexed": true,
          "internalType": "bytes32",
          "name": "role",
          "type": "bytes32"
        },
        {
          "indexed": true,
          "internalType": "address",
          "name": "account",
          "type": "address"
        },
        {
          "indexed": true,
          "internalType": "address",
          "name": "sender",
          "type": "address"
        }
      ],
      "name": "RoleRevoked",
      "type": "event"
    },
    {
      "anonymous": false,
      "inputs": [
        {
          "indexed": true,
          "internalType": "address",
          "name": "from",
          "type": "address"
        },
        {
          "indexed": true,
          "internalType": "address",
          "name": "to",
          "type": "address"
        },
        {
          "indexed": true,
          "internalType": "uint256",
          "name": "tokenId",
          "type": "uint256"
        }
      ],
      "name": "Transfer",
      "type": "event"
    },
    {
      "anonymous": false,
      "inputs": [
        {
          "indexed": false,
          "internalType": "uint256",
          "name": "",
          "type": "uint256"
        },
        {
          "components": [
            {
              "internalType": "uint256",
              "name": "id",
              "type": "uint256"
            },
            {
              "internalType": "uint32",
              "name": "spores",
              "type": "uint32"
            },
            {
              "internalType": "string",
              "name": "backgroundColor",
              "type": "string"
            },
            {
              "internalType": "string",
              "name": "head",
              "type": "string"
            },
            {
              "internalType": "string",
              "name": "eyes",
              "type": "string"
            },
            {
              "internalType": "string",
              "name": "mouth",
              "type": "string"
            },
            {
              "internalType": "string",
              "name": "element",
              "type": "string"
            },
            {
              "internalType": "string",
              "name": "weapon",
              "type": "string"
            },
            {
              "internalType": "string",
              "name": "armor",
              "type": "string"
            },
            {
              "internalType": "string",
              "name": "accessory",
              "type": "string"
            },
            {
              "internalType": "uint256",
              "name": "level",
              "type": "uint256"
            }
          ],
          "indexed": false,
          "internalType": "struct Metadata1.Mushroom",
          "name": "mushroom",
          "type": "tuple"
        }
      ],
      "name": "part1Got",
      "type": "event"
    },
    {
      "anonymous": false,
      "inputs": [
        {
          "indexed": false,
          "internalType": "uint256",
          "name": "tokenId",
          "type": "uint256"
        },
        {
          "indexed": false,
          "internalType": "string",
          "name": "part1",
          "type": "string"
        }
      ],
      "name": "part1Triggered",
      "type": "event"
    },
    {
      "anonymous": false,
      "inputs": [
        {
          "indexed": false,
          "internalType": "uint256",
          "name": "tokenId",
          "type": "uint256"
        },
        {
          "indexed": false,
          "internalType": "string",
          "name": "tokenURI",
          "type": "string"
        }
      ],
      "name": "tokenURIFound",
      "type": "event"
    },
    {
      "inputs": [],
      "name": "CONTRACT_ROLE",
      "outputs": [
        {
          "internalType": "bytes32",
          "name": "",
          "type": "bytes32"
        }
      ],
      "stateMutability": "view",
      "type": "function"
    },
    {
      "inputs": [],
      "name": "DEFAULT_ADMIN_ROLE",
      "outputs": [
        {
          "internalType": "bytes32",
          "name": "",
          "type": "bytes32"
        }
      ],
      "stateMutability": "view",
      "type": "function"
    },
    {
      "inputs": [],
      "name": "UPDATER_ROLE",
      "outputs": [
        {
          "internalType": "bytes32",
          "name": "",
          "type": "bytes32"
        }
      ],
      "stateMutability": "view",
      "type": "function"
    },
    {
      "inputs": [
        {
          "internalType": "uint256",
          "name": "",
          "type": "uint256"
        }
      ],
      "name": "_tokenURIs",
      "outputs": [
        {
          "internalType": "string",
          "name": "",
          "type": "string"
        }
      ],
      "stateMutability": "view",
      "type": "function"
    },
    {
      "inputs": [
        {
          "internalType": "address",
          "name": "to",
          "type": "address"
        },
        {
          "internalType": "uint256",
          "name": "tokenId",
          "type": "uint256"
        }
      ],
      "name": "approve",
      "outputs": [],
      "stateMutability": "nonpayable",
      "type": "function"
    },
    {
      "inputs": [
        {
          "internalType": "address",
          "name": "owner",
          "type": "address"
        }
      ],
      "name": "balanceOf",
      "outputs": [
        {
          "internalType": "uint256",
          "name": "",
          "type": "uint256"
        }
      ],
      "stateMutability": "view",
      "type": "function"
    },
    {
      "inputs": [
        {
          "internalType": "uint256",
          "name": "tokenId",
          "type": "uint256"
        },
        {
          "internalType": "uint32",
          "name": "amount",
          "type": "uint32"
        }
      ],
      "name": "decreaseSpores",
      "outputs": [],
      "stateMutability": "nonpayable",
      "type": "function"
    },
    {
      "inputs": [
        {
          "internalType": "uint256",
          "name": "tokenId",
          "type": "uint256"
        }
      ],
      "name": "getApproved",
      "outputs": [
        {
          "internalType": "address",
          "name": "",
          "type": "address"
        }
      ],
      "stateMutability": "view",
      "type": "function"
    },
    {
      "inputs": [
        {
          "internalType": "uint256",
          "name": "_tokenId",
          "type": "uint256"
        }
      ],
      "name": "getData1",
      "outputs": [
        {
          "components": [
            {
              "internalType": "uint256",
              "name": "id",
              "type": "uint256"
            },
            {
              "internalType": "uint32",
              "name": "spores",
              "type": "uint32"
            },
            {
              "internalType": "string",
              "name": "backgroundColor",
              "type": "string"
            },
            {
              "internalType": "string",
              "name": "head",
              "type": "string"
            },
            {
              "internalType": "string",
              "name": "eyes",
              "type": "string"
            },
            {
              "internalType": "string",
              "name": "mouth",
              "type": "string"
            },
            {
              "internalType": "string",
              "name": "element",
              "type": "string"
            },
            {
              "internalType": "string",
              "name": "weapon",
              "type": "string"
            },
            {
              "internalType": "string",
              "name": "armor",
              "type": "string"
            },
            {
              "internalType": "string",
              "name": "accessory",
              "type": "string"
            },
            {
              "internalType": "uint256",
              "name": "level",
              "type": "uint256"
            }
          ],
          "internalType": "struct Metadata1.Mushroom",
          "name": "",
          "type": "tuple"
        }
      ],
      "stateMutability": "view",
      "type": "function"
    },
    {
      "inputs": [
        {
          "internalType": "bytes32",
          "name": "role",
          "type": "bytes32"
        }
      ],
      "name": "getRoleAdmin",
      "outputs": [
        {
          "internalType": "bytes32",
          "name": "",
          "type": "bytes32"
        }
      ],
      "stateMutability": "view",
      "type": "function"
    },
    {
      "inputs": [
        {
          "internalType": "bytes32",
          "name": "role",
          "type": "bytes32"
        },
        {
          "internalType": "address",
          "name": "account",
          "type": "address"
        }
      ],
      "name": "grantRole",
      "outputs": [],
      "stateMutability": "nonpayable",
      "type": "function"
    },
    {
      "inputs": [
        {
          "internalType": "uint256",
          "name": "_tokenId",
          "type": "uint256"
        }
      ],
      "name": "handleMint",
      "outputs": [],
      "stateMutability": "nonpayable",
      "type": "function"
    },
    {
      "inputs": [
        {
          "internalType": "bytes32",
          "name": "role",
          "type": "bytes32"
        },
        {
          "internalType": "address",
          "name": "account",
          "type": "address"
        }
      ],
      "name": "hasRole",
      "outputs": [
        {
          "internalType": "bool",
          "name": "",
          "type": "bool"
        }
      ],
      "stateMutability": "view",
      "type": "function"
    },
    {
      "inputs": [
        {
          "internalType": "uint256",
          "name": "tokenId",
          "type": "uint256"
        },
        {
          "internalType": "uint256",
          "name": "amount",
          "type": "uint256"
        }
      ],
      "name": "increaseLevel",
      "outputs": [],
      "stateMutability": "nonpayable",
      "type": "function"
    },
    {
      "inputs": [
        {
          "internalType": "uint256",
          "name": "_tokenId",
          "type": "uint256"
        },
        {
          "internalType": "uint32",
          "name": "_amount",
          "type": "uint32"
        }
      ],
      "name": "increaseSpores",
      "outputs": [],
      "stateMutability": "nonpayable",
      "type": "function"
    },
    {
      "inputs": [
        {
          "internalType": "address",
          "name": "owner",
          "type": "address"
        },
        {
          "internalType": "address",
          "name": "operator",
          "type": "address"
        }
      ],
      "name": "isApprovedForAll",
      "outputs": [
        {
          "internalType": "bool",
          "name": "",
          "type": "bool"
        }
      ],
      "stateMutability": "view",
      "type": "function"
    },
    {
      "inputs": [
        {
          "internalType": "uint256",
          "name": "",
          "type": "uint256"
        }
      ],
      "name": "mushroomAttributes",
      "outputs": [
        {
          "internalType": "uint256",
          "name": "id",
          "type": "uint256"
        },
        {
          "internalType": "uint32",
          "name": "spores",
          "type": "uint32"
        },
        {
          "internalType": "string",
          "name": "backgroundColor",
          "type": "string"
        },
        {
          "internalType": "string",
          "name": "head",
          "type": "string"
        },
        {
          "internalType": "string",
          "name": "eyes",
          "type": "string"
        },
        {
          "internalType": "string",
          "name": "mouth",
          "type": "string"
        },
        {
          "internalType": "string",
          "name": "element",
          "type": "string"
        },
        {
          "internalType": "string",
          "name": "weapon",
          "type": "string"
        },
        {
          "internalType": "string",
          "name": "armor",
          "type": "string"
        },
        {
          "internalType": "string",
          "name": "accessory",
          "type": "string"
        },
        {
          "internalType": "uint256",
          "name": "level",
          "type": "uint256"
        }
      ],
      "stateMutability": "view",
      "type": "function"
    },
    {
      "inputs": [],
      "name": "name",
      "outputs": [
        {
          "internalType": "string",
          "name": "",
          "type": "string"
        }
      ],
      "stateMutability": "view",
      "type": "function"
    },
    {
      "inputs": [
        {
          "internalType": "uint256",
          "name": "tokenId",
          "type": "uint256"
        }
      ],
      "name": "ownerOf",
      "outputs": [
        {
          "internalType": "address",
          "name": "",
          "type": "address"
        }
      ],
      "stateMutability": "view",
      "type": "function"
    },
    {
      "inputs": [
        {
          "internalType": "bytes32",
          "name": "role",
          "type": "bytes32"
        },
        {
          "internalType": "address",
          "name": "account",
          "type": "address"
        }
      ],
      "name": "renounceRole",
      "outputs": [],
      "stateMutability": "nonpayable",
      "type": "function"
    },
    {
      "inputs": [
        {
          "internalType": "bytes32",
          "name": "role",
          "type": "bytes32"
        },
        {
          "internalType": "address",
          "name": "account",
          "type": "address"
        }
      ],
      "name": "revokeRole",
      "outputs": [],
      "stateMutability": "nonpayable",
      "type": "function"
    },
    {
      "inputs": [
        {
          "internalType": "address",
          "name": "from",
          "type": "address"
        },
        {
          "internalType": "address",
          "name": "to",
          "type": "address"
        },
        {
          "internalType": "uint256",
          "name": "tokenId",
          "type": "uint256"
        }
      ],
      "name": "safeTransferFrom",
      "outputs": [],
      "stateMutability": "nonpayable",
      "type": "function"
    },
    {
      "inputs": [
        {
          "internalType": "address",
          "name": "from",
          "type": "address"
        },
        {
          "internalType": "address",
          "name": "to",
          "type": "address"
        },
        {
          "internalType": "uint256",
          "name": "tokenId",
          "type": "uint256"
        },
        {
          "internalType": "bytes",
          "name": "data",
          "type": "bytes"
        }
      ],
      "name": "safeTransferFrom",
      "outputs": [],
      "stateMutability": "nonpayable",
      "type": "function"
    },
    {
      "inputs": [
        {
          "internalType": "uint256",
          "name": "tokenId",
          "type": "uint256"
        },
        {
          "internalType": "string",
          "name": "accessory",
          "type": "string"
        }
      ],
      "name": "setAccessory",
      "outputs": [],
      "stateMutability": "nonpayable",
      "type": "function"
    },
    {
      "inputs": [
        {
          "internalType": "address",
          "name": "operator",
          "type": "address"
        },
        {
          "internalType": "bool",
          "name": "approved",
          "type": "bool"
        }
      ],
      "name": "setApprovalForAll",
      "outputs": [],
      "stateMutability": "nonpayable",
      "type": "function"
    },
    {
      "inputs": [
        {
          "internalType": "uint256",
          "name": "tokenId",
          "type": "uint256"
        },
        {
          "internalType": "string",
          "name": "armor",
          "type": "string"
        }
      ],
      "name": "setArmor",
      "outputs": [],
      "stateMutability": "nonpayable",
      "type": "function"
    },
    {
      "inputs": [
        {
          "internalType": "uint256",
          "name": "_tokenId",
          "type": "uint256"
        }
      ],
      "name": "setData1",
      "outputs": [
        {
          "components": [
            {
              "internalType": "uint256",
              "name": "id",
              "type": "uint256"
            },
            {
              "internalType": "uint32",
              "name": "spores",
              "type": "uint32"
            },
            {
              "internalType": "string",
              "name": "backgroundColor",
              "type": "string"
            },
            {
              "internalType": "string",
              "name": "head",
              "type": "string"
            },
            {
              "internalType": "string",
              "name": "eyes",
              "type": "string"
            },
            {
              "internalType": "string",
              "name": "mouth",
              "type": "string"
            },
            {
              "internalType": "string",
              "name": "element",
              "type": "string"
            },
            {
              "internalType": "string",
              "name": "weapon",
              "type": "string"
            },
            {
              "internalType": "string",
              "name": "armor",
              "type": "string"
            },
            {
              "internalType": "string",
              "name": "accessory",
              "type": "string"
            },
            {
              "internalType": "uint256",
              "name": "level",
              "type": "uint256"
            }
          ],
          "internalType": "struct Metadata1.Mushroom",
          "name": "",
          "type": "tuple"
        }
      ],
      "stateMutability": "nonpayable",
      "type": "function"
    },
    {
      "inputs": [
        {
          "internalType": "uint256",
          "name": "tokenId",
          "type": "uint256"
        },
        {
          "internalType": "string",
          "name": "element",
          "type": "string"
        }
      ],
      "name": "setElement",
      "outputs": [],
      "stateMutability": "nonpayable",
      "type": "function"
    },
    {
      "inputs": [
        {
          "internalType": "uint256",
          "name": "tokenId",
          "type": "uint256"
        },
        {
          "internalType": "string",
          "name": "weapon",
          "type": "string"
        }
      ],
      "name": "setWeapon",
      "outputs": [],
      "stateMutability": "nonpayable",
      "type": "function"
    },
    {
      "inputs": [
        {
          "internalType": "bytes4",
          "name": "interfaceId",
          "type": "bytes4"
        }
      ],
      "name": "supportsInterface",
      "outputs": [
        {
          "internalType": "bool",
          "name": "",
          "type": "bool"
        }
      ],
      "stateMutability": "view",
      "type": "function"
    },
    {
      "inputs": [],
      "name": "symbol",
      "outputs": [
        {
          "internalType": "string",
          "name": "",
          "type": "string"
        }
      ],
      "stateMutability": "view",
      "type": "function"
    },
    {
      "inputs": [
        {
          "internalType": "uint256",
          "name": "index",
          "type": "uint256"
        }
      ],
      "name": "tokenByIndex",
      "outputs": [
        {
          "internalType": "uint256",
          "name": "",
          "type": "uint256"
        }
      ],
      "stateMutability": "view",
      "type": "function"
    },
    {
      "inputs": [
        {
          "internalType": "address",
          "name": "owner",
          "type": "address"
        },
        {
          "internalType": "uint256",
          "name": "index",
          "type": "uint256"
        }
      ],
      "name": "tokenOfOwnerByIndex",
      "outputs": [
        {
          "internalType": "uint256",
          "name": "",
          "type": "uint256"
        }
      ],
      "stateMutability": "view",
      "type": "function"
    },
    {
      "inputs": [
        {
          "internalType": "uint256",
          "name": "tokenId",
          "type": "uint256"
        }
      ],
      "name": "tokenURI",
      "outputs": [
        {
          "internalType": "string",
          "name": "",
          "type": "string"
        }
      ],
      "stateMutability": "view",
      "type": "function"
    },
    {
      "inputs": [],
      "name": "totalSupply",
      "outputs": [
        {
          "internalType": "uint256",
          "name": "",
          "type": "uint256"
        }
      ],
      "stateMutability": "view",
      "type": "function"
    },
    {
      "inputs": [
        {
          "internalType": "address",
          "name": "from",
          "type": "address"
        },
        {
          "internalType": "address",
          "name": "to",
          "type": "address"
        },
        {
          "internalType": "uint256",
          "name": "tokenId",
          "type": "uint256"
        }
      ],
      "name": "transferFrom",
      "outputs": [],
      "stateMutability": "nonpayable",
      "type": "function"
    }
  ],
  "bytecode": "0x60806040526040518061014001604052806040518060400160405280600381526020017f726564000000000000000000000000000000000000000000000000000000000081525081526020016040518060400160405280600681526020017f6f72616e6765000000000000000000000000000000000000000000000000000081525081526020016040518060400160405280600681526020017f79656c6c6f77000000000000000000000000000000000000000000000000000081525081526020016040518060400160405280600581526020017f677265656e00000000000000000000000000000000000000000000000000000081525081526020016040518060400160405280600481526020017f626c75650000000000000000000000000000000000000000000000000000000081525081526020016040518060400160405280600681526020017f707572706c65000000000000000000000000000000000000000000000000000081525081526020016040518060400160405280600481526020017f70696e6b0000000000000000000000000000000000000000000000000000000081525081526020016040518060400160405280600581526020017f626c61636b00000000000000000000000000000000000000000000000000000081525081526020016040518060400160405280600581526020017f776869746500000000000000000000000000000000000000000000000000000081525081526020016040518060400160405280600481526020017f6772617900000000000000000000000000000000000000000000000000000000815250815250600e90600a6200026e92919062000a4d565b5060405180608001604052806040518060400160405280600581526020017f526f756e6400000000000000000000000000000000000000000000000000000081525081526020016040518060400160405280600481526020017f4f76616c0000000000000000000000000000000000000000000000000000000081525081526020016040518060400160405280600881526020017f547269616e676c6500000000000000000000000000000000000000000000000081525081526020016040518060400160405280600481526020017f466c617400000000000000000000000000000000000000000000000000000000815250815250600f9060046200037692919062000aad565b506040518061010001604052806040518060400160405280600581526020017f457965203100000000000000000000000000000000000000000000000000000081525081526020016040518060400160405280600581526020017f457965203200000000000000000000000000000000000000000000000000000081525081526020016040518060400160405280600581526020017f457965203300000000000000000000000000000000000000000000000000000081525081526020016040518060400160405280600581526020017f457965203400000000000000000000000000000000000000000000000000000081525081526020016040518060400160405280600581526020017f457965203500000000000000000000000000000000000000000000000000000081525081526020016040518060400160405280600581526020017f457965203600000000000000000000000000000000000000000000000000000081525081526020016040518060400160405280600581526020017f457965203700000000000000000000000000000000000000000000000000000081525081526020016040518060400160405280600581526020017f457965203800000000000000000000000000000000000000000000000000000081525081525060109060086200056b92919062000b0d565b506040518061010001604052806040518060400160405280600781526020017f4d6f75746820310000000000000000000000000000000000000000000000000081525081526020016040518060400160405280600781526020017f4d6f75746820320000000000000000000000000000000000000000000000000081525081526020016040518060400160405280600781526020017f4d6f75746820330000000000000000000000000000000000000000000000000081525081526020016040518060400160405280600781526020017f4d6f75746820340000000000000000000000000000000000000000000000000081525081526020016040518060400160405280600781526020017f4d6f75746820350000000000000000000000000000000000000000000000000081525081526020016040518060400160405280600781526020017f4d6f75746820360000000000000000000000000000000000000000000000000081525081526020016040518060400160405280600781526020017f4d6f75746820370000000000000000000000000000000000000000000000000081525081526020016040518060400160405280600781526020017f4d6f75746820380000000000000000000000000000000000000000000000000081525081525060119060086200076092919062000b0d565b503480156200076e57600080fd5b5060405162006ad438038062006ad4833981810160405281019062000794919062000c64565b6040518060400160405280600f81526020017f4d696e74696e674d757368726f6f6d00000000000000000000000000000000008152506040518060400160405280600281526020017f4d4d000000000000000000000000000000000000000000000000000000000000815250816000908162000811919062000f25565b50806001908162000823919062000f25565b5050506200083b6000801b83620008e860201b60201c565b6200086d7f73e573f9566d61418a34d5de3ff49360f9c51fec37f7486551670290f6285dab33620008e860201b60201c565b6200089f7f364d3d7565c7a8300c96fd53e065d19b65848d7b23b3191adcd55621c744223c33620008e860201b60201c565b80600b60006101000a81548173ffffffffffffffffffffffffffffffffffffffff021916908373ffffffffffffffffffffffffffffffffffffffff16021790555050506200100c565b620008fa8282620009da60201b60201c565b620009d6576001600a600084815260200190815260200160002060000160008373ffffffffffffffffffffffffffffffffffffffff1673ffffffffffffffffffffffffffffffffffffffff16815260200190815260200160002060006101000a81548160ff0219169083151502179055506200097b62000a4560201b60201c565b73ffffffffffffffffffffffffffffffffffffffff168173ffffffffffffffffffffffffffffffffffffffff16837f2f8788117e7eff1d82e926ec794901d17c78024a50270940304540a733656f0d60405160405180910390a45b5050565b6000600a600084815260200190815260200160002060000160008373ffffffffffffffffffffffffffffffffffffffff1673ffffffffffffffffffffffffffffffffffffffff16815260200190815260200160002060009054906101000a900460ff16905092915050565b600033905090565b82805482825590600052602060002090810192821562000a9a579160200282015b8281111562000a9957825182908162000a88919062000f25565b509160200191906001019062000a6e565b5b50905062000aa9919062000b6d565b5090565b82805482825590600052602060002090810192821562000afa579160200282015b8281111562000af957825182908162000ae8919062000f25565b509160200191906001019062000ace565b5b50905062000b09919062000b6d565b5090565b82805482825590600052602060002090810192821562000b5a579160200282015b8281111562000b5957825182908162000b48919062000f25565b509160200191906001019062000b2e565b5b50905062000b69919062000b6d565b5090565b5b8082111562000b91576000818162000b87919062000b95565b5060010162000b6e565b5090565b50805462000ba39062000d14565b6000825580601f1062000bb7575062000bd8565b601f01602090049060005260206000209081019062000bd7919062000bdb565b5b50565b5b8082111562000bf657600081600090555060010162000bdc565b5090565b600080fd5b600073ffffffffffffffffffffffffffffffffffffffff82169050919050565b600062000c2c8262000bff565b9050919050565b62000c3e8162000c1f565b811462000c4a57600080fd5b50565b60008151905062000c5e8162000c33565b92915050565b6000806040838503121562000c7e5762000c7d62000bfa565b5b600062000c8e8582860162000c4d565b925050602062000ca18582860162000c4d565b9150509250929050565b600081519050919050565b7f4e487b7100000000000000000000000000000000000000000000000000000000600052604160045260246000fd5b7f4e487b7100000000000000000000000000000000000000000000000000000000600052602260045260246000fd5b6000600282049050600182168062000d2d57607f821691505b60208210810362000d435762000d4262000ce5565b5b50919050565b60008190508160005260206000209050919050565b60006020601f8301049050919050565b600082821b905092915050565b60006008830262000dad7fffffffffffffffffffffffffffffffffffffffffffffffffffffffffffffffff8262000d6e565b62000db9868362000d6e565b95508019841693508086168417925050509392505050565b6000819050919050565b6000819050919050565b600062000e0662000e0062000dfa8462000dd1565b62000ddb565b62000dd1565b9050919050565b6000819050919050565b62000e228362000de5565b62000e3a62000e318262000e0d565b84845462000d7b565b825550505050565b600090565b62000e5162000e42565b62000e5e81848462000e17565b505050565b5b8181101562000e865762000e7a60008262000e47565b60018101905062000e64565b5050565b601f82111562000ed55762000e9f8162000d49565b62000eaa8462000d5e565b8101602085101562000eba578190505b62000ed262000ec98562000d5e565b83018262000e63565b50505b505050565b600082821c905092915050565b600062000efa6000198460080262000eda565b1980831691505092915050565b600062000f15838362000ee7565b9150826002028217905092915050565b62000f308262000cab565b67ffffffffffffffff81111562000f4c5762000f4b62000cb6565b5b62000f58825462000d14565b62000f6582828562000e8a565b600060209050601f83116001811462000f9d576000841562000f88578287015190505b62000f94858262000f07565b86555062001004565b601f19841662000fad8662000d49565b60005b8281101562000fd75784890151825560018201915060208501945060208101905062000fb0565b8683101562000ff7578489015162000ff3601f89168262000ee7565b8355505b6001600288020188555050505b505050505050565b615ab8806200101c6000396000f3fe608060405234801561001057600080fd5b506004361061021c5760003560e01c80636352211e11610125578063a217fddf116100ad578063c87b56dd1161007c578063c87b56dd14610677578063d547741f146106a7578063dbdd75bb146106c3578063e985e9c5146106df578063f25c80771461070f5761021c565b8063a217fddf146105e7578063a22cb46514610605578063a332027714610621578063b88d4fde1461065b5761021c565b80637f456ef1116100f45780637f456ef11461054557806381b1b44f1461056157806391d148541461057d57806395d89b41146105ad5780639b62a61b146105cb5761021c565b80636352211e146104ad578063658e3b32146104dd57806370a08231146104f95780637bd55ee2146105295761021c565b806323b872dd116101a85780632f745c59116101775780632f745c59146103f757806336568abe1461042757806342842e0e1461044357806347e633801461045f5780634f6ccce71461047d5761021c565b806323b872dd14610373578063248a9ca31461038f5780632b70c17d146103bf5780632f2ff15d146103db5761021c565b8063081812fc116101ef578063081812fc146102a9578063095ea7b3146102d95780630bada385146102f55780630bb78ec11461032557806318160ddd146103555761021c565b806301ffc9a71461022157806303fe46ab14610251578063044928591461026f57806306fdde031461028b575b600080fd5b61023b60048036038101906102369190613c0f565b61073f565b6040516102489190613c57565b60405180910390f35b610259610751565b6040516102669190613c8b565b60405180910390f35b61028960048036038101906102849190613d18565b610775565b005b6102936107cc565b6040516102a09190613de8565b60405180910390f35b6102c360048036038101906102be9190613e0a565b61085e565b6040516102d09190613e78565b60405180910390f35b6102f360048036038101906102ee9190613ebf565b6108a4565b005b61030f600480360381019061030a9190613e0a565b6109bb565b60405161031c9190614087565b60405180910390f35b61033f600480360381019061033a9190613e0a565b610f37565b60405161034c9190613de8565b60405180910390f35b61035d610fd7565b60405161036a91906140b8565b60405180910390f35b61038d600480360381019061038891906140d3565b610fe4565b005b6103a960048036038101906103a49190614152565b611044565b6040516103b69190613c8b565b60405180910390f35b6103d960048036038101906103d49190613e0a565b611064565b005b6103f560048036038101906103f0919061417f565b6110e9565b005b610411600480360381019061040c9190613ebf565b61110a565b60405161041e91906140b8565b60405180910390f35b610441600480360381019061043c919061417f565b6111af565b005b61045d600480360381019061045891906140d3565b611232565b005b610467611252565b6040516104749190613c8b565b60405180910390f35b61049760048036038101906104929190613e0a565b611276565b6040516104a491906140b8565b60405180910390f35b6104c760048036038101906104c29190613e0a565b6112e7565b6040516104d49190613e78565b60405180910390f35b6104f760048036038101906104f291906142f4565b61136d565b005b610513600480360381019061050e9190614350565b6113c0565b60405161052091906140b8565b60405180910390f35b610543600480360381019061053e91906142f4565b611477565b005b61055f600480360381019061055a9190613d18565b6114ca565b005b61057b600480360381019061057691906142f4565b61154c565b005b6105976004803603810190610592919061417f565b61159f565b6040516105a49190613c57565b60405180910390f35b6105b561160a565b6040516105c29190613de8565b60405180910390f35b6105e560048036038101906105e0919061437d565b61169c565b005b6105ef6116f8565b6040516105fc9190613c8b565b60405180910390f35b61061f600480360381019061061a91906143e9565b6116ff565b005b61063b60048036038101906106369190613e0a565b611715565b6040516106529b9a99989796959493929190614438565b60405180910390f35b610675600480360381019061067091906145bc565b611bbf565b005b610691600480360381019061068c9190613e0a565b611c21565b60405161069e9190613de8565b60405180910390f35b6106c160048036038101906106bc919061417f565b611c89565b005b6106dd60048036038101906106d891906142f4565b611caa565b005b6106f960048036038101906106f4919061463f565b611cfd565b6040516107069190613c57565b60405180910390f35b61072960048036038101906107249190613e0a565b611d91565b6040516107369190614087565b60405180910390f35b600061074a82612289565b9050919050565b7f364d3d7565c7a8300c96fd53e065d19b65848d7b23b3191adcd55621c744223c81565b80600c600084815260200190815260200160002060010160008282829054906101000a900463ffffffff166107aa91906146ae565b92506101000a81548163ffffffff021916908363ffffffff1602179055505050565b6060600080546107db90614715565b80601f016020809104026020016040519081016040528092919081815260200182805461080790614715565b80156108545780601f1061082957610100808354040283529160200191610854565b820191906000526020600020905b81548152906001019060200180831161083757829003601f168201915b5050505050905090565b600061086982612303565b6004600083815260200190815260200160002060009054906101000a900473ffffffffffffffffffffffffffffffffffffffff169050919050565b60006108af826112e7565b90508073ffffffffffffffffffffffffffffffffffffffff168373ffffffffffffffffffffffffffffffffffffffff160361091f576040517f08c379a0000000000000000000000000000000000000000000000000000000008152600401610916906147b8565b60405180910390fd5b8073ffffffffffffffffffffffffffffffffffffffff1661093e61234e565b73ffffffffffffffffffffffffffffffffffffffff16148061096d575061096c8161096761234e565b611cfd565b5b6109ac576040517f08c379a00000000000000000000000000000000000000000000000000000000081526004016109a39061484a565b60405180910390fd5b6109b68383612356565b505050565b6109c3613b43565b6000600b60009054906101000a900473ffffffffffffffffffffffffffffffffffffffff1673ffffffffffffffffffffffffffffffffffffffff166301d61e5d846040518263ffffffff1660e01b8152600401610a2091906140b8565b600060405180830381865afa158015610a3d573d6000803e3d6000fd5b505050506040513d6000823e3d601f19601f82011682018060405250810190610a6691906149cc565b90506000600e808054905085610a7c9190614a44565b81548110610a8d57610a8c614a75565b5b906000526020600020018054610aa290614715565b80601f0160208091040260200160405190810160405280929190818152602001828054610ace90614715565b8015610b1b5780601f10610af057610100808354040283529160200191610b1b565b820191906000526020600020905b815481529060010190602001808311610afe57829003601f168201915b505050505090506000600f808054905086610b369190614a44565b81548110610b4757610b46614a75565b5b906000526020600020018054610b5c90614715565b80601f0160208091040260200160405190810160405280929190818152602001828054610b8890614715565b8015610bd55780601f10610baa57610100808354040283529160200191610bd5565b820191906000526020600020905b815481529060010190602001808311610bb857829003601f168201915b5050505050905060006010808054905087610bf09190614a44565b81548110610c0157610c00614a75565b5b906000526020600020018054610c1690614715565b80601f0160208091040260200160405190810160405280929190818152602001828054610c4290614715565b8015610c8f5780601f10610c6457610100808354040283529160200191610c8f565b820191906000526020600020905b815481529060010190602001808311610c7257829003601f168201915b5050505050905060006011808054905088610caa9190614a44565b81548110610cbb57610cba614a75565b5b906000526020600020018054610cd090614715565b80601f0160208091040260200160405190810160405280929190818152602001828054610cfc90614715565b8015610d495780601f10610d1e57610100808354040283529160200191610d49565b820191906000526020600020905b815481529060010190602001808311610d2c57829003601f168201915b505050505090506000604051806101600160405280898152602001600063ffffffff16815260200186815260200185815260200184815260200183815260200187600001518152602001876020015181526020018760400151815260200187606001518152602001600081525090506000610de886868686604051602001610dd49493929190614b2c565b60405160208183030381529060405261240f565b90507f03e60bc180a10271506812ce8c16f6b00421ee6e475fce015115c9878dc603748982604051610e1b929190614b8b565b60405180910390a181600c60008b81526020019081526020016000206000820151816000015560208201518160010160006101000a81548163ffffffff021916908363ffffffff1602179055506040820151816002019081610e7d9190614d67565b506060820151816003019081610e939190614d67565b506080820151816004019081610ea99190614d67565b5060a0820151816005019081610ebf9190614d67565b5060c0820151816006019081610ed59190614d67565b5060e0820151816007019081610eeb9190614d67565b50610100820151816008019081610f029190614d67565b50610120820151816009019081610f199190614d67565b5061014082015181600a015590505081975050505050505050919050565b600d6020528060005260406000206000915090508054610f5690614715565b80601f0160208091040260200160405190810160405280929190818152602001828054610f8290614715565b8015610fcf5780601f10610fa457610100808354040283529160200191610fcf565b820191906000526020600020905b815481529060010190602001808311610fb257829003601f168201915b505050505081565b6000600880549050905090565b610ff5610fef61234e565b82612572565b611034576040517f08c379a000000000000000000000000000000000000000000000000000000000815260040161102b90614eab565b60405180910390fd5b61103f838383612607565b505050565b6000600a6000838152602001908152602001600020600101549050919050565b3073ffffffffffffffffffffffffffffffffffffffff16630bada385826040518263ffffffff1660e01b815260040161109d91906140b8565b6000604051808303816000875af11580156110bc573d6000803e3d6000fd5b505050506040513d6000823e3d601f19601f820116820180604052508101906110e591906150e1565b5050565b6110f282611044565b6110fb81612900565b6111058383612914565b505050565b6000611115836113c0565b8210611156576040517f08c379a000000000000000000000000000000000000000000000000000000000815260040161114d9061519c565b60405180910390fd5b600660008473ffffffffffffffffffffffffffffffffffffffff1673ffffffffffffffffffffffffffffffffffffffff168152602001908152602001600020600083815260200190815260200160002054905092915050565b6111b761234e565b73ffffffffffffffffffffffffffffffffffffffff168173ffffffffffffffffffffffffffffffffffffffff1614611224576040517f08c379a000000000000000000000000000000000000000000000000000000000815260040161121b9061522e565b60405180910390fd5b61122e82826129f5565b5050565b61124d83838360405180602001604052806000815250611bbf565b505050565b7f73e573f9566d61418a34d5de3ff49360f9c51fec37f7486551670290f6285dab81565b6000611280610fd7565b82106112c1576040517f08c379a00000000000000000000000000000000000000000000000000000000081526004016112b8906152c0565b60405180910390fd5b600882815481106112d5576112d4614a75565b5b90600052602060002001549050919050565b6000806112f383612ad7565b9050600073ffffffffffffffffffffffffffffffffffffffff168173ffffffffffffffffffffffffffffffffffffffff1603611364576040517f08c379a000000000000000000000000000000000000000000000000000000000815260040161135b9061532c565b60405180910390fd5b80915050919050565b7f73e573f9566d61418a34d5de3ff49360f9c51fec37f7486551670290f6285dab61139781612900565b81600c600085815260200190815260200160002060080190816113ba9190614d67565b50505050565b60008073ffffffffffffffffffffffffffffffffffffffff168273ffffffffffffffffffffffffffffffffffffffff1603611430576040517f08c379a0000000000000000000000000000000000000000000000000000000008152600401611427906153be565b60405180910390fd5b600360008373ffffffffffffffffffffffffffffffffffffffff1673ffffffffffffffffffffffffffffffffffffffff168152602001908152602001600020549050919050565b7f73e573f9566d61418a34d5de3ff49360f9c51fec37f7486551670290f6285dab6114a181612900565b81600c600085815260200190815260200160002060060190816114c49190614d67565b50505050565b7f73e573f9566d61418a34d5de3ff49360f9c51fec37f7486551670290f6285dab6114f481612900565b81600c600085815260200190815260200160002060010160008282829054906101000a900463ffffffff1661152991906153de565b92506101000a81548163ffffffff021916908363ffffffff160217905550505050565b7f73e573f9566d61418a34d5de3ff49360f9c51fec37f7486551670290f6285dab61157681612900565b81600c600085815260200190815260200160002060090190816115999190614d67565b50505050565b6000600a600084815260200190815260200160002060000160008373ffffffffffffffffffffffffffffffffffffffff1673ffffffffffffffffffffffffffffffffffffffff16815260200190815260200160002060009054906101000a900460ff16905092915050565b60606001805461161990614715565b80601f016020809104026020016040519081016040528092919081815260200182805461164590614715565b80156116925780601f1061166757610100808354040283529160200191611692565b820191906000526020600020905b81548152906001019060200180831161167557829003601f168201915b5050505050905090565b7f73e573f9566d61418a34d5de3ff49360f9c51fec37f7486551670290f6285dab6116c681612900565b81600c6000858152602001908152602001600020600a0160008282546116ec9190615416565b92505081905550505050565b6000801b81565b61171161170a61234e565b8383612b14565b5050565b600c6020528060005260406000206000915090508060000154908060010160009054906101000a900463ffffffff169080600201805461175490614715565b80601f016020809104026020016040519081016040528092919081815260200182805461178090614715565b80156117cd5780601f106117a2576101008083540402835291602001916117cd565b820191906000526020600020905b8154815290600101906020018083116117b057829003601f168201915b5050505050908060030180546117e290614715565b80601f016020809104026020016040519081016040528092919081815260200182805461180e90614715565b801561185b5780601f106118305761010080835404028352916020019161185b565b820191906000526020600020905b81548152906001019060200180831161183e57829003601f168201915b50505050509080600401805461187090614715565b80601f016020809104026020016040519081016040528092919081815260200182805461189c90614715565b80156118e95780601f106118be576101008083540402835291602001916118e9565b820191906000526020600020905b8154815290600101906020018083116118cc57829003601f168201915b5050505050908060050180546118fe90614715565b80601f016020809104026020016040519081016040528092919081815260200182805461192a90614715565b80156119775780601f1061194c57610100808354040283529160200191611977565b820191906000526020600020905b81548152906001019060200180831161195a57829003601f168201915b50505050509080600601805461198c90614715565b80601f01602080910402602001604051908101604052809291908181526020018280546119b890614715565b8015611a055780601f106119da57610100808354040283529160200191611a05565b820191906000526020600020905b8154815290600101906020018083116119e857829003601f168201915b505050505090806007018054611a1a90614715565b80601f0160208091040260200160405190810160405280929190818152602001828054611a4690614715565b8015611a935780601f10611a6857610100808354040283529160200191611a93565b820191906000526020600020905b815481529060010190602001808311611a7657829003601f168201915b505050505090806008018054611aa890614715565b80601f0160208091040260200160405190810160405280929190818152602001828054611ad490614715565b8015611b215780601f10611af657610100808354040283529160200191611b21565b820191906000526020600020905b815481529060010190602001808311611b0457829003601f168201915b505050505090806009018054611b3690614715565b80601f0160208091040260200160405190810160405280929190818152602001828054611b6290614715565b8015611baf5780601f10611b8457610100808354040283529160200191611baf565b820191906000526020600020905b815481529060010190602001808311611b9257829003601f168201915b50505050509080600a015490508b565b611bd0611bca61234e565b83612572565b611c0f576040517f08c379a0000000000000000000000000000000000000000000000000000000008152600401611c0690614eab565b60405180910390fd5b611c1b84848484612c80565b50505050565b6060611c2c82612303565b6000611c36612cdc565b90506000815111611c565760405180602001604052806000815250611c81565b80611c6084612cf3565b604051602001611c7192919061544a565b6040516020818303038152906040525b915050919050565b611c9282611044565b611c9b81612900565b611ca583836129f5565b505050565b7f73e573f9566d61418a34d5de3ff49360f9c51fec37f7486551670290f6285dab611cd481612900565b81600c60008581526020019081526020016000206007019081611cf79190614d67565b50505050565b6000600560008473ffffffffffffffffffffffffffffffffffffffff1673ffffffffffffffffffffffffffffffffffffffff16815260200190815260200160002060008373ffffffffffffffffffffffffffffffffffffffff1673ffffffffffffffffffffffffffffffffffffffff16815260200190815260200160002060009054906101000a900460ff16905092915050565b611d99613b43565b600c600083815260200190815260200160002060405180610160016040529081600082015481526020016001820160009054906101000a900463ffffffff1663ffffffff1663ffffffff168152602001600282018054611df890614715565b80601f0160208091040260200160405190810160405280929190818152602001828054611e2490614715565b8015611e715780601f10611e4657610100808354040283529160200191611e71565b820191906000526020600020905b815481529060010190602001808311611e5457829003601f168201915b50505050508152602001600382018054611e8a90614715565b80601f0160208091040260200160405190810160405280929190818152602001828054611eb690614715565b8015611f035780601f10611ed857610100808354040283529160200191611f03565b820191906000526020600020905b815481529060010190602001808311611ee657829003601f168201915b50505050508152602001600482018054611f1c90614715565b80601f0160208091040260200160405190810160405280929190818152602001828054611f4890614715565b8015611f955780601f10611f6a57610100808354040283529160200191611f95565b820191906000526020600020905b815481529060010190602001808311611f7857829003601f168201915b50505050508152602001600582018054611fae90614715565b80601f0160208091040260200160405190810160405280929190818152602001828054611fda90614715565b80156120275780601f10611ffc57610100808354040283529160200191612027565b820191906000526020600020905b81548152906001019060200180831161200a57829003601f168201915b5050505050815260200160068201805461204090614715565b80601f016020809104026020016040519081016040528092919081815260200182805461206c90614715565b80156120b95780601f1061208e576101008083540402835291602001916120b9565b820191906000526020600020905b81548152906001019060200180831161209c57829003601f168201915b505050505081526020016007820180546120d290614715565b80601f01602080910402602001604051908101604052809291908181526020018280546120fe90614715565b801561214b5780601f106121205761010080835404028352916020019161214b565b820191906000526020600020905b81548152906001019060200180831161212e57829003601f168201915b5050505050815260200160088201805461216490614715565b80601f016020809104026020016040519081016040528092919081815260200182805461219090614715565b80156121dd5780601f106121b2576101008083540402835291602001916121dd565b820191906000526020600020905b8154815290600101906020018083116121c057829003601f168201915b505050505081526020016009820180546121f690614715565b80601f016020809104026020016040519081016040528092919081815260200182805461222290614715565b801561226f5780601f106122445761010080835404028352916020019161226f565b820191906000526020600020905b81548152906001019060200180831161225257829003601f168201915b50505050508152602001600a820154815250509050919050565b60007f7965db0b000000000000000000000000000000000000000000000000000000007bffffffffffffffffffffffffffffffffffffffffffffffffffffffff1916827bffffffffffffffffffffffffffffffffffffffffffffffffffffffff191614806122fc57506122fb82612dc1565b5b9050919050565b61230c81612e3b565b61234b576040517f08c379a00000000000000000000000000000000000000000000000000000000081526004016123429061532c565b60405180910390fd5b50565b600033905090565b816004600083815260200190815260200160002060006101000a81548173ffffffffffffffffffffffffffffffffffffffff021916908373ffffffffffffffffffffffffffffffffffffffff160217905550808273ffffffffffffffffffffffffffffffffffffffff166123c9836112e7565b73ffffffffffffffffffffffffffffffffffffffff167f8c5be1e5ebec7d5bd14f71427d1e84f3dd0314c0f7b2291e5b200ac8c7c3b92560405160405180910390a45050565b606060008251036124315760405180602001604052806000815250905061256d565b6000604051806060016040528060408152602001615a4360409139905060006003600285516124609190615416565b61246a919061546e565b6004612476919061549f565b67ffffffffffffffff81111561248f5761248e6141c9565b5b6040519080825280601f01601f1916602001820160405280156124c15781602001600182028036833780820191505090505b509050600182016020820185865187015b8082101561252d576003820191508151603f8160121c168501518453600184019350603f81600c1c168501518453600184019350603f8160061c168501518453600184019350603f81168501518453600184019350506124d2565b5050600386510660018114612549576002811461255c57612564565b603d6001830353603d6002830353612564565b603d60018303535b50505080925050505b919050565b60008061257e836112e7565b90508073ffffffffffffffffffffffffffffffffffffffff168473ffffffffffffffffffffffffffffffffffffffff1614806125c057506125bf8185611cfd565b5b806125fe57508373ffffffffffffffffffffffffffffffffffffffff166125e68461085e565b73ffffffffffffffffffffffffffffffffffffffff16145b91505092915050565b8273ffffffffffffffffffffffffffffffffffffffff16612627826112e7565b73ffffffffffffffffffffffffffffffffffffffff161461267d576040517f08c379a000000000000000000000000000000000000000000000000000000000815260040161267490615553565b60405180910390fd5b600073ffffffffffffffffffffffffffffffffffffffff168273ffffffffffffffffffffffffffffffffffffffff16036126ec576040517f08c379a00000000000000000000000000000000000000000000000000000000081526004016126e3906155e5565b60405180910390fd5b6126f98383836001612e7c565b8273ffffffffffffffffffffffffffffffffffffffff16612719826112e7565b73ffffffffffffffffffffffffffffffffffffffff161461276f576040517f08c379a000000000000000000000000000000000000000000000000000000000815260040161276690615553565b60405180910390fd5b6004600082815260200190815260200160002060006101000a81549073ffffffffffffffffffffffffffffffffffffffff02191690556001600360008573ffffffffffffffffffffffffffffffffffffffff1673ffffffffffffffffffffffffffffffffffffffff168152602001908152602001600020600082825403925050819055506001600360008473ffffffffffffffffffffffffffffffffffffffff1673ffffffffffffffffffffffffffffffffffffffff16815260200190815260200160002060008282540192505081905550816002600083815260200190815260200160002060006101000a81548173ffffffffffffffffffffffffffffffffffffffff021916908373ffffffffffffffffffffffffffffffffffffffff160217905550808273ffffffffffffffffffffffffffffffffffffffff168473ffffffffffffffffffffffffffffffffffffffff167fddf252ad1be2c89b69c2b068fc378daa952ba7f163c4a11628f55a4df523b3ef60405160405180910390a46128fb8383836001612fda565b505050565b6129118161290c61234e565b612fe0565b50565b61291e828261159f565b6129f1576001600a600084815260200190815260200160002060000160008373ffffffffffffffffffffffffffffffffffffffff1673ffffffffffffffffffffffffffffffffffffffff16815260200190815260200160002060006101000a81548160ff02191690831515021790555061299661234e565b73ffffffffffffffffffffffffffffffffffffffff168173ffffffffffffffffffffffffffffffffffffffff16837f2f8788117e7eff1d82e926ec794901d17c78024a50270940304540a733656f0d60405160405180910390a45b5050565b6129ff828261159f565b15612ad3576000600a600084815260200190815260200160002060000160008373ffffffffffffffffffffffffffffffffffffffff1673ffffffffffffffffffffffffffffffffffffffff16815260200190815260200160002060006101000a81548160ff021916908315150217905550612a7861234e565b73ffffffffffffffffffffffffffffffffffffffff168173ffffffffffffffffffffffffffffffffffffffff16837ff6391f5c32d9c69d2a47ea670b442974b53935d1edc7fd64eb21e047a839171b60405160405180910390a45b5050565b60006002600083815260200190815260200160002060009054906101000a900473ffffffffffffffffffffffffffffffffffffffff169050919050565b8173ffffffffffffffffffffffffffffffffffffffff168373ffffffffffffffffffffffffffffffffffffffff1603612b82576040517f08c379a0000000000000000000000000000000000000000000000000000000008152600401612b7990615651565b60405180910390fd5b80600560008573ffffffffffffffffffffffffffffffffffffffff1673ffffffffffffffffffffffffffffffffffffffff16815260200190815260200160002060008473ffffffffffffffffffffffffffffffffffffffff1673ffffffffffffffffffffffffffffffffffffffff16815260200190815260200160002060006101000a81548160ff0219169083151502179055508173ffffffffffffffffffffffffffffffffffffffff168373ffffffffffffffffffffffffffffffffffffffff167f17307eab39ab6107e8899845ad3d59bd9653f200f220920489ca2b5937696c3183604051612c739190613c57565b60405180910390a3505050565b612c8b848484612607565b612c9784848484613065565b612cd6576040517f08c379a0000000000000000000000000000000000000000000000000000000008152600401612ccd906156e3565b60405180910390fd5b50505050565b606060405180602001604052806000815250905090565b606060006001612d02846131ec565b01905060008167ffffffffffffffff811115612d2157612d206141c9565b5b6040519080825280601f01601f191660200182016040528015612d535781602001600182028036833780820191505090505b509050600082602001820190505b600115612db6578080600190039150507f3031323334353637383961626364656600000000000000000000000000000000600a86061a8153600a8581612daa57612da9614a15565b5b04945060008503612d61575b819350505050919050565b60007f780e9d63000000000000000000000000000000000000000000000000000000007bffffffffffffffffffffffffffffffffffffffffffffffffffffffff1916827bffffffffffffffffffffffffffffffffffffffffffffffffffffffff19161480612e345750612e338261333f565b5b9050919050565b60008073ffffffffffffffffffffffffffffffffffffffff16612e5d83612ad7565b73ffffffffffffffffffffffffffffffffffffffff1614159050919050565b612e8884848484613421565b6001811115612ecc576040517f08c379a0000000000000000000000000000000000000000000000000000000008152600401612ec390615775565b60405180910390fd5b6000829050600073ffffffffffffffffffffffffffffffffffffffff168573ffffffffffffffffffffffffffffffffffffffff1603612f1357612f0e81613547565b612f52565b8373ffffffffffffffffffffffffffffffffffffffff168573ffffffffffffffffffffffffffffffffffffffff1614612f5157612f508582613590565b5b5b600073ffffffffffffffffffffffffffffffffffffffff168473ffffffffffffffffffffffffffffffffffffffff1603612f9457612f8f816136fd565b612fd3565b8473ffffffffffffffffffffffffffffffffffffffff168473ffffffffffffffffffffffffffffffffffffffff1614612fd257612fd184826137ce565b5b5b5050505050565b50505050565b612fea828261159f565b61306157612ff78161384d565b6130058360001c602061387a565b60405160200161301692919061582d565b6040516020818303038152906040526040517f08c379a00000000000000000000000000000000000000000000000000000000081526004016130589190613de8565b60405180910390fd5b5050565b60006130868473ffffffffffffffffffffffffffffffffffffffff16613ab6565b156131df578373ffffffffffffffffffffffffffffffffffffffff1663150b7a026130af61234e565b8786866040518563ffffffff1660e01b81526004016130d194939291906158bc565b6020604051808303816000875af192505050801561310d57506040513d601f19601f8201168201806040525081019061310a919061591d565b60015b61318f573d806000811461313d576040519150601f19603f3d011682016040523d82523d6000602084013e613142565b606091505b506000815103613187576040517f08c379a000000000000000000000000000000000000000000000000000000000815260040161317e906156e3565b60405180910390fd5b805181602001fd5b63150b7a0260e01b7bffffffffffffffffffffffffffffffffffffffffffffffffffffffff1916817bffffffffffffffffffffffffffffffffffffffffffffffffffffffff1916149150506131e4565b600190505b949350505050565b600080600090507a184f03e93ff9f4daa797ed6e38ed64bf6a1f010000000000000000831061324a577a184f03e93ff9f4daa797ed6e38ed64bf6a1f01000000000000000083816132405761323f614a15565b5b0492506040810190505b6d04ee2d6d415b85acef81000000008310613287576d04ee2d6d415b85acef8100000000838161327d5761327c614a15565b5b0492506020810190505b662386f26fc1000083106132b657662386f26fc1000083816132ac576132ab614a15565b5b0492506010810190505b6305f5e10083106132df576305f5e10083816132d5576132d4614a15565b5b0492506008810190505b61271083106133045761271083816132fa576132f9614a15565b5b0492506004810190505b60648310613327576064838161331d5761331c614a15565b5b0492506002810190505b600a8310613336576001810190505b80915050919050565b60007f80ac58cd000000000000000000000000000000000000000000000000000000007bffffffffffffffffffffffffffffffffffffffffffffffffffffffff1916827bffffffffffffffffffffffffffffffffffffffffffffffffffffffff1916148061340a57507f5b5e139f000000000000000000000000000000000000000000000000000000007bffffffffffffffffffffffffffffffffffffffffffffffffffffffff1916827bffffffffffffffffffffffffffffffffffffffffffffffffffffffff1916145b8061341a575061341982613ad9565b5b9050919050565b600181111561354157600073ffffffffffffffffffffffffffffffffffffffff168473ffffffffffffffffffffffffffffffffffffffff16146134b55780600360008673ffffffffffffffffffffffffffffffffffffffff1673ffffffffffffffffffffffffffffffffffffffff16815260200190815260200160002060008282546134ad919061594a565b925050819055505b600073ffffffffffffffffffffffffffffffffffffffff168373ffffffffffffffffffffffffffffffffffffffff16146135405780600360008573ffffffffffffffffffffffffffffffffffffffff1673ffffffffffffffffffffffffffffffffffffffff16815260200190815260200160002060008282546135389190615416565b925050819055505b5b50505050565b6008805490506009600083815260200190815260200160002081905550600881908060018154018082558091505060019003906000526020600020016000909190919091505550565b6000600161359d846113c0565b6135a7919061594a565b905060006007600084815260200190815260200160002054905081811461368c576000600660008673ffffffffffffffffffffffffffffffffffffffff1673ffffffffffffffffffffffffffffffffffffffff168152602001908152602001600020600084815260200190815260200160002054905080600660008773ffffffffffffffffffffffffffffffffffffffff1673ffffffffffffffffffffffffffffffffffffffff168152602001908152602001600020600084815260200190815260200160002081905550816007600083815260200190815260200160002081905550505b6007600084815260200190815260200160002060009055600660008573ffffffffffffffffffffffffffffffffffffffff1673ffffffffffffffffffffffffffffffffffffffff16815260200190815260200160002060008381526020019081526020016000206000905550505050565b60006001600880549050613711919061594a565b905060006009600084815260200190815260200160002054905060006008838154811061374157613740614a75565b5b90600052602060002001549050806008838154811061376357613762614a75565b5b9060005260206000200181905550816009600083815260200190815260200160002081905550600960008581526020019081526020016000206000905560088054806137b2576137b161597e565b5b6001900381819060005260206000200160009055905550505050565b60006137d9836113c0565b905081600660008573ffffffffffffffffffffffffffffffffffffffff1673ffffffffffffffffffffffffffffffffffffffff168152602001908152602001600020600083815260200190815260200160002081905550806007600084815260200190815260200160002081905550505050565b60606138738273ffffffffffffffffffffffffffffffffffffffff16601460ff1661387a565b9050919050565b60606000600283600261388d919061549f565b6138979190615416565b67ffffffffffffffff8111156138b0576138af6141c9565b5b6040519080825280601f01601f1916602001820160405280156138e25781602001600182028036833780820191505090505b5090507f30000000000000000000000000000000000000000000000000000000000000008160008151811061391a57613919614a75565b5b60200101907effffffffffffffffffffffffffffffffffffffffffffffffffffffffffffff1916908160001a9053507f78000000000000000000000000000000000000000000000000000000000000008160018151811061397e5761397d614a75565b5b60200101907effffffffffffffffffffffffffffffffffffffffffffffffffffffffffffff1916908160001a905350600060018460026139be919061549f565b6139c89190615416565b90505b6001811115613a68577f3031323334353637383961626364656600000000000000000000000000000000600f861660108110613a0a57613a09614a75565b5b1a60f81b828281518110613a2157613a20614a75565b5b60200101907effffffffffffffffffffffffffffffffffffffffffffffffffffffffffffff1916908160001a905350600485901c945080613a61906159ad565b90506139cb565b5060008414613aac576040517f08c379a0000000000000000000000000000000000000000000000000000000008152600401613aa390615a22565b60405180910390fd5b8091505092915050565b6000808273ffffffffffffffffffffffffffffffffffffffff163b119050919050565b60007f01ffc9a7000000000000000000000000000000000000000000000000000000007bffffffffffffffffffffffffffffffffffffffffffffffffffffffff1916827bffffffffffffffffffffffffffffffffffffffffffffffffffffffff1916149050919050565b60405180610160016040528060008152602001600063ffffffff1681526020016060815260200160608152602001606081526020016060815260200160608152602001606081526020016060815260200160608152602001600081525090565b6000604051905090565b600080fd5b600080fd5b60007fffffffff0000000000000000000000000000000000000000000000000000000082169050919050565b613bec81613bb7565b8114613bf757600080fd5b50565b600081359050613c0981613be3565b92915050565b600060208284031215613c2557613c24613bad565b5b6000613c3384828501613bfa565b91505092915050565b60008115159050919050565b613c5181613c3c565b82525050565b6000602082019050613c6c6000830184613c48565b92915050565b6000819050919050565b613c8581613c72565b82525050565b6000602082019050613ca06000830184613c7c565b92915050565b6000819050919050565b613cb981613ca6565b8114613cc457600080fd5b50565b600081359050613cd681613cb0565b92915050565b600063ffffffff82169050919050565b613cf581613cdc565b8114613d0057600080fd5b50565b600081359050613d1281613cec565b92915050565b60008060408385031215613d2f57613d2e613bad565b5b6000613d3d85828601613cc7565b9250506020613d4e85828601613d03565b9150509250929050565b600081519050919050565b600082825260208201905092915050565b60005b83811015613d92578082015181840152602081019050613d77565b60008484015250505050565b6000601f19601f8301169050919050565b6000613dba82613d58565b613dc48185613d63565b9350613dd4818560208601613d74565b613ddd81613d9e565b840191505092915050565b60006020820190508181036000830152613e028184613daf565b905092915050565b600060208284031215613e2057613e1f613bad565b5b6000613e2e84828501613cc7565b91505092915050565b600073ffffffffffffffffffffffffffffffffffffffff82169050919050565b6000613e6282613e37565b9050919050565b613e7281613e57565b82525050565b6000602082019050613e8d6000830184613e69565b92915050565b613e9c81613e57565b8114613ea757600080fd5b50565b600081359050613eb981613e93565b92915050565b60008060408385031215613ed657613ed5613bad565b5b6000613ee485828601613eaa565b9250506020613ef585828601613cc7565b9150509250929050565b613f0881613ca6565b82525050565b613f1781613cdc565b82525050565b600082825260208201905092915050565b6000613f3982613d58565b613f438185613f1d565b9350613f53818560208601613d74565b613f5c81613d9e565b840191505092915050565b600061016083016000830151613f806000860182613eff565b506020830151613f936020860182613f0e565b5060408301518482036040860152613fab8282613f2e565b91505060608301518482036060860152613fc58282613f2e565b91505060808301518482036080860152613fdf8282613f2e565b91505060a083015184820360a0860152613ff98282613f2e565b91505060c083015184820360c08601526140138282613f2e565b91505060e083015184820360e086015261402d8282613f2e565b9150506101008301518482036101008601526140498282613f2e565b9150506101208301518482036101208601526140658282613f2e565b91505061014083015161407c610140860182613eff565b508091505092915050565b600060208201905081810360008301526140a18184613f67565b905092915050565b6140b281613ca6565b82525050565b60006020820190506140cd60008301846140a9565b92915050565b6000806000606084860312156140ec576140eb613bad565b5b60006140fa86828701613eaa565b935050602061410b86828701613eaa565b925050604061411c86828701613cc7565b9150509250925092565b61412f81613c72565b811461413a57600080fd5b50565b60008135905061414c81614126565b92915050565b60006020828403121561416857614167613bad565b5b60006141768482850161413d565b91505092915050565b6000806040838503121561419657614195613bad565b5b60006141a48582860161413d565b92505060206141b585828601613eaa565b9150509250929050565b600080fd5b600080fd5b7f4e487b7100000000000000000000000000000000000000000000000000000000600052604160045260246000fd5b61420182613d9e565b810181811067ffffffffffffffff821117156142205761421f6141c9565b5b80604052505050565b6000614233613ba3565b905061423f82826141f8565b919050565b600067ffffffffffffffff82111561425f5761425e6141c9565b5b61426882613d9e565b9050602081019050919050565b82818337600083830152505050565b600061429761429284614244565b614229565b9050828152602081018484840111156142b3576142b26141c4565b5b6142be848285614275565b509392505050565b600082601f8301126142db576142da6141bf565b5b81356142eb848260208601614284565b91505092915050565b6000806040838503121561430b5761430a613bad565b5b600061431985828601613cc7565b925050602083013567ffffffffffffffff81111561433a57614339613bb2565b5b614346858286016142c6565b9150509250929050565b60006020828403121561436657614365613bad565b5b600061437484828501613eaa565b91505092915050565b6000806040838503121561439457614393613bad565b5b60006143a285828601613cc7565b92505060206143b385828601613cc7565b9150509250929050565b6143c681613c3c565b81146143d157600080fd5b50565b6000813590506143e3816143bd565b92915050565b60008060408385031215614400576143ff613bad565b5b600061440e85828601613eaa565b925050602061441f858286016143d4565b9150509250929050565b61443281613cdc565b82525050565b60006101608201905061444e600083018e6140a9565b61445b602083018d614429565b818103604083015261446d818c613daf565b90508181036060830152614481818b613daf565b90508181036080830152614495818a613daf565b905081810360a08301526144a98189613daf565b905081810360c08301526144bd8188613daf565b905081810360e08301526144d18187613daf565b90508181036101008301526144e68186613daf565b90508181036101208301526144fb8185613daf565b905061450b6101408301846140a9565b9c9b505050505050505050505050565b600067ffffffffffffffff821115614536576145356141c9565b5b61453f82613d9e565b9050602081019050919050565b600061455f61455a8461451b565b614229565b90508281526020810184848401111561457b5761457a6141c4565b5b614586848285614275565b509392505050565b600082601f8301126145a3576145a26141bf565b5b81356145b384826020860161454c565b91505092915050565b600080600080608085870312156145d6576145d5613bad565b5b60006145e487828801613eaa565b94505060206145f587828801613eaa565b935050604061460687828801613cc7565b925050606085013567ffffffffffffffff81111561462757614626613bb2565b5b6146338782880161458e565b91505092959194509250565b6000806040838503121561465657614655613bad565b5b600061466485828601613eaa565b925050602061467585828601613eaa565b9150509250929050565b7f4e487b7100000000000000000000000000000000000000000000000000000000600052601160045260246000fd5b60006146b982613cdc565b91506146c483613cdc565b9250828201905063ffffffff8111156146e0576146df61467f565b5b92915050565b7f4e487b7100000000000000000000000000000000000000000000000000000000600052602260045260246000fd5b6000600282049050600182168061472d57607f821691505b6020821081036147405761473f6146e6565b5b50919050565b7f4552433732313a20617070726f76616c20746f2063757272656e74206f776e6560008201527f7200000000000000000000000000000000000000000000000000000000000000602082015250565b60006147a2602183613d63565b91506147ad82614746565b604082019050919050565b600060208201905081810360008301526147d181614795565b9050919050565b7f4552433732313a20617070726f76652063616c6c6572206973206e6f7420746f60008201527f6b656e206f776e6572206f7220617070726f76656420666f7220616c6c000000602082015250565b6000614834603d83613d63565b915061483f826147d8565b604082019050919050565b6000602082019050818103600083015261486381614827565b9050919050565b600080fd5b600080fd5b600061488761488284614244565b614229565b9050828152602081018484840111156148a3576148a26141c4565b5b6148ae848285613d74565b509392505050565b600082601f8301126148cb576148ca6141bf565b5b81516148db848260208601614874565b91505092915050565b6000608082840312156148fa576148f961486a565b5b6149046080614229565b9050600082015167ffffffffffffffff8111156149245761492361486f565b5b614930848285016148b6565b600083015250602082015167ffffffffffffffff8111156149545761495361486f565b5b614960848285016148b6565b602083015250604082015167ffffffffffffffff8111156149845761498361486f565b5b614990848285016148b6565b604083015250606082015167ffffffffffffffff8111156149b4576149b361486f565b5b6149c0848285016148b6565b60608301525092915050565b6000602082840312156149e2576149e1613bad565b5b600082015167ffffffffffffffff811115614a00576149ff613bb2565b5b614a0c848285016148e4565b91505092915050565b7f4e487b7100000000000000000000000000000000000000000000000000000000600052601260045260246000fd5b6000614a4f82613ca6565b9150614a5a83613ca6565b925082614a6a57614a69614a15565b5b828206905092915050565b7f4e487b7100000000000000000000000000000000000000000000000000000000600052603260045260246000fd5b600081905092915050565b6000614aba82613d58565b614ac48185614aa4565b9350614ad4818560208601613d74565b80840191505092915050565b7f2f00000000000000000000000000000000000000000000000000000000000000600082015250565b6000614b16600183614aa4565b9150614b2182614ae0565b600182019050919050565b6000614b388287614aaf565b9150614b4382614b09565b9150614b4f8286614aaf565b9150614b5a82614b09565b9150614b668285614aaf565b9150614b7182614b09565b9150614b7d8284614aaf565b915081905095945050505050565b6000604082019050614ba060008301856140a9565b8181036020830152614bb28184613daf565b90509392505050565b60008190508160005260206000209050919050565b60006020601f8301049050919050565b600082821b905092915050565b600060088302614c1d7fffffffffffffffffffffffffffffffffffffffffffffffffffffffffffffffff82614be0565b614c278683614be0565b95508019841693508086168417925050509392505050565b6000819050919050565b6000614c64614c5f614c5a84613ca6565b614c3f565b613ca6565b9050919050565b6000819050919050565b614c7e83614c49565b614c92614c8a82614c6b565b848454614bed565b825550505050565b600090565b614ca7614c9a565b614cb2818484614c75565b505050565b5b81811015614cd657614ccb600082614c9f565b600181019050614cb8565b5050565b601f821115614d1b57614cec81614bbb565b614cf584614bd0565b81016020851015614d04578190505b614d18614d1085614bd0565b830182614cb7565b50505b505050565b600082821c905092915050565b6000614d3e60001984600802614d20565b1980831691505092915050565b6000614d578383614d2d565b9150826002028217905092915050565b614d7082613d58565b67ffffffffffffffff811115614d8957614d886141c9565b5b614d938254614715565b614d9e828285614cda565b600060209050601f831160018114614dd15760008415614dbf578287015190505b614dc98582614d4b565b865550614e31565b601f198416614ddf86614bbb565b60005b82811015614e0757848901518255600182019150602085019450602081019050614de2565b86831015614e245784890151614e20601f891682614d2d565b8355505b6001600288020188555050505b505050505050565b7f4552433732313a2063616c6c6572206973206e6f7420746f6b656e206f776e6560008201527f72206f7220617070726f76656400000000000000000000000000000000000000602082015250565b6000614e95602d83613d63565b9150614ea082614e39565b604082019050919050565b60006020820190508181036000830152614ec481614e88565b9050919050565b600081519050614eda81613cb0565b92915050565b600081519050614eef81613cec565b92915050565b60006101608284031215614f0c57614f0b61486a565b5b614f17610160614229565b90506000614f2784828501614ecb565b6000830152506020614f3b84828501614ee0565b602083015250604082015167ffffffffffffffff811115614f5f57614f5e61486f565b5b614f6b848285016148b6565b604083015250606082015167ffffffffffffffff811115614f8f57614f8e61486f565b5b614f9b848285016148b6565b606083015250608082015167ffffffffffffffff811115614fbf57614fbe61486f565b5b614fcb848285016148b6565b60808301525060a082015167ffffffffffffffff811115614fef57614fee61486f565b5b614ffb848285016148b6565b60a08301525060c082015167ffffffffffffffff81111561501f5761501e61486f565b5b61502b848285016148b6565b60c08301525060e082015167ffffffffffffffff81111561504f5761504e61486f565b5b61505b848285016148b6565b60e08301525061010082015167ffffffffffffffff8111156150805761507f61486f565b5b61508c848285016148b6565b6101008301525061012082015167ffffffffffffffff8111156150b2576150b161486f565b5b6150be848285016148b6565b610120830152506101406150d484828501614ecb565b6101408301525092915050565b6000602082840312156150f7576150f6613bad565b5b600082015167ffffffffffffffff81111561511557615114613bb2565b5b61512184828501614ef5565b91505092915050565b7f455243373231456e756d657261626c653a206f776e657220696e646578206f7560008201527f74206f6620626f756e6473000000000000000000000000000000000000000000602082015250565b6000615186602b83613d63565b91506151918261512a565b604082019050919050565b600060208201905081810360008301526151b581615179565b9050919050565b7f416363657373436f6e74726f6c3a2063616e206f6e6c792072656e6f756e636560008201527f20726f6c657320666f722073656c660000000000000000000000000000000000602082015250565b6000615218602f83613d63565b9150615223826151bc565b604082019050919050565b600060208201905081810360008301526152478161520b565b9050919050565b7f455243373231456e756d657261626c653a20676c6f62616c20696e646578206f60008201527f7574206f6620626f756e64730000000000000000000000000000000000000000602082015250565b60006152aa602c83613d63565b91506152b58261524e565b604082019050919050565b600060208201905081810360008301526152d98161529d565b9050919050565b7f4552433732313a20696e76616c696420746f6b656e2049440000000000000000600082015250565b6000615316601883613d63565b9150615321826152e0565b602082019050919050565b6000602082019050818103600083015261534581615309565b9050919050565b7f4552433732313a2061646472657373207a65726f206973206e6f74206120766160008201527f6c6964206f776e65720000000000000000000000000000000000000000000000602082015250565b60006153a8602983613d63565b91506153b38261534c565b604082019050919050565b600060208201905081810360008301526153d78161539b565b9050919050565b60006153e982613cdc565b91506153f483613cdc565b9250828203905063ffffffff8111156154105761540f61467f565b5b92915050565b600061542182613ca6565b915061542c83613ca6565b92508282019050808211156154445761544361467f565b5b92915050565b60006154568285614aaf565b91506154628284614aaf565b91508190509392505050565b600061547982613ca6565b915061548483613ca6565b92508261549457615493614a15565b5b828204905092915050565b60006154aa82613ca6565b91506154b583613ca6565b92508282026154c381613ca6565b915082820484148315176154da576154d961467f565b5b5092915050565b7f4552433732313a207472616e736665722066726f6d20696e636f72726563742060008201527f6f776e6572000000000000000000000000000000000000000000000000000000602082015250565b600061553d602583613d63565b9150615548826154e1565b604082019050919050565b6000602082019050818103600083015261556c81615530565b9050919050565b7f4552433732313a207472616e7366657220746f20746865207a65726f2061646460008201527f7265737300000000000000000000000000000000000000000000000000000000602082015250565b60006155cf602483613d63565b91506155da82615573565b604082019050919050565b600060208201905081810360008301526155fe816155c2565b9050919050565b7f4552433732313a20617070726f766520746f2063616c6c657200000000000000600082015250565b600061563b601983613d63565b915061564682615605565b602082019050919050565b6000602082019050818103600083015261566a8161562e565b9050919050565b7f4552433732313a207472616e7366657220746f206e6f6e20455243373231526560008201527f63656976657220696d706c656d656e7465720000000000000000000000000000602082015250565b60006156cd603283613d63565b91506156d882615671565b604082019050919050565b600060208201905081810360008301526156fc816156c0565b9050919050565b7f455243373231456e756d657261626c653a20636f6e736563757469766520747260008201527f616e7366657273206e6f7420737570706f727465640000000000000000000000602082015250565b600061575f603583613d63565b915061576a82615703565b604082019050919050565b6000602082019050818103600083015261578e81615752565b9050919050565b7f416363657373436f6e74726f6c3a206163636f756e7420000000000000000000600082015250565b60006157cb601783614aa4565b91506157d682615795565b601782019050919050565b7f206973206d697373696e6720726f6c6520000000000000000000000000000000600082015250565b6000615817601183614aa4565b9150615822826157e1565b601182019050919050565b6000615838826157be565b91506158448285614aaf565b915061584f8261580a565b915061585b8284614aaf565b91508190509392505050565b600081519050919050565b600082825260208201905092915050565b600061588e82615867565b6158988185615872565b93506158a8818560208601613d74565b6158b181613d9e565b840191505092915050565b60006080820190506158d16000830187613e69565b6158de6020830186613e69565b6158eb60408301856140a9565b81810360608301526158fd8184615883565b905095945050505050565b60008151905061591781613be3565b92915050565b60006020828403121561593357615932613bad565b5b600061594184828501615908565b91505092915050565b600061595582613ca6565b915061596083613ca6565b92508282039050818111156159785761597761467f565b5b92915050565b7f4e487b7100000000000000000000000000000000000000000000000000000000600052603160045260246000fd5b60006159b882613ca6565b9150600082036159cb576159ca61467f565b5b600182039050919050565b7f537472696e67733a20686578206c656e67746820696e73756666696369656e74600082015250565b6000615a0c602083613d63565b9150615a17826159d6565b602082019050919050565b60006020820190508181036000830152615a3b816159ff565b905091905056fe4142434445464748494a4b4c4d4e4f505152535455565758595a6162636465666768696a6b6c6d6e6f707172737475767778797a303132333435363738392b2fa26469706673582212209c2c316d47993205e9a1598e8563499f015dd5659d360e9d88f66ec7cf03ba0864736f6c63430008110033",
  "linkReferences": {},
  "deployedLinkReferences": {}
}