{
  "_format": "hh-sol-artifact-1",
  "contractName": "Metadata1",
  "sourceName": "contracts/Metadata1.sol",
  "abi": [
    {
      "inputs": [
        {
          "internalType": "address",
          "name": "admin",
          "type": "address"
        },
        {
          "internalType": "address",
          "name": "metadata2",
          "type": "address"
        }
      ],
      "stateMutability": "nonpayable",
      "type": "constructor"
    },
    {
      "anonymous": false,
      "inputs": [
        {
          "indexed": true,
          "internalType": "address",
          "name": "owner",
          "type": "address"
        },
        {
          "indexed": true,
          "internalType": "address",
          "name": "approved",
          "type": "address"
        },
        {
          "indexed": true,
          "internalType": "uint256",
          "name": "tokenId",
          "type": "uint256"
        }
      ],
      "name": "Approval",
      "type": "event"
    },
    {
      "anonymous": false,
      "inputs": [
        {
          "indexed": true,
          "internalType": "address",
          "name": "owner",
          "type": "address"
        },
        {
          "indexed": true,
          "internalType": "address",
          "name": "operator",
          "type": "address"
        },
        {
          "indexed": false,
          "internalType": "bool",
          "name": "approved",
          "type": "bool"
        }
      ],
      "name": "ApprovalForAll",
      "type": "event"
    },
    {
      "anonymous": false,
      "inputs": [
        {
          "indexed": true,
          "internalType": "bytes32",
          "name": "role",
          "type": "bytes32"
        },
        {
          "indexed": true,
          "internalType": "bytes32",
          "name": "previousAdminRole",
          "type": "bytes32"
        },
        {
          "indexed": true,
          "internalType": "bytes32",
          "name": "newAdminRole",
          "type": "bytes32"
        }
      ],
      "name": "RoleAdminChanged",
      "type": "event"
    },
    {
      "anonymous": false,
      "inputs": [
        {
          "indexed": true,
          "internalType": "bytes32",
          "name": "role",
          "type": "bytes32"
        },
        {
          "indexed": true,
          "internalType": "address",
          "name": "account",
          "type": "address"
        },
        {
          "indexed": true,
          "internalType": "address",
          "name": "sender",
          "type": "address"
        }
      ],
      "name": "RoleGranted",
      "type": "event"
    },
    {
      "anonymous": false,
      "inputs": [
        {
          "indexed": true,
          "internalType": "bytes32",
          "name": "role",
          "type": "bytes32"
        },
        {
          "indexed": true,
          "internalType": "address",
          "name": "account",
          "type": "address"
        },
        {
          "indexed": true,
          "internalType": "address",
          "name": "sender",
          "type": "address"
        }
      ],
      "name": "RoleRevoked",
      "type": "event"
    },
    {
      "anonymous": false,
      "inputs": [
        {
          "indexed": true,
          "internalType": "address",
          "name": "from",
          "type": "address"
        },
        {
          "indexed": true,
          "internalType": "address",
          "name": "to",
          "type": "address"
        },
        {
          "indexed": true,
          "internalType": "uint256",
          "name": "tokenId",
          "type": "uint256"
        }
      ],
      "name": "Transfer",
      "type": "event"
    },
    {
      "anonymous": false,
      "inputs": [
        {
          "indexed": false,
          "internalType": "uint256",
          "name": "",
          "type": "uint256"
        },
        {
          "components": [
            {
              "internalType": "uint256",
              "name": "id",
              "type": "uint256"
            },
            {
              "internalType": "uint32",
              "name": "spores",
              "type": "uint32"
            },
            {
              "internalType": "string",
              "name": "backgroundColor",
              "type": "string"
            },
            {
              "internalType": "string",
              "name": "head",
              "type": "string"
            },
            {
              "internalType": "string",
              "name": "eyes",
              "type": "string"
            },
            {
              "internalType": "string",
              "name": "mouth",
              "type": "string"
            },
            {
              "internalType": "string",
              "name": "element",
              "type": "string"
            },
            {
              "internalType": "string",
              "name": "weapon",
              "type": "string"
            },
            {
              "internalType": "string",
              "name": "armor",
              "type": "string"
            },
            {
              "internalType": "string",
              "name": "accessory",
              "type": "string"
            },
            {
              "internalType": "uint256",
              "name": "level",
              "type": "uint256"
            }
          ],
          "indexed": false,
          "internalType": "struct Metadata1.Mushroom",
          "name": "mushroom",
          "type": "tuple"
        }
      ],
      "name": "part1Got",
      "type": "event"
    },
    {
      "anonymous": false,
      "inputs": [
        {
          "indexed": false,
          "internalType": "uint256",
          "name": "tokenId",
          "type": "uint256"
        },
        {
          "indexed": false,
          "internalType": "string",
          "name": "part1",
          "type": "string"
        }
      ],
      "name": "part1Triggered",
      "type": "event"
    },
    {
      "anonymous": false,
      "inputs": [
        {
          "indexed": false,
          "internalType": "uint256",
          "name": "tokenId",
          "type": "uint256"
        },
        {
          "indexed": false,
          "internalType": "string",
          "name": "tokenURI",
          "type": "string"
        }
      ],
      "name": "tokenURIFound",
      "type": "event"
    },
    {
      "inputs": [],
      "name": "CONTRACT_ROLE",
      "outputs": [
        {
          "internalType": "bytes32",
          "name": "",
          "type": "bytes32"
        }
      ],
      "stateMutability": "view",
      "type": "function"
    },
    {
      "inputs": [],
      "name": "DEFAULT_ADMIN_ROLE",
      "outputs": [
        {
          "internalType": "bytes32",
          "name": "",
          "type": "bytes32"
        }
      ],
      "stateMutability": "view",
      "type": "function"
    },
    {
      "inputs": [],
      "name": "UPDATER_ROLE",
      "outputs": [
        {
          "internalType": "bytes32",
          "name": "",
          "type": "bytes32"
        }
      ],
      "stateMutability": "view",
      "type": "function"
    },
    {
      "inputs": [
        {
          "internalType": "uint256",
          "name": "",
          "type": "uint256"
        }
      ],
      "name": "_tokenURIs",
      "outputs": [
        {
          "internalType": "string",
          "name": "",
          "type": "string"
        }
      ],
      "stateMutability": "view",
      "type": "function"
    },
    {
      "inputs": [
        {
          "internalType": "address",
          "name": "to",
          "type": "address"
        },
        {
          "internalType": "uint256",
          "name": "tokenId",
          "type": "uint256"
        }
      ],
      "name": "approve",
      "outputs": [],
      "stateMutability": "nonpayable",
      "type": "function"
    },
    {
      "inputs": [
        {
          "internalType": "address",
          "name": "owner",
          "type": "address"
        }
      ],
      "name": "balanceOf",
      "outputs": [
        {
          "internalType": "uint256",
          "name": "",
          "type": "uint256"
        }
      ],
      "stateMutability": "view",
      "type": "function"
    },
    {
      "inputs": [
        {
          "internalType": "uint256",
          "name": "tokenId",
          "type": "uint256"
        }
      ],
      "name": "getApproved",
      "outputs": [
        {
          "internalType": "address",
          "name": "",
          "type": "address"
        }
      ],
      "stateMutability": "view",
      "type": "function"
    },
    {
      "inputs": [
        {
          "internalType": "uint256",
          "name": "_tokenId",
          "type": "uint256"
        }
      ],
      "name": "getData1",
      "outputs": [
        {
          "components": [
            {
              "internalType": "uint256",
              "name": "id",
              "type": "uint256"
            },
            {
              "internalType": "uint32",
              "name": "spores",
              "type": "uint32"
            },
            {
              "internalType": "string",
              "name": "backgroundColor",
              "type": "string"
            },
            {
              "internalType": "string",
              "name": "head",
              "type": "string"
            },
            {
              "internalType": "string",
              "name": "eyes",
              "type": "string"
            },
            {
              "internalType": "string",
              "name": "mouth",
              "type": "string"
            },
            {
              "internalType": "string",
              "name": "element",
              "type": "string"
            },
            {
              "internalType": "string",
              "name": "weapon",
              "type": "string"
            },
            {
              "internalType": "string",
              "name": "armor",
              "type": "string"
            },
            {
              "internalType": "string",
              "name": "accessory",
              "type": "string"
            },
            {
              "internalType": "uint256",
              "name": "level",
              "type": "uint256"
            }
          ],
          "internalType": "struct Metadata1.Mushroom",
          "name": "",
          "type": "tuple"
        }
      ],
      "stateMutability": "nonpayable",
      "type": "function"
    },
    {
      "inputs": [
        {
          "internalType": "bytes32",
          "name": "role",
          "type": "bytes32"
        }
      ],
      "name": "getRoleAdmin",
      "outputs": [
        {
          "internalType": "bytes32",
          "name": "",
          "type": "bytes32"
        }
      ],
      "stateMutability": "view",
      "type": "function"
    },
    {
      "inputs": [
        {
          "internalType": "bytes32",
          "name": "role",
          "type": "bytes32"
        },
        {
          "internalType": "address",
          "name": "account",
          "type": "address"
        }
      ],
      "name": "grantRole",
      "outputs": [],
      "stateMutability": "nonpayable",
      "type": "function"
    },
    {
      "inputs": [
        {
          "internalType": "uint256",
          "name": "_tokenId",
          "type": "uint256"
        }
      ],
      "name": "handleMint",
      "outputs": [],
      "stateMutability": "nonpayable",
      "type": "function"
    },
    {
      "inputs": [
        {
          "internalType": "bytes32",
          "name": "role",
          "type": "bytes32"
        },
        {
          "internalType": "address",
          "name": "account",
          "type": "address"
        }
      ],
      "name": "hasRole",
      "outputs": [
        {
          "internalType": "bool",
          "name": "",
          "type": "bool"
        }
      ],
      "stateMutability": "view",
      "type": "function"
    },
    {
      "inputs": [
        {
          "internalType": "address",
          "name": "owner",
          "type": "address"
        },
        {
          "internalType": "address",
          "name": "operator",
          "type": "address"
        }
      ],
      "name": "isApprovedForAll",
      "outputs": [
        {
          "internalType": "bool",
          "name": "",
          "type": "bool"
        }
      ],
      "stateMutability": "view",
      "type": "function"
    },
    {
      "inputs": [
        {
          "internalType": "uint256",
          "name": "",
          "type": "uint256"
        }
      ],
      "name": "mushroomAttributes",
      "outputs": [
        {
          "internalType": "uint256",
          "name": "id",
          "type": "uint256"
        },
        {
          "internalType": "uint32",
          "name": "spores",
          "type": "uint32"
        },
        {
          "internalType": "string",
          "name": "backgroundColor",
          "type": "string"
        },
        {
          "internalType": "string",
          "name": "head",
          "type": "string"
        },
        {
          "internalType": "string",
          "name": "eyes",
          "type": "string"
        },
        {
          "internalType": "string",
          "name": "mouth",
          "type": "string"
        },
        {
          "internalType": "string",
          "name": "element",
          "type": "string"
        },
        {
          "internalType": "string",
          "name": "weapon",
          "type": "string"
        },
        {
          "internalType": "string",
          "name": "armor",
          "type": "string"
        },
        {
          "internalType": "string",
          "name": "accessory",
          "type": "string"
        },
        {
          "internalType": "uint256",
          "name": "level",
          "type": "uint256"
        }
      ],
      "stateMutability": "view",
      "type": "function"
    },
    {
      "inputs": [],
      "name": "name",
      "outputs": [
        {
          "internalType": "string",
          "name": "",
          "type": "string"
        }
      ],
      "stateMutability": "view",
      "type": "function"
    },
    {
      "inputs": [
        {
          "internalType": "uint256",
          "name": "tokenId",
          "type": "uint256"
        }
      ],
      "name": "ownerOf",
      "outputs": [
        {
          "internalType": "address",
          "name": "",
          "type": "address"
        }
      ],
      "stateMutability": "view",
      "type": "function"
    },
    {
      "inputs": [
        {
          "internalType": "bytes32",
          "name": "role",
          "type": "bytes32"
        },
        {
          "internalType": "address",
          "name": "account",
          "type": "address"
        }
      ],
      "name": "renounceRole",
      "outputs": [],
      "stateMutability": "nonpayable",
      "type": "function"
    },
    {
      "inputs": [
        {
          "internalType": "bytes32",
          "name": "role",
          "type": "bytes32"
        },
        {
          "internalType": "address",
          "name": "account",
          "type": "address"
        }
      ],
      "name": "revokeRole",
      "outputs": [],
      "stateMutability": "nonpayable",
      "type": "function"
    },
    {
      "inputs": [
        {
          "internalType": "address",
          "name": "from",
          "type": "address"
        },
        {
          "internalType": "address",
          "name": "to",
          "type": "address"
        },
        {
          "internalType": "uint256",
          "name": "tokenId",
          "type": "uint256"
        }
      ],
      "name": "safeTransferFrom",
      "outputs": [],
      "stateMutability": "nonpayable",
      "type": "function"
    },
    {
      "inputs": [
        {
          "internalType": "address",
          "name": "from",
          "type": "address"
        },
        {
          "internalType": "address",
          "name": "to",
          "type": "address"
        },
        {
          "internalType": "uint256",
          "name": "tokenId",
          "type": "uint256"
        },
        {
          "internalType": "bytes",
          "name": "data",
          "type": "bytes"
        }
      ],
      "name": "safeTransferFrom",
      "outputs": [],
      "stateMutability": "nonpayable",
      "type": "function"
    },
    {
      "inputs": [
        {
          "internalType": "address",
          "name": "operator",
          "type": "address"
        },
        {
          "internalType": "bool",
          "name": "approved",
          "type": "bool"
        }
      ],
      "name": "setApprovalForAll",
      "outputs": [],
      "stateMutability": "nonpayable",
      "type": "function"
    },
    {
      "inputs": [
        {
          "internalType": "uint256",
          "name": "_tokenId",
          "type": "uint256"
        }
      ],
      "name": "setData1",
      "outputs": [
        {
          "internalType": "string",
          "name": "",
          "type": "string"
        }
      ],
      "stateMutability": "nonpayable",
      "type": "function"
    },
    {
      "inputs": [
        {
          "internalType": "bytes4",
          "name": "interfaceId",
          "type": "bytes4"
        }
      ],
      "name": "supportsInterface",
      "outputs": [
        {
          "internalType": "bool",
          "name": "",
          "type": "bool"
        }
      ],
      "stateMutability": "view",
      "type": "function"
    },
    {
      "inputs": [],
      "name": "symbol",
      "outputs": [
        {
          "internalType": "string",
          "name": "",
          "type": "string"
        }
      ],
      "stateMutability": "view",
      "type": "function"
    },
    {
      "inputs": [
        {
          "internalType": "uint256",
          "name": "index",
          "type": "uint256"
        }
      ],
      "name": "tokenByIndex",
      "outputs": [
        {
          "internalType": "uint256",
          "name": "",
          "type": "uint256"
        }
      ],
      "stateMutability": "view",
      "type": "function"
    },
    {
      "inputs": [
        {
          "internalType": "address",
          "name": "owner",
          "type": "address"
        },
        {
          "internalType": "uint256",
          "name": "index",
          "type": "uint256"
        }
      ],
      "name": "tokenOfOwnerByIndex",
      "outputs": [
        {
          "internalType": "uint256",
          "name": "",
          "type": "uint256"
        }
      ],
      "stateMutability": "view",
      "type": "function"
    },
    {
      "inputs": [
        {
          "internalType": "uint256",
          "name": "tokenId",
          "type": "uint256"
        }
      ],
      "name": "tokenURI",
      "outputs": [
        {
          "internalType": "string",
          "name": "",
          "type": "string"
        }
      ],
      "stateMutability": "view",
      "type": "function"
    },
    {
      "inputs": [],
      "name": "totalSupply",
      "outputs": [
        {
          "internalType": "uint256",
          "name": "",
          "type": "uint256"
        }
      ],
      "stateMutability": "view",
      "type": "function"
    },
    {
      "inputs": [
        {
          "internalType": "address",
          "name": "from",
          "type": "address"
        },
        {
          "internalType": "address",
          "name": "to",
          "type": "address"
        },
        {
          "internalType": "uint256",
          "name": "tokenId",
          "type": "uint256"
        }
      ],
      "name": "transferFrom",
      "outputs": [],
      "stateMutability": "nonpayable",
      "type": "function"
    }
  ],
  "bytecode": "0x60806040526040518061014001604052806040518060400160405280600381526020017f726564000000000000000000000000000000000000000000000000000000000081525081526020016040518060400160405280600681526020017f6f72616e6765000000000000000000000000000000000000000000000000000081525081526020016040518060400160405280600681526020017f79656c6c6f77000000000000000000000000000000000000000000000000000081525081526020016040518060400160405280600581526020017f677265656e00000000000000000000000000000000000000000000000000000081525081526020016040518060400160405280600481526020017f626c75650000000000000000000000000000000000000000000000000000000081525081526020016040518060400160405280600681526020017f707572706c65000000000000000000000000000000000000000000000000000081525081526020016040518060400160405280600481526020017f70696e6b0000000000000000000000000000000000000000000000000000000081525081526020016040518060400160405280600581526020017f626c61636b00000000000000000000000000000000000000000000000000000081525081526020016040518060400160405280600581526020017f776869746500000000000000000000000000000000000000000000000000000081525081526020016040518060400160405280600481526020017f6772617900000000000000000000000000000000000000000000000000000000815250815250600e90600a6200026e92919062000a4d565b5060405180608001604052806040518060400160405280600581526020017f526f756e6400000000000000000000000000000000000000000000000000000081525081526020016040518060400160405280600481526020017f4f76616c0000000000000000000000000000000000000000000000000000000081525081526020016040518060400160405280600881526020017f547269616e676c6500000000000000000000000000000000000000000000000081525081526020016040518060400160405280600481526020017f466c617400000000000000000000000000000000000000000000000000000000815250815250600f9060046200037692919062000aad565b506040518061010001604052806040518060400160405280600581526020017f457965203100000000000000000000000000000000000000000000000000000081525081526020016040518060400160405280600581526020017f457965203200000000000000000000000000000000000000000000000000000081525081526020016040518060400160405280600581526020017f457965203300000000000000000000000000000000000000000000000000000081525081526020016040518060400160405280600581526020017f457965203400000000000000000000000000000000000000000000000000000081525081526020016040518060400160405280600581526020017f457965203500000000000000000000000000000000000000000000000000000081525081526020016040518060400160405280600581526020017f457965203600000000000000000000000000000000000000000000000000000081525081526020016040518060400160405280600581526020017f457965203700000000000000000000000000000000000000000000000000000081525081526020016040518060400160405280600581526020017f457965203800000000000000000000000000000000000000000000000000000081525081525060109060086200056b92919062000b0d565b506040518061010001604052806040518060400160405280600781526020017f4d6f75746820310000000000000000000000000000000000000000000000000081525081526020016040518060400160405280600781526020017f4d6f75746820320000000000000000000000000000000000000000000000000081525081526020016040518060400160405280600781526020017f4d6f75746820330000000000000000000000000000000000000000000000000081525081526020016040518060400160405280600781526020017f4d6f75746820340000000000000000000000000000000000000000000000000081525081526020016040518060400160405280600781526020017f4d6f75746820350000000000000000000000000000000000000000000000000081525081526020016040518060400160405280600781526020017f4d6f75746820360000000000000000000000000000000000000000000000000081525081526020016040518060400160405280600781526020017f4d6f75746820370000000000000000000000000000000000000000000000000081525081526020016040518060400160405280600781526020017f4d6f75746820380000000000000000000000000000000000000000000000000081525081525060119060086200076092919062000b0d565b503480156200076e57600080fd5b506040516200633838038062006338833981810160405281019062000794919062000c64565b6040518060400160405280600f81526020017f4d696e74696e674d757368726f6f6d00000000000000000000000000000000008152506040518060400160405280600281526020017f4d4d000000000000000000000000000000000000000000000000000000000000815250816000908162000811919062000f25565b50806001908162000823919062000f25565b5050506200083b6000801b83620008e860201b60201c565b6200086d7f73e573f9566d61418a34d5de3ff49360f9c51fec37f7486551670290f6285dab33620008e860201b60201c565b6200089f7f364d3d7565c7a8300c96fd53e065d19b65848d7b23b3191adcd55621c744223c33620008e860201b60201c565b80600b60006101000a81548173ffffffffffffffffffffffffffffffffffffffff021916908373ffffffffffffffffffffffffffffffffffffffff16021790555050506200100c565b620008fa8282620009da60201b60201c565b620009d6576001600a600084815260200190815260200160002060000160008373ffffffffffffffffffffffffffffffffffffffff1673ffffffffffffffffffffffffffffffffffffffff16815260200190815260200160002060006101000a81548160ff0219169083151502179055506200097b62000a4560201b60201c565b73ffffffffffffffffffffffffffffffffffffffff168173ffffffffffffffffffffffffffffffffffffffff16837f2f8788117e7eff1d82e926ec794901d17c78024a50270940304540a733656f0d60405160405180910390a45b5050565b6000600a600084815260200190815260200160002060000160008373ffffffffffffffffffffffffffffffffffffffff1673ffffffffffffffffffffffffffffffffffffffff16815260200190815260200160002060009054906101000a900460ff16905092915050565b600033905090565b82805482825590600052602060002090810192821562000a9a579160200282015b8281111562000a9957825182908162000a88919062000f25565b509160200191906001019062000a6e565b5b50905062000aa9919062000b6d565b5090565b82805482825590600052602060002090810192821562000afa579160200282015b8281111562000af957825182908162000ae8919062000f25565b509160200191906001019062000ace565b5b50905062000b09919062000b6d565b5090565b82805482825590600052602060002090810192821562000b5a579160200282015b8281111562000b5957825182908162000b48919062000f25565b509160200191906001019062000b2e565b5b50905062000b69919062000b6d565b5090565b5b8082111562000b91576000818162000b87919062000b95565b5060010162000b6e565b5090565b50805462000ba39062000d14565b6000825580601f1062000bb7575062000bd8565b601f01602090049060005260206000209081019062000bd7919062000bdb565b5b50565b5b8082111562000bf657600081600090555060010162000bdc565b5090565b600080fd5b600073ffffffffffffffffffffffffffffffffffffffff82169050919050565b600062000c2c8262000bff565b9050919050565b62000c3e8162000c1f565b811462000c4a57600080fd5b50565b60008151905062000c5e8162000c33565b92915050565b6000806040838503121562000c7e5762000c7d62000bfa565b5b600062000c8e8582860162000c4d565b925050602062000ca18582860162000c4d565b9150509250929050565b600081519050919050565b7f4e487b7100000000000000000000000000000000000000000000000000000000600052604160045260246000fd5b7f4e487b7100000000000000000000000000000000000000000000000000000000600052602260045260246000fd5b6000600282049050600182168062000d2d57607f821691505b60208210810362000d435762000d4262000ce5565b5b50919050565b60008190508160005260206000209050919050565b60006020601f8301049050919050565b600082821b905092915050565b60006008830262000dad7fffffffffffffffffffffffffffffffffffffffffffffffffffffffffffffffff8262000d6e565b62000db9868362000d6e565b95508019841693508086168417925050509392505050565b6000819050919050565b6000819050919050565b600062000e0662000e0062000dfa8462000dd1565b62000ddb565b62000dd1565b9050919050565b6000819050919050565b62000e228362000de5565b62000e3a62000e318262000e0d565b84845462000d7b565b825550505050565b600090565b62000e5162000e42565b62000e5e81848462000e17565b505050565b5b8181101562000e865762000e7a60008262000e47565b60018101905062000e64565b5050565b601f82111562000ed55762000e9f8162000d49565b62000eaa8462000d5e565b8101602085101562000eba578190505b62000ed262000ec98562000d5e565b83018262000e63565b50505b505050565b600082821c905092915050565b600062000efa6000198460080262000eda565b1980831691505092915050565b600062000f15838362000ee7565b9150826002028217905092915050565b62000f308262000cab565b67ffffffffffffffff81111562000f4c5762000f4b62000cb6565b5b62000f58825462000d14565b62000f6582828562000e8a565b600060209050601f83116001811462000f9d576000841562000f88578287015190505b62000f94858262000f07565b86555062001004565b601f19841662000fad8662000d49565b60005b8281101562000fd75784890151825560018201915060208501945060208101905062000fb0565b8683101562000ff7578489015162000ff3601f89168262000ee7565b8355505b6001600288020188555050505b505050505050565b61531c806200101c6000396000f3fe608060405234801561001057600080fd5b50600436106101cf5760003560e01c806342842e0e11610104578063a217fddf116100a2578063c87b56dd11610071578063c87b56dd14610582578063d547741f146105b2578063e985e9c5146105ce578063f25c8077146105fe576101cf565b8063a217fddf146104f2578063a22cb46514610510578063a33202771461052c578063b88d4fde14610566576101cf565b80636352211e116100de5780636352211e1461044457806370a082311461047457806391d14854146104a457806395d89b41146104d4576101cf565b806342842e0e146103da57806347e63380146103f65780634f6ccce714610414576101cf565b806318160ddd116101715780632b70c17d1161014b5780632b70c17d146103565780632f2ff15d146103725780632f745c591461038e57806336568abe146103be576101cf565b806318160ddd146102ec57806323b872dd1461030a578063248a9ca314610326576101cf565b8063081812fc116101ad578063081812fc14610240578063095ea7b3146102705780630bada3851461028c5780630bb78ec1146102bc576101cf565b806301ffc9a7146101d457806303fe46ab1461020457806306fdde0314610222575b600080fd5b6101ee60048036038101906101e99190613871565b61062e565b6040516101fb91906138b9565b60405180910390f35b61020c610640565b60405161021991906138ed565b60405180910390f35b61022a610664565b6040516102379190613998565b60405180910390f35b61025a600480360381019061025591906139f0565b6106f6565b6040516102679190613a5e565b60405180910390f35b61028a60048036038101906102859190613aa5565b61073c565b005b6102a660048036038101906102a191906139f0565b610853565b6040516102b39190613998565b60405180910390f35b6102d660048036038101906102d191906139f0565b610dc3565b6040516102e39190613998565b60405180910390f35b6102f4610e63565b6040516103019190613af4565b60405180910390f35b610324600480360381019061031f9190613b0f565b610e70565b005b610340600480360381019061033b9190613b8e565b610ed0565b60405161034d91906138ed565b60405180910390f35b610370600480360381019061036b91906139f0565b610ef0565b005b61038c60048036038101906103879190613bbb565b610f75565b005b6103a860048036038101906103a39190613aa5565b610f96565b6040516103b59190613af4565b60405180910390f35b6103d860048036038101906103d39190613bbb565b61103b565b005b6103f460048036038101906103ef9190613b0f565b6110be565b005b6103fe6110de565b60405161040b91906138ed565b60405180910390f35b61042e600480360381019061042991906139f0565b611102565b60405161043b9190613af4565b60405180910390f35b61045e600480360381019061045991906139f0565b611173565b60405161046b9190613a5e565b60405180910390f35b61048e60048036038101906104899190613bfb565b6111f9565b60405161049b9190613af4565b60405180910390f35b6104be60048036038101906104b99190613bbb565b6112b0565b6040516104cb91906138b9565b60405180910390f35b6104dc61131b565b6040516104e99190613998565b60405180910390f35b6104fa6113ad565b60405161050791906138ed565b60405180910390f35b61052a60048036038101906105259190613c54565b6113b4565b005b610546600480360381019061054191906139f0565b6113ca565b60405161055d9b9a99989796959493929190613cb3565b60405180910390f35b610580600480360381019061057b9190613ecb565b611874565b005b61059c600480360381019061059791906139f0565b6118d6565b6040516105a99190613998565b60405180910390f35b6105cc60048036038101906105c79190613bbb565b61193e565b005b6105e860048036038101906105e39190613f4e565b61195f565b6040516105f591906138b9565b60405180910390f35b610618600480360381019061061391906139f0565b6119f3565b6040516106259190614116565b60405180910390f35b600061063982611eeb565b9050919050565b7f364d3d7565c7a8300c96fd53e065d19b65848d7b23b3191adcd55621c744223c81565b60606000805461067390614167565b80601f016020809104026020016040519081016040528092919081815260200182805461069f90614167565b80156106ec5780601f106106c1576101008083540402835291602001916106ec565b820191906000526020600020905b8154815290600101906020018083116106cf57829003601f168201915b5050505050905090565b600061070182611f65565b6004600083815260200190815260200160002060009054906101000a900473ffffffffffffffffffffffffffffffffffffffff169050919050565b600061074782611173565b90508073ffffffffffffffffffffffffffffffffffffffff168373ffffffffffffffffffffffffffffffffffffffff16036107b7576040517f08c379a00000000000000000000000000000000000000000000000000000000081526004016107ae9061420a565b60405180910390fd5b8073ffffffffffffffffffffffffffffffffffffffff166107d6611fb0565b73ffffffffffffffffffffffffffffffffffffffff1614806108055750610804816107ff611fb0565b61195f565b5b610844576040517f08c379a000000000000000000000000000000000000000000000000000000000815260040161083b9061429c565b60405180910390fd5b61084e8383611fb8565b505050565b60606000600b60009054906101000a900473ffffffffffffffffffffffffffffffffffffffff1673ffffffffffffffffffffffffffffffffffffffff166301d61e5d846040518263ffffffff1660e01b81526004016108b29190613af4565b600060405180830381865afa1580156108cf573d6000803e3d6000fd5b505050506040513d6000823e3d601f19601f820116820180604052508101906108f8919061444f565b90506000600e80805490508561090e91906144c7565b8154811061091f5761091e6144f8565b5b90600052602060002001805461093490614167565b80601f016020809104026020016040519081016040528092919081815260200182805461096090614167565b80156109ad5780601f10610982576101008083540402835291602001916109ad565b820191906000526020600020905b81548152906001019060200180831161099057829003601f168201915b505050505090506000600f8080549050866109c891906144c7565b815481106109d9576109d86144f8565b5b9060005260206000200180546109ee90614167565b80601f0160208091040260200160405190810160405280929190818152602001828054610a1a90614167565b8015610a675780601f10610a3c57610100808354040283529160200191610a67565b820191906000526020600020905b815481529060010190602001808311610a4a57829003601f168201915b5050505050905060006010808054905087610a8291906144c7565b81548110610a9357610a926144f8565b5b906000526020600020018054610aa890614167565b80601f0160208091040260200160405190810160405280929190818152602001828054610ad490614167565b8015610b215780601f10610af657610100808354040283529160200191610b21565b820191906000526020600020905b815481529060010190602001808311610b0457829003601f168201915b5050505050905060006011808054905088610b3c91906144c7565b81548110610b4d57610b4c6144f8565b5b906000526020600020018054610b6290614167565b80601f0160208091040260200160405190810160405280929190818152602001828054610b8e90614167565b8015610bdb5780601f10610bb057610100808354040283529160200191610bdb565b820191906000526020600020905b815481529060010190602001808311610bbe57829003601f168201915b50505050509050604051806101600160405280888152602001600063ffffffff168152602001858152602001848152602001838152602001828152602001866000015181526020018660200151815260200186604001518152602001866060015181526020016000815250600c60008981526020019081526020016000206000820151816000015560208201518160010160006101000a81548163ffffffff021916908363ffffffff1602179055506040820151816002019081610c9f91906146d3565b506060820151816003019081610cb591906146d3565b506080820151816004019081610ccb91906146d3565b5060a0820151816005019081610ce191906146d3565b5060c0820151816006019081610cf791906146d3565b5060e0820151816007019081610d0d91906146d3565b50610100820151816008019081610d2491906146d3565b50610120820151816009019081610d3b91906146d3565b5061014082015181600a01559050506000610d7a85858585604051602001610d66949392919061482d565b604051602081830303815290604052612071565b90507f03e60bc180a10271506812ce8c16f6b00421ee6e475fce015115c9878dc603748882604051610dad92919061488c565b60405180910390a1809650505050505050919050565b600d6020528060005260406000206000915090508054610de290614167565b80601f0160208091040260200160405190810160405280929190818152602001828054610e0e90614167565b8015610e5b5780601f10610e3057610100808354040283529160200191610e5b565b820191906000526020600020905b815481529060010190602001808311610e3e57829003601f168201915b505050505081565b6000600880549050905090565b610e81610e7b611fb0565b826121d4565b610ec0576040517f08c379a0000000000000000000000000000000000000000000000000000000008152600401610eb79061492e565b60405180910390fd5b610ecb838383612269565b505050565b6000600a6000838152602001908152602001600020600101549050919050565b3073ffffffffffffffffffffffffffffffffffffffff16630bada385826040518263ffffffff1660e01b8152600401610f299190613af4565b6000604051808303816000875af1158015610f48573d6000803e3d6000fd5b505050506040513d6000823e3d601f19601f82011682018060405250810190610f71919061494e565b5050565b610f7e82610ed0565b610f8781612562565b610f918383612576565b505050565b6000610fa1836111f9565b8210610fe2576040517f08c379a0000000000000000000000000000000000000000000000000000000008152600401610fd990614a09565b60405180910390fd5b600660008473ffffffffffffffffffffffffffffffffffffffff1673ffffffffffffffffffffffffffffffffffffffff168152602001908152602001600020600083815260200190815260200160002054905092915050565b611043611fb0565b73ffffffffffffffffffffffffffffffffffffffff168173ffffffffffffffffffffffffffffffffffffffff16146110b0576040517f08c379a00000000000000000000000000000000000000000000000000000000081526004016110a790614a9b565b60405180910390fd5b6110ba8282612657565b5050565b6110d983838360405180602001604052806000815250611874565b505050565b7f73e573f9566d61418a34d5de3ff49360f9c51fec37f7486551670290f6285dab81565b600061110c610e63565b821061114d576040517f08c379a000000000000000000000000000000000000000000000000000000000815260040161114490614b2d565b60405180910390fd5b60088281548110611161576111606144f8565b5b90600052602060002001549050919050565b60008061117f83612739565b9050600073ffffffffffffffffffffffffffffffffffffffff168173ffffffffffffffffffffffffffffffffffffffff16036111f0576040517f08c379a00000000000000000000000000000000000000000000000000000000081526004016111e790614b99565b60405180910390fd5b80915050919050565b60008073ffffffffffffffffffffffffffffffffffffffff168273ffffffffffffffffffffffffffffffffffffffff1603611269576040517f08c379a000000000000000000000000000000000000000000000000000000000815260040161126090614c2b565b60405180910390fd5b600360008373ffffffffffffffffffffffffffffffffffffffff1673ffffffffffffffffffffffffffffffffffffffff168152602001908152602001600020549050919050565b6000600a600084815260200190815260200160002060000160008373ffffffffffffffffffffffffffffffffffffffff1673ffffffffffffffffffffffffffffffffffffffff16815260200190815260200160002060009054906101000a900460ff16905092915050565b60606001805461132a90614167565b80601f016020809104026020016040519081016040528092919081815260200182805461135690614167565b80156113a35780601f10611378576101008083540402835291602001916113a3565b820191906000526020600020905b81548152906001019060200180831161138657829003601f168201915b5050505050905090565b6000801b81565b6113c66113bf611fb0565b8383612776565b5050565b600c6020528060005260406000206000915090508060000154908060010160009054906101000a900463ffffffff169080600201805461140990614167565b80601f016020809104026020016040519081016040528092919081815260200182805461143590614167565b80156114825780601f1061145757610100808354040283529160200191611482565b820191906000526020600020905b81548152906001019060200180831161146557829003601f168201915b50505050509080600301805461149790614167565b80601f01602080910402602001604051908101604052809291908181526020018280546114c390614167565b80156115105780601f106114e557610100808354040283529160200191611510565b820191906000526020600020905b8154815290600101906020018083116114f357829003601f168201915b50505050509080600401805461152590614167565b80601f016020809104026020016040519081016040528092919081815260200182805461155190614167565b801561159e5780601f106115735761010080835404028352916020019161159e565b820191906000526020600020905b81548152906001019060200180831161158157829003601f168201915b5050505050908060050180546115b390614167565b80601f01602080910402602001604051908101604052809291908181526020018280546115df90614167565b801561162c5780601f106116015761010080835404028352916020019161162c565b820191906000526020600020905b81548152906001019060200180831161160f57829003601f168201915b50505050509080600601805461164190614167565b80601f016020809104026020016040519081016040528092919081815260200182805461166d90614167565b80156116ba5780601f1061168f576101008083540402835291602001916116ba565b820191906000526020600020905b81548152906001019060200180831161169d57829003601f168201915b5050505050908060070180546116cf90614167565b80601f01602080910402602001604051908101604052809291908181526020018280546116fb90614167565b80156117485780601f1061171d57610100808354040283529160200191611748565b820191906000526020600020905b81548152906001019060200180831161172b57829003601f168201915b50505050509080600801805461175d90614167565b80601f016020809104026020016040519081016040528092919081815260200182805461178990614167565b80156117d65780601f106117ab576101008083540402835291602001916117d6565b820191906000526020600020905b8154815290600101906020018083116117b957829003601f168201915b5050505050908060090180546117eb90614167565b80601f016020809104026020016040519081016040528092919081815260200182805461181790614167565b80156118645780601f1061183957610100808354040283529160200191611864565b820191906000526020600020905b81548152906001019060200180831161184757829003601f168201915b50505050509080600a015490508b565b61188561187f611fb0565b836121d4565b6118c4576040517f08c379a00000000000000000000000000000000000000000000000000000000081526004016118bb9061492e565b60405180910390fd5b6118d0848484846128e2565b50505050565b60606118e182611f65565b60006118eb61293e565b9050600081511161190b5760405180602001604052806000815250611936565b8061191584612955565b604051602001611926929190614c4b565b6040516020818303038152906040525b915050919050565b61194782610ed0565b61195081612562565b61195a8383612657565b505050565b6000600560008473ffffffffffffffffffffffffffffffffffffffff1673ffffffffffffffffffffffffffffffffffffffff16815260200190815260200160002060008373ffffffffffffffffffffffffffffffffffffffff1673ffffffffffffffffffffffffffffffffffffffff16815260200190815260200160002060009054906101000a900460ff16905092915050565b6119fb6137a5565b600c600083815260200190815260200160002060405180610160016040529081600082015481526020016001820160009054906101000a900463ffffffff1663ffffffff1663ffffffff168152602001600282018054611a5a90614167565b80601f0160208091040260200160405190810160405280929190818152602001828054611a8690614167565b8015611ad35780601f10611aa857610100808354040283529160200191611ad3565b820191906000526020600020905b815481529060010190602001808311611ab657829003601f168201915b50505050508152602001600382018054611aec90614167565b80601f0160208091040260200160405190810160405280929190818152602001828054611b1890614167565b8015611b655780601f10611b3a57610100808354040283529160200191611b65565b820191906000526020600020905b815481529060010190602001808311611b4857829003601f168201915b50505050508152602001600482018054611b7e90614167565b80601f0160208091040260200160405190810160405280929190818152602001828054611baa90614167565b8015611bf75780601f10611bcc57610100808354040283529160200191611bf7565b820191906000526020600020905b815481529060010190602001808311611bda57829003601f168201915b50505050508152602001600582018054611c1090614167565b80601f0160208091040260200160405190810160405280929190818152602001828054611c3c90614167565b8015611c895780601f10611c5e57610100808354040283529160200191611c89565b820191906000526020600020905b815481529060010190602001808311611c6c57829003601f168201915b50505050508152602001600682018054611ca290614167565b80601f0160208091040260200160405190810160405280929190818152602001828054611cce90614167565b8015611d1b5780601f10611cf057610100808354040283529160200191611d1b565b820191906000526020600020905b815481529060010190602001808311611cfe57829003601f168201915b50505050508152602001600782018054611d3490614167565b80601f0160208091040260200160405190810160405280929190818152602001828054611d6090614167565b8015611dad5780601f10611d8257610100808354040283529160200191611dad565b820191906000526020600020905b815481529060010190602001808311611d9057829003601f168201915b50505050508152602001600882018054611dc690614167565b80601f0160208091040260200160405190810160405280929190818152602001828054611df290614167565b8015611e3f5780601f10611e1457610100808354040283529160200191611e3f565b820191906000526020600020905b815481529060010190602001808311611e2257829003601f168201915b50505050508152602001600982018054611e5890614167565b80601f0160208091040260200160405190810160405280929190818152602001828054611e8490614167565b8015611ed15780601f10611ea657610100808354040283529160200191611ed1565b820191906000526020600020905b815481529060010190602001808311611eb457829003601f168201915b50505050508152602001600a820154815250509050919050565b60007f7965db0b000000000000000000000000000000000000000000000000000000007bffffffffffffffffffffffffffffffffffffffffffffffffffffffff1916827bffffffffffffffffffffffffffffffffffffffffffffffffffffffff19161480611f5e5750611f5d82612a23565b5b9050919050565b611f6e81612a9d565b611fad576040517f08c379a0000000000000000000000000000000000000000000000000000000008152600401611fa490614b99565b60405180910390fd5b50565b600033905090565b816004600083815260200190815260200160002060006101000a81548173ffffffffffffffffffffffffffffffffffffffff021916908373ffffffffffffffffffffffffffffffffffffffff160217905550808273ffffffffffffffffffffffffffffffffffffffff1661202b83611173565b73ffffffffffffffffffffffffffffffffffffffff167f8c5be1e5ebec7d5bd14f71427d1e84f3dd0314c0f7b2291e5b200ac8c7c3b92560405160405180910390a45050565b60606000825103612093576040518060200160405280600081525090506121cf565b60006040518060600160405280604081526020016152a760409139905060006003600285516120c29190614c9e565b6120cc9190614cd2565b60046120d89190614d03565b67ffffffffffffffff8111156120f1576120f0613da0565b5b6040519080825280601f01601f1916602001820160405280156121235781602001600182028036833780820191505090505b509050600182016020820185865187015b8082101561218f576003820191508151603f8160121c168501518453600184019350603f81600c1c168501518453600184019350603f8160061c168501518453600184019350603f8116850151845360018401935050612134565b50506003865106600181146121ab57600281146121be576121c6565b603d6001830353603d60028303536121c6565b603d60018303535b50505080925050505b919050565b6000806121e083611173565b90508073ffffffffffffffffffffffffffffffffffffffff168473ffffffffffffffffffffffffffffffffffffffff1614806122225750612221818561195f565b5b8061226057508373ffffffffffffffffffffffffffffffffffffffff16612248846106f6565b73ffffffffffffffffffffffffffffffffffffffff16145b91505092915050565b8273ffffffffffffffffffffffffffffffffffffffff1661228982611173565b73ffffffffffffffffffffffffffffffffffffffff16146122df576040517f08c379a00000000000000000000000000000000000000000000000000000000081526004016122d690614db7565b60405180910390fd5b600073ffffffffffffffffffffffffffffffffffffffff168273ffffffffffffffffffffffffffffffffffffffff160361234e576040517f08c379a000000000000000000000000000000000000000000000000000000000815260040161234590614e49565b60405180910390fd5b61235b8383836001612ade565b8273ffffffffffffffffffffffffffffffffffffffff1661237b82611173565b73ffffffffffffffffffffffffffffffffffffffff16146123d1576040517f08c379a00000000000000000000000000000000000000000000000000000000081526004016123c890614db7565b60405180910390fd5b6004600082815260200190815260200160002060006101000a81549073ffffffffffffffffffffffffffffffffffffffff02191690556001600360008573ffffffffffffffffffffffffffffffffffffffff1673ffffffffffffffffffffffffffffffffffffffff168152602001908152602001600020600082825403925050819055506001600360008473ffffffffffffffffffffffffffffffffffffffff1673ffffffffffffffffffffffffffffffffffffffff16815260200190815260200160002060008282540192505081905550816002600083815260200190815260200160002060006101000a81548173ffffffffffffffffffffffffffffffffffffffff021916908373ffffffffffffffffffffffffffffffffffffffff160217905550808273ffffffffffffffffffffffffffffffffffffffff168473ffffffffffffffffffffffffffffffffffffffff167fddf252ad1be2c89b69c2b068fc378daa952ba7f163c4a11628f55a4df523b3ef60405160405180910390a461255d8383836001612c3c565b505050565b6125738161256e611fb0565b612c42565b50565b61258082826112b0565b612653576001600a600084815260200190815260200160002060000160008373ffffffffffffffffffffffffffffffffffffffff1673ffffffffffffffffffffffffffffffffffffffff16815260200190815260200160002060006101000a81548160ff0219169083151502179055506125f8611fb0565b73ffffffffffffffffffffffffffffffffffffffff168173ffffffffffffffffffffffffffffffffffffffff16837f2f8788117e7eff1d82e926ec794901d17c78024a50270940304540a733656f0d60405160405180910390a45b5050565b61266182826112b0565b15612735576000600a600084815260200190815260200160002060000160008373ffffffffffffffffffffffffffffffffffffffff1673ffffffffffffffffffffffffffffffffffffffff16815260200190815260200160002060006101000a81548160ff0219169083151502179055506126da611fb0565b73ffffffffffffffffffffffffffffffffffffffff168173ffffffffffffffffffffffffffffffffffffffff16837ff6391f5c32d9c69d2a47ea670b442974b53935d1edc7fd64eb21e047a839171b60405160405180910390a45b5050565b60006002600083815260200190815260200160002060009054906101000a900473ffffffffffffffffffffffffffffffffffffffff169050919050565b8173ffffffffffffffffffffffffffffffffffffffff168373ffffffffffffffffffffffffffffffffffffffff16036127e4576040517f08c379a00000000000000000000000000000000000000000000000000000000081526004016127db90614eb5565b60405180910390fd5b80600560008573ffffffffffffffffffffffffffffffffffffffff1673ffffffffffffffffffffffffffffffffffffffff16815260200190815260200160002060008473ffffffffffffffffffffffffffffffffffffffff1673ffffffffffffffffffffffffffffffffffffffff16815260200190815260200160002060006101000a81548160ff0219169083151502179055508173ffffffffffffffffffffffffffffffffffffffff168373ffffffffffffffffffffffffffffffffffffffff167f17307eab39ab6107e8899845ad3d59bd9653f200f220920489ca2b5937696c31836040516128d591906138b9565b60405180910390a3505050565b6128ed848484612269565b6128f984848484612cc7565b612938576040517f08c379a000000000000000000000000000000000000000000000000000000000815260040161292f90614f47565b60405180910390fd5b50505050565b606060405180602001604052806000815250905090565b60606000600161296484612e4e565b01905060008167ffffffffffffffff81111561298357612982613da0565b5b6040519080825280601f01601f1916602001820160405280156129b55781602001600182028036833780820191505090505b509050600082602001820190505b600115612a18578080600190039150507f3031323334353637383961626364656600000000000000000000000000000000600a86061a8153600a8581612a0c57612a0b614498565b5b049450600085036129c3575b819350505050919050565b60007f780e9d63000000000000000000000000000000000000000000000000000000007bffffffffffffffffffffffffffffffffffffffffffffffffffffffff1916827bffffffffffffffffffffffffffffffffffffffffffffffffffffffff19161480612a965750612a9582612fa1565b5b9050919050565b60008073ffffffffffffffffffffffffffffffffffffffff16612abf83612739565b73ffffffffffffffffffffffffffffffffffffffff1614159050919050565b612aea84848484613083565b6001811115612b2e576040517f08c379a0000000000000000000000000000000000000000000000000000000008152600401612b2590614fd9565b60405180910390fd5b6000829050600073ffffffffffffffffffffffffffffffffffffffff168573ffffffffffffffffffffffffffffffffffffffff1603612b7557612b70816131a9565b612bb4565b8373ffffffffffffffffffffffffffffffffffffffff168573ffffffffffffffffffffffffffffffffffffffff1614612bb357612bb285826131f2565b5b5b600073ffffffffffffffffffffffffffffffffffffffff168473ffffffffffffffffffffffffffffffffffffffff1603612bf657612bf18161335f565b612c35565b8473ffffffffffffffffffffffffffffffffffffffff168473ffffffffffffffffffffffffffffffffffffffff1614612c3457612c338482613430565b5b5b5050505050565b50505050565b612c4c82826112b0565b612cc357612c59816134af565b612c678360001c60206134dc565b604051602001612c78929190615091565b6040516020818303038152906040526040517f08c379a0000000000000000000000000000000000000000000000000000000008152600401612cba9190613998565b60405180910390fd5b5050565b6000612ce88473ffffffffffffffffffffffffffffffffffffffff16613718565b15612e41578373ffffffffffffffffffffffffffffffffffffffff1663150b7a02612d11611fb0565b8786866040518563ffffffff1660e01b8152600401612d339493929190615120565b6020604051808303816000875af1925050508015612d6f57506040513d601f19601f82011682018060405250810190612d6c9190615181565b60015b612df1573d8060008114612d9f576040519150601f19603f3d011682016040523d82523d6000602084013e612da4565b606091505b506000815103612de9576040517f08c379a0000000000000000000000000000000000000000000000000000000008152600401612de090614f47565b60405180910390fd5b805181602001fd5b63150b7a0260e01b7bffffffffffffffffffffffffffffffffffffffffffffffffffffffff1916817bffffffffffffffffffffffffffffffffffffffffffffffffffffffff191614915050612e46565b600190505b949350505050565b600080600090507a184f03e93ff9f4daa797ed6e38ed64bf6a1f0100000000000000008310612eac577a184f03e93ff9f4daa797ed6e38ed64bf6a1f0100000000000000008381612ea257612ea1614498565b5b0492506040810190505b6d04ee2d6d415b85acef81000000008310612ee9576d04ee2d6d415b85acef81000000008381612edf57612ede614498565b5b0492506020810190505b662386f26fc100008310612f1857662386f26fc100008381612f0e57612f0d614498565b5b0492506010810190505b6305f5e1008310612f41576305f5e1008381612f3757612f36614498565b5b0492506008810190505b6127108310612f66576127108381612f5c57612f5b614498565b5b0492506004810190505b60648310612f895760648381612f7f57612f7e614498565b5b0492506002810190505b600a8310612f98576001810190505b80915050919050565b60007f80ac58cd000000000000000000000000000000000000000000000000000000007bffffffffffffffffffffffffffffffffffffffffffffffffffffffff1916827bffffffffffffffffffffffffffffffffffffffffffffffffffffffff1916148061306c57507f5b5e139f000000000000000000000000000000000000000000000000000000007bffffffffffffffffffffffffffffffffffffffffffffffffffffffff1916827bffffffffffffffffffffffffffffffffffffffffffffffffffffffff1916145b8061307c575061307b8261373b565b5b9050919050565b60018111156131a357600073ffffffffffffffffffffffffffffffffffffffff168473ffffffffffffffffffffffffffffffffffffffff16146131175780600360008673ffffffffffffffffffffffffffffffffffffffff1673ffffffffffffffffffffffffffffffffffffffff168152602001908152602001600020600082825461310f91906151ae565b925050819055505b600073ffffffffffffffffffffffffffffffffffffffff168373ffffffffffffffffffffffffffffffffffffffff16146131a25780600360008573ffffffffffffffffffffffffffffffffffffffff1673ffffffffffffffffffffffffffffffffffffffff168152602001908152602001600020600082825461319a9190614c9e565b925050819055505b5b50505050565b6008805490506009600083815260200190815260200160002081905550600881908060018154018082558091505060019003906000526020600020016000909190919091505550565b600060016131ff846111f9565b61320991906151ae565b90506000600760008481526020019081526020016000205490508181146132ee576000600660008673ffffffffffffffffffffffffffffffffffffffff1673ffffffffffffffffffffffffffffffffffffffff168152602001908152602001600020600084815260200190815260200160002054905080600660008773ffffffffffffffffffffffffffffffffffffffff1673ffffffffffffffffffffffffffffffffffffffff168152602001908152602001600020600084815260200190815260200160002081905550816007600083815260200190815260200160002081905550505b6007600084815260200190815260200160002060009055600660008573ffffffffffffffffffffffffffffffffffffffff1673ffffffffffffffffffffffffffffffffffffffff16815260200190815260200160002060008381526020019081526020016000206000905550505050565b6000600160088054905061337391906151ae565b90506000600960008481526020019081526020016000205490506000600883815481106133a3576133a26144f8565b5b9060005260206000200154905080600883815481106133c5576133c46144f8565b5b906000526020600020018190555081600960008381526020019081526020016000208190555060096000858152602001908152602001600020600090556008805480613414576134136151e2565b5b6001900381819060005260206000200160009055905550505050565b600061343b836111f9565b905081600660008573ffffffffffffffffffffffffffffffffffffffff1673ffffffffffffffffffffffffffffffffffffffff168152602001908152602001600020600083815260200190815260200160002081905550806007600084815260200190815260200160002081905550505050565b60606134d58273ffffffffffffffffffffffffffffffffffffffff16601460ff166134dc565b9050919050565b6060600060028360026134ef9190614d03565b6134f99190614c9e565b67ffffffffffffffff81111561351257613511613da0565b5b6040519080825280601f01601f1916602001820160405280156135445781602001600182028036833780820191505090505b5090507f30000000000000000000000000000000000000000000000000000000000000008160008151811061357c5761357b6144f8565b5b60200101907effffffffffffffffffffffffffffffffffffffffffffffffffffffffffffff1916908160001a9053507f7800000000000000000000000000000000000000000000000000000000000000816001815181106135e0576135df6144f8565b5b60200101907effffffffffffffffffffffffffffffffffffffffffffffffffffffffffffff1916908160001a905350600060018460026136209190614d03565b61362a9190614c9e565b90505b60018111156136ca577f3031323334353637383961626364656600000000000000000000000000000000600f86166010811061366c5761366b6144f8565b5b1a60f81b828281518110613683576136826144f8565b5b60200101907effffffffffffffffffffffffffffffffffffffffffffffffffffffffffffff1916908160001a905350600485901c9450806136c390615211565b905061362d565b506000841461370e576040517f08c379a000000000000000000000000000000000000000000000000000000000815260040161370590615286565b60405180910390fd5b8091505092915050565b6000808273ffffffffffffffffffffffffffffffffffffffff163b119050919050565b60007f01ffc9a7000000000000000000000000000000000000000000000000000000007bffffffffffffffffffffffffffffffffffffffffffffffffffffffff1916827bffffffffffffffffffffffffffffffffffffffffffffffffffffffff1916149050919050565b60405180610160016040528060008152602001600063ffffffff1681526020016060815260200160608152602001606081526020016060815260200160608152602001606081526020016060815260200160608152602001600081525090565b6000604051905090565b600080fd5b600080fd5b60007fffffffff0000000000000000000000000000000000000000000000000000000082169050919050565b61384e81613819565b811461385957600080fd5b50565b60008135905061386b81613845565b92915050565b6000602082840312156138875761388661380f565b5b60006138958482850161385c565b91505092915050565b60008115159050919050565b6138b38161389e565b82525050565b60006020820190506138ce60008301846138aa565b92915050565b6000819050919050565b6138e7816138d4565b82525050565b600060208201905061390260008301846138de565b92915050565b600081519050919050565b600082825260208201905092915050565b60005b83811015613942578082015181840152602081019050613927565b60008484015250505050565b6000601f19601f8301169050919050565b600061396a82613908565b6139748185613913565b9350613984818560208601613924565b61398d8161394e565b840191505092915050565b600060208201905081810360008301526139b2818461395f565b905092915050565b6000819050919050565b6139cd816139ba565b81146139d857600080fd5b50565b6000813590506139ea816139c4565b92915050565b600060208284031215613a0657613a0561380f565b5b6000613a14848285016139db565b91505092915050565b600073ffffffffffffffffffffffffffffffffffffffff82169050919050565b6000613a4882613a1d565b9050919050565b613a5881613a3d565b82525050565b6000602082019050613a736000830184613a4f565b92915050565b613a8281613a3d565b8114613a8d57600080fd5b50565b600081359050613a9f81613a79565b92915050565b60008060408385031215613abc57613abb61380f565b5b6000613aca85828601613a90565b9250506020613adb858286016139db565b9150509250929050565b613aee816139ba565b82525050565b6000602082019050613b096000830184613ae5565b92915050565b600080600060608486031215613b2857613b2761380f565b5b6000613b3686828701613a90565b9350506020613b4786828701613a90565b9250506040613b58868287016139db565b9150509250925092565b613b6b816138d4565b8114613b7657600080fd5b50565b600081359050613b8881613b62565b92915050565b600060208284031215613ba457613ba361380f565b5b6000613bb284828501613b79565b91505092915050565b60008060408385031215613bd257613bd161380f565b5b6000613be085828601613b79565b9250506020613bf185828601613a90565b9150509250929050565b600060208284031215613c1157613c1061380f565b5b6000613c1f84828501613a90565b91505092915050565b613c318161389e565b8114613c3c57600080fd5b50565b600081359050613c4e81613c28565b92915050565b60008060408385031215613c6b57613c6a61380f565b5b6000613c7985828601613a90565b9250506020613c8a85828601613c3f565b9150509250929050565b600063ffffffff82169050919050565b613cad81613c94565b82525050565b600061016082019050613cc9600083018e613ae5565b613cd6602083018d613ca4565b8181036040830152613ce8818c61395f565b90508181036060830152613cfc818b61395f565b90508181036080830152613d10818a61395f565b905081810360a0830152613d24818961395f565b905081810360c0830152613d38818861395f565b905081810360e0830152613d4c818761395f565b9050818103610100830152613d61818661395f565b9050818103610120830152613d76818561395f565b9050613d86610140830184613ae5565b9c9b505050505050505050505050565b600080fd5b600080fd5b7f4e487b7100000000000000000000000000000000000000000000000000000000600052604160045260246000fd5b613dd88261394e565b810181811067ffffffffffffffff82111715613df757613df6613da0565b5b80604052505050565b6000613e0a613805565b9050613e168282613dcf565b919050565b600067ffffffffffffffff821115613e3657613e35613da0565b5b613e3f8261394e565b9050602081019050919050565b82818337600083830152505050565b6000613e6e613e6984613e1b565b613e00565b905082815260208101848484011115613e8a57613e89613d9b565b5b613e95848285613e4c565b509392505050565b600082601f830112613eb257613eb1613d96565b5b8135613ec2848260208601613e5b565b91505092915050565b60008060008060808587031215613ee557613ee461380f565b5b6000613ef387828801613a90565b9450506020613f0487828801613a90565b9350506040613f15878288016139db565b925050606085013567ffffffffffffffff811115613f3657613f35613814565b5b613f4287828801613e9d565b91505092959194509250565b60008060408385031215613f6557613f6461380f565b5b6000613f7385828601613a90565b9250506020613f8485828601613a90565b9150509250929050565b613f97816139ba565b82525050565b613fa681613c94565b82525050565b600082825260208201905092915050565b6000613fc882613908565b613fd28185613fac565b9350613fe2818560208601613924565b613feb8161394e565b840191505092915050565b60006101608301600083015161400f6000860182613f8e565b5060208301516140226020860182613f9d565b506040830151848203604086015261403a8282613fbd565b915050606083015184820360608601526140548282613fbd565b9150506080830151848203608086015261406e8282613fbd565b91505060a083015184820360a08601526140888282613fbd565b91505060c083015184820360c08601526140a28282613fbd565b91505060e083015184820360e08601526140bc8282613fbd565b9150506101008301518482036101008601526140d88282613fbd565b9150506101208301518482036101208601526140f48282613fbd565b91505061014083015161410b610140860182613f8e565b508091505092915050565b600060208201905081810360008301526141308184613ff6565b905092915050565b7f4e487b7100000000000000000000000000000000000000000000000000000000600052602260045260246000fd5b6000600282049050600182168061417f57607f821691505b60208210810361419257614191614138565b5b50919050565b7f4552433732313a20617070726f76616c20746f2063757272656e74206f776e6560008201527f7200000000000000000000000000000000000000000000000000000000000000602082015250565b60006141f4602183613913565b91506141ff82614198565b604082019050919050565b60006020820190508181036000830152614223816141e7565b9050919050565b7f4552433732313a20617070726f76652063616c6c6572206973206e6f7420746f60008201527f6b656e206f776e6572206f7220617070726f76656420666f7220616c6c000000602082015250565b6000614286603d83613913565b91506142918261422a565b604082019050919050565b600060208201905081810360008301526142b581614279565b9050919050565b600080fd5b600080fd5b600067ffffffffffffffff8211156142e1576142e0613da0565b5b6142ea8261394e565b9050602081019050919050565b600061430a614305846142c6565b613e00565b90508281526020810184848401111561432657614325613d9b565b5b614331848285613924565b509392505050565b600082601f83011261434e5761434d613d96565b5b815161435e8482602086016142f7565b91505092915050565b60006080828403121561437d5761437c6142bc565b5b6143876080613e00565b9050600082015167ffffffffffffffff8111156143a7576143a66142c1565b5b6143b384828501614339565b600083015250602082015167ffffffffffffffff8111156143d7576143d66142c1565b5b6143e384828501614339565b602083015250604082015167ffffffffffffffff811115614407576144066142c1565b5b61441384828501614339565b604083015250606082015167ffffffffffffffff811115614437576144366142c1565b5b61444384828501614339565b60608301525092915050565b6000602082840312156144655761446461380f565b5b600082015167ffffffffffffffff81111561448357614482613814565b5b61448f84828501614367565b91505092915050565b7f4e487b7100000000000000000000000000000000000000000000000000000000600052601260045260246000fd5b60006144d2826139ba565b91506144dd836139ba565b9250826144ed576144ec614498565b5b828206905092915050565b7f4e487b7100000000000000000000000000000000000000000000000000000000600052603260045260246000fd5b60008190508160005260206000209050919050565b60006020601f8301049050919050565b600082821b905092915050565b6000600883026145897fffffffffffffffffffffffffffffffffffffffffffffffffffffffffffffffff8261454c565b614593868361454c565b95508019841693508086168417925050509392505050565b6000819050919050565b60006145d06145cb6145c6846139ba565b6145ab565b6139ba565b9050919050565b6000819050919050565b6145ea836145b5565b6145fe6145f6826145d7565b848454614559565b825550505050565b600090565b614613614606565b61461e8184846145e1565b505050565b5b818110156146425761463760008261460b565b600181019050614624565b5050565b601f8211156146875761465881614527565b6146618461453c565b81016020851015614670578190505b61468461467c8561453c565b830182614623565b50505b505050565b600082821c905092915050565b60006146aa6000198460080261468c565b1980831691505092915050565b60006146c38383614699565b9150826002028217905092915050565b6146dc82613908565b67ffffffffffffffff8111156146f5576146f4613da0565b5b6146ff8254614167565b61470a828285614646565b600060209050601f83116001811461473d576000841561472b578287015190505b61473585826146b7565b86555061479d565b601f19841661474b86614527565b60005b828110156147735784890151825560018201915060208501945060208101905061474e565b86831015614790578489015161478c601f891682614699565b8355505b6001600288020188555050505b505050505050565b600081905092915050565b60006147bb82613908565b6147c581856147a5565b93506147d5818560208601613924565b80840191505092915050565b7f2f00000000000000000000000000000000000000000000000000000000000000600082015250565b60006148176001836147a5565b9150614822826147e1565b600182019050919050565b600061483982876147b0565b91506148448261480a565b915061485082866147b0565b915061485b8261480a565b915061486782856147b0565b91506148728261480a565b915061487e82846147b0565b915081905095945050505050565b60006040820190506148a16000830185613ae5565b81810360208301526148b3818461395f565b90509392505050565b7f4552433732313a2063616c6c6572206973206e6f7420746f6b656e206f776e6560008201527f72206f7220617070726f76656400000000000000000000000000000000000000602082015250565b6000614918602d83613913565b9150614923826148bc565b604082019050919050565b600060208201905081810360008301526149478161490b565b9050919050565b6000602082840312156149645761496361380f565b5b600082015167ffffffffffffffff81111561498257614981613814565b5b61498e84828501614339565b91505092915050565b7f455243373231456e756d657261626c653a206f776e657220696e646578206f7560008201527f74206f6620626f756e6473000000000000000000000000000000000000000000602082015250565b60006149f3602b83613913565b91506149fe82614997565b604082019050919050565b60006020820190508181036000830152614a22816149e6565b9050919050565b7f416363657373436f6e74726f6c3a2063616e206f6e6c792072656e6f756e636560008201527f20726f6c657320666f722073656c660000000000000000000000000000000000602082015250565b6000614a85602f83613913565b9150614a9082614a29565b604082019050919050565b60006020820190508181036000830152614ab481614a78565b9050919050565b7f455243373231456e756d657261626c653a20676c6f62616c20696e646578206f60008201527f7574206f6620626f756e64730000000000000000000000000000000000000000602082015250565b6000614b17602c83613913565b9150614b2282614abb565b604082019050919050565b60006020820190508181036000830152614b4681614b0a565b9050919050565b7f4552433732313a20696e76616c696420746f6b656e2049440000000000000000600082015250565b6000614b83601883613913565b9150614b8e82614b4d565b602082019050919050565b60006020820190508181036000830152614bb281614b76565b9050919050565b7f4552433732313a2061646472657373207a65726f206973206e6f74206120766160008201527f6c6964206f776e65720000000000000000000000000000000000000000000000602082015250565b6000614c15602983613913565b9150614c2082614bb9565b604082019050919050565b60006020820190508181036000830152614c4481614c08565b9050919050565b6000614c5782856147b0565b9150614c6382846147b0565b91508190509392505050565b7f4e487b7100000000000000000000000000000000000000000000000000000000600052601160045260246000fd5b6000614ca9826139ba565b9150614cb4836139ba565b9250828201905080821115614ccc57614ccb614c6f565b5b92915050565b6000614cdd826139ba565b9150614ce8836139ba565b925082614cf857614cf7614498565b5b828204905092915050565b6000614d0e826139ba565b9150614d19836139ba565b9250828202614d27816139ba565b91508282048414831517614d3e57614d3d614c6f565b5b5092915050565b7f4552433732313a207472616e736665722066726f6d20696e636f72726563742060008201527f6f776e6572000000000000000000000000000000000000000000000000000000602082015250565b6000614da1602583613913565b9150614dac82614d45565b604082019050919050565b60006020820190508181036000830152614dd081614d94565b9050919050565b7f4552433732313a207472616e7366657220746f20746865207a65726f2061646460008201527f7265737300000000000000000000000000000000000000000000000000000000602082015250565b6000614e33602483613913565b9150614e3e82614dd7565b604082019050919050565b60006020820190508181036000830152614e6281614e26565b9050919050565b7f4552433732313a20617070726f766520746f2063616c6c657200000000000000600082015250565b6000614e9f601983613913565b9150614eaa82614e69565b602082019050919050565b60006020820190508181036000830152614ece81614e92565b9050919050565b7f4552433732313a207472616e7366657220746f206e6f6e20455243373231526560008201527f63656976657220696d706c656d656e7465720000000000000000000000000000602082015250565b6000614f31603283613913565b9150614f3c82614ed5565b604082019050919050565b60006020820190508181036000830152614f6081614f24565b9050919050565b7f455243373231456e756d657261626c653a20636f6e736563757469766520747260008201527f616e7366657273206e6f7420737570706f727465640000000000000000000000602082015250565b6000614fc3603583613913565b9150614fce82614f67565b604082019050919050565b60006020820190508181036000830152614ff281614fb6565b9050919050565b7f416363657373436f6e74726f6c3a206163636f756e7420000000000000000000600082015250565b600061502f6017836147a5565b915061503a82614ff9565b601782019050919050565b7f206973206d697373696e6720726f6c6520000000000000000000000000000000600082015250565b600061507b6011836147a5565b915061508682615045565b601182019050919050565b600061509c82615022565b91506150a882856147b0565b91506150b38261506e565b91506150bf82846147b0565b91508190509392505050565b600081519050919050565b600082825260208201905092915050565b60006150f2826150cb565b6150fc81856150d6565b935061510c818560208601613924565b6151158161394e565b840191505092915050565b60006080820190506151356000830187613a4f565b6151426020830186613a4f565b61514f6040830185613ae5565b818103606083015261516181846150e7565b905095945050505050565b60008151905061517b81613845565b92915050565b6000602082840312156151975761519661380f565b5b60006151a58482850161516c565b91505092915050565b60006151b9826139ba565b91506151c4836139ba565b92508282039050818111156151dc576151db614c6f565b5b92915050565b7f4e487b7100000000000000000000000000000000000000000000000000000000600052603160045260246000fd5b600061521c826139ba565b91506000820361522f5761522e614c6f565b5b600182039050919050565b7f537472696e67733a20686578206c656e67746820696e73756666696369656e74600082015250565b6000615270602083613913565b915061527b8261523a565b602082019050919050565b6000602082019050818103600083015261529f81615263565b905091905056fe4142434445464748494a4b4c4d4e4f505152535455565758595a6162636465666768696a6b6c6d6e6f707172737475767778797a303132333435363738392b2fa264697066735822122056d27e0047f60bf33c204dd6e1f58d0a4f1bcf1d0e1327c85755aebf9ce8b3d664736f6c63430008110033",
  "linkReferences": {},
  "deployedLinkReferences": {}
}