{
  "_format": "hh-sol-artifact-1",
  "contractName": "Metadata",
  "sourceName": "contracts/Metadata.sol",
  "abi": [
    {
      "inputs": [
        {
          "internalType": "address",
          "name": "admin",
          "type": "address"
        }
      ],
      "stateMutability": "nonpayable",
      "type": "constructor"
    },
    {
      "anonymous": false,
      "inputs": [
        {
          "indexed": true,
          "internalType": "address",
          "name": "previousOwner",
          "type": "address"
        },
        {
          "indexed": true,
          "internalType": "address",
          "name": "newOwner",
          "type": "address"
        }
      ],
      "name": "OwnershipTransferred",
      "type": "event"
    },
    {
      "anonymous": false,
      "inputs": [
        {
          "indexed": true,
          "internalType": "bytes32",
          "name": "role",
          "type": "bytes32"
        },
        {
          "indexed": true,
          "internalType": "bytes32",
          "name": "previousAdminRole",
          "type": "bytes32"
        },
        {
          "indexed": true,
          "internalType": "bytes32",
          "name": "newAdminRole",
          "type": "bytes32"
        }
      ],
      "name": "RoleAdminChanged",
      "type": "event"
    },
    {
      "anonymous": false,
      "inputs": [
        {
          "indexed": true,
          "internalType": "bytes32",
          "name": "role",
          "type": "bytes32"
        },
        {
          "indexed": true,
          "internalType": "address",
          "name": "account",
          "type": "address"
        },
        {
          "indexed": true,
          "internalType": "address",
          "name": "sender",
          "type": "address"
        }
      ],
      "name": "RoleGranted",
      "type": "event"
    },
    {
      "anonymous": false,
      "inputs": [
        {
          "indexed": true,
          "internalType": "bytes32",
          "name": "role",
          "type": "bytes32"
        },
        {
          "indexed": true,
          "internalType": "address",
          "name": "account",
          "type": "address"
        },
        {
          "indexed": true,
          "internalType": "address",
          "name": "sender",
          "type": "address"
        }
      ],
      "name": "RoleRevoked",
      "type": "event"
    },
    {
      "inputs": [],
      "name": "CONTRACT_ROLE",
      "outputs": [
        {
          "internalType": "bytes32",
          "name": "",
          "type": "bytes32"
        }
      ],
      "stateMutability": "view",
      "type": "function"
    },
    {
      "inputs": [],
      "name": "DEFAULT_ADMIN_ROLE",
      "outputs": [
        {
          "internalType": "bytes32",
          "name": "",
          "type": "bytes32"
        }
      ],
      "stateMutability": "view",
      "type": "function"
    },
    {
      "inputs": [],
      "name": "UPDATER_ROLE",
      "outputs": [
        {
          "internalType": "bytes32",
          "name": "",
          "type": "bytes32"
        }
      ],
      "stateMutability": "view",
      "type": "function"
    },
    {
      "inputs": [],
      "name": "_baseTokenURI",
      "outputs": [
        {
          "internalType": "string",
          "name": "",
          "type": "string"
        }
      ],
      "stateMutability": "view",
      "type": "function"
    },
    {
      "inputs": [
        {
          "internalType": "bytes32",
          "name": "role",
          "type": "bytes32"
        }
      ],
      "name": "getRoleAdmin",
      "outputs": [
        {
          "internalType": "bytes32",
          "name": "",
          "type": "bytes32"
        }
      ],
      "stateMutability": "view",
      "type": "function"
    },
    {
      "inputs": [
        {
          "internalType": "bytes32",
          "name": "role",
          "type": "bytes32"
        },
        {
          "internalType": "address",
          "name": "account",
          "type": "address"
        }
      ],
      "name": "grantRole",
      "outputs": [],
      "stateMutability": "nonpayable",
      "type": "function"
    },
    {
      "inputs": [
        {
          "internalType": "bytes32",
          "name": "role",
          "type": "bytes32"
        },
        {
          "internalType": "address",
          "name": "account",
          "type": "address"
        }
      ],
      "name": "hasRole",
      "outputs": [
        {
          "internalType": "bool",
          "name": "",
          "type": "bool"
        }
      ],
      "stateMutability": "view",
      "type": "function"
    },
    {
      "inputs": [
        {
          "internalType": "uint256",
          "name": "_tokenId",
          "type": "uint256"
        },
        {
          "internalType": "string",
          "name": "_imageURL",
          "type": "string"
        }
      ],
      "name": "makeTokenURI",
      "outputs": [
        {
          "internalType": "string",
          "name": "",
          "type": "string"
        }
      ],
      "stateMutability": "view",
      "type": "function"
    },
    {
      "inputs": [],
      "name": "owner",
      "outputs": [
        {
          "internalType": "address",
          "name": "",
          "type": "address"
        }
      ],
      "stateMutability": "view",
      "type": "function"
    },
    {
      "inputs": [],
      "name": "renounceOwnership",
      "outputs": [],
      "stateMutability": "nonpayable",
      "type": "function"
    },
    {
      "inputs": [
        {
          "internalType": "bytes32",
          "name": "role",
          "type": "bytes32"
        },
        {
          "internalType": "address",
          "name": "account",
          "type": "address"
        }
      ],
      "name": "renounceRole",
      "outputs": [],
      "stateMutability": "nonpayable",
      "type": "function"
    },
    {
      "inputs": [],
      "name": "returnExtension",
      "outputs": [
        {
          "internalType": "string",
          "name": "",
          "type": "string"
        }
      ],
      "stateMutability": "pure",
      "type": "function"
    },
    {
      "inputs": [
        {
          "internalType": "bytes32",
          "name": "role",
          "type": "bytes32"
        },
        {
          "internalType": "address",
          "name": "account",
          "type": "address"
        }
      ],
      "name": "revokeRole",
      "outputs": [],
      "stateMutability": "nonpayable",
      "type": "function"
    },
    {
      "inputs": [
        {
          "internalType": "bytes4",
          "name": "interfaceId",
          "type": "bytes4"
        }
      ],
      "name": "supportsInterface",
      "outputs": [
        {
          "internalType": "bool",
          "name": "",
          "type": "bool"
        }
      ],
      "stateMutability": "view",
      "type": "function"
    },
    {
      "inputs": [
        {
          "internalType": "address",
          "name": "newOwner",
          "type": "address"
        }
      ],
      "name": "transferOwnership",
      "outputs": [],
      "stateMutability": "nonpayable",
      "type": "function"
    }
  ],
  "bytecode": "0x60806040523480156200001157600080fd5b506040516200207f3803806200207f83398181016040528101906200003791906200036a565b620000576200004b620000d760201b60201c565b620000df60201b60201c565b6200006c6000801b82620001a560201b60201c565b6200009e7f73e573f9566d61418a34d5de3ff49360f9c51fec37f7486551670290f6285dab33620001a560201b60201c565b620000d07f364d3d7565c7a8300c96fd53e065d19b65848d7b23b3191adcd55621c744223c33620001a560201b60201c565b506200039c565b600033905090565b6000600160009054906101000a900473ffffffffffffffffffffffffffffffffffffffff16905081600160006101000a81548173ffffffffffffffffffffffffffffffffffffffff021916908373ffffffffffffffffffffffffffffffffffffffff1602179055508173ffffffffffffffffffffffffffffffffffffffff168173ffffffffffffffffffffffffffffffffffffffff167f8be0079c531659141344cd1fd0a4f28419497f9722a3daafe3b4186f6b6457e060405160405180910390a35050565b620001b782826200029660201b60201c565b6200029257600160008084815260200190815260200160002060000160008373ffffffffffffffffffffffffffffffffffffffff1673ffffffffffffffffffffffffffffffffffffffff16815260200190815260200160002060006101000a81548160ff02191690831515021790555062000237620000d760201b60201c565b73ffffffffffffffffffffffffffffffffffffffff168173ffffffffffffffffffffffffffffffffffffffff16837f2f8788117e7eff1d82e926ec794901d17c78024a50270940304540a733656f0d60405160405180910390a45b5050565b600080600084815260200190815260200160002060000160008373ffffffffffffffffffffffffffffffffffffffff1673ffffffffffffffffffffffffffffffffffffffff16815260200190815260200160002060009054906101000a900460ff16905092915050565b600080fd5b600073ffffffffffffffffffffffffffffffffffffffff82169050919050565b6000620003328262000305565b9050919050565b620003448162000325565b81146200035057600080fd5b50565b600081519050620003648162000339565b92915050565b60006020828403121562000383576200038262000300565b5b6000620003938482850162000353565b91505092915050565b611cd380620003ac6000396000f3fe608060405234801561001057600080fd5b50600436106100f55760003560e01c806361f4486a11610097578063a217fddf11610066578063a217fddf14610274578063cfc86f7b14610292578063d547741f146102b0578063f2fde38b146102cc576100f5565b806361f4486a146101fe578063715018a61461021c5780638da5cb5b1461022657806391d1485414610244576100f5565b80632b687894116100d35780632b687894146101785780632f2ff15d146101a857806336568abe146101c457806347e63380146101e0576100f5565b806301ffc9a7146100fa57806303fe46ab1461012a578063248a9ca314610148575b600080fd5b610114600480360381019061010f9190611155565b6102e8565b604051610121919061119d565b60405180910390f35b610132610362565b60405161013f91906111d1565b60405180910390f35b610162600480360381019061015d9190611218565b610386565b60405161016f91906111d1565b60405180910390f35b610192600480360381019061018d91906113c1565b6103a5565b60405161019f919061149c565b60405180910390f35b6101c260048036038101906101bd919061151c565b610406565b005b6101de60048036038101906101d9919061151c565b610427565b005b6101e86104aa565b6040516101f591906111d1565b60405180910390f35b6102066104ce565b604051610213919061149c565b60405180910390f35b61022461050b565b005b61022e61051f565b60405161023b919061156b565b60405180910390f35b61025e6004803603810190610259919061151c565b610549565b60405161026b919061119d565b60405180910390f35b61027c6105b3565b60405161028991906111d1565b60405180910390f35b61029a6105ba565b6040516102a7919061149c565b60405180910390f35b6102ca60048036038101906102c5919061151c565b610648565b005b6102e660048036038101906102e19190611586565b610669565b005b60007f7965db0b000000000000000000000000000000000000000000000000000000007bffffffffffffffffffffffffffffffffffffffffffffffffffffffff1916827bffffffffffffffffffffffffffffffffffffffffffffffffffffffff1916148061035b575061035a826106ec565b5b9050919050565b7f364d3d7565c7a8300c96fd53e065d19b65848d7b23b3191adcd55621c744223c81565b6000806000838152602001908152602001600020600101549050919050565b606060006103db6103b585610756565b846040516020016103c792919061171f565b604051602081830303815290604052610824565b9050806040516020016103ee91906117b0565b60405160208183030381529060405291505092915050565b61040f82610386565b61041881610987565b610422838361099b565b505050565b61042f610a7b565b73ffffffffffffffffffffffffffffffffffffffff168173ffffffffffffffffffffffffffffffffffffffff161461049c576040517f08c379a000000000000000000000000000000000000000000000000000000000815260040161049390611844565b60405180910390fd5b6104a68282610a83565b5050565b7f73e573f9566d61418a34d5de3ff49360f9c51fec37f7486551670290f6285dab81565b60606040518060400160405280601d81526020017f646174613a6170706c69636174696f6e2f6a736f6e3b6261736536342c000000815250905090565b610513610b64565b61051d6000610be2565b565b6000600160009054906101000a900473ffffffffffffffffffffffffffffffffffffffff16905090565b600080600084815260200190815260200160002060000160008373ffffffffffffffffffffffffffffffffffffffff1673ffffffffffffffffffffffffffffffffffffffff16815260200190815260200160002060009054906101000a900460ff16905092915050565b6000801b81565b600280546105c790611893565b80601f01602080910402602001604051908101604052809291908181526020018280546105f390611893565b80156106405780601f1061061557610100808354040283529160200191610640565b820191906000526020600020905b81548152906001019060200180831161062357829003601f168201915b505050505081565b61065182610386565b61065a81610987565b6106648383610a83565b505050565b610671610b64565b600073ffffffffffffffffffffffffffffffffffffffff168173ffffffffffffffffffffffffffffffffffffffff16036106e0576040517f08c379a00000000000000000000000000000000000000000000000000000000081526004016106d790611936565b60405180910390fd5b6106e981610be2565b50565b60007f01ffc9a7000000000000000000000000000000000000000000000000000000007bffffffffffffffffffffffffffffffffffffffffffffffffffffffff1916827bffffffffffffffffffffffffffffffffffffffffffffffffffffffff1916149050919050565b60606000600161076584610ca8565b01905060008167ffffffffffffffff81111561078457610783611296565b5b6040519080825280601f01601f1916602001820160405280156107b65781602001600182028036833780820191505090505b509050600082602001820190505b600115610819578080600190039150507f3031323334353637383961626364656600000000000000000000000000000000600a86061a8153600a858161080d5761080c611956565b5b049450600085036107c4575b819350505050919050565b6060600082510361084657604051806020016040528060008152509050610982565b6000604051806060016040528060408152602001611c5e604091399050600060036002855161087591906119b4565b61087f91906119e8565b600461088b9190611a19565b67ffffffffffffffff8111156108a4576108a3611296565b5b6040519080825280601f01601f1916602001820160405280156108d65781602001600182028036833780820191505090505b509050600182016020820185865187015b80821015610942576003820191508151603f8160121c168501518453600184019350603f81600c1c168501518453600184019350603f8160061c168501518453600184019350603f81168501518453600184019350506108e7565b505060038651066001811461095e576002811461097157610979565b603d6001830353603d6002830353610979565b603d60018303535b50505080925050505b919050565b61099881610993610a7b565b610dfb565b50565b6109a58282610549565b610a7757600160008084815260200190815260200160002060000160008373ffffffffffffffffffffffffffffffffffffffff1673ffffffffffffffffffffffffffffffffffffffff16815260200190815260200160002060006101000a81548160ff021916908315150217905550610a1c610a7b565b73ffffffffffffffffffffffffffffffffffffffff168173ffffffffffffffffffffffffffffffffffffffff16837f2f8788117e7eff1d82e926ec794901d17c78024a50270940304540a733656f0d60405160405180910390a45b5050565b600033905090565b610a8d8282610549565b15610b6057600080600084815260200190815260200160002060000160008373ffffffffffffffffffffffffffffffffffffffff1673ffffffffffffffffffffffffffffffffffffffff16815260200190815260200160002060006101000a81548160ff021916908315150217905550610b05610a7b565b73ffffffffffffffffffffffffffffffffffffffff168173ffffffffffffffffffffffffffffffffffffffff16837ff6391f5c32d9c69d2a47ea670b442974b53935d1edc7fd64eb21e047a839171b60405160405180910390a45b5050565b610b6c610a7b565b73ffffffffffffffffffffffffffffffffffffffff16610b8a61051f565b73ffffffffffffffffffffffffffffffffffffffff1614610be0576040517f08c379a0000000000000000000000000000000000000000000000000000000008152600401610bd790611aa7565b60405180910390fd5b565b6000600160009054906101000a900473ffffffffffffffffffffffffffffffffffffffff16905081600160006101000a81548173ffffffffffffffffffffffffffffffffffffffff021916908373ffffffffffffffffffffffffffffffffffffffff1602179055508173ffffffffffffffffffffffffffffffffffffffff168173ffffffffffffffffffffffffffffffffffffffff167f8be0079c531659141344cd1fd0a4f28419497f9722a3daafe3b4186f6b6457e060405160405180910390a35050565b600080600090507a184f03e93ff9f4daa797ed6e38ed64bf6a1f0100000000000000008310610d06577a184f03e93ff9f4daa797ed6e38ed64bf6a1f0100000000000000008381610cfc57610cfb611956565b5b0492506040810190505b6d04ee2d6d415b85acef81000000008310610d43576d04ee2d6d415b85acef81000000008381610d3957610d38611956565b5b0492506020810190505b662386f26fc100008310610d7257662386f26fc100008381610d6857610d67611956565b5b0492506010810190505b6305f5e1008310610d9b576305f5e1008381610d9157610d90611956565b5b0492506008810190505b6127108310610dc0576127108381610db657610db5611956565b5b0492506004810190505b60648310610de35760648381610dd957610dd8611956565b5b0492506002810190505b600a8310610df2576001810190505b80915050919050565b610e058282610549565b610e7c57610e1281610e80565b610e208360001c6020610ead565b604051602001610e31929190611b5f565b6040516020818303038152906040526040517f08c379a0000000000000000000000000000000000000000000000000000000008152600401610e73919061149c565b60405180910390fd5b5050565b6060610ea68273ffffffffffffffffffffffffffffffffffffffff16601460ff16610ead565b9050919050565b606060006002836002610ec09190611a19565b610eca91906119b4565b67ffffffffffffffff811115610ee357610ee2611296565b5b6040519080825280601f01601f191660200182016040528015610f155781602001600182028036833780820191505090505b5090507f300000000000000000000000000000000000000000000000000000000000000081600081518110610f4d57610f4c611b99565b5b60200101907effffffffffffffffffffffffffffffffffffffffffffffffffffffffffffff1916908160001a9053507f780000000000000000000000000000000000000000000000000000000000000081600181518110610fb157610fb0611b99565b5b60200101907effffffffffffffffffffffffffffffffffffffffffffffffffffffffffffff1916908160001a90535060006001846002610ff19190611a19565b610ffb91906119b4565b90505b600181111561109b577f3031323334353637383961626364656600000000000000000000000000000000600f86166010811061103d5761103c611b99565b5b1a60f81b82828151811061105457611053611b99565b5b60200101907effffffffffffffffffffffffffffffffffffffffffffffffffffffffffffff1916908160001a905350600485901c94508061109490611bc8565b9050610ffe565b50600084146110df576040517f08c379a00000000000000000000000000000000000000000000000000000000081526004016110d690611c3d565b60405180910390fd5b8091505092915050565b6000604051905090565b600080fd5b600080fd5b60007fffffffff0000000000000000000000000000000000000000000000000000000082169050919050565b611132816110fd565b811461113d57600080fd5b50565b60008135905061114f81611129565b92915050565b60006020828403121561116b5761116a6110f3565b5b600061117984828501611140565b91505092915050565b60008115159050919050565b61119781611182565b82525050565b60006020820190506111b2600083018461118e565b92915050565b6000819050919050565b6111cb816111b8565b82525050565b60006020820190506111e660008301846111c2565b92915050565b6111f5816111b8565b811461120057600080fd5b50565b600081359050611212816111ec565b92915050565b60006020828403121561122e5761122d6110f3565b5b600061123c84828501611203565b91505092915050565b6000819050919050565b61125881611245565b811461126357600080fd5b50565b6000813590506112758161124f565b92915050565b600080fd5b600080fd5b6000601f19601f8301169050919050565b7f4e487b7100000000000000000000000000000000000000000000000000000000600052604160045260246000fd5b6112ce82611285565b810181811067ffffffffffffffff821117156112ed576112ec611296565b5b80604052505050565b60006113006110e9565b905061130c82826112c5565b919050565b600067ffffffffffffffff82111561132c5761132b611296565b5b61133582611285565b9050602081019050919050565b82818337600083830152505050565b600061136461135f84611311565b6112f6565b9050828152602081018484840111156113805761137f611280565b5b61138b848285611342565b509392505050565b600082601f8301126113a8576113a761127b565b5b81356113b8848260208601611351565b91505092915050565b600080604083850312156113d8576113d76110f3565b5b60006113e685828601611266565b925050602083013567ffffffffffffffff811115611407576114066110f8565b5b61141385828601611393565b9150509250929050565b600081519050919050565b600082825260208201905092915050565b60005b8381101561145757808201518184015260208101905061143c565b60008484015250505050565b600061146e8261141d565b6114788185611428565b9350611488818560208601611439565b61149181611285565b840191505092915050565b600060208201905081810360008301526114b68184611463565b905092915050565b600073ffffffffffffffffffffffffffffffffffffffff82169050919050565b60006114e9826114be565b9050919050565b6114f9816114de565b811461150457600080fd5b50565b600081359050611516816114f0565b92915050565b60008060408385031215611533576115326110f3565b5b600061154185828601611203565b925050602061155285828601611507565b9150509250929050565b611565816114de565b82525050565b6000602082019050611580600083018461155c565b92915050565b60006020828403121561159c5761159b6110f3565b5b60006115aa84828501611507565b91505092915050565b600081905092915050565b7f7b226e616d65223a20224d757368726f6f6d2023000000000000000000000000600082015250565b60006115f46014836115b3565b91506115ff826115be565b601482019050919050565b60006116158261141d565b61161f81856115b3565b935061162f818560208601611439565b80840191505092915050565b7f222c20226465736372697074696f6e223a20224d616c6963696f7573204d757360008201527f68726f6f6d732052617772222c2022696d616765223a2022646174613a696d6160208201527f67652f7376672b786d6c3b6261736536342c2000000000000000000000000000604082015250565b60006116bd6053836115b3565b91506116c88261163b565b605382019050919050565b7f222c207d00000000000000000000000000000000000000000000000000000000600082015250565b60006117096004836115b3565b9150611714826116d3565b600482019050919050565b600061172a826115e7565b9150611736828561160a565b9150611741826116b0565b915061174d828461160a565b9150611758826116fc565b91508190509392505050565b7f646174613a6170706c69636174696f6e2f6a736f6e3b6261736536342c000000600082015250565b600061179a601d836115b3565b91506117a582611764565b601d82019050919050565b60006117bb8261178d565b91506117c7828461160a565b915081905092915050565b7f416363657373436f6e74726f6c3a2063616e206f6e6c792072656e6f756e636560008201527f20726f6c657320666f722073656c660000000000000000000000000000000000602082015250565b600061182e602f83611428565b9150611839826117d2565b604082019050919050565b6000602082019050818103600083015261185d81611821565b9050919050565b7f4e487b7100000000000000000000000000000000000000000000000000000000600052602260045260246000fd5b600060028204905060018216806118ab57607f821691505b6020821081036118be576118bd611864565b5b50919050565b7f4f776e61626c653a206e6577206f776e657220697320746865207a65726f206160008201527f6464726573730000000000000000000000000000000000000000000000000000602082015250565b6000611920602683611428565b915061192b826118c4565b604082019050919050565b6000602082019050818103600083015261194f81611913565b9050919050565b7f4e487b7100000000000000000000000000000000000000000000000000000000600052601260045260246000fd5b7f4e487b7100000000000000000000000000000000000000000000000000000000600052601160045260246000fd5b60006119bf82611245565b91506119ca83611245565b92508282019050808211156119e2576119e1611985565b5b92915050565b60006119f382611245565b91506119fe83611245565b925082611a0e57611a0d611956565b5b828204905092915050565b6000611a2482611245565b9150611a2f83611245565b9250828202611a3d81611245565b91508282048414831517611a5457611a53611985565b5b5092915050565b7f4f776e61626c653a2063616c6c6572206973206e6f7420746865206f776e6572600082015250565b6000611a91602083611428565b9150611a9c82611a5b565b602082019050919050565b60006020820190508181036000830152611ac081611a84565b9050919050565b7f416363657373436f6e74726f6c3a206163636f756e7420000000000000000000600082015250565b6000611afd6017836115b3565b9150611b0882611ac7565b601782019050919050565b7f206973206d697373696e6720726f6c6520000000000000000000000000000000600082015250565b6000611b496011836115b3565b9150611b5482611b13565b601182019050919050565b6000611b6a82611af0565b9150611b76828561160a565b9150611b8182611b3c565b9150611b8d828461160a565b91508190509392505050565b7f4e487b7100000000000000000000000000000000000000000000000000000000600052603260045260246000fd5b6000611bd382611245565b915060008203611be657611be5611985565b5b600182039050919050565b7f537472696e67733a20686578206c656e67746820696e73756666696369656e74600082015250565b6000611c27602083611428565b9150611c3282611bf1565b602082019050919050565b60006020820190508181036000830152611c5681611c1a565b905091905056fe4142434445464748494a4b4c4d4e4f505152535455565758595a6162636465666768696a6b6c6d6e6f707172737475767778797a303132333435363738392b2fa264697066735822122098315f7d76fc5b36d8c7161ed5617c3e38f188804fd6ac0be765d39b4786b94264736f6c63430008110033",
  "linkReferences": {},
  "deployedLinkReferences": {}
}