{
  "_format": "hh-sol-artifact-1",
  "contractName": "Metadata",
  "sourceName": "contracts/Metadata.sol",
  "abi": [
    {
      "inputs": [
        {
          "internalType": "address",
          "name": "admin",
          "type": "address"
        }
      ],
      "stateMutability": "nonpayable",
      "type": "constructor"
    },
    {
      "anonymous": false,
      "inputs": [
        {
          "indexed": true,
          "internalType": "address",
          "name": "previousOwner",
          "type": "address"
        },
        {
          "indexed": true,
          "internalType": "address",
          "name": "newOwner",
          "type": "address"
        }
      ],
      "name": "OwnershipTransferred",
      "type": "event"
    },
    {
      "anonymous": false,
      "inputs": [
        {
          "indexed": true,
          "internalType": "bytes32",
          "name": "role",
          "type": "bytes32"
        },
        {
          "indexed": true,
          "internalType": "bytes32",
          "name": "previousAdminRole",
          "type": "bytes32"
        },
        {
          "indexed": true,
          "internalType": "bytes32",
          "name": "newAdminRole",
          "type": "bytes32"
        }
      ],
      "name": "RoleAdminChanged",
      "type": "event"
    },
    {
      "anonymous": false,
      "inputs": [
        {
          "indexed": true,
          "internalType": "bytes32",
          "name": "role",
          "type": "bytes32"
        },
        {
          "indexed": true,
          "internalType": "address",
          "name": "account",
          "type": "address"
        },
        {
          "indexed": true,
          "internalType": "address",
          "name": "sender",
          "type": "address"
        }
      ],
      "name": "RoleGranted",
      "type": "event"
    },
    {
      "anonymous": false,
      "inputs": [
        {
          "indexed": true,
          "internalType": "bytes32",
          "name": "role",
          "type": "bytes32"
        },
        {
          "indexed": true,
          "internalType": "address",
          "name": "account",
          "type": "address"
        },
        {
          "indexed": true,
          "internalType": "address",
          "name": "sender",
          "type": "address"
        }
      ],
      "name": "RoleRevoked",
      "type": "event"
    },
    {
      "inputs": [],
      "name": "CONTRACT_ROLE",
      "outputs": [
        {
          "internalType": "bytes32",
          "name": "",
          "type": "bytes32"
        }
      ],
      "stateMutability": "view",
      "type": "function"
    },
    {
      "inputs": [],
      "name": "DEFAULT_ADMIN_ROLE",
      "outputs": [
        {
          "internalType": "bytes32",
          "name": "",
          "type": "bytes32"
        }
      ],
      "stateMutability": "view",
      "type": "function"
    },
    {
      "inputs": [],
      "name": "UPDATER_ROLE",
      "outputs": [
        {
          "internalType": "bytes32",
          "name": "",
          "type": "bytes32"
        }
      ],
      "stateMutability": "view",
      "type": "function"
    },
    {
      "inputs": [],
      "name": "_baseTokenURI",
      "outputs": [
        {
          "internalType": "string",
          "name": "",
          "type": "string"
        }
      ],
      "stateMutability": "view",
      "type": "function"
    },
    {
      "inputs": [
        {
          "internalType": "bytes32",
          "name": "role",
          "type": "bytes32"
        }
      ],
      "name": "getRoleAdmin",
      "outputs": [
        {
          "internalType": "bytes32",
          "name": "",
          "type": "bytes32"
        }
      ],
      "stateMutability": "view",
      "type": "function"
    },
    {
      "inputs": [
        {
          "internalType": "bytes32",
          "name": "role",
          "type": "bytes32"
        },
        {
          "internalType": "address",
          "name": "account",
          "type": "address"
        }
      ],
      "name": "grantRole",
      "outputs": [],
      "stateMutability": "nonpayable",
      "type": "function"
    },
    {
      "inputs": [
        {
          "internalType": "bytes32",
          "name": "role",
          "type": "bytes32"
        },
        {
          "internalType": "address",
          "name": "account",
          "type": "address"
        }
      ],
      "name": "hasRole",
      "outputs": [
        {
          "internalType": "bool",
          "name": "",
          "type": "bool"
        }
      ],
      "stateMutability": "view",
      "type": "function"
    },
    {
      "inputs": [
        {
          "internalType": "uint256",
          "name": "_tokenId",
          "type": "uint256"
        },
        {
          "internalType": "string",
          "name": "weapon",
          "type": "string"
        },
        {
          "internalType": "string",
          "name": "armor",
          "type": "string"
        },
        {
          "internalType": "string",
          "name": "accessory",
          "type": "string"
        },
        {
          "internalType": "string",
          "name": "element",
          "type": "string"
        },
        {
          "internalType": "uint256",
          "name": "level",
          "type": "uint256"
        },
        {
          "internalType": "uint256",
          "name": "spores",
          "type": "uint256"
        }
      ],
      "name": "makeTokenURI",
      "outputs": [
        {
          "internalType": "string",
          "name": "",
          "type": "string"
        }
      ],
      "stateMutability": "view",
      "type": "function"
    },
    {
      "inputs": [],
      "name": "owner",
      "outputs": [
        {
          "internalType": "address",
          "name": "",
          "type": "address"
        }
      ],
      "stateMutability": "view",
      "type": "function"
    },
    {
      "inputs": [],
      "name": "renounceOwnership",
      "outputs": [],
      "stateMutability": "nonpayable",
      "type": "function"
    },
    {
      "inputs": [
        {
          "internalType": "bytes32",
          "name": "role",
          "type": "bytes32"
        },
        {
          "internalType": "address",
          "name": "account",
          "type": "address"
        }
      ],
      "name": "renounceRole",
      "outputs": [],
      "stateMutability": "nonpayable",
      "type": "function"
    },
    {
      "inputs": [],
      "name": "returnExtension",
      "outputs": [
        {
          "internalType": "string",
          "name": "",
          "type": "string"
        }
      ],
      "stateMutability": "pure",
      "type": "function"
    },
    {
      "inputs": [
        {
          "internalType": "bytes32",
          "name": "role",
          "type": "bytes32"
        },
        {
          "internalType": "address",
          "name": "account",
          "type": "address"
        }
      ],
      "name": "revokeRole",
      "outputs": [],
      "stateMutability": "nonpayable",
      "type": "function"
    },
    {
      "inputs": [
        {
          "internalType": "bytes4",
          "name": "interfaceId",
          "type": "bytes4"
        }
      ],
      "name": "supportsInterface",
      "outputs": [
        {
          "internalType": "bool",
          "name": "",
          "type": "bool"
        }
      ],
      "stateMutability": "view",
      "type": "function"
    },
    {
      "inputs": [
        {
          "internalType": "address",
          "name": "newOwner",
          "type": "address"
        }
      ],
      "name": "transferOwnership",
      "outputs": [],
      "stateMutability": "nonpayable",
      "type": "function"
    }
  ],
  "bytecode": "0x60806040523480156200001157600080fd5b506040516200259e3803806200259e83398181016040528101906200003791906200036a565b620000576200004b620000d760201b60201c565b620000df60201b60201c565b6200006c6000801b82620001a560201b60201c565b6200009e7f73e573f9566d61418a34d5de3ff49360f9c51fec37f7486551670290f6285dab33620001a560201b60201c565b620000d07f364d3d7565c7a8300c96fd53e065d19b65848d7b23b3191adcd55621c744223c33620001a560201b60201c565b506200039c565b600033905090565b6000600160009054906101000a900473ffffffffffffffffffffffffffffffffffffffff16905081600160006101000a81548173ffffffffffffffffffffffffffffffffffffffff021916908373ffffffffffffffffffffffffffffffffffffffff1602179055508173ffffffffffffffffffffffffffffffffffffffff168173ffffffffffffffffffffffffffffffffffffffff167f8be0079c531659141344cd1fd0a4f28419497f9722a3daafe3b4186f6b6457e060405160405180910390a35050565b620001b782826200029660201b60201c565b6200029257600160008084815260200190815260200160002060000160008373ffffffffffffffffffffffffffffffffffffffff1673ffffffffffffffffffffffffffffffffffffffff16815260200190815260200160002060006101000a81548160ff02191690831515021790555062000237620000d760201b60201c565b73ffffffffffffffffffffffffffffffffffffffff168173ffffffffffffffffffffffffffffffffffffffff16837f2f8788117e7eff1d82e926ec794901d17c78024a50270940304540a733656f0d60405160405180910390a45b5050565b600080600084815260200190815260200160002060000160008373ffffffffffffffffffffffffffffffffffffffff1673ffffffffffffffffffffffffffffffffffffffff16815260200190815260200160002060009054906101000a900460ff16905092915050565b600080fd5b600073ffffffffffffffffffffffffffffffffffffffff82169050919050565b6000620003328262000305565b9050919050565b620003448162000325565b81146200035057600080fd5b50565b600081519050620003648162000339565b92915050565b60006020828403121562000383576200038262000300565b5b6000620003938482850162000353565b91505092915050565b6121f280620003ac6000396000f3fe608060405234801561001057600080fd5b50600436106100f55760003560e01c806361f4486a11610097578063a217fddf11610066578063a217fddf14610274578063cfc86f7b14610292578063d547741f146102b0578063f2fde38b146102cc576100f5565b806361f4486a146101fe578063715018a61461021c5780638da5cb5b1461022657806391d1485414610244576100f5565b80632f2ff15d116100d35780632f2ff15d1461017857806336568abe1461019457806347408eeb146101b057806347e63380146101e0576100f5565b806301ffc9a7146100fa57806303fe46ab1461012a578063248a9ca314610148575b600080fd5b610114600480360381019061010f9190611174565b6102e8565b60405161012191906111bc565b60405180910390f35b610132610362565b60405161013f91906111f0565b60405180910390f35b610162600480360381019061015d9190611237565b610386565b60405161016f91906111f0565b60405180910390f35b610192600480360381019061018d91906112c2565b6103a5565b005b6101ae60048036038101906101a991906112c2565b6103c6565b005b6101ca60048036038101906101c5919061147e565b610449565b6040516101d7919061160f565b60405180910390f35b6101e86104c9565b6040516101f591906111f0565b60405180910390f35b6102066104ed565b604051610213919061160f565b60405180910390f35b61022461052a565b005b61022e61053e565b60405161023b9190611640565b60405180910390f35b61025e600480360381019061025991906112c2565b610568565b60405161026b91906111bc565b60405180910390f35b61027c6105d2565b60405161028991906111f0565b60405180910390f35b61029a6105d9565b6040516102a7919061160f565b60405180910390f35b6102ca60048036038101906102c591906112c2565b610667565b005b6102e660048036038101906102e1919061165b565b610688565b005b60007f7965db0b000000000000000000000000000000000000000000000000000000007bffffffffffffffffffffffffffffffffffffffffffffffffffffffff1916827bffffffffffffffffffffffffffffffffffffffffffffffffffffffff1916148061035b575061035a8261070b565b5b9050919050565b7f364d3d7565c7a8300c96fd53e065d19b65848d7b23b3191adcd55621c744223c81565b6000806000838152602001908152602001600020600101549050919050565b6103ae82610386565b6103b781610775565b6103c18383610789565b505050565b6103ce610869565b73ffffffffffffffffffffffffffffffffffffffff168173ffffffffffffffffffffffffffffffffffffffff161461043b576040517f08c379a0000000000000000000000000000000000000000000000000000000008152600401610432906116fa565b60405180910390fd5b6104458282610871565b5050565b606060006104996104598a610952565b898989896104668a610952565b61046f8a610952565b6040516020016104859796959493929190611c16565b604051602081830303815290604052610a20565b9050806040516020016104ac9190611d61565b604051602081830303815290604052915050979650505050505050565b7f73e573f9566d61418a34d5de3ff49360f9c51fec37f7486551670290f6285dab81565b60606040518060400160405280601d81526020017f646174613a6170706c69636174696f6e2f6a736f6e3b6261736536342c000000815250905090565b610532610b83565b61053c6000610c01565b565b6000600160009054906101000a900473ffffffffffffffffffffffffffffffffffffffff16905090565b600080600084815260200190815260200160002060000160008373ffffffffffffffffffffffffffffffffffffffff1673ffffffffffffffffffffffffffffffffffffffff16815260200190815260200160002060009054906101000a900460ff16905092915050565b6000801b81565b600280546105e690611db2565b80601f016020809104026020016040519081016040528092919081815260200182805461061290611db2565b801561065f5780601f106106345761010080835404028352916020019161065f565b820191906000526020600020905b81548152906001019060200180831161064257829003601f168201915b505050505081565b61067082610386565b61067981610775565b6106838383610871565b505050565b610690610b83565b600073ffffffffffffffffffffffffffffffffffffffff168173ffffffffffffffffffffffffffffffffffffffff16036106ff576040517f08c379a00000000000000000000000000000000000000000000000000000000081526004016106f690611e55565b60405180910390fd5b61070881610c01565b50565b60007f01ffc9a7000000000000000000000000000000000000000000000000000000007bffffffffffffffffffffffffffffffffffffffffffffffffffffffff1916827bffffffffffffffffffffffffffffffffffffffffffffffffffffffff1916149050919050565b61078681610781610869565b610cc7565b50565b6107938282610568565b61086557600160008084815260200190815260200160002060000160008373ffffffffffffffffffffffffffffffffffffffff1673ffffffffffffffffffffffffffffffffffffffff16815260200190815260200160002060006101000a81548160ff02191690831515021790555061080a610869565b73ffffffffffffffffffffffffffffffffffffffff168173ffffffffffffffffffffffffffffffffffffffff16837f2f8788117e7eff1d82e926ec794901d17c78024a50270940304540a733656f0d60405160405180910390a45b5050565b600033905090565b61087b8282610568565b1561094e57600080600084815260200190815260200160002060000160008373ffffffffffffffffffffffffffffffffffffffff1673ffffffffffffffffffffffffffffffffffffffff16815260200190815260200160002060006101000a81548160ff0219169083151502179055506108f3610869565b73ffffffffffffffffffffffffffffffffffffffff168173ffffffffffffffffffffffffffffffffffffffff16837ff6391f5c32d9c69d2a47ea670b442974b53935d1edc7fd64eb21e047a839171b60405160405180910390a45b5050565b60606000600161096184610d4c565b01905060008167ffffffffffffffff8111156109805761097f611353565b5b6040519080825280601f01601f1916602001820160405280156109b25781602001600182028036833780820191505090505b509050600082602001820190505b600115610a15578080600190039150507f3031323334353637383961626364656600000000000000000000000000000000600a86061a8153600a8581610a0957610a08611e75565b5b049450600085036109c0575b819350505050919050565b60606000825103610a4257604051806020016040528060008152509050610b7e565b600060405180606001604052806040815260200161217d6040913990506000600360028551610a719190611ed3565b610a7b9190611f07565b6004610a879190611f38565b67ffffffffffffffff811115610aa057610a9f611353565b5b6040519080825280601f01601f191660200182016040528015610ad25781602001600182028036833780820191505090505b509050600182016020820185865187015b80821015610b3e576003820191508151603f8160121c168501518453600184019350603f81600c1c168501518453600184019350603f8160061c168501518453600184019350603f8116850151845360018401935050610ae3565b5050600386510660018114610b5a5760028114610b6d57610b75565b603d6001830353603d6002830353610b75565b603d60018303535b50505080925050505b919050565b610b8b610869565b73ffffffffffffffffffffffffffffffffffffffff16610ba961053e565b73ffffffffffffffffffffffffffffffffffffffff1614610bff576040517f08c379a0000000000000000000000000000000000000000000000000000000008152600401610bf690611fc6565b60405180910390fd5b565b6000600160009054906101000a900473ffffffffffffffffffffffffffffffffffffffff16905081600160006101000a81548173ffffffffffffffffffffffffffffffffffffffff021916908373ffffffffffffffffffffffffffffffffffffffff1602179055508173ffffffffffffffffffffffffffffffffffffffff168173ffffffffffffffffffffffffffffffffffffffff167f8be0079c531659141344cd1fd0a4f28419497f9722a3daafe3b4186f6b6457e060405160405180910390a35050565b610cd18282610568565b610d4857610cde81610e9f565b610cec8360001c6020610ecc565b604051602001610cfd92919061207e565b6040516020818303038152906040526040517f08c379a0000000000000000000000000000000000000000000000000000000008152600401610d3f919061160f565b60405180910390fd5b5050565b600080600090507a184f03e93ff9f4daa797ed6e38ed64bf6a1f0100000000000000008310610daa577a184f03e93ff9f4daa797ed6e38ed64bf6a1f0100000000000000008381610da057610d9f611e75565b5b0492506040810190505b6d04ee2d6d415b85acef81000000008310610de7576d04ee2d6d415b85acef81000000008381610ddd57610ddc611e75565b5b0492506020810190505b662386f26fc100008310610e1657662386f26fc100008381610e0c57610e0b611e75565b5b0492506010810190505b6305f5e1008310610e3f576305f5e1008381610e3557610e34611e75565b5b0492506008810190505b6127108310610e64576127108381610e5a57610e59611e75565b5b0492506004810190505b60648310610e875760648381610e7d57610e7c611e75565b5b0492506002810190505b600a8310610e96576001810190505b80915050919050565b6060610ec58273ffffffffffffffffffffffffffffffffffffffff16601460ff16610ecc565b9050919050565b606060006002836002610edf9190611f38565b610ee99190611ed3565b67ffffffffffffffff811115610f0257610f01611353565b5b6040519080825280601f01601f191660200182016040528015610f345781602001600182028036833780820191505090505b5090507f300000000000000000000000000000000000000000000000000000000000000081600081518110610f6c57610f6b6120b8565b5b60200101907effffffffffffffffffffffffffffffffffffffffffffffffffffffffffffff1916908160001a9053507f780000000000000000000000000000000000000000000000000000000000000081600181518110610fd057610fcf6120b8565b5b60200101907effffffffffffffffffffffffffffffffffffffffffffffffffffffffffffff1916908160001a905350600060018460026110109190611f38565b61101a9190611ed3565b90505b60018111156110ba577f3031323334353637383961626364656600000000000000000000000000000000600f86166010811061105c5761105b6120b8565b5b1a60f81b828281518110611073576110726120b8565b5b60200101907effffffffffffffffffffffffffffffffffffffffffffffffffffffffffffff1916908160001a905350600485901c9450806110b3906120e7565b905061101d565b50600084146110fe576040517f08c379a00000000000000000000000000000000000000000000000000000000081526004016110f59061215c565b60405180910390fd5b8091505092915050565b6000604051905090565b600080fd5b600080fd5b60007fffffffff0000000000000000000000000000000000000000000000000000000082169050919050565b6111518161111c565b811461115c57600080fd5b50565b60008135905061116e81611148565b92915050565b60006020828403121561118a57611189611112565b5b60006111988482850161115f565b91505092915050565b60008115159050919050565b6111b6816111a1565b82525050565b60006020820190506111d160008301846111ad565b92915050565b6000819050919050565b6111ea816111d7565b82525050565b600060208201905061120560008301846111e1565b92915050565b611214816111d7565b811461121f57600080fd5b50565b6000813590506112318161120b565b92915050565b60006020828403121561124d5761124c611112565b5b600061125b84828501611222565b91505092915050565b600073ffffffffffffffffffffffffffffffffffffffff82169050919050565b600061128f82611264565b9050919050565b61129f81611284565b81146112aa57600080fd5b50565b6000813590506112bc81611296565b92915050565b600080604083850312156112d9576112d8611112565b5b60006112e785828601611222565b92505060206112f8858286016112ad565b9150509250929050565b6000819050919050565b61131581611302565b811461132057600080fd5b50565b6000813590506113328161130c565b92915050565b600080fd5b600080fd5b6000601f19601f8301169050919050565b7f4e487b7100000000000000000000000000000000000000000000000000000000600052604160045260246000fd5b61138b82611342565b810181811067ffffffffffffffff821117156113aa576113a9611353565b5b80604052505050565b60006113bd611108565b90506113c98282611382565b919050565b600067ffffffffffffffff8211156113e9576113e8611353565b5b6113f282611342565b9050602081019050919050565b82818337600083830152505050565b600061142161141c846113ce565b6113b3565b90508281526020810184848401111561143d5761143c61133d565b5b6114488482856113ff565b509392505050565b600082601f83011261146557611464611338565b5b813561147584826020860161140e565b91505092915050565b600080600080600080600060e0888a03121561149d5761149c611112565b5b60006114ab8a828b01611323565b975050602088013567ffffffffffffffff8111156114cc576114cb611117565b5b6114d88a828b01611450565b965050604088013567ffffffffffffffff8111156114f9576114f8611117565b5b6115058a828b01611450565b955050606088013567ffffffffffffffff81111561152657611525611117565b5b6115328a828b01611450565b945050608088013567ffffffffffffffff81111561155357611552611117565b5b61155f8a828b01611450565b93505060a06115708a828b01611323565b92505060c06115818a828b01611323565b91505092959891949750929550565b600081519050919050565b600082825260208201905092915050565b60005b838110156115ca5780820151818401526020810190506115af565b60008484015250505050565b60006115e182611590565b6115eb818561159b565b93506115fb8185602086016115ac565b61160481611342565b840191505092915050565b6000602082019050818103600083015261162981846115d6565b905092915050565b61163a81611284565b82525050565b60006020820190506116556000830184611631565b92915050565b60006020828403121561167157611670611112565b5b600061167f848285016112ad565b91505092915050565b7f416363657373436f6e74726f6c3a2063616e206f6e6c792072656e6f756e636560008201527f20726f6c657320666f722073656c660000000000000000000000000000000000602082015250565b60006116e4602f8361159b565b91506116ef82611688565b604082019050919050565b60006020820190508181036000830152611713816116d7565b9050919050565b600081905092915050565b7f7b226e616d65223a20224d757368726f6f6d2023000000000000000000000000600082015250565b600061175b60148361171a565b915061176682611725565b601482019050919050565b600061177c82611590565b611786818561171a565b93506117968185602086016115ac565b80840191505092915050565b7f222c20226465736372697074696f6e223a20224d616c6963696f7573204d757360008201527f68726f6f6d732052617772222c2022696d616765223a202268747470733a2f2f60208201527f697066732e696f2f697066732f516d523574597277317271724b6d4e726d613960408201527f426b664553616739504a684243634e4d68563331745a7335765a313f66696c6560608201527f6e616d653d312e706e67222c202261747472696275746573223a205b00000000608082015250565b6000611870609c8361171a565b915061187b826117a2565b609c82019050919050565b7f7b2274726169745f74797065223a2022576561706f6e222c202276616c75652260008201527f3a20220000000000000000000000000000000000000000000000000000000000602082015250565b60006118e260238361171a565b91506118ed82611886565b602382019050919050565b7f227d2c0000000000000000000000000000000000000000000000000000000000600082015250565b600061192e60038361171a565b9150611939826118f8565b600382019050919050565b7f7b2274726169745f74797065223a202241726d6f72222c202276616c7565223a60008201527f2022000000000000000000000000000000000000000000000000000000000000602082015250565b60006119a060228361171a565b91506119ab82611944565b602282019050919050565b7f7b2274726169745f74797065223a20224163636573736f7279222c202276616c60008201527f7565223a20220000000000000000000000000000000000000000000000000000602082015250565b6000611a1260268361171a565b9150611a1d826119b6565b602682019050919050565b7f7b2274726169745f74797065223a2022456c656d656e74222c202276616c756560008201527f223a202200000000000000000000000000000000000000000000000000000000602082015250565b6000611a8460248361171a565b9150611a8f82611a28565b602482019050919050565b7f7b2274726169745f74797065223a20224c6576656c222c202276616c7565223a60008201527f2000000000000000000000000000000000000000000000000000000000000000602082015250565b6000611af660218361171a565b9150611b0182611a9a565b602182019050919050565b7f7d2c000000000000000000000000000000000000000000000000000000000000600082015250565b6000611b4260028361171a565b9150611b4d82611b0c565b600282019050919050565b7f7b2274726169745f74797065223a202253706f726573222c202276616c75652260008201527f3a20000000000000000000000000000000000000000000000000000000000000602082015250565b6000611bb460228361171a565b9150611bbf82611b58565b602282019050919050565b7f7d5d7d0000000000000000000000000000000000000000000000000000000000600082015250565b6000611c0060038361171a565b9150611c0b82611bca565b600382019050919050565b6000611c218261174e565b9150611c2d828a611771565b9150611c3882611863565b9150611c43826118d5565b9150611c4f8289611771565b9150611c5a82611921565b9150611c6582611993565b9150611c718288611771565b9150611c7c82611921565b9150611c8782611a05565b9150611c938287611771565b9150611c9e82611921565b9150611ca982611a77565b9150611cb58286611771565b9150611cc082611921565b9150611ccb82611ae9565b9150611cd78285611771565b9150611ce282611b35565b9150611ced82611ba7565b9150611cf98284611771565b9150611d0482611bf3565b915081905098975050505050505050565b7f646174613a6170706c69636174696f6e2f6a736f6e3b6261736536342c000000600082015250565b6000611d4b601d8361171a565b9150611d5682611d15565b601d82019050919050565b6000611d6c82611d3e565b9150611d788284611771565b915081905092915050565b7f4e487b7100000000000000000000000000000000000000000000000000000000600052602260045260246000fd5b60006002820490506001821680611dca57607f821691505b602082108103611ddd57611ddc611d83565b5b50919050565b7f4f776e61626c653a206e6577206f776e657220697320746865207a65726f206160008201527f6464726573730000000000000000000000000000000000000000000000000000602082015250565b6000611e3f60268361159b565b9150611e4a82611de3565b604082019050919050565b60006020820190508181036000830152611e6e81611e32565b9050919050565b7f4e487b7100000000000000000000000000000000000000000000000000000000600052601260045260246000fd5b7f4e487b7100000000000000000000000000000000000000000000000000000000600052601160045260246000fd5b6000611ede82611302565b9150611ee983611302565b9250828201905080821115611f0157611f00611ea4565b5b92915050565b6000611f1282611302565b9150611f1d83611302565b925082611f2d57611f2c611e75565b5b828204905092915050565b6000611f4382611302565b9150611f4e83611302565b9250828202611f5c81611302565b91508282048414831517611f7357611f72611ea4565b5b5092915050565b7f4f776e61626c653a2063616c6c6572206973206e6f7420746865206f776e6572600082015250565b6000611fb060208361159b565b9150611fbb82611f7a565b602082019050919050565b60006020820190508181036000830152611fdf81611fa3565b9050919050565b7f416363657373436f6e74726f6c3a206163636f756e7420000000000000000000600082015250565b600061201c60178361171a565b915061202782611fe6565b601782019050919050565b7f206973206d697373696e6720726f6c6520000000000000000000000000000000600082015250565b600061206860118361171a565b915061207382612032565b601182019050919050565b60006120898261200f565b91506120958285611771565b91506120a08261205b565b91506120ac8284611771565b91508190509392505050565b7f4e487b7100000000000000000000000000000000000000000000000000000000600052603260045260246000fd5b60006120f282611302565b91506000820361210557612104611ea4565b5b600182039050919050565b7f537472696e67733a20686578206c656e67746820696e73756666696369656e74600082015250565b600061214660208361159b565b915061215182612110565b602082019050919050565b6000602082019050818103600083015261217581612139565b905091905056fe4142434445464748494a4b4c4d4e4f505152535455565758595a6162636465666768696a6b6c6d6e6f707172737475767778797a303132333435363738392b2fa2646970667358221220c1ffb4f6f3be45ca05cdfae08d3c564a8f91df736160301e4dc90b46d66a436a64736f6c63430008110033",
  "linkReferences": {},
  "deployedLinkReferences": {}
}