{
  "_format": "hh-sol-artifact-1",
  "contractName": "Metadata",
  "sourceName": "contracts/Metadata.sol",
  "abi": [
    {
      "inputs": [
        {
          "internalType": "address",
          "name": "admin",
          "type": "address"
        }
      ],
      "stateMutability": "nonpayable",
      "type": "constructor"
    },
    {
      "anonymous": false,
      "inputs": [
        {
          "indexed": true,
          "internalType": "address",
          "name": "previousOwner",
          "type": "address"
        },
        {
          "indexed": true,
          "internalType": "address",
          "name": "newOwner",
          "type": "address"
        }
      ],
      "name": "OwnershipTransferred",
      "type": "event"
    },
    {
      "anonymous": false,
      "inputs": [
        {
          "indexed": true,
          "internalType": "bytes32",
          "name": "role",
          "type": "bytes32"
        },
        {
          "indexed": true,
          "internalType": "bytes32",
          "name": "previousAdminRole",
          "type": "bytes32"
        },
        {
          "indexed": true,
          "internalType": "bytes32",
          "name": "newAdminRole",
          "type": "bytes32"
        }
      ],
      "name": "RoleAdminChanged",
      "type": "event"
    },
    {
      "anonymous": false,
      "inputs": [
        {
          "indexed": true,
          "internalType": "bytes32",
          "name": "role",
          "type": "bytes32"
        },
        {
          "indexed": true,
          "internalType": "address",
          "name": "account",
          "type": "address"
        },
        {
          "indexed": true,
          "internalType": "address",
          "name": "sender",
          "type": "address"
        }
      ],
      "name": "RoleGranted",
      "type": "event"
    },
    {
      "anonymous": false,
      "inputs": [
        {
          "indexed": true,
          "internalType": "bytes32",
          "name": "role",
          "type": "bytes32"
        },
        {
          "indexed": true,
          "internalType": "address",
          "name": "account",
          "type": "address"
        },
        {
          "indexed": true,
          "internalType": "address",
          "name": "sender",
          "type": "address"
        }
      ],
      "name": "RoleRevoked",
      "type": "event"
    },
    {
      "inputs": [],
      "name": "CONTRACT_ROLE",
      "outputs": [
        {
          "internalType": "bytes32",
          "name": "",
          "type": "bytes32"
        }
      ],
      "stateMutability": "view",
      "type": "function"
    },
    {
      "inputs": [],
      "name": "DEFAULT_ADMIN_ROLE",
      "outputs": [
        {
          "internalType": "bytes32",
          "name": "",
          "type": "bytes32"
        }
      ],
      "stateMutability": "view",
      "type": "function"
    },
    {
      "inputs": [],
      "name": "UPDATER_ROLE",
      "outputs": [
        {
          "internalType": "bytes32",
          "name": "",
          "type": "bytes32"
        }
      ],
      "stateMutability": "view",
      "type": "function"
    },
    {
      "inputs": [],
      "name": "_baseTokenURI",
      "outputs": [
        {
          "internalType": "string",
          "name": "",
          "type": "string"
        }
      ],
      "stateMutability": "view",
      "type": "function"
    },
    {
      "inputs": [
        {
          "internalType": "uint256",
          "name": "_tokenId",
          "type": "uint256"
        },
        {
          "internalType": "uint256",
          "name": "level",
          "type": "uint256"
        }
      ],
      "name": "decrementLevel",
      "outputs": [],
      "stateMutability": "nonpayable",
      "type": "function"
    },
    {
      "inputs": [
        {
          "internalType": "uint256",
          "name": "_tokenId",
          "type": "uint256"
        },
        {
          "internalType": "uint32",
          "name": "_spores",
          "type": "uint32"
        }
      ],
      "name": "decrementSpores",
      "outputs": [],
      "stateMutability": "nonpayable",
      "type": "function"
    },
    {
      "inputs": [
        {
          "internalType": "uint256",
          "name": "_tokenId",
          "type": "uint256"
        }
      ],
      "name": "getArray",
      "outputs": [
        {
          "components": [
            {
              "internalType": "uint256",
              "name": "id",
              "type": "uint256"
            },
            {
              "internalType": "uint32",
              "name": "spores",
              "type": "uint32"
            },
            {
              "internalType": "string",
              "name": "backgroundColor",
              "type": "string"
            },
            {
              "internalType": "string",
              "name": "head",
              "type": "string"
            },
            {
              "internalType": "string",
              "name": "eyes",
              "type": "string"
            },
            {
              "internalType": "string",
              "name": "mouth",
              "type": "string"
            },
            {
              "internalType": "string",
              "name": "element",
              "type": "string"
            },
            {
              "internalType": "string",
              "name": "weapon",
              "type": "string"
            },
            {
              "internalType": "string",
              "name": "armor",
              "type": "string"
            },
            {
              "internalType": "string",
              "name": "accessory",
              "type": "string"
            },
            {
              "internalType": "uint256",
              "name": "level",
              "type": "uint256"
            }
          ],
          "internalType": "struct Metadata.Mushroom",
          "name": "",
          "type": "tuple"
        }
      ],
      "stateMutability": "nonpayable",
      "type": "function"
    },
    {
      "inputs": [
        {
          "internalType": "uint256",
          "name": "_tokenId",
          "type": "uint256"
        }
      ],
      "name": "getMushroomData",
      "outputs": [
        {
          "components": [
            {
              "internalType": "uint256",
              "name": "id",
              "type": "uint256"
            },
            {
              "internalType": "uint32",
              "name": "spores",
              "type": "uint32"
            },
            {
              "internalType": "string",
              "name": "backgroundColor",
              "type": "string"
            },
            {
              "internalType": "string",
              "name": "head",
              "type": "string"
            },
            {
              "internalType": "string",
              "name": "eyes",
              "type": "string"
            },
            {
              "internalType": "string",
              "name": "mouth",
              "type": "string"
            },
            {
              "internalType": "string",
              "name": "element",
              "type": "string"
            },
            {
              "internalType": "string",
              "name": "weapon",
              "type": "string"
            },
            {
              "internalType": "string",
              "name": "armor",
              "type": "string"
            },
            {
              "internalType": "string",
              "name": "accessory",
              "type": "string"
            },
            {
              "internalType": "uint256",
              "name": "level",
              "type": "uint256"
            }
          ],
          "internalType": "struct Metadata.Mushroom",
          "name": "",
          "type": "tuple"
        }
      ],
      "stateMutability": "nonpayable",
      "type": "function"
    },
    {
      "inputs": [
        {
          "internalType": "bytes32",
          "name": "role",
          "type": "bytes32"
        }
      ],
      "name": "getRoleAdmin",
      "outputs": [
        {
          "internalType": "bytes32",
          "name": "",
          "type": "bytes32"
        }
      ],
      "stateMutability": "view",
      "type": "function"
    },
    {
      "inputs": [
        {
          "internalType": "bytes32",
          "name": "role",
          "type": "bytes32"
        },
        {
          "internalType": "address",
          "name": "account",
          "type": "address"
        }
      ],
      "name": "grantRole",
      "outputs": [],
      "stateMutability": "nonpayable",
      "type": "function"
    },
    {
      "inputs": [
        {
          "internalType": "bytes32",
          "name": "role",
          "type": "bytes32"
        },
        {
          "internalType": "address",
          "name": "account",
          "type": "address"
        }
      ],
      "name": "hasRole",
      "outputs": [
        {
          "internalType": "bool",
          "name": "",
          "type": "bool"
        }
      ],
      "stateMutability": "view",
      "type": "function"
    },
    {
      "inputs": [
        {
          "internalType": "uint256",
          "name": "_tokenId",
          "type": "uint256"
        },
        {
          "internalType": "uint256",
          "name": "level",
          "type": "uint256"
        }
      ],
      "name": "incrementLevel",
      "outputs": [],
      "stateMutability": "nonpayable",
      "type": "function"
    },
    {
      "inputs": [
        {
          "internalType": "uint256",
          "name": "_tokenId",
          "type": "uint256"
        },
        {
          "internalType": "uint32",
          "name": "_spores",
          "type": "uint32"
        }
      ],
      "name": "incrementSpores",
      "outputs": [],
      "stateMutability": "nonpayable",
      "type": "function"
    },
    {
      "inputs": [
        {
          "internalType": "uint256",
          "name": "_tokenId",
          "type": "uint256"
        },
        {
          "components": [
            {
              "internalType": "uint256",
              "name": "id",
              "type": "uint256"
            },
            {
              "internalType": "uint32",
              "name": "spores",
              "type": "uint32"
            },
            {
              "internalType": "string",
              "name": "backgroundColor",
              "type": "string"
            },
            {
              "internalType": "string",
              "name": "head",
              "type": "string"
            },
            {
              "internalType": "string",
              "name": "eyes",
              "type": "string"
            },
            {
              "internalType": "string",
              "name": "mouth",
              "type": "string"
            },
            {
              "internalType": "string",
              "name": "element",
              "type": "string"
            },
            {
              "internalType": "string",
              "name": "weapon",
              "type": "string"
            },
            {
              "internalType": "string",
              "name": "armor",
              "type": "string"
            },
            {
              "internalType": "string",
              "name": "accessory",
              "type": "string"
            },
            {
              "internalType": "uint256",
              "name": "level",
              "type": "uint256"
            }
          ],
          "internalType": "struct Metadata.Mushroom",
          "name": "mushroom",
          "type": "tuple"
        }
      ],
      "name": "makeTokenURI",
      "outputs": [
        {
          "internalType": "string",
          "name": "",
          "type": "string"
        }
      ],
      "stateMutability": "nonpayable",
      "type": "function"
    },
    {
      "inputs": [
        {
          "internalType": "uint256",
          "name": "",
          "type": "uint256"
        }
      ],
      "name": "mushroomArray",
      "outputs": [
        {
          "internalType": "uint256",
          "name": "id",
          "type": "uint256"
        },
        {
          "internalType": "uint32",
          "name": "spores",
          "type": "uint32"
        },
        {
          "internalType": "string",
          "name": "backgroundColor",
          "type": "string"
        },
        {
          "internalType": "string",
          "name": "head",
          "type": "string"
        },
        {
          "internalType": "string",
          "name": "eyes",
          "type": "string"
        },
        {
          "internalType": "string",
          "name": "mouth",
          "type": "string"
        },
        {
          "internalType": "string",
          "name": "element",
          "type": "string"
        },
        {
          "internalType": "string",
          "name": "weapon",
          "type": "string"
        },
        {
          "internalType": "string",
          "name": "armor",
          "type": "string"
        },
        {
          "internalType": "string",
          "name": "accessory",
          "type": "string"
        },
        {
          "internalType": "uint256",
          "name": "level",
          "type": "uint256"
        }
      ],
      "stateMutability": "view",
      "type": "function"
    },
    {
      "inputs": [
        {
          "internalType": "uint256",
          "name": "",
          "type": "uint256"
        }
      ],
      "name": "mushroomAttributes",
      "outputs": [
        {
          "internalType": "uint256",
          "name": "id",
          "type": "uint256"
        },
        {
          "internalType": "uint32",
          "name": "spores",
          "type": "uint32"
        },
        {
          "internalType": "string",
          "name": "backgroundColor",
          "type": "string"
        },
        {
          "internalType": "string",
          "name": "head",
          "type": "string"
        },
        {
          "internalType": "string",
          "name": "eyes",
          "type": "string"
        },
        {
          "internalType": "string",
          "name": "mouth",
          "type": "string"
        },
        {
          "internalType": "string",
          "name": "element",
          "type": "string"
        },
        {
          "internalType": "string",
          "name": "weapon",
          "type": "string"
        },
        {
          "internalType": "string",
          "name": "armor",
          "type": "string"
        },
        {
          "internalType": "string",
          "name": "accessory",
          "type": "string"
        },
        {
          "internalType": "uint256",
          "name": "level",
          "type": "uint256"
        }
      ],
      "stateMutability": "view",
      "type": "function"
    },
    {
      "inputs": [],
      "name": "owner",
      "outputs": [
        {
          "internalType": "address",
          "name": "",
          "type": "address"
        }
      ],
      "stateMutability": "view",
      "type": "function"
    },
    {
      "inputs": [],
      "name": "renounceOwnership",
      "outputs": [],
      "stateMutability": "nonpayable",
      "type": "function"
    },
    {
      "inputs": [
        {
          "internalType": "bytes32",
          "name": "role",
          "type": "bytes32"
        },
        {
          "internalType": "address",
          "name": "account",
          "type": "address"
        }
      ],
      "name": "renounceRole",
      "outputs": [],
      "stateMutability": "nonpayable",
      "type": "function"
    },
    {
      "inputs": [],
      "name": "returnExtension",
      "outputs": [
        {
          "internalType": "string",
          "name": "",
          "type": "string"
        }
      ],
      "stateMutability": "pure",
      "type": "function"
    },
    {
      "inputs": [
        {
          "internalType": "bytes32",
          "name": "role",
          "type": "bytes32"
        },
        {
          "internalType": "address",
          "name": "account",
          "type": "address"
        }
      ],
      "name": "revokeRole",
      "outputs": [],
      "stateMutability": "nonpayable",
      "type": "function"
    },
    {
      "inputs": [
        {
          "components": [
            {
              "internalType": "uint256",
              "name": "id",
              "type": "uint256"
            },
            {
              "internalType": "uint32",
              "name": "spores",
              "type": "uint32"
            },
            {
              "internalType": "string",
              "name": "backgroundColor",
              "type": "string"
            },
            {
              "internalType": "string",
              "name": "head",
              "type": "string"
            },
            {
              "internalType": "string",
              "name": "eyes",
              "type": "string"
            },
            {
              "internalType": "string",
              "name": "mouth",
              "type": "string"
            },
            {
              "internalType": "string",
              "name": "element",
              "type": "string"
            },
            {
              "internalType": "string",
              "name": "weapon",
              "type": "string"
            },
            {
              "internalType": "string",
              "name": "armor",
              "type": "string"
            },
            {
              "internalType": "string",
              "name": "accessory",
              "type": "string"
            },
            {
              "internalType": "uint256",
              "name": "level",
              "type": "uint256"
            }
          ],
          "internalType": "struct Metadata.Mushroom",
          "name": "mushroom",
          "type": "tuple"
        }
      ],
      "name": "setMushroomData",
      "outputs": [],
      "stateMutability": "nonpayable",
      "type": "function"
    },
    {
      "inputs": [
        {
          "internalType": "bytes4",
          "name": "interfaceId",
          "type": "bytes4"
        }
      ],
      "name": "supportsInterface",
      "outputs": [
        {
          "internalType": "bool",
          "name": "",
          "type": "bool"
        }
      ],
      "stateMutability": "view",
      "type": "function"
    },
    {
      "inputs": [
        {
          "internalType": "address",
          "name": "newOwner",
          "type": "address"
        }
      ],
      "name": "transferOwnership",
      "outputs": [],
      "stateMutability": "nonpayable",
      "type": "function"
    },
    {
      "inputs": [
        {
          "internalType": "uint256",
          "name": "_tokenId",
          "type": "uint256"
        },
        {
          "internalType": "string",
          "name": "accessory",
          "type": "string"
        }
      ],
      "name": "updateAccessory",
      "outputs": [],
      "stateMutability": "nonpayable",
      "type": "function"
    },
    {
      "inputs": [
        {
          "internalType": "uint256",
          "name": "_tokenId",
          "type": "uint256"
        },
        {
          "internalType": "string",
          "name": "armor",
          "type": "string"
        }
      ],
      "name": "updateArmor",
      "outputs": [],
      "stateMutability": "nonpayable",
      "type": "function"
    },
    {
      "inputs": [
        {
          "internalType": "uint256",
          "name": "_tokenId",
          "type": "uint256"
        },
        {
          "internalType": "string",
          "name": "backgroundColor",
          "type": "string"
        }
      ],
      "name": "updateBackgroundColor",
      "outputs": [],
      "stateMutability": "nonpayable",
      "type": "function"
    },
    {
      "inputs": [
        {
          "internalType": "uint256",
          "name": "_tokenId",
          "type": "uint256"
        },
        {
          "internalType": "string",
          "name": "element",
          "type": "string"
        }
      ],
      "name": "updateElement",
      "outputs": [],
      "stateMutability": "nonpayable",
      "type": "function"
    },
    {
      "inputs": [
        {
          "internalType": "uint256",
          "name": "_tokenId",
          "type": "uint256"
        },
        {
          "internalType": "string",
          "name": "eyes",
          "type": "string"
        }
      ],
      "name": "updateEyes",
      "outputs": [],
      "stateMutability": "nonpayable",
      "type": "function"
    },
    {
      "inputs": [
        {
          "internalType": "uint256",
          "name": "_tokenId",
          "type": "uint256"
        },
        {
          "internalType": "string",
          "name": "head",
          "type": "string"
        }
      ],
      "name": "updateHead",
      "outputs": [],
      "stateMutability": "nonpayable",
      "type": "function"
    },
    {
      "inputs": [
        {
          "internalType": "uint256",
          "name": "_tokenId",
          "type": "uint256"
        },
        {
          "internalType": "string",
          "name": "mouth",
          "type": "string"
        }
      ],
      "name": "updateMouth",
      "outputs": [],
      "stateMutability": "nonpayable",
      "type": "function"
    },
    {
      "inputs": [
        {
          "internalType": "uint256",
          "name": "_tokenId",
          "type": "uint256"
        },
        {
          "internalType": "string",
          "name": "weapon",
          "type": "string"
        }
      ],
      "name": "updateWeapon",
      "outputs": [],
      "stateMutability": "nonpayable",
      "type": "function"
    }
  ],
  "bytecode": "0x6080604052604051806060016040528060268152602001620050f860269139600290816200002e9190620005a5565b503480156200003c57600080fd5b506040516200511e3803806200511e8339818101604052810190620000629190620006f6565b62000082620000766200010260201b60201c565b6200010a60201b60201c565b620000976000801b82620001d060201b60201c565b620000c97f73e573f9566d61418a34d5de3ff49360f9c51fec37f7486551670290f6285dab33620001d060201b60201c565b620000fb7f364d3d7565c7a8300c96fd53e065d19b65848d7b23b3191adcd55621c744223c33620001d060201b60201c565b5062000728565b600033905090565b6000600160009054906101000a900473ffffffffffffffffffffffffffffffffffffffff16905081600160006101000a81548173ffffffffffffffffffffffffffffffffffffffff021916908373ffffffffffffffffffffffffffffffffffffffff1602179055508173ffffffffffffffffffffffffffffffffffffffff168173ffffffffffffffffffffffffffffffffffffffff167f8be0079c531659141344cd1fd0a4f28419497f9722a3daafe3b4186f6b6457e060405160405180910390a35050565b620001e28282620002c160201b60201c565b620002bd57600160008084815260200190815260200160002060000160008373ffffffffffffffffffffffffffffffffffffffff1673ffffffffffffffffffffffffffffffffffffffff16815260200190815260200160002060006101000a81548160ff021916908315150217905550620002626200010260201b60201c565b73ffffffffffffffffffffffffffffffffffffffff168173ffffffffffffffffffffffffffffffffffffffff16837f2f8788117e7eff1d82e926ec794901d17c78024a50270940304540a733656f0d60405160405180910390a45b5050565b600080600084815260200190815260200160002060000160008373ffffffffffffffffffffffffffffffffffffffff1673ffffffffffffffffffffffffffffffffffffffff16815260200190815260200160002060009054906101000a900460ff16905092915050565b600081519050919050565b7f4e487b7100000000000000000000000000000000000000000000000000000000600052604160045260246000fd5b7f4e487b7100000000000000000000000000000000000000000000000000000000600052602260045260246000fd5b60006002820490506001821680620003ad57607f821691505b602082108103620003c357620003c262000365565b5b50919050565b60008190508160005260206000209050919050565b60006020601f8301049050919050565b600082821b905092915050565b6000600883026200042d7fffffffffffffffffffffffffffffffffffffffffffffffffffffffffffffffff82620003ee565b620004398683620003ee565b95508019841693508086168417925050509392505050565b6000819050919050565b6000819050919050565b600062000486620004806200047a8462000451565b6200045b565b62000451565b9050919050565b6000819050919050565b620004a28362000465565b620004ba620004b1826200048d565b848454620003fb565b825550505050565b600090565b620004d1620004c2565b620004de81848462000497565b505050565b5b818110156200050657620004fa600082620004c7565b600181019050620004e4565b5050565b601f82111562000555576200051f81620003c9565b6200052a84620003de565b810160208510156200053a578190505b620005526200054985620003de565b830182620004e3565b50505b505050565b600082821c905092915050565b60006200057a600019846008026200055a565b1980831691505092915050565b600062000595838362000567565b9150826002028217905092915050565b620005b0826200032b565b67ffffffffffffffff811115620005cc57620005cb62000336565b5b620005d8825462000394565b620005e58282856200050a565b600060209050601f8311600181146200061d576000841562000608578287015190505b62000614858262000587565b86555062000684565b601f1984166200062d86620003c9565b60005b82811015620006575784890151825560018201915060208501945060208101905062000630565b8683101562000677578489015162000673601f89168262000567565b8355505b6001600288020188555050505b505050505050565b600080fd5b600073ffffffffffffffffffffffffffffffffffffffff82169050919050565b6000620006be8262000691565b9050919050565b620006d081620006b1565b8114620006dc57600080fd5b50565b600081519050620006f081620006c5565b92915050565b6000602082840312156200070f576200070e6200068c565b5b60006200071f84828501620006df565b91505092915050565b6149c080620007386000396000f3fe608060405234801561001057600080fd5b50600436106101f05760003560e01c8063836068891161010f578063ab35ec63116100a2578063dd75d6d911610071578063dd75d6d91461059f578063e3f4a91a146105cf578063f2fde38b146105eb578063ff4d370114610607576101f0565b8063ab35ec6314610519578063caec803b14610549578063cfc86f7b14610565578063d547741f14610583576101f0565b806391d14854116100de57806391d1485414610475578063a217fddf146104a5578063a3320277146104c3578063a42144bf146104fd576101f0565b8063836068891461040357806389780bbc1461041f5780638bc5cfa11461043b5780638da5cb5b14610457576101f0565b806340e45e9c116101875780635530241f116101565780635530241f1461038f57806360e9ffe9146103ab57806361f4486a146103db578063715018a6146103f9576101f0565b806340e45e9c1461031d57806347e63380146103395780634ebca510146103575780635288d6e014610373576101f0565b8063248a9ca3116101c3578063248a9ca3146102995780632f2ff15d146102c95780633087c9f8146102e557806336568abe14610301576101f0565b806301ffc9a7146101f557806303fe46ab146102255780630cd0116614610243578063146ed63d1461027d575b600080fd5b61020f600480360381019061020a9190612fc0565b610623565b60405161021c9190613008565b60405180910390f35b61022d61069d565b60405161023a919061303c565b60405180910390f35b61025d6004803603810190610258919061308d565b6106c1565b6040516102749b9a99989796959493929190613178565b60405180910390f35b61029760048036038101906102929190613390565b610b7b565b005b6102b360048036038101906102ae9190613418565b610bce565b6040516102c0919061303c565b60405180910390f35b6102e360048036038101906102de91906134a3565b610bed565b005b6102ff60048036038101906102fa9190613390565b610c0e565b005b61031b600480360381019061031691906134a3565b610c61565b005b61033760048036038101906103329190613390565b610ce4565b005b610341610d37565b60405161034e919061303c565b60405180910390f35b610371600480360381019061036c9190613390565b610d5b565b005b61038d60048036038101906103889190613390565b610dae565b005b6103a960048036038101906103a49190613705565b610e01565b005b6103c560048036038101906103c0919061308d565b611054565b6040516103d291906138d6565b60405180910390f35b6103e361154c565b6040516103f091906138f8565b60405180910390f35b610401611589565b005b61041d60048036038101906104189190613390565b61159d565b005b61043960048036038101906104349190613390565b6115f0565b005b6104556004803603810190610450919061391a565b611643565b005b61045f61169f565b60405161046c9190613969565b60405180910390f35b61048f600480360381019061048a91906134a3565b6116c9565b60405161049c9190613008565b60405180910390f35b6104ad611733565b6040516104ba919061303c565b60405180910390f35b6104dd60048036038101906104d8919061308d565b61173a565b6040516104f49b9a99989796959493929190613178565b60405180910390f35b61051760048036038101906105129190613390565b611be4565b005b610533600480360381019061052e919061308d565b611c37565b60405161054091906138d6565b60405180910390f35b610563600480360381019061055e9190613984565b61214a565b005b61056d6121cc565b60405161057a91906138f8565b60405180910390f35b61059d600480360381019061059891906134a3565b61225a565b005b6105b960048036038101906105b491906139c4565b61227b565b6040516105c691906138f8565b60405180910390f35b6105e960048036038101906105e4919061391a565b612396565b005b61060560048036038101906106009190613a20565b6123f2565b005b610621600480360381019061061c9190613984565b612475565b005b60007f7965db0b000000000000000000000000000000000000000000000000000000007bffffffffffffffffffffffffffffffffffffffffffffffffffffffff1916827bffffffffffffffffffffffffffffffffffffffffffffffffffffffff191614806106965750610695826124f7565b5b9050919050565b7f364d3d7565c7a8300c96fd53e065d19b65848d7b23b3191adcd55621c744223c81565b600481815481106106d157600080fd5b90600052602060002090600b02016000915090508060000154908060010160009054906101000a900463ffffffff169080600201805461071090613a7c565b80601f016020809104026020016040519081016040528092919081815260200182805461073c90613a7c565b80156107895780601f1061075e57610100808354040283529160200191610789565b820191906000526020600020905b81548152906001019060200180831161076c57829003601f168201915b50505050509080600301805461079e90613a7c565b80601f01602080910402602001604051908101604052809291908181526020018280546107ca90613a7c565b80156108175780601f106107ec57610100808354040283529160200191610817565b820191906000526020600020905b8154815290600101906020018083116107fa57829003601f168201915b50505050509080600401805461082c90613a7c565b80601f016020809104026020016040519081016040528092919081815260200182805461085890613a7c565b80156108a55780601f1061087a576101008083540402835291602001916108a5565b820191906000526020600020905b81548152906001019060200180831161088857829003601f168201915b5050505050908060050180546108ba90613a7c565b80601f01602080910402602001604051908101604052809291908181526020018280546108e690613a7c565b80156109335780601f1061090857610100808354040283529160200191610933565b820191906000526020600020905b81548152906001019060200180831161091657829003601f168201915b50505050509080600601805461094890613a7c565b80601f016020809104026020016040519081016040528092919081815260200182805461097490613a7c565b80156109c15780601f10610996576101008083540402835291602001916109c1565b820191906000526020600020905b8154815290600101906020018083116109a457829003601f168201915b5050505050908060070180546109d690613a7c565b80601f0160208091040260200160405190810160405280929190818152602001828054610a0290613a7c565b8015610a4f5780601f10610a2457610100808354040283529160200191610a4f565b820191906000526020600020905b815481529060010190602001808311610a3257829003601f168201915b505050505090806008018054610a6490613a7c565b80601f0160208091040260200160405190810160405280929190818152602001828054610a9090613a7c565b8015610add5780601f10610ab257610100808354040283529160200191610add565b820191906000526020600020905b815481529060010190602001808311610ac057829003601f168201915b505050505090806009018054610af290613a7c565b80601f0160208091040260200160405190810160405280929190818152602001828054610b1e90613a7c565b8015610b6b5780601f10610b4057610100808354040283529160200191610b6b565b820191906000526020600020905b815481529060010190602001808311610b4e57829003601f168201915b50505050509080600a015490508b565b7f73e573f9566d61418a34d5de3ff49360f9c51fec37f7486551670290f6285dab610ba581612561565b81600360008581526020019081526020016000206003019081610bc89190613c59565b50505050565b6000806000838152602001908152602001600020600101549050919050565b610bf682610bce565b610bff81612561565b610c098383612575565b505050565b7f73e573f9566d61418a34d5de3ff49360f9c51fec37f7486551670290f6285dab610c3881612561565b81600360008581526020019081526020016000206009019081610c5b9190613c59565b50505050565b610c69612655565b73ffffffffffffffffffffffffffffffffffffffff168173ffffffffffffffffffffffffffffffffffffffff1614610cd6576040517f08c379a0000000000000000000000000000000000000000000000000000000008152600401610ccd90613d9d565b60405180910390fd5b610ce0828261265d565b5050565b7f73e573f9566d61418a34d5de3ff49360f9c51fec37f7486551670290f6285dab610d0e81612561565b81600360008581526020019081526020016000206006019081610d319190613c59565b50505050565b7f73e573f9566d61418a34d5de3ff49360f9c51fec37f7486551670290f6285dab81565b7f73e573f9566d61418a34d5de3ff49360f9c51fec37f7486551670290f6285dab610d8581612561565b81600360008581526020019081526020016000206007019081610da89190613c59565b50505050565b7f73e573f9566d61418a34d5de3ff49360f9c51fec37f7486551670290f6285dab610dd881612561565b81600360008581526020019081526020016000206008019081610dfb9190613c59565b50505050565b7f73e573f9566d61418a34d5de3ff49360f9c51fec37f7486551670290f6285dab610e2b81612561565b8160036000846000015181526020019081526020016000206000820151816000015560208201518160010160006101000a81548163ffffffff021916908363ffffffff1602179055506040820151816002019081610e899190613c59565b506060820151816003019081610e9f9190613c59565b506080820151816004019081610eb59190613c59565b5060a0820151816005019081610ecb9190613c59565b5060c0820151816006019081610ee19190613c59565b5060e0820151816007019081610ef79190613c59565b50610100820151816008019081610f0e9190613c59565b50610120820151816009019081610f259190613c59565b5061014082015181600a015590505060048290806001815401808255809150506001900390600052602060002090600b02016000909190919091506000820151816000015560208201518160010160006101000a81548163ffffffff021916908363ffffffff1602179055506040820151816002019081610fa69190613c59565b506060820151816003019081610fbc9190613c59565b506080820151816004019081610fd29190613c59565b5060a0820151816005019081610fe89190613c59565b5060c0820151816006019081610ffe9190613c59565b5060e08201518160070190816110149190613c59565b5061010082015181600801908161102b9190613c59565b506101208201518160090190816110429190613c59565b5061014082015181600a015550505050565b61105c612ef4565b6003600083815260200190815260200160002060405180610160016040529081600082015481526020016001820160009054906101000a900463ffffffff1663ffffffff1663ffffffff1681526020016002820180546110bb90613a7c565b80601f01602080910402602001604051908101604052809291908181526020018280546110e790613a7c565b80156111345780601f1061110957610100808354040283529160200191611134565b820191906000526020600020905b81548152906001019060200180831161111757829003601f168201915b5050505050815260200160038201805461114d90613a7c565b80601f016020809104026020016040519081016040528092919081815260200182805461117990613a7c565b80156111c65780601f1061119b576101008083540402835291602001916111c6565b820191906000526020600020905b8154815290600101906020018083116111a957829003601f168201915b505050505081526020016004820180546111df90613a7c565b80601f016020809104026020016040519081016040528092919081815260200182805461120b90613a7c565b80156112585780601f1061122d57610100808354040283529160200191611258565b820191906000526020600020905b81548152906001019060200180831161123b57829003601f168201915b5050505050815260200160058201805461127190613a7c565b80601f016020809104026020016040519081016040528092919081815260200182805461129d90613a7c565b80156112ea5780601f106112bf576101008083540402835291602001916112ea565b820191906000526020600020905b8154815290600101906020018083116112cd57829003601f168201915b5050505050815260200160068201805461130390613a7c565b80601f016020809104026020016040519081016040528092919081815260200182805461132f90613a7c565b801561137c5780601f106113515761010080835404028352916020019161137c565b820191906000526020600020905b81548152906001019060200180831161135f57829003601f168201915b5050505050815260200160078201805461139590613a7c565b80601f01602080910402602001604051908101604052809291908181526020018280546113c190613a7c565b801561140e5780601f106113e35761010080835404028352916020019161140e565b820191906000526020600020905b8154815290600101906020018083116113f157829003601f168201915b5050505050815260200160088201805461142790613a7c565b80601f016020809104026020016040519081016040528092919081815260200182805461145390613a7c565b80156114a05780601f10611475576101008083540402835291602001916114a0565b820191906000526020600020905b81548152906001019060200180831161148357829003601f168201915b505050505081526020016009820180546114b990613a7c565b80601f01602080910402602001604051908101604052809291908181526020018280546114e590613a7c565b80156115325780601f1061150757610100808354040283529160200191611532565b820191906000526020600020905b81548152906001019060200180831161151557829003601f168201915b50505050508152602001600a820154815250509050919050565b60606040518060400160405280601d81526020017f646174613a6170706c69636174696f6e2f6a736f6e3b6261736536342c000000815250905090565b61159161273e565b61159b60006127bc565b565b7f73e573f9566d61418a34d5de3ff49360f9c51fec37f7486551670290f6285dab6115c781612561565b816003600085815260200190815260200160002060020190816115ea9190613c59565b50505050565b7f73e573f9566d61418a34d5de3ff49360f9c51fec37f7486551670290f6285dab61161a81612561565b8160036000858152602001908152602001600020600401908161163d9190613c59565b50505050565b7f73e573f9566d61418a34d5de3ff49360f9c51fec37f7486551670290f6285dab61166d81612561565b8160036000858152602001908152602001600020600a0160008282546116939190613dec565b92505081905550505050565b6000600160009054906101000a900473ffffffffffffffffffffffffffffffffffffffff16905090565b600080600084815260200190815260200160002060000160008373ffffffffffffffffffffffffffffffffffffffff1673ffffffffffffffffffffffffffffffffffffffff16815260200190815260200160002060009054906101000a900460ff16905092915050565b6000801b81565b60036020528060005260406000206000915090508060000154908060010160009054906101000a900463ffffffff169080600201805461177990613a7c565b80601f01602080910402602001604051908101604052809291908181526020018280546117a590613a7c565b80156117f25780601f106117c7576101008083540402835291602001916117f2565b820191906000526020600020905b8154815290600101906020018083116117d557829003601f168201915b50505050509080600301805461180790613a7c565b80601f016020809104026020016040519081016040528092919081815260200182805461183390613a7c565b80156118805780601f1061185557610100808354040283529160200191611880565b820191906000526020600020905b81548152906001019060200180831161186357829003601f168201915b50505050509080600401805461189590613a7c565b80601f01602080910402602001604051908101604052809291908181526020018280546118c190613a7c565b801561190e5780601f106118e35761010080835404028352916020019161190e565b820191906000526020600020905b8154815290600101906020018083116118f157829003601f168201915b50505050509080600501805461192390613a7c565b80601f016020809104026020016040519081016040528092919081815260200182805461194f90613a7c565b801561199c5780601f106119715761010080835404028352916020019161199c565b820191906000526020600020905b81548152906001019060200180831161197f57829003601f168201915b5050505050908060060180546119b190613a7c565b80601f01602080910402602001604051908101604052809291908181526020018280546119dd90613a7c565b8015611a2a5780601f106119ff57610100808354040283529160200191611a2a565b820191906000526020600020905b815481529060010190602001808311611a0d57829003601f168201915b505050505090806007018054611a3f90613a7c565b80601f0160208091040260200160405190810160405280929190818152602001828054611a6b90613a7c565b8015611ab85780601f10611a8d57610100808354040283529160200191611ab8565b820191906000526020600020905b815481529060010190602001808311611a9b57829003601f168201915b505050505090806008018054611acd90613a7c565b80601f0160208091040260200160405190810160405280929190818152602001828054611af990613a7c565b8015611b465780601f10611b1b57610100808354040283529160200191611b46565b820191906000526020600020905b815481529060010190602001808311611b2957829003601f168201915b505050505090806009018054611b5b90613a7c565b80601f0160208091040260200160405190810160405280929190818152602001828054611b8790613a7c565b8015611bd45780601f10611ba957610100808354040283529160200191611bd4565b820191906000526020600020905b815481529060010190602001808311611bb757829003601f168201915b50505050509080600a015490508b565b7f73e573f9566d61418a34d5de3ff49360f9c51fec37f7486551670290f6285dab611c0e81612561565b81600360008581526020019081526020016000206005019081611c319190613c59565b50505050565b611c3f612ef4565b6004600183611c4e9190613e20565b81548110611c5f57611c5e613e54565b5b90600052602060002090600b020160405180610160016040529081600082015481526020016001820160009054906101000a900463ffffffff1663ffffffff1663ffffffff168152602001600282018054611cb990613a7c565b80601f0160208091040260200160405190810160405280929190818152602001828054611ce590613a7c565b8015611d325780601f10611d0757610100808354040283529160200191611d32565b820191906000526020600020905b815481529060010190602001808311611d1557829003601f168201915b50505050508152602001600382018054611d4b90613a7c565b80601f0160208091040260200160405190810160405280929190818152602001828054611d7790613a7c565b8015611dc45780601f10611d9957610100808354040283529160200191611dc4565b820191906000526020600020905b815481529060010190602001808311611da757829003601f168201915b50505050508152602001600482018054611ddd90613a7c565b80601f0160208091040260200160405190810160405280929190818152602001828054611e0990613a7c565b8015611e565780601f10611e2b57610100808354040283529160200191611e56565b820191906000526020600020905b815481529060010190602001808311611e3957829003601f168201915b50505050508152602001600582018054611e6f90613a7c565b80601f0160208091040260200160405190810160405280929190818152602001828054611e9b90613a7c565b8015611ee85780601f10611ebd57610100808354040283529160200191611ee8565b820191906000526020600020905b815481529060010190602001808311611ecb57829003601f168201915b50505050508152602001600682018054611f0190613a7c565b80601f0160208091040260200160405190810160405280929190818152602001828054611f2d90613a7c565b8015611f7a5780601f10611f4f57610100808354040283529160200191611f7a565b820191906000526020600020905b815481529060010190602001808311611f5d57829003601f168201915b50505050508152602001600782018054611f9390613a7c565b80601f0160208091040260200160405190810160405280929190818152602001828054611fbf90613a7c565b801561200c5780601f10611fe15761010080835404028352916020019161200c565b820191906000526020600020905b815481529060010190602001808311611fef57829003601f168201915b5050505050815260200160088201805461202590613a7c565b80601f016020809104026020016040519081016040528092919081815260200182805461205190613a7c565b801561209e5780601f106120735761010080835404028352916020019161209e565b820191906000526020600020905b81548152906001019060200180831161208157829003601f168201915b505050505081526020016009820180546120b790613a7c565b80601f01602080910402602001604051908101604052809291908181526020018280546120e390613a7c565b80156121305780601f1061210557610100808354040283529160200191612130565b820191906000526020600020905b81548152906001019060200180831161211357829003601f168201915b50505050508152602001600a820154815250509050919050565b7f73e573f9566d61418a34d5de3ff49360f9c51fec37f7486551670290f6285dab61217481612561565b816003600085815260200190815260200160002060010160008282829054906101000a900463ffffffff166121a99190613e83565b92506101000a81548163ffffffff021916908363ffffffff160217905550505050565b600280546121d990613a7c565b80601f016020809104026020016040519081016040528092919081815260200182805461220590613a7c565b80156122525780601f1061222757610100808354040283529160200191612252565b820191906000526020600020905b81548152906001019060200180831161223557829003601f168201915b505050505081565b61226382610bce565b61226c81612561565b612276838361265d565b505050565b60607f73e573f9566d61418a34d5de3ff49360f9c51fec37f7486551670290f6285dab6122a781612561565b600083905060006123696122ba87612882565b60028460400151856060015186608001518760a001518861012001518960e001518a61010001516040516020016122f8989796959493929190613f7a565b6040516020818303038152906040528460e001518561010001518661012001518760c0015161232b896101400151612882565b61233e8a6020015163ffffffff16612882565b604051602001612355989796959493929190614486565b604051602081830303815290604052612950565b90508060405160200161237c91906145e9565b604051602081830303815290604052935050505092915050565b7f73e573f9566d61418a34d5de3ff49360f9c51fec37f7486551670290f6285dab6123c081612561565b8160036000858152602001908152602001600020600a0160008282546123e69190613e20565b92505081905550505050565b6123fa61273e565b600073ffffffffffffffffffffffffffffffffffffffff168173ffffffffffffffffffffffffffffffffffffffff1603612469576040517f08c379a00000000000000000000000000000000000000000000000000000000081526004016124609061467d565b60405180910390fd5b612472816127bc565b50565b7f73e573f9566d61418a34d5de3ff49360f9c51fec37f7486551670290f6285dab61249f81612561565b816003600085815260200190815260200160002060010160008282829054906101000a900463ffffffff166124d4919061469d565b92506101000a81548163ffffffff021916908363ffffffff160217905550505050565b60007f01ffc9a7000000000000000000000000000000000000000000000000000000007bffffffffffffffffffffffffffffffffffffffffffffffffffffffff1916827bffffffffffffffffffffffffffffffffffffffffffffffffffffffff1916149050919050565b6125728161256d612655565b612ab3565b50565b61257f82826116c9565b61265157600160008084815260200190815260200160002060000160008373ffffffffffffffffffffffffffffffffffffffff1673ffffffffffffffffffffffffffffffffffffffff16815260200190815260200160002060006101000a81548160ff0219169083151502179055506125f6612655565b73ffffffffffffffffffffffffffffffffffffffff168173ffffffffffffffffffffffffffffffffffffffff16837f2f8788117e7eff1d82e926ec794901d17c78024a50270940304540a733656f0d60405160405180910390a45b5050565b600033905090565b61266782826116c9565b1561273a57600080600084815260200190815260200160002060000160008373ffffffffffffffffffffffffffffffffffffffff1673ffffffffffffffffffffffffffffffffffffffff16815260200190815260200160002060006101000a81548160ff0219169083151502179055506126df612655565b73ffffffffffffffffffffffffffffffffffffffff168173ffffffffffffffffffffffffffffffffffffffff16837ff6391f5c32d9c69d2a47ea670b442974b53935d1edc7fd64eb21e047a839171b60405160405180910390a45b5050565b612746612655565b73ffffffffffffffffffffffffffffffffffffffff1661276461169f565b73ffffffffffffffffffffffffffffffffffffffff16146127ba576040517f08c379a00000000000000000000000000000000000000000000000000000000081526004016127b190614721565b60405180910390fd5b565b6000600160009054906101000a900473ffffffffffffffffffffffffffffffffffffffff16905081600160006101000a81548173ffffffffffffffffffffffffffffffffffffffff021916908373ffffffffffffffffffffffffffffffffffffffff1602179055508173ffffffffffffffffffffffffffffffffffffffff168173ffffffffffffffffffffffffffffffffffffffff167f8be0079c531659141344cd1fd0a4f28419497f9722a3daafe3b4186f6b6457e060405160405180910390a35050565b60606000600161289184612b38565b01905060008167ffffffffffffffff8111156128b0576128af613265565b5b6040519080825280601f01601f1916602001820160405280156128e25781602001600182028036833780820191505090505b509050600082602001820190505b600115612945578080600190039150507f3031323334353637383961626364656600000000000000000000000000000000600a86061a8153600a858161293957612938614741565b5b049450600085036128f0575b819350505050919050565b6060600082510361297257604051806020016040528060008152509050612aae565b600060405180606001604052806040815260200161494b60409139905060006003600285516129a19190613dec565b6129ab9190614770565b60046129b791906147a1565b67ffffffffffffffff8111156129d0576129cf613265565b5b6040519080825280601f01601f191660200182016040528015612a025781602001600182028036833780820191505090505b509050600182016020820185865187015b80821015612a6e576003820191508151603f8160121c168501518453600184019350603f81600c1c168501518453600184019350603f8160061c168501518453600184019350603f8116850151845360018401935050612a13565b5050600386510660018114612a8a5760028114612a9d57612aa5565b603d6001830353603d6002830353612aa5565b603d60018303535b50505080925050505b919050565b612abd82826116c9565b612b3457612aca81612c8b565b612ad88360001c6020612cb8565b604051602001612ae992919061487b565b6040516020818303038152906040526040517f08c379a0000000000000000000000000000000000000000000000000000000008152600401612b2b91906138f8565b60405180910390fd5b5050565b600080600090507a184f03e93ff9f4daa797ed6e38ed64bf6a1f0100000000000000008310612b96577a184f03e93ff9f4daa797ed6e38ed64bf6a1f0100000000000000008381612b8c57612b8b614741565b5b0492506040810190505b6d04ee2d6d415b85acef81000000008310612bd3576d04ee2d6d415b85acef81000000008381612bc957612bc8614741565b5b0492506020810190505b662386f26fc100008310612c0257662386f26fc100008381612bf857612bf7614741565b5b0492506010810190505b6305f5e1008310612c2b576305f5e1008381612c2157612c20614741565b5b0492506008810190505b6127108310612c50576127108381612c4657612c45614741565b5b0492506004810190505b60648310612c735760648381612c6957612c68614741565b5b0492506002810190505b600a8310612c82576001810190505b80915050919050565b6060612cb18273ffffffffffffffffffffffffffffffffffffffff16601460ff16612cb8565b9050919050565b606060006002836002612ccb91906147a1565b612cd59190613dec565b67ffffffffffffffff811115612cee57612ced613265565b5b6040519080825280601f01601f191660200182016040528015612d205781602001600182028036833780820191505090505b5090507f300000000000000000000000000000000000000000000000000000000000000081600081518110612d5857612d57613e54565b5b60200101907effffffffffffffffffffffffffffffffffffffffffffffffffffffffffffff1916908160001a9053507f780000000000000000000000000000000000000000000000000000000000000081600181518110612dbc57612dbb613e54565b5b60200101907effffffffffffffffffffffffffffffffffffffffffffffffffffffffffffff1916908160001a90535060006001846002612dfc91906147a1565b612e069190613dec565b90505b6001811115612ea6577f3031323334353637383961626364656600000000000000000000000000000000600f861660108110612e4857612e47613e54565b5b1a60f81b828281518110612e5f57612e5e613e54565b5b60200101907effffffffffffffffffffffffffffffffffffffffffffffffffffffffffffff1916908160001a905350600485901c945080612e9f906148b5565b9050612e09565b5060008414612eea576040517f08c379a0000000000000000000000000000000000000000000000000000000008152600401612ee19061492a565b60405180910390fd5b8091505092915050565b60405180610160016040528060008152602001600063ffffffff1681526020016060815260200160608152602001606081526020016060815260200160608152602001606081526020016060815260200160608152602001600081525090565b6000604051905090565b600080fd5b600080fd5b60007fffffffff0000000000000000000000000000000000000000000000000000000082169050919050565b612f9d81612f68565b8114612fa857600080fd5b50565b600081359050612fba81612f94565b92915050565b600060208284031215612fd657612fd5612f5e565b5b6000612fe484828501612fab565b91505092915050565b60008115159050919050565b61300281612fed565b82525050565b600060208201905061301d6000830184612ff9565b92915050565b6000819050919050565b61303681613023565b82525050565b6000602082019050613051600083018461302d565b92915050565b6000819050919050565b61306a81613057565b811461307557600080fd5b50565b60008135905061308781613061565b92915050565b6000602082840312156130a3576130a2612f5e565b5b60006130b184828501613078565b91505092915050565b6130c381613057565b82525050565b600063ffffffff82169050919050565b6130e2816130c9565b82525050565b600081519050919050565b600082825260208201905092915050565b60005b83811015613122578082015181840152602081019050613107565b60008484015250505050565b6000601f19601f8301169050919050565b600061314a826130e8565b61315481856130f3565b9350613164818560208601613104565b61316d8161312e565b840191505092915050565b60006101608201905061318e600083018e6130ba565b61319b602083018d6130d9565b81810360408301526131ad818c61313f565b905081810360608301526131c1818b61313f565b905081810360808301526131d5818a61313f565b905081810360a08301526131e9818961313f565b905081810360c08301526131fd818861313f565b905081810360e0830152613211818761313f565b9050818103610100830152613226818661313f565b905081810361012083015261323b818561313f565b905061324b6101408301846130ba565b9c9b505050505050505050505050565b600080fd5b600080fd5b7f4e487b7100000000000000000000000000000000000000000000000000000000600052604160045260246000fd5b61329d8261312e565b810181811067ffffffffffffffff821117156132bc576132bb613265565b5b80604052505050565b60006132cf612f54565b90506132db8282613294565b919050565b600067ffffffffffffffff8211156132fb576132fa613265565b5b6133048261312e565b9050602081019050919050565b82818337600083830152505050565b600061333361332e846132e0565b6132c5565b90508281526020810184848401111561334f5761334e613260565b5b61335a848285613311565b509392505050565b600082601f8301126133775761337661325b565b5b8135613387848260208601613320565b91505092915050565b600080604083850312156133a7576133a6612f5e565b5b60006133b585828601613078565b925050602083013567ffffffffffffffff8111156133d6576133d5612f63565b5b6133e285828601613362565b9150509250929050565b6133f581613023565b811461340057600080fd5b50565b600081359050613412816133ec565b92915050565b60006020828403121561342e5761342d612f5e565b5b600061343c84828501613403565b91505092915050565b600073ffffffffffffffffffffffffffffffffffffffff82169050919050565b600061347082613445565b9050919050565b61348081613465565b811461348b57600080fd5b50565b60008135905061349d81613477565b92915050565b600080604083850312156134ba576134b9612f5e565b5b60006134c885828601613403565b92505060206134d98582860161348e565b9150509250929050565b600080fd5b600080fd5b6134f6816130c9565b811461350157600080fd5b50565b600081359050613513816134ed565b92915050565b600061016082840312156135305761352f6134e3565b5b61353b6101606132c5565b9050600061354b84828501613078565b600083015250602061355f84828501613504565b602083015250604082013567ffffffffffffffff811115613583576135826134e8565b5b61358f84828501613362565b604083015250606082013567ffffffffffffffff8111156135b3576135b26134e8565b5b6135bf84828501613362565b606083015250608082013567ffffffffffffffff8111156135e3576135e26134e8565b5b6135ef84828501613362565b60808301525060a082013567ffffffffffffffff811115613613576136126134e8565b5b61361f84828501613362565b60a08301525060c082013567ffffffffffffffff811115613643576136426134e8565b5b61364f84828501613362565b60c08301525060e082013567ffffffffffffffff811115613673576136726134e8565b5b61367f84828501613362565b60e08301525061010082013567ffffffffffffffff8111156136a4576136a36134e8565b5b6136b084828501613362565b6101008301525061012082013567ffffffffffffffff8111156136d6576136d56134e8565b5b6136e284828501613362565b610120830152506101406136f884828501613078565b6101408301525092915050565b60006020828403121561371b5761371a612f5e565b5b600082013567ffffffffffffffff81111561373957613738612f63565b5b61374584828501613519565b91505092915050565b61375781613057565b82525050565b613766816130c9565b82525050565b600082825260208201905092915050565b6000613788826130e8565b613792818561376c565b93506137a2818560208601613104565b6137ab8161312e565b840191505092915050565b6000610160830160008301516137cf600086018261374e565b5060208301516137e2602086018261375d565b50604083015184820360408601526137fa828261377d565b91505060608301518482036060860152613814828261377d565b9150506080830151848203608086015261382e828261377d565b91505060a083015184820360a0860152613848828261377d565b91505060c083015184820360c0860152613862828261377d565b91505060e083015184820360e086015261387c828261377d565b915050610100830151848203610100860152613898828261377d565b9150506101208301518482036101208601526138b4828261377d565b9150506101408301516138cb61014086018261374e565b508091505092915050565b600060208201905081810360008301526138f081846137b6565b905092915050565b60006020820190508181036000830152613912818461313f565b905092915050565b6000806040838503121561393157613930612f5e565b5b600061393f85828601613078565b925050602061395085828601613078565b9150509250929050565b61396381613465565b82525050565b600060208201905061397e600083018461395a565b92915050565b6000806040838503121561399b5761399a612f5e565b5b60006139a985828601613078565b92505060206139ba85828601613504565b9150509250929050565b600080604083850312156139db576139da612f5e565b5b60006139e985828601613078565b925050602083013567ffffffffffffffff811115613a0a57613a09612f63565b5b613a1685828601613519565b9150509250929050565b600060208284031215613a3657613a35612f5e565b5b6000613a448482850161348e565b91505092915050565b7f4e487b7100000000000000000000000000000000000000000000000000000000600052602260045260246000fd5b60006002820490506001821680613a9457607f821691505b602082108103613aa757613aa6613a4d565b5b50919050565b60008190508160005260206000209050919050565b60006020601f8301049050919050565b600082821b905092915050565b600060088302613b0f7fffffffffffffffffffffffffffffffffffffffffffffffffffffffffffffffff82613ad2565b613b198683613ad2565b95508019841693508086168417925050509392505050565b6000819050919050565b6000613b56613b51613b4c84613057565b613b31565b613057565b9050919050565b6000819050919050565b613b7083613b3b565b613b84613b7c82613b5d565b848454613adf565b825550505050565b600090565b613b99613b8c565b613ba4818484613b67565b505050565b5b81811015613bc857613bbd600082613b91565b600181019050613baa565b5050565b601f821115613c0d57613bde81613aad565b613be784613ac2565b81016020851015613bf6578190505b613c0a613c0285613ac2565b830182613ba9565b50505b505050565b600082821c905092915050565b6000613c3060001984600802613c12565b1980831691505092915050565b6000613c498383613c1f565b9150826002028217905092915050565b613c62826130e8565b67ffffffffffffffff811115613c7b57613c7a613265565b5b613c858254613a7c565b613c90828285613bcc565b600060209050601f831160018114613cc35760008415613cb1578287015190505b613cbb8582613c3d565b865550613d23565b601f198416613cd186613aad565b60005b82811015613cf957848901518255600182019150602085019450602081019050613cd4565b86831015613d165784890151613d12601f891682613c1f565b8355505b6001600288020188555050505b505050505050565b7f416363657373436f6e74726f6c3a2063616e206f6e6c792072656e6f756e636560008201527f20726f6c657320666f722073656c660000000000000000000000000000000000602082015250565b6000613d87602f836130f3565b9150613d9282613d2b565b604082019050919050565b60006020820190508181036000830152613db681613d7a565b9050919050565b7f4e487b7100000000000000000000000000000000000000000000000000000000600052601160045260246000fd5b6000613df782613057565b9150613e0283613057565b9250828201905080821115613e1a57613e19613dbd565b5b92915050565b6000613e2b82613057565b9150613e3683613057565b9250828203905081811115613e4e57613e4d613dbd565b5b92915050565b7f4e487b7100000000000000000000000000000000000000000000000000000000600052603260045260246000fd5b6000613e8e826130c9565b9150613e99836130c9565b9250828203905063ffffffff811115613eb557613eb4613dbd565b5b92915050565b600081905092915050565b60008154613ed381613a7c565b613edd8186613ebb565b94506001821660008114613ef85760018114613f0d57613f40565b60ff1983168652811515820286019350613f40565b613f1685613aad565b60005b83811015613f3857815481890152600182019150602081019050613f19565b838801955050505b50505092915050565b6000613f54826130e8565b613f5e8185613ebb565b9350613f6e818560208601613104565b80840191505092915050565b6000613f86828b613ec6565b9150613f92828a613f49565b9150613f9e8289613f49565b9150613faa8288613f49565b9150613fb68287613f49565b9150613fc28286613f49565b9150613fce8285613f49565b9150613fda8284613f49565b91508190509998505050505050505050565b7f7b226e616d65223a20224d757368726f6f6d2023000000000000000000000000600082015250565b6000614022601483613ebb565b915061402d82613fec565b601482019050919050565b7f222c20226465736372697074696f6e223a20224d616c6963696f7573204d757360008201527f68726f6f6d732052617772222c2022696d616765223a20220000000000000000602082015250565b6000614094603883613ebb565b915061409f82614038565b603882019050919050565b7f22202261747472696275746573223a205b000000000000000000000000000000600082015250565b60006140e0601183613ebb565b91506140eb826140aa565b601182019050919050565b7f7b2274726169745f74797065223a2022576561706f6e222c202276616c75652260008201527f3a20220000000000000000000000000000000000000000000000000000000000602082015250565b6000614152602383613ebb565b915061415d826140f6565b602382019050919050565b7f227d2c0000000000000000000000000000000000000000000000000000000000600082015250565b600061419e600383613ebb565b91506141a982614168565b600382019050919050565b7f7b2274726169745f74797065223a202241726d6f72222c202276616c7565223a60008201527f2022000000000000000000000000000000000000000000000000000000000000602082015250565b6000614210602283613ebb565b915061421b826141b4565b602282019050919050565b7f7b2274726169745f74797065223a20224163636573736f7279222c202276616c60008201527f7565223a20220000000000000000000000000000000000000000000000000000602082015250565b6000614282602683613ebb565b915061428d82614226565b602682019050919050565b7f7b2274726169745f74797065223a2022456c656d656e74222c202276616c756560008201527f223a202200000000000000000000000000000000000000000000000000000000602082015250565b60006142f4602483613ebb565b91506142ff82614298565b602482019050919050565b7f7b2274726169745f74797065223a20224c6576656c222c202276616c7565223a60008201527f2000000000000000000000000000000000000000000000000000000000000000602082015250565b6000614366602183613ebb565b91506143718261430a565b602182019050919050565b7f7d2c000000000000000000000000000000000000000000000000000000000000600082015250565b60006143b2600283613ebb565b91506143bd8261437c565b600282019050919050565b7f7b2274726169745f74797065223a202253706f726573222c202276616c75652260008201527f3a20000000000000000000000000000000000000000000000000000000000000602082015250565b6000614424602283613ebb565b915061442f826143c8565b602282019050919050565b7f7d5d7d0000000000000000000000000000000000000000000000000000000000600082015250565b6000614470600383613ebb565b915061447b8261443a565b600382019050919050565b600061449182614015565b915061449d828b613f49565b91506144a882614087565b91506144b4828a613f49565b91506144bf826140d3565b91506144ca82614145565b91506144d68289613f49565b91506144e182614191565b91506144ec82614203565b91506144f88288613f49565b915061450382614191565b915061450e82614275565b915061451a8287613f49565b915061452582614191565b9150614530826142e7565b915061453c8286613f49565b915061454782614191565b915061455282614359565b915061455e8285613f49565b9150614569826143a5565b915061457482614417565b91506145808284613f49565b915061458b82614463565b91508190509998505050505050505050565b7f646174613a6170706c69636174696f6e2f6a736f6e3b6261736536342c000000600082015250565b60006145d3601d83613ebb565b91506145de8261459d565b601d82019050919050565b60006145f4826145c6565b91506146008284613f49565b915081905092915050565b7f4f776e61626c653a206e6577206f776e657220697320746865207a65726f206160008201527f6464726573730000000000000000000000000000000000000000000000000000602082015250565b60006146676026836130f3565b91506146728261460b565b604082019050919050565b600060208201905081810360008301526146968161465a565b9050919050565b60006146a8826130c9565b91506146b3836130c9565b9250828201905063ffffffff8111156146cf576146ce613dbd565b5b92915050565b7f4f776e61626c653a2063616c6c6572206973206e6f7420746865206f776e6572600082015250565b600061470b6020836130f3565b9150614716826146d5565b602082019050919050565b6000602082019050818103600083015261473a816146fe565b9050919050565b7f4e487b7100000000000000000000000000000000000000000000000000000000600052601260045260246000fd5b600061477b82613057565b915061478683613057565b92508261479657614795614741565b5b828204905092915050565b60006147ac82613057565b91506147b783613057565b92508282026147c581613057565b915082820484148315176147dc576147db613dbd565b5b5092915050565b7f416363657373436f6e74726f6c3a206163636f756e7420000000000000000000600082015250565b6000614819601783613ebb565b9150614824826147e3565b601782019050919050565b7f206973206d697373696e6720726f6c6520000000000000000000000000000000600082015250565b6000614865601183613ebb565b91506148708261482f565b601182019050919050565b60006148868261480c565b91506148928285613f49565b915061489d82614858565b91506148a98284613f49565b91508190509392505050565b60006148c082613057565b9150600082036148d3576148d2613dbd565b5b600182039050919050565b7f537472696e67733a20686578206c656e67746820696e73756666696369656e74600082015250565b60006149146020836130f3565b915061491f826148de565b602082019050919050565b6000602082019050818103600083015261494381614907565b905091905056fe4142434445464748494a4b4c4d4e4f505152535455565758595a6162636465666768696a6b6c6d6e6f707172737475767778797a303132333435363738392b2fa264697066735822122036313f03e50135a3b43fa5175519d9412399ddec780f989fbb84e2c14f1ac3c064736f6c6343000811003368747470733a2f2f6d616c6963696f75736d757368726f6f6d732e636f6d2f696d616765732f",
  "linkReferences": {},
  "deployedLinkReferences": {}
}