{
  "_format": "hh-sol-artifact-1",
  "contractName": "Metadata",
  "sourceName": "contracts/Metadata.sol",
  "abi": [
    {
      "inputs": [
        {
          "internalType": "address",
          "name": "admin",
          "type": "address"
        }
      ],
      "stateMutability": "nonpayable",
      "type": "constructor"
    },
    {
      "anonymous": false,
      "inputs": [
        {
          "indexed": true,
          "internalType": "address",
          "name": "previousOwner",
          "type": "address"
        },
        {
          "indexed": true,
          "internalType": "address",
          "name": "newOwner",
          "type": "address"
        }
      ],
      "name": "OwnershipTransferred",
      "type": "event"
    },
    {
      "anonymous": false,
      "inputs": [
        {
          "indexed": true,
          "internalType": "bytes32",
          "name": "role",
          "type": "bytes32"
        },
        {
          "indexed": true,
          "internalType": "bytes32",
          "name": "previousAdminRole",
          "type": "bytes32"
        },
        {
          "indexed": true,
          "internalType": "bytes32",
          "name": "newAdminRole",
          "type": "bytes32"
        }
      ],
      "name": "RoleAdminChanged",
      "type": "event"
    },
    {
      "anonymous": false,
      "inputs": [
        {
          "indexed": true,
          "internalType": "bytes32",
          "name": "role",
          "type": "bytes32"
        },
        {
          "indexed": true,
          "internalType": "address",
          "name": "account",
          "type": "address"
        },
        {
          "indexed": true,
          "internalType": "address",
          "name": "sender",
          "type": "address"
        }
      ],
      "name": "RoleGranted",
      "type": "event"
    },
    {
      "anonymous": false,
      "inputs": [
        {
          "indexed": true,
          "internalType": "bytes32",
          "name": "role",
          "type": "bytes32"
        },
        {
          "indexed": true,
          "internalType": "address",
          "name": "account",
          "type": "address"
        },
        {
          "indexed": true,
          "internalType": "address",
          "name": "sender",
          "type": "address"
        }
      ],
      "name": "RoleRevoked",
      "type": "event"
    },
    {
      "inputs": [],
      "name": "CONTRACT_ROLE",
      "outputs": [
        {
          "internalType": "bytes32",
          "name": "",
          "type": "bytes32"
        }
      ],
      "stateMutability": "view",
      "type": "function"
    },
    {
      "inputs": [],
      "name": "DEFAULT_ADMIN_ROLE",
      "outputs": [
        {
          "internalType": "bytes32",
          "name": "",
          "type": "bytes32"
        }
      ],
      "stateMutability": "view",
      "type": "function"
    },
    {
      "inputs": [],
      "name": "UPDATER_ROLE",
      "outputs": [
        {
          "internalType": "bytes32",
          "name": "",
          "type": "bytes32"
        }
      ],
      "stateMutability": "view",
      "type": "function"
    },
    {
      "inputs": [],
      "name": "_baseTokenURI",
      "outputs": [
        {
          "internalType": "string",
          "name": "",
          "type": "string"
        }
      ],
      "stateMutability": "view",
      "type": "function"
    },
    {
      "inputs": [
        {
          "internalType": "uint256",
          "name": "_tokenId",
          "type": "uint256"
        }
      ],
      "name": "getElement",
      "outputs": [
        {
          "internalType": "string",
          "name": "",
          "type": "string"
        }
      ],
      "stateMutability": "view",
      "type": "function"
    },
    {
      "inputs": [
        {
          "internalType": "uint256",
          "name": "_tokenId",
          "type": "uint256"
        }
      ],
      "name": "getMushroomBytes",
      "outputs": [
        {
          "internalType": "bytes",
          "name": "",
          "type": "bytes"
        }
      ],
      "stateMutability": "view",
      "type": "function"
    },
    {
      "inputs": [
        {
          "internalType": "uint256",
          "name": "_tokenId",
          "type": "uint256"
        }
      ],
      "name": "getMushroomData",
      "outputs": [
        {
          "components": [
            {
              "internalType": "uint256",
              "name": "id",
              "type": "uint256"
            },
            {
              "internalType": "uint32",
              "name": "spores",
              "type": "uint32"
            },
            {
              "internalType": "string",
              "name": "backgroundColor",
              "type": "string"
            },
            {
              "internalType": "string",
              "name": "head",
              "type": "string"
            },
            {
              "internalType": "string",
              "name": "eyes",
              "type": "string"
            },
            {
              "internalType": "string",
              "name": "mouth",
              "type": "string"
            },
            {
              "internalType": "string",
              "name": "element",
              "type": "string"
            },
            {
              "internalType": "string",
              "name": "weapon",
              "type": "string"
            },
            {
              "internalType": "string",
              "name": "armor",
              "type": "string"
            },
            {
              "internalType": "string",
              "name": "accessory",
              "type": "string"
            },
            {
              "internalType": "uint256",
              "name": "level",
              "type": "uint256"
            }
          ],
          "internalType": "struct Metadata.Mushroom",
          "name": "",
          "type": "tuple"
        }
      ],
      "stateMutability": "nonpayable",
      "type": "function"
    },
    {
      "inputs": [
        {
          "internalType": "bytes32",
          "name": "role",
          "type": "bytes32"
        }
      ],
      "name": "getRoleAdmin",
      "outputs": [
        {
          "internalType": "bytes32",
          "name": "",
          "type": "bytes32"
        }
      ],
      "stateMutability": "view",
      "type": "function"
    },
    {
      "inputs": [
        {
          "internalType": "bytes32",
          "name": "role",
          "type": "bytes32"
        },
        {
          "internalType": "address",
          "name": "account",
          "type": "address"
        }
      ],
      "name": "grantRole",
      "outputs": [],
      "stateMutability": "nonpayable",
      "type": "function"
    },
    {
      "inputs": [
        {
          "internalType": "bytes32",
          "name": "role",
          "type": "bytes32"
        },
        {
          "internalType": "address",
          "name": "account",
          "type": "address"
        }
      ],
      "name": "hasRole",
      "outputs": [
        {
          "internalType": "bool",
          "name": "",
          "type": "bool"
        }
      ],
      "stateMutability": "view",
      "type": "function"
    },
    {
      "inputs": [
        {
          "internalType": "uint256",
          "name": "_tokenId",
          "type": "uint256"
        }
      ],
      "name": "makeTokenURI",
      "outputs": [
        {
          "internalType": "string",
          "name": "",
          "type": "string"
        }
      ],
      "stateMutability": "nonpayable",
      "type": "function"
    },
    {
      "inputs": [
        {
          "internalType": "uint256",
          "name": "",
          "type": "uint256"
        }
      ],
      "name": "mushroomAttributes",
      "outputs": [
        {
          "internalType": "uint256",
          "name": "id",
          "type": "uint256"
        },
        {
          "internalType": "uint32",
          "name": "spores",
          "type": "uint32"
        },
        {
          "internalType": "string",
          "name": "backgroundColor",
          "type": "string"
        },
        {
          "internalType": "string",
          "name": "head",
          "type": "string"
        },
        {
          "internalType": "string",
          "name": "eyes",
          "type": "string"
        },
        {
          "internalType": "string",
          "name": "mouth",
          "type": "string"
        },
        {
          "internalType": "string",
          "name": "element",
          "type": "string"
        },
        {
          "internalType": "string",
          "name": "weapon",
          "type": "string"
        },
        {
          "internalType": "string",
          "name": "armor",
          "type": "string"
        },
        {
          "internalType": "string",
          "name": "accessory",
          "type": "string"
        },
        {
          "internalType": "uint256",
          "name": "level",
          "type": "uint256"
        }
      ],
      "stateMutability": "view",
      "type": "function"
    },
    {
      "inputs": [],
      "name": "owner",
      "outputs": [
        {
          "internalType": "address",
          "name": "",
          "type": "address"
        }
      ],
      "stateMutability": "view",
      "type": "function"
    },
    {
      "inputs": [],
      "name": "renounceOwnership",
      "outputs": [],
      "stateMutability": "nonpayable",
      "type": "function"
    },
    {
      "inputs": [
        {
          "internalType": "bytes32",
          "name": "role",
          "type": "bytes32"
        },
        {
          "internalType": "address",
          "name": "account",
          "type": "address"
        }
      ],
      "name": "renounceRole",
      "outputs": [],
      "stateMutability": "nonpayable",
      "type": "function"
    },
    {
      "inputs": [],
      "name": "returnExtension",
      "outputs": [
        {
          "internalType": "string",
          "name": "",
          "type": "string"
        }
      ],
      "stateMutability": "pure",
      "type": "function"
    },
    {
      "inputs": [
        {
          "internalType": "bytes32",
          "name": "role",
          "type": "bytes32"
        },
        {
          "internalType": "address",
          "name": "account",
          "type": "address"
        }
      ],
      "name": "revokeRole",
      "outputs": [],
      "stateMutability": "nonpayable",
      "type": "function"
    },
    {
      "inputs": [
        {
          "components": [
            {
              "internalType": "uint256",
              "name": "id",
              "type": "uint256"
            },
            {
              "internalType": "uint32",
              "name": "spores",
              "type": "uint32"
            },
            {
              "internalType": "string",
              "name": "backgroundColor",
              "type": "string"
            },
            {
              "internalType": "string",
              "name": "head",
              "type": "string"
            },
            {
              "internalType": "string",
              "name": "eyes",
              "type": "string"
            },
            {
              "internalType": "string",
              "name": "mouth",
              "type": "string"
            },
            {
              "internalType": "string",
              "name": "element",
              "type": "string"
            },
            {
              "internalType": "string",
              "name": "weapon",
              "type": "string"
            },
            {
              "internalType": "string",
              "name": "armor",
              "type": "string"
            },
            {
              "internalType": "string",
              "name": "accessory",
              "type": "string"
            },
            {
              "internalType": "uint256",
              "name": "level",
              "type": "uint256"
            }
          ],
          "internalType": "struct Metadata.Mushroom",
          "name": "base",
          "type": "tuple"
        }
      ],
      "name": "setMushroomData",
      "outputs": [],
      "stateMutability": "nonpayable",
      "type": "function"
    },
    {
      "inputs": [
        {
          "internalType": "bytes4",
          "name": "interfaceId",
          "type": "bytes4"
        }
      ],
      "name": "supportsInterface",
      "outputs": [
        {
          "internalType": "bool",
          "name": "",
          "type": "bool"
        }
      ],
      "stateMutability": "view",
      "type": "function"
    },
    {
      "inputs": [
        {
          "internalType": "address",
          "name": "newOwner",
          "type": "address"
        }
      ],
      "name": "transferOwnership",
      "outputs": [],
      "stateMutability": "nonpayable",
      "type": "function"
    }
  ],
  "bytecode": "0x60806040526040518060600160405280602681526020016200466b60269139600290816200002e9190620005a5565b503480156200003c57600080fd5b5060405162004691380380620046918339818101604052810190620000629190620006f6565b62000082620000766200010260201b60201c565b6200010a60201b60201c565b620000976000801b82620001d060201b60201c565b620000c97f73e573f9566d61418a34d5de3ff49360f9c51fec37f7486551670290f6285dab33620001d060201b60201c565b620000fb7f364d3d7565c7a8300c96fd53e065d19b65848d7b23b3191adcd55621c744223c33620001d060201b60201c565b5062000728565b600033905090565b6000600160009054906101000a900473ffffffffffffffffffffffffffffffffffffffff16905081600160006101000a81548173ffffffffffffffffffffffffffffffffffffffff021916908373ffffffffffffffffffffffffffffffffffffffff1602179055508173ffffffffffffffffffffffffffffffffffffffff168173ffffffffffffffffffffffffffffffffffffffff167f8be0079c531659141344cd1fd0a4f28419497f9722a3daafe3b4186f6b6457e060405160405180910390a35050565b620001e28282620002c160201b60201c565b620002bd57600160008084815260200190815260200160002060000160008373ffffffffffffffffffffffffffffffffffffffff1673ffffffffffffffffffffffffffffffffffffffff16815260200190815260200160002060006101000a81548160ff021916908315150217905550620002626200010260201b60201c565b73ffffffffffffffffffffffffffffffffffffffff168173ffffffffffffffffffffffffffffffffffffffff16837f2f8788117e7eff1d82e926ec794901d17c78024a50270940304540a733656f0d60405160405180910390a45b5050565b600080600084815260200190815260200160002060000160008373ffffffffffffffffffffffffffffffffffffffff1673ffffffffffffffffffffffffffffffffffffffff16815260200190815260200160002060009054906101000a900460ff16905092915050565b600081519050919050565b7f4e487b7100000000000000000000000000000000000000000000000000000000600052604160045260246000fd5b7f4e487b7100000000000000000000000000000000000000000000000000000000600052602260045260246000fd5b60006002820490506001821680620003ad57607f821691505b602082108103620003c357620003c262000365565b5b50919050565b60008190508160005260206000209050919050565b60006020601f8301049050919050565b600082821b905092915050565b6000600883026200042d7fffffffffffffffffffffffffffffffffffffffffffffffffffffffffffffffff82620003ee565b620004398683620003ee565b95508019841693508086168417925050509392505050565b6000819050919050565b6000819050919050565b600062000486620004806200047a8462000451565b6200045b565b62000451565b9050919050565b6000819050919050565b620004a28362000465565b620004ba620004b1826200048d565b848454620003fb565b825550505050565b600090565b620004d1620004c2565b620004de81848462000497565b505050565b5b818110156200050657620004fa600082620004c7565b600181019050620004e4565b5050565b601f82111562000555576200051f81620003c9565b6200052a84620003de565b810160208510156200053a578190505b620005526200054985620003de565b830182620004e3565b50505b505050565b600082821c905092915050565b60006200057a600019846008026200055a565b1980831691505092915050565b600062000595838362000567565b9150826002028217905092915050565b620005b0826200032b565b67ffffffffffffffff811115620005cc57620005cb62000336565b5b620005d8825462000394565b620005e58282856200050a565b600060209050601f8311600181146200061d576000841562000608578287015190505b62000614858262000587565b86555062000684565b601f1984166200062d86620003c9565b60005b82811015620006575784890151825560018201915060208501945060208101905062000630565b8683101562000677578489015162000673601f89168262000567565b8355505b6001600288020188555050505b505050505050565b600080fd5b600073ffffffffffffffffffffffffffffffffffffffff82169050919050565b6000620006be8262000691565b9050919050565b620006d081620006b1565b8114620006dc57600080fd5b50565b600081519050620006f081620006c5565b92915050565b6000602082840312156200070f576200070e6200068c565b5b60006200071f84828501620006df565b91505092915050565b613f3380620007386000396000f3fe608060405234801561001057600080fd5b506004361061012c5760003560e01c806361f4486a116100ad578063a332027711610071578063a332027714610345578063ac9eab561461037f578063cfc86f7b146103af578063d547741f146103cd578063f2fde38b146103e95761012c565b806361f4486a146102b1578063715018a6146102cf5780638da5cb5b146102d957806391d14854146102f7578063a217fddf146103275761012c565b806336568abe116100f457806336568abe146101fb5780633a7d22bc1461021757806347e63380146102475780635530241f1461026557806360e9ffe9146102815761012c565b806301ffc9a71461013157806303fe46ab1461016157806306d834d31461017f578063248a9ca3146101af5780632f2ff15d146101df575b600080fd5b61014b6004803603810190610146919061242d565b610405565b6040516101589190612475565b60405180910390f35b61016961047f565b60405161017691906124a9565b60405180910390f35b610199600480360381019061019491906124fa565b6104a3565b6040516101a691906125b7565b60405180910390f35b6101c960048036038101906101c49190612605565b6104de565b6040516101d691906124a9565b60405180910390f35b6101f960048036038101906101f49190612690565b6104fd565b005b61021560048036038101906102109190612690565b61051e565b005b610231600480360381019061022c91906124fa565b6105a1565b60405161023e9190612725565b60405180910390f35b61024f610649565b60405161025c91906124a9565b60405180910390f35b61027f600480360381019061027a919061276c565b61066d565b005b61029b600480360381019061029691906124fa565b6106c2565b6040516102a8919061294d565b60405180910390f35b6102b9610bba565b6040516102c69190612725565b60405180910390f35b6102d7610bf7565b005b6102e1610c0b565b6040516102ee919061297e565b60405180910390f35b610311600480360381019061030c9190612690565b610c35565b60405161031e9190612475565b60405180910390f35b61032f610c9f565b60405161033c91906124a9565b60405180910390f35b61035f600480360381019061035a91906124fa565b610ca6565b6040516103769b9a999897969594939291906129b7565b60405180910390f35b610399600480360381019061039491906124fa565b611150565b6040516103a69190612725565b60405180910390f35b6103b761183c565b6040516103c49190612725565b60405180910390f35b6103e760048036038101906103e29190612690565b6118ca565b005b61040360048036038101906103fe9190612a9a565b6118eb565b005b60007f7965db0b000000000000000000000000000000000000000000000000000000007bffffffffffffffffffffffffffffffffffffffffffffffffffffffff1916827bffffffffffffffffffffffffffffffffffffffffffffffffffffffff1916148061047857506104778261196e565b5b9050919050565b7f364d3d7565c7a8300c96fd53e065d19b65848d7b23b3191adcd55621c744223c81565b6060600360008381526020019081526020016000206040516020016104c89190612d53565b6040516020818303038152906040529050919050565b6000806000838152602001908152602001600020600101549050919050565b610506826104de565b61050f816119d8565b61051983836119ec565b505050565b610526611acc565b73ffffffffffffffffffffffffffffffffffffffff168173ffffffffffffffffffffffffffffffffffffffff1614610593576040517f08c379a000000000000000000000000000000000000000000000000000000000815260040161058a90612de7565b60405180910390fd5b61059d8282611ad4565b5050565b60606003600083815260200190815260200160002060060180546105c490612b51565b80601f01602080910402602001604051908101604052809291908181526020018280546105f090612b51565b801561063d5780601f106106125761010080835404028352916020019161063d565b820191906000526020600020905b81548152906001019060200180831161062057829003601f168201915b50505050509050919050565b7f73e573f9566d61418a34d5de3ff49360f9c51fec37f7486551670290f6285dab81565b7f73e573f9566d61418a34d5de3ff49360f9c51fec37f7486551670290f6285dab610697816119d8565b81600360008460000135815260200190815260200160002081816106bb91906133c6565b9050505050565b6106ca61236b565b6003600083815260200190815260200160002060405180610160016040529081600082015481526020016001820160009054906101000a900463ffffffff1663ffffffff1663ffffffff16815260200160028201805461072990612b51565b80601f016020809104026020016040519081016040528092919081815260200182805461075590612b51565b80156107a25780601f10610777576101008083540402835291602001916107a2565b820191906000526020600020905b81548152906001019060200180831161078557829003601f168201915b505050505081526020016003820180546107bb90612b51565b80601f01602080910402602001604051908101604052809291908181526020018280546107e790612b51565b80156108345780601f1061080957610100808354040283529160200191610834565b820191906000526020600020905b81548152906001019060200180831161081757829003601f168201915b5050505050815260200160048201805461084d90612b51565b80601f016020809104026020016040519081016040528092919081815260200182805461087990612b51565b80156108c65780601f1061089b576101008083540402835291602001916108c6565b820191906000526020600020905b8154815290600101906020018083116108a957829003601f168201915b505050505081526020016005820180546108df90612b51565b80601f016020809104026020016040519081016040528092919081815260200182805461090b90612b51565b80156109585780601f1061092d57610100808354040283529160200191610958565b820191906000526020600020905b81548152906001019060200180831161093b57829003601f168201915b5050505050815260200160068201805461097190612b51565b80601f016020809104026020016040519081016040528092919081815260200182805461099d90612b51565b80156109ea5780601f106109bf576101008083540402835291602001916109ea565b820191906000526020600020905b8154815290600101906020018083116109cd57829003601f168201915b50505050508152602001600782018054610a0390612b51565b80601f0160208091040260200160405190810160405280929190818152602001828054610a2f90612b51565b8015610a7c5780601f10610a5157610100808354040283529160200191610a7c565b820191906000526020600020905b815481529060010190602001808311610a5f57829003601f168201915b50505050508152602001600882018054610a9590612b51565b80601f0160208091040260200160405190810160405280929190818152602001828054610ac190612b51565b8015610b0e5780601f10610ae357610100808354040283529160200191610b0e565b820191906000526020600020905b815481529060010190602001808311610af157829003601f168201915b50505050508152602001600982018054610b2790612b51565b80601f0160208091040260200160405190810160405280929190818152602001828054610b5390612b51565b8015610ba05780601f10610b7557610100808354040283529160200191610ba0565b820191906000526020600020905b815481529060010190602001808311610b8357829003601f168201915b50505050508152602001600a820154815250509050919050565b60606040518060400160405280601d81526020017f646174613a6170706c69636174696f6e2f6a736f6e3b6261736536342c000000815250905090565b610bff611bb5565b610c096000611c33565b565b6000600160009054906101000a900473ffffffffffffffffffffffffffffffffffffffff16905090565b600080600084815260200190815260200160002060000160008373ffffffffffffffffffffffffffffffffffffffff1673ffffffffffffffffffffffffffffffffffffffff16815260200190815260200160002060009054906101000a900460ff16905092915050565b6000801b81565b60036020528060005260406000206000915090508060000154908060010160009054906101000a900463ffffffff1690806002018054610ce590612b51565b80601f0160208091040260200160405190810160405280929190818152602001828054610d1190612b51565b8015610d5e5780601f10610d3357610100808354040283529160200191610d5e565b820191906000526020600020905b815481529060010190602001808311610d4157829003601f168201915b505050505090806003018054610d7390612b51565b80601f0160208091040260200160405190810160405280929190818152602001828054610d9f90612b51565b8015610dec5780601f10610dc157610100808354040283529160200191610dec565b820191906000526020600020905b815481529060010190602001808311610dcf57829003601f168201915b505050505090806004018054610e0190612b51565b80601f0160208091040260200160405190810160405280929190818152602001828054610e2d90612b51565b8015610e7a5780601f10610e4f57610100808354040283529160200191610e7a565b820191906000526020600020905b815481529060010190602001808311610e5d57829003601f168201915b505050505090806005018054610e8f90612b51565b80601f0160208091040260200160405190810160405280929190818152602001828054610ebb90612b51565b8015610f085780601f10610edd57610100808354040283529160200191610f08565b820191906000526020600020905b815481529060010190602001808311610eeb57829003601f168201915b505050505090806006018054610f1d90612b51565b80601f0160208091040260200160405190810160405280929190818152602001828054610f4990612b51565b8015610f965780601f10610f6b57610100808354040283529160200191610f96565b820191906000526020600020905b815481529060010190602001808311610f7957829003601f168201915b505050505090806007018054610fab90612b51565b80601f0160208091040260200160405190810160405280929190818152602001828054610fd790612b51565b80156110245780601f10610ff957610100808354040283529160200191611024565b820191906000526020600020905b81548152906001019060200180831161100757829003601f168201915b50505050509080600801805461103990612b51565b80601f016020809104026020016040519081016040528092919081815260200182805461106590612b51565b80156110b25780601f10611087576101008083540402835291602001916110b2565b820191906000526020600020905b81548152906001019060200180831161109557829003601f168201915b5050505050908060090180546110c790612b51565b80601f01602080910402602001604051908101604052809291908181526020018280546110f390612b51565b80156111405780601f1061111557610100808354040283529160200191611140565b820191906000526020600020905b81548152906001019060200180831161112357829003601f168201915b50505050509080600a015490508b565b60607f73e573f9566d61418a34d5de3ff49360f9c51fec37f7486551670290f6285dab61117c816119d8565b60006003600085815260200190815260200160002060405180610160016040529081600082015481526020016001820160009054906101000a900463ffffffff1663ffffffff1663ffffffff1681526020016002820180546111dd90612b51565b80601f016020809104026020016040519081016040528092919081815260200182805461120990612b51565b80156112565780601f1061122b57610100808354040283529160200191611256565b820191906000526020600020905b81548152906001019060200180831161123957829003601f168201915b5050505050815260200160038201805461126f90612b51565b80601f016020809104026020016040519081016040528092919081815260200182805461129b90612b51565b80156112e85780601f106112bd576101008083540402835291602001916112e8565b820191906000526020600020905b8154815290600101906020018083116112cb57829003601f168201915b5050505050815260200160048201805461130190612b51565b80601f016020809104026020016040519081016040528092919081815260200182805461132d90612b51565b801561137a5780601f1061134f5761010080835404028352916020019161137a565b820191906000526020600020905b81548152906001019060200180831161135d57829003601f168201915b5050505050815260200160058201805461139390612b51565b80601f01602080910402602001604051908101604052809291908181526020018280546113bf90612b51565b801561140c5780601f106113e15761010080835404028352916020019161140c565b820191906000526020600020905b8154815290600101906020018083116113ef57829003601f168201915b5050505050815260200160068201805461142590612b51565b80601f016020809104026020016040519081016040528092919081815260200182805461145190612b51565b801561149e5780601f106114735761010080835404028352916020019161149e565b820191906000526020600020905b81548152906001019060200180831161148157829003601f168201915b505050505081526020016007820180546114b790612b51565b80601f01602080910402602001604051908101604052809291908181526020018280546114e390612b51565b80156115305780601f1061150557610100808354040283529160200191611530565b820191906000526020600020905b81548152906001019060200180831161151357829003601f168201915b5050505050815260200160088201805461154990612b51565b80601f016020809104026020016040519081016040528092919081815260200182805461157590612b51565b80156115c25780601f10611597576101008083540402835291602001916115c2565b820191906000526020600020905b8154815290600101906020018083116115a557829003601f168201915b505050505081526020016009820180546115db90612b51565b80601f016020809104026020016040519081016040528092919081815260200182805461160790612b51565b80156116545780601f1061162957610100808354040283529160200191611654565b820191906000526020600020905b81548152906001019060200180831161163757829003601f168201915b50505050508152602001600a820154815250509050600061181061167786611cf9565b600260036000898152602001908152602001600020600201600360008a8152602001908152602001600020600301600360008b8152602001908152602001600020600401600360008c8152602001908152602001600020600501600360008d8152602001908152602001600020600901600360008e8152602001908152602001600020600701600360008f815260200190815260200160002060080160405160200161172a989796959493929190613462565b60405160208183030381529060405260036000898152602001908152602001600020600701600360008a8152602001908152602001600020600801600360008b8152602001908152602001600020600901600360008c81526020019081526020016000206006016117b0600360008e8152602001908152602001600020600a0154611cf9565b6117e5600360008f815260200190815260200160002060010160009054906101000a900463ffffffff1663ffffffff16611cf9565b6040516020016117fc98979695949392919061399f565b604051602081830303815290604052611dc7565b9050806040516020016118239190613b02565b6040516020818303038152906040529350505050919050565b6002805461184990612b51565b80601f016020809104026020016040519081016040528092919081815260200182805461187590612b51565b80156118c25780601f10611897576101008083540402835291602001916118c2565b820191906000526020600020905b8154815290600101906020018083116118a557829003601f168201915b505050505081565b6118d3826104de565b6118dc816119d8565b6118e68383611ad4565b505050565b6118f3611bb5565b600073ffffffffffffffffffffffffffffffffffffffff168173ffffffffffffffffffffffffffffffffffffffff1603611962576040517f08c379a000000000000000000000000000000000000000000000000000000000815260040161195990613b96565b60405180910390fd5b61196b81611c33565b50565b60007f01ffc9a7000000000000000000000000000000000000000000000000000000007bffffffffffffffffffffffffffffffffffffffffffffffffffffffff1916827bffffffffffffffffffffffffffffffffffffffffffffffffffffffff1916149050919050565b6119e9816119e4611acc565b611f2a565b50565b6119f68282610c35565b611ac857600160008084815260200190815260200160002060000160008373ffffffffffffffffffffffffffffffffffffffff1673ffffffffffffffffffffffffffffffffffffffff16815260200190815260200160002060006101000a81548160ff021916908315150217905550611a6d611acc565b73ffffffffffffffffffffffffffffffffffffffff168173ffffffffffffffffffffffffffffffffffffffff16837f2f8788117e7eff1d82e926ec794901d17c78024a50270940304540a733656f0d60405160405180910390a45b5050565b600033905090565b611ade8282610c35565b15611bb157600080600084815260200190815260200160002060000160008373ffffffffffffffffffffffffffffffffffffffff1673ffffffffffffffffffffffffffffffffffffffff16815260200190815260200160002060006101000a81548160ff021916908315150217905550611b56611acc565b73ffffffffffffffffffffffffffffffffffffffff168173ffffffffffffffffffffffffffffffffffffffff16837ff6391f5c32d9c69d2a47ea670b442974b53935d1edc7fd64eb21e047a839171b60405160405180910390a45b5050565b611bbd611acc565b73ffffffffffffffffffffffffffffffffffffffff16611bdb610c0b565b73ffffffffffffffffffffffffffffffffffffffff1614611c31576040517f08c379a0000000000000000000000000000000000000000000000000000000008152600401611c2890613c02565b60405180910390fd5b565b6000600160009054906101000a900473ffffffffffffffffffffffffffffffffffffffff16905081600160006101000a81548173ffffffffffffffffffffffffffffffffffffffff021916908373ffffffffffffffffffffffffffffffffffffffff1602179055508173ffffffffffffffffffffffffffffffffffffffff168173ffffffffffffffffffffffffffffffffffffffff167f8be0079c531659141344cd1fd0a4f28419497f9722a3daafe3b4186f6b6457e060405160405180910390a35050565b606060006001611d0884611faf565b01905060008167ffffffffffffffff811115611d2757611d26612fe4565b5b6040519080825280601f01601f191660200182016040528015611d595781602001600182028036833780820191505090505b509050600082602001820190505b600115611dbc578080600190039150507f3031323334353637383961626364656600000000000000000000000000000000600a86061a8153600a8581611db057611daf613c22565b5b04945060008503611d67575b819350505050919050565b60606000825103611de957604051806020016040528060008152509050611f25565b6000604051806060016040528060408152602001613ebe6040913990506000600360028551611e189190613c80565b611e229190613cb4565b6004611e2e9190613ce5565b67ffffffffffffffff811115611e4757611e46612fe4565b5b6040519080825280601f01601f191660200182016040528015611e795781602001600182028036833780820191505090505b509050600182016020820185865187015b80821015611ee5576003820191508151603f8160121c168501518453600184019350603f81600c1c168501518453600184019350603f8160061c168501518453600184019350603f8116850151845360018401935050611e8a565b5050600386510660018114611f015760028114611f1457611f1c565b603d6001830353603d6002830353611f1c565b603d60018303535b50505080925050505b919050565b611f348282610c35565b611fab57611f4181612102565b611f4f8360001c602061212f565b604051602001611f60929190613dbf565b6040516020818303038152906040526040517f08c379a0000000000000000000000000000000000000000000000000000000008152600401611fa29190612725565b60405180910390fd5b5050565b600080600090507a184f03e93ff9f4daa797ed6e38ed64bf6a1f010000000000000000831061200d577a184f03e93ff9f4daa797ed6e38ed64bf6a1f010000000000000000838161200357612002613c22565b5b0492506040810190505b6d04ee2d6d415b85acef8100000000831061204a576d04ee2d6d415b85acef810000000083816120405761203f613c22565b5b0492506020810190505b662386f26fc10000831061207957662386f26fc10000838161206f5761206e613c22565b5b0492506010810190505b6305f5e10083106120a2576305f5e100838161209857612097613c22565b5b0492506008810190505b61271083106120c75761271083816120bd576120bc613c22565b5b0492506004810190505b606483106120ea57606483816120e0576120df613c22565b5b0492506002810190505b600a83106120f9576001810190505b80915050919050565b60606121288273ffffffffffffffffffffffffffffffffffffffff16601460ff1661212f565b9050919050565b6060600060028360026121429190613ce5565b61214c9190613c80565b67ffffffffffffffff81111561216557612164612fe4565b5b6040519080825280601f01601f1916602001820160405280156121975781602001600182028036833780820191505090505b5090507f3000000000000000000000000000000000000000000000000000000000000000816000815181106121cf576121ce613df9565b5b60200101907effffffffffffffffffffffffffffffffffffffffffffffffffffffffffffff1916908160001a9053507f78000000000000000000000000000000000000000000000000000000000000008160018151811061223357612232613df9565b5b60200101907effffffffffffffffffffffffffffffffffffffffffffffffffffffffffffff1916908160001a905350600060018460026122739190613ce5565b61227d9190613c80565b90505b600181111561231d577f3031323334353637383961626364656600000000000000000000000000000000600f8616601081106122bf576122be613df9565b5b1a60f81b8282815181106122d6576122d5613df9565b5b60200101907effffffffffffffffffffffffffffffffffffffffffffffffffffffffffffff1916908160001a905350600485901c94508061231690613e28565b9050612280565b5060008414612361576040517f08c379a000000000000000000000000000000000000000000000000000000000815260040161235890613e9d565b60405180910390fd5b8091505092915050565b60405180610160016040528060008152602001600063ffffffff1681526020016060815260200160608152602001606081526020016060815260200160608152602001606081526020016060815260200160608152602001600081525090565b600080fd5b600080fd5b60007fffffffff0000000000000000000000000000000000000000000000000000000082169050919050565b61240a816123d5565b811461241557600080fd5b50565b60008135905061242781612401565b92915050565b600060208284031215612443576124426123cb565b5b600061245184828501612418565b91505092915050565b60008115159050919050565b61246f8161245a565b82525050565b600060208201905061248a6000830184612466565b92915050565b6000819050919050565b6124a381612490565b82525050565b60006020820190506124be600083018461249a565b92915050565b6000819050919050565b6124d7816124c4565b81146124e257600080fd5b50565b6000813590506124f4816124ce565b92915050565b6000602082840312156125105761250f6123cb565b5b600061251e848285016124e5565b91505092915050565b600081519050919050565b600082825260208201905092915050565b60005b83811015612561578082015181840152602081019050612546565b60008484015250505050565b6000601f19601f8301169050919050565b600061258982612527565b6125938185612532565b93506125a3818560208601612543565b6125ac8161256d565b840191505092915050565b600060208201905081810360008301526125d1818461257e565b905092915050565b6125e281612490565b81146125ed57600080fd5b50565b6000813590506125ff816125d9565b92915050565b60006020828403121561261b5761261a6123cb565b5b6000612629848285016125f0565b91505092915050565b600073ffffffffffffffffffffffffffffffffffffffff82169050919050565b600061265d82612632565b9050919050565b61266d81612652565b811461267857600080fd5b50565b60008135905061268a81612664565b92915050565b600080604083850312156126a7576126a66123cb565b5b60006126b5858286016125f0565b92505060206126c68582860161267b565b9150509250929050565b600081519050919050565b600082825260208201905092915050565b60006126f7826126d0565b61270181856126db565b9350612711818560208601612543565b61271a8161256d565b840191505092915050565b6000602082019050818103600083015261273f81846126ec565b905092915050565b600080fd5b6000610160828403121561276357612762612747565b5b81905092915050565b600060208284031215612782576127816123cb565b5b600082013567ffffffffffffffff8111156127a05761279f6123d0565b5b6127ac8482850161274c565b91505092915050565b6127be816124c4565b82525050565b600063ffffffff82169050919050565b6127dd816127c4565b82525050565b600082825260208201905092915050565b60006127ff826126d0565b61280981856127e3565b9350612819818560208601612543565b6128228161256d565b840191505092915050565b60006101608301600083015161284660008601826127b5565b50602083015161285960208601826127d4565b506040830151848203604086015261287182826127f4565b9150506060830151848203606086015261288b82826127f4565b915050608083015184820360808601526128a582826127f4565b91505060a083015184820360a08601526128bf82826127f4565b91505060c083015184820360c08601526128d982826127f4565b91505060e083015184820360e08601526128f382826127f4565b91505061010083015184820361010086015261290f82826127f4565b91505061012083015184820361012086015261292b82826127f4565b9150506101408301516129426101408601826127b5565b508091505092915050565b60006020820190508181036000830152612967818461282d565b905092915050565b61297881612652565b82525050565b6000602082019050612993600083018461296f565b92915050565b6129a2816124c4565b82525050565b6129b1816127c4565b82525050565b6000610160820190506129cd600083018e612999565b6129da602083018d6129a8565b81810360408301526129ec818c6126ec565b90508181036060830152612a00818b6126ec565b90508181036080830152612a14818a6126ec565b905081810360a0830152612a2881896126ec565b905081810360c0830152612a3c81886126ec565b905081810360e0830152612a5081876126ec565b9050818103610100830152612a6581866126ec565b9050818103610120830152612a7a81856126ec565b9050612a8a610140830184612999565b9c9b505050505050505050505050565b600060208284031215612ab057612aaf6123cb565b5b6000612abe8482850161267b565b91505092915050565b60008160001c9050919050565b6000819050919050565b6000612af1612aec83612ac7565b612ad4565b9050919050565b600063ffffffff82169050919050565b6000612b1b612b1683612ac7565b612af8565b9050919050565b7f4e487b7100000000000000000000000000000000000000000000000000000000600052602260045260246000fd5b60006002820490506001821680612b6957607f821691505b602082108103612b7c57612b7b612b22565b5b50919050565b60008190508160005260206000209050919050565b60008154612ba481612b51565b612bae81866127e3565b94506001821660008114612bc95760018114612bdf57612c12565b60ff198316865281151560200286019350612c12565b612be885612b82565b60005b83811015612c0a57815481890152600182019150602081019050612beb565b808801955050505b50505092915050565b600061016083016000808401549050612c3381612ade565b612c4060008701826127b5565b5060018401549050612c5181612b08565b612c5e60208701826127d4565b50600284018583036040870152612c758382612b97565b925050600384018583036060870152612c8e8382612b97565b925050600484018583036080870152612ca78382612b97565b9250506005840185830360a0870152612cc08382612b97565b9250506006840185830360c0870152612cd98382612b97565b9250506007840185830360e0870152612cf28382612b97565b92505060088401858303610100870152612d0c8382612b97565b92505060098401858303610120870152612d268382612b97565b925050600a8401549050612d3981612ade565b612d476101408701826127b5565b50819250505092915050565b60006020820190508181036000830152612d6d8184612c1b565b905092915050565b7f416363657373436f6e74726f6c3a2063616e206f6e6c792072656e6f756e636560008201527f20726f6c657320666f722073656c660000000000000000000000000000000000602082015250565b6000612dd1602f836126db565b9150612ddc82612d75565b604082019050919050565b60006020820190508181036000830152612e0081612dc4565b9050919050565b60008135612e14816124ce565b80915050919050565b60008160001b9050919050565b60007fffffffffffffffffffffffffffffffffffffffffffffffffffffffffffffffff612e5684612e1d565b9350801983169250808416831791505092915050565b6000819050919050565b6000612e91612e8c612e87846124c4565b612e6c565b6124c4565b9050919050565b6000819050919050565b612eab82612e76565b612ebe612eb782612e98565b8354612e2a565b8255505050565b612ece816127c4565b8114612ed957600080fd5b50565b60008135612ee981612ec5565b80915050919050565b600063ffffffff612f0284612e1d565b9350801983169250808416831791505092915050565b6000612f33612f2e612f29846127c4565b612e6c565b6127c4565b9050919050565b6000819050919050565b612f4d82612f18565b612f60612f5982612f3a565b8354612ef2565b8255505050565b600080fd5b600080fd5b600080fd5b60008083356001602003843603038112612f9357612f92612f67565b5b80840192508235915067ffffffffffffffff821115612fb557612fb4612f6c565b5b602083019250600182023603831315612fd157612fd0612f71565b5b509250929050565b600082905092915050565b7f4e487b7100000000000000000000000000000000000000000000000000000000600052604160045260246000fd5b60006020601f8301049050919050565b600082821b905092915050565b6000600883026130607fffffffffffffffffffffffffffffffffffffffffffffffffffffffffffffffff82613023565b61306a8683613023565b95508019841693508086168417925050509392505050565b61308b83612e76565b61309f61309782612e98565b848454613030565b825550505050565b600090565b6130b46130a7565b6130bf818484613082565b505050565b5b818110156130e3576130d86000826130ac565b6001810190506130c5565b5050565b601f821115613128576130f981612b82565b61310284613013565b81016020851015613111578190505b61312561311d85613013565b8301826130c4565b50505b505050565b600082821c905092915050565b600061314b6000198460080261312d565b1980831691505092915050565b6000613164838361313a565b9150826002028217905092915050565b61317e8383612fd9565b67ffffffffffffffff81111561319757613196612fe4565b5b6131a18254612b51565b6131ac8282856130e7565b6000601f8311600181146131db57600084156131c9578287013590505b6131d38582613158565b86555061323b565b601f1984166131e986612b82565b60005b82811015613211578489013582556001820191506020850194506020810190506131ec565b8683101561322e578489013561322a601f89168261313a565b8355505b6001600288020188555050505b50505050505050565b61324f838383613174565b505050565b60008101600083018061326681612e07565b90506132728184612ea2565b50505060018101602083018061328781612edc565b90506132938184612f44565b50505060028101604083016132a88185612f76565b6132b3818386613244565b5050505060038101606083016132c98185612f76565b6132d4818386613244565b5050505060048101608083016132ea8185612f76565b6132f5818386613244565b505050506005810160a0830161330b8185612f76565b613316818386613244565b505050506006810160c0830161332c8185612f76565b613337818386613244565b505050506007810160e0830161334d8185612f76565b613358818386613244565b5050505060088101610100830161336f8185612f76565b61337a818386613244565b505050506009810161012083016133918185612f76565b61339c818386613244565b50505050600a81016101408301806133b381612e07565b90506133bf8184612ea2565b5050505050565b6133d08282613254565b5050565b600081905092915050565b600081546133ec81612b51565b6133f681866133d4565b94506001821660008114613411576001811461342657613459565b60ff1983168652811515820286019350613459565b61342f85612b82565b60005b8381101561345157815481890152600182019150602081019050613432565b838801955050505b50505092915050565b600061346e828b6133df565b915061347a828a6133df565b915061348682896133df565b915061349282886133df565b915061349e82876133df565b91506134aa82866133df565b91506134b682856133df565b91506134c282846133df565b91508190509998505050505050505050565b7f7b226e616d65223a20224d757368726f6f6d2023000000000000000000000000600082015250565b600061350a6014836133d4565b9150613515826134d4565b601482019050919050565b600061352b826126d0565b61353581856133d4565b9350613545818560208601612543565b80840191505092915050565b7f222c20226465736372697074696f6e223a20224d616c6963696f7573204d757360008201527f68726f6f6d732052617772222c2022696d616765223a20220000000000000000602082015250565b60006135ad6038836133d4565b91506135b882613551565b603882019050919050565b7f22202261747472696275746573223a205b000000000000000000000000000000600082015250565b60006135f96011836133d4565b9150613604826135c3565b601182019050919050565b7f7b2274726169745f74797065223a2022576561706f6e222c202276616c75652260008201527f3a20220000000000000000000000000000000000000000000000000000000000602082015250565b600061366b6023836133d4565b91506136768261360f565b602382019050919050565b7f227d2c0000000000000000000000000000000000000000000000000000000000600082015250565b60006136b76003836133d4565b91506136c282613681565b600382019050919050565b7f7b2274726169745f74797065223a202241726d6f72222c202276616c7565223a60008201527f2022000000000000000000000000000000000000000000000000000000000000602082015250565b60006137296022836133d4565b9150613734826136cd565b602282019050919050565b7f7b2274726169745f74797065223a20224163636573736f7279222c202276616c60008201527f7565223a20220000000000000000000000000000000000000000000000000000602082015250565b600061379b6026836133d4565b91506137a68261373f565b602682019050919050565b7f7b2274726169745f74797065223a2022456c656d656e74222c202276616c756560008201527f223a202200000000000000000000000000000000000000000000000000000000602082015250565b600061380d6024836133d4565b9150613818826137b1565b602482019050919050565b7f7b2274726169745f74797065223a20224c6576656c222c202276616c7565223a60008201527f2000000000000000000000000000000000000000000000000000000000000000602082015250565b600061387f6021836133d4565b915061388a82613823565b602182019050919050565b7f7d2c000000000000000000000000000000000000000000000000000000000000600082015250565b60006138cb6002836133d4565b91506138d682613895565b600282019050919050565b7f7b2274726169745f74797065223a202253706f726573222c202276616c75652260008201527f3a20000000000000000000000000000000000000000000000000000000000000602082015250565b600061393d6022836133d4565b9150613948826138e1565b602282019050919050565b7f7d5d7d0000000000000000000000000000000000000000000000000000000000600082015250565b60006139896003836133d4565b915061399482613953565b600382019050919050565b60006139aa826134fd565b91506139b6828b613520565b91506139c1826135a0565b91506139cd828a613520565b91506139d8826135ec565b91506139e38261365e565b91506139ef82896133df565b91506139fa826136aa565b9150613a058261371c565b9150613a1182886133df565b9150613a1c826136aa565b9150613a278261378e565b9150613a3382876133df565b9150613a3e826136aa565b9150613a4982613800565b9150613a5582866133df565b9150613a60826136aa565b9150613a6b82613872565b9150613a778285613520565b9150613a82826138be565b9150613a8d82613930565b9150613a998284613520565b9150613aa48261397c565b91508190509998505050505050505050565b7f646174613a6170706c69636174696f6e2f6a736f6e3b6261736536342c000000600082015250565b6000613aec601d836133d4565b9150613af782613ab6565b601d82019050919050565b6000613b0d82613adf565b9150613b198284613520565b915081905092915050565b7f4f776e61626c653a206e6577206f776e657220697320746865207a65726f206160008201527f6464726573730000000000000000000000000000000000000000000000000000602082015250565b6000613b806026836126db565b9150613b8b82613b24565b604082019050919050565b60006020820190508181036000830152613baf81613b73565b9050919050565b7f4f776e61626c653a2063616c6c6572206973206e6f7420746865206f776e6572600082015250565b6000613bec6020836126db565b9150613bf782613bb6565b602082019050919050565b60006020820190508181036000830152613c1b81613bdf565b9050919050565b7f4e487b7100000000000000000000000000000000000000000000000000000000600052601260045260246000fd5b7f4e487b7100000000000000000000000000000000000000000000000000000000600052601160045260246000fd5b6000613c8b826124c4565b9150613c96836124c4565b9250828201905080821115613cae57613cad613c51565b5b92915050565b6000613cbf826124c4565b9150613cca836124c4565b925082613cda57613cd9613c22565b5b828204905092915050565b6000613cf0826124c4565b9150613cfb836124c4565b9250828202613d09816124c4565b91508282048414831517613d2057613d1f613c51565b5b5092915050565b7f416363657373436f6e74726f6c3a206163636f756e7420000000000000000000600082015250565b6000613d5d6017836133d4565b9150613d6882613d27565b601782019050919050565b7f206973206d697373696e6720726f6c6520000000000000000000000000000000600082015250565b6000613da96011836133d4565b9150613db482613d73565b601182019050919050565b6000613dca82613d50565b9150613dd68285613520565b9150613de182613d9c565b9150613ded8284613520565b91508190509392505050565b7f4e487b7100000000000000000000000000000000000000000000000000000000600052603260045260246000fd5b6000613e33826124c4565b915060008203613e4657613e45613c51565b5b600182039050919050565b7f537472696e67733a20686578206c656e67746820696e73756666696369656e74600082015250565b6000613e876020836126db565b9150613e9282613e51565b602082019050919050565b60006020820190508181036000830152613eb681613e7a565b905091905056fe4142434445464748494a4b4c4d4e4f505152535455565758595a6162636465666768696a6b6c6d6e6f707172737475767778797a303132333435363738392b2fa2646970667358221220349f91bd888630f7863b8172835bff47b439e539a90995f17acf198850c71a5e64736f6c6343000811003368747470733a2f2f6d616c6963696f75736d757368726f6f6d732e636f6d2f696d616765732f",
  "linkReferences": {},
  "deployedLinkReferences": {}
}