{
  "_format": "hh-sol-artifact-1",
  "contractName": "Metadata",
  "sourceName": "contracts/Metadata.sol",
  "abi": [
    {
      "inputs": [
        {
          "internalType": "address",
          "name": "admin",
          "type": "address"
        }
      ],
      "stateMutability": "nonpayable",
      "type": "constructor"
    },
    {
      "anonymous": false,
      "inputs": [
        {
          "indexed": true,
          "internalType": "address",
          "name": "previousOwner",
          "type": "address"
        },
        {
          "indexed": true,
          "internalType": "address",
          "name": "newOwner",
          "type": "address"
        }
      ],
      "name": "OwnershipTransferred",
      "type": "event"
    },
    {
      "anonymous": false,
      "inputs": [
        {
          "indexed": true,
          "internalType": "bytes32",
          "name": "role",
          "type": "bytes32"
        },
        {
          "indexed": true,
          "internalType": "bytes32",
          "name": "previousAdminRole",
          "type": "bytes32"
        },
        {
          "indexed": true,
          "internalType": "bytes32",
          "name": "newAdminRole",
          "type": "bytes32"
        }
      ],
      "name": "RoleAdminChanged",
      "type": "event"
    },
    {
      "anonymous": false,
      "inputs": [
        {
          "indexed": true,
          "internalType": "bytes32",
          "name": "role",
          "type": "bytes32"
        },
        {
          "indexed": true,
          "internalType": "address",
          "name": "account",
          "type": "address"
        },
        {
          "indexed": true,
          "internalType": "address",
          "name": "sender",
          "type": "address"
        }
      ],
      "name": "RoleGranted",
      "type": "event"
    },
    {
      "anonymous": false,
      "inputs": [
        {
          "indexed": true,
          "internalType": "bytes32",
          "name": "role",
          "type": "bytes32"
        },
        {
          "indexed": true,
          "internalType": "address",
          "name": "account",
          "type": "address"
        },
        {
          "indexed": true,
          "internalType": "address",
          "name": "sender",
          "type": "address"
        }
      ],
      "name": "RoleRevoked",
      "type": "event"
    },
    {
      "inputs": [],
      "name": "CONTRACT_ROLE",
      "outputs": [
        {
          "internalType": "bytes32",
          "name": "",
          "type": "bytes32"
        }
      ],
      "stateMutability": "view",
      "type": "function"
    },
    {
      "inputs": [],
      "name": "DEFAULT_ADMIN_ROLE",
      "outputs": [
        {
          "internalType": "bytes32",
          "name": "",
          "type": "bytes32"
        }
      ],
      "stateMutability": "view",
      "type": "function"
    },
    {
      "inputs": [],
      "name": "UPDATER_ROLE",
      "outputs": [
        {
          "internalType": "bytes32",
          "name": "",
          "type": "bytes32"
        }
      ],
      "stateMutability": "view",
      "type": "function"
    },
    {
      "inputs": [],
      "name": "_baseTokenURI",
      "outputs": [
        {
          "internalType": "string",
          "name": "",
          "type": "string"
        }
      ],
      "stateMutability": "view",
      "type": "function"
    },
    {
      "inputs": [
        {
          "internalType": "uint256",
          "name": "_tokenId",
          "type": "uint256"
        },
        {
          "internalType": "uint256",
          "name": "level",
          "type": "uint256"
        }
      ],
      "name": "decrementLevel",
      "outputs": [],
      "stateMutability": "nonpayable",
      "type": "function"
    },
    {
      "inputs": [
        {
          "internalType": "uint256",
          "name": "_tokenId",
          "type": "uint256"
        },
        {
          "internalType": "uint32",
          "name": "_spores",
          "type": "uint32"
        }
      ],
      "name": "decrementSpores",
      "outputs": [],
      "stateMutability": "nonpayable",
      "type": "function"
    },
    {
      "inputs": [
        {
          "internalType": "uint256",
          "name": "_tokenId",
          "type": "uint256"
        }
      ],
      "name": "getArray",
      "outputs": [
        {
          "components": [
            {
              "internalType": "uint256",
              "name": "id",
              "type": "uint256"
            },
            {
              "internalType": "uint32",
              "name": "spores",
              "type": "uint32"
            },
            {
              "internalType": "string",
              "name": "backgroundColor",
              "type": "string"
            },
            {
              "internalType": "string",
              "name": "head",
              "type": "string"
            },
            {
              "internalType": "string",
              "name": "eyes",
              "type": "string"
            },
            {
              "internalType": "string",
              "name": "mouth",
              "type": "string"
            },
            {
              "internalType": "string",
              "name": "element",
              "type": "string"
            },
            {
              "internalType": "string",
              "name": "weapon",
              "type": "string"
            },
            {
              "internalType": "string",
              "name": "armor",
              "type": "string"
            },
            {
              "internalType": "string",
              "name": "accessory",
              "type": "string"
            },
            {
              "internalType": "uint256",
              "name": "level",
              "type": "uint256"
            }
          ],
          "internalType": "struct Metadata.Mushroom",
          "name": "",
          "type": "tuple"
        }
      ],
      "stateMutability": "nonpayable",
      "type": "function"
    },
    {
      "inputs": [
        {
          "internalType": "uint256",
          "name": "_tokenId",
          "type": "uint256"
        }
      ],
      "name": "getMushroomData",
      "outputs": [
        {
          "components": [
            {
              "internalType": "uint256",
              "name": "id",
              "type": "uint256"
            },
            {
              "internalType": "uint32",
              "name": "spores",
              "type": "uint32"
            },
            {
              "internalType": "string",
              "name": "backgroundColor",
              "type": "string"
            },
            {
              "internalType": "string",
              "name": "head",
              "type": "string"
            },
            {
              "internalType": "string",
              "name": "eyes",
              "type": "string"
            },
            {
              "internalType": "string",
              "name": "mouth",
              "type": "string"
            },
            {
              "internalType": "string",
              "name": "element",
              "type": "string"
            },
            {
              "internalType": "string",
              "name": "weapon",
              "type": "string"
            },
            {
              "internalType": "string",
              "name": "armor",
              "type": "string"
            },
            {
              "internalType": "string",
              "name": "accessory",
              "type": "string"
            },
            {
              "internalType": "uint256",
              "name": "level",
              "type": "uint256"
            }
          ],
          "internalType": "struct Metadata.Mushroom",
          "name": "",
          "type": "tuple"
        }
      ],
      "stateMutability": "nonpayable",
      "type": "function"
    },
    {
      "inputs": [
        {
          "internalType": "bytes32",
          "name": "role",
          "type": "bytes32"
        }
      ],
      "name": "getRoleAdmin",
      "outputs": [
        {
          "internalType": "bytes32",
          "name": "",
          "type": "bytes32"
        }
      ],
      "stateMutability": "view",
      "type": "function"
    },
    {
      "inputs": [
        {
          "internalType": "bytes32",
          "name": "role",
          "type": "bytes32"
        },
        {
          "internalType": "address",
          "name": "account",
          "type": "address"
        }
      ],
      "name": "grantRole",
      "outputs": [],
      "stateMutability": "nonpayable",
      "type": "function"
    },
    {
      "inputs": [
        {
          "internalType": "bytes32",
          "name": "role",
          "type": "bytes32"
        },
        {
          "internalType": "address",
          "name": "account",
          "type": "address"
        }
      ],
      "name": "hasRole",
      "outputs": [
        {
          "internalType": "bool",
          "name": "",
          "type": "bool"
        }
      ],
      "stateMutability": "view",
      "type": "function"
    },
    {
      "inputs": [
        {
          "internalType": "uint256",
          "name": "_tokenId",
          "type": "uint256"
        },
        {
          "internalType": "uint256",
          "name": "level",
          "type": "uint256"
        }
      ],
      "name": "incrementLevel",
      "outputs": [],
      "stateMutability": "nonpayable",
      "type": "function"
    },
    {
      "inputs": [
        {
          "internalType": "uint256",
          "name": "_tokenId",
          "type": "uint256"
        },
        {
          "internalType": "uint32",
          "name": "_spores",
          "type": "uint32"
        }
      ],
      "name": "incrementSpores",
      "outputs": [],
      "stateMutability": "nonpayable",
      "type": "function"
    },
    {
      "inputs": [
        {
          "internalType": "uint256",
          "name": "_tokenId",
          "type": "uint256"
        },
        {
          "components": [
            {
              "internalType": "uint256",
              "name": "id",
              "type": "uint256"
            },
            {
              "internalType": "uint32",
              "name": "spores",
              "type": "uint32"
            },
            {
              "internalType": "string",
              "name": "backgroundColor",
              "type": "string"
            },
            {
              "internalType": "string",
              "name": "head",
              "type": "string"
            },
            {
              "internalType": "string",
              "name": "eyes",
              "type": "string"
            },
            {
              "internalType": "string",
              "name": "mouth",
              "type": "string"
            },
            {
              "internalType": "string",
              "name": "element",
              "type": "string"
            },
            {
              "internalType": "string",
              "name": "weapon",
              "type": "string"
            },
            {
              "internalType": "string",
              "name": "armor",
              "type": "string"
            },
            {
              "internalType": "string",
              "name": "accessory",
              "type": "string"
            },
            {
              "internalType": "uint256",
              "name": "level",
              "type": "uint256"
            }
          ],
          "internalType": "struct Metadata.Mushroom",
          "name": "mushroom",
          "type": "tuple"
        }
      ],
      "name": "makeTokenURI",
      "outputs": [
        {
          "internalType": "string",
          "name": "",
          "type": "string"
        }
      ],
      "stateMutability": "nonpayable",
      "type": "function"
    },
    {
      "inputs": [
        {
          "internalType": "uint256",
          "name": "",
          "type": "uint256"
        }
      ],
      "name": "mushroomArray",
      "outputs": [
        {
          "internalType": "uint256",
          "name": "id",
          "type": "uint256"
        },
        {
          "internalType": "uint32",
          "name": "spores",
          "type": "uint32"
        },
        {
          "internalType": "string",
          "name": "backgroundColor",
          "type": "string"
        },
        {
          "internalType": "string",
          "name": "head",
          "type": "string"
        },
        {
          "internalType": "string",
          "name": "eyes",
          "type": "string"
        },
        {
          "internalType": "string",
          "name": "mouth",
          "type": "string"
        },
        {
          "internalType": "string",
          "name": "element",
          "type": "string"
        },
        {
          "internalType": "string",
          "name": "weapon",
          "type": "string"
        },
        {
          "internalType": "string",
          "name": "armor",
          "type": "string"
        },
        {
          "internalType": "string",
          "name": "accessory",
          "type": "string"
        },
        {
          "internalType": "uint256",
          "name": "level",
          "type": "uint256"
        }
      ],
      "stateMutability": "view",
      "type": "function"
    },
    {
      "inputs": [
        {
          "internalType": "uint256",
          "name": "",
          "type": "uint256"
        }
      ],
      "name": "mushroomAttributes",
      "outputs": [
        {
          "internalType": "uint256",
          "name": "id",
          "type": "uint256"
        },
        {
          "internalType": "uint32",
          "name": "spores",
          "type": "uint32"
        },
        {
          "internalType": "string",
          "name": "backgroundColor",
          "type": "string"
        },
        {
          "internalType": "string",
          "name": "head",
          "type": "string"
        },
        {
          "internalType": "string",
          "name": "eyes",
          "type": "string"
        },
        {
          "internalType": "string",
          "name": "mouth",
          "type": "string"
        },
        {
          "internalType": "string",
          "name": "element",
          "type": "string"
        },
        {
          "internalType": "string",
          "name": "weapon",
          "type": "string"
        },
        {
          "internalType": "string",
          "name": "armor",
          "type": "string"
        },
        {
          "internalType": "string",
          "name": "accessory",
          "type": "string"
        },
        {
          "internalType": "uint256",
          "name": "level",
          "type": "uint256"
        }
      ],
      "stateMutability": "view",
      "type": "function"
    },
    {
      "inputs": [],
      "name": "owner",
      "outputs": [
        {
          "internalType": "address",
          "name": "",
          "type": "address"
        }
      ],
      "stateMutability": "view",
      "type": "function"
    },
    {
      "inputs": [],
      "name": "renounceOwnership",
      "outputs": [],
      "stateMutability": "nonpayable",
      "type": "function"
    },
    {
      "inputs": [
        {
          "internalType": "bytes32",
          "name": "role",
          "type": "bytes32"
        },
        {
          "internalType": "address",
          "name": "account",
          "type": "address"
        }
      ],
      "name": "renounceRole",
      "outputs": [],
      "stateMutability": "nonpayable",
      "type": "function"
    },
    {
      "inputs": [
        {
          "internalType": "bytes32",
          "name": "role",
          "type": "bytes32"
        },
        {
          "internalType": "address",
          "name": "account",
          "type": "address"
        }
      ],
      "name": "revokeRole",
      "outputs": [],
      "stateMutability": "nonpayable",
      "type": "function"
    },
    {
      "inputs": [
        {
          "internalType": "bytes4",
          "name": "interfaceId",
          "type": "bytes4"
        }
      ],
      "name": "supportsInterface",
      "outputs": [
        {
          "internalType": "bool",
          "name": "",
          "type": "bool"
        }
      ],
      "stateMutability": "view",
      "type": "function"
    },
    {
      "inputs": [
        {
          "internalType": "address",
          "name": "newOwner",
          "type": "address"
        }
      ],
      "name": "transferOwnership",
      "outputs": [],
      "stateMutability": "nonpayable",
      "type": "function"
    },
    {
      "inputs": [
        {
          "internalType": "uint256",
          "name": "_tokenId",
          "type": "uint256"
        },
        {
          "internalType": "string",
          "name": "accessory",
          "type": "string"
        }
      ],
      "name": "updateAccessory",
      "outputs": [],
      "stateMutability": "nonpayable",
      "type": "function"
    },
    {
      "inputs": [
        {
          "internalType": "uint256",
          "name": "_tokenId",
          "type": "uint256"
        },
        {
          "internalType": "string",
          "name": "armor",
          "type": "string"
        }
      ],
      "name": "updateArmor",
      "outputs": [],
      "stateMutability": "nonpayable",
      "type": "function"
    },
    {
      "inputs": [
        {
          "internalType": "uint256",
          "name": "_tokenId",
          "type": "uint256"
        },
        {
          "internalType": "string",
          "name": "backgroundColor",
          "type": "string"
        }
      ],
      "name": "updateBackgroundColor",
      "outputs": [],
      "stateMutability": "nonpayable",
      "type": "function"
    },
    {
      "inputs": [
        {
          "internalType": "uint256",
          "name": "_tokenId",
          "type": "uint256"
        },
        {
          "internalType": "string",
          "name": "element",
          "type": "string"
        }
      ],
      "name": "updateElement",
      "outputs": [],
      "stateMutability": "nonpayable",
      "type": "function"
    },
    {
      "inputs": [
        {
          "internalType": "uint256",
          "name": "_tokenId",
          "type": "uint256"
        },
        {
          "internalType": "string",
          "name": "eyes",
          "type": "string"
        }
      ],
      "name": "updateEyes",
      "outputs": [],
      "stateMutability": "nonpayable",
      "type": "function"
    },
    {
      "inputs": [
        {
          "internalType": "uint256",
          "name": "_tokenId",
          "type": "uint256"
        },
        {
          "internalType": "string",
          "name": "head",
          "type": "string"
        }
      ],
      "name": "updateHead",
      "outputs": [],
      "stateMutability": "nonpayable",
      "type": "function"
    },
    {
      "inputs": [
        {
          "internalType": "uint256",
          "name": "_tokenId",
          "type": "uint256"
        },
        {
          "internalType": "string",
          "name": "mouth",
          "type": "string"
        }
      ],
      "name": "updateMouth",
      "outputs": [],
      "stateMutability": "nonpayable",
      "type": "function"
    },
    {
      "inputs": [
        {
          "internalType": "uint256",
          "name": "_tokenId",
          "type": "uint256"
        },
        {
          "internalType": "string",
          "name": "weapon",
          "type": "string"
        }
      ],
      "name": "updateWeapon",
      "outputs": [],
      "stateMutability": "nonpayable",
      "type": "function"
    }
  ],
  "bytecode": "0x608060405260405180606001604052806026815260200162004dcf60269139600290816200002e9190620005a5565b503480156200003c57600080fd5b5060405162004df538038062004df58339818101604052810190620000629190620006f6565b62000082620000766200010260201b60201c565b6200010a60201b60201c565b620000976000801b82620001d060201b60201c565b620000c97f73e573f9566d61418a34d5de3ff49360f9c51fec37f7486551670290f6285dab33620001d060201b60201c565b620000fb7f364d3d7565c7a8300c96fd53e065d19b65848d7b23b3191adcd55621c744223c33620001d060201b60201c565b5062000728565b600033905090565b6000600160009054906101000a900473ffffffffffffffffffffffffffffffffffffffff16905081600160006101000a81548173ffffffffffffffffffffffffffffffffffffffff021916908373ffffffffffffffffffffffffffffffffffffffff1602179055508173ffffffffffffffffffffffffffffffffffffffff168173ffffffffffffffffffffffffffffffffffffffff167f8be0079c531659141344cd1fd0a4f28419497f9722a3daafe3b4186f6b6457e060405160405180910390a35050565b620001e28282620002c160201b60201c565b620002bd57600160008084815260200190815260200160002060000160008373ffffffffffffffffffffffffffffffffffffffff1673ffffffffffffffffffffffffffffffffffffffff16815260200190815260200160002060006101000a81548160ff021916908315150217905550620002626200010260201b60201c565b73ffffffffffffffffffffffffffffffffffffffff168173ffffffffffffffffffffffffffffffffffffffff16837f2f8788117e7eff1d82e926ec794901d17c78024a50270940304540a733656f0d60405160405180910390a45b5050565b600080600084815260200190815260200160002060000160008373ffffffffffffffffffffffffffffffffffffffff1673ffffffffffffffffffffffffffffffffffffffff16815260200190815260200160002060009054906101000a900460ff16905092915050565b600081519050919050565b7f4e487b7100000000000000000000000000000000000000000000000000000000600052604160045260246000fd5b7f4e487b7100000000000000000000000000000000000000000000000000000000600052602260045260246000fd5b60006002820490506001821680620003ad57607f821691505b602082108103620003c357620003c262000365565b5b50919050565b60008190508160005260206000209050919050565b60006020601f8301049050919050565b600082821b905092915050565b6000600883026200042d7fffffffffffffffffffffffffffffffffffffffffffffffffffffffffffffffff82620003ee565b620004398683620003ee565b95508019841693508086168417925050509392505050565b6000819050919050565b6000819050919050565b600062000486620004806200047a8462000451565b6200045b565b62000451565b9050919050565b6000819050919050565b620004a28362000465565b620004ba620004b1826200048d565b848454620003fb565b825550505050565b600090565b620004d1620004c2565b620004de81848462000497565b505050565b5b818110156200050657620004fa600082620004c7565b600181019050620004e4565b5050565b601f82111562000555576200051f81620003c9565b6200052a84620003de565b810160208510156200053a578190505b620005526200054985620003de565b830182620004e3565b50505b505050565b600082821c905092915050565b60006200057a600019846008026200055a565b1980831691505092915050565b600062000595838362000567565b9150826002028217905092915050565b620005b0826200032b565b67ffffffffffffffff811115620005cc57620005cb62000336565b5b620005d8825462000394565b620005e58282856200050a565b600060209050601f8311600181146200061d576000841562000608578287015190505b62000614858262000587565b86555062000684565b601f1984166200062d86620003c9565b60005b82811015620006575784890151825560018201915060208501945060208101905062000630565b8683101562000677578489015162000673601f89168262000567565b8355505b6001600288020188555050505b505050505050565b600080fd5b600073ffffffffffffffffffffffffffffffffffffffff82169050919050565b6000620006be8262000691565b9050919050565b620006d081620006b1565b8114620006dc57600080fd5b50565b600081519050620006f081620006c5565b92915050565b6000602082840312156200070f576200070e6200068c565b5b60006200071f84828501620006df565b91505092915050565b61469780620007386000396000f3fe608060405234801561001057600080fd5b50600436106101da5760003560e01c806389780bbc11610104578063ab35ec63116100a2578063dd75d6d911610071578063dd75d6d91461054f578063e3f4a91a1461057f578063f2fde38b1461059b578063ff4d3701146105b7576101da565b8063ab35ec63146104c9578063caec803b146104f9578063cfc86f7b14610515578063d547741f14610533576101da565b806391d14854116100de57806391d1485414610425578063a217fddf14610455578063a332027714610473578063a42144bf146104ad576101da565b806389780bbc146103cf5780638bc5cfa1146103eb5780638da5cb5b14610407576101da565b806336568abe1161017c5780635288d6e01161014b5780635288d6e01461035d57806360e9ffe914610379578063715018a6146103a957806383606889146103b3576101da565b806336568abe146102eb57806340e45e9c1461030757806347e63380146103235780634ebca51014610341576101da565b8063146ed63d116101b8578063146ed63d14610267578063248a9ca3146102835780632f2ff15d146102b35780633087c9f8146102cf576101da565b806301ffc9a7146101df57806303fe46ab1461020f5780630cd011661461022d575b600080fd5b6101f960048036038101906101f49190612ce0565b6105d3565b6040516102069190612d28565b60405180910390f35b61021761064d565b6040516102249190612d5c565b60405180910390f35b61024760048036038101906102429190612dad565b610671565b60405161025e9b9a99989796959493929190612e98565b60405180910390f35b610281600480360381019061027c91906130b0565b610b2b565b005b61029d60048036038101906102989190613138565b610b7e565b6040516102aa9190612d5c565b60405180910390f35b6102cd60048036038101906102c891906131c3565b610b9d565b005b6102e960048036038101906102e491906130b0565b610bbe565b005b610305600480360381019061030091906131c3565b610c11565b005b610321600480360381019061031c91906130b0565b610c94565b005b61032b610ce7565b6040516103389190612d5c565b60405180910390f35b61035b600480360381019061035691906130b0565b610d0b565b005b610377600480360381019061037291906130b0565b610d5e565b005b610393600480360381019061038e9190612dad565b610db1565b6040516103a0919061338b565b60405180910390f35b6103b16112a9565b005b6103cd60048036038101906103c891906130b0565b6112bd565b005b6103e960048036038101906103e491906130b0565b611310565b005b610405600480360381019061040091906133ad565b611363565b005b61040f6113bf565b60405161041c91906133fc565b60405180910390f35b61043f600480360381019061043a91906131c3565b6113e9565b60405161044c9190612d28565b60405180910390f35b61045d611453565b60405161046a9190612d5c565b60405180910390f35b61048d60048036038101906104889190612dad565b61145a565b6040516104a49b9a99989796959493929190612e98565b60405180910390f35b6104c760048036038101906104c291906130b0565b611904565b005b6104e360048036038101906104de9190612dad565b611957565b6040516104f0919061338b565b60405180910390f35b610513600480360381019061050e9190613443565b611e6a565b005b61051d611eec565b60405161052a9190613483565b60405180910390f35b61054d600480360381019061054891906131c3565b611f7a565b005b6105696004803603810190610564919061369b565b611f9b565b6040516105769190613483565b60405180910390f35b610599600480360381019061059491906133ad565b6120b6565b005b6105b560048036038101906105b091906136f7565b612112565b005b6105d160048036038101906105cc9190613443565b612195565b005b60007f7965db0b000000000000000000000000000000000000000000000000000000007bffffffffffffffffffffffffffffffffffffffffffffffffffffffff1916827bffffffffffffffffffffffffffffffffffffffffffffffffffffffff19161480610646575061064582612217565b5b9050919050565b7f364d3d7565c7a8300c96fd53e065d19b65848d7b23b3191adcd55621c744223c81565b6004818154811061068157600080fd5b90600052602060002090600b02016000915090508060000154908060010160009054906101000a900463ffffffff16908060020180546106c090613753565b80601f01602080910402602001604051908101604052809291908181526020018280546106ec90613753565b80156107395780601f1061070e57610100808354040283529160200191610739565b820191906000526020600020905b81548152906001019060200180831161071c57829003601f168201915b50505050509080600301805461074e90613753565b80601f016020809104026020016040519081016040528092919081815260200182805461077a90613753565b80156107c75780601f1061079c576101008083540402835291602001916107c7565b820191906000526020600020905b8154815290600101906020018083116107aa57829003601f168201915b5050505050908060040180546107dc90613753565b80601f016020809104026020016040519081016040528092919081815260200182805461080890613753565b80156108555780601f1061082a57610100808354040283529160200191610855565b820191906000526020600020905b81548152906001019060200180831161083857829003601f168201915b50505050509080600501805461086a90613753565b80601f016020809104026020016040519081016040528092919081815260200182805461089690613753565b80156108e35780601f106108b8576101008083540402835291602001916108e3565b820191906000526020600020905b8154815290600101906020018083116108c657829003601f168201915b5050505050908060060180546108f890613753565b80601f016020809104026020016040519081016040528092919081815260200182805461092490613753565b80156109715780601f1061094657610100808354040283529160200191610971565b820191906000526020600020905b81548152906001019060200180831161095457829003601f168201915b50505050509080600701805461098690613753565b80601f01602080910402602001604051908101604052809291908181526020018280546109b290613753565b80156109ff5780601f106109d4576101008083540402835291602001916109ff565b820191906000526020600020905b8154815290600101906020018083116109e257829003601f168201915b505050505090806008018054610a1490613753565b80601f0160208091040260200160405190810160405280929190818152602001828054610a4090613753565b8015610a8d5780601f10610a6257610100808354040283529160200191610a8d565b820191906000526020600020905b815481529060010190602001808311610a7057829003601f168201915b505050505090806009018054610aa290613753565b80601f0160208091040260200160405190810160405280929190818152602001828054610ace90613753565b8015610b1b5780601f10610af057610100808354040283529160200191610b1b565b820191906000526020600020905b815481529060010190602001808311610afe57829003601f168201915b50505050509080600a015490508b565b7f73e573f9566d61418a34d5de3ff49360f9c51fec37f7486551670290f6285dab610b5581612281565b81600360008581526020019081526020016000206003019081610b789190613930565b50505050565b6000806000838152602001908152602001600020600101549050919050565b610ba682610b7e565b610baf81612281565b610bb98383612295565b505050565b7f73e573f9566d61418a34d5de3ff49360f9c51fec37f7486551670290f6285dab610be881612281565b81600360008581526020019081526020016000206009019081610c0b9190613930565b50505050565b610c19612375565b73ffffffffffffffffffffffffffffffffffffffff168173ffffffffffffffffffffffffffffffffffffffff1614610c86576040517f08c379a0000000000000000000000000000000000000000000000000000000008152600401610c7d90613a74565b60405180910390fd5b610c90828261237d565b5050565b7f73e573f9566d61418a34d5de3ff49360f9c51fec37f7486551670290f6285dab610cbe81612281565b81600360008581526020019081526020016000206006019081610ce19190613930565b50505050565b7f73e573f9566d61418a34d5de3ff49360f9c51fec37f7486551670290f6285dab81565b7f73e573f9566d61418a34d5de3ff49360f9c51fec37f7486551670290f6285dab610d3581612281565b81600360008581526020019081526020016000206007019081610d589190613930565b50505050565b7f73e573f9566d61418a34d5de3ff49360f9c51fec37f7486551670290f6285dab610d8881612281565b81600360008581526020019081526020016000206008019081610dab9190613930565b50505050565b610db9612c14565b6003600083815260200190815260200160002060405180610160016040529081600082015481526020016001820160009054906101000a900463ffffffff1663ffffffff1663ffffffff168152602001600282018054610e1890613753565b80601f0160208091040260200160405190810160405280929190818152602001828054610e4490613753565b8015610e915780601f10610e6657610100808354040283529160200191610e91565b820191906000526020600020905b815481529060010190602001808311610e7457829003601f168201915b50505050508152602001600382018054610eaa90613753565b80601f0160208091040260200160405190810160405280929190818152602001828054610ed690613753565b8015610f235780601f10610ef857610100808354040283529160200191610f23565b820191906000526020600020905b815481529060010190602001808311610f0657829003601f168201915b50505050508152602001600482018054610f3c90613753565b80601f0160208091040260200160405190810160405280929190818152602001828054610f6890613753565b8015610fb55780601f10610f8a57610100808354040283529160200191610fb5565b820191906000526020600020905b815481529060010190602001808311610f9857829003601f168201915b50505050508152602001600582018054610fce90613753565b80601f0160208091040260200160405190810160405280929190818152602001828054610ffa90613753565b80156110475780601f1061101c57610100808354040283529160200191611047565b820191906000526020600020905b81548152906001019060200180831161102a57829003601f168201915b5050505050815260200160068201805461106090613753565b80601f016020809104026020016040519081016040528092919081815260200182805461108c90613753565b80156110d95780601f106110ae576101008083540402835291602001916110d9565b820191906000526020600020905b8154815290600101906020018083116110bc57829003601f168201915b505050505081526020016007820180546110f290613753565b80601f016020809104026020016040519081016040528092919081815260200182805461111e90613753565b801561116b5780601f106111405761010080835404028352916020019161116b565b820191906000526020600020905b81548152906001019060200180831161114e57829003601f168201915b5050505050815260200160088201805461118490613753565b80601f01602080910402602001604051908101604052809291908181526020018280546111b090613753565b80156111fd5780601f106111d2576101008083540402835291602001916111fd565b820191906000526020600020905b8154815290600101906020018083116111e057829003601f168201915b5050505050815260200160098201805461121690613753565b80601f016020809104026020016040519081016040528092919081815260200182805461124290613753565b801561128f5780601f106112645761010080835404028352916020019161128f565b820191906000526020600020905b81548152906001019060200180831161127257829003601f168201915b50505050508152602001600a820154815250509050919050565b6112b161245e565b6112bb60006124dc565b565b7f73e573f9566d61418a34d5de3ff49360f9c51fec37f7486551670290f6285dab6112e781612281565b8160036000858152602001908152602001600020600201908161130a9190613930565b50505050565b7f73e573f9566d61418a34d5de3ff49360f9c51fec37f7486551670290f6285dab61133a81612281565b8160036000858152602001908152602001600020600401908161135d9190613930565b50505050565b7f73e573f9566d61418a34d5de3ff49360f9c51fec37f7486551670290f6285dab61138d81612281565b8160036000858152602001908152602001600020600a0160008282546113b39190613ac3565b92505081905550505050565b6000600160009054906101000a900473ffffffffffffffffffffffffffffffffffffffff16905090565b600080600084815260200190815260200160002060000160008373ffffffffffffffffffffffffffffffffffffffff1673ffffffffffffffffffffffffffffffffffffffff16815260200190815260200160002060009054906101000a900460ff16905092915050565b6000801b81565b60036020528060005260406000206000915090508060000154908060010160009054906101000a900463ffffffff169080600201805461149990613753565b80601f01602080910402602001604051908101604052809291908181526020018280546114c590613753565b80156115125780601f106114e757610100808354040283529160200191611512565b820191906000526020600020905b8154815290600101906020018083116114f557829003601f168201915b50505050509080600301805461152790613753565b80601f016020809104026020016040519081016040528092919081815260200182805461155390613753565b80156115a05780601f10611575576101008083540402835291602001916115a0565b820191906000526020600020905b81548152906001019060200180831161158357829003601f168201915b5050505050908060040180546115b590613753565b80601f01602080910402602001604051908101604052809291908181526020018280546115e190613753565b801561162e5780601f106116035761010080835404028352916020019161162e565b820191906000526020600020905b81548152906001019060200180831161161157829003601f168201915b50505050509080600501805461164390613753565b80601f016020809104026020016040519081016040528092919081815260200182805461166f90613753565b80156116bc5780601f10611691576101008083540402835291602001916116bc565b820191906000526020600020905b81548152906001019060200180831161169f57829003601f168201915b5050505050908060060180546116d190613753565b80601f01602080910402602001604051908101604052809291908181526020018280546116fd90613753565b801561174a5780601f1061171f5761010080835404028352916020019161174a565b820191906000526020600020905b81548152906001019060200180831161172d57829003601f168201915b50505050509080600701805461175f90613753565b80601f016020809104026020016040519081016040528092919081815260200182805461178b90613753565b80156117d85780601f106117ad576101008083540402835291602001916117d8565b820191906000526020600020905b8154815290600101906020018083116117bb57829003601f168201915b5050505050908060080180546117ed90613753565b80601f016020809104026020016040519081016040528092919081815260200182805461181990613753565b80156118665780601f1061183b57610100808354040283529160200191611866565b820191906000526020600020905b81548152906001019060200180831161184957829003601f168201915b50505050509080600901805461187b90613753565b80601f01602080910402602001604051908101604052809291908181526020018280546118a790613753565b80156118f45780601f106118c9576101008083540402835291602001916118f4565b820191906000526020600020905b8154815290600101906020018083116118d757829003601f168201915b50505050509080600a015490508b565b7f73e573f9566d61418a34d5de3ff49360f9c51fec37f7486551670290f6285dab61192e81612281565b816003600085815260200190815260200160002060050190816119519190613930565b50505050565b61195f612c14565b600460018361196e9190613af7565b8154811061197f5761197e613b2b565b5b90600052602060002090600b020160405180610160016040529081600082015481526020016001820160009054906101000a900463ffffffff1663ffffffff1663ffffffff1681526020016002820180546119d990613753565b80601f0160208091040260200160405190810160405280929190818152602001828054611a0590613753565b8015611a525780601f10611a2757610100808354040283529160200191611a52565b820191906000526020600020905b815481529060010190602001808311611a3557829003601f168201915b50505050508152602001600382018054611a6b90613753565b80601f0160208091040260200160405190810160405280929190818152602001828054611a9790613753565b8015611ae45780601f10611ab957610100808354040283529160200191611ae4565b820191906000526020600020905b815481529060010190602001808311611ac757829003601f168201915b50505050508152602001600482018054611afd90613753565b80601f0160208091040260200160405190810160405280929190818152602001828054611b2990613753565b8015611b765780601f10611b4b57610100808354040283529160200191611b76565b820191906000526020600020905b815481529060010190602001808311611b5957829003601f168201915b50505050508152602001600582018054611b8f90613753565b80601f0160208091040260200160405190810160405280929190818152602001828054611bbb90613753565b8015611c085780601f10611bdd57610100808354040283529160200191611c08565b820191906000526020600020905b815481529060010190602001808311611beb57829003601f168201915b50505050508152602001600682018054611c2190613753565b80601f0160208091040260200160405190810160405280929190818152602001828054611c4d90613753565b8015611c9a5780601f10611c6f57610100808354040283529160200191611c9a565b820191906000526020600020905b815481529060010190602001808311611c7d57829003601f168201915b50505050508152602001600782018054611cb390613753565b80601f0160208091040260200160405190810160405280929190818152602001828054611cdf90613753565b8015611d2c5780601f10611d0157610100808354040283529160200191611d2c565b820191906000526020600020905b815481529060010190602001808311611d0f57829003601f168201915b50505050508152602001600882018054611d4590613753565b80601f0160208091040260200160405190810160405280929190818152602001828054611d7190613753565b8015611dbe5780601f10611d9357610100808354040283529160200191611dbe565b820191906000526020600020905b815481529060010190602001808311611da157829003601f168201915b50505050508152602001600982018054611dd790613753565b80601f0160208091040260200160405190810160405280929190818152602001828054611e0390613753565b8015611e505780601f10611e2557610100808354040283529160200191611e50565b820191906000526020600020905b815481529060010190602001808311611e3357829003601f168201915b50505050508152602001600a820154815250509050919050565b7f73e573f9566d61418a34d5de3ff49360f9c51fec37f7486551670290f6285dab611e9481612281565b816003600085815260200190815260200160002060010160008282829054906101000a900463ffffffff16611ec99190613b5a565b92506101000a81548163ffffffff021916908363ffffffff160217905550505050565b60028054611ef990613753565b80601f0160208091040260200160405190810160405280929190818152602001828054611f2590613753565b8015611f725780601f10611f4757610100808354040283529160200191611f72565b820191906000526020600020905b815481529060010190602001808311611f5557829003601f168201915b505050505081565b611f8382610b7e565b611f8c81612281565b611f96838361237d565b505050565b60607f73e573f9566d61418a34d5de3ff49360f9c51fec37f7486551670290f6285dab611fc781612281565b60008390506000612089611fda876125a2565b60028460400151856060015186608001518760a001518861012001518960e001518a6101000151604051602001612018989796959493929190613c51565b6040516020818303038152906040528460e001518561010001518661012001518760c0015161204b8961014001516125a2565b61205e8a6020015163ffffffff166125a2565b60405160200161207598979695949392919061415d565b604051602081830303815290604052612670565b90508060405160200161209c91906142c0565b604051602081830303815290604052935050505092915050565b7f73e573f9566d61418a34d5de3ff49360f9c51fec37f7486551670290f6285dab6120e081612281565b8160036000858152602001908152602001600020600a0160008282546121069190613af7565b92505081905550505050565b61211a61245e565b600073ffffffffffffffffffffffffffffffffffffffff168173ffffffffffffffffffffffffffffffffffffffff1603612189576040517f08c379a000000000000000000000000000000000000000000000000000000000815260040161218090614354565b60405180910390fd5b612192816124dc565b50565b7f73e573f9566d61418a34d5de3ff49360f9c51fec37f7486551670290f6285dab6121bf81612281565b816003600085815260200190815260200160002060010160008282829054906101000a900463ffffffff166121f49190614374565b92506101000a81548163ffffffff021916908363ffffffff160217905550505050565b60007f01ffc9a7000000000000000000000000000000000000000000000000000000007bffffffffffffffffffffffffffffffffffffffffffffffffffffffff1916827bffffffffffffffffffffffffffffffffffffffffffffffffffffffff1916149050919050565b6122928161228d612375565b6127d3565b50565b61229f82826113e9565b61237157600160008084815260200190815260200160002060000160008373ffffffffffffffffffffffffffffffffffffffff1673ffffffffffffffffffffffffffffffffffffffff16815260200190815260200160002060006101000a81548160ff021916908315150217905550612316612375565b73ffffffffffffffffffffffffffffffffffffffff168173ffffffffffffffffffffffffffffffffffffffff16837f2f8788117e7eff1d82e926ec794901d17c78024a50270940304540a733656f0d60405160405180910390a45b5050565b600033905090565b61238782826113e9565b1561245a57600080600084815260200190815260200160002060000160008373ffffffffffffffffffffffffffffffffffffffff1673ffffffffffffffffffffffffffffffffffffffff16815260200190815260200160002060006101000a81548160ff0219169083151502179055506123ff612375565b73ffffffffffffffffffffffffffffffffffffffff168173ffffffffffffffffffffffffffffffffffffffff16837ff6391f5c32d9c69d2a47ea670b442974b53935d1edc7fd64eb21e047a839171b60405160405180910390a45b5050565b612466612375565b73ffffffffffffffffffffffffffffffffffffffff166124846113bf565b73ffffffffffffffffffffffffffffffffffffffff16146124da576040517f08c379a00000000000000000000000000000000000000000000000000000000081526004016124d1906143f8565b60405180910390fd5b565b6000600160009054906101000a900473ffffffffffffffffffffffffffffffffffffffff16905081600160006101000a81548173ffffffffffffffffffffffffffffffffffffffff021916908373ffffffffffffffffffffffffffffffffffffffff1602179055508173ffffffffffffffffffffffffffffffffffffffff168173ffffffffffffffffffffffffffffffffffffffff167f8be0079c531659141344cd1fd0a4f28419497f9722a3daafe3b4186f6b6457e060405160405180910390a35050565b6060600060016125b184612858565b01905060008167ffffffffffffffff8111156125d0576125cf612f85565b5b6040519080825280601f01601f1916602001820160405280156126025781602001600182028036833780820191505090505b509050600082602001820190505b600115612665578080600190039150507f3031323334353637383961626364656600000000000000000000000000000000600a86061a8153600a858161265957612658614418565b5b04945060008503612610575b819350505050919050565b60606000825103612692576040518060200160405280600081525090506127ce565b600060405180606001604052806040815260200161462260409139905060006003600285516126c19190613ac3565b6126cb9190614447565b60046126d79190614478565b67ffffffffffffffff8111156126f0576126ef612f85565b5b6040519080825280601f01601f1916602001820160405280156127225781602001600182028036833780820191505090505b509050600182016020820185865187015b8082101561278e576003820191508151603f8160121c168501518453600184019350603f81600c1c168501518453600184019350603f8160061c168501518453600184019350603f8116850151845360018401935050612733565b50506003865106600181146127aa57600281146127bd576127c5565b603d6001830353603d60028303536127c5565b603d60018303535b50505080925050505b919050565b6127dd82826113e9565b612854576127ea816129ab565b6127f88360001c60206129d8565b604051602001612809929190614552565b6040516020818303038152906040526040517f08c379a000000000000000000000000000000000000000000000000000000000815260040161284b9190613483565b60405180910390fd5b5050565b600080600090507a184f03e93ff9f4daa797ed6e38ed64bf6a1f01000000000000000083106128b6577a184f03e93ff9f4daa797ed6e38ed64bf6a1f01000000000000000083816128ac576128ab614418565b5b0492506040810190505b6d04ee2d6d415b85acef810000000083106128f3576d04ee2d6d415b85acef810000000083816128e9576128e8614418565b5b0492506020810190505b662386f26fc10000831061292257662386f26fc10000838161291857612917614418565b5b0492506010810190505b6305f5e100831061294b576305f5e100838161294157612940614418565b5b0492506008810190505b612710831061297057612710838161296657612965614418565b5b0492506004810190505b60648310612993576064838161298957612988614418565b5b0492506002810190505b600a83106129a2576001810190505b80915050919050565b60606129d18273ffffffffffffffffffffffffffffffffffffffff16601460ff166129d8565b9050919050565b6060600060028360026129eb9190614478565b6129f59190613ac3565b67ffffffffffffffff811115612a0e57612a0d612f85565b5b6040519080825280601f01601f191660200182016040528015612a405781602001600182028036833780820191505090505b5090507f300000000000000000000000000000000000000000000000000000000000000081600081518110612a7857612a77613b2b565b5b60200101907effffffffffffffffffffffffffffffffffffffffffffffffffffffffffffff1916908160001a9053507f780000000000000000000000000000000000000000000000000000000000000081600181518110612adc57612adb613b2b565b5b60200101907effffffffffffffffffffffffffffffffffffffffffffffffffffffffffffff1916908160001a90535060006001846002612b1c9190614478565b612b269190613ac3565b90505b6001811115612bc6577f3031323334353637383961626364656600000000000000000000000000000000600f861660108110612b6857612b67613b2b565b5b1a60f81b828281518110612b7f57612b7e613b2b565b5b60200101907effffffffffffffffffffffffffffffffffffffffffffffffffffffffffffff1916908160001a905350600485901c945080612bbf9061458c565b9050612b29565b5060008414612c0a576040517f08c379a0000000000000000000000000000000000000000000000000000000008152600401612c0190614601565b60405180910390fd5b8091505092915050565b60405180610160016040528060008152602001600063ffffffff1681526020016060815260200160608152602001606081526020016060815260200160608152602001606081526020016060815260200160608152602001600081525090565b6000604051905090565b600080fd5b600080fd5b60007fffffffff0000000000000000000000000000000000000000000000000000000082169050919050565b612cbd81612c88565b8114612cc857600080fd5b50565b600081359050612cda81612cb4565b92915050565b600060208284031215612cf657612cf5612c7e565b5b6000612d0484828501612ccb565b91505092915050565b60008115159050919050565b612d2281612d0d565b82525050565b6000602082019050612d3d6000830184612d19565b92915050565b6000819050919050565b612d5681612d43565b82525050565b6000602082019050612d716000830184612d4d565b92915050565b6000819050919050565b612d8a81612d77565b8114612d9557600080fd5b50565b600081359050612da781612d81565b92915050565b600060208284031215612dc357612dc2612c7e565b5b6000612dd184828501612d98565b91505092915050565b612de381612d77565b82525050565b600063ffffffff82169050919050565b612e0281612de9565b82525050565b600081519050919050565b600082825260208201905092915050565b60005b83811015612e42578082015181840152602081019050612e27565b60008484015250505050565b6000601f19601f8301169050919050565b6000612e6a82612e08565b612e748185612e13565b9350612e84818560208601612e24565b612e8d81612e4e565b840191505092915050565b600061016082019050612eae600083018e612dda565b612ebb602083018d612df9565b8181036040830152612ecd818c612e5f565b90508181036060830152612ee1818b612e5f565b90508181036080830152612ef5818a612e5f565b905081810360a0830152612f098189612e5f565b905081810360c0830152612f1d8188612e5f565b905081810360e0830152612f318187612e5f565b9050818103610100830152612f468186612e5f565b9050818103610120830152612f5b8185612e5f565b9050612f6b610140830184612dda565b9c9b505050505050505050505050565b600080fd5b600080fd5b7f4e487b7100000000000000000000000000000000000000000000000000000000600052604160045260246000fd5b612fbd82612e4e565b810181811067ffffffffffffffff82111715612fdc57612fdb612f85565b5b80604052505050565b6000612fef612c74565b9050612ffb8282612fb4565b919050565b600067ffffffffffffffff82111561301b5761301a612f85565b5b61302482612e4e565b9050602081019050919050565b82818337600083830152505050565b600061305361304e84613000565b612fe5565b90508281526020810184848401111561306f5761306e612f80565b5b61307a848285613031565b509392505050565b600082601f83011261309757613096612f7b565b5b81356130a7848260208601613040565b91505092915050565b600080604083850312156130c7576130c6612c7e565b5b60006130d585828601612d98565b925050602083013567ffffffffffffffff8111156130f6576130f5612c83565b5b61310285828601613082565b9150509250929050565b61311581612d43565b811461312057600080fd5b50565b6000813590506131328161310c565b92915050565b60006020828403121561314e5761314d612c7e565b5b600061315c84828501613123565b91505092915050565b600073ffffffffffffffffffffffffffffffffffffffff82169050919050565b600061319082613165565b9050919050565b6131a081613185565b81146131ab57600080fd5b50565b6000813590506131bd81613197565b92915050565b600080604083850312156131da576131d9612c7e565b5b60006131e885828601613123565b92505060206131f9858286016131ae565b9150509250929050565b61320c81612d77565b82525050565b61321b81612de9565b82525050565b600082825260208201905092915050565b600061323d82612e08565b6132478185613221565b9350613257818560208601612e24565b61326081612e4e565b840191505092915050565b6000610160830160008301516132846000860182613203565b5060208301516132976020860182613212565b50604083015184820360408601526132af8282613232565b915050606083015184820360608601526132c98282613232565b915050608083015184820360808601526132e38282613232565b91505060a083015184820360a08601526132fd8282613232565b91505060c083015184820360c08601526133178282613232565b91505060e083015184820360e08601526133318282613232565b91505061010083015184820361010086015261334d8282613232565b9150506101208301518482036101208601526133698282613232565b915050610140830151613380610140860182613203565b508091505092915050565b600060208201905081810360008301526133a5818461326b565b905092915050565b600080604083850312156133c4576133c3612c7e565b5b60006133d285828601612d98565b92505060206133e385828601612d98565b9150509250929050565b6133f681613185565b82525050565b600060208201905061341160008301846133ed565b92915050565b61342081612de9565b811461342b57600080fd5b50565b60008135905061343d81613417565b92915050565b6000806040838503121561345a57613459612c7e565b5b600061346885828601612d98565b92505060206134798582860161342e565b9150509250929050565b6000602082019050818103600083015261349d8184612e5f565b905092915050565b600080fd5b600080fd5b600061016082840312156134c6576134c56134a5565b5b6134d1610160612fe5565b905060006134e184828501612d98565b60008301525060206134f58482850161342e565b602083015250604082013567ffffffffffffffff811115613519576135186134aa565b5b61352584828501613082565b604083015250606082013567ffffffffffffffff811115613549576135486134aa565b5b61355584828501613082565b606083015250608082013567ffffffffffffffff811115613579576135786134aa565b5b61358584828501613082565b60808301525060a082013567ffffffffffffffff8111156135a9576135a86134aa565b5b6135b584828501613082565b60a08301525060c082013567ffffffffffffffff8111156135d9576135d86134aa565b5b6135e584828501613082565b60c08301525060e082013567ffffffffffffffff811115613609576136086134aa565b5b61361584828501613082565b60e08301525061010082013567ffffffffffffffff81111561363a576136396134aa565b5b61364684828501613082565b6101008301525061012082013567ffffffffffffffff81111561366c5761366b6134aa565b5b61367884828501613082565b6101208301525061014061368e84828501612d98565b6101408301525092915050565b600080604083850312156136b2576136b1612c7e565b5b60006136c085828601612d98565b925050602083013567ffffffffffffffff8111156136e1576136e0612c83565b5b6136ed858286016134af565b9150509250929050565b60006020828403121561370d5761370c612c7e565b5b600061371b848285016131ae565b91505092915050565b7f4e487b7100000000000000000000000000000000000000000000000000000000600052602260045260246000fd5b6000600282049050600182168061376b57607f821691505b60208210810361377e5761377d613724565b5b50919050565b60008190508160005260206000209050919050565b60006020601f8301049050919050565b600082821b905092915050565b6000600883026137e67fffffffffffffffffffffffffffffffffffffffffffffffffffffffffffffffff826137a9565b6137f086836137a9565b95508019841693508086168417925050509392505050565b6000819050919050565b600061382d61382861382384612d77565b613808565b612d77565b9050919050565b6000819050919050565b61384783613812565b61385b61385382613834565b8484546137b6565b825550505050565b600090565b613870613863565b61387b81848461383e565b505050565b5b8181101561389f57613894600082613868565b600181019050613881565b5050565b601f8211156138e4576138b581613784565b6138be84613799565b810160208510156138cd578190505b6138e16138d985613799565b830182613880565b50505b505050565b600082821c905092915050565b6000613907600019846008026138e9565b1980831691505092915050565b600061392083836138f6565b9150826002028217905092915050565b61393982612e08565b67ffffffffffffffff81111561395257613951612f85565b5b61395c8254613753565b6139678282856138a3565b600060209050601f83116001811461399a5760008415613988578287015190505b6139928582613914565b8655506139fa565b601f1984166139a886613784565b60005b828110156139d0578489015182556001820191506020850194506020810190506139ab565b868310156139ed57848901516139e9601f8916826138f6565b8355505b6001600288020188555050505b505050505050565b7f416363657373436f6e74726f6c3a2063616e206f6e6c792072656e6f756e636560008201527f20726f6c657320666f722073656c660000000000000000000000000000000000602082015250565b6000613a5e602f83612e13565b9150613a6982613a02565b604082019050919050565b60006020820190508181036000830152613a8d81613a51565b9050919050565b7f4e487b7100000000000000000000000000000000000000000000000000000000600052601160045260246000fd5b6000613ace82612d77565b9150613ad983612d77565b9250828201905080821115613af157613af0613a94565b5b92915050565b6000613b0282612d77565b9150613b0d83612d77565b9250828203905081811115613b2557613b24613a94565b5b92915050565b7f4e487b7100000000000000000000000000000000000000000000000000000000600052603260045260246000fd5b6000613b6582612de9565b9150613b7083612de9565b9250828203905063ffffffff811115613b8c57613b8b613a94565b5b92915050565b600081905092915050565b60008154613baa81613753565b613bb48186613b92565b94506001821660008114613bcf5760018114613be457613c17565b60ff1983168652811515820286019350613c17565b613bed85613784565b60005b83811015613c0f57815481890152600182019150602081019050613bf0565b838801955050505b50505092915050565b6000613c2b82612e08565b613c358185613b92565b9350613c45818560208601612e24565b80840191505092915050565b6000613c5d828b613b9d565b9150613c69828a613c20565b9150613c758289613c20565b9150613c818288613c20565b9150613c8d8287613c20565b9150613c998286613c20565b9150613ca58285613c20565b9150613cb18284613c20565b91508190509998505050505050505050565b7f7b226e616d65223a20224d757368726f6f6d2023000000000000000000000000600082015250565b6000613cf9601483613b92565b9150613d0482613cc3565b601482019050919050565b7f222c20226465736372697074696f6e223a20224d616c6963696f7573204d757360008201527f68726f6f6d732052617772222c2022696d616765223a20220000000000000000602082015250565b6000613d6b603883613b92565b9150613d7682613d0f565b603882019050919050565b7f22202261747472696275746573223a205b000000000000000000000000000000600082015250565b6000613db7601183613b92565b9150613dc282613d81565b601182019050919050565b7f7b2274726169745f74797065223a2022576561706f6e222c202276616c75652260008201527f3a20220000000000000000000000000000000000000000000000000000000000602082015250565b6000613e29602383613b92565b9150613e3482613dcd565b602382019050919050565b7f227d2c0000000000000000000000000000000000000000000000000000000000600082015250565b6000613e75600383613b92565b9150613e8082613e3f565b600382019050919050565b7f7b2274726169745f74797065223a202241726d6f72222c202276616c7565223a60008201527f2022000000000000000000000000000000000000000000000000000000000000602082015250565b6000613ee7602283613b92565b9150613ef282613e8b565b602282019050919050565b7f7b2274726169745f74797065223a20224163636573736f7279222c202276616c60008201527f7565223a20220000000000000000000000000000000000000000000000000000602082015250565b6000613f59602683613b92565b9150613f6482613efd565b602682019050919050565b7f7b2274726169745f74797065223a2022456c656d656e74222c202276616c756560008201527f223a202200000000000000000000000000000000000000000000000000000000602082015250565b6000613fcb602483613b92565b9150613fd682613f6f565b602482019050919050565b7f7b2274726169745f74797065223a20224c6576656c222c202276616c7565223a60008201527f2000000000000000000000000000000000000000000000000000000000000000602082015250565b600061403d602183613b92565b915061404882613fe1565b602182019050919050565b7f7d2c000000000000000000000000000000000000000000000000000000000000600082015250565b6000614089600283613b92565b915061409482614053565b600282019050919050565b7f7b2274726169745f74797065223a202253706f726573222c202276616c75652260008201527f3a20000000000000000000000000000000000000000000000000000000000000602082015250565b60006140fb602283613b92565b91506141068261409f565b602282019050919050565b7f7d5d7d0000000000000000000000000000000000000000000000000000000000600082015250565b6000614147600383613b92565b915061415282614111565b600382019050919050565b600061416882613cec565b9150614174828b613c20565b915061417f82613d5e565b915061418b828a613c20565b915061419682613daa565b91506141a182613e1c565b91506141ad8289613c20565b91506141b882613e68565b91506141c382613eda565b91506141cf8288613c20565b91506141da82613e68565b91506141e582613f4c565b91506141f18287613c20565b91506141fc82613e68565b915061420782613fbe565b91506142138286613c20565b915061421e82613e68565b915061422982614030565b91506142358285613c20565b91506142408261407c565b915061424b826140ee565b91506142578284613c20565b91506142628261413a565b91508190509998505050505050505050565b7f646174613a6170706c69636174696f6e2f6a736f6e3b6261736536342c000000600082015250565b60006142aa601d83613b92565b91506142b582614274565b601d82019050919050565b60006142cb8261429d565b91506142d78284613c20565b915081905092915050565b7f4f776e61626c653a206e6577206f776e657220697320746865207a65726f206160008201527f6464726573730000000000000000000000000000000000000000000000000000602082015250565b600061433e602683612e13565b9150614349826142e2565b604082019050919050565b6000602082019050818103600083015261436d81614331565b9050919050565b600061437f82612de9565b915061438a83612de9565b9250828201905063ffffffff8111156143a6576143a5613a94565b5b92915050565b7f4f776e61626c653a2063616c6c6572206973206e6f7420746865206f776e6572600082015250565b60006143e2602083612e13565b91506143ed826143ac565b602082019050919050565b60006020820190508181036000830152614411816143d5565b9050919050565b7f4e487b7100000000000000000000000000000000000000000000000000000000600052601260045260246000fd5b600061445282612d77565b915061445d83612d77565b92508261446d5761446c614418565b5b828204905092915050565b600061448382612d77565b915061448e83612d77565b925082820261449c81612d77565b915082820484148315176144b3576144b2613a94565b5b5092915050565b7f416363657373436f6e74726f6c3a206163636f756e7420000000000000000000600082015250565b60006144f0601783613b92565b91506144fb826144ba565b601782019050919050565b7f206973206d697373696e6720726f6c6520000000000000000000000000000000600082015250565b600061453c601183613b92565b915061454782614506565b601182019050919050565b600061455d826144e3565b91506145698285613c20565b91506145748261452f565b91506145808284613c20565b91508190509392505050565b600061459782612d77565b9150600082036145aa576145a9613a94565b5b600182039050919050565b7f537472696e67733a20686578206c656e67746820696e73756666696369656e74600082015250565b60006145eb602083612e13565b91506145f6826145b5565b602082019050919050565b6000602082019050818103600083015261461a816145de565b905091905056fe4142434445464748494a4b4c4d4e4f505152535455565758595a6162636465666768696a6b6c6d6e6f707172737475767778797a303132333435363738392b2fa2646970667358221220608ac9d7559701ecd7636824795cf4df892e7cba94696e89f9dfbdd5c88da6db64736f6c6343000811003368747470733a2f2f6d616c6963696f75736d757368726f6f6d732e636f6d2f696d616765732f",
  "linkReferences": {},
  "deployedLinkReferences": {}
}