{
  "_format": "hh-sol-artifact-1",
  "contractName": "TokenURI",
  "sourceName": "contracts/TokenURI.sol",
  "abi": [
    {
      "inputs": [
        {
          "internalType": "address",
          "name": "admin",
          "type": "address"
        },
        {
          "internalType": "address",
          "name": "M1ContractAddress",
          "type": "address"
        }
      ],
      "stateMutability": "nonpayable",
      "type": "constructor"
    },
    {
      "anonymous": false,
      "inputs": [
        {
          "indexed": true,
          "internalType": "address",
          "name": "owner",
          "type": "address"
        },
        {
          "indexed": true,
          "internalType": "address",
          "name": "approved",
          "type": "address"
        },
        {
          "indexed": true,
          "internalType": "uint256",
          "name": "tokenId",
          "type": "uint256"
        }
      ],
      "name": "Approval",
      "type": "event"
    },
    {
      "anonymous": false,
      "inputs": [
        {
          "indexed": true,
          "internalType": "address",
          "name": "owner",
          "type": "address"
        },
        {
          "indexed": true,
          "internalType": "address",
          "name": "operator",
          "type": "address"
        },
        {
          "indexed": false,
          "internalType": "bool",
          "name": "approved",
          "type": "bool"
        }
      ],
      "name": "ApprovalForAll",
      "type": "event"
    },
    {
      "anonymous": false,
      "inputs": [
        {
          "indexed": true,
          "internalType": "bytes32",
          "name": "role",
          "type": "bytes32"
        },
        {
          "indexed": true,
          "internalType": "bytes32",
          "name": "previousAdminRole",
          "type": "bytes32"
        },
        {
          "indexed": true,
          "internalType": "bytes32",
          "name": "newAdminRole",
          "type": "bytes32"
        }
      ],
      "name": "RoleAdminChanged",
      "type": "event"
    },
    {
      "anonymous": false,
      "inputs": [
        {
          "indexed": true,
          "internalType": "bytes32",
          "name": "role",
          "type": "bytes32"
        },
        {
          "indexed": true,
          "internalType": "address",
          "name": "account",
          "type": "address"
        },
        {
          "indexed": true,
          "internalType": "address",
          "name": "sender",
          "type": "address"
        }
      ],
      "name": "RoleGranted",
      "type": "event"
    },
    {
      "anonymous": false,
      "inputs": [
        {
          "indexed": true,
          "internalType": "bytes32",
          "name": "role",
          "type": "bytes32"
        },
        {
          "indexed": true,
          "internalType": "address",
          "name": "account",
          "type": "address"
        },
        {
          "indexed": true,
          "internalType": "address",
          "name": "sender",
          "type": "address"
        }
      ],
      "name": "RoleRevoked",
      "type": "event"
    },
    {
      "anonymous": false,
      "inputs": [
        {
          "indexed": true,
          "internalType": "address",
          "name": "from",
          "type": "address"
        },
        {
          "indexed": true,
          "internalType": "address",
          "name": "to",
          "type": "address"
        },
        {
          "indexed": true,
          "internalType": "uint256",
          "name": "tokenId",
          "type": "uint256"
        }
      ],
      "name": "Transfer",
      "type": "event"
    },
    {
      "inputs": [],
      "name": "CONTRACT_ROLE",
      "outputs": [
        {
          "internalType": "bytes32",
          "name": "",
          "type": "bytes32"
        }
      ],
      "stateMutability": "view",
      "type": "function"
    },
    {
      "inputs": [],
      "name": "DEFAULT_ADMIN_ROLE",
      "outputs": [
        {
          "internalType": "bytes32",
          "name": "",
          "type": "bytes32"
        }
      ],
      "stateMutability": "view",
      "type": "function"
    },
    {
      "inputs": [],
      "name": "UPDATER_ROLE",
      "outputs": [
        {
          "internalType": "bytes32",
          "name": "",
          "type": "bytes32"
        }
      ],
      "stateMutability": "view",
      "type": "function"
    },
    {
      "inputs": [],
      "name": "_baseTokenURI",
      "outputs": [
        {
          "internalType": "string",
          "name": "",
          "type": "string"
        }
      ],
      "stateMutability": "view",
      "type": "function"
    },
    {
      "inputs": [
        {
          "internalType": "uint256",
          "name": "",
          "type": "uint256"
        }
      ],
      "name": "_tokenURIs",
      "outputs": [
        {
          "internalType": "string",
          "name": "",
          "type": "string"
        }
      ],
      "stateMutability": "view",
      "type": "function"
    },
    {
      "inputs": [
        {
          "internalType": "address",
          "name": "to",
          "type": "address"
        },
        {
          "internalType": "uint256",
          "name": "tokenId",
          "type": "uint256"
        }
      ],
      "name": "approve",
      "outputs": [],
      "stateMutability": "nonpayable",
      "type": "function"
    },
    {
      "inputs": [
        {
          "internalType": "address",
          "name": "owner",
          "type": "address"
        }
      ],
      "name": "balanceOf",
      "outputs": [
        {
          "internalType": "uint256",
          "name": "",
          "type": "uint256"
        }
      ],
      "stateMutability": "view",
      "type": "function"
    },
    {
      "inputs": [
        {
          "internalType": "uint256",
          "name": "tokenId",
          "type": "uint256"
        }
      ],
      "name": "getApproved",
      "outputs": [
        {
          "internalType": "address",
          "name": "",
          "type": "address"
        }
      ],
      "stateMutability": "view",
      "type": "function"
    },
    {
      "inputs": [
        {
          "internalType": "bytes32",
          "name": "role",
          "type": "bytes32"
        }
      ],
      "name": "getRoleAdmin",
      "outputs": [
        {
          "internalType": "bytes32",
          "name": "",
          "type": "bytes32"
        }
      ],
      "stateMutability": "view",
      "type": "function"
    },
    {
      "inputs": [
        {
          "internalType": "uint256",
          "name": "_tokenId",
          "type": "uint256"
        }
      ],
      "name": "getTokenURI",
      "outputs": [
        {
          "internalType": "string",
          "name": "",
          "type": "string"
        }
      ],
      "stateMutability": "view",
      "type": "function"
    },
    {
      "inputs": [
        {
          "internalType": "bytes32",
          "name": "role",
          "type": "bytes32"
        },
        {
          "internalType": "address",
          "name": "account",
          "type": "address"
        }
      ],
      "name": "grantRole",
      "outputs": [],
      "stateMutability": "nonpayable",
      "type": "function"
    },
    {
      "inputs": [
        {
          "internalType": "bytes32",
          "name": "role",
          "type": "bytes32"
        },
        {
          "internalType": "address",
          "name": "account",
          "type": "address"
        }
      ],
      "name": "hasRole",
      "outputs": [
        {
          "internalType": "bool",
          "name": "",
          "type": "bool"
        }
      ],
      "stateMutability": "view",
      "type": "function"
    },
    {
      "inputs": [
        {
          "internalType": "address",
          "name": "owner",
          "type": "address"
        },
        {
          "internalType": "address",
          "name": "operator",
          "type": "address"
        }
      ],
      "name": "isApprovedForAll",
      "outputs": [
        {
          "internalType": "bool",
          "name": "",
          "type": "bool"
        }
      ],
      "stateMutability": "view",
      "type": "function"
    },
    {
      "inputs": [
        {
          "internalType": "uint256",
          "name": "_tokenId",
          "type": "uint256"
        }
      ],
      "name": "makeTokenURI",
      "outputs": [
        {
          "internalType": "string",
          "name": "",
          "type": "string"
        }
      ],
      "stateMutability": "nonpayable",
      "type": "function"
    },
    {
      "inputs": [],
      "name": "name",
      "outputs": [
        {
          "internalType": "string",
          "name": "",
          "type": "string"
        }
      ],
      "stateMutability": "view",
      "type": "function"
    },
    {
      "inputs": [
        {
          "internalType": "uint256",
          "name": "tokenId",
          "type": "uint256"
        }
      ],
      "name": "ownerOf",
      "outputs": [
        {
          "internalType": "address",
          "name": "",
          "type": "address"
        }
      ],
      "stateMutability": "view",
      "type": "function"
    },
    {
      "inputs": [
        {
          "internalType": "bytes32",
          "name": "role",
          "type": "bytes32"
        },
        {
          "internalType": "address",
          "name": "account",
          "type": "address"
        }
      ],
      "name": "renounceRole",
      "outputs": [],
      "stateMutability": "nonpayable",
      "type": "function"
    },
    {
      "inputs": [
        {
          "internalType": "bytes32",
          "name": "role",
          "type": "bytes32"
        },
        {
          "internalType": "address",
          "name": "account",
          "type": "address"
        }
      ],
      "name": "revokeRole",
      "outputs": [],
      "stateMutability": "nonpayable",
      "type": "function"
    },
    {
      "inputs": [
        {
          "internalType": "address",
          "name": "from",
          "type": "address"
        },
        {
          "internalType": "address",
          "name": "to",
          "type": "address"
        },
        {
          "internalType": "uint256",
          "name": "tokenId",
          "type": "uint256"
        }
      ],
      "name": "safeTransferFrom",
      "outputs": [],
      "stateMutability": "nonpayable",
      "type": "function"
    },
    {
      "inputs": [
        {
          "internalType": "address",
          "name": "from",
          "type": "address"
        },
        {
          "internalType": "address",
          "name": "to",
          "type": "address"
        },
        {
          "internalType": "uint256",
          "name": "tokenId",
          "type": "uint256"
        },
        {
          "internalType": "bytes",
          "name": "data",
          "type": "bytes"
        }
      ],
      "name": "safeTransferFrom",
      "outputs": [],
      "stateMutability": "nonpayable",
      "type": "function"
    },
    {
      "inputs": [
        {
          "internalType": "address",
          "name": "operator",
          "type": "address"
        },
        {
          "internalType": "bool",
          "name": "approved",
          "type": "bool"
        }
      ],
      "name": "setApprovalForAll",
      "outputs": [],
      "stateMutability": "nonpayable",
      "type": "function"
    },
    {
      "inputs": [
        {
          "internalType": "bytes4",
          "name": "interfaceId",
          "type": "bytes4"
        }
      ],
      "name": "supportsInterface",
      "outputs": [
        {
          "internalType": "bool",
          "name": "",
          "type": "bool"
        }
      ],
      "stateMutability": "view",
      "type": "function"
    },
    {
      "inputs": [],
      "name": "symbol",
      "outputs": [
        {
          "internalType": "string",
          "name": "",
          "type": "string"
        }
      ],
      "stateMutability": "view",
      "type": "function"
    },
    {
      "inputs": [
        {
          "internalType": "uint256",
          "name": "tokenId",
          "type": "uint256"
        }
      ],
      "name": "tokenURI",
      "outputs": [
        {
          "internalType": "string",
          "name": "",
          "type": "string"
        }
      ],
      "stateMutability": "view",
      "type": "function"
    },
    {
      "inputs": [
        {
          "internalType": "address",
          "name": "from",
          "type": "address"
        },
        {
          "internalType": "address",
          "name": "to",
          "type": "address"
        },
        {
          "internalType": "uint256",
          "name": "tokenId",
          "type": "uint256"
        }
      ],
      "name": "transferFrom",
      "outputs": [],
      "stateMutability": "nonpayable",
      "type": "function"
    }
  ],
  "bytecode": "0x608060405260405180606001604052806026815260200162004a7460269139600890816200002e919062000595565b503480156200003c57600080fd5b5060405162004a9a38038062004a9a8339818101604052810190620000629190620006e6565b6040518060400160405280600f81526020017f4d696e74696e674d757368726f6f6d00000000000000000000000000000000008152506040518060400160405280600281526020017f4d4d0000000000000000000000000000000000000000000000000000000000008152508160009081620000df919062000595565b508060019081620000f1919062000595565b505050620001096000801b83620001b660201b60201c565b6200013b7f73e573f9566d61418a34d5de3ff49360f9c51fec37f7486551670290f6285dab33620001b660201b60201c565b6200016d7f364d3d7565c7a8300c96fd53e065d19b65848d7b23b3191adcd55621c744223c33620001b660201b60201c565b80600a60006101000a81548173ffffffffffffffffffffffffffffffffffffffff021916908373ffffffffffffffffffffffffffffffffffffffff16021790555050506200072d565b620001c88282620002a860201b60201c565b620002a45760016007600084815260200190815260200160002060000160008373ffffffffffffffffffffffffffffffffffffffff1673ffffffffffffffffffffffffffffffffffffffff16815260200190815260200160002060006101000a81548160ff021916908315150217905550620002496200031360201b60201c565b73ffffffffffffffffffffffffffffffffffffffff168173ffffffffffffffffffffffffffffffffffffffff16837f2f8788117e7eff1d82e926ec794901d17c78024a50270940304540a733656f0d60405160405180910390a45b5050565b60006007600084815260200190815260200160002060000160008373ffffffffffffffffffffffffffffffffffffffff1673ffffffffffffffffffffffffffffffffffffffff16815260200190815260200160002060009054906101000a900460ff16905092915050565b600033905090565b600081519050919050565b7f4e487b7100000000000000000000000000000000000000000000000000000000600052604160045260246000fd5b7f4e487b7100000000000000000000000000000000000000000000000000000000600052602260045260246000fd5b600060028204905060018216806200039d57607f821691505b602082108103620003b357620003b262000355565b5b50919050565b60008190508160005260206000209050919050565b60006020601f8301049050919050565b600082821b905092915050565b6000600883026200041d7fffffffffffffffffffffffffffffffffffffffffffffffffffffffffffffffff82620003de565b620004298683620003de565b95508019841693508086168417925050509392505050565b6000819050919050565b6000819050919050565b600062000476620004706200046a8462000441565b6200044b565b62000441565b9050919050565b6000819050919050565b620004928362000455565b620004aa620004a1826200047d565b848454620003eb565b825550505050565b600090565b620004c1620004b2565b620004ce81848462000487565b505050565b5b81811015620004f657620004ea600082620004b7565b600181019050620004d4565b5050565b601f82111562000545576200050f81620003b9565b6200051a84620003ce565b810160208510156200052a578190505b620005426200053985620003ce565b830182620004d3565b50505b505050565b600082821c905092915050565b60006200056a600019846008026200054a565b1980831691505092915050565b600062000585838362000557565b9150826002028217905092915050565b620005a0826200031b565b67ffffffffffffffff811115620005bc57620005bb62000326565b5b620005c8825462000384565b620005d5828285620004fa565b600060209050601f8311600181146200060d5760008415620005f8578287015190505b62000604858262000577565b86555062000674565b601f1984166200061d86620003b9565b60005b82811015620006475784890151825560018201915060208501945060208101905062000620565b8683101562000667578489015162000663601f89168262000557565b8355505b6001600288020188555050505b505050505050565b600080fd5b600073ffffffffffffffffffffffffffffffffffffffff82169050919050565b6000620006ae8262000681565b9050919050565b620006c081620006a1565b8114620006cc57600080fd5b50565b600081519050620006e081620006b5565b92915050565b600080604083850312156200070057620006ff6200067c565b5b60006200071085828601620006cf565b92505060206200072385828601620006cf565b9150509250929050565b614337806200073d6000396000f3fe608060405234801561001057600080fd5b50600436106101735760003560e01c806347e63380116100de578063a22cb46511610097578063c87b56dd11610071578063c87b56dd14610482578063cfc86f7b146104b2578063d547741f146104d0578063e985e9c5146104ec57610173565b8063a22cb4651461041a578063ac9eab5614610436578063b88d4fde1461046657610173565b806347e63380146103305780636352211e1461034e57806370a082311461037e57806391d14854146103ae57806395d89b41146103de578063a217fddf146103fc57610173565b806323b872dd1161013057806323b872dd14610260578063248a9ca31461027c5780632f2ff15d146102ac57806336568abe146102c85780633bb3a24d146102e457806342842e0e1461031457610173565b806301ffc9a71461017857806303fe46ab146101a857806306fdde03146101c6578063081812fc146101e4578063095ea7b3146102145780630bb78ec114610230575b600080fd5b610192600480360381019061018d919061257b565b61051c565b60405161019f91906125c3565b60405180910390f35b6101b061052e565b6040516101bd91906125f7565b60405180910390f35b6101ce610552565b6040516101db91906126a2565b60405180910390f35b6101fe60048036038101906101f991906126fa565b6105e4565b60405161020b9190612768565b60405180910390f35b61022e600480360381019061022991906127af565b61062a565b005b61024a600480360381019061024591906126fa565b610741565b60405161025791906126a2565b60405180910390f35b61027a600480360381019061027591906127ef565b6107e1565b005b6102966004803603810190610291919061286e565b610841565b6040516102a391906125f7565b60405180910390f35b6102c660048036038101906102c1919061289b565b610861565b005b6102e260048036038101906102dd919061289b565b610882565b005b6102fe60048036038101906102f991906126fa565b610905565b60405161030b91906126a2565b60405180910390f35b61032e600480360381019061032991906127ef565b6109aa565b005b6103386109ca565b60405161034591906125f7565b60405180910390f35b610368600480360381019061036391906126fa565b6109ee565b6040516103759190612768565b60405180910390f35b610398600480360381019061039391906128db565b610a74565b6040516103a59190612917565b60405180910390f35b6103c860048036038101906103c3919061289b565b610b2b565b6040516103d591906125c3565b60405180910390f35b6103e6610b96565b6040516103f391906126a2565b60405180910390f35b610404610c28565b60405161041191906125f7565b60405180910390f35b610434600480360381019061042f919061295e565b610c2f565b005b610450600480360381019061044b91906126fa565b610c45565b60405161045d91906126a2565b60405180910390f35b610480600480360381019061047b9190612ad3565b610e14565b005b61049c600480360381019061049791906126fa565b610e76565b6040516104a991906126a2565b60405180910390f35b6104ba610f88565b6040516104c791906126a2565b60405180910390f35b6104ea60048036038101906104e5919061289b565b611016565b005b61050660048036038101906105019190612b56565b611037565b60405161051391906125c3565b60405180910390f35b6000610527826110cb565b9050919050565b7f364d3d7565c7a8300c96fd53e065d19b65848d7b23b3191adcd55621c744223c81565b60606000805461056190612bc5565b80601f016020809104026020016040519081016040528092919081815260200182805461058d90612bc5565b80156105da5780601f106105af576101008083540402835291602001916105da565b820191906000526020600020905b8154815290600101906020018083116105bd57829003601f168201915b5050505050905090565b60006105ef82611145565b6004600083815260200190815260200160002060009054906101000a900473ffffffffffffffffffffffffffffffffffffffff169050919050565b6000610635826109ee565b90508073ffffffffffffffffffffffffffffffffffffffff168373ffffffffffffffffffffffffffffffffffffffff16036106a5576040517f08c379a000000000000000000000000000000000000000000000000000000000815260040161069c90612c68565b60405180910390fd5b8073ffffffffffffffffffffffffffffffffffffffff166106c4611190565b73ffffffffffffffffffffffffffffffffffffffff1614806106f357506106f2816106ed611190565b611037565b5b610732576040517f08c379a000000000000000000000000000000000000000000000000000000000815260040161072990612cfa565b60405180910390fd5b61073c8383611198565b505050565b6009602052806000526040600020600091509050805461076090612bc5565b80601f016020809104026020016040519081016040528092919081815260200182805461078c90612bc5565b80156107d95780601f106107ae576101008083540402835291602001916107d9565b820191906000526020600020905b8154815290600101906020018083116107bc57829003601f168201915b505050505081565b6107f26107ec611190565b82611251565b610831576040517f08c379a000000000000000000000000000000000000000000000000000000000815260040161082890612d8c565b60405180910390fd5b61083c8383836112e6565b505050565b600060076000838152602001908152602001600020600101549050919050565b61086a82610841565b610873816115df565b61087d83836115f3565b505050565b61088a611190565b73ffffffffffffffffffffffffffffffffffffffff168173ffffffffffffffffffffffffffffffffffffffff16146108f7576040517f08c379a00000000000000000000000000000000000000000000000000000000081526004016108ee90612e1e565b60405180910390fd5b61090182826116d4565b5050565b606060096000838152602001908152602001600020805461092590612bc5565b80601f016020809104026020016040519081016040528092919081815260200182805461095190612bc5565b801561099e5780601f106109735761010080835404028352916020019161099e565b820191906000526020600020905b81548152906001019060200180831161098157829003601f168201915b50505050509050919050565b6109c583838360405180602001604052806000815250610e14565b505050565b7f73e573f9566d61418a34d5de3ff49360f9c51fec37f7486551670290f6285dab81565b6000806109fa836117b6565b9050600073ffffffffffffffffffffffffffffffffffffffff168173ffffffffffffffffffffffffffffffffffffffff1603610a6b576040517f08c379a0000000000000000000000000000000000000000000000000000000008152600401610a6290612e8a565b60405180910390fd5b80915050919050565b60008073ffffffffffffffffffffffffffffffffffffffff168273ffffffffffffffffffffffffffffffffffffffff1603610ae4576040517f08c379a0000000000000000000000000000000000000000000000000000000008152600401610adb90612f1c565b60405180910390fd5b600360008373ffffffffffffffffffffffffffffffffffffffff1673ffffffffffffffffffffffffffffffffffffffff168152602001908152602001600020549050919050565b60006007600084815260200190815260200160002060000160008373ffffffffffffffffffffffffffffffffffffffff1673ffffffffffffffffffffffffffffffffffffffff16815260200190815260200160002060009054906101000a900460ff16905092915050565b606060018054610ba590612bc5565b80601f0160208091040260200160405190810160405280929190818152602001828054610bd190612bc5565b8015610c1e5780601f10610bf357610100808354040283529160200191610c1e565b820191906000526020600020905b815481529060010190602001808311610c0157829003601f168201915b5050505050905090565b6000801b81565b610c41610c3a611190565b83836117f3565b5050565b60606000600a60009054906101000a900473ffffffffffffffffffffffffffffffffffffffff1673ffffffffffffffffffffffffffffffffffffffff1663f25c8077846040518263ffffffff1660e01b8152600401610ca49190612917565b600060405180830381865afa158015610cc1573d6000803e3d6000fd5b505050506040513d6000823e3d601f19601f82011682018060405250810190610cea9190613224565b90506000610da9610cfa8561195f565b60088460400151856060015186608001518760a001518861012001518960e001518a6101000151604051602001610d3898979695949392919061338d565b6040516020818303038152906040528460e001518561010001518661012001518760c00151610d6b89610140015161195f565b610d7e8a6020015163ffffffff1661195f565b604051602001610d959897969594939291906138db565b604051602081830303815290604052611a2d565b905080604051602001610dbc9190613a3e565b604051602081830303815290604052600960008681526020019081526020016000209081610dea9190613bf7565b5080604051602001610dfc9190613a3e565b60405160208183030381529060405292505050919050565b610e25610e1f611190565b83611251565b610e64576040517f08c379a0000000000000000000000000000000000000000000000000000000008152600401610e5b90612d8c565b60405180910390fd5b610e7084848484611b90565b50505050565b6060610e8182611145565b6000600660008481526020019081526020016000208054610ea190612bc5565b80601f0160208091040260200160405190810160405280929190818152602001828054610ecd90612bc5565b8015610f1a5780601f10610eef57610100808354040283529160200191610f1a565b820191906000526020600020905b815481529060010190602001808311610efd57829003601f168201915b505050505090506000610f2b611bec565b90506000815103610f40578192505050610f83565b600082511115610f75578082604051602001610f5d929190613cc9565b60405160208183030381529060405292505050610f83565b610f7e84611c03565b925050505b919050565b60088054610f9590612bc5565b80601f0160208091040260200160405190810160405280929190818152602001828054610fc190612bc5565b801561100e5780601f10610fe35761010080835404028352916020019161100e565b820191906000526020600020905b815481529060010190602001808311610ff157829003601f168201915b505050505081565b61101f82610841565b611028816115df565b61103283836116d4565b505050565b6000600560008473ffffffffffffffffffffffffffffffffffffffff1673ffffffffffffffffffffffffffffffffffffffff16815260200190815260200160002060008373ffffffffffffffffffffffffffffffffffffffff1673ffffffffffffffffffffffffffffffffffffffff16815260200190815260200160002060009054906101000a900460ff16905092915050565b60007f7965db0b000000000000000000000000000000000000000000000000000000007bffffffffffffffffffffffffffffffffffffffffffffffffffffffff1916827bffffffffffffffffffffffffffffffffffffffffffffffffffffffff1916148061113e575061113d82611c6b565b5b9050919050565b61114e81611d4d565b61118d576040517f08c379a000000000000000000000000000000000000000000000000000000000815260040161118490612e8a565b60405180910390fd5b50565b600033905090565b816004600083815260200190815260200160002060006101000a81548173ffffffffffffffffffffffffffffffffffffffff021916908373ffffffffffffffffffffffffffffffffffffffff160217905550808273ffffffffffffffffffffffffffffffffffffffff1661120b836109ee565b73ffffffffffffffffffffffffffffffffffffffff167f8c5be1e5ebec7d5bd14f71427d1e84f3dd0314c0f7b2291e5b200ac8c7c3b92560405160405180910390a45050565b60008061125d836109ee565b90508073ffffffffffffffffffffffffffffffffffffffff168473ffffffffffffffffffffffffffffffffffffffff16148061129f575061129e8185611037565b5b806112dd57508373ffffffffffffffffffffffffffffffffffffffff166112c5846105e4565b73ffffffffffffffffffffffffffffffffffffffff16145b91505092915050565b8273ffffffffffffffffffffffffffffffffffffffff16611306826109ee565b73ffffffffffffffffffffffffffffffffffffffff161461135c576040517f08c379a000000000000000000000000000000000000000000000000000000000815260040161135390613d5f565b60405180910390fd5b600073ffffffffffffffffffffffffffffffffffffffff168273ffffffffffffffffffffffffffffffffffffffff16036113cb576040517f08c379a00000000000000000000000000000000000000000000000000000000081526004016113c290613df1565b60405180910390fd5b6113d88383836001611d8e565b8273ffffffffffffffffffffffffffffffffffffffff166113f8826109ee565b73ffffffffffffffffffffffffffffffffffffffff161461144e576040517f08c379a000000000000000000000000000000000000000000000000000000000815260040161144590613d5f565b60405180910390fd5b6004600082815260200190815260200160002060006101000a81549073ffffffffffffffffffffffffffffffffffffffff02191690556001600360008573ffffffffffffffffffffffffffffffffffffffff1673ffffffffffffffffffffffffffffffffffffffff168152602001908152602001600020600082825403925050819055506001600360008473ffffffffffffffffffffffffffffffffffffffff1673ffffffffffffffffffffffffffffffffffffffff16815260200190815260200160002060008282540192505081905550816002600083815260200190815260200160002060006101000a81548173ffffffffffffffffffffffffffffffffffffffff021916908373ffffffffffffffffffffffffffffffffffffffff160217905550808273ffffffffffffffffffffffffffffffffffffffff168473ffffffffffffffffffffffffffffffffffffffff167fddf252ad1be2c89b69c2b068fc378daa952ba7f163c4a11628f55a4df523b3ef60405160405180910390a46115da8383836001611eb4565b505050565b6115f0816115eb611190565b611eba565b50565b6115fd8282610b2b565b6116d05760016007600084815260200190815260200160002060000160008373ffffffffffffffffffffffffffffffffffffffff1673ffffffffffffffffffffffffffffffffffffffff16815260200190815260200160002060006101000a81548160ff021916908315150217905550611675611190565b73ffffffffffffffffffffffffffffffffffffffff168173ffffffffffffffffffffffffffffffffffffffff16837f2f8788117e7eff1d82e926ec794901d17c78024a50270940304540a733656f0d60405160405180910390a45b5050565b6116de8282610b2b565b156117b25760006007600084815260200190815260200160002060000160008373ffffffffffffffffffffffffffffffffffffffff1673ffffffffffffffffffffffffffffffffffffffff16815260200190815260200160002060006101000a81548160ff021916908315150217905550611757611190565b73ffffffffffffffffffffffffffffffffffffffff168173ffffffffffffffffffffffffffffffffffffffff16837ff6391f5c32d9c69d2a47ea670b442974b53935d1edc7fd64eb21e047a839171b60405160405180910390a45b5050565b60006002600083815260200190815260200160002060009054906101000a900473ffffffffffffffffffffffffffffffffffffffff169050919050565b8173ffffffffffffffffffffffffffffffffffffffff168373ffffffffffffffffffffffffffffffffffffffff1603611861576040517f08c379a000000000000000000000000000000000000000000000000000000000815260040161185890613e5d565b60405180910390fd5b80600560008573ffffffffffffffffffffffffffffffffffffffff1673ffffffffffffffffffffffffffffffffffffffff16815260200190815260200160002060008473ffffffffffffffffffffffffffffffffffffffff1673ffffffffffffffffffffffffffffffffffffffff16815260200190815260200160002060006101000a81548160ff0219169083151502179055508173ffffffffffffffffffffffffffffffffffffffff168373ffffffffffffffffffffffffffffffffffffffff167f17307eab39ab6107e8899845ad3d59bd9653f200f220920489ca2b5937696c318360405161195291906125c3565b60405180910390a3505050565b60606000600161196e84611f3f565b01905060008167ffffffffffffffff81111561198d5761198c6129a8565b5b6040519080825280601f01601f1916602001820160405280156119bf5781602001600182028036833780820191505090505b509050600082602001820190505b600115611a22578080600190039150507f3031323334353637383961626364656600000000000000000000000000000000600a86061a8153600a8581611a1657611a15613e7d565b5b049450600085036119cd575b819350505050919050565b60606000825103611a4f57604051806020016040528060008152509050611b8b565b60006040518060600160405280604081526020016142c26040913990506000600360028551611a7e9190613edb565b611a889190613f0f565b6004611a949190613f40565b67ffffffffffffffff811115611aad57611aac6129a8565b5b6040519080825280601f01601f191660200182016040528015611adf5781602001600182028036833780820191505090505b509050600182016020820185865187015b80821015611b4b576003820191508151603f8160121c168501518453600184019350603f81600c1c168501518453600184019350603f8160061c168501518453600184019350603f8116850151845360018401935050611af0565b5050600386510660018114611b675760028114611b7a57611b82565b603d6001830353603d6002830353611b82565b603d60018303535b50505080925050505b919050565b611b9b8484846112e6565b611ba784848484612092565b611be6576040517f08c379a0000000000000000000000000000000000000000000000000000000008152600401611bdd90613ff4565b60405180910390fd5b50505050565b606060405180602001604052806000815250905090565b6060611c0e82611145565b6000611c18611bec565b90506000815111611c385760405180602001604052806000815250611c63565b80611c428461195f565b604051602001611c53929190613cc9565b6040516020818303038152906040525b915050919050565b60007f80ac58cd000000000000000000000000000000000000000000000000000000007bffffffffffffffffffffffffffffffffffffffffffffffffffffffff1916827bffffffffffffffffffffffffffffffffffffffffffffffffffffffff19161480611d3657507f5b5e139f000000000000000000000000000000000000000000000000000000007bffffffffffffffffffffffffffffffffffffffffffffffffffffffff1916827bffffffffffffffffffffffffffffffffffffffffffffffffffffffff1916145b80611d465750611d4582612219565b5b9050919050565b60008073ffffffffffffffffffffffffffffffffffffffff16611d6f836117b6565b73ffffffffffffffffffffffffffffffffffffffff1614159050919050565b6001811115611eae57600073ffffffffffffffffffffffffffffffffffffffff168473ffffffffffffffffffffffffffffffffffffffff1614611e225780600360008673ffffffffffffffffffffffffffffffffffffffff1673ffffffffffffffffffffffffffffffffffffffff1681526020019081526020016000206000828254611e1a9190614014565b925050819055505b600073ffffffffffffffffffffffffffffffffffffffff168373ffffffffffffffffffffffffffffffffffffffff1614611ead5780600360008573ffffffffffffffffffffffffffffffffffffffff1673ffffffffffffffffffffffffffffffffffffffff1681526020019081526020016000206000828254611ea59190613edb565b925050819055505b5b50505050565b50505050565b611ec48282610b2b565b611f3b57611ed181612283565b611edf8360001c60206122b0565b604051602001611ef09291906140e0565b6040516020818303038152906040526040517f08c379a0000000000000000000000000000000000000000000000000000000008152600401611f3291906126a2565b60405180910390fd5b5050565b600080600090507a184f03e93ff9f4daa797ed6e38ed64bf6a1f0100000000000000008310611f9d577a184f03e93ff9f4daa797ed6e38ed64bf6a1f0100000000000000008381611f9357611f92613e7d565b5b0492506040810190505b6d04ee2d6d415b85acef81000000008310611fda576d04ee2d6d415b85acef81000000008381611fd057611fcf613e7d565b5b0492506020810190505b662386f26fc10000831061200957662386f26fc100008381611fff57611ffe613e7d565b5b0492506010810190505b6305f5e1008310612032576305f5e100838161202857612027613e7d565b5b0492506008810190505b612710831061205757612710838161204d5761204c613e7d565b5b0492506004810190505b6064831061207a57606483816120705761206f613e7d565b5b0492506002810190505b600a8310612089576001810190505b80915050919050565b60006120b38473ffffffffffffffffffffffffffffffffffffffff166124ec565b1561220c578373ffffffffffffffffffffffffffffffffffffffff1663150b7a026120dc611190565b8786866040518563ffffffff1660e01b81526004016120fe949392919061416f565b6020604051808303816000875af192505050801561213a57506040513d601f19601f8201168201806040525081019061213791906141d0565b60015b6121bc573d806000811461216a576040519150601f19603f3d011682016040523d82523d6000602084013e61216f565b606091505b5060008151036121b4576040517f08c379a00000000000000000000000000000000000000000000000000000000081526004016121ab90613ff4565b60405180910390fd5b805181602001fd5b63150b7a0260e01b7bffffffffffffffffffffffffffffffffffffffffffffffffffffffff1916817bffffffffffffffffffffffffffffffffffffffffffffffffffffffff191614915050612211565b600190505b949350505050565b60007f01ffc9a7000000000000000000000000000000000000000000000000000000007bffffffffffffffffffffffffffffffffffffffffffffffffffffffff1916827bffffffffffffffffffffffffffffffffffffffffffffffffffffffff1916149050919050565b60606122a98273ffffffffffffffffffffffffffffffffffffffff16601460ff166122b0565b9050919050565b6060600060028360026122c39190613f40565b6122cd9190613edb565b67ffffffffffffffff8111156122e6576122e56129a8565b5b6040519080825280601f01601f1916602001820160405280156123185781602001600182028036833780820191505090505b5090507f3000000000000000000000000000000000000000000000000000000000000000816000815181106123505761234f6141fd565b5b60200101907effffffffffffffffffffffffffffffffffffffffffffffffffffffffffffff1916908160001a9053507f7800000000000000000000000000000000000000000000000000000000000000816001815181106123b4576123b36141fd565b5b60200101907effffffffffffffffffffffffffffffffffffffffffffffffffffffffffffff1916908160001a905350600060018460026123f49190613f40565b6123fe9190613edb565b90505b600181111561249e577f3031323334353637383961626364656600000000000000000000000000000000600f8616601081106124405761243f6141fd565b5b1a60f81b828281518110612457576124566141fd565b5b60200101907effffffffffffffffffffffffffffffffffffffffffffffffffffffffffffff1916908160001a905350600485901c9450806124979061422c565b9050612401565b50600084146124e2576040517f08c379a00000000000000000000000000000000000000000000000000000000081526004016124d9906142a1565b60405180910390fd5b8091505092915050565b6000808273ffffffffffffffffffffffffffffffffffffffff163b119050919050565b6000604051905090565b600080fd5b600080fd5b60007fffffffff0000000000000000000000000000000000000000000000000000000082169050919050565b61255881612523565b811461256357600080fd5b50565b6000813590506125758161254f565b92915050565b60006020828403121561259157612590612519565b5b600061259f84828501612566565b91505092915050565b60008115159050919050565b6125bd816125a8565b82525050565b60006020820190506125d860008301846125b4565b92915050565b6000819050919050565b6125f1816125de565b82525050565b600060208201905061260c60008301846125e8565b92915050565b600081519050919050565b600082825260208201905092915050565b60005b8381101561264c578082015181840152602081019050612631565b60008484015250505050565b6000601f19601f8301169050919050565b600061267482612612565b61267e818561261d565b935061268e81856020860161262e565b61269781612658565b840191505092915050565b600060208201905081810360008301526126bc8184612669565b905092915050565b6000819050919050565b6126d7816126c4565b81146126e257600080fd5b50565b6000813590506126f4816126ce565b92915050565b6000602082840312156127105761270f612519565b5b600061271e848285016126e5565b91505092915050565b600073ffffffffffffffffffffffffffffffffffffffff82169050919050565b600061275282612727565b9050919050565b61276281612747565b82525050565b600060208201905061277d6000830184612759565b92915050565b61278c81612747565b811461279757600080fd5b50565b6000813590506127a981612783565b92915050565b600080604083850312156127c6576127c5612519565b5b60006127d48582860161279a565b92505060206127e5858286016126e5565b9150509250929050565b60008060006060848603121561280857612807612519565b5b60006128168682870161279a565b93505060206128278682870161279a565b9250506040612838868287016126e5565b9150509250925092565b61284b816125de565b811461285657600080fd5b50565b60008135905061286881612842565b92915050565b60006020828403121561288457612883612519565b5b600061289284828501612859565b91505092915050565b600080604083850312156128b2576128b1612519565b5b60006128c085828601612859565b92505060206128d18582860161279a565b9150509250929050565b6000602082840312156128f1576128f0612519565b5b60006128ff8482850161279a565b91505092915050565b612911816126c4565b82525050565b600060208201905061292c6000830184612908565b92915050565b61293b816125a8565b811461294657600080fd5b50565b60008135905061295881612932565b92915050565b6000806040838503121561297557612974612519565b5b60006129838582860161279a565b925050602061299485828601612949565b9150509250929050565b600080fd5b600080fd5b7f4e487b7100000000000000000000000000000000000000000000000000000000600052604160045260246000fd5b6129e082612658565b810181811067ffffffffffffffff821117156129ff576129fe6129a8565b5b80604052505050565b6000612a1261250f565b9050612a1e82826129d7565b919050565b600067ffffffffffffffff821115612a3e57612a3d6129a8565b5b612a4782612658565b9050602081019050919050565b82818337600083830152505050565b6000612a76612a7184612a23565b612a08565b905082815260208101848484011115612a9257612a916129a3565b5b612a9d848285612a54565b509392505050565b600082601f830112612aba57612ab961299e565b5b8135612aca848260208601612a63565b91505092915050565b60008060008060808587031215612aed57612aec612519565b5b6000612afb8782880161279a565b9450506020612b0c8782880161279a565b9350506040612b1d878288016126e5565b925050606085013567ffffffffffffffff811115612b3e57612b3d61251e565b5b612b4a87828801612aa5565b91505092959194509250565b60008060408385031215612b6d57612b6c612519565b5b6000612b7b8582860161279a565b9250506020612b8c8582860161279a565b9150509250929050565b7f4e487b7100000000000000000000000000000000000000000000000000000000600052602260045260246000fd5b60006002820490506001821680612bdd57607f821691505b602082108103612bf057612bef612b96565b5b50919050565b7f4552433732313a20617070726f76616c20746f2063757272656e74206f776e6560008201527f7200000000000000000000000000000000000000000000000000000000000000602082015250565b6000612c5260218361261d565b9150612c5d82612bf6565b604082019050919050565b60006020820190508181036000830152612c8181612c45565b9050919050565b7f4552433732313a20617070726f76652063616c6c6572206973206e6f7420746f60008201527f6b656e206f776e6572206f7220617070726f76656420666f7220616c6c000000602082015250565b6000612ce4603d8361261d565b9150612cef82612c88565b604082019050919050565b60006020820190508181036000830152612d1381612cd7565b9050919050565b7f4552433732313a2063616c6c6572206973206e6f7420746f6b656e206f776e6560008201527f72206f7220617070726f76656400000000000000000000000000000000000000602082015250565b6000612d76602d8361261d565b9150612d8182612d1a565b604082019050919050565b60006020820190508181036000830152612da581612d69565b9050919050565b7f416363657373436f6e74726f6c3a2063616e206f6e6c792072656e6f756e636560008201527f20726f6c657320666f722073656c660000000000000000000000000000000000602082015250565b6000612e08602f8361261d565b9150612e1382612dac565b604082019050919050565b60006020820190508181036000830152612e3781612dfb565b9050919050565b7f4552433732313a20696e76616c696420746f6b656e2049440000000000000000600082015250565b6000612e7460188361261d565b9150612e7f82612e3e565b602082019050919050565b60006020820190508181036000830152612ea381612e67565b9050919050565b7f4552433732313a2061646472657373207a65726f206973206e6f74206120766160008201527f6c6964206f776e65720000000000000000000000000000000000000000000000602082015250565b6000612f0660298361261d565b9150612f1182612eaa565b604082019050919050565b60006020820190508181036000830152612f3581612ef9565b9050919050565b600080fd5b600080fd5b600081519050612f55816126ce565b92915050565b600063ffffffff82169050919050565b612f7481612f5b565b8114612f7f57600080fd5b50565b600081519050612f9181612f6b565b92915050565b600067ffffffffffffffff821115612fb257612fb16129a8565b5b612fbb82612658565b9050602081019050919050565b6000612fdb612fd684612f97565b612a08565b905082815260208101848484011115612ff757612ff66129a3565b5b61300284828561262e565b509392505050565b600082601f83011261301f5761301e61299e565b5b815161302f848260208601612fc8565b91505092915050565b6000610160828403121561304f5761304e612f3c565b5b61305a610160612a08565b9050600061306a84828501612f46565b600083015250602061307e84828501612f82565b602083015250604082015167ffffffffffffffff8111156130a2576130a1612f41565b5b6130ae8482850161300a565b604083015250606082015167ffffffffffffffff8111156130d2576130d1612f41565b5b6130de8482850161300a565b606083015250608082015167ffffffffffffffff81111561310257613101612f41565b5b61310e8482850161300a565b60808301525060a082015167ffffffffffffffff81111561313257613131612f41565b5b61313e8482850161300a565b60a08301525060c082015167ffffffffffffffff81111561316257613161612f41565b5b61316e8482850161300a565b60c08301525060e082015167ffffffffffffffff81111561319257613191612f41565b5b61319e8482850161300a565b60e08301525061010082015167ffffffffffffffff8111156131c3576131c2612f41565b5b6131cf8482850161300a565b6101008301525061012082015167ffffffffffffffff8111156131f5576131f4612f41565b5b6132018482850161300a565b6101208301525061014061321784828501612f46565b6101408301525092915050565b60006020828403121561323a57613239612519565b5b600082015167ffffffffffffffff8111156132585761325761251e565b5b61326484828501613038565b91505092915050565b600081905092915050565b60008190508160005260206000209050919050565b6000815461329a81612bc5565b6132a4818661326d565b945060018216600081146132bf57600181146132d457613307565b60ff1983168652811515820286019350613307565b6132dd85613278565b60005b838110156132ff578154818901526001820191506020810190506132e0565b838801955050505b50505092915050565b600061331b82612612565b613325818561326d565b935061333581856020860161262e565b80840191505092915050565b7f2f00000000000000000000000000000000000000000000000000000000000000600082015250565b600061337760018361326d565b915061338282613341565b600182019050919050565b6000613399828b61328d565b91506133a5828a613310565b91506133b08261336a565b91506133bc8289613310565b91506133c78261336a565b91506133d38288613310565b91506133de8261336a565b91506133ea8287613310565b91506133f58261336a565b91506134018286613310565b915061340c8261336a565b91506134188285613310565b91506134238261336a565b915061342f8284613310565b91508190509998505050505050505050565b7f7b226e616d65223a20224d757368726f6f6d2023000000000000000000000000600082015250565b600061347760148361326d565b915061348282613441565b601482019050919050565b7f222c20226465736372697074696f6e223a20224d616c6963696f7573204d757360008201527f68726f6f6d732052617772222c2022696d616765223a20220000000000000000602082015250565b60006134e960388361326d565b91506134f48261348d565b603882019050919050565b7f222c202261747472696275746573223a205b0000000000000000000000000000600082015250565b600061353560128361326d565b9150613540826134ff565b601282019050919050565b7f7b2274726169745f74797065223a2022576561706f6e222c202276616c75652260008201527f3a20220000000000000000000000000000000000000000000000000000000000602082015250565b60006135a760238361326d565b91506135b28261354b565b602382019050919050565b7f227d2c0000000000000000000000000000000000000000000000000000000000600082015250565b60006135f360038361326d565b91506135fe826135bd565b600382019050919050565b7f7b2274726169745f74797065223a202241726d6f72222c202276616c7565223a60008201527f2022000000000000000000000000000000000000000000000000000000000000602082015250565b600061366560228361326d565b915061367082613609565b602282019050919050565b7f7b2274726169745f74797065223a20224163636573736f7279222c202276616c60008201527f7565223a20220000000000000000000000000000000000000000000000000000602082015250565b60006136d760268361326d565b91506136e28261367b565b602682019050919050565b7f7b2274726169745f74797065223a2022456c656d656e74222c202276616c756560008201527f223a202200000000000000000000000000000000000000000000000000000000602082015250565b600061374960248361326d565b9150613754826136ed565b602482019050919050565b7f7b2274726169745f74797065223a20224c6576656c222c202276616c7565223a60008201527f2000000000000000000000000000000000000000000000000000000000000000602082015250565b60006137bb60218361326d565b91506137c68261375f565b602182019050919050565b7f7d2c000000000000000000000000000000000000000000000000000000000000600082015250565b600061380760028361326d565b9150613812826137d1565b600282019050919050565b7f7b2274726169745f74797065223a202253706f726573222c202276616c75652260008201527f3a20000000000000000000000000000000000000000000000000000000000000602082015250565b600061387960228361326d565b91506138848261381d565b602282019050919050565b7f7d5d7d0000000000000000000000000000000000000000000000000000000000600082015250565b60006138c560038361326d565b91506138d08261388f565b600382019050919050565b60006138e68261346a565b91506138f2828b613310565b91506138fd826134dc565b9150613909828a613310565b915061391482613528565b915061391f8261359a565b915061392b8289613310565b9150613936826135e6565b915061394182613658565b915061394d8288613310565b9150613958826135e6565b9150613963826136ca565b915061396f8287613310565b915061397a826135e6565b91506139858261373c565b91506139918286613310565b915061399c826135e6565b91506139a7826137ae565b91506139b38285613310565b91506139be826137fa565b91506139c98261386c565b91506139d58284613310565b91506139e0826138b8565b91508190509998505050505050505050565b7f646174613a6170706c69636174696f6e2f6a736f6e3b6261736536342c000000600082015250565b6000613a28601d8361326d565b9150613a33826139f2565b601d82019050919050565b6000613a4982613a1b565b9150613a558284613310565b915081905092915050565b60006020601f8301049050919050565b600082821b905092915050565b600060088302613aad7fffffffffffffffffffffffffffffffffffffffffffffffffffffffffffffffff82613a70565b613ab78683613a70565b95508019841693508086168417925050509392505050565b6000819050919050565b6000613af4613aef613aea846126c4565b613acf565b6126c4565b9050919050565b6000819050919050565b613b0e83613ad9565b613b22613b1a82613afb565b848454613a7d565b825550505050565b600090565b613b37613b2a565b613b42818484613b05565b505050565b5b81811015613b6657613b5b600082613b2f565b600181019050613b48565b5050565b601f821115613bab57613b7c81613278565b613b8584613a60565b81016020851015613b94578190505b613ba8613ba085613a60565b830182613b47565b50505b505050565b600082821c905092915050565b6000613bce60001984600802613bb0565b1980831691505092915050565b6000613be78383613bbd565b9150826002028217905092915050565b613c0082612612565b67ffffffffffffffff811115613c1957613c186129a8565b5b613c238254612bc5565b613c2e828285613b6a565b600060209050601f831160018114613c615760008415613c4f578287015190505b613c598582613bdb565b865550613cc1565b601f198416613c6f86613278565b60005b82811015613c9757848901518255600182019150602085019450602081019050613c72565b86831015613cb45784890151613cb0601f891682613bbd565b8355505b6001600288020188555050505b505050505050565b6000613cd58285613310565b9150613ce18284613310565b91508190509392505050565b7f4552433732313a207472616e736665722066726f6d20696e636f72726563742060008201527f6f776e6572000000000000000000000000000000000000000000000000000000602082015250565b6000613d4960258361261d565b9150613d5482613ced565b604082019050919050565b60006020820190508181036000830152613d7881613d3c565b9050919050565b7f4552433732313a207472616e7366657220746f20746865207a65726f2061646460008201527f7265737300000000000000000000000000000000000000000000000000000000602082015250565b6000613ddb60248361261d565b9150613de682613d7f565b604082019050919050565b60006020820190508181036000830152613e0a81613dce565b9050919050565b7f4552433732313a20617070726f766520746f2063616c6c657200000000000000600082015250565b6000613e4760198361261d565b9150613e5282613e11565b602082019050919050565b60006020820190508181036000830152613e7681613e3a565b9050919050565b7f4e487b7100000000000000000000000000000000000000000000000000000000600052601260045260246000fd5b7f4e487b7100000000000000000000000000000000000000000000000000000000600052601160045260246000fd5b6000613ee6826126c4565b9150613ef1836126c4565b9250828201905080821115613f0957613f08613eac565b5b92915050565b6000613f1a826126c4565b9150613f25836126c4565b925082613f3557613f34613e7d565b5b828204905092915050565b6000613f4b826126c4565b9150613f56836126c4565b9250828202613f64816126c4565b91508282048414831517613f7b57613f7a613eac565b5b5092915050565b7f4552433732313a207472616e7366657220746f206e6f6e20455243373231526560008201527f63656976657220696d706c656d656e7465720000000000000000000000000000602082015250565b6000613fde60328361261d565b9150613fe982613f82565b604082019050919050565b6000602082019050818103600083015261400d81613fd1565b9050919050565b600061401f826126c4565b915061402a836126c4565b925082820390508181111561404257614041613eac565b5b92915050565b7f416363657373436f6e74726f6c3a206163636f756e7420000000000000000000600082015250565b600061407e60178361326d565b915061408982614048565b601782019050919050565b7f206973206d697373696e6720726f6c6520000000000000000000000000000000600082015250565b60006140ca60118361326d565b91506140d582614094565b601182019050919050565b60006140eb82614071565b91506140f78285613310565b9150614102826140bd565b915061410e8284613310565b91508190509392505050565b600081519050919050565b600082825260208201905092915050565b60006141418261411a565b61414b8185614125565b935061415b81856020860161262e565b61416481612658565b840191505092915050565b60006080820190506141846000830187612759565b6141916020830186612759565b61419e6040830185612908565b81810360608301526141b08184614136565b905095945050505050565b6000815190506141ca8161254f565b92915050565b6000602082840312156141e6576141e5612519565b5b60006141f4848285016141bb565b91505092915050565b7f4e487b7100000000000000000000000000000000000000000000000000000000600052603260045260246000fd5b6000614237826126c4565b91506000820361424a57614249613eac565b5b600182039050919050565b7f537472696e67733a20686578206c656e67746820696e73756666696369656e74600082015250565b600061428b60208361261d565b915061429682614255565b602082019050919050565b600060208201905081810360008301526142ba8161427e565b905091905056fe4142434445464748494a4b4c4d4e4f505152535455565758595a6162636465666768696a6b6c6d6e6f707172737475767778797a303132333435363738392b2fa2646970667358221220502feadce00922c203301757aace531ba2a25c5ffd8c2244422413ec3ff7d64364736f6c6343000811003368747470733a2f2f6d616c6963696f75736d757368726f6f6d732e636f6d2f696d616765732f",
  "linkReferences": {},
  "deployedLinkReferences": {}
}