{
  "_format": "hh-sol-artifact-1",
  "contractName": "TokenURI",
  "sourceName": "contracts/TokenURI.sol",
  "abi": [
    {
      "inputs": [
        {
          "internalType": "address",
          "name": "admin",
          "type": "address"
        },
        {
          "internalType": "address",
          "name": "M1ContractAddress",
          "type": "address"
        }
      ],
      "stateMutability": "nonpayable",
      "type": "constructor"
    },
    {
      "anonymous": false,
      "inputs": [
        {
          "indexed": true,
          "internalType": "address",
          "name": "owner",
          "type": "address"
        },
        {
          "indexed": true,
          "internalType": "address",
          "name": "approved",
          "type": "address"
        },
        {
          "indexed": true,
          "internalType": "uint256",
          "name": "tokenId",
          "type": "uint256"
        }
      ],
      "name": "Approval",
      "type": "event"
    },
    {
      "anonymous": false,
      "inputs": [
        {
          "indexed": true,
          "internalType": "address",
          "name": "owner",
          "type": "address"
        },
        {
          "indexed": true,
          "internalType": "address",
          "name": "operator",
          "type": "address"
        },
        {
          "indexed": false,
          "internalType": "bool",
          "name": "approved",
          "type": "bool"
        }
      ],
      "name": "ApprovalForAll",
      "type": "event"
    },
    {
      "anonymous": false,
      "inputs": [
        {
          "indexed": true,
          "internalType": "bytes32",
          "name": "role",
          "type": "bytes32"
        },
        {
          "indexed": true,
          "internalType": "bytes32",
          "name": "previousAdminRole",
          "type": "bytes32"
        },
        {
          "indexed": true,
          "internalType": "bytes32",
          "name": "newAdminRole",
          "type": "bytes32"
        }
      ],
      "name": "RoleAdminChanged",
      "type": "event"
    },
    {
      "anonymous": false,
      "inputs": [
        {
          "indexed": true,
          "internalType": "bytes32",
          "name": "role",
          "type": "bytes32"
        },
        {
          "indexed": true,
          "internalType": "address",
          "name": "account",
          "type": "address"
        },
        {
          "indexed": true,
          "internalType": "address",
          "name": "sender",
          "type": "address"
        }
      ],
      "name": "RoleGranted",
      "type": "event"
    },
    {
      "anonymous": false,
      "inputs": [
        {
          "indexed": true,
          "internalType": "bytes32",
          "name": "role",
          "type": "bytes32"
        },
        {
          "indexed": true,
          "internalType": "address",
          "name": "account",
          "type": "address"
        },
        {
          "indexed": true,
          "internalType": "address",
          "name": "sender",
          "type": "address"
        }
      ],
      "name": "RoleRevoked",
      "type": "event"
    },
    {
      "anonymous": false,
      "inputs": [
        {
          "indexed": true,
          "internalType": "address",
          "name": "from",
          "type": "address"
        },
        {
          "indexed": true,
          "internalType": "address",
          "name": "to",
          "type": "address"
        },
        {
          "indexed": true,
          "internalType": "uint256",
          "name": "tokenId",
          "type": "uint256"
        }
      ],
      "name": "Transfer",
      "type": "event"
    },
    {
      "inputs": [],
      "name": "CONTRACT_ROLE",
      "outputs": [
        {
          "internalType": "bytes32",
          "name": "",
          "type": "bytes32"
        }
      ],
      "stateMutability": "view",
      "type": "function"
    },
    {
      "inputs": [],
      "name": "DEFAULT_ADMIN_ROLE",
      "outputs": [
        {
          "internalType": "bytes32",
          "name": "",
          "type": "bytes32"
        }
      ],
      "stateMutability": "view",
      "type": "function"
    },
    {
      "inputs": [],
      "name": "UPDATER_ROLE",
      "outputs": [
        {
          "internalType": "bytes32",
          "name": "",
          "type": "bytes32"
        }
      ],
      "stateMutability": "view",
      "type": "function"
    },
    {
      "inputs": [],
      "name": "_baseTokenURI",
      "outputs": [
        {
          "internalType": "string",
          "name": "",
          "type": "string"
        }
      ],
      "stateMutability": "view",
      "type": "function"
    },
    {
      "inputs": [
        {
          "internalType": "uint256",
          "name": "",
          "type": "uint256"
        }
      ],
      "name": "_tokenURIs",
      "outputs": [
        {
          "internalType": "string",
          "name": "",
          "type": "string"
        }
      ],
      "stateMutability": "view",
      "type": "function"
    },
    {
      "inputs": [
        {
          "internalType": "address",
          "name": "to",
          "type": "address"
        },
        {
          "internalType": "uint256",
          "name": "tokenId",
          "type": "uint256"
        }
      ],
      "name": "approve",
      "outputs": [],
      "stateMutability": "nonpayable",
      "type": "function"
    },
    {
      "inputs": [
        {
          "internalType": "address",
          "name": "owner",
          "type": "address"
        }
      ],
      "name": "balanceOf",
      "outputs": [
        {
          "internalType": "uint256",
          "name": "",
          "type": "uint256"
        }
      ],
      "stateMutability": "view",
      "type": "function"
    },
    {
      "inputs": [
        {
          "internalType": "uint256",
          "name": "tokenId",
          "type": "uint256"
        }
      ],
      "name": "getApproved",
      "outputs": [
        {
          "internalType": "address",
          "name": "",
          "type": "address"
        }
      ],
      "stateMutability": "view",
      "type": "function"
    },
    {
      "inputs": [
        {
          "internalType": "bytes32",
          "name": "role",
          "type": "bytes32"
        }
      ],
      "name": "getRoleAdmin",
      "outputs": [
        {
          "internalType": "bytes32",
          "name": "",
          "type": "bytes32"
        }
      ],
      "stateMutability": "view",
      "type": "function"
    },
    {
      "inputs": [
        {
          "internalType": "uint256",
          "name": "_tokenId",
          "type": "uint256"
        }
      ],
      "name": "getTokenURI",
      "outputs": [
        {
          "internalType": "string",
          "name": "",
          "type": "string"
        }
      ],
      "stateMutability": "view",
      "type": "function"
    },
    {
      "inputs": [
        {
          "internalType": "bytes32",
          "name": "role",
          "type": "bytes32"
        },
        {
          "internalType": "address",
          "name": "account",
          "type": "address"
        }
      ],
      "name": "grantRole",
      "outputs": [],
      "stateMutability": "nonpayable",
      "type": "function"
    },
    {
      "inputs": [
        {
          "internalType": "bytes32",
          "name": "role",
          "type": "bytes32"
        },
        {
          "internalType": "address",
          "name": "account",
          "type": "address"
        }
      ],
      "name": "hasRole",
      "outputs": [
        {
          "internalType": "bool",
          "name": "",
          "type": "bool"
        }
      ],
      "stateMutability": "view",
      "type": "function"
    },
    {
      "inputs": [
        {
          "internalType": "address",
          "name": "owner",
          "type": "address"
        },
        {
          "internalType": "address",
          "name": "operator",
          "type": "address"
        }
      ],
      "name": "isApprovedForAll",
      "outputs": [
        {
          "internalType": "bool",
          "name": "",
          "type": "bool"
        }
      ],
      "stateMutability": "view",
      "type": "function"
    },
    {
      "inputs": [
        {
          "internalType": "uint256",
          "name": "_tokenId",
          "type": "uint256"
        }
      ],
      "name": "makeTokenURI",
      "outputs": [
        {
          "internalType": "string",
          "name": "",
          "type": "string"
        }
      ],
      "stateMutability": "view",
      "type": "function"
    },
    {
      "inputs": [],
      "name": "name",
      "outputs": [
        {
          "internalType": "string",
          "name": "",
          "type": "string"
        }
      ],
      "stateMutability": "view",
      "type": "function"
    },
    {
      "inputs": [
        {
          "internalType": "uint256",
          "name": "tokenId",
          "type": "uint256"
        }
      ],
      "name": "ownerOf",
      "outputs": [
        {
          "internalType": "address",
          "name": "",
          "type": "address"
        }
      ],
      "stateMutability": "view",
      "type": "function"
    },
    {
      "inputs": [
        {
          "internalType": "bytes32",
          "name": "role",
          "type": "bytes32"
        },
        {
          "internalType": "address",
          "name": "account",
          "type": "address"
        }
      ],
      "name": "renounceRole",
      "outputs": [],
      "stateMutability": "nonpayable",
      "type": "function"
    },
    {
      "inputs": [
        {
          "internalType": "bytes32",
          "name": "role",
          "type": "bytes32"
        },
        {
          "internalType": "address",
          "name": "account",
          "type": "address"
        }
      ],
      "name": "revokeRole",
      "outputs": [],
      "stateMutability": "nonpayable",
      "type": "function"
    },
    {
      "inputs": [
        {
          "internalType": "address",
          "name": "from",
          "type": "address"
        },
        {
          "internalType": "address",
          "name": "to",
          "type": "address"
        },
        {
          "internalType": "uint256",
          "name": "tokenId",
          "type": "uint256"
        }
      ],
      "name": "safeTransferFrom",
      "outputs": [],
      "stateMutability": "nonpayable",
      "type": "function"
    },
    {
      "inputs": [
        {
          "internalType": "address",
          "name": "from",
          "type": "address"
        },
        {
          "internalType": "address",
          "name": "to",
          "type": "address"
        },
        {
          "internalType": "uint256",
          "name": "tokenId",
          "type": "uint256"
        },
        {
          "internalType": "bytes",
          "name": "data",
          "type": "bytes"
        }
      ],
      "name": "safeTransferFrom",
      "outputs": [],
      "stateMutability": "nonpayable",
      "type": "function"
    },
    {
      "inputs": [
        {
          "internalType": "address",
          "name": "operator",
          "type": "address"
        },
        {
          "internalType": "bool",
          "name": "approved",
          "type": "bool"
        }
      ],
      "name": "setApprovalForAll",
      "outputs": [],
      "stateMutability": "nonpayable",
      "type": "function"
    },
    {
      "inputs": [
        {
          "internalType": "bytes4",
          "name": "interfaceId",
          "type": "bytes4"
        }
      ],
      "name": "supportsInterface",
      "outputs": [
        {
          "internalType": "bool",
          "name": "",
          "type": "bool"
        }
      ],
      "stateMutability": "view",
      "type": "function"
    },
    {
      "inputs": [],
      "name": "symbol",
      "outputs": [
        {
          "internalType": "string",
          "name": "",
          "type": "string"
        }
      ],
      "stateMutability": "view",
      "type": "function"
    },
    {
      "inputs": [
        {
          "internalType": "uint256",
          "name": "tokenId",
          "type": "uint256"
        }
      ],
      "name": "tokenURI",
      "outputs": [
        {
          "internalType": "string",
          "name": "",
          "type": "string"
        }
      ],
      "stateMutability": "view",
      "type": "function"
    },
    {
      "inputs": [
        {
          "internalType": "address",
          "name": "from",
          "type": "address"
        },
        {
          "internalType": "address",
          "name": "to",
          "type": "address"
        },
        {
          "internalType": "uint256",
          "name": "tokenId",
          "type": "uint256"
        }
      ],
      "name": "transferFrom",
      "outputs": [],
      "stateMutability": "nonpayable",
      "type": "function"
    }
  ],
  "bytecode": "0x60806040526040518060600160405280602881526020016200482260289139600890816200002e919062000595565b503480156200003c57600080fd5b506040516200484a3803806200484a8339818101604052810190620000629190620006e6565b6040518060400160405280600f81526020017f4d696e74696e674d757368726f6f6d00000000000000000000000000000000008152506040518060400160405280600281526020017f4d4d0000000000000000000000000000000000000000000000000000000000008152508160009081620000df919062000595565b508060019081620000f1919062000595565b505050620001096000801b83620001b660201b60201c565b6200013b7f73e573f9566d61418a34d5de3ff49360f9c51fec37f7486551670290f6285dab33620001b660201b60201c565b6200016d7f364d3d7565c7a8300c96fd53e065d19b65848d7b23b3191adcd55621c744223c33620001b660201b60201c565b80600a60006101000a81548173ffffffffffffffffffffffffffffffffffffffff021916908373ffffffffffffffffffffffffffffffffffffffff16021790555050506200072d565b620001c88282620002a860201b60201c565b620002a45760016007600084815260200190815260200160002060000160008373ffffffffffffffffffffffffffffffffffffffff1673ffffffffffffffffffffffffffffffffffffffff16815260200190815260200160002060006101000a81548160ff021916908315150217905550620002496200031360201b60201c565b73ffffffffffffffffffffffffffffffffffffffff168173ffffffffffffffffffffffffffffffffffffffff16837f2f8788117e7eff1d82e926ec794901d17c78024a50270940304540a733656f0d60405160405180910390a45b5050565b60006007600084815260200190815260200160002060000160008373ffffffffffffffffffffffffffffffffffffffff1673ffffffffffffffffffffffffffffffffffffffff16815260200190815260200160002060009054906101000a900460ff16905092915050565b600033905090565b600081519050919050565b7f4e487b7100000000000000000000000000000000000000000000000000000000600052604160045260246000fd5b7f4e487b7100000000000000000000000000000000000000000000000000000000600052602260045260246000fd5b600060028204905060018216806200039d57607f821691505b602082108103620003b357620003b262000355565b5b50919050565b60008190508160005260206000209050919050565b60006020601f8301049050919050565b600082821b905092915050565b6000600883026200041d7fffffffffffffffffffffffffffffffffffffffffffffffffffffffffffffffff82620003de565b620004298683620003de565b95508019841693508086168417925050509392505050565b6000819050919050565b6000819050919050565b600062000476620004706200046a8462000441565b6200044b565b62000441565b9050919050565b6000819050919050565b620004928362000455565b620004aa620004a1826200047d565b848454620003eb565b825550505050565b600090565b620004c1620004b2565b620004ce81848462000487565b505050565b5b81811015620004f657620004ea600082620004b7565b600181019050620004d4565b5050565b601f82111562000545576200050f81620003b9565b6200051a84620003ce565b810160208510156200052a578190505b620005426200053985620003ce565b830182620004d3565b50505b505050565b600082821c905092915050565b60006200056a600019846008026200054a565b1980831691505092915050565b600062000585838362000557565b9150826002028217905092915050565b620005a0826200031b565b67ffffffffffffffff811115620005bc57620005bb62000326565b5b620005c8825462000384565b620005d5828285620004fa565b600060209050601f8311600181146200060d5760008415620005f8578287015190505b62000604858262000577565b86555062000674565b601f1984166200061d86620003b9565b60005b82811015620006475784890151825560018201915060208501945060208101905062000620565b8683101562000667578489015162000663601f89168262000557565b8355505b6001600288020188555050505b505050505050565b600080fd5b600073ffffffffffffffffffffffffffffffffffffffff82169050919050565b6000620006ae8262000681565b9050919050565b620006c081620006a1565b8114620006cc57600080fd5b50565b600081519050620006e081620006b5565b92915050565b600080604083850312156200070057620006ff6200067c565b5b60006200071085828601620006cf565b92505060206200072385828601620006cf565b9150509250929050565b6140e5806200073d6000396000f3fe608060405234801561001057600080fd5b50600436106101735760003560e01c806347e63380116100de578063a22cb46511610097578063c87b56dd11610071578063c87b56dd14610482578063cfc86f7b146104b2578063d547741f146104d0578063e985e9c5146104ec57610173565b8063a22cb4651461041a578063ac9eab5614610436578063b88d4fde1461046657610173565b806347e63380146103305780636352211e1461034e57806370a082311461037e57806391d14854146103ae57806395d89b41146103de578063a217fddf146103fc57610173565b806323b872dd1161013057806323b872dd14610260578063248a9ca31461027c5780632f2ff15d146102ac57806336568abe146102c85780633bb3a24d146102e457806342842e0e1461031457610173565b806301ffc9a71461017857806303fe46ab146101a857806306fdde03146101c6578063081812fc146101e4578063095ea7b3146102145780630bb78ec114610230575b600080fd5b610192600480360381019061018d919061253b565b61051c565b60405161019f9190612583565b60405180910390f35b6101b061052e565b6040516101bd91906125b7565b60405180910390f35b6101ce610552565b6040516101db9190612662565b60405180910390f35b6101fe60048036038101906101f991906126ba565b6105e4565b60405161020b9190612728565b60405180910390f35b61022e6004803603810190610229919061276f565b61062a565b005b61024a600480360381019061024591906126ba565b610741565b6040516102579190612662565b60405180910390f35b61027a600480360381019061027591906127af565b6107e1565b005b6102966004803603810190610291919061282e565b610841565b6040516102a391906125b7565b60405180910390f35b6102c660048036038101906102c1919061285b565b610861565b005b6102e260048036038101906102dd919061285b565b610882565b005b6102fe60048036038101906102f991906126ba565b610905565b60405161030b9190612662565b60405180910390f35b61032e600480360381019061032991906127af565b6109aa565b005b6103386109ca565b60405161034591906125b7565b60405180910390f35b610368600480360381019061036391906126ba565b6109ee565b6040516103759190612728565b60405180910390f35b6103986004803603810190610393919061289b565b610a74565b6040516103a591906128d7565b60405180910390f35b6103c860048036038101906103c3919061285b565b610b2b565b6040516103d59190612583565b60405180910390f35b6103e6610b96565b6040516103f39190612662565b60405180910390f35b610404610c28565b60405161041191906125b7565b60405180910390f35b610434600480360381019061042f919061291e565b610c2f565b005b610450600480360381019061044b91906126ba565b610c45565b60405161045d9190612662565b60405180910390f35b610480600480360381019061047b9190612a93565b610dd4565b005b61049c600480360381019061049791906126ba565b610e36565b6040516104a99190612662565b60405180910390f35b6104ba610f48565b6040516104c79190612662565b60405180910390f35b6104ea60048036038101906104e5919061285b565b610fd6565b005b61050660048036038101906105019190612b16565b610ff7565b6040516105139190612583565b60405180910390f35b60006105278261108b565b9050919050565b7f364d3d7565c7a8300c96fd53e065d19b65848d7b23b3191adcd55621c744223c81565b60606000805461056190612b85565b80601f016020809104026020016040519081016040528092919081815260200182805461058d90612b85565b80156105da5780601f106105af576101008083540402835291602001916105da565b820191906000526020600020905b8154815290600101906020018083116105bd57829003601f168201915b5050505050905090565b60006105ef82611105565b6004600083815260200190815260200160002060009054906101000a900473ffffffffffffffffffffffffffffffffffffffff169050919050565b6000610635826109ee565b90508073ffffffffffffffffffffffffffffffffffffffff168373ffffffffffffffffffffffffffffffffffffffff16036106a5576040517f08c379a000000000000000000000000000000000000000000000000000000000815260040161069c90612c28565b60405180910390fd5b8073ffffffffffffffffffffffffffffffffffffffff166106c4611150565b73ffffffffffffffffffffffffffffffffffffffff1614806106f357506106f2816106ed611150565b610ff7565b5b610732576040517f08c379a000000000000000000000000000000000000000000000000000000000815260040161072990612cba565b60405180910390fd5b61073c8383611158565b505050565b6009602052806000526040600020600091509050805461076090612b85565b80601f016020809104026020016040519081016040528092919081815260200182805461078c90612b85565b80156107d95780601f106107ae576101008083540402835291602001916107d9565b820191906000526020600020905b8154815290600101906020018083116107bc57829003601f168201915b505050505081565b6107f26107ec611150565b82611211565b610831576040517f08c379a000000000000000000000000000000000000000000000000000000000815260040161082890612d4c565b60405180910390fd5b61083c8383836112a6565b505050565b600060076000838152602001908152602001600020600101549050919050565b61086a82610841565b6108738161159f565b61087d83836115b3565b505050565b61088a611150565b73ffffffffffffffffffffffffffffffffffffffff168173ffffffffffffffffffffffffffffffffffffffff16146108f7576040517f08c379a00000000000000000000000000000000000000000000000000000000081526004016108ee90612dde565b60405180910390fd5b6109018282611694565b5050565b606060096000838152602001908152602001600020805461092590612b85565b80601f016020809104026020016040519081016040528092919081815260200182805461095190612b85565b801561099e5780601f106109735761010080835404028352916020019161099e565b820191906000526020600020905b81548152906001019060200180831161098157829003601f168201915b50505050509050919050565b6109c583838360405180602001604052806000815250610dd4565b505050565b7f73e573f9566d61418a34d5de3ff49360f9c51fec37f7486551670290f6285dab81565b6000806109fa83611776565b9050600073ffffffffffffffffffffffffffffffffffffffff168173ffffffffffffffffffffffffffffffffffffffff1603610a6b576040517f08c379a0000000000000000000000000000000000000000000000000000000008152600401610a6290612e4a565b60405180910390fd5b80915050919050565b60008073ffffffffffffffffffffffffffffffffffffffff168273ffffffffffffffffffffffffffffffffffffffff1603610ae4576040517f08c379a0000000000000000000000000000000000000000000000000000000008152600401610adb90612edc565b60405180910390fd5b600360008373ffffffffffffffffffffffffffffffffffffffff1673ffffffffffffffffffffffffffffffffffffffff168152602001908152602001600020549050919050565b60006007600084815260200190815260200160002060000160008373ffffffffffffffffffffffffffffffffffffffff1673ffffffffffffffffffffffffffffffffffffffff16815260200190815260200160002060009054906101000a900460ff16905092915050565b606060018054610ba590612b85565b80601f0160208091040260200160405190810160405280929190818152602001828054610bd190612b85565b8015610c1e5780601f10610bf357610100808354040283529160200191610c1e565b820191906000526020600020905b815481529060010190602001808311610c0157829003601f168201915b5050505050905090565b6000801b81565b610c41610c3a611150565b83836117b3565b5050565b60606000600a60009054906101000a900473ffffffffffffffffffffffffffffffffffffffff1673ffffffffffffffffffffffffffffffffffffffff1663f25c8077846040518263ffffffff1660e01b8152600401610ca491906128d7565b600060405180830381865afa158015610cc1573d6000803e3d6000fd5b505050506040513d6000823e3d601f19601f82011682018060405250810190610cea91906131e4565b90506000610cf78461191f565b60088360400151846060015185608001518660a001518761012001518860e00151896101000151604051602001610d35989796959493929190613399565b6040516020818303038152906040528360e001518461010001518561012001518660c00151610d6888610140015161191f565b610d7b896020015163ffffffff1661191f565b604051602001610d929897969594939291906138f2565b6040516020818303038152906040529050610dac816119ed565b604051602001610dbc9190613a55565b60405160208183030381529060405292505050919050565b610de5610ddf611150565b83611211565b610e24576040517f08c379a0000000000000000000000000000000000000000000000000000000008152600401610e1b90612d4c565b60405180910390fd5b610e3084848484611b50565b50505050565b6060610e4182611105565b6000600660008481526020019081526020016000208054610e6190612b85565b80601f0160208091040260200160405190810160405280929190818152602001828054610e8d90612b85565b8015610eda5780601f10610eaf57610100808354040283529160200191610eda565b820191906000526020600020905b815481529060010190602001808311610ebd57829003601f168201915b505050505090506000610eeb611bac565b90506000815103610f00578192505050610f43565b600082511115610f35578082604051602001610f1d929190613a77565b60405160208183030381529060405292505050610f43565b610f3e84611bc3565b925050505b919050565b60088054610f5590612b85565b80601f0160208091040260200160405190810160405280929190818152602001828054610f8190612b85565b8015610fce5780601f10610fa357610100808354040283529160200191610fce565b820191906000526020600020905b815481529060010190602001808311610fb157829003601f168201915b505050505081565b610fdf82610841565b610fe88161159f565b610ff28383611694565b505050565b6000600560008473ffffffffffffffffffffffffffffffffffffffff1673ffffffffffffffffffffffffffffffffffffffff16815260200190815260200160002060008373ffffffffffffffffffffffffffffffffffffffff1673ffffffffffffffffffffffffffffffffffffffff16815260200190815260200160002060009054906101000a900460ff16905092915050565b60007f7965db0b000000000000000000000000000000000000000000000000000000007bffffffffffffffffffffffffffffffffffffffffffffffffffffffff1916827bffffffffffffffffffffffffffffffffffffffffffffffffffffffff191614806110fe57506110fd82611c2b565b5b9050919050565b61110e81611d0d565b61114d576040517f08c379a000000000000000000000000000000000000000000000000000000000815260040161114490612e4a565b60405180910390fd5b50565b600033905090565b816004600083815260200190815260200160002060006101000a81548173ffffffffffffffffffffffffffffffffffffffff021916908373ffffffffffffffffffffffffffffffffffffffff160217905550808273ffffffffffffffffffffffffffffffffffffffff166111cb836109ee565b73ffffffffffffffffffffffffffffffffffffffff167f8c5be1e5ebec7d5bd14f71427d1e84f3dd0314c0f7b2291e5b200ac8c7c3b92560405160405180910390a45050565b60008061121d836109ee565b90508073ffffffffffffffffffffffffffffffffffffffff168473ffffffffffffffffffffffffffffffffffffffff16148061125f575061125e8185610ff7565b5b8061129d57508373ffffffffffffffffffffffffffffffffffffffff16611285846105e4565b73ffffffffffffffffffffffffffffffffffffffff16145b91505092915050565b8273ffffffffffffffffffffffffffffffffffffffff166112c6826109ee565b73ffffffffffffffffffffffffffffffffffffffff161461131c576040517f08c379a000000000000000000000000000000000000000000000000000000000815260040161131390613b0d565b60405180910390fd5b600073ffffffffffffffffffffffffffffffffffffffff168273ffffffffffffffffffffffffffffffffffffffff160361138b576040517f08c379a000000000000000000000000000000000000000000000000000000000815260040161138290613b9f565b60405180910390fd5b6113988383836001611d4e565b8273ffffffffffffffffffffffffffffffffffffffff166113b8826109ee565b73ffffffffffffffffffffffffffffffffffffffff161461140e576040517f08c379a000000000000000000000000000000000000000000000000000000000815260040161140590613b0d565b60405180910390fd5b6004600082815260200190815260200160002060006101000a81549073ffffffffffffffffffffffffffffffffffffffff02191690556001600360008573ffffffffffffffffffffffffffffffffffffffff1673ffffffffffffffffffffffffffffffffffffffff168152602001908152602001600020600082825403925050819055506001600360008473ffffffffffffffffffffffffffffffffffffffff1673ffffffffffffffffffffffffffffffffffffffff16815260200190815260200160002060008282540192505081905550816002600083815260200190815260200160002060006101000a81548173ffffffffffffffffffffffffffffffffffffffff021916908373ffffffffffffffffffffffffffffffffffffffff160217905550808273ffffffffffffffffffffffffffffffffffffffff168473ffffffffffffffffffffffffffffffffffffffff167fddf252ad1be2c89b69c2b068fc378daa952ba7f163c4a11628f55a4df523b3ef60405160405180910390a461159a8383836001611e74565b505050565b6115b0816115ab611150565b611e7a565b50565b6115bd8282610b2b565b6116905760016007600084815260200190815260200160002060000160008373ffffffffffffffffffffffffffffffffffffffff1673ffffffffffffffffffffffffffffffffffffffff16815260200190815260200160002060006101000a81548160ff021916908315150217905550611635611150565b73ffffffffffffffffffffffffffffffffffffffff168173ffffffffffffffffffffffffffffffffffffffff16837f2f8788117e7eff1d82e926ec794901d17c78024a50270940304540a733656f0d60405160405180910390a45b5050565b61169e8282610b2b565b156117725760006007600084815260200190815260200160002060000160008373ffffffffffffffffffffffffffffffffffffffff1673ffffffffffffffffffffffffffffffffffffffff16815260200190815260200160002060006101000a81548160ff021916908315150217905550611717611150565b73ffffffffffffffffffffffffffffffffffffffff168173ffffffffffffffffffffffffffffffffffffffff16837ff6391f5c32d9c69d2a47ea670b442974b53935d1edc7fd64eb21e047a839171b60405160405180910390a45b5050565b60006002600083815260200190815260200160002060009054906101000a900473ffffffffffffffffffffffffffffffffffffffff169050919050565b8173ffffffffffffffffffffffffffffffffffffffff168373ffffffffffffffffffffffffffffffffffffffff1603611821576040517f08c379a000000000000000000000000000000000000000000000000000000000815260040161181890613c0b565b60405180910390fd5b80600560008573ffffffffffffffffffffffffffffffffffffffff1673ffffffffffffffffffffffffffffffffffffffff16815260200190815260200160002060008473ffffffffffffffffffffffffffffffffffffffff1673ffffffffffffffffffffffffffffffffffffffff16815260200190815260200160002060006101000a81548160ff0219169083151502179055508173ffffffffffffffffffffffffffffffffffffffff168373ffffffffffffffffffffffffffffffffffffffff167f17307eab39ab6107e8899845ad3d59bd9653f200f220920489ca2b5937696c31836040516119129190612583565b60405180910390a3505050565b60606000600161192e84611eff565b01905060008167ffffffffffffffff81111561194d5761194c612968565b5b6040519080825280601f01601f19166020018201604052801561197f5781602001600182028036833780820191505090505b509050600082602001820190505b6001156119e2578080600190039150507f3031323334353637383961626364656600000000000000000000000000000000600a86061a8153600a85816119d6576119d5613c2b565b5b0494506000850361198d575b819350505050919050565b60606000825103611a0f57604051806020016040528060008152509050611b4b565b60006040518060600160405280604081526020016140706040913990506000600360028551611a3e9190613c89565b611a489190613cbd565b6004611a549190613cee565b67ffffffffffffffff811115611a6d57611a6c612968565b5b6040519080825280601f01601f191660200182016040528015611a9f5781602001600182028036833780820191505090505b509050600182016020820185865187015b80821015611b0b576003820191508151603f8160121c168501518453600184019350603f81600c1c168501518453600184019350603f8160061c168501518453600184019350603f8116850151845360018401935050611ab0565b5050600386510660018114611b275760028114611b3a57611b42565b603d6001830353603d6002830353611b42565b603d60018303535b50505080925050505b919050565b611b5b8484846112a6565b611b6784848484612052565b611ba6576040517f08c379a0000000000000000000000000000000000000000000000000000000008152600401611b9d90613da2565b60405180910390fd5b50505050565b606060405180602001604052806000815250905090565b6060611bce82611105565b6000611bd8611bac565b90506000815111611bf85760405180602001604052806000815250611c23565b80611c028461191f565b604051602001611c13929190613a77565b6040516020818303038152906040525b915050919050565b60007f80ac58cd000000000000000000000000000000000000000000000000000000007bffffffffffffffffffffffffffffffffffffffffffffffffffffffff1916827bffffffffffffffffffffffffffffffffffffffffffffffffffffffff19161480611cf657507f5b5e139f000000000000000000000000000000000000000000000000000000007bffffffffffffffffffffffffffffffffffffffffffffffffffffffff1916827bffffffffffffffffffffffffffffffffffffffffffffffffffffffff1916145b80611d065750611d05826121d9565b5b9050919050565b60008073ffffffffffffffffffffffffffffffffffffffff16611d2f83611776565b73ffffffffffffffffffffffffffffffffffffffff1614159050919050565b6001811115611e6e57600073ffffffffffffffffffffffffffffffffffffffff168473ffffffffffffffffffffffffffffffffffffffff1614611de25780600360008673ffffffffffffffffffffffffffffffffffffffff1673ffffffffffffffffffffffffffffffffffffffff1681526020019081526020016000206000828254611dda9190613dc2565b925050819055505b600073ffffffffffffffffffffffffffffffffffffffff168373ffffffffffffffffffffffffffffffffffffffff1614611e6d5780600360008573ffffffffffffffffffffffffffffffffffffffff1673ffffffffffffffffffffffffffffffffffffffff1681526020019081526020016000206000828254611e659190613c89565b925050819055505b5b50505050565b50505050565b611e848282610b2b565b611efb57611e9181612243565b611e9f8360001c6020612270565b604051602001611eb0929190613e8e565b6040516020818303038152906040526040517f08c379a0000000000000000000000000000000000000000000000000000000008152600401611ef29190612662565b60405180910390fd5b5050565b600080600090507a184f03e93ff9f4daa797ed6e38ed64bf6a1f0100000000000000008310611f5d577a184f03e93ff9f4daa797ed6e38ed64bf6a1f0100000000000000008381611f5357611f52613c2b565b5b0492506040810190505b6d04ee2d6d415b85acef81000000008310611f9a576d04ee2d6d415b85acef81000000008381611f9057611f8f613c2b565b5b0492506020810190505b662386f26fc100008310611fc957662386f26fc100008381611fbf57611fbe613c2b565b5b0492506010810190505b6305f5e1008310611ff2576305f5e1008381611fe857611fe7613c2b565b5b0492506008810190505b612710831061201757612710838161200d5761200c613c2b565b5b0492506004810190505b6064831061203a57606483816120305761202f613c2b565b5b0492506002810190505b600a8310612049576001810190505b80915050919050565b60006120738473ffffffffffffffffffffffffffffffffffffffff166124ac565b156121cc578373ffffffffffffffffffffffffffffffffffffffff1663150b7a0261209c611150565b8786866040518563ffffffff1660e01b81526004016120be9493929190613f1d565b6020604051808303816000875af19250505080156120fa57506040513d601f19601f820116820180604052508101906120f79190613f7e565b60015b61217c573d806000811461212a576040519150601f19603f3d011682016040523d82523d6000602084013e61212f565b606091505b506000815103612174576040517f08c379a000000000000000000000000000000000000000000000000000000000815260040161216b90613da2565b60405180910390fd5b805181602001fd5b63150b7a0260e01b7bffffffffffffffffffffffffffffffffffffffffffffffffffffffff1916817bffffffffffffffffffffffffffffffffffffffffffffffffffffffff1916149150506121d1565b600190505b949350505050565b60007f01ffc9a7000000000000000000000000000000000000000000000000000000007bffffffffffffffffffffffffffffffffffffffffffffffffffffffff1916827bffffffffffffffffffffffffffffffffffffffffffffffffffffffff1916149050919050565b60606122698273ffffffffffffffffffffffffffffffffffffffff16601460ff16612270565b9050919050565b6060600060028360026122839190613cee565b61228d9190613c89565b67ffffffffffffffff8111156122a6576122a5612968565b5b6040519080825280601f01601f1916602001820160405280156122d85781602001600182028036833780820191505090505b5090507f3000000000000000000000000000000000000000000000000000000000000000816000815181106123105761230f613fab565b5b60200101907effffffffffffffffffffffffffffffffffffffffffffffffffffffffffffff1916908160001a9053507f78000000000000000000000000000000000000000000000000000000000000008160018151811061237457612373613fab565b5b60200101907effffffffffffffffffffffffffffffffffffffffffffffffffffffffffffff1916908160001a905350600060018460026123b49190613cee565b6123be9190613c89565b90505b600181111561245e577f3031323334353637383961626364656600000000000000000000000000000000600f861660108110612400576123ff613fab565b5b1a60f81b82828151811061241757612416613fab565b5b60200101907effffffffffffffffffffffffffffffffffffffffffffffffffffffffffffff1916908160001a905350600485901c94508061245790613fda565b90506123c1565b50600084146124a2576040517f08c379a00000000000000000000000000000000000000000000000000000000081526004016124999061404f565b60405180910390fd5b8091505092915050565b6000808273ffffffffffffffffffffffffffffffffffffffff163b119050919050565b6000604051905090565b600080fd5b600080fd5b60007fffffffff0000000000000000000000000000000000000000000000000000000082169050919050565b612518816124e3565b811461252357600080fd5b50565b6000813590506125358161250f565b92915050565b600060208284031215612551576125506124d9565b5b600061255f84828501612526565b91505092915050565b60008115159050919050565b61257d81612568565b82525050565b60006020820190506125986000830184612574565b92915050565b6000819050919050565b6125b18161259e565b82525050565b60006020820190506125cc60008301846125a8565b92915050565b600081519050919050565b600082825260208201905092915050565b60005b8381101561260c5780820151818401526020810190506125f1565b60008484015250505050565b6000601f19601f8301169050919050565b6000612634826125d2565b61263e81856125dd565b935061264e8185602086016125ee565b61265781612618565b840191505092915050565b6000602082019050818103600083015261267c8184612629565b905092915050565b6000819050919050565b61269781612684565b81146126a257600080fd5b50565b6000813590506126b48161268e565b92915050565b6000602082840312156126d0576126cf6124d9565b5b60006126de848285016126a5565b91505092915050565b600073ffffffffffffffffffffffffffffffffffffffff82169050919050565b6000612712826126e7565b9050919050565b61272281612707565b82525050565b600060208201905061273d6000830184612719565b92915050565b61274c81612707565b811461275757600080fd5b50565b60008135905061276981612743565b92915050565b60008060408385031215612786576127856124d9565b5b60006127948582860161275a565b92505060206127a5858286016126a5565b9150509250929050565b6000806000606084860312156127c8576127c76124d9565b5b60006127d68682870161275a565b93505060206127e78682870161275a565b92505060406127f8868287016126a5565b9150509250925092565b61280b8161259e565b811461281657600080fd5b50565b60008135905061282881612802565b92915050565b600060208284031215612844576128436124d9565b5b600061285284828501612819565b91505092915050565b60008060408385031215612872576128716124d9565b5b600061288085828601612819565b92505060206128918582860161275a565b9150509250929050565b6000602082840312156128b1576128b06124d9565b5b60006128bf8482850161275a565b91505092915050565b6128d181612684565b82525050565b60006020820190506128ec60008301846128c8565b92915050565b6128fb81612568565b811461290657600080fd5b50565b600081359050612918816128f2565b92915050565b60008060408385031215612935576129346124d9565b5b60006129438582860161275a565b925050602061295485828601612909565b9150509250929050565b600080fd5b600080fd5b7f4e487b7100000000000000000000000000000000000000000000000000000000600052604160045260246000fd5b6129a082612618565b810181811067ffffffffffffffff821117156129bf576129be612968565b5b80604052505050565b60006129d26124cf565b90506129de8282612997565b919050565b600067ffffffffffffffff8211156129fe576129fd612968565b5b612a0782612618565b9050602081019050919050565b82818337600083830152505050565b6000612a36612a31846129e3565b6129c8565b905082815260208101848484011115612a5257612a51612963565b5b612a5d848285612a14565b509392505050565b600082601f830112612a7a57612a7961295e565b5b8135612a8a848260208601612a23565b91505092915050565b60008060008060808587031215612aad57612aac6124d9565b5b6000612abb8782880161275a565b9450506020612acc8782880161275a565b9350506040612add878288016126a5565b925050606085013567ffffffffffffffff811115612afe57612afd6124de565b5b612b0a87828801612a65565b91505092959194509250565b60008060408385031215612b2d57612b2c6124d9565b5b6000612b3b8582860161275a565b9250506020612b4c8582860161275a565b9150509250929050565b7f4e487b7100000000000000000000000000000000000000000000000000000000600052602260045260246000fd5b60006002820490506001821680612b9d57607f821691505b602082108103612bb057612baf612b56565b5b50919050565b7f4552433732313a20617070726f76616c20746f2063757272656e74206f776e6560008201527f7200000000000000000000000000000000000000000000000000000000000000602082015250565b6000612c126021836125dd565b9150612c1d82612bb6565b604082019050919050565b60006020820190508181036000830152612c4181612c05565b9050919050565b7f4552433732313a20617070726f76652063616c6c6572206973206e6f7420746f60008201527f6b656e206f776e6572206f7220617070726f76656420666f7220616c6c000000602082015250565b6000612ca4603d836125dd565b9150612caf82612c48565b604082019050919050565b60006020820190508181036000830152612cd381612c97565b9050919050565b7f4552433732313a2063616c6c6572206973206e6f7420746f6b656e206f776e6560008201527f72206f7220617070726f76656400000000000000000000000000000000000000602082015250565b6000612d36602d836125dd565b9150612d4182612cda565b604082019050919050565b60006020820190508181036000830152612d6581612d29565b9050919050565b7f416363657373436f6e74726f6c3a2063616e206f6e6c792072656e6f756e636560008201527f20726f6c657320666f722073656c660000000000000000000000000000000000602082015250565b6000612dc8602f836125dd565b9150612dd382612d6c565b604082019050919050565b60006020820190508181036000830152612df781612dbb565b9050919050565b7f4552433732313a20696e76616c696420746f6b656e2049440000000000000000600082015250565b6000612e346018836125dd565b9150612e3f82612dfe565b602082019050919050565b60006020820190508181036000830152612e6381612e27565b9050919050565b7f4552433732313a2061646472657373207a65726f206973206e6f74206120766160008201527f6c6964206f776e65720000000000000000000000000000000000000000000000602082015250565b6000612ec66029836125dd565b9150612ed182612e6a565b604082019050919050565b60006020820190508181036000830152612ef581612eb9565b9050919050565b600080fd5b600080fd5b600081519050612f158161268e565b92915050565b600063ffffffff82169050919050565b612f3481612f1b565b8114612f3f57600080fd5b50565b600081519050612f5181612f2b565b92915050565b600067ffffffffffffffff821115612f7257612f71612968565b5b612f7b82612618565b9050602081019050919050565b6000612f9b612f9684612f57565b6129c8565b905082815260208101848484011115612fb757612fb6612963565b5b612fc28482856125ee565b509392505050565b600082601f830112612fdf57612fde61295e565b5b8151612fef848260208601612f88565b91505092915050565b6000610160828403121561300f5761300e612efc565b5b61301a6101606129c8565b9050600061302a84828501612f06565b600083015250602061303e84828501612f42565b602083015250604082015167ffffffffffffffff81111561306257613061612f01565b5b61306e84828501612fca565b604083015250606082015167ffffffffffffffff81111561309257613091612f01565b5b61309e84828501612fca565b606083015250608082015167ffffffffffffffff8111156130c2576130c1612f01565b5b6130ce84828501612fca565b60808301525060a082015167ffffffffffffffff8111156130f2576130f1612f01565b5b6130fe84828501612fca565b60a08301525060c082015167ffffffffffffffff81111561312257613121612f01565b5b61312e84828501612fca565b60c08301525060e082015167ffffffffffffffff81111561315257613151612f01565b5b61315e84828501612fca565b60e08301525061010082015167ffffffffffffffff81111561318357613182612f01565b5b61318f84828501612fca565b6101008301525061012082015167ffffffffffffffff8111156131b5576131b4612f01565b5b6131c184828501612fca565b610120830152506101406131d784828501612f06565b6101408301525092915050565b6000602082840312156131fa576131f96124d9565b5b600082015167ffffffffffffffff811115613218576132176124de565b5b61322484828501612ff8565b91505092915050565b600081905092915050565b60008190508160005260206000209050919050565b6000815461325a81612b85565b613264818661322d565b9450600182166000811461327f5760018114613294576132c7565b60ff19831686528115158202860193506132c7565b61329d85613238565b60005b838110156132bf578154818901526001820191506020810190506132a0565b838801955050505b50505092915050565b60006132db826125d2565b6132e5818561322d565b93506132f58185602086016125ee565b80840191505092915050565b7f2f00000000000000000000000000000000000000000000000000000000000000600082015250565b600061333760018361322d565b915061334282613301565b600182019050919050565b7f2e706e6700000000000000000000000000000000000000000000000000000000600082015250565b600061338360048361322d565b915061338e8261334d565b600482019050919050565b60006133a5828b61324d565b91506133b1828a6132d0565b91506133bc8261332a565b91506133c882896132d0565b91506133d38261332a565b91506133df82886132d0565b91506133ea8261332a565b91506133f682876132d0565b91506134018261332a565b915061340d82866132d0565b91506134188261332a565b915061342482856132d0565b915061342f8261332a565b915061343b82846132d0565b915061344682613376565b91508190509998505050505050505050565b7f7b226e616d65223a20224d757368726f6f6d2023000000000000000000000000600082015250565b600061348e60148361322d565b915061349982613458565b601482019050919050565b7f222c20226465736372697074696f6e223a20224d616c6963696f7573204d757360008201527f68726f6f6d732052617772222c2022696d616765223a20220000000000000000602082015250565b600061350060388361322d565b915061350b826134a4565b603882019050919050565b7f222c202261747472696275746573223a205b0000000000000000000000000000600082015250565b600061354c60128361322d565b915061355782613516565b601282019050919050565b7f7b2274726169745f74797065223a2022576561706f6e222c202276616c75652260008201527f3a20220000000000000000000000000000000000000000000000000000000000602082015250565b60006135be60238361322d565b91506135c982613562565b602382019050919050565b7f227d2c0000000000000000000000000000000000000000000000000000000000600082015250565b600061360a60038361322d565b9150613615826135d4565b600382019050919050565b7f7b2274726169745f74797065223a202241726d6f72222c202276616c7565223a60008201527f2022000000000000000000000000000000000000000000000000000000000000602082015250565b600061367c60228361322d565b915061368782613620565b602282019050919050565b7f7b2274726169745f74797065223a20224163636573736f7279222c202276616c60008201527f7565223a20220000000000000000000000000000000000000000000000000000602082015250565b60006136ee60268361322d565b91506136f982613692565b602682019050919050565b7f7b2274726169745f74797065223a2022456c656d656e74222c202276616c756560008201527f223a202200000000000000000000000000000000000000000000000000000000602082015250565b600061376060248361322d565b915061376b82613704565b602482019050919050565b7f7b2274726169745f74797065223a20224c6576656c222c202276616c7565223a60008201527f2000000000000000000000000000000000000000000000000000000000000000602082015250565b60006137d260218361322d565b91506137dd82613776565b602182019050919050565b7f7d2c000000000000000000000000000000000000000000000000000000000000600082015250565b600061381e60028361322d565b9150613829826137e8565b600282019050919050565b7f7b2274726169745f74797065223a202253706f726573222c202276616c75652260008201527f3a20000000000000000000000000000000000000000000000000000000000000602082015250565b600061389060228361322d565b915061389b82613834565b602282019050919050565b7f7d5d7d0000000000000000000000000000000000000000000000000000000000600082015250565b60006138dc60038361322d565b91506138e7826138a6565b600382019050919050565b60006138fd82613481565b9150613909828b6132d0565b9150613914826134f3565b9150613920828a6132d0565b915061392b8261353f565b9150613936826135b1565b915061394282896132d0565b915061394d826135fd565b91506139588261366f565b915061396482886132d0565b915061396f826135fd565b915061397a826136e1565b915061398682876132d0565b9150613991826135fd565b915061399c82613753565b91506139a882866132d0565b91506139b3826135fd565b91506139be826137c5565b91506139ca82856132d0565b91506139d582613811565b91506139e082613883565b91506139ec82846132d0565b91506139f7826138cf565b91508190509998505050505050505050565b7f646174613a6170706c69636174696f6e2f6a736f6e3b6261736536342c000000600082015250565b6000613a3f601d8361322d565b9150613a4a82613a09565b601d82019050919050565b6000613a6082613a32565b9150613a6c82846132d0565b915081905092915050565b6000613a8382856132d0565b9150613a8f82846132d0565b91508190509392505050565b7f4552433732313a207472616e736665722066726f6d20696e636f72726563742060008201527f6f776e6572000000000000000000000000000000000000000000000000000000602082015250565b6000613af76025836125dd565b9150613b0282613a9b565b604082019050919050565b60006020820190508181036000830152613b2681613aea565b9050919050565b7f4552433732313a207472616e7366657220746f20746865207a65726f2061646460008201527f7265737300000000000000000000000000000000000000000000000000000000602082015250565b6000613b896024836125dd565b9150613b9482613b2d565b604082019050919050565b60006020820190508181036000830152613bb881613b7c565b9050919050565b7f4552433732313a20617070726f766520746f2063616c6c657200000000000000600082015250565b6000613bf56019836125dd565b9150613c0082613bbf565b602082019050919050565b60006020820190508181036000830152613c2481613be8565b9050919050565b7f4e487b7100000000000000000000000000000000000000000000000000000000600052601260045260246000fd5b7f4e487b7100000000000000000000000000000000000000000000000000000000600052601160045260246000fd5b6000613c9482612684565b9150613c9f83612684565b9250828201905080821115613cb757613cb6613c5a565b5b92915050565b6000613cc882612684565b9150613cd383612684565b925082613ce357613ce2613c2b565b5b828204905092915050565b6000613cf982612684565b9150613d0483612684565b9250828202613d1281612684565b91508282048414831517613d2957613d28613c5a565b5b5092915050565b7f4552433732313a207472616e7366657220746f206e6f6e20455243373231526560008201527f63656976657220696d706c656d656e7465720000000000000000000000000000602082015250565b6000613d8c6032836125dd565b9150613d9782613d30565b604082019050919050565b60006020820190508181036000830152613dbb81613d7f565b9050919050565b6000613dcd82612684565b9150613dd883612684565b9250828203905081811115613df057613def613c5a565b5b92915050565b7f416363657373436f6e74726f6c3a206163636f756e7420000000000000000000600082015250565b6000613e2c60178361322d565b9150613e3782613df6565b601782019050919050565b7f206973206d697373696e6720726f6c6520000000000000000000000000000000600082015250565b6000613e7860118361322d565b9150613e8382613e42565b601182019050919050565b6000613e9982613e1f565b9150613ea582856132d0565b9150613eb082613e6b565b9150613ebc82846132d0565b91508190509392505050565b600081519050919050565b600082825260208201905092915050565b6000613eef82613ec8565b613ef98185613ed3565b9350613f098185602086016125ee565b613f1281612618565b840191505092915050565b6000608082019050613f326000830187612719565b613f3f6020830186612719565b613f4c60408301856128c8565b8181036060830152613f5e8184613ee4565b905095945050505050565b600081519050613f788161250f565b92915050565b600060208284031215613f9457613f936124d9565b5b6000613fa284828501613f69565b91505092915050565b7f4e487b7100000000000000000000000000000000000000000000000000000000600052603260045260246000fd5b6000613fe582612684565b915060008203613ff857613ff7613c5a565b5b600182039050919050565b7f537472696e67733a20686578206c656e67746820696e73756666696369656e74600082015250565b60006140396020836125dd565b915061404482614003565b602082019050919050565b600060208201905081810360008301526140688161402c565b905091905056fe4142434445464748494a4b4c4d4e4f505152535455565758595a6162636465666768696a6b6c6d6e6f707172737475767778797a303132333435363738392b2fa26469706673582212200d292df7da5e9e278d4eaa7c078c21e85b9df447dc0c68a25dafdebf32e5060b64736f6c6343000811003368747470733a2f2f6d616c6963696f75736d757368726f6f6d732e636f6d2f232f696d616765732f",
  "linkReferences": {},
  "deployedLinkReferences": {}
}