{
    "_format": "hh-sol-artifact-1",
    "contractName": "Metadata",
    "sourceName": "contracts/Metadata.sol",
    "abi": [
        {
            "inputs": [
                {
                    "internalType": "address",
                    "name": "admin",
                    "type": "address"
                }
            ],
            "stateMutability": "nonpayable",
            "type": "constructor"
        },
        {
            "anonymous": false,
            "inputs": [
                {
                    "indexed": true,
                    "internalType": "address",
                    "name": "previousOwner",
                    "type": "address"
                },
                {
                    "indexed": true,
                    "internalType": "address",
                    "name": "newOwner",
                    "type": "address"
                }
            ],
            "name": "OwnershipTransferred",
            "type": "event"
        },
        {
            "anonymous": false,
            "inputs": [
                {
                    "indexed": true,
                    "internalType": "bytes32",
                    "name": "role",
                    "type": "bytes32"
                },
                {
                    "indexed": true,
                    "internalType": "bytes32",
                    "name": "previousAdminRole",
                    "type": "bytes32"
                },
                {
                    "indexed": true,
                    "internalType": "bytes32",
                    "name": "newAdminRole",
                    "type": "bytes32"
                }
            ],
            "name": "RoleAdminChanged",
            "type": "event"
        },
        {
            "anonymous": false,
            "inputs": [
                {
                    "indexed": true,
                    "internalType": "bytes32",
                    "name": "role",
                    "type": "bytes32"
                },
                {
                    "indexed": true,
                    "internalType": "address",
                    "name": "account",
                    "type": "address"
                },
                {
                    "indexed": true,
                    "internalType": "address",
                    "name": "sender",
                    "type": "address"
                }
            ],
            "name": "RoleGranted",
            "type": "event"
        },
        {
            "anonymous": false,
            "inputs": [
                {
                    "indexed": true,
                    "internalType": "bytes32",
                    "name": "role",
                    "type": "bytes32"
                },
                {
                    "indexed": true,
                    "internalType": "address",
                    "name": "account",
                    "type": "address"
                },
                {
                    "indexed": true,
                    "internalType": "address",
                    "name": "sender",
                    "type": "address"
                }
            ],
            "name": "RoleRevoked",
            "type": "event"
        },
        {
            "inputs": [],
            "name": "CONTRACT_ROLE",
            "outputs": [
                {
                    "internalType": "bytes32",
                    "name": "",
                    "type": "bytes32"
                }
            ],
            "stateMutability": "view",
            "type": "function"
        },
        {
            "inputs": [],
            "name": "DEFAULT_ADMIN_ROLE",
            "outputs": [
                {
                    "internalType": "bytes32",
                    "name": "",
                    "type": "bytes32"
                }
            ],
            "stateMutability": "view",
            "type": "function"
        },
        {
            "inputs": [],
            "name": "UPDATER_ROLE",
            "outputs": [
                {
                    "internalType": "bytes32",
                    "name": "",
                    "type": "bytes32"
                }
            ],
            "stateMutability": "view",
            "type": "function"
        },
        {
            "inputs": [],
            "name": "_baseTokenURI",
            "outputs": [
                {
                    "internalType": "string",
                    "name": "",
                    "type": "string"
                }
            ],
            "stateMutability": "view",
            "type": "function"
        },
        {
            "inputs": [
                {
                    "internalType": "bytes32",
                    "name": "role",
                    "type": "bytes32"
                }
            ],
            "name": "getRoleAdmin",
            "outputs": [
                {
                    "internalType": "bytes32",
                    "name": "",
                    "type": "bytes32"
                }
            ],
            "stateMutability": "view",
            "type": "function"
        },
        {
            "inputs": [
                {
                    "internalType": "uint256",
                    "name": "tokenId",
                    "type": "uint256"
                },
                {
                    "internalType": "uint32",
                    "name": "spores",
                    "type": "uint32"
                },
                {
                    "internalType": "string",
                    "name": "weapon",
                    "type": "string"
                },
                {
                    "internalType": "string",
                    "name": "armor",
                    "type": "string"
                },
                {
                    "internalType": "string",
                    "name": "accessory",
                    "type": "string"
                },
                {
                    "internalType": "string",
                    "name": "element",
                    "type": "string"
                },
                {
                    "internalType": "string",
                    "name": "ipfsImg",
                    "type": "string"
                }
            ],
            "name": "getTokenURI",
            "outputs": [
                {
                    "internalType": "string",
                    "name": "",
                    "type": "string"
                }
            ],
            "stateMutability": "view",
            "type": "function"
        },
        {
            "inputs": [
                {
                    "internalType": "bytes32",
                    "name": "role",
                    "type": "bytes32"
                },
                {
                    "internalType": "address",
                    "name": "account",
                    "type": "address"
                }
            ],
            "name": "grantRole",
            "outputs": [],
            "stateMutability": "nonpayable",
            "type": "function"
        },
        {
            "inputs": [
                {
                    "internalType": "bytes32",
                    "name": "role",
                    "type": "bytes32"
                },
                {
                    "internalType": "address",
                    "name": "account",
                    "type": "address"
                }
            ],
            "name": "hasRole",
            "outputs": [
                {
                    "internalType": "bool",
                    "name": "",
                    "type": "bool"
                }
            ],
            "stateMutability": "view",
            "type": "function"
        },
        {
            "inputs": [],
            "name": "owner",
            "outputs": [
                {
                    "internalType": "address",
                    "name": "",
                    "type": "address"
                }
            ],
            "stateMutability": "view",
            "type": "function"
        },
        {
            "inputs": [],
            "name": "renounceOwnership",
            "outputs": [],
            "stateMutability": "nonpayable",
            "type": "function"
        },
        {
            "inputs": [
                {
                    "internalType": "bytes32",
                    "name": "role",
                    "type": "bytes32"
                },
                {
                    "internalType": "address",
                    "name": "account",
                    "type": "address"
                }
            ],
            "name": "renounceRole",
            "outputs": [],
            "stateMutability": "nonpayable",
            "type": "function"
        },
        {
            "inputs": [],
            "name": "returnExtension",
            "outputs": [
                {
                    "internalType": "string",
                    "name": "",
                    "type": "string"
                }
            ],
            "stateMutability": "pure",
            "type": "function"
        },
        {
            "inputs": [
                {
                    "internalType": "bytes32",
                    "name": "role",
                    "type": "bytes32"
                },
                {
                    "internalType": "address",
                    "name": "account",
                    "type": "address"
                }
            ],
            "name": "revokeRole",
            "outputs": [],
            "stateMutability": "nonpayable",
            "type": "function"
        },
        {
            "inputs": [
                {
                    "internalType": "bytes4",
                    "name": "interfaceId",
                    "type": "bytes4"
                }
            ],
            "name": "supportsInterface",
            "outputs": [
                {
                    "internalType": "bool",
                    "name": "",
                    "type": "bool"
                }
            ],
            "stateMutability": "view",
            "type": "function"
        },
        {
            "inputs": [
                {
                    "internalType": "address",
                    "name": "newOwner",
                    "type": "address"
                }
            ],
            "name": "transferOwnership",
            "outputs": [],
            "stateMutability": "nonpayable",
            "type": "function"
        }
    ],
    "bytecode": "0x60806040523480156200001157600080fd5b50604051620024703803806200247083398181016040528101906200003791906200036a565b620000576200004b620000d760201b60201c565b620000df60201b60201c565b6200006c6000801b82620001a560201b60201c565b6200009e7f73e573f9566d61418a34d5de3ff49360f9c51fec37f7486551670290f6285dab33620001a560201b60201c565b620000d07f364d3d7565c7a8300c96fd53e065d19b65848d7b23b3191adcd55621c744223c33620001a560201b60201c565b506200039c565b600033905090565b6000600160009054906101000a900473ffffffffffffffffffffffffffffffffffffffff16905081600160006101000a81548173ffffffffffffffffffffffffffffffffffffffff021916908373ffffffffffffffffffffffffffffffffffffffff1602179055508173ffffffffffffffffffffffffffffffffffffffff168173ffffffffffffffffffffffffffffffffffffffff167f8be0079c531659141344cd1fd0a4f28419497f9722a3daafe3b4186f6b6457e060405160405180910390a35050565b620001b782826200029660201b60201c565b6200029257600160008084815260200190815260200160002060000160008373ffffffffffffffffffffffffffffffffffffffff1673ffffffffffffffffffffffffffffffffffffffff16815260200190815260200160002060006101000a81548160ff02191690831515021790555062000237620000d760201b60201c565b73ffffffffffffffffffffffffffffffffffffffff168173ffffffffffffffffffffffffffffffffffffffff16837f2f8788117e7eff1d82e926ec794901d17c78024a50270940304540a733656f0d60405160405180910390a45b5050565b600080600084815260200190815260200160002060000160008373ffffffffffffffffffffffffffffffffffffffff1673ffffffffffffffffffffffffffffffffffffffff16815260200190815260200160002060009054906101000a900460ff16905092915050565b600080fd5b600073ffffffffffffffffffffffffffffffffffffffff82169050919050565b6000620003328262000305565b9050919050565b620003448162000325565b81146200035057600080fd5b50565b600081519050620003648162000339565b92915050565b60006020828403121562000383576200038262000300565b5b6000620003938482850162000353565b91505092915050565b6120c480620003ac6000396000f3fe608060405234801561001057600080fd5b50600436106100f55760003560e01c8063715018a611610097578063c67c79b511610066578063c67c79b514610262578063cfc86f7b14610292578063d547741f146102b0578063f2fde38b146102cc576100f5565b8063715018a6146101ec5780638da5cb5b146101f657806391d1485414610214578063a217fddf14610244576100f5565b80632f2ff15d116100d35780632f2ff15d1461017857806336568abe1461019457806347e63380146101b057806361f4486a146101ce576100f5565b806301ffc9a7146100fa57806303fe46ab1461012a578063248a9ca314610148575b600080fd5b610114600480360381019061010f91906111aa565b6102e8565b60405161012191906111f2565b60405180910390f35b610132610362565b60405161013f9190611226565b60405180910390f35b610162600480360381019061015d919061126d565b610386565b60405161016f9190611226565b60405180910390f35b610192600480360381019061018d91906112f8565b6103a5565b005b6101ae60048036038101906101a991906112f8565b6103c6565b005b6101b8610449565b6040516101c59190611226565b60405180910390f35b6101d661046d565b6040516101e391906113c8565b60405180910390f35b6101f46104aa565b005b6101fe6104be565b60405161020b91906113f9565b60405180910390f35b61022e600480360381019061022991906112f8565b6104e8565b60405161023b91906111f2565b60405180910390f35b61024c610552565b6040516102599190611226565b60405180910390f35b61027c600480360381019061027791906115bb565b610559565b60405161028991906113c8565b60405180910390f35b61029a61060f565b6040516102a791906113c8565b60405180910390f35b6102ca60048036038101906102c591906112f8565b61069d565b005b6102e660048036038101906102e191906116e9565b6106be565b005b60007f7965db0b000000000000000000000000000000000000000000000000000000007bffffffffffffffffffffffffffffffffffffffffffffffffffffffff1916827bffffffffffffffffffffffffffffffffffffffffffffffffffffffff1916148061035b575061035a82610741565b5b9050919050565b7f364d3d7565c7a8300c96fd53e065d19b65848d7b23b3191adcd55621c744223c81565b6000806000838152602001908152602001600020600101549050919050565b6103ae82610386565b6103b7816107ab565b6103c183836107bf565b505050565b6103ce61089f565b73ffffffffffffffffffffffffffffffffffffffff168173ffffffffffffffffffffffffffffffffffffffff161461043b576040517f08c379a000000000000000000000000000000000000000000000000000000000815260040161043290611788565b60405180910390fd5b61044582826108a7565b5050565b7f73e573f9566d61418a34d5de3ff49360f9c51fec37f7486551670290f6285dab81565b60606040518060400160405280601d81526020017f646174613a6170706c69636174696f6e2f6a736f6e3b6261736536342c000000815250905090565b6104b2610988565b6104bc6000610a06565b565b6000600160009054906101000a900473ffffffffffffffffffffffffffffffffffffffff16905090565b600080600084815260200190815260200160002060000160008373ffffffffffffffffffffffffffffffffffffffff1673ffffffffffffffffffffffffffffffffffffffff16815260200190815260200160002060009054906101000a900460ff16905092915050565b6000801b81565b606060008261056d8963ffffffff16610acc565b8888888861057b6001610acc565b6040516020016105919796959493929190611b74565b60405160208183030381529060405290506040518060400160405280601d81526020017f646174613a6170706c69636174696f6e2f6a736f6e3b6261736536342c0000008152506105e182610b9a565b6040516020016105f2929190611c31565b604051602081830303815290604052915050979650505050505050565b6002805461061c90611c84565b80601f016020809104026020016040519081016040528092919081815260200182805461064890611c84565b80156106955780601f1061066a57610100808354040283529160200191610695565b820191906000526020600020905b81548152906001019060200180831161067857829003601f168201915b505050505081565b6106a682610386565b6106af816107ab565b6106b983836108a7565b505050565b6106c6610988565b600073ffffffffffffffffffffffffffffffffffffffff168173ffffffffffffffffffffffffffffffffffffffff1603610735576040517f08c379a000000000000000000000000000000000000000000000000000000000815260040161072c90611d27565b60405180910390fd5b61073e81610a06565b50565b60007f01ffc9a7000000000000000000000000000000000000000000000000000000007bffffffffffffffffffffffffffffffffffffffffffffffffffffffff1916827bffffffffffffffffffffffffffffffffffffffffffffffffffffffff1916149050919050565b6107bc816107b761089f565b610cfd565b50565b6107c982826104e8565b61089b57600160008084815260200190815260200160002060000160008373ffffffffffffffffffffffffffffffffffffffff1673ffffffffffffffffffffffffffffffffffffffff16815260200190815260200160002060006101000a81548160ff02191690831515021790555061084061089f565b73ffffffffffffffffffffffffffffffffffffffff168173ffffffffffffffffffffffffffffffffffffffff16837f2f8788117e7eff1d82e926ec794901d17c78024a50270940304540a733656f0d60405160405180910390a45b5050565b600033905090565b6108b182826104e8565b1561098457600080600084815260200190815260200160002060000160008373ffffffffffffffffffffffffffffffffffffffff1673ffffffffffffffffffffffffffffffffffffffff16815260200190815260200160002060006101000a81548160ff02191690831515021790555061092961089f565b73ffffffffffffffffffffffffffffffffffffffff168173ffffffffffffffffffffffffffffffffffffffff16837ff6391f5c32d9c69d2a47ea670b442974b53935d1edc7fd64eb21e047a839171b60405160405180910390a45b5050565b61099061089f565b73ffffffffffffffffffffffffffffffffffffffff166109ae6104be565b73ffffffffffffffffffffffffffffffffffffffff1614610a04576040517f08c379a00000000000000000000000000000000000000000000000000000000081526004016109fb90611d93565b60405180910390fd5b565b6000600160009054906101000a900473ffffffffffffffffffffffffffffffffffffffff16905081600160006101000a81548173ffffffffffffffffffffffffffffffffffffffff021916908373ffffffffffffffffffffffffffffffffffffffff1602179055508173ffffffffffffffffffffffffffffffffffffffff168173ffffffffffffffffffffffffffffffffffffffff167f8be0079c531659141344cd1fd0a4f28419497f9722a3daafe3b4186f6b6457e060405160405180910390a35050565b606060006001610adb84610d82565b01905060008167ffffffffffffffff811115610afa57610af9611490565b5b6040519080825280601f01601f191660200182016040528015610b2c5781602001600182028036833780820191505090505b509050600082602001820190505b600115610b8f578080600190039150507f3031323334353637383961626364656600000000000000000000000000000000600a86061a8153600a8581610b8357610b82611db3565b5b04945060008503610b3a575b819350505050919050565b60606000825103610bbc57604051806020016040528060008152509050610cf8565b600060405180606001604052806040815260200161204f6040913990506000600360028551610beb9190611e11565b610bf59190611e45565b6004610c019190611e76565b67ffffffffffffffff811115610c1a57610c19611490565b5b6040519080825280601f01601f191660200182016040528015610c4c5781602001600182028036833780820191505090505b509050600182016020820185865187015b80821015610cb8576003820191508151603f8160121c168501518453600184019350603f81600c1c168501518453600184019350603f8160061c168501518453600184019350603f8116850151845360018401935050610c5d565b5050600386510660018114610cd45760028114610ce757610cef565b603d6001830353603d6002830353610cef565b603d60018303535b50505080925050505b919050565b610d0782826104e8565b610d7e57610d1481610ed5565b610d228360001c6020610f02565b604051602001610d33929190611f50565b6040516020818303038152906040526040517f08c379a0000000000000000000000000000000000000000000000000000000008152600401610d7591906113c8565b60405180910390fd5b5050565b600080600090507a184f03e93ff9f4daa797ed6e38ed64bf6a1f0100000000000000008310610de0577a184f03e93ff9f4daa797ed6e38ed64bf6a1f0100000000000000008381610dd657610dd5611db3565b5b0492506040810190505b6d04ee2d6d415b85acef81000000008310610e1d576d04ee2d6d415b85acef81000000008381610e1357610e12611db3565b5b0492506020810190505b662386f26fc100008310610e4c57662386f26fc100008381610e4257610e41611db3565b5b0492506010810190505b6305f5e1008310610e75576305f5e1008381610e6b57610e6a611db3565b5b0492506008810190505b6127108310610e9a576127108381610e9057610e8f611db3565b5b0492506004810190505b60648310610ebd5760648381610eb357610eb2611db3565b5b0492506002810190505b600a8310610ecc576001810190505b80915050919050565b6060610efb8273ffffffffffffffffffffffffffffffffffffffff16601460ff16610f02565b9050919050565b606060006002836002610f159190611e76565b610f1f9190611e11565b67ffffffffffffffff811115610f3857610f37611490565b5b6040519080825280601f01601f191660200182016040528015610f6a5781602001600182028036833780820191505090505b5090507f300000000000000000000000000000000000000000000000000000000000000081600081518110610fa257610fa1611f8a565b5b60200101907effffffffffffffffffffffffffffffffffffffffffffffffffffffffffffff1916908160001a9053507f78000000000000000000000000000000000000000000000000000000000000008160018151811061100657611005611f8a565b5b60200101907effffffffffffffffffffffffffffffffffffffffffffffffffffffffffffff1916908160001a905350600060018460026110469190611e76565b6110509190611e11565b90505b60018111156110f0577f3031323334353637383961626364656600000000000000000000000000000000600f86166010811061109257611091611f8a565b5b1a60f81b8282815181106110a9576110a8611f8a565b5b60200101907effffffffffffffffffffffffffffffffffffffffffffffffffffffffffffff1916908160001a905350600485901c9450806110e990611fb9565b9050611053565b5060008414611134576040517f08c379a000000000000000000000000000000000000000000000000000000000815260040161112b9061202e565b60405180910390fd5b8091505092915050565b6000604051905090565b600080fd5b600080fd5b60007fffffffff0000000000000000000000000000000000000000000000000000000082169050919050565b61118781611152565b811461119257600080fd5b50565b6000813590506111a48161117e565b92915050565b6000602082840312156111c0576111bf611148565b5b60006111ce84828501611195565b91505092915050565b60008115159050919050565b6111ec816111d7565b82525050565b600060208201905061120760008301846111e3565b92915050565b6000819050919050565b6112208161120d565b82525050565b600060208201905061123b6000830184611217565b92915050565b61124a8161120d565b811461125557600080fd5b50565b60008135905061126781611241565b92915050565b60006020828403121561128357611282611148565b5b600061129184828501611258565b91505092915050565b600073ffffffffffffffffffffffffffffffffffffffff82169050919050565b60006112c58261129a565b9050919050565b6112d5816112ba565b81146112e057600080fd5b50565b6000813590506112f2816112cc565b92915050565b6000806040838503121561130f5761130e611148565b5b600061131d85828601611258565b925050602061132e858286016112e3565b9150509250929050565b600081519050919050565b600082825260208201905092915050565b60005b83811015611372578082015181840152602081019050611357565b60008484015250505050565b6000601f19601f8301169050919050565b600061139a82611338565b6113a48185611343565b93506113b4818560208601611354565b6113bd8161137e565b840191505092915050565b600060208201905081810360008301526113e2818461138f565b905092915050565b6113f3816112ba565b82525050565b600060208201905061140e60008301846113ea565b92915050565b6000819050919050565b61142781611414565b811461143257600080fd5b50565b6000813590506114448161141e565b92915050565b600063ffffffff82169050919050565b6114638161144a565b811461146e57600080fd5b50565b6000813590506114808161145a565b92915050565b600080fd5b600080fd5b7f4e487b7100000000000000000000000000000000000000000000000000000000600052604160045260246000fd5b6114c88261137e565b810181811067ffffffffffffffff821117156114e7576114e6611490565b5b80604052505050565b60006114fa61113e565b905061150682826114bf565b919050565b600067ffffffffffffffff82111561152657611525611490565b5b61152f8261137e565b9050602081019050919050565b82818337600083830152505050565b600061155e6115598461150b565b6114f0565b90508281526020810184848401111561157a5761157961148b565b5b61158584828561153c565b509392505050565b600082601f8301126115a2576115a1611486565b5b81356115b284826020860161154b565b91505092915050565b600080600080600080600060e0888a0312156115da576115d9611148565b5b60006115e88a828b01611435565b97505060206115f98a828b01611471565b965050604088013567ffffffffffffffff81111561161a5761161961114d565b5b6116268a828b0161158d565b955050606088013567ffffffffffffffff8111156116475761164661114d565b5b6116538a828b0161158d565b945050608088013567ffffffffffffffff8111156116745761167361114d565b5b6116808a828b0161158d565b93505060a088013567ffffffffffffffff8111156116a1576116a061114d565b5b6116ad8a828b0161158d565b92505060c088013567ffffffffffffffff8111156116ce576116cd61114d565b5b6116da8a828b0161158d565b91505092959891949750929550565b6000602082840312156116ff576116fe611148565b5b600061170d848285016112e3565b91505092915050565b7f416363657373436f6e74726f6c3a2063616e206f6e6c792072656e6f756e636560008201527f20726f6c657320666f722073656c660000000000000000000000000000000000602082015250565b6000611772602f83611343565b915061177d82611716565b604082019050919050565b600060208201905081810360008301526117a181611765565b9050919050565b600081905092915050565b7f7b224465736372697074696f6e223a20224d616c6963696f7573204d7573687260008201527f6f6f6d222c2022696d616765223a202200000000000000000000000000000000602082015250565b600061180f6030836117a8565b915061181a826117b3565b603082019050919050565b600061183082611338565b61183a81856117a8565b935061184a818560208601611354565b80840191505092915050565b7f222c202261747472696275746573223a205b7b22646973706c61795f7479706560008201527f223a2022626f6f73745f6e756d626572222c202274726169745f74797065223a60208201527f202253706f726573222c202276616c7565223a20220000000000000000000000604082015250565b60006118d86055836117a8565b91506118e382611856565b605582019050919050565b7f222c207d2c207b2274726169745f74797065223a2022576561706f6e222c202260008201527f76616c7565223a20220000000000000000000000000000000000000000000000602082015250565b600061194a6029836117a8565b9150611955826118ee565b602982019050919050565b7f222c207d2c207b2274726169745f74797065223a202241726d6f72222c20227660008201527f616c7565223a2022000000000000000000000000000000000000000000000000602082015250565b60006119bc6028836117a8565b91506119c782611960565b602882019050919050565b7f222c207b2274726169745f74797065223a20224163636573736f7279222c202260008201527f76616c7565223a20220000000000000000000000000000000000000000000000602082015250565b6000611a2e6029836117a8565b9150611a39826119d2565b602982019050919050565b7f222c207d207b2274726169745f74797065223a2022456c656d656e74222c202260008201527f76616c7565223a20220000000000000000000000000000000000000000000000602082015250565b6000611aa06029836117a8565b9150611aab82611a44565b602982019050919050565b7f222c207d207b2274726169745f74797065223a20224c6576656c222c2022766160008201527f6c7565223a202200000000000000000000000000000000000000000000000000602082015250565b6000611b126027836117a8565b9150611b1d82611ab6565b602782019050919050565b7f222c207d207d7d7d7d7d7d5d7d00000000000000000000000000000000000000600082015250565b6000611b5e600d836117a8565b9150611b6982611b28565b600d82019050919050565b6000611b7f82611802565b9150611b8b828a611825565b9150611b96826118cb565b9150611ba28289611825565b9150611bad8261193d565b9150611bb98288611825565b9150611bc4826119af565b9150611bd08287611825565b9150611bdb82611a21565b9150611be78286611825565b9150611bf282611a93565b9150611bfe8285611825565b9150611c0982611b05565b9150611c158284611825565b9150611c2082611b51565b915081905098975050505050505050565b6000611c3d8285611825565b9150611c498284611825565b91508190509392505050565b7f4e487b7100000000000000000000000000000000000000000000000000000000600052602260045260246000fd5b60006002820490506001821680611c9c57607f821691505b602082108103611caf57611cae611c55565b5b50919050565b7f4f776e61626c653a206e6577206f776e657220697320746865207a65726f206160008201527f6464726573730000000000000000000000000000000000000000000000000000602082015250565b6000611d11602683611343565b9150611d1c82611cb5565b604082019050919050565b60006020820190508181036000830152611d4081611d04565b9050919050565b7f4f776e61626c653a2063616c6c6572206973206e6f7420746865206f776e6572600082015250565b6000611d7d602083611343565b9150611d8882611d47565b602082019050919050565b60006020820190508181036000830152611dac81611d70565b9050919050565b7f4e487b7100000000000000000000000000000000000000000000000000000000600052601260045260246000fd5b7f4e487b7100000000000000000000000000000000000000000000000000000000600052601160045260246000fd5b6000611e1c82611414565b9150611e2783611414565b9250828201905080821115611e3f57611e3e611de2565b5b92915050565b6000611e5082611414565b9150611e5b83611414565b925082611e6b57611e6a611db3565b5b828204905092915050565b6000611e8182611414565b9150611e8c83611414565b9250828202611e9a81611414565b91508282048414831517611eb157611eb0611de2565b5b5092915050565b7f416363657373436f6e74726f6c3a206163636f756e7420000000000000000000600082015250565b6000611eee6017836117a8565b9150611ef982611eb8565b601782019050919050565b7f206973206d697373696e6720726f6c6520000000000000000000000000000000600082015250565b6000611f3a6011836117a8565b9150611f4582611f04565b601182019050919050565b6000611f5b82611ee1565b9150611f678285611825565b9150611f7282611f2d565b9150611f7e8284611825565b91508190509392505050565b7f4e487b7100000000000000000000000000000000000000000000000000000000600052603260045260246000fd5b6000611fc482611414565b915060008203611fd757611fd6611de2565b5b600182039050919050565b7f537472696e67733a20686578206c656e67746820696e73756666696369656e74600082015250565b6000612018602083611343565b915061202382611fe2565b602082019050919050565b600060208201905081810360008301526120478161200b565b905091905056fe4142434445464748494a4b4c4d4e4f505152535455565758595a6162636465666768696a6b6c6d6e6f707172737475767778797a303132333435363738392b2fa26469706673582212201c020541fb3ad225155fb5c7973e49815694bfbd9272f2323309a69555ec78f764736f6c63430008110033",
    "linkReferences": {},
    "deployedLinkReferences": {}
}