{
  "_format": "hh-sol-artifact-1",
  "contractName": "MintingMushroom",
  "sourceName": "contracts/MintingMushroom.sol",
  "abi": [
    {
      "inputs": [
        {
          "internalType": "address",
          "name": "admin",
          "type": "address"
        }
      ],
      "stateMutability": "nonpayable",
      "type": "constructor"
    },
    {
      "anonymous": false,
      "inputs": [
        {
          "indexed": true,
          "internalType": "address",
          "name": "owner",
          "type": "address"
        },
        {
          "indexed": true,
          "internalType": "address",
          "name": "approved",
          "type": "address"
        },
        {
          "indexed": true,
          "internalType": "uint256",
          "name": "tokenId",
          "type": "uint256"
        }
      ],
      "name": "Approval",
      "type": "event"
    },
    {
      "anonymous": false,
      "inputs": [
        {
          "indexed": true,
          "internalType": "address",
          "name": "owner",
          "type": "address"
        },
        {
          "indexed": true,
          "internalType": "address",
          "name": "operator",
          "type": "address"
        },
        {
          "indexed": false,
          "internalType": "bool",
          "name": "approved",
          "type": "bool"
        }
      ],
      "name": "ApprovalForAll",
      "type": "event"
    },
    {
      "anonymous": false,
      "inputs": [
        {
          "indexed": true,
          "internalType": "address",
          "name": "previousOwner",
          "type": "address"
        },
        {
          "indexed": true,
          "internalType": "address",
          "name": "newOwner",
          "type": "address"
        }
      ],
      "name": "OwnershipTransferred",
      "type": "event"
    },
    {
      "anonymous": false,
      "inputs": [
        {
          "indexed": true,
          "internalType": "bytes32",
          "name": "role",
          "type": "bytes32"
        },
        {
          "indexed": true,
          "internalType": "bytes32",
          "name": "previousAdminRole",
          "type": "bytes32"
        },
        {
          "indexed": true,
          "internalType": "bytes32",
          "name": "newAdminRole",
          "type": "bytes32"
        }
      ],
      "name": "RoleAdminChanged",
      "type": "event"
    },
    {
      "anonymous": false,
      "inputs": [
        {
          "indexed": true,
          "internalType": "bytes32",
          "name": "role",
          "type": "bytes32"
        },
        {
          "indexed": true,
          "internalType": "address",
          "name": "account",
          "type": "address"
        },
        {
          "indexed": true,
          "internalType": "address",
          "name": "sender",
          "type": "address"
        }
      ],
      "name": "RoleGranted",
      "type": "event"
    },
    {
      "anonymous": false,
      "inputs": [
        {
          "indexed": true,
          "internalType": "bytes32",
          "name": "role",
          "type": "bytes32"
        },
        {
          "indexed": true,
          "internalType": "address",
          "name": "account",
          "type": "address"
        },
        {
          "indexed": true,
          "internalType": "address",
          "name": "sender",
          "type": "address"
        }
      ],
      "name": "RoleRevoked",
      "type": "event"
    },
    {
      "anonymous": false,
      "inputs": [
        {
          "indexed": true,
          "internalType": "address",
          "name": "from",
          "type": "address"
        },
        {
          "indexed": true,
          "internalType": "address",
          "name": "to",
          "type": "address"
        },
        {
          "indexed": true,
          "internalType": "uint256",
          "name": "tokenId",
          "type": "uint256"
        }
      ],
      "name": "Transfer",
      "type": "event"
    },
    {
      "inputs": [],
      "name": "CONTRACT_ROLE",
      "outputs": [
        {
          "internalType": "bytes32",
          "name": "",
          "type": "bytes32"
        }
      ],
      "stateMutability": "view",
      "type": "function"
    },
    {
      "inputs": [],
      "name": "DEFAULT_ADMIN_ROLE",
      "outputs": [
        {
          "internalType": "bytes32",
          "name": "",
          "type": "bytes32"
        }
      ],
      "stateMutability": "view",
      "type": "function"
    },
    {
      "inputs": [],
      "name": "UPDATER_ROLE",
      "outputs": [
        {
          "internalType": "bytes32",
          "name": "",
          "type": "bytes32"
        }
      ],
      "stateMutability": "view",
      "type": "function"
    },
    {
      "inputs": [],
      "name": "_maxPerWallet",
      "outputs": [
        {
          "internalType": "uint16",
          "name": "",
          "type": "uint16"
        }
      ],
      "stateMutability": "view",
      "type": "function"
    },
    {
      "inputs": [],
      "name": "_mintLimit",
      "outputs": [
        {
          "internalType": "uint32",
          "name": "",
          "type": "uint32"
        }
      ],
      "stateMutability": "view",
      "type": "function"
    },
    {
      "inputs": [],
      "name": "_mintPrice",
      "outputs": [
        {
          "internalType": "uint256",
          "name": "",
          "type": "uint256"
        }
      ],
      "stateMutability": "view",
      "type": "function"
    },
    {
      "inputs": [
        {
          "internalType": "address",
          "name": "to",
          "type": "address"
        },
        {
          "internalType": "uint256",
          "name": "tokenId",
          "type": "uint256"
        }
      ],
      "name": "approve",
      "outputs": [],
      "stateMutability": "nonpayable",
      "type": "function"
    },
    {
      "inputs": [
        {
          "internalType": "address",
          "name": "owner",
          "type": "address"
        }
      ],
      "name": "balanceOf",
      "outputs": [
        {
          "internalType": "uint256",
          "name": "",
          "type": "uint256"
        }
      ],
      "stateMutability": "view",
      "type": "function"
    },
    {
      "inputs": [],
      "name": "checkIfHasNFT",
      "outputs": [
        {
          "internalType": "uint32",
          "name": "",
          "type": "uint32"
        }
      ],
      "stateMutability": "view",
      "type": "function"
    },
    {
      "inputs": [
        {
          "internalType": "address",
          "name": "toWallet",
          "type": "address"
        }
      ],
      "name": "freeMint",
      "outputs": [],
      "stateMutability": "nonpayable",
      "type": "function"
    },
    {
      "inputs": [
        {
          "internalType": "uint256",
          "name": "tokenId",
          "type": "uint256"
        }
      ],
      "name": "getApproved",
      "outputs": [
        {
          "internalType": "address",
          "name": "",
          "type": "address"
        }
      ],
      "stateMutability": "view",
      "type": "function"
    },
    {
      "inputs": [],
      "name": "getBalance",
      "outputs": [
        {
          "internalType": "uint256",
          "name": "",
          "type": "uint256"
        }
      ],
      "stateMutability": "view",
      "type": "function"
    },
    {
      "inputs": [
        {
          "internalType": "bytes32",
          "name": "role",
          "type": "bytes32"
        }
      ],
      "name": "getRoleAdmin",
      "outputs": [
        {
          "internalType": "bytes32",
          "name": "",
          "type": "bytes32"
        }
      ],
      "stateMutability": "view",
      "type": "function"
    },
    {
      "inputs": [],
      "name": "getTokenIds",
      "outputs": [
        {
          "internalType": "uint256",
          "name": "",
          "type": "uint256"
        }
      ],
      "stateMutability": "view",
      "type": "function"
    },
    {
      "inputs": [
        {
          "internalType": "bytes32",
          "name": "role",
          "type": "bytes32"
        },
        {
          "internalType": "address",
          "name": "account",
          "type": "address"
        }
      ],
      "name": "grantRole",
      "outputs": [],
      "stateMutability": "nonpayable",
      "type": "function"
    },
    {
      "inputs": [
        {
          "internalType": "bytes32",
          "name": "role",
          "type": "bytes32"
        },
        {
          "internalType": "address",
          "name": "account",
          "type": "address"
        }
      ],
      "name": "hasRole",
      "outputs": [
        {
          "internalType": "bool",
          "name": "",
          "type": "bool"
        }
      ],
      "stateMutability": "view",
      "type": "function"
    },
    {
      "inputs": [
        {
          "internalType": "address",
          "name": "owner",
          "type": "address"
        },
        {
          "internalType": "address",
          "name": "operator",
          "type": "address"
        }
      ],
      "name": "isApprovedForAll",
      "outputs": [
        {
          "internalType": "bool",
          "name": "",
          "type": "bool"
        }
      ],
      "stateMutability": "view",
      "type": "function"
    },
    {
      "inputs": [
        {
          "internalType": "address",
          "name": "recipient",
          "type": "address"
        }
      ],
      "name": "mintNFT",
      "outputs": [
        {
          "internalType": "uint256",
          "name": "",
          "type": "uint256"
        }
      ],
      "stateMutability": "payable",
      "type": "function"
    },
    {
      "inputs": [],
      "name": "name",
      "outputs": [
        {
          "internalType": "string",
          "name": "",
          "type": "string"
        }
      ],
      "stateMutability": "view",
      "type": "function"
    },
    {
      "inputs": [],
      "name": "owner",
      "outputs": [
        {
          "internalType": "address",
          "name": "",
          "type": "address"
        }
      ],
      "stateMutability": "view",
      "type": "function"
    },
    {
      "inputs": [
        {
          "internalType": "uint256",
          "name": "tokenId",
          "type": "uint256"
        }
      ],
      "name": "ownerOf",
      "outputs": [
        {
          "internalType": "address",
          "name": "",
          "type": "address"
        }
      ],
      "stateMutability": "view",
      "type": "function"
    },
    {
      "inputs": [],
      "name": "renounceOwnership",
      "outputs": [],
      "stateMutability": "nonpayable",
      "type": "function"
    },
    {
      "inputs": [
        {
          "internalType": "bytes32",
          "name": "role",
          "type": "bytes32"
        },
        {
          "internalType": "address",
          "name": "account",
          "type": "address"
        }
      ],
      "name": "renounceRole",
      "outputs": [],
      "stateMutability": "nonpayable",
      "type": "function"
    },
    {
      "inputs": [
        {
          "internalType": "bytes32",
          "name": "role",
          "type": "bytes32"
        },
        {
          "internalType": "address",
          "name": "account",
          "type": "address"
        }
      ],
      "name": "revokeRole",
      "outputs": [],
      "stateMutability": "nonpayable",
      "type": "function"
    },
    {
      "inputs": [
        {
          "internalType": "address",
          "name": "from",
          "type": "address"
        },
        {
          "internalType": "address",
          "name": "to",
          "type": "address"
        },
        {
          "internalType": "uint256",
          "name": "tokenId",
          "type": "uint256"
        }
      ],
      "name": "safeTransferFrom",
      "outputs": [],
      "stateMutability": "nonpayable",
      "type": "function"
    },
    {
      "inputs": [
        {
          "internalType": "address",
          "name": "from",
          "type": "address"
        },
        {
          "internalType": "address",
          "name": "to",
          "type": "address"
        },
        {
          "internalType": "uint256",
          "name": "tokenId",
          "type": "uint256"
        },
        {
          "internalType": "bytes",
          "name": "data",
          "type": "bytes"
        }
      ],
      "name": "safeTransferFrom",
      "outputs": [],
      "stateMutability": "nonpayable",
      "type": "function"
    },
    {
      "inputs": [
        {
          "internalType": "address",
          "name": "operator",
          "type": "address"
        },
        {
          "internalType": "bool",
          "name": "approved",
          "type": "bool"
        }
      ],
      "name": "setApprovalForAll",
      "outputs": [],
      "stateMutability": "nonpayable",
      "type": "function"
    },
    {
      "inputs": [
        {
          "internalType": "uint32",
          "name": "newLimit",
          "type": "uint32"
        }
      ],
      "name": "setMintLimit",
      "outputs": [],
      "stateMutability": "nonpayable",
      "type": "function"
    },
    {
      "inputs": [
        {
          "internalType": "uint256",
          "name": "newPrice",
          "type": "uint256"
        }
      ],
      "name": "setMintPrice",
      "outputs": [],
      "stateMutability": "nonpayable",
      "type": "function"
    },
    {
      "inputs": [
        {
          "internalType": "bytes4",
          "name": "interfaceId",
          "type": "bytes4"
        }
      ],
      "name": "supportsInterface",
      "outputs": [
        {
          "internalType": "bool",
          "name": "",
          "type": "bool"
        }
      ],
      "stateMutability": "view",
      "type": "function"
    },
    {
      "inputs": [],
      "name": "symbol",
      "outputs": [
        {
          "internalType": "string",
          "name": "",
          "type": "string"
        }
      ],
      "stateMutability": "view",
      "type": "function"
    },
    {
      "inputs": [
        {
          "internalType": "uint256",
          "name": "tokenId",
          "type": "uint256"
        }
      ],
      "name": "tokenURI",
      "outputs": [
        {
          "internalType": "string",
          "name": "",
          "type": "string"
        }
      ],
      "stateMutability": "view",
      "type": "function"
    },
    {
      "inputs": [
        {
          "internalType": "address",
          "name": "from",
          "type": "address"
        },
        {
          "internalType": "address",
          "name": "to",
          "type": "address"
        },
        {
          "internalType": "uint256",
          "name": "tokenId",
          "type": "uint256"
        }
      ],
      "name": "transferFrom",
      "outputs": [],
      "stateMutability": "nonpayable",
      "type": "function"
    },
    {
      "inputs": [
        {
          "internalType": "address",
          "name": "newOwner",
          "type": "address"
        }
      ],
      "name": "transferOwnership",
      "outputs": [],
      "stateMutability": "nonpayable",
      "type": "function"
    },
    {
      "inputs": [
        {
          "internalType": "address",
          "name": "_to",
          "type": "address"
        },
        {
          "internalType": "uint256",
          "name": "_value",
          "type": "uint256"
        }
      ],
      "name": "withdrawBalance",
      "outputs": [],
      "stateMutability": "nonpayable",
      "type": "function"
    },
    {
      "stateMutability": "payable",
      "type": "receive"
    }
  ],
  "bytecode": "0x60806040526103e8600a60006101000a81548163ffffffff021916908363ffffffff1602179055506064600a60046101000a81548161ffff021916908361ffff160217905550662386f26fc10000600b553480156200005d57600080fd5b5060405162004a2338038062004a23833981810160405281019062000083919062000477565b6040518060400160405280601281526020017f4d616c6963696f7573204d757368726f6f6d00000000000000000000000000008152506040518060400160405280600481526020017f4d55534800000000000000000000000000000000000000000000000000000000815250816000908162000100919062000723565b50806001908162000112919062000723565b5050506200013562000129620001cc60201b60201c565b620001d460201b60201c565b6200014c60086200029a60201b6200139f1760201c565b620001616000801b82620002b060201b60201c565b620001937f73e573f9566d61418a34d5de3ff49360f9c51fec37f7486551670290f6285dab33620002b060201b60201c565b620001c57f364d3d7565c7a8300c96fd53e065d19b65848d7b23b3191adcd55621c744223c33620002b060201b60201c565b506200080a565b600033905090565b6000600760009054906101000a900473ffffffffffffffffffffffffffffffffffffffff16905081600760006101000a81548173ffffffffffffffffffffffffffffffffffffffff021916908373ffffffffffffffffffffffffffffffffffffffff1602179055508173ffffffffffffffffffffffffffffffffffffffff168173ffffffffffffffffffffffffffffffffffffffff167f8be0079c531659141344cd1fd0a4f28419497f9722a3daafe3b4186f6b6457e060405160405180910390a35050565b6001816000016000828254019250508190555050565b620002c28282620003a260201b60201c565b6200039e5760016006600084815260200190815260200160002060000160008373ffffffffffffffffffffffffffffffffffffffff1673ffffffffffffffffffffffffffffffffffffffff16815260200190815260200160002060006101000a81548160ff02191690831515021790555062000343620001cc60201b60201c565b73ffffffffffffffffffffffffffffffffffffffff168173ffffffffffffffffffffffffffffffffffffffff16837f2f8788117e7eff1d82e926ec794901d17c78024a50270940304540a733656f0d60405160405180910390a45b5050565b60006006600084815260200190815260200160002060000160008373ffffffffffffffffffffffffffffffffffffffff1673ffffffffffffffffffffffffffffffffffffffff16815260200190815260200160002060009054906101000a900460ff16905092915050565b600080fd5b600073ffffffffffffffffffffffffffffffffffffffff82169050919050565b60006200043f8262000412565b9050919050565b620004518162000432565b81146200045d57600080fd5b50565b600081519050620004718162000446565b92915050565b60006020828403121562000490576200048f6200040d565b5b6000620004a08482850162000460565b91505092915050565b600081519050919050565b7f4e487b7100000000000000000000000000000000000000000000000000000000600052604160045260246000fd5b7f4e487b7100000000000000000000000000000000000000000000000000000000600052602260045260246000fd5b600060028204905060018216806200052b57607f821691505b602082108103620005415762000540620004e3565b5b50919050565b60008190508160005260206000209050919050565b60006020601f8301049050919050565b600082821b905092915050565b600060088302620005ab7fffffffffffffffffffffffffffffffffffffffffffffffffffffffffffffffff826200056c565b620005b786836200056c565b95508019841693508086168417925050509392505050565b6000819050919050565b6000819050919050565b600062000604620005fe620005f884620005cf565b620005d9565b620005cf565b9050919050565b6000819050919050565b6200062083620005e3565b620006386200062f826200060b565b84845462000579565b825550505050565b600090565b6200064f62000640565b6200065c81848462000615565b505050565b5b8181101562000684576200067860008262000645565b60018101905062000662565b5050565b601f821115620006d3576200069d8162000547565b620006a8846200055c565b81016020851015620006b8578190505b620006d0620006c7856200055c565b83018262000661565b50505b505050565b600082821c905092915050565b6000620006f860001984600802620006d8565b1980831691505092915050565b6000620007138383620006e5565b9150826002028217905092915050565b6200072e82620004a9565b67ffffffffffffffff8111156200074a5762000749620004b4565b5b62000756825462000512565b6200076382828562000688565b600060209050601f8311600181146200079b576000841562000786578287015190505b62000792858262000705565b86555062000802565b601f198416620007ab8662000547565b60005b82811015620007d557848901518255600182019150602085019450602081019050620007ae565b86831015620007f55784890151620007f1601f891682620006e5565b8355505b6001600288020188555050505b505050505050565b614209806200081a6000396000f3fe6080604052600436106102085760003560e01c806370a0823111610118578063a22cb465116100a0578063e985e9c51161006f578063e985e9c514610779578063f1cf6409146107b6578063f2fde38b146107e1578063f4a0a5281461080a578063fa07ce1d146108335761020f565b8063a22cb465146106c1578063b88d4fde146106ea578063c87b56dd14610713578063d547741f146107505761020f565b80638da5cb5b116100e75780638da5cb5b146105da57806390de88331461060557806391d148541461062e57806395d89b411461066b578063a217fddf146106965761020f565b806370a0823114610530578063715018a61461056d5780637ca17ee3146105845780637fa8e5e4146105af5761020f565b806323b872dd1161019b57806342842e0e1161016a57806342842e0e1461044457806347e633801461046d57806354ba0f27146104985780636352211e146104c857806367f718a9146105055761020f565b806323b872dd1461038c578063248a9ca3146103b55780632f2ff15d146103f257806336568abe1461041b5761020f565b8063081812fc116101d7578063081812fc146102d2578063095ea7b31461030f5780630cf20cc91461033857806312065fe0146103615761020f565b806301ffc9a7146102145780630387da421461025157806303fe46ab1461027c57806306fdde03146102a75761020f565b3661020f57005b600080fd5b34801561022057600080fd5b5061023b60048036038101906102369190612bac565b61085c565b6040516102489190612bf4565b60405180910390f35b34801561025d57600080fd5b5061026661086e565b6040516102739190612c28565b60405180910390f35b34801561028857600080fd5b50610291610874565b60405161029e9190612c5c565b60405180910390f35b3480156102b357600080fd5b506102bc610898565b6040516102c99190612d07565b60405180910390f35b3480156102de57600080fd5b506102f960048036038101906102f49190612d55565b61092a565b6040516103069190612dc3565b60405180910390f35b34801561031b57600080fd5b5061033660048036038101906103319190612e0a565b610970565b005b34801561034457600080fd5b5061035f600480360381019061035a9190612e0a565b610a87565b005b34801561036d57600080fd5b50610376610b40565b6040516103839190612c28565b60405180910390f35b34801561039857600080fd5b506103b360048036038101906103ae9190612e4a565b610b48565b005b3480156103c157600080fd5b506103dc60048036038101906103d79190612ec9565b610ba8565b6040516103e99190612c5c565b60405180910390f35b3480156103fe57600080fd5b5061041960048036038101906104149190612ef6565b610bc8565b005b34801561042757600080fd5b50610442600480360381019061043d9190612ef6565b610be9565b005b34801561045057600080fd5b5061046b60048036038101906104669190612e4a565b610c6c565b005b34801561047957600080fd5b50610482610c8c565b60405161048f9190612c5c565b60405180910390f35b6104b260048036038101906104ad9190612f36565b610cb0565b6040516104bf9190612c28565b60405180910390f35b3480156104d457600080fd5b506104ef60048036038101906104ea9190612d55565b610de3565b6040516104fc9190612dc3565b60405180910390f35b34801561051157600080fd5b5061051a610e69565b6040516105279190612c28565b60405180910390f35b34801561053c57600080fd5b5061055760048036038101906105529190612f36565b610e7a565b6040516105649190612c28565b60405180910390f35b34801561057957600080fd5b50610582610f31565b005b34801561059057600080fd5b50610599610f45565b6040516105a69190612f82565b60405180910390f35b3480156105bb57600080fd5b506105c4610f74565b6040516105d19190612fba565b60405180910390f35b3480156105e657600080fd5b506105ef610f88565b6040516105fc9190612dc3565b60405180910390f35b34801561061157600080fd5b5061062c60048036038101906106279190613001565b610fb2565b005b34801561063a57600080fd5b5061065560048036038101906106509190612ef6565b611001565b6040516106629190612bf4565b60405180910390f35b34801561067757600080fd5b5061068061106c565b60405161068d9190612d07565b60405180910390f35b3480156106a257600080fd5b506106ab6110fe565b6040516106b89190612c5c565b60405180910390f35b3480156106cd57600080fd5b506106e860048036038101906106e3919061305a565b611105565b005b3480156106f657600080fd5b50610711600480360381019061070c91906131cf565b61111b565b005b34801561071f57600080fd5b5061073a60048036038101906107359190612d55565b61117d565b6040516107479190612d07565b60405180910390f35b34801561075c57600080fd5b5061077760048036038101906107729190612ef6565b6111e5565b005b34801561078557600080fd5b506107a0600480360381019061079b9190613252565b611206565b6040516107ad9190612bf4565b60405180910390f35b3480156107c257600080fd5b506107cb61129a565b6040516107d89190612f82565b60405180910390f35b3480156107ed57600080fd5b5061080860048036038101906108039190612f36565b6112b0565b005b34801561081657600080fd5b50610831600480360381019061082c9190612d55565b611333565b005b34801561083f57600080fd5b5061085a60048036038101906108559190612f36565b611368565b005b6000610867826113b5565b9050919050565b600b5481565b7f364d3d7565c7a8300c96fd53e065d19b65848d7b23b3191adcd55621c744223c81565b6060600080546108a7906132c1565b80601f01602080910402602001604051908101604052809291908181526020018280546108d3906132c1565b80156109205780601f106108f557610100808354040283529160200191610920565b820191906000526020600020905b81548152906001019060200180831161090357829003601f168201915b5050505050905090565b60006109358261142f565b6004600083815260200190815260200160002060009054906101000a900473ffffffffffffffffffffffffffffffffffffffff169050919050565b600061097b82610de3565b90508073ffffffffffffffffffffffffffffffffffffffff168373ffffffffffffffffffffffffffffffffffffffff16036109eb576040517f08c379a00000000000000000000000000000000000000000000000000000000081526004016109e290613364565b60405180910390fd5b8073ffffffffffffffffffffffffffffffffffffffff16610a0a61147a565b73ffffffffffffffffffffffffffffffffffffffff161480610a395750610a3881610a3361147a565b611206565b5b610a78576040517f08c379a0000000000000000000000000000000000000000000000000000000008152600401610a6f906133f6565b60405180910390fd5b610a828383611482565b505050565b7f73e573f9566d61418a34d5de3ff49360f9c51fec37f7486551670290f6285dab610ab18161153b565b47821115610af4576040517f08c379a0000000000000000000000000000000000000000000000000000000008152600401610aeb90613462565b60405180910390fd5b8273ffffffffffffffffffffffffffffffffffffffff166108fc839081150290604051600060405180830381858888f19350505050158015610b3a573d6000803e3d6000fd5b50505050565b600047905090565b610b59610b5361147a565b8261154f565b610b98576040517f08c379a0000000000000000000000000000000000000000000000000000000008152600401610b8f906134f4565b60405180910390fd5b610ba38383836115e4565b505050565b600060066000838152602001908152602001600020600101549050919050565b610bd182610ba8565b610bda8161153b565b610be483836118dd565b505050565b610bf161147a565b73ffffffffffffffffffffffffffffffffffffffff168173ffffffffffffffffffffffffffffffffffffffff1614610c5e576040517f08c379a0000000000000000000000000000000000000000000000000000000008152600401610c5590613586565b60405180910390fd5b610c6882826119be565b5050565b610c878383836040518060200160405280600081525061111b565b505050565b7f73e573f9566d61418a34d5de3ff49360f9c51fec37f7486551670290f6285dab81565b6000600a60009054906101000a900463ffffffff1663ffffffff16610cd56008611aa0565b10610d15576040517f08c379a0000000000000000000000000000000000000000000000000000000008152600401610d0c906135f2565b60405180910390fd5b600b54341015610d5a576040517f08c379a0000000000000000000000000000000000000000000000000000000008152600401610d5190613462565b60405180910390fd5b600a60049054906101000a900461ffff1661ffff16610d7833610e7a565b10610db8576040517f08c379a0000000000000000000000000000000000000000000000000000000008152600401610daf9061365e565b60405180910390fd5b610dc2600861139f565b6000610dce6008611aa0565b9050610dda8382611aae565b80915050919050565b600080610def83611ccb565b9050600073ffffffffffffffffffffffffffffffffffffffff168173ffffffffffffffffffffffffffffffffffffffff1603610e60576040517f08c379a0000000000000000000000000000000000000000000000000000000008152600401610e57906136ca565b60405180910390fd5b80915050919050565b6000610e756008611aa0565b905090565b60008073ffffffffffffffffffffffffffffffffffffffff168273ffffffffffffffffffffffffffffffffffffffff1603610eea576040517f08c379a0000000000000000000000000000000000000000000000000000000008152600401610ee19061375c565b60405180910390fd5b600360008373ffffffffffffffffffffffffffffffffffffffff1673ffffffffffffffffffffffffffffffffffffffff168152602001908152602001600020549050919050565b610f39611d08565b610f436000611d86565b565b6000600c60006001815260200190815260200160002060010160009054906101000a900463ffffffff16905090565b600a60049054906101000a900461ffff1681565b6000600760009054906101000a900473ffffffffffffffffffffffffffffffffffffffff16905090565b7f73e573f9566d61418a34d5de3ff49360f9c51fec37f7486551670290f6285dab610fdc8161153b565b81600a60006101000a81548163ffffffff021916908363ffffffff1602179055505050565b60006006600084815260200190815260200160002060000160008373ffffffffffffffffffffffffffffffffffffffff1673ffffffffffffffffffffffffffffffffffffffff16815260200190815260200160002060009054906101000a900460ff16905092915050565b60606001805461107b906132c1565b80601f01602080910402602001604051908101604052809291908181526020018280546110a7906132c1565b80156110f45780601f106110c9576101008083540402835291602001916110f4565b820191906000526020600020905b8154815290600101906020018083116110d757829003601f168201915b5050505050905090565b6000801b81565b61111761111061147a565b8383611e4c565b5050565b61112c61112661147a565b8361154f565b61116b576040517f08c379a0000000000000000000000000000000000000000000000000000000008152600401611162906134f4565b60405180910390fd5b61117784848484611fb8565b50505050565b60606111888261142f565b6000611192612014565b905060008151116111b257604051806020016040528060008152506111dd565b806111bc8461202b565b6040516020016111cd9291906137b8565b6040516020818303038152906040525b915050919050565b6111ee82610ba8565b6111f78161153b565b61120183836119be565b505050565b6000600560008473ffffffffffffffffffffffffffffffffffffffff1673ffffffffffffffffffffffffffffffffffffffff16815260200190815260200160002060008373ffffffffffffffffffffffffffffffffffffffff1673ffffffffffffffffffffffffffffffffffffffff16815260200190815260200160002060009054906101000a900460ff16905092915050565b600a60009054906101000a900463ffffffff1681565b6112b8611d08565b600073ffffffffffffffffffffffffffffffffffffffff168173ffffffffffffffffffffffffffffffffffffffff1603611327576040517f08c379a000000000000000000000000000000000000000000000000000000000815260040161131e9061384e565b60405180910390fd5b61133081611d86565b50565b7f73e573f9566d61418a34d5de3ff49360f9c51fec37f7486551670290f6285dab61135d8161153b565b81600b819055505050565b7f73e573f9566d61418a34d5de3ff49360f9c51fec37f7486551670290f6285dab6113928161153b565b61139b826120f9565b5050565b6001816000016000828254019250508190555050565b60007f7965db0b000000000000000000000000000000000000000000000000000000007bffffffffffffffffffffffffffffffffffffffffffffffffffffffff1916827bffffffffffffffffffffffffffffffffffffffffffffffffffffffff1916148061142857506114278261229c565b5b9050919050565b6114388161237e565b611477576040517f08c379a000000000000000000000000000000000000000000000000000000000815260040161146e906136ca565b60405180910390fd5b50565b600033905090565b816004600083815260200190815260200160002060006101000a81548173ffffffffffffffffffffffffffffffffffffffff021916908373ffffffffffffffffffffffffffffffffffffffff160217905550808273ffffffffffffffffffffffffffffffffffffffff166114f583610de3565b73ffffffffffffffffffffffffffffffffffffffff167f8c5be1e5ebec7d5bd14f71427d1e84f3dd0314c0f7b2291e5b200ac8c7c3b92560405160405180910390a45050565b61154c8161154761147a565b6123bf565b50565b60008061155b83610de3565b90508073ffffffffffffffffffffffffffffffffffffffff168473ffffffffffffffffffffffffffffffffffffffff16148061159d575061159c8185611206565b5b806115db57508373ffffffffffffffffffffffffffffffffffffffff166115c38461092a565b73ffffffffffffffffffffffffffffffffffffffff16145b91505092915050565b8273ffffffffffffffffffffffffffffffffffffffff1661160482610de3565b73ffffffffffffffffffffffffffffffffffffffff161461165a576040517f08c379a0000000000000000000000000000000000000000000000000000000008152600401611651906138e0565b60405180910390fd5b600073ffffffffffffffffffffffffffffffffffffffff168273ffffffffffffffffffffffffffffffffffffffff16036116c9576040517f08c379a00000000000000000000000000000000000000000000000000000000081526004016116c090613972565b60405180910390fd5b6116d68383836001612444565b8273ffffffffffffffffffffffffffffffffffffffff166116f682610de3565b73ffffffffffffffffffffffffffffffffffffffff161461174c576040517f08c379a0000000000000000000000000000000000000000000000000000000008152600401611743906138e0565b60405180910390fd5b6004600082815260200190815260200160002060006101000a81549073ffffffffffffffffffffffffffffffffffffffff02191690556001600360008573ffffffffffffffffffffffffffffffffffffffff1673ffffffffffffffffffffffffffffffffffffffff168152602001908152602001600020600082825403925050819055506001600360008473ffffffffffffffffffffffffffffffffffffffff1673ffffffffffffffffffffffffffffffffffffffff16815260200190815260200160002060008282540192505081905550816002600083815260200190815260200160002060006101000a81548173ffffffffffffffffffffffffffffffffffffffff021916908373ffffffffffffffffffffffffffffffffffffffff160217905550808273ffffffffffffffffffffffffffffffffffffffff168473ffffffffffffffffffffffffffffffffffffffff167fddf252ad1be2c89b69c2b068fc378daa952ba7f163c4a11628f55a4df523b3ef60405160405180910390a46118d8838383600161256a565b505050565b6118e78282611001565b6119ba5760016006600084815260200190815260200160002060000160008373ffffffffffffffffffffffffffffffffffffffff1673ffffffffffffffffffffffffffffffffffffffff16815260200190815260200160002060006101000a81548160ff02191690831515021790555061195f61147a565b73ffffffffffffffffffffffffffffffffffffffff168173ffffffffffffffffffffffffffffffffffffffff16837f2f8788117e7eff1d82e926ec794901d17c78024a50270940304540a733656f0d60405160405180910390a45b5050565b6119c88282611001565b15611a9c5760006006600084815260200190815260200160002060000160008373ffffffffffffffffffffffffffffffffffffffff1673ffffffffffffffffffffffffffffffffffffffff16815260200190815260200160002060006101000a81548160ff021916908315150217905550611a4161147a565b73ffffffffffffffffffffffffffffffffffffffff168173ffffffffffffffffffffffffffffffffffffffff16837ff6391f5c32d9c69d2a47ea670b442974b53935d1edc7fd64eb21e047a839171b60405160405180910390a45b5050565b600081600001549050919050565b600073ffffffffffffffffffffffffffffffffffffffff168273ffffffffffffffffffffffffffffffffffffffff1603611b1d576040517f08c379a0000000000000000000000000000000000000000000000000000000008152600401611b14906139de565b60405180910390fd5b611b268161237e565b15611b66576040517f08c379a0000000000000000000000000000000000000000000000000000000008152600401611b5d90613a4a565b60405180910390fd5b611b74600083836001612444565b611b7d8161237e565b15611bbd576040517f08c379a0000000000000000000000000000000000000000000000000000000008152600401611bb490613a4a565b60405180910390fd5b6001600360008473ffffffffffffffffffffffffffffffffffffffff1673ffffffffffffffffffffffffffffffffffffffff16815260200190815260200160002060008282540192505081905550816002600083815260200190815260200160002060006101000a81548173ffffffffffffffffffffffffffffffffffffffff021916908373ffffffffffffffffffffffffffffffffffffffff160217905550808273ffffffffffffffffffffffffffffffffffffffff16600073ffffffffffffffffffffffffffffffffffffffff167fddf252ad1be2c89b69c2b068fc378daa952ba7f163c4a11628f55a4df523b3ef60405160405180910390a4611cc760008383600161256a565b5050565b60006002600083815260200190815260200160002060009054906101000a900473ffffffffffffffffffffffffffffffffffffffff169050919050565b611d1061147a565b73ffffffffffffffffffffffffffffffffffffffff16611d2e610f88565b73ffffffffffffffffffffffffffffffffffffffff1614611d84576040517f08c379a0000000000000000000000000000000000000000000000000000000008152600401611d7b90613ab6565b60405180910390fd5b565b6000600760009054906101000a900473ffffffffffffffffffffffffffffffffffffffff16905081600760006101000a81548173ffffffffffffffffffffffffffffffffffffffff021916908373ffffffffffffffffffffffffffffffffffffffff1602179055508173ffffffffffffffffffffffffffffffffffffffff168173ffffffffffffffffffffffffffffffffffffffff167f8be0079c531659141344cd1fd0a4f28419497f9722a3daafe3b4186f6b6457e060405160405180910390a35050565b8173ffffffffffffffffffffffffffffffffffffffff168373ffffffffffffffffffffffffffffffffffffffff1603611eba576040517f08c379a0000000000000000000000000000000000000000000000000000000008152600401611eb190613b22565b60405180910390fd5b80600560008573ffffffffffffffffffffffffffffffffffffffff1673ffffffffffffffffffffffffffffffffffffffff16815260200190815260200160002060008473ffffffffffffffffffffffffffffffffffffffff1673ffffffffffffffffffffffffffffffffffffffff16815260200190815260200160002060006101000a81548160ff0219169083151502179055508173ffffffffffffffffffffffffffffffffffffffff168373ffffffffffffffffffffffffffffffffffffffff167f17307eab39ab6107e8899845ad3d59bd9653f200f220920489ca2b5937696c3183604051611fab9190612bf4565b60405180910390a3505050565b611fc38484846115e4565b611fcf84848484612570565b61200e576040517f08c379a000000000000000000000000000000000000000000000000000000000815260040161200590613bb4565b60405180910390fd5b50505050565b606060405180602001604052806000815250905090565b60606000600161203a846126f7565b01905060008167ffffffffffffffff811115612059576120586130a4565b5b6040519080825280601f01601f19166020018201604052801561208b5781602001600182028036833780820191505090505b509050600082602001820190505b6001156120ee578080600190039150507f3031323334353637383961626364656600000000000000000000000000000000600a86061a8153600a85816120e2576120e1613bd4565b5b04945060008503612099575b819350505050919050565b60006121056008611aa0565b9050600a60009054906101000a900463ffffffff1663ffffffff168110612161576040517f08c379a0000000000000000000000000000000000000000000000000000000008152600401612158906135f2565b60405180910390fd5b600a60049054906101000a900461ffff1661ffff1661217f33610e7a565b106121bf576040517f08c379a00000000000000000000000000000000000000000000000000000000081526004016121b69061365e565b60405180910390fd5b6121c98282611aae565b6040518060800160405280828152602001600063ffffffff1681526020016040518060400160405280600681526020017f53756c667572000000000000000000000000000000000000000000000000000081525081526020016000815250600c60008381526020019081526020016000206000820151816000015560208201518160010160006101000a81548163ffffffff021916908363ffffffff16021790555060408201518160020190816122809190613daf565b5060608201518160030155905050612298600861139f565b5050565b60007f80ac58cd000000000000000000000000000000000000000000000000000000007bffffffffffffffffffffffffffffffffffffffffffffffffffffffff1916827bffffffffffffffffffffffffffffffffffffffffffffffffffffffff1916148061236757507f5b5e139f000000000000000000000000000000000000000000000000000000007bffffffffffffffffffffffffffffffffffffffffffffffffffffffff1916827bffffffffffffffffffffffffffffffffffffffffffffffffffffffff1916145b8061237757506123768261284a565b5b9050919050565b60008073ffffffffffffffffffffffffffffffffffffffff166123a083611ccb565b73ffffffffffffffffffffffffffffffffffffffff1614159050919050565b6123c98282611001565b612440576123d6816128b4565b6123e48360001c60206128e1565b6040516020016123f5929190613f19565b6040516020818303038152906040526040517f08c379a00000000000000000000000000000000000000000000000000000000081526004016124379190612d07565b60405180910390fd5b5050565b600181111561256457600073ffffffffffffffffffffffffffffffffffffffff168473ffffffffffffffffffffffffffffffffffffffff16146124d85780600360008673ffffffffffffffffffffffffffffffffffffffff1673ffffffffffffffffffffffffffffffffffffffff16815260200190815260200160002060008282546124d09190613f82565b925050819055505b600073ffffffffffffffffffffffffffffffffffffffff168373ffffffffffffffffffffffffffffffffffffffff16146125635780600360008573ffffffffffffffffffffffffffffffffffffffff1673ffffffffffffffffffffffffffffffffffffffff168152602001908152602001600020600082825461255b9190613fb6565b925050819055505b5b50505050565b50505050565b60006125918473ffffffffffffffffffffffffffffffffffffffff16612b1d565b156126ea578373ffffffffffffffffffffffffffffffffffffffff1663150b7a026125ba61147a565b8786866040518563ffffffff1660e01b81526004016125dc949392919061403f565b6020604051808303816000875af192505050801561261857506040513d601f19601f8201168201806040525081019061261591906140a0565b60015b61269a573d8060008114612648576040519150601f19603f3d011682016040523d82523d6000602084013e61264d565b606091505b506000815103612692576040517f08c379a000000000000000000000000000000000000000000000000000000000815260040161268990613bb4565b60405180910390fd5b805181602001fd5b63150b7a0260e01b7bffffffffffffffffffffffffffffffffffffffffffffffffffffffff1916817bffffffffffffffffffffffffffffffffffffffffffffffffffffffff1916149150506126ef565b600190505b949350505050565b600080600090507a184f03e93ff9f4daa797ed6e38ed64bf6a1f0100000000000000008310612755577a184f03e93ff9f4daa797ed6e38ed64bf6a1f010000000000000000838161274b5761274a613bd4565b5b0492506040810190505b6d04ee2d6d415b85acef81000000008310612792576d04ee2d6d415b85acef8100000000838161278857612787613bd4565b5b0492506020810190505b662386f26fc1000083106127c157662386f26fc1000083816127b7576127b6613bd4565b5b0492506010810190505b6305f5e10083106127ea576305f5e10083816127e0576127df613bd4565b5b0492506008810190505b612710831061280f57612710838161280557612804613bd4565b5b0492506004810190505b60648310612832576064838161282857612827613bd4565b5b0492506002810190505b600a8310612841576001810190505b80915050919050565b60007f01ffc9a7000000000000000000000000000000000000000000000000000000007bffffffffffffffffffffffffffffffffffffffffffffffffffffffff1916827bffffffffffffffffffffffffffffffffffffffffffffffffffffffff1916149050919050565b60606128da8273ffffffffffffffffffffffffffffffffffffffff16601460ff166128e1565b9050919050565b6060600060028360026128f491906140cd565b6128fe9190613fb6565b67ffffffffffffffff811115612917576129166130a4565b5b6040519080825280601f01601f1916602001820160405280156129495781602001600182028036833780820191505090505b5090507f3000000000000000000000000000000000000000000000000000000000000000816000815181106129815761298061410f565b5b60200101907effffffffffffffffffffffffffffffffffffffffffffffffffffffffffffff1916908160001a9053507f7800000000000000000000000000000000000000000000000000000000000000816001815181106129e5576129e461410f565b5b60200101907effffffffffffffffffffffffffffffffffffffffffffffffffffffffffffff1916908160001a90535060006001846002612a2591906140cd565b612a2f9190613fb6565b90505b6001811115612acf577f3031323334353637383961626364656600000000000000000000000000000000600f861660108110612a7157612a7061410f565b5b1a60f81b828281518110612a8857612a8761410f565b5b60200101907effffffffffffffffffffffffffffffffffffffffffffffffffffffffffffff1916908160001a905350600485901c945080612ac89061413e565b9050612a32565b5060008414612b13576040517f08c379a0000000000000000000000000000000000000000000000000000000008152600401612b0a906141b3565b60405180910390fd5b8091505092915050565b6000808273ffffffffffffffffffffffffffffffffffffffff163b119050919050565b6000604051905090565b600080fd5b600080fd5b60007fffffffff0000000000000000000000000000000000000000000000000000000082169050919050565b612b8981612b54565b8114612b9457600080fd5b50565b600081359050612ba681612b80565b92915050565b600060208284031215612bc257612bc1612b4a565b5b6000612bd084828501612b97565b91505092915050565b60008115159050919050565b612bee81612bd9565b82525050565b6000602082019050612c096000830184612be5565b92915050565b6000819050919050565b612c2281612c0f565b82525050565b6000602082019050612c3d6000830184612c19565b92915050565b6000819050919050565b612c5681612c43565b82525050565b6000602082019050612c716000830184612c4d565b92915050565b600081519050919050565b600082825260208201905092915050565b60005b83811015612cb1578082015181840152602081019050612c96565b60008484015250505050565b6000601f19601f8301169050919050565b6000612cd982612c77565b612ce38185612c82565b9350612cf3818560208601612c93565b612cfc81612cbd565b840191505092915050565b60006020820190508181036000830152612d218184612cce565b905092915050565b612d3281612c0f565b8114612d3d57600080fd5b50565b600081359050612d4f81612d29565b92915050565b600060208284031215612d6b57612d6a612b4a565b5b6000612d7984828501612d40565b91505092915050565b600073ffffffffffffffffffffffffffffffffffffffff82169050919050565b6000612dad82612d82565b9050919050565b612dbd81612da2565b82525050565b6000602082019050612dd86000830184612db4565b92915050565b612de781612da2565b8114612df257600080fd5b50565b600081359050612e0481612dde565b92915050565b60008060408385031215612e2157612e20612b4a565b5b6000612e2f85828601612df5565b9250506020612e4085828601612d40565b9150509250929050565b600080600060608486031215612e6357612e62612b4a565b5b6000612e7186828701612df5565b9350506020612e8286828701612df5565b9250506040612e9386828701612d40565b9150509250925092565b612ea681612c43565b8114612eb157600080fd5b50565b600081359050612ec381612e9d565b92915050565b600060208284031215612edf57612ede612b4a565b5b6000612eed84828501612eb4565b91505092915050565b60008060408385031215612f0d57612f0c612b4a565b5b6000612f1b85828601612eb4565b9250506020612f2c85828601612df5565b9150509250929050565b600060208284031215612f4c57612f4b612b4a565b5b6000612f5a84828501612df5565b91505092915050565b600063ffffffff82169050919050565b612f7c81612f63565b82525050565b6000602082019050612f976000830184612f73565b92915050565b600061ffff82169050919050565b612fb481612f9d565b82525050565b6000602082019050612fcf6000830184612fab565b92915050565b612fde81612f63565b8114612fe957600080fd5b50565b600081359050612ffb81612fd5565b92915050565b60006020828403121561301757613016612b4a565b5b600061302584828501612fec565b91505092915050565b61303781612bd9565b811461304257600080fd5b50565b6000813590506130548161302e565b92915050565b6000806040838503121561307157613070612b4a565b5b600061307f85828601612df5565b925050602061309085828601613045565b9150509250929050565b600080fd5b600080fd5b7f4e487b7100000000000000000000000000000000000000000000000000000000600052604160045260246000fd5b6130dc82612cbd565b810181811067ffffffffffffffff821117156130fb576130fa6130a4565b5b80604052505050565b600061310e612b40565b905061311a82826130d3565b919050565b600067ffffffffffffffff82111561313a576131396130a4565b5b61314382612cbd565b9050602081019050919050565b82818337600083830152505050565b600061317261316d8461311f565b613104565b90508281526020810184848401111561318e5761318d61309f565b5b613199848285613150565b509392505050565b600082601f8301126131b6576131b561309a565b5b81356131c684826020860161315f565b91505092915050565b600080600080608085870312156131e9576131e8612b4a565b5b60006131f787828801612df5565b945050602061320887828801612df5565b935050604061321987828801612d40565b925050606085013567ffffffffffffffff81111561323a57613239612b4f565b5b613246878288016131a1565b91505092959194509250565b6000806040838503121561326957613268612b4a565b5b600061327785828601612df5565b925050602061328885828601612df5565b9150509250929050565b7f4e487b7100000000000000000000000000000000000000000000000000000000600052602260045260246000fd5b600060028204905060018216806132d957607f821691505b6020821081036132ec576132eb613292565b5b50919050565b7f4552433732313a20617070726f76616c20746f2063757272656e74206f776e6560008201527f7200000000000000000000000000000000000000000000000000000000000000602082015250565b600061334e602183612c82565b9150613359826132f2565b604082019050919050565b6000602082019050818103600083015261337d81613341565b9050919050565b7f4552433732313a20617070726f76652063616c6c6572206973206e6f7420746f60008201527f6b656e206f776e6572206f7220617070726f76656420666f7220616c6c000000602082015250565b60006133e0603d83612c82565b91506133eb82613384565b604082019050919050565b6000602082019050818103600083015261340f816133d3565b9050919050565b7f496e73756666696369656e742066756e64730000000000000000000000000000600082015250565b600061344c601283612c82565b915061345782613416565b602082019050919050565b6000602082019050818103600083015261347b8161343f565b9050919050565b7f4552433732313a2063616c6c6572206973206e6f7420746f6b656e206f776e6560008201527f72206f7220617070726f76656400000000000000000000000000000000000000602082015250565b60006134de602d83612c82565b91506134e982613482565b604082019050919050565b6000602082019050818103600083015261350d816134d1565b9050919050565b7f416363657373436f6e74726f6c3a2063616e206f6e6c792072656e6f756e636560008201527f20726f6c657320666f722073656c660000000000000000000000000000000000602082015250565b6000613570602f83612c82565b915061357b82613514565b604082019050919050565b6000602082019050818103600083015261359f81613563565b9050919050565b7f4d696e74206c696d697420726561636865640000000000000000000000000000600082015250565b60006135dc601283612c82565b91506135e7826135a6565b602082019050919050565b6000602082019050818103600083015261360b816135cf565b9050919050565b7f4d6178207065722077616c6c6574207265616368656400000000000000000000600082015250565b6000613648601683612c82565b915061365382613612565b602082019050919050565b600060208201905081810360008301526136778161363b565b9050919050565b7f4552433732313a20696e76616c696420746f6b656e2049440000000000000000600082015250565b60006136b4601883612c82565b91506136bf8261367e565b602082019050919050565b600060208201905081810360008301526136e3816136a7565b9050919050565b7f4552433732313a2061646472657373207a65726f206973206e6f74206120766160008201527f6c6964206f776e65720000000000000000000000000000000000000000000000602082015250565b6000613746602983612c82565b9150613751826136ea565b604082019050919050565b6000602082019050818103600083015261377581613739565b9050919050565b600081905092915050565b600061379282612c77565b61379c818561377c565b93506137ac818560208601612c93565b80840191505092915050565b60006137c48285613787565b91506137d08284613787565b91508190509392505050565b7f4f776e61626c653a206e6577206f776e657220697320746865207a65726f206160008201527f6464726573730000000000000000000000000000000000000000000000000000602082015250565b6000613838602683612c82565b9150613843826137dc565b604082019050919050565b600060208201905081810360008301526138678161382b565b9050919050565b7f4552433732313a207472616e736665722066726f6d20696e636f72726563742060008201527f6f776e6572000000000000000000000000000000000000000000000000000000602082015250565b60006138ca602583612c82565b91506138d58261386e565b604082019050919050565b600060208201905081810360008301526138f9816138bd565b9050919050565b7f4552433732313a207472616e7366657220746f20746865207a65726f2061646460008201527f7265737300000000000000000000000000000000000000000000000000000000602082015250565b600061395c602483612c82565b915061396782613900565b604082019050919050565b6000602082019050818103600083015261398b8161394f565b9050919050565b7f4552433732313a206d696e7420746f20746865207a65726f2061646472657373600082015250565b60006139c8602083612c82565b91506139d382613992565b602082019050919050565b600060208201905081810360008301526139f7816139bb565b9050919050565b7f4552433732313a20746f6b656e20616c7265616479206d696e74656400000000600082015250565b6000613a34601c83612c82565b9150613a3f826139fe565b602082019050919050565b60006020820190508181036000830152613a6381613a27565b9050919050565b7f4f776e61626c653a2063616c6c6572206973206e6f7420746865206f776e6572600082015250565b6000613aa0602083612c82565b9150613aab82613a6a565b602082019050919050565b60006020820190508181036000830152613acf81613a93565b9050919050565b7f4552433732313a20617070726f766520746f2063616c6c657200000000000000600082015250565b6000613b0c601983612c82565b9150613b1782613ad6565b602082019050919050565b60006020820190508181036000830152613b3b81613aff565b9050919050565b7f4552433732313a207472616e7366657220746f206e6f6e20455243373231526560008201527f63656976657220696d706c656d656e7465720000000000000000000000000000602082015250565b6000613b9e603283612c82565b9150613ba982613b42565b604082019050919050565b60006020820190508181036000830152613bcd81613b91565b9050919050565b7f4e487b7100000000000000000000000000000000000000000000000000000000600052601260045260246000fd5b60008190508160005260206000209050919050565b60006020601f8301049050919050565b600082821b905092915050565b600060088302613c657fffffffffffffffffffffffffffffffffffffffffffffffffffffffffffffffff82613c28565b613c6f8683613c28565b95508019841693508086168417925050509392505050565b6000819050919050565b6000613cac613ca7613ca284612c0f565b613c87565b612c0f565b9050919050565b6000819050919050565b613cc683613c91565b613cda613cd282613cb3565b848454613c35565b825550505050565b600090565b613cef613ce2565b613cfa818484613cbd565b505050565b5b81811015613d1e57613d13600082613ce7565b600181019050613d00565b5050565b601f821115613d6357613d3481613c03565b613d3d84613c18565b81016020851015613d4c578190505b613d60613d5885613c18565b830182613cff565b50505b505050565b600082821c905092915050565b6000613d8660001984600802613d68565b1980831691505092915050565b6000613d9f8383613d75565b9150826002028217905092915050565b613db882612c77565b67ffffffffffffffff811115613dd157613dd06130a4565b5b613ddb82546132c1565b613de6828285613d22565b600060209050601f831160018114613e195760008415613e07578287015190505b613e118582613d93565b865550613e79565b601f198416613e2786613c03565b60005b82811015613e4f57848901518255600182019150602085019450602081019050613e2a565b86831015613e6c5784890151613e68601f891682613d75565b8355505b6001600288020188555050505b505050505050565b7f416363657373436f6e74726f6c3a206163636f756e7420000000000000000000600082015250565b6000613eb760178361377c565b9150613ec282613e81565b601782019050919050565b7f206973206d697373696e6720726f6c6520000000000000000000000000000000600082015250565b6000613f0360118361377c565b9150613f0e82613ecd565b601182019050919050565b6000613f2482613eaa565b9150613f308285613787565b9150613f3b82613ef6565b9150613f478284613787565b91508190509392505050565b7f4e487b7100000000000000000000000000000000000000000000000000000000600052601160045260246000fd5b6000613f8d82612c0f565b9150613f9883612c0f565b9250828203905081811115613fb057613faf613f53565b5b92915050565b6000613fc182612c0f565b9150613fcc83612c0f565b9250828201905080821115613fe457613fe3613f53565b5b92915050565b600081519050919050565b600082825260208201905092915050565b600061401182613fea565b61401b8185613ff5565b935061402b818560208601612c93565b61403481612cbd565b840191505092915050565b60006080820190506140546000830187612db4565b6140616020830186612db4565b61406e6040830185612c19565b81810360608301526140808184614006565b905095945050505050565b60008151905061409a81612b80565b92915050565b6000602082840312156140b6576140b5612b4a565b5b60006140c48482850161408b565b91505092915050565b60006140d882612c0f565b91506140e383612c0f565b92508282026140f181612c0f565b9150828204841483151761410857614107613f53565b5b5092915050565b7f4e487b7100000000000000000000000000000000000000000000000000000000600052603260045260246000fd5b600061414982612c0f565b91506000820361415c5761415b613f53565b5b600182039050919050565b7f537472696e67733a20686578206c656e67746820696e73756666696369656e74600082015250565b600061419d602083612c82565b91506141a882614167565b602082019050919050565b600060208201905081810360008301526141cc81614190565b905091905056fea2646970667358221220c238b238bd887bf761ccdc049169597962e59bf6d19a7052331f404c1538c46364736f6c63430008110033",
  "linkReferences": {},
  "deployedLinkReferences": {}
}