{
  "_format": "hh-sol-artifact-1",
  "contractName": "MintingMushroom",
  "sourceName": "contracts/MintingMushroom.sol",
  "abi": [
    {
      "inputs": [
        {
          "internalType": "address",
          "name": "admin",
          "type": "address"
        },
        {
          "internalType": "address",
          "name": "metadataContract",
          "type": "address"
        }
      ],
      "stateMutability": "nonpayable",
      "type": "constructor"
    },
    {
      "anonymous": false,
      "inputs": [
        {
          "indexed": true,
          "internalType": "address",
          "name": "owner",
          "type": "address"
        },
        {
          "indexed": true,
          "internalType": "address",
          "name": "approved",
          "type": "address"
        },
        {
          "indexed": true,
          "internalType": "uint256",
          "name": "tokenId",
          "type": "uint256"
        }
      ],
      "name": "Approval",
      "type": "event"
    },
    {
      "anonymous": false,
      "inputs": [
        {
          "indexed": true,
          "internalType": "address",
          "name": "owner",
          "type": "address"
        },
        {
          "indexed": true,
          "internalType": "address",
          "name": "operator",
          "type": "address"
        },
        {
          "indexed": false,
          "internalType": "bool",
          "name": "approved",
          "type": "bool"
        }
      ],
      "name": "ApprovalForAll",
      "type": "event"
    },
    {
      "anonymous": false,
      "inputs": [
        {
          "indexed": true,
          "internalType": "address",
          "name": "previousOwner",
          "type": "address"
        },
        {
          "indexed": true,
          "internalType": "address",
          "name": "newOwner",
          "type": "address"
        }
      ],
      "name": "OwnershipTransferred",
      "type": "event"
    },
    {
      "anonymous": false,
      "inputs": [
        {
          "indexed": true,
          "internalType": "bytes32",
          "name": "role",
          "type": "bytes32"
        },
        {
          "indexed": true,
          "internalType": "bytes32",
          "name": "previousAdminRole",
          "type": "bytes32"
        },
        {
          "indexed": true,
          "internalType": "bytes32",
          "name": "newAdminRole",
          "type": "bytes32"
        }
      ],
      "name": "RoleAdminChanged",
      "type": "event"
    },
    {
      "anonymous": false,
      "inputs": [
        {
          "indexed": true,
          "internalType": "bytes32",
          "name": "role",
          "type": "bytes32"
        },
        {
          "indexed": true,
          "internalType": "address",
          "name": "account",
          "type": "address"
        },
        {
          "indexed": true,
          "internalType": "address",
          "name": "sender",
          "type": "address"
        }
      ],
      "name": "RoleGranted",
      "type": "event"
    },
    {
      "anonymous": false,
      "inputs": [
        {
          "indexed": true,
          "internalType": "bytes32",
          "name": "role",
          "type": "bytes32"
        },
        {
          "indexed": true,
          "internalType": "address",
          "name": "account",
          "type": "address"
        },
        {
          "indexed": true,
          "internalType": "address",
          "name": "sender",
          "type": "address"
        }
      ],
      "name": "RoleRevoked",
      "type": "event"
    },
    {
      "anonymous": false,
      "inputs": [
        {
          "indexed": true,
          "internalType": "address",
          "name": "from",
          "type": "address"
        },
        {
          "indexed": true,
          "internalType": "address",
          "name": "to",
          "type": "address"
        },
        {
          "indexed": true,
          "internalType": "uint256",
          "name": "tokenId",
          "type": "uint256"
        }
      ],
      "name": "Transfer",
      "type": "event"
    },
    {
      "inputs": [],
      "name": "CONTRACT_ROLE",
      "outputs": [
        {
          "internalType": "bytes32",
          "name": "",
          "type": "bytes32"
        }
      ],
      "stateMutability": "view",
      "type": "function"
    },
    {
      "inputs": [],
      "name": "DEFAULT_ADMIN_ROLE",
      "outputs": [
        {
          "internalType": "bytes32",
          "name": "",
          "type": "bytes32"
        }
      ],
      "stateMutability": "view",
      "type": "function"
    },
    {
      "inputs": [],
      "name": "UPDATER_ROLE",
      "outputs": [
        {
          "internalType": "bytes32",
          "name": "",
          "type": "bytes32"
        }
      ],
      "stateMutability": "view",
      "type": "function"
    },
    {
      "inputs": [],
      "name": "_maxPerWallet",
      "outputs": [
        {
          "internalType": "uint16",
          "name": "",
          "type": "uint16"
        }
      ],
      "stateMutability": "view",
      "type": "function"
    },
    {
      "inputs": [],
      "name": "_metadataContract",
      "outputs": [
        {
          "internalType": "contract IMetadata",
          "name": "",
          "type": "address"
        }
      ],
      "stateMutability": "view",
      "type": "function"
    },
    {
      "inputs": [],
      "name": "_mintLimit",
      "outputs": [
        {
          "internalType": "uint32",
          "name": "",
          "type": "uint32"
        }
      ],
      "stateMutability": "view",
      "type": "function"
    },
    {
      "inputs": [],
      "name": "_mintPrice",
      "outputs": [
        {
          "internalType": "uint256",
          "name": "",
          "type": "uint256"
        }
      ],
      "stateMutability": "view",
      "type": "function"
    },
    {
      "inputs": [
        {
          "internalType": "address",
          "name": "to",
          "type": "address"
        },
        {
          "internalType": "uint256",
          "name": "tokenId",
          "type": "uint256"
        }
      ],
      "name": "approve",
      "outputs": [],
      "stateMutability": "nonpayable",
      "type": "function"
    },
    {
      "inputs": [
        {
          "internalType": "address",
          "name": "owner",
          "type": "address"
        }
      ],
      "name": "balanceOf",
      "outputs": [
        {
          "internalType": "uint256",
          "name": "",
          "type": "uint256"
        }
      ],
      "stateMutability": "view",
      "type": "function"
    },
    {
      "inputs": [
        {
          "internalType": "address",
          "name": "owner",
          "type": "address"
        }
      ],
      "name": "checkIfHasNFT",
      "outputs": [
        {
          "components": [
            {
              "internalType": "uint256",
              "name": "id",
              "type": "uint256"
            },
            {
              "internalType": "uint32",
              "name": "spores",
              "type": "uint32"
            },
            {
              "internalType": "string",
              "name": "element",
              "type": "string"
            },
            {
              "internalType": "string",
              "name": "weapon",
              "type": "string"
            },
            {
              "internalType": "string",
              "name": "armor",
              "type": "string"
            },
            {
              "internalType": "string",
              "name": "accessory",
              "type": "string"
            },
            {
              "internalType": "uint256",
              "name": "level",
              "type": "uint256"
            }
          ],
          "internalType": "struct MintingMushroom.Mushroom[]",
          "name": "nft",
          "type": "tuple[]"
        }
      ],
      "stateMutability": "view",
      "type": "function"
    },
    {
      "inputs": [
        {
          "internalType": "uint256",
          "name": "tokenId",
          "type": "uint256"
        },
        {
          "internalType": "uint32",
          "name": "amount",
          "type": "uint32"
        }
      ],
      "name": "decreaseSpores",
      "outputs": [],
      "stateMutability": "nonpayable",
      "type": "function"
    },
    {
      "inputs": [
        {
          "internalType": "address",
          "name": "toWallet",
          "type": "address"
        }
      ],
      "name": "freeMint",
      "outputs": [],
      "stateMutability": "nonpayable",
      "type": "function"
    },
    {
      "inputs": [
        {
          "internalType": "uint256",
          "name": "tokenId",
          "type": "uint256"
        }
      ],
      "name": "getApproved",
      "outputs": [
        {
          "internalType": "address",
          "name": "",
          "type": "address"
        }
      ],
      "stateMutability": "view",
      "type": "function"
    },
    {
      "inputs": [],
      "name": "getBalance",
      "outputs": [
        {
          "internalType": "uint256",
          "name": "",
          "type": "uint256"
        }
      ],
      "stateMutability": "view",
      "type": "function"
    },
    {
      "inputs": [
        {
          "internalType": "uint256",
          "name": "tokenId",
          "type": "uint256"
        }
      ],
      "name": "getMushroom",
      "outputs": [
        {
          "components": [
            {
              "internalType": "uint256",
              "name": "id",
              "type": "uint256"
            },
            {
              "internalType": "uint32",
              "name": "spores",
              "type": "uint32"
            },
            {
              "internalType": "string",
              "name": "element",
              "type": "string"
            },
            {
              "internalType": "string",
              "name": "weapon",
              "type": "string"
            },
            {
              "internalType": "string",
              "name": "armor",
              "type": "string"
            },
            {
              "internalType": "string",
              "name": "accessory",
              "type": "string"
            },
            {
              "internalType": "uint256",
              "name": "level",
              "type": "uint256"
            }
          ],
          "internalType": "struct MintingMushroom.Mushroom",
          "name": "mushroom",
          "type": "tuple"
        }
      ],
      "stateMutability": "view",
      "type": "function"
    },
    {
      "inputs": [
        {
          "internalType": "bytes32",
          "name": "role",
          "type": "bytes32"
        }
      ],
      "name": "getRoleAdmin",
      "outputs": [
        {
          "internalType": "bytes32",
          "name": "",
          "type": "bytes32"
        }
      ],
      "stateMutability": "view",
      "type": "function"
    },
    {
      "inputs": [],
      "name": "getTokenIds",
      "outputs": [
        {
          "internalType": "uint256",
          "name": "",
          "type": "uint256"
        }
      ],
      "stateMutability": "view",
      "type": "function"
    },
    {
      "inputs": [
        {
          "internalType": "bytes32",
          "name": "role",
          "type": "bytes32"
        },
        {
          "internalType": "address",
          "name": "account",
          "type": "address"
        }
      ],
      "name": "grantRole",
      "outputs": [],
      "stateMutability": "nonpayable",
      "type": "function"
    },
    {
      "inputs": [
        {
          "internalType": "bytes32",
          "name": "role",
          "type": "bytes32"
        },
        {
          "internalType": "address",
          "name": "account",
          "type": "address"
        }
      ],
      "name": "hasRole",
      "outputs": [
        {
          "internalType": "bool",
          "name": "",
          "type": "bool"
        }
      ],
      "stateMutability": "view",
      "type": "function"
    },
    {
      "inputs": [
        {
          "internalType": "uint256",
          "name": "tokenId",
          "type": "uint256"
        },
        {
          "internalType": "uint256",
          "name": "amount",
          "type": "uint256"
        }
      ],
      "name": "increaseLevel",
      "outputs": [],
      "stateMutability": "nonpayable",
      "type": "function"
    },
    {
      "inputs": [
        {
          "internalType": "uint256",
          "name": "tokenId",
          "type": "uint256"
        },
        {
          "internalType": "uint32",
          "name": "amount",
          "type": "uint32"
        }
      ],
      "name": "increaseSpores",
      "outputs": [],
      "stateMutability": "nonpayable",
      "type": "function"
    },
    {
      "inputs": [
        {
          "internalType": "address",
          "name": "owner",
          "type": "address"
        },
        {
          "internalType": "address",
          "name": "operator",
          "type": "address"
        }
      ],
      "name": "isApprovedForAll",
      "outputs": [
        {
          "internalType": "bool",
          "name": "",
          "type": "bool"
        }
      ],
      "stateMutability": "view",
      "type": "function"
    },
    {
      "inputs": [
        {
          "internalType": "uint256",
          "name": "_tokenId",
          "type": "uint256"
        },
        {
          "internalType": "string",
          "name": "imageURI",
          "type": "string"
        }
      ],
      "name": "makeTokenURI",
      "outputs": [
        {
          "internalType": "string",
          "name": "",
          "type": "string"
        }
      ],
      "stateMutability": "view",
      "type": "function"
    },
    {
      "inputs": [
        {
          "internalType": "address",
          "name": "recipient",
          "type": "address"
        }
      ],
      "name": "mintNFT",
      "outputs": [
        {
          "internalType": "uint256",
          "name": "",
          "type": "uint256"
        }
      ],
      "stateMutability": "payable",
      "type": "function"
    },
    {
      "inputs": [
        {
          "internalType": "uint256",
          "name": "",
          "type": "uint256"
        }
      ],
      "name": "mushroomTokenAttributes",
      "outputs": [
        {
          "internalType": "uint256",
          "name": "id",
          "type": "uint256"
        },
        {
          "internalType": "uint32",
          "name": "spores",
          "type": "uint32"
        },
        {
          "internalType": "string",
          "name": "element",
          "type": "string"
        },
        {
          "internalType": "string",
          "name": "weapon",
          "type": "string"
        },
        {
          "internalType": "string",
          "name": "armor",
          "type": "string"
        },
        {
          "internalType": "string",
          "name": "accessory",
          "type": "string"
        },
        {
          "internalType": "uint256",
          "name": "level",
          "type": "uint256"
        }
      ],
      "stateMutability": "view",
      "type": "function"
    },
    {
      "inputs": [],
      "name": "name",
      "outputs": [
        {
          "internalType": "string",
          "name": "",
          "type": "string"
        }
      ],
      "stateMutability": "view",
      "type": "function"
    },
    {
      "inputs": [],
      "name": "owner",
      "outputs": [
        {
          "internalType": "address",
          "name": "",
          "type": "address"
        }
      ],
      "stateMutability": "view",
      "type": "function"
    },
    {
      "inputs": [
        {
          "internalType": "uint256",
          "name": "tokenId",
          "type": "uint256"
        }
      ],
      "name": "ownerOf",
      "outputs": [
        {
          "internalType": "address",
          "name": "",
          "type": "address"
        }
      ],
      "stateMutability": "view",
      "type": "function"
    },
    {
      "inputs": [],
      "name": "renounceOwnership",
      "outputs": [],
      "stateMutability": "nonpayable",
      "type": "function"
    },
    {
      "inputs": [
        {
          "internalType": "bytes32",
          "name": "role",
          "type": "bytes32"
        },
        {
          "internalType": "address",
          "name": "account",
          "type": "address"
        }
      ],
      "name": "renounceRole",
      "outputs": [],
      "stateMutability": "nonpayable",
      "type": "function"
    },
    {
      "inputs": [
        {
          "internalType": "bytes32",
          "name": "role",
          "type": "bytes32"
        },
        {
          "internalType": "address",
          "name": "account",
          "type": "address"
        }
      ],
      "name": "revokeRole",
      "outputs": [],
      "stateMutability": "nonpayable",
      "type": "function"
    },
    {
      "inputs": [
        {
          "internalType": "address",
          "name": "from",
          "type": "address"
        },
        {
          "internalType": "address",
          "name": "to",
          "type": "address"
        },
        {
          "internalType": "uint256",
          "name": "tokenId",
          "type": "uint256"
        }
      ],
      "name": "safeTransferFrom",
      "outputs": [],
      "stateMutability": "nonpayable",
      "type": "function"
    },
    {
      "inputs": [
        {
          "internalType": "address",
          "name": "from",
          "type": "address"
        },
        {
          "internalType": "address",
          "name": "to",
          "type": "address"
        },
        {
          "internalType": "uint256",
          "name": "tokenId",
          "type": "uint256"
        },
        {
          "internalType": "bytes",
          "name": "data",
          "type": "bytes"
        }
      ],
      "name": "safeTransferFrom",
      "outputs": [],
      "stateMutability": "nonpayable",
      "type": "function"
    },
    {
      "inputs": [
        {
          "internalType": "address",
          "name": "operator",
          "type": "address"
        },
        {
          "internalType": "bool",
          "name": "approved",
          "type": "bool"
        }
      ],
      "name": "setApprovalForAll",
      "outputs": [],
      "stateMutability": "nonpayable",
      "type": "function"
    },
    {
      "inputs": [
        {
          "internalType": "bytes4",
          "name": "interfaceId",
          "type": "bytes4"
        }
      ],
      "name": "supportsInterface",
      "outputs": [
        {
          "internalType": "bool",
          "name": "",
          "type": "bool"
        }
      ],
      "stateMutability": "view",
      "type": "function"
    },
    {
      "inputs": [],
      "name": "symbol",
      "outputs": [
        {
          "internalType": "string",
          "name": "",
          "type": "string"
        }
      ],
      "stateMutability": "view",
      "type": "function"
    },
    {
      "inputs": [
        {
          "internalType": "uint256",
          "name": "index",
          "type": "uint256"
        }
      ],
      "name": "tokenByIndex",
      "outputs": [
        {
          "internalType": "uint256",
          "name": "",
          "type": "uint256"
        }
      ],
      "stateMutability": "view",
      "type": "function"
    },
    {
      "inputs": [
        {
          "internalType": "address",
          "name": "owner",
          "type": "address"
        },
        {
          "internalType": "uint256",
          "name": "index",
          "type": "uint256"
        }
      ],
      "name": "tokenOfOwnerByIndex",
      "outputs": [
        {
          "internalType": "uint256",
          "name": "",
          "type": "uint256"
        }
      ],
      "stateMutability": "view",
      "type": "function"
    },
    {
      "inputs": [
        {
          "internalType": "uint256",
          "name": "tokenId",
          "type": "uint256"
        }
      ],
      "name": "tokenURI",
      "outputs": [
        {
          "internalType": "string",
          "name": "",
          "type": "string"
        }
      ],
      "stateMutability": "view",
      "type": "function"
    },
    {
      "inputs": [],
      "name": "totalSupply",
      "outputs": [
        {
          "internalType": "uint256",
          "name": "",
          "type": "uint256"
        }
      ],
      "stateMutability": "view",
      "type": "function"
    },
    {
      "inputs": [
        {
          "internalType": "address",
          "name": "from",
          "type": "address"
        },
        {
          "internalType": "address",
          "name": "to",
          "type": "address"
        },
        {
          "internalType": "uint256",
          "name": "tokenId",
          "type": "uint256"
        }
      ],
      "name": "transferFrom",
      "outputs": [],
      "stateMutability": "nonpayable",
      "type": "function"
    },
    {
      "inputs": [
        {
          "internalType": "address",
          "name": "newOwner",
          "type": "address"
        }
      ],
      "name": "transferOwnership",
      "outputs": [],
      "stateMutability": "nonpayable",
      "type": "function"
    },
    {
      "inputs": [
        {
          "internalType": "address",
          "name": "_to",
          "type": "address"
        },
        {
          "internalType": "uint256",
          "name": "_value",
          "type": "uint256"
        }
      ],
      "name": "withdrawBalance",
      "outputs": [],
      "stateMutability": "nonpayable",
      "type": "function"
    },
    {
      "stateMutability": "payable",
      "type": "receive"
    }
  ],
  "bytecode": "0x60806040526103e8600e60006101000a81548163ffffffff021916908363ffffffff1602179055506064600e60046101000a81548161ffff021916908361ffff160217905550662386f26fc10000600f553480156200005d57600080fd5b5060405162006670380380620066708339818101604052810190620000839190620004b9565b6040518060400160405280601281526020017f4d616c6963696f7573204d757368726f6f6d00000000000000000000000000008152506040518060400160405280600481526020017f4d5553480000000000000000000000000000000000000000000000000000000081525081600090816200010091906200077a565b5080600190816200011291906200077a565b50505062000135620001296200020e60201b60201c565b6200021660201b60201c565b6200014c600c620002dc60201b620020e01760201c565b620001616000801b83620002f260201b60201c565b620001937f73e573f9566d61418a34d5de3ff49360f9c51fec37f7486551670290f6285dab33620002f260201b60201c565b620001c57f364d3d7565c7a8300c96fd53e065d19b65848d7b23b3191adcd55621c744223c33620002f260201b60201c565b80601060006101000a81548173ffffffffffffffffffffffffffffffffffffffff021916908373ffffffffffffffffffffffffffffffffffffffff160217905550505062000861565b600033905090565b6000600b60009054906101000a900473ffffffffffffffffffffffffffffffffffffffff16905081600b60006101000a81548173ffffffffffffffffffffffffffffffffffffffff021916908373ffffffffffffffffffffffffffffffffffffffff1602179055508173ffffffffffffffffffffffffffffffffffffffff168173ffffffffffffffffffffffffffffffffffffffff167f8be0079c531659141344cd1fd0a4f28419497f9722a3daafe3b4186f6b6457e060405160405180910390a35050565b6001816000016000828254019250508190555050565b620003048282620003e460201b60201c565b620003e0576001600a600084815260200190815260200160002060000160008373ffffffffffffffffffffffffffffffffffffffff1673ffffffffffffffffffffffffffffffffffffffff16815260200190815260200160002060006101000a81548160ff021916908315150217905550620003856200020e60201b60201c565b73ffffffffffffffffffffffffffffffffffffffff168173ffffffffffffffffffffffffffffffffffffffff16837f2f8788117e7eff1d82e926ec794901d17c78024a50270940304540a733656f0d60405160405180910390a45b5050565b6000600a600084815260200190815260200160002060000160008373ffffffffffffffffffffffffffffffffffffffff1673ffffffffffffffffffffffffffffffffffffffff16815260200190815260200160002060009054906101000a900460ff16905092915050565b600080fd5b600073ffffffffffffffffffffffffffffffffffffffff82169050919050565b6000620004818262000454565b9050919050565b620004938162000474565b81146200049f57600080fd5b50565b600081519050620004b38162000488565b92915050565b60008060408385031215620004d357620004d26200044f565b5b6000620004e385828601620004a2565b9250506020620004f685828601620004a2565b9150509250929050565b600081519050919050565b7f4e487b7100000000000000000000000000000000000000000000000000000000600052604160045260246000fd5b7f4e487b7100000000000000000000000000000000000000000000000000000000600052602260045260246000fd5b600060028204905060018216806200058257607f821691505b6020821081036200059857620005976200053a565b5b50919050565b60008190508160005260206000209050919050565b60006020601f8301049050919050565b600082821b905092915050565b600060088302620006027fffffffffffffffffffffffffffffffffffffffffffffffffffffffffffffffff82620005c3565b6200060e8683620005c3565b95508019841693508086168417925050509392505050565b6000819050919050565b6000819050919050565b60006200065b620006556200064f8462000626565b62000630565b62000626565b9050919050565b6000819050919050565b62000677836200063a565b6200068f620006868262000662565b848454620005d0565b825550505050565b600090565b620006a662000697565b620006b38184846200066c565b505050565b5b81811015620006db57620006cf6000826200069c565b600181019050620006b9565b5050565b601f8211156200072a57620006f4816200059e565b620006ff84620005b3565b810160208510156200070f578190505b620007276200071e85620005b3565b830182620006b8565b50505b505050565b600082821c905092915050565b60006200074f600019846008026200072f565b1980831691505092915050565b60006200076a83836200073c565b9150826002028217905092915050565b620007858262000500565b67ffffffffffffffff811115620007a157620007a06200050b565b5b620007ad825462000569565b620007ba828285620006df565b600060209050601f831160018114620007f25760008415620007dd578287015190505b620007e985826200075c565b86555062000859565b601f19841662000802866200059e565b60005b828110156200082c5784890151825560018201915060208501945060208101905062000805565b868310156200084c578489015162000848601f8916826200073c565b8355505b6001600288020188555050505b505050505050565b615dff80620008716000396000f3fe6080604052600436106102605760003560e01c80636352211e11610144578063a217fddf116100b6578063d547741f1161007a578063d547741f1461095c578063e8fc3c5214610985578063e985e9c5146109c2578063f1cf6409146109ff578063f2fde38b14610a2a578063fa07ce1d14610a5357610267565b8063a217fddf14610877578063a22cb465146108a2578063b812f01b146108cb578063b88d4fde146108f6578063c87b56dd1461091f57610267565b80637f456ef1116101085780637f456ef1146107675780637fa8e5e4146107905780638da5cb5b146107bb57806391d14854146107e657806395d89b41146108235780639b62a61b1461084e57610267565b80636352211e1461066e578063644f1ea9146106ab57806367f718a9146106e857806370a0823114610713578063715018a61461075057610267565b806318160ddd116101dd5780632f745c59116101a15780632f745c591461054757806336568abe1461058457806342842e0e146105ad57806347e63380146105d65780634f6ccce71461060157806354ba0f271461063e57610267565b806318160ddd1461045057806323b872dd1461047b578063248a9ca3146104a45780632b687894146104e15780632f2ff15d1461051e57610267565b8063081812fc11610224578063081812fc14610353578063095ea7b3146103905780630cf20cc9146103b95780631082fa9f146103e257806312065fe01461042557610267565b806301ffc9a71461026c5780630387da42146102a957806303fe46ab146102d457806304492859146102ff57806306fdde031461032857610267565b3661026757005b600080fd5b34801561027857600080fd5b50610293600480360381019061028e9190613f01565b610a7c565b6040516102a09190613f49565b60405180910390f35b3480156102b557600080fd5b506102be610a8e565b6040516102cb9190613f7d565b60405180910390f35b3480156102e057600080fd5b506102e9610a94565b6040516102f69190613fb1565b60405180910390f35b34801561030b57600080fd5b5061032660048036038101906103219190614034565b610ab8565b005b34801561033457600080fd5b5061033d610b3a565b60405161034a9190614104565b60405180910390f35b34801561035f57600080fd5b5061037a60048036038101906103759190614126565b610bcc565b6040516103879190614194565b60405180910390f35b34801561039c57600080fd5b506103b760048036038101906103b291906141db565b610c12565b005b3480156103c557600080fd5b506103e060048036038101906103db91906141db565b610d29565b005b3480156103ee57600080fd5b5061040960048036038101906104049190614126565b610de2565b60405161041c979695949392919061422a565b60405180910390f35b34801561043157600080fd5b5061043a611054565b6040516104479190613f7d565b60405180910390f35b34801561045c57600080fd5b5061046561105c565b6040516104729190613f7d565b60405180910390f35b34801561048757600080fd5b506104a2600480360381019061049d91906142b5565b611069565b005b3480156104b057600080fd5b506104cb60048036038101906104c69190614334565b6110c9565b6040516104d89190613fb1565b60405180910390f35b3480156104ed57600080fd5b5061050860048036038101906105039190614496565b6110e9565b6040516105159190614104565b60405180910390f35b34801561052a57600080fd5b50610545600480360381019061054091906144f2565b611196565b005b34801561055357600080fd5b5061056e600480360381019061056991906141db565b6111b7565b60405161057b9190613f7d565b60405180910390f35b34801561059057600080fd5b506105ab60048036038101906105a691906144f2565b61125c565b005b3480156105b957600080fd5b506105d460048036038101906105cf91906142b5565b6112df565b005b3480156105e257600080fd5b506105eb6112ff565b6040516105f89190613fb1565b60405180910390f35b34801561060d57600080fd5b5061062860048036038101906106239190614126565b611323565b6040516106359190613f7d565b60405180910390f35b61065860048036038101906106539190614532565b611394565b6040516106659190613f7d565b60405180910390f35b34801561067a57600080fd5b5061069560048036038101906106909190614126565b6114c7565b6040516106a29190614194565b60405180910390f35b3480156106b757600080fd5b506106d260048036038101906106cd9190614532565b61154d565b6040516106df919061473a565b60405180910390f35b3480156106f457600080fd5b506106fd6118aa565b60405161070a9190613f7d565b60405180910390f35b34801561071f57600080fd5b5061073a60048036038101906107359190614532565b6118bb565b6040516107479190613f7d565b60405180910390f35b34801561075c57600080fd5b50610765611972565b005b34801561077357600080fd5b5061078e60048036038101906107899190614034565b611986565b005b34801561079c57600080fd5b506107a5611a08565b6040516107b29190614779565b60405180910390f35b3480156107c757600080fd5b506107d0611a1c565b6040516107dd9190614194565b60405180910390f35b3480156107f257600080fd5b5061080d600480360381019061080891906144f2565b611a46565b60405161081a9190613f49565b60405180910390f35b34801561082f57600080fd5b50610838611ab1565b6040516108459190614104565b60405180910390f35b34801561085a57600080fd5b5061087560048036038101906108709190614794565b611b43565b005b34801561088357600080fd5b5061088c611b9f565b6040516108999190613fb1565b60405180910390f35b3480156108ae57600080fd5b506108c960048036038101906108c49190614800565b611ba6565b005b3480156108d757600080fd5b506108e0611bbc565b6040516108ed919061489f565b60405180910390f35b34801561090257600080fd5b5061091d6004803603810190610918919061495b565b611be2565b005b34801561092b57600080fd5b5061094660048036038101906109419190614126565b611c44565b6040516109539190614104565b60405180910390f35b34801561096857600080fd5b50610983600480360381019061097e91906144f2565b611cac565b005b34801561099157600080fd5b506109ac60048036038101906109a79190614126565b611ccd565b6040516109b99190614a8f565b60405180910390f35b3480156109ce57600080fd5b506109e960048036038101906109e49190614ab1565b611f7c565b6040516109f69190613f49565b60405180910390f35b348015610a0b57600080fd5b50610a14612010565b604051610a219190614af1565b60405180910390f35b348015610a3657600080fd5b50610a516004803603810190610a4c9190614532565b612026565b005b348015610a5f57600080fd5b50610a7a6004803603810190610a759190614532565b6120a9565b005b6000610a87826120f6565b9050919050565b600f5481565b7f364d3d7565c7a8300c96fd53e065d19b65848d7b23b3191adcd55621c744223c81565b7f73e573f9566d61418a34d5de3ff49360f9c51fec37f7486551670290f6285dab610ae281612170565b816011600085815260200190815260200160002060010160008282829054906101000a900463ffffffff16610b179190614b3b565b92506101000a81548163ffffffff021916908363ffffffff160217905550505050565b606060008054610b4990614ba2565b80601f0160208091040260200160405190810160405280929190818152602001828054610b7590614ba2565b8015610bc25780601f10610b9757610100808354040283529160200191610bc2565b820191906000526020600020905b815481529060010190602001808311610ba557829003601f168201915b5050505050905090565b6000610bd782612184565b6004600083815260200190815260200160002060009054906101000a900473ffffffffffffffffffffffffffffffffffffffff169050919050565b6000610c1d826114c7565b90508073ffffffffffffffffffffffffffffffffffffffff168373ffffffffffffffffffffffffffffffffffffffff1603610c8d576040517f08c379a0000000000000000000000000000000000000000000000000000000008152600401610c8490614c45565b60405180910390fd5b8073ffffffffffffffffffffffffffffffffffffffff16610cac6121cf565b73ffffffffffffffffffffffffffffffffffffffff161480610cdb5750610cda81610cd56121cf565b611f7c565b5b610d1a576040517f08c379a0000000000000000000000000000000000000000000000000000000008152600401610d1190614cd7565b60405180910390fd5b610d2483836121d7565b505050565b7f73e573f9566d61418a34d5de3ff49360f9c51fec37f7486551670290f6285dab610d5381612170565b47821115610d96576040517f08c379a0000000000000000000000000000000000000000000000000000000008152600401610d8d90614d43565b60405180910390fd5b8273ffffffffffffffffffffffffffffffffffffffff166108fc839081150290604051600060405180830381858888f19350505050158015610ddc573d6000803e3d6000fd5b50505050565b60116020528060005260406000206000915090508060000154908060010160009054906101000a900463ffffffff1690806002018054610e2190614ba2565b80601f0160208091040260200160405190810160405280929190818152602001828054610e4d90614ba2565b8015610e9a5780601f10610e6f57610100808354040283529160200191610e9a565b820191906000526020600020905b815481529060010190602001808311610e7d57829003601f168201915b505050505090806003018054610eaf90614ba2565b80601f0160208091040260200160405190810160405280929190818152602001828054610edb90614ba2565b8015610f285780601f10610efd57610100808354040283529160200191610f28565b820191906000526020600020905b815481529060010190602001808311610f0b57829003601f168201915b505050505090806004018054610f3d90614ba2565b80601f0160208091040260200160405190810160405280929190818152602001828054610f6990614ba2565b8015610fb65780601f10610f8b57610100808354040283529160200191610fb6565b820191906000526020600020905b815481529060010190602001808311610f9957829003601f168201915b505050505090806005018054610fcb90614ba2565b80601f0160208091040260200160405190810160405280929190818152602001828054610ff790614ba2565b80156110445780601f1061101957610100808354040283529160200191611044565b820191906000526020600020905b81548152906001019060200180831161102757829003601f168201915b5050505050908060060154905087565b600047905090565b6000600880549050905090565b61107a6110746121cf565b82612290565b6110b9576040517f08c379a00000000000000000000000000000000000000000000000000000000081526004016110b090614dd5565b60405180910390fd5b6110c4838383612325565b505050565b6000600a6000838152602001908152602001600020600101549050919050565b6060601060009054906101000a900473ffffffffffffffffffffffffffffffffffffffff1673ffffffffffffffffffffffffffffffffffffffff16632b68789484846040518363ffffffff1660e01b8152600401611148929190614df5565b600060405180830381865afa158015611165573d6000803e3d6000fd5b505050506040513d6000823e3d601f19601f8201168201806040525081019061118e9190614e95565b905092915050565b61119f826110c9565b6111a881612170565b6111b2838361261e565b505050565b60006111c2836118bb565b8210611203576040517f08c379a00000000000000000000000000000000000000000000000000000000081526004016111fa90614f50565b60405180910390fd5b600660008473ffffffffffffffffffffffffffffffffffffffff1673ffffffffffffffffffffffffffffffffffffffff168152602001908152602001600020600083815260200190815260200160002054905092915050565b6112646121cf565b73ffffffffffffffffffffffffffffffffffffffff168173ffffffffffffffffffffffffffffffffffffffff16146112d1576040517f08c379a00000000000000000000000000000000000000000000000000000000081526004016112c890614fe2565b60405180910390fd5b6112db82826126ff565b5050565b6112fa83838360405180602001604052806000815250611be2565b505050565b7f73e573f9566d61418a34d5de3ff49360f9c51fec37f7486551670290f6285dab81565b600061132d61105c565b821061136e576040517f08c379a000000000000000000000000000000000000000000000000000000000815260040161136590615074565b60405180910390fd5b6008828154811061138257611381615094565b5b90600052602060002001549050919050565b6000600e60009054906101000a900463ffffffff1663ffffffff166113b9600c6127e1565b106113f9576040517f08c379a00000000000000000000000000000000000000000000000000000000081526004016113f09061510f565b60405180910390fd5b600f5434101561143e576040517f08c379a000000000000000000000000000000000000000000000000000000000815260040161143590614d43565b60405180910390fd5b600e60049054906101000a900461ffff1661ffff1661145c336118bb565b1061149c576040517f08c379a00000000000000000000000000000000000000000000000000000000081526004016114939061517b565b60405180910390fd5b6114a6600c6120e0565b60006114b2600c6127e1565b90506114be83826127ef565b80915050919050565b6000806114d383612a0c565b9050600073ffffffffffffffffffffffffffffffffffffffff168173ffffffffffffffffffffffffffffffffffffffff1603611544576040517f08c379a000000000000000000000000000000000000000000000000000000000815260040161153b906151e7565b60405180910390fd5b80915050919050565b6060600061155a836118bb565b905060008167ffffffffffffffff8111156115785761157761436b565b5b6040519080825280602002602001820160405280156115b157816020015b61159e613e52565b8152602001906001900390816115965790505b50905060005b8281101561189f5760006115cb86836111b7565b9050601160008281526020019081526020016000206040518060e0016040529081600082015481526020016001820160009054906101000a900463ffffffff1663ffffffff1663ffffffff16815260200160028201805461162b90614ba2565b80601f016020809104026020016040519081016040528092919081815260200182805461165790614ba2565b80156116a45780601f10611679576101008083540402835291602001916116a4565b820191906000526020600020905b81548152906001019060200180831161168757829003601f168201915b505050505081526020016003820180546116bd90614ba2565b80601f01602080910402602001604051908101604052809291908181526020018280546116e990614ba2565b80156117365780601f1061170b57610100808354040283529160200191611736565b820191906000526020600020905b81548152906001019060200180831161171957829003601f168201915b5050505050815260200160048201805461174f90614ba2565b80601f016020809104026020016040519081016040528092919081815260200182805461177b90614ba2565b80156117c85780601f1061179d576101008083540402835291602001916117c8565b820191906000526020600020905b8154815290600101906020018083116117ab57829003601f168201915b505050505081526020016005820180546117e190614ba2565b80601f016020809104026020016040519081016040528092919081815260200182805461180d90614ba2565b801561185a5780601f1061182f5761010080835404028352916020019161185a565b820191906000526020600020905b81548152906001019060200180831161183d57829003601f168201915b505050505081526020016006820154815250508383815181106118805761187f615094565b5b602002602001018190525050808061189790615207565b9150506115b7565b508092505050919050565b60006118b6600c6127e1565b905090565b60008073ffffffffffffffffffffffffffffffffffffffff168273ffffffffffffffffffffffffffffffffffffffff160361192b576040517f08c379a0000000000000000000000000000000000000000000000000000000008152600401611922906152c1565b60405180910390fd5b600360008373ffffffffffffffffffffffffffffffffffffffff1673ffffffffffffffffffffffffffffffffffffffff168152602001908152602001600020549050919050565b61197a612a49565b6119846000612ac7565b565b7f73e573f9566d61418a34d5de3ff49360f9c51fec37f7486551670290f6285dab6119b081612170565b816011600085815260200190815260200160002060010160008282829054906101000a900463ffffffff166119e591906152e1565b92506101000a81548163ffffffff021916908363ffffffff160217905550505050565b600e60049054906101000a900461ffff1681565b6000600b60009054906101000a900473ffffffffffffffffffffffffffffffffffffffff16905090565b6000600a600084815260200190815260200160002060000160008373ffffffffffffffffffffffffffffffffffffffff1673ffffffffffffffffffffffffffffffffffffffff16815260200190815260200160002060009054906101000a900460ff16905092915050565b606060018054611ac090614ba2565b80601f0160208091040260200160405190810160405280929190818152602001828054611aec90614ba2565b8015611b395780601f10611b0e57610100808354040283529160200191611b39565b820191906000526020600020905b815481529060010190602001808311611b1c57829003601f168201915b5050505050905090565b7f73e573f9566d61418a34d5de3ff49360f9c51fec37f7486551670290f6285dab611b6d81612170565b81601160008581526020019081526020016000206006016000828254611b939190615319565b92505081905550505050565b6000801b81565b611bb8611bb16121cf565b8383612b8d565b5050565b601060009054906101000a900473ffffffffffffffffffffffffffffffffffffffff1681565b611bf3611bed6121cf565b83612290565b611c32576040517f08c379a0000000000000000000000000000000000000000000000000000000008152600401611c2990614dd5565b60405180910390fd5b611c3e84848484612cf9565b50505050565b6060611c4f82612184565b6000611c59612d55565b90506000815111611c795760405180602001604052806000815250611ca4565b80611c8384612d6c565b604051602001611c94929190615389565b6040516020818303038152906040525b915050919050565b611cb5826110c9565b611cbe81612170565b611cc883836126ff565b505050565b611cd5613e52565b601160008381526020019081526020016000206040518060e0016040529081600082015481526020016001820160009054906101000a900463ffffffff1663ffffffff1663ffffffff168152602001600282018054611d3390614ba2565b80601f0160208091040260200160405190810160405280929190818152602001828054611d5f90614ba2565b8015611dac5780601f10611d8157610100808354040283529160200191611dac565b820191906000526020600020905b815481529060010190602001808311611d8f57829003601f168201915b50505050508152602001600382018054611dc590614ba2565b80601f0160208091040260200160405190810160405280929190818152602001828054611df190614ba2565b8015611e3e5780601f10611e1357610100808354040283529160200191611e3e565b820191906000526020600020905b815481529060010190602001808311611e2157829003601f168201915b50505050508152602001600482018054611e5790614ba2565b80601f0160208091040260200160405190810160405280929190818152602001828054611e8390614ba2565b8015611ed05780601f10611ea557610100808354040283529160200191611ed0565b820191906000526020600020905b815481529060010190602001808311611eb357829003601f168201915b50505050508152602001600582018054611ee990614ba2565b80601f0160208091040260200160405190810160405280929190818152602001828054611f1590614ba2565b8015611f625780601f10611f3757610100808354040283529160200191611f62565b820191906000526020600020905b815481529060010190602001808311611f4557829003601f168201915b505050505081526020016006820154815250509050919050565b6000600560008473ffffffffffffffffffffffffffffffffffffffff1673ffffffffffffffffffffffffffffffffffffffff16815260200190815260200160002060008373ffffffffffffffffffffffffffffffffffffffff1673ffffffffffffffffffffffffffffffffffffffff16815260200190815260200160002060009054906101000a900460ff16905092915050565b600e60009054906101000a900463ffffffff1681565b61202e612a49565b600073ffffffffffffffffffffffffffffffffffffffff168173ffffffffffffffffffffffffffffffffffffffff160361209d576040517f08c379a00000000000000000000000000000000000000000000000000000000081526004016120949061541f565b60405180910390fd5b6120a681612ac7565b50565b7f73e573f9566d61418a34d5de3ff49360f9c51fec37f7486551670290f6285dab6120d381612170565b6120dc82612e3a565b5050565b6001816000016000828254019250508190555050565b60007f7965db0b000000000000000000000000000000000000000000000000000000007bffffffffffffffffffffffffffffffffffffffffffffffffffffffff1916827bffffffffffffffffffffffffffffffffffffffffffffffffffffffff191614806121695750612168826130d0565b5b9050919050565b6121818161217c6121cf565b61314a565b50565b61218d816131cf565b6121cc576040517f08c379a00000000000000000000000000000000000000000000000000000000081526004016121c3906151e7565b60405180910390fd5b50565b600033905090565b816004600083815260200190815260200160002060006101000a81548173ffffffffffffffffffffffffffffffffffffffff021916908373ffffffffffffffffffffffffffffffffffffffff160217905550808273ffffffffffffffffffffffffffffffffffffffff1661224a836114c7565b73ffffffffffffffffffffffffffffffffffffffff167f8c5be1e5ebec7d5bd14f71427d1e84f3dd0314c0f7b2291e5b200ac8c7c3b92560405160405180910390a45050565b60008061229c836114c7565b90508073ffffffffffffffffffffffffffffffffffffffff168473ffffffffffffffffffffffffffffffffffffffff1614806122de57506122dd8185611f7c565b5b8061231c57508373ffffffffffffffffffffffffffffffffffffffff1661230484610bcc565b73ffffffffffffffffffffffffffffffffffffffff16145b91505092915050565b8273ffffffffffffffffffffffffffffffffffffffff16612345826114c7565b73ffffffffffffffffffffffffffffffffffffffff161461239b576040517f08c379a0000000000000000000000000000000000000000000000000000000008152600401612392906154b1565b60405180910390fd5b600073ffffffffffffffffffffffffffffffffffffffff168273ffffffffffffffffffffffffffffffffffffffff160361240a576040517f08c379a000000000000000000000000000000000000000000000000000000000815260040161240190615543565b60405180910390fd5b6124178383836001613210565b8273ffffffffffffffffffffffffffffffffffffffff16612437826114c7565b73ffffffffffffffffffffffffffffffffffffffff161461248d576040517f08c379a0000000000000000000000000000000000000000000000000000000008152600401612484906154b1565b60405180910390fd5b6004600082815260200190815260200160002060006101000a81549073ffffffffffffffffffffffffffffffffffffffff02191690556001600360008573ffffffffffffffffffffffffffffffffffffffff1673ffffffffffffffffffffffffffffffffffffffff168152602001908152602001600020600082825403925050819055506001600360008473ffffffffffffffffffffffffffffffffffffffff1673ffffffffffffffffffffffffffffffffffffffff16815260200190815260200160002060008282540192505081905550816002600083815260200190815260200160002060006101000a81548173ffffffffffffffffffffffffffffffffffffffff021916908373ffffffffffffffffffffffffffffffffffffffff160217905550808273ffffffffffffffffffffffffffffffffffffffff168473ffffffffffffffffffffffffffffffffffffffff167fddf252ad1be2c89b69c2b068fc378daa952ba7f163c4a11628f55a4df523b3ef60405160405180910390a4612619838383600161336e565b505050565b6126288282611a46565b6126fb576001600a600084815260200190815260200160002060000160008373ffffffffffffffffffffffffffffffffffffffff1673ffffffffffffffffffffffffffffffffffffffff16815260200190815260200160002060006101000a81548160ff0219169083151502179055506126a06121cf565b73ffffffffffffffffffffffffffffffffffffffff168173ffffffffffffffffffffffffffffffffffffffff16837f2f8788117e7eff1d82e926ec794901d17c78024a50270940304540a733656f0d60405160405180910390a45b5050565b6127098282611a46565b156127dd576000600a600084815260200190815260200160002060000160008373ffffffffffffffffffffffffffffffffffffffff1673ffffffffffffffffffffffffffffffffffffffff16815260200190815260200160002060006101000a81548160ff0219169083151502179055506127826121cf565b73ffffffffffffffffffffffffffffffffffffffff168173ffffffffffffffffffffffffffffffffffffffff16837ff6391f5c32d9c69d2a47ea670b442974b53935d1edc7fd64eb21e047a839171b60405160405180910390a45b5050565b600081600001549050919050565b600073ffffffffffffffffffffffffffffffffffffffff168273ffffffffffffffffffffffffffffffffffffffff160361285e576040517f08c379a0000000000000000000000000000000000000000000000000000000008152600401612855906155af565b60405180910390fd5b612867816131cf565b156128a7576040517f08c379a000000000000000000000000000000000000000000000000000000000815260040161289e9061561b565b60405180910390fd5b6128b5600083836001613210565b6128be816131cf565b156128fe576040517f08c379a00000000000000000000000000000000000000000000000000000000081526004016128f59061561b565b60405180910390fd5b6001600360008473ffffffffffffffffffffffffffffffffffffffff1673ffffffffffffffffffffffffffffffffffffffff16815260200190815260200160002060008282540192505081905550816002600083815260200190815260200160002060006101000a81548173ffffffffffffffffffffffffffffffffffffffff021916908373ffffffffffffffffffffffffffffffffffffffff160217905550808273ffffffffffffffffffffffffffffffffffffffff16600073ffffffffffffffffffffffffffffffffffffffff167fddf252ad1be2c89b69c2b068fc378daa952ba7f163c4a11628f55a4df523b3ef60405160405180910390a4612a0860008383600161336e565b5050565b60006002600083815260200190815260200160002060009054906101000a900473ffffffffffffffffffffffffffffffffffffffff169050919050565b612a516121cf565b73ffffffffffffffffffffffffffffffffffffffff16612a6f611a1c565b73ffffffffffffffffffffffffffffffffffffffff1614612ac5576040517f08c379a0000000000000000000000000000000000000000000000000000000008152600401612abc90615687565b60405180910390fd5b565b6000600b60009054906101000a900473ffffffffffffffffffffffffffffffffffffffff16905081600b60006101000a81548173ffffffffffffffffffffffffffffffffffffffff021916908373ffffffffffffffffffffffffffffffffffffffff1602179055508173ffffffffffffffffffffffffffffffffffffffff168173ffffffffffffffffffffffffffffffffffffffff167f8be0079c531659141344cd1fd0a4f28419497f9722a3daafe3b4186f6b6457e060405160405180910390a35050565b8173ffffffffffffffffffffffffffffffffffffffff168373ffffffffffffffffffffffffffffffffffffffff1603612bfb576040517f08c379a0000000000000000000000000000000000000000000000000000000008152600401612bf2906156f3565b60405180910390fd5b80600560008573ffffffffffffffffffffffffffffffffffffffff1673ffffffffffffffffffffffffffffffffffffffff16815260200190815260200160002060008473ffffffffffffffffffffffffffffffffffffffff1673ffffffffffffffffffffffffffffffffffffffff16815260200190815260200160002060006101000a81548160ff0219169083151502179055508173ffffffffffffffffffffffffffffffffffffffff168373ffffffffffffffffffffffffffffffffffffffff167f17307eab39ab6107e8899845ad3d59bd9653f200f220920489ca2b5937696c3183604051612cec9190613f49565b60405180910390a3505050565b612d04848484612325565b612d1084848484613374565b612d4f576040517f08c379a0000000000000000000000000000000000000000000000000000000008152600401612d4690615785565b60405180910390fd5b50505050565b606060405180602001604052806000815250905090565b606060006001612d7b846134fb565b01905060008167ffffffffffffffff811115612d9a57612d9961436b565b5b6040519080825280601f01601f191660200182016040528015612dcc5781602001600182028036833780820191505090505b509050600082602001820190505b600115612e2f578080600190039150507f3031323334353637383961626364656600000000000000000000000000000000600a86061a8153600a8581612e2357612e226157a5565b5b04945060008503612dda575b819350505050919050565b6000612e46600c6127e1565b9050600e60009054906101000a900463ffffffff1663ffffffff168110612ea2576040517f08c379a0000000000000000000000000000000000000000000000000000000008152600401612e999061510f565b60405180910390fd5b600e60049054906101000a900461ffff1661ffff16612ec0336118bb565b10612f00576040517f08c379a0000000000000000000000000000000000000000000000000000000008152600401612ef79061517b565b60405180910390fd5b612f0a82826127ef565b6040518060e00160405280828152602001600063ffffffff1681526020016040518060400160405280600681526020017f53756c667572000000000000000000000000000000000000000000000000000081525081526020016040518060400160405280600381526020017f417865000000000000000000000000000000000000000000000000000000000081525081526020016040518060400160405280600681526020017f48656c6d6574000000000000000000000000000000000000000000000000000081525081526020016040518060400160405280600881526020017f4e65636b6c61636500000000000000000000000000000000000000000000000081525081526020016000815250601160008381526020019081526020016000206000820151816000015560208201518160010160006101000a81548163ffffffff021916908363ffffffff16021790555060408201518160020190816130729190615976565b5060608201518160030190816130889190615976565b50608082015181600401908161309e9190615976565b5060a08201518160050190816130b49190615976565b5060c082015181600601559050506130cc600c6120e0565b5050565b60007f780e9d63000000000000000000000000000000000000000000000000000000007bffffffffffffffffffffffffffffffffffffffffffffffffffffffff1916827bffffffffffffffffffffffffffffffffffffffffffffffffffffffff1916148061314357506131428261364e565b5b9050919050565b6131548282611a46565b6131cb5761316181613730565b61316f8360001c602061375d565b604051602001613180929190615ae0565b6040516020818303038152906040526040517f08c379a00000000000000000000000000000000000000000000000000000000081526004016131c29190614104565b60405180910390fd5b5050565b60008073ffffffffffffffffffffffffffffffffffffffff166131f183612a0c565b73ffffffffffffffffffffffffffffffffffffffff1614159050919050565b61321c84848484613999565b6001811115613260576040517f08c379a000000000000000000000000000000000000000000000000000000000815260040161325790615b8c565b60405180910390fd5b6000829050600073ffffffffffffffffffffffffffffffffffffffff168573ffffffffffffffffffffffffffffffffffffffff16036132a7576132a281613abf565b6132e6565b8373ffffffffffffffffffffffffffffffffffffffff168573ffffffffffffffffffffffffffffffffffffffff16146132e5576132e48582613b08565b5b5b600073ffffffffffffffffffffffffffffffffffffffff168473ffffffffffffffffffffffffffffffffffffffff16036133285761332381613c75565b613367565b8473ffffffffffffffffffffffffffffffffffffffff168473ffffffffffffffffffffffffffffffffffffffff1614613366576133658482613d46565b5b5b5050505050565b50505050565b60006133958473ffffffffffffffffffffffffffffffffffffffff16613dc5565b156134ee578373ffffffffffffffffffffffffffffffffffffffff1663150b7a026133be6121cf565b8786866040518563ffffffff1660e01b81526004016133e09493929190615c01565b6020604051808303816000875af192505050801561341c57506040513d601f19601f820116820180604052508101906134199190615c62565b60015b61349e573d806000811461344c576040519150601f19603f3d011682016040523d82523d6000602084013e613451565b606091505b506000815103613496576040517f08c379a000000000000000000000000000000000000000000000000000000000815260040161348d90615785565b60405180910390fd5b805181602001fd5b63150b7a0260e01b7bffffffffffffffffffffffffffffffffffffffffffffffffffffffff1916817bffffffffffffffffffffffffffffffffffffffffffffffffffffffff1916149150506134f3565b600190505b949350505050565b600080600090507a184f03e93ff9f4daa797ed6e38ed64bf6a1f0100000000000000008310613559577a184f03e93ff9f4daa797ed6e38ed64bf6a1f010000000000000000838161354f5761354e6157a5565b5b0492506040810190505b6d04ee2d6d415b85acef81000000008310613596576d04ee2d6d415b85acef8100000000838161358c5761358b6157a5565b5b0492506020810190505b662386f26fc1000083106135c557662386f26fc1000083816135bb576135ba6157a5565b5b0492506010810190505b6305f5e10083106135ee576305f5e10083816135e4576135e36157a5565b5b0492506008810190505b6127108310613613576127108381613609576136086157a5565b5b0492506004810190505b60648310613636576064838161362c5761362b6157a5565b5b0492506002810190505b600a8310613645576001810190505b80915050919050565b60007f80ac58cd000000000000000000000000000000000000000000000000000000007bffffffffffffffffffffffffffffffffffffffffffffffffffffffff1916827bffffffffffffffffffffffffffffffffffffffffffffffffffffffff1916148061371957507f5b5e139f000000000000000000000000000000000000000000000000000000007bffffffffffffffffffffffffffffffffffffffffffffffffffffffff1916827bffffffffffffffffffffffffffffffffffffffffffffffffffffffff1916145b80613729575061372882613de8565b5b9050919050565b60606137568273ffffffffffffffffffffffffffffffffffffffff16601460ff1661375d565b9050919050565b6060600060028360026137709190615c8f565b61377a9190615319565b67ffffffffffffffff8111156137935761379261436b565b5b6040519080825280601f01601f1916602001820160405280156137c55781602001600182028036833780820191505090505b5090507f3000000000000000000000000000000000000000000000000000000000000000816000815181106137fd576137fc615094565b5b60200101907effffffffffffffffffffffffffffffffffffffffffffffffffffffffffffff1916908160001a9053507f78000000000000000000000000000000000000000000000000000000000000008160018151811061386157613860615094565b5b60200101907effffffffffffffffffffffffffffffffffffffffffffffffffffffffffffff1916908160001a905350600060018460026138a19190615c8f565b6138ab9190615319565b90505b600181111561394b577f3031323334353637383961626364656600000000000000000000000000000000600f8616601081106138ed576138ec615094565b5b1a60f81b82828151811061390457613903615094565b5b60200101907effffffffffffffffffffffffffffffffffffffffffffffffffffffffffffff1916908160001a905350600485901c94508061394490615cd1565b90506138ae565b506000841461398f576040517f08c379a000000000000000000000000000000000000000000000000000000000815260040161398690615d46565b60405180910390fd5b8091505092915050565b6001811115613ab957600073ffffffffffffffffffffffffffffffffffffffff168473ffffffffffffffffffffffffffffffffffffffff1614613a2d5780600360008673ffffffffffffffffffffffffffffffffffffffff1673ffffffffffffffffffffffffffffffffffffffff1681526020019081526020016000206000828254613a259190615d66565b925050819055505b600073ffffffffffffffffffffffffffffffffffffffff168373ffffffffffffffffffffffffffffffffffffffff1614613ab85780600360008573ffffffffffffffffffffffffffffffffffffffff1673ffffffffffffffffffffffffffffffffffffffff1681526020019081526020016000206000828254613ab09190615319565b925050819055505b5b50505050565b6008805490506009600083815260200190815260200160002081905550600881908060018154018082558091505060019003906000526020600020016000909190919091505550565b60006001613b15846118bb565b613b1f9190615d66565b9050600060076000848152602001908152602001600020549050818114613c04576000600660008673ffffffffffffffffffffffffffffffffffffffff1673ffffffffffffffffffffffffffffffffffffffff168152602001908152602001600020600084815260200190815260200160002054905080600660008773ffffffffffffffffffffffffffffffffffffffff1673ffffffffffffffffffffffffffffffffffffffff168152602001908152602001600020600084815260200190815260200160002081905550816007600083815260200190815260200160002081905550505b6007600084815260200190815260200160002060009055600660008573ffffffffffffffffffffffffffffffffffffffff1673ffffffffffffffffffffffffffffffffffffffff16815260200190815260200160002060008381526020019081526020016000206000905550505050565b60006001600880549050613c899190615d66565b9050600060096000848152602001908152602001600020549050600060088381548110613cb957613cb8615094565b5b906000526020600020015490508060088381548110613cdb57613cda615094565b5b906000526020600020018190555081600960008381526020019081526020016000208190555060096000858152602001908152602001600020600090556008805480613d2a57613d29615d9a565b5b6001900381819060005260206000200160009055905550505050565b6000613d51836118bb565b905081600660008573ffffffffffffffffffffffffffffffffffffffff1673ffffffffffffffffffffffffffffffffffffffff168152602001908152602001600020600083815260200190815260200160002081905550806007600084815260200190815260200160002081905550505050565b6000808273ffffffffffffffffffffffffffffffffffffffff163b119050919050565b60007f01ffc9a7000000000000000000000000000000000000000000000000000000007bffffffffffffffffffffffffffffffffffffffffffffffffffffffff1916827bffffffffffffffffffffffffffffffffffffffffffffffffffffffff1916149050919050565b6040518060e0016040528060008152602001600063ffffffff16815260200160608152602001606081526020016060815260200160608152602001600081525090565b6000604051905090565b600080fd5b600080fd5b60007fffffffff0000000000000000000000000000000000000000000000000000000082169050919050565b613ede81613ea9565b8114613ee957600080fd5b50565b600081359050613efb81613ed5565b92915050565b600060208284031215613f1757613f16613e9f565b5b6000613f2584828501613eec565b91505092915050565b60008115159050919050565b613f4381613f2e565b82525050565b6000602082019050613f5e6000830184613f3a565b92915050565b6000819050919050565b613f7781613f64565b82525050565b6000602082019050613f926000830184613f6e565b92915050565b6000819050919050565b613fab81613f98565b82525050565b6000602082019050613fc66000830184613fa2565b92915050565b613fd581613f64565b8114613fe057600080fd5b50565b600081359050613ff281613fcc565b92915050565b600063ffffffff82169050919050565b61401181613ff8565b811461401c57600080fd5b50565b60008135905061402e81614008565b92915050565b6000806040838503121561404b5761404a613e9f565b5b600061405985828601613fe3565b925050602061406a8582860161401f565b9150509250929050565b600081519050919050565b600082825260208201905092915050565b60005b838110156140ae578082015181840152602081019050614093565b60008484015250505050565b6000601f19601f8301169050919050565b60006140d682614074565b6140e0818561407f565b93506140f0818560208601614090565b6140f9816140ba565b840191505092915050565b6000602082019050818103600083015261411e81846140cb565b905092915050565b60006020828403121561413c5761413b613e9f565b5b600061414a84828501613fe3565b91505092915050565b600073ffffffffffffffffffffffffffffffffffffffff82169050919050565b600061417e82614153565b9050919050565b61418e81614173565b82525050565b60006020820190506141a96000830184614185565b92915050565b6141b881614173565b81146141c357600080fd5b50565b6000813590506141d5816141af565b92915050565b600080604083850312156141f2576141f1613e9f565b5b6000614200858286016141c6565b925050602061421185828601613fe3565b9150509250929050565b61422481613ff8565b82525050565b600060e08201905061423f600083018a613f6e565b61424c602083018961421b565b818103604083015261425e81886140cb565b9050818103606083015261427281876140cb565b9050818103608083015261428681866140cb565b905081810360a083015261429a81856140cb565b90506142a960c0830184613f6e565b98975050505050505050565b6000806000606084860312156142ce576142cd613e9f565b5b60006142dc868287016141c6565b93505060206142ed868287016141c6565b92505060406142fe86828701613fe3565b9150509250925092565b61431181613f98565b811461431c57600080fd5b50565b60008135905061432e81614308565b92915050565b60006020828403121561434a57614349613e9f565b5b60006143588482850161431f565b91505092915050565b600080fd5b600080fd5b7f4e487b7100000000000000000000000000000000000000000000000000000000600052604160045260246000fd5b6143a3826140ba565b810181811067ffffffffffffffff821117156143c2576143c161436b565b5b80604052505050565b60006143d5613e95565b90506143e1828261439a565b919050565b600067ffffffffffffffff8211156144015761440061436b565b5b61440a826140ba565b9050602081019050919050565b82818337600083830152505050565b6000614439614434846143e6565b6143cb565b90508281526020810184848401111561445557614454614366565b5b614460848285614417565b509392505050565b600082601f83011261447d5761447c614361565b5b813561448d848260208601614426565b91505092915050565b600080604083850312156144ad576144ac613e9f565b5b60006144bb85828601613fe3565b925050602083013567ffffffffffffffff8111156144dc576144db613ea4565b5b6144e885828601614468565b9150509250929050565b6000806040838503121561450957614508613e9f565b5b60006145178582860161431f565b9250506020614528858286016141c6565b9150509250929050565b60006020828403121561454857614547613e9f565b5b6000614556848285016141c6565b91505092915050565b600081519050919050565b600082825260208201905092915050565b6000819050602082019050919050565b61459481613f64565b82525050565b6145a381613ff8565b82525050565b600082825260208201905092915050565b60006145c582614074565b6145cf81856145a9565b93506145df818560208601614090565b6145e8816140ba565b840191505092915050565b600060e08301600083015161460b600086018261458b565b50602083015161461e602086018261459a565b506040830151848203604086015261463682826145ba565b9150506060830151848203606086015261465082826145ba565b9150506080830151848203608086015261466a82826145ba565b91505060a083015184820360a086015261468482826145ba565b91505060c083015161469960c086018261458b565b508091505092915050565b60006146b083836145f3565b905092915050565b6000602082019050919050565b60006146d08261455f565b6146da818561456a565b9350836020820285016146ec8561457b565b8060005b85811015614728578484038952815161470985826146a4565b9450614714836146b8565b925060208a019950506001810190506146f0565b50829750879550505050505092915050565b6000602082019050818103600083015261475481846146c5565b905092915050565b600061ffff82169050919050565b6147738161475c565b82525050565b600060208201905061478e600083018461476a565b92915050565b600080604083850312156147ab576147aa613e9f565b5b60006147b985828601613fe3565b92505060206147ca85828601613fe3565b9150509250929050565b6147dd81613f2e565b81146147e857600080fd5b50565b6000813590506147fa816147d4565b92915050565b6000806040838503121561481757614816613e9f565b5b6000614825858286016141c6565b9250506020614836858286016147eb565b9150509250929050565b6000819050919050565b600061486561486061485b84614153565b614840565b614153565b9050919050565b60006148778261484a565b9050919050565b60006148898261486c565b9050919050565b6148998161487e565b82525050565b60006020820190506148b46000830184614890565b92915050565b600067ffffffffffffffff8211156148d5576148d461436b565b5b6148de826140ba565b9050602081019050919050565b60006148fe6148f9846148ba565b6143cb565b90508281526020810184848401111561491a57614919614366565b5b614925848285614417565b509392505050565b600082601f83011261494257614941614361565b5b81356149528482602086016148eb565b91505092915050565b6000806000806080858703121561497557614974613e9f565b5b6000614983878288016141c6565b9450506020614994878288016141c6565b93505060406149a587828801613fe3565b925050606085013567ffffffffffffffff8111156149c6576149c5613ea4565b5b6149d28782880161492d565b91505092959194509250565b600060e0830160008301516149f6600086018261458b565b506020830151614a09602086018261459a565b5060408301518482036040860152614a2182826145ba565b91505060608301518482036060860152614a3b82826145ba565b91505060808301518482036080860152614a5582826145ba565b91505060a083015184820360a0860152614a6f82826145ba565b91505060c0830151614a8460c086018261458b565b508091505092915050565b60006020820190508181036000830152614aa981846149de565b905092915050565b60008060408385031215614ac857614ac7613e9f565b5b6000614ad6858286016141c6565b9250506020614ae7858286016141c6565b9150509250929050565b6000602082019050614b06600083018461421b565b92915050565b7f4e487b7100000000000000000000000000000000000000000000000000000000600052601160045260246000fd5b6000614b4682613ff8565b9150614b5183613ff8565b9250828201905063ffffffff811115614b6d57614b6c614b0c565b5b92915050565b7f4e487b7100000000000000000000000000000000000000000000000000000000600052602260045260246000fd5b60006002820490506001821680614bba57607f821691505b602082108103614bcd57614bcc614b73565b5b50919050565b7f4552433732313a20617070726f76616c20746f2063757272656e74206f776e6560008201527f7200000000000000000000000000000000000000000000000000000000000000602082015250565b6000614c2f60218361407f565b9150614c3a82614bd3565b604082019050919050565b60006020820190508181036000830152614c5e81614c22565b9050919050565b7f4552433732313a20617070726f76652063616c6c6572206973206e6f7420746f60008201527f6b656e206f776e6572206f7220617070726f76656420666f7220616c6c000000602082015250565b6000614cc1603d8361407f565b9150614ccc82614c65565b604082019050919050565b60006020820190508181036000830152614cf081614cb4565b9050919050565b7f496e73756666696369656e742066756e64730000000000000000000000000000600082015250565b6000614d2d60128361407f565b9150614d3882614cf7565b602082019050919050565b60006020820190508181036000830152614d5c81614d20565b9050919050565b7f4552433732313a2063616c6c6572206973206e6f7420746f6b656e206f776e6560008201527f72206f7220617070726f76656400000000000000000000000000000000000000602082015250565b6000614dbf602d8361407f565b9150614dca82614d63565b604082019050919050565b60006020820190508181036000830152614dee81614db2565b9050919050565b6000604082019050614e0a6000830185613f6e565b8181036020830152614e1c81846140cb565b90509392505050565b6000614e38614e33846143e6565b6143cb565b905082815260208101848484011115614e5457614e53614366565b5b614e5f848285614090565b509392505050565b600082601f830112614e7c57614e7b614361565b5b8151614e8c848260208601614e25565b91505092915050565b600060208284031215614eab57614eaa613e9f565b5b600082015167ffffffffffffffff811115614ec957614ec8613ea4565b5b614ed584828501614e67565b91505092915050565b7f455243373231456e756d657261626c653a206f776e657220696e646578206f7560008201527f74206f6620626f756e6473000000000000000000000000000000000000000000602082015250565b6000614f3a602b8361407f565b9150614f4582614ede565b604082019050919050565b60006020820190508181036000830152614f6981614f2d565b9050919050565b7f416363657373436f6e74726f6c3a2063616e206f6e6c792072656e6f756e636560008201527f20726f6c657320666f722073656c660000000000000000000000000000000000602082015250565b6000614fcc602f8361407f565b9150614fd782614f70565b604082019050919050565b60006020820190508181036000830152614ffb81614fbf565b9050919050565b7f455243373231456e756d657261626c653a20676c6f62616c20696e646578206f60008201527f7574206f6620626f756e64730000000000000000000000000000000000000000602082015250565b600061505e602c8361407f565b915061506982615002565b604082019050919050565b6000602082019050818103600083015261508d81615051565b9050919050565b7f4e487b7100000000000000000000000000000000000000000000000000000000600052603260045260246000fd5b7f4d696e74206c696d697420726561636865640000000000000000000000000000600082015250565b60006150f960128361407f565b9150615104826150c3565b602082019050919050565b60006020820190508181036000830152615128816150ec565b9050919050565b7f4d6178207065722077616c6c6574207265616368656400000000000000000000600082015250565b600061516560168361407f565b91506151708261512f565b602082019050919050565b6000602082019050818103600083015261519481615158565b9050919050565b7f4552433732313a20696e76616c696420746f6b656e2049440000000000000000600082015250565b60006151d160188361407f565b91506151dc8261519b565b602082019050919050565b60006020820190508181036000830152615200816151c4565b9050919050565b600061521282613f64565b91507fffffffffffffffffffffffffffffffffffffffffffffffffffffffffffffffff820361524457615243614b0c565b5b600182019050919050565b7f4552433732313a2061646472657373207a65726f206973206e6f74206120766160008201527f6c6964206f776e65720000000000000000000000000000000000000000000000602082015250565b60006152ab60298361407f565b91506152b68261524f565b604082019050919050565b600060208201905081810360008301526152da8161529e565b9050919050565b60006152ec82613ff8565b91506152f783613ff8565b9250828203905063ffffffff81111561531357615312614b0c565b5b92915050565b600061532482613f64565b915061532f83613f64565b925082820190508082111561534757615346614b0c565b5b92915050565b600081905092915050565b600061536382614074565b61536d818561534d565b935061537d818560208601614090565b80840191505092915050565b60006153958285615358565b91506153a18284615358565b91508190509392505050565b7f4f776e61626c653a206e6577206f776e657220697320746865207a65726f206160008201527f6464726573730000000000000000000000000000000000000000000000000000602082015250565b600061540960268361407f565b9150615414826153ad565b604082019050919050565b60006020820190508181036000830152615438816153fc565b9050919050565b7f4552433732313a207472616e736665722066726f6d20696e636f72726563742060008201527f6f776e6572000000000000000000000000000000000000000000000000000000602082015250565b600061549b60258361407f565b91506154a68261543f565b604082019050919050565b600060208201905081810360008301526154ca8161548e565b9050919050565b7f4552433732313a207472616e7366657220746f20746865207a65726f2061646460008201527f7265737300000000000000000000000000000000000000000000000000000000602082015250565b600061552d60248361407f565b9150615538826154d1565b604082019050919050565b6000602082019050818103600083015261555c81615520565b9050919050565b7f4552433732313a206d696e7420746f20746865207a65726f2061646472657373600082015250565b600061559960208361407f565b91506155a482615563565b602082019050919050565b600060208201905081810360008301526155c88161558c565b9050919050565b7f4552433732313a20746f6b656e20616c7265616479206d696e74656400000000600082015250565b6000615605601c8361407f565b9150615610826155cf565b602082019050919050565b60006020820190508181036000830152615634816155f8565b9050919050565b7f4f776e61626c653a2063616c6c6572206973206e6f7420746865206f776e6572600082015250565b600061567160208361407f565b915061567c8261563b565b602082019050919050565b600060208201905081810360008301526156a081615664565b9050919050565b7f4552433732313a20617070726f766520746f2063616c6c657200000000000000600082015250565b60006156dd60198361407f565b91506156e8826156a7565b602082019050919050565b6000602082019050818103600083015261570c816156d0565b9050919050565b7f4552433732313a207472616e7366657220746f206e6f6e20455243373231526560008201527f63656976657220696d706c656d656e7465720000000000000000000000000000602082015250565b600061576f60328361407f565b915061577a82615713565b604082019050919050565b6000602082019050818103600083015261579e81615762565b9050919050565b7f4e487b7100000000000000000000000000000000000000000000000000000000600052601260045260246000fd5b60008190508160005260206000209050919050565b60006020601f8301049050919050565b600082821b905092915050565b6000600883026158367fffffffffffffffffffffffffffffffffffffffffffffffffffffffffffffffff826157f9565b61584086836157f9565b95508019841693508086168417925050509392505050565b600061587361586e61586984613f64565b614840565b613f64565b9050919050565b6000819050919050565b61588d83615858565b6158a16158998261587a565b848454615806565b825550505050565b600090565b6158b66158a9565b6158c1818484615884565b505050565b5b818110156158e5576158da6000826158ae565b6001810190506158c7565b5050565b601f82111561592a576158fb816157d4565b615904846157e9565b81016020851015615913578190505b61592761591f856157e9565b8301826158c6565b50505b505050565b600082821c905092915050565b600061594d6000198460080261592f565b1980831691505092915050565b6000615966838361593c565b9150826002028217905092915050565b61597f82614074565b67ffffffffffffffff8111156159985761599761436b565b5b6159a28254614ba2565b6159ad8282856158e9565b600060209050601f8311600181146159e057600084156159ce578287015190505b6159d8858261595a565b865550615a40565b601f1984166159ee866157d4565b60005b82811015615a16578489015182556001820191506020850194506020810190506159f1565b86831015615a335784890151615a2f601f89168261593c565b8355505b6001600288020188555050505b505050505050565b7f416363657373436f6e74726f6c3a206163636f756e7420000000000000000000600082015250565b6000615a7e60178361534d565b9150615a8982615a48565b601782019050919050565b7f206973206d697373696e6720726f6c6520000000000000000000000000000000600082015250565b6000615aca60118361534d565b9150615ad582615a94565b601182019050919050565b6000615aeb82615a71565b9150615af78285615358565b9150615b0282615abd565b9150615b0e8284615358565b91508190509392505050565b7f455243373231456e756d657261626c653a20636f6e736563757469766520747260008201527f616e7366657273206e6f7420737570706f727465640000000000000000000000602082015250565b6000615b7660358361407f565b9150615b8182615b1a565b604082019050919050565b60006020820190508181036000830152615ba581615b69565b9050919050565b600081519050919050565b600082825260208201905092915050565b6000615bd382615bac565b615bdd8185615bb7565b9350615bed818560208601614090565b615bf6816140ba565b840191505092915050565b6000608082019050615c166000830187614185565b615c236020830186614185565b615c306040830185613f6e565b8181036060830152615c428184615bc8565b905095945050505050565b600081519050615c5c81613ed5565b92915050565b600060208284031215615c7857615c77613e9f565b5b6000615c8684828501615c4d565b91505092915050565b6000615c9a82613f64565b9150615ca583613f64565b9250828202615cb381613f64565b91508282048414831517615cca57615cc9614b0c565b5b5092915050565b6000615cdc82613f64565b915060008203615cef57615cee614b0c565b5b600182039050919050565b7f537472696e67733a20686578206c656e67746820696e73756666696369656e74600082015250565b6000615d3060208361407f565b9150615d3b82615cfa565b602082019050919050565b60006020820190508181036000830152615d5f81615d23565b9050919050565b6000615d7182613f64565b9150615d7c83613f64565b9250828203905081811115615d9457615d93614b0c565b5b92915050565b7f4e487b7100000000000000000000000000000000000000000000000000000000600052603160045260246000fdfea26469706673582212208a0d01e2f9aafafb4a2c295ab0d9869fbee5e7e33156a631365a5276a0f4f03f64736f6c63430008110033",
  "linkReferences": {},
  "deployedLinkReferences": {}
}